:1000000000800020BD010000ED680000A96800002C
:10001000A9680000A9680000A9680000A96800009C
:10002000A9680000A9680000A9680000ED68000048
:10003000ED680000A9680000A57B0000A97B000016
:10004000ED680000ED680000ED680000ED6800005C
:10005000ED680000ED680000ED680000ED6800004C
:10006000ED680000ED680000ED680000ED6800003C
:10007000ED680000ED680000ED680000ED6800002C
:10008000ED680000ED680000ED680000ED6800001C
:10009000ED680000ED680000ED680000ED6800000C
:1000A000E9830000F5830000ED680000ED680000C2
:1000B000ED680000ED680000ED680000ED680000EC
:1000C000ED680000ED680000ED680000ED680000DC
:1000D000ED680000ED680000ED680000ED680000CC
:1000E000ED680000ED680000ED680000ED680000BC
:1000F000ED680000ED680000ED680000ED680000AC
:10010000ED680000ED680000ED680000ED6800009B
:10011000ED680000ED680000ED680000ED6800008B
:10012000ED680000ED680000ED680000ED6800007B
:10013000ED680000ED680000ED680000ED6800006B
:10014000ED680000ED680000ED680000ED6800005B
:10015000C1630000DD630000F96300001564000066
:10016000ED680000996E0000ED680000ED68000089
:10017000ED680000ED680000ED680000ED6800002B
:10018000ED680000ED680000ED680000ED6800001B
:10019000ED680000ED680000ED680000ED6800000B
:1001A000ED680000ED680000ED680000ED680000FB
:1001B000ED680000ED68000049610000574B4CF20B
:1001C000205210B5DA814DF62812DA8100BF00BF47
:1001D00006F090FB524B4FF010621A63514A9A633B
:1001E000514ADA63514A136913F4807303D153619E
:1001F0004FF4A85313614E4B9A78110703D59A78A0
:1002000042F008029A704B4B4B482A221A704B4B13
:10021000DA1C121AC11E22F00302994288BF002282
:10022000474906F06DFA474B4748DA1C121AC11EBF
:1002300022F00302994288BF002200210BF096FCB5
:10024000424943484FF4DE7206F05AFA414B424AA3
:10025000802103F8011B9342FBD14FF0E0233C4A7D
:10026000C3F8082D3D4B8A221A70A3F5805324222F
:100270005A70A0221A709A799207FCD59A79D406FE
:10028000FCD4374B9A7902F00C02082AFAD10522E5
:100290001A7143225A719A799006FCD5304A9379A3
:1002A0005906FCD51E4B4FF08171596405219964A4
:1002B00020211170917901F00C010C29FAD1294A01
:1002C0005A604FF0E023284A5A6100229A610722BF
:1002D0001A61264AC3F8202D62B606F021FC134BA2
:1002E0005B69DA0705D5224806F00EFC214B224A4D
:1002F000DA61224B1B785B0609D51E4C1E4BE26966
:100300009A4204D11A4806F0FFFB0023E36106F08D
:10031000F7FA0BF09BFC06F0EBF9FEE70020054036
:1003200000800440823F04000100002B00D0034005
:1003300000D0074000E0074030A8FF1F78BFFF1F34
:10034000181901008CC9FF1F78BFFF1F00000000B3
:10035000009EFF1F00E400E05FE400E00050064064
:1003600000400640C01005003F1901000000202099
:1003700014D77F6A00E00340A5C3945A00F00740F9
:10038000FFFFFFFFFFFFFFFFFFFFFFFFFFFFFFFF7D
:10039000FFFFFFFFFFFFFFFFFFFFFFFFFFFFFFFF6D
:1003A000FFFFFFFFFFFFFFFFFFFFFFFFFFFFFFFF5D
:1003B000FFFFFFFFFFFFFFFFFFFFFFFFFFFFFFFF4D
:1003C000FFFFFFFFFFFFFFFFFFFFFFFFFFFFFFFF3D
:1003D000FFFFFFFFFFFFFFFFFFFFFFFFFFFFFFFF2D
:1003E000FFFFFFFFFFFFFFFFFFFFFFFFFFFFFFFF1D
:1003F000FFFFFFFFFFFFFFFFFFFFFFFFFFFFFFFF0D
:10040000FFFFFFFFFFFFFFFFFFFFFFFFDEF9FFFF23
:100410000548064B1B1AD90F01EBA301491002D066
:10042000034B03B11847704778BFFF1F78BFFF1F0A
:100430000000000008B5054B1BB105490548AFF3A6
:100440000080BDE80840FFF7E3BF00BF00000000E8
:1004500078BFFF1F1019010010B5042104460B4896
:1004600007F000FA20460BF02BFC0146204607F06F
:10047000F9F920460BF024FC132806D80446202066
:10048000013407F073FA142CF9D110BD18C1000023
:100490002DE9F04F541E0F2C8BB003D8002901DB3F
:1004A0008A4202DA0BB0BDE8F08F93FBF2F402FB54
:1004B0001433002BC4680193BCBF9B180193002325
:1004C000A242036042608160D8BFC3600029E9D0C6
:1004D0008A4200F001810123551A00249D42CDE992
:1004E00008440793029500F383801C461D4603933E
:1004F000019B0492C3F10009D71A4FF000080126AE
:10050000A6468B464A4673464FF0000C11E050F861
:1005100024300B4340F824300CF1010C4FEA6C13EB
:100520000AA9AC4501EB830302F101021CD053F888
:100530000C3C0CF01F01002A23FA01FA1146B8BF47
:100540000CEB07014C110AF0010A01F01F012346D0
:1005500006FA01F1BAF1000FD9D150F8244024EA8B
:10056000010440F82340D7E708F10108C345E144FE
:1005700067445B46C6DC012B5946049AB8BF01218B
:100580000CFB01FC029F012F8CD1039E019B664452
:10059000ACEB0301F61AA3EB0C0C08E050F82E406C
:1005A0001C4340F82E4001318E423FF47BAF01EBFB
:1005B0000C035C110AAD05EB8404002954F8084CC7
:1005C00003F01F0524FA05F40B46B8BF53184FEA91
:1005D000631E04F0010403F01F0307FA03F3002C69
:1005E000DCD150F82E4024EA030440F82E40DAE72C
:1005F00004909E46039327469A469C460DF1240894
:1006000020460592029ADDF80C9000268A42A8BF87
:100610000A460CEB0A0534464B460CE044F8049CB1
:10062000013674110AABB44503EB840019D050F8BD
:100630000C3C50F8040C06F01F0B23FA0BF9A30036
:1006400003F128040EFA0BFB19F0010F6C444BEA7E
:100650000009E3D128336B4420EA0B0043F8040C73
:10066000DEE700230DE058F82900204348F8290070
:10067000013358110AAC534504EB800016D050F8F2
:10068000087C03F01F0B03EB0C0027FA0BF700F0BC
:100690001F04FF074FEA60190EFA04F4E3D458F878
:1006A000297027EA040748F82970E1E78A4224DB29
:1006B000029B9B1A0293029B09980790012B17DC5F
:1006C000114600290446059A0498CDF80CA03FF77E
:1006D0000FAF4FF0000C55E700210B46012505FA3E
:1006E00003F401339A4241EA0401F8D10160D9E6EA
:1006F000089F0390AC46114684E7039B08938B1A2E
:100700000293B246D7E700BFF8B50546354805F075
:10071000F7FE42242D2007F029F9013CFAD1314897
:10072000314C05F0EDFE0621304807F09BF8691CBE
:100730002C4805F0DDFE04212D4807F093F809212F
:10074000284805F0D5FE2B48022107F08BF805EB71
:10075000850304EB8303AE009F6837B138460BF086
:10076000AFFA0146384607F07DF8771904EB8707A2
:100770000321214807F076F87B68204A1948A2FB3C
:10078000032399090A22002305F0C8FE03211C480F
:1007900007F068F8134805F0B3FE1A48082107F07F
:1007A00061F8FF6837B138460BF08AFA01463846DF
:1007B00007F058F82E440B4804EB860405F0A0FE21
:1007C0001148082107F04EF8246934B120460BF097
:1007D00077FA0146204607F045F8BDE8F8400148A1
:1007E00005F08EBE90B7FF1FE011010020C1000090
:1007F00028C1000030C1000034C10000D34D621098
:1008000038C100003CC1000048C100002DE9F04F94
:10081000D0F80480836889B04FF07C510590404641
:1008200006930AF05BFE4FF08141002800F0108132
:1008300040460AF0B5FC4FF07E510AF0A7FB049049
:10084000069C002120460AF067FE002878D04FF071
:10085000824120460AF0A4FC4FF08341074620461F
:100860000AF09EFC01460546079040460AF08EFBC2
:1008700009F0BAF80AF070FE2946044640460AF02C
:1008800087FB09F0F3F80AF067FE84426FDC431C33
:100890000393059B0025D3F80CB04FF0834A4FF02B
:1008A000854929E07348019350F8232050F821002E
:1008B000029211460AF06AFB019B0146184601911B
:1008C0000AF01AFC014630460AF060FB019B014623
:1008D00018460AF065FC029A11460AF059FB0146D7
:1008E00038460AF05DFC014628460AF051FB039B9E
:1008F00001349C4205463BD020460AF0FDFB0146F0
:1009000040460AF043FB59460AF04AFC51460AF0B9
:100910003FFB49460AF044FC064609F0A7F80AF0F6
:100920001BFEB0F5006F034600F10101BAD30021B0
:10093000D6E7DDF81080039829460AF029FB0490D9
:10094000069940460AF024FB4FF07E5104460AF017
:10095000D9FD002800F085804FF07E5120460AF036
:1009600015FB059B5860049809B0BDE8F08F002581
:10097000294604980AF00CFB4FF07C510390404646
:100980000AF004FB079C214681460AF0FFFA09F0B1
:100990002BF80AF0E1FD2146044648460AF0F8FA31
:1009A00009F064F80AF0D8FD844207F100475EDCE4
:1009B000431C0293059BCDF81080D3F80CB00025A2
:1009C0004FF0834A27E02B4A019052F8208052F8DA
:1009D000210041460AF0DAFA019B014618460191CE
:1009E0000AF08AFB014630460AF0D0FA019B014624
:1009F00018460AF0D5FB41460AF0CAFA01463846C5
:100A00000AF0CEFB014628460AF0C2FA029B0134E6
:100A10009C4205468DD020460AF06EFB01464846B2
:100A20000AF0B4FA59460AF0BBFB51460AF0B0FA94
:100A30004FF085410AF0B4FB064609F017F80AF0BA
:100A40008BFDB0F5006F00F10101BCD30021D6E7AA
:100A500040460AF0A5FB014607480AF097FA0490C1
:100A6000EEE6059B04985C6009B0BDE8F08F0025B8
:100A700061E700BF70D10000000040402DE9F8435D
:100A800085687F49044628460AF028FDD4F800907E
:100A9000002864D0DFF8E881E768794938460AF031
:100AA0001DFD002858D139464FF07E500AF02CFC2D
:100AB0000646494640460AF027FC72490AF070FB98
:100AC00007F0A8FD63680546082B2AD8DFE803F085
:100AD0007D848D949DA7B305540020696A490AF06E
:100AE00013FC0146694807F0B3FC074607F004FD14
:100AF000014628460AF008FC4FF07E584146C4F8EB
:100B00002080054638460AF041FA31460AF048FB93
:100B10003946606238460AF043FB41460AF036FA2D
:100B2000A062314628460AF033FA29460AF038FB1B
:100B30004FF07E510AF02CFA01464FF07E500AF039
:100B4000E3FB294660610AF02BFB2946A0610AF00D
:100B500027FBE061BDE8F8834D4E494FA9E74D49B9
:100B600048460AF01DFB8046014628460AF0D4FCA0
:100B7000002891D1A8468FE7206943490AF0C4FBB9
:100B80000146424807F064FC074607F0B5FC014601
:100B900028460AF005FB3946054638460AF000FBB0
:100BA0003946804620624FF07E500AF0EFF9314618
:100BB0000AF0F6FA39460AF0F3FA414660624FF05D
:100BC0007E500AF0E3F9A062ABE700234FF07E52BB
:100BD00023626362A262A4E72F4BA3624FF07E52AE
:100BE00006F10041616222629BE700234FF07E52D2
:100BF00023626262A36294E74FF07E52002306F103
:100C0000004161622262A3628BE74FF07E524FF097
:100C1000404306F1004161622262A36281E74FF026
:100C20007E5323624FF0404130460AF0B9FA002368
:100C30006062A36275E7206913490AF065FB01460B
:100C4000124807F005FC8046014638460AF0A8FA2B
:100C500001464FF07E500AF057FB4FF07E57064694
:100C60004146276240460AF09BFA39460AF08EF95F
:100C700031460AF095FA00236062A36251E700BF93
:100C80006F12833ADB0F49400000204200002041F0
:100C9000FFFF794448E1FA3E000080BF2DE9F84F9C
:100CA00043680446042B00F26081DFE803F032B9A8
:100CB000578903008568AE4B2E68334483EAD330EE
:100CC0002B6043F0010303FB00F040F03D0280EA9B
:100CD000D01302FB0303584080EA90300AF008FA70
:100CE0004FF03E510AF05CFA0146A06B0AF014FC8A
:100CF000002840F06581E76A216B38460AF050FA17
:100D00000546E06B39460AF04BFAE0622846BDE83A
:100D1000F88F8168964B0A68134443F0010283EA16
:100D2000D33002FB00F040F03D0480EAD01204FB17
:100D3000020250400B6080EA90300AF0D9F94FF07F
:100D40003E510AF02DFA01460AF022F94FF07E5189
:100D50000AF01CF905462846BDE8F88F8168844BE7
:100D60000A68134443F0010283EAD33002FB00F027
:100D700080EAD0120B6040F03D0303FB02035840B1
:100D800080EA90300AF0B4F94FF03E510AF008FAC8
:100D900001460AF0FDF84FF07E510AF0F7F8754968
:100DA0000AF0FEF9A16A0AF0F3F873490AF0ACFA06
:100DB0007249A0620AF0F4F905462846BDE8F88FAA
:100DC00081686B4B0A68134443F0010283EAD33015
:100DD00002FB00F080EAD0120B6040F03D0303FB01
:100DE0000203584080EA90300AF082F94FF03E51F9
:100DF0000AF0D6F9656B0146044628460AF078FBEE
:100E0000002840F0B2804FF07C5128460AF0C8F923
:100E100021460AF081FB002840F01281584D75E709
:100E20008168534B0A68134443F0010283EAD330CC
:100E300002FB00F080EAD0120B6040F03D0303FBA0
:100E40000203584080EA90300AF052F94FF03E51C8
:100E50000AF0A6F901460AF09BF84FF07E510AF01D
:100E600095F848490646E0680AF09AF94649054669
:100E700030460AF095F9014628460AF089F882467C
:100E800042492069C4F80CA00AF08AF94049054695
:100E900030460AF085F9014628460AF079F83D49BE
:100EA0002061834660690AF07BF93B49054630467C
:100EB0000AF076F9014628460AF06AF83749606177
:100EC0008146A0690AF06CF93549054630460AF0BA
:100ED00067F9014628460AF05BF83249A06180466E
:100EE000E0690AF05DF93049054630460AF058F9E4
:100EF000014628460AF04CF82C49E0610746206A72
:100F00000AF04EF92A49054630460AF049F90146E9
:100F100028460AF03BF859460546206250460AF03A
:100F200037F849460AF034F841460AF031F83946B4
:100F30000AF02EF829460AF02BF8616A0AF028F820
:100F40001C49054630460AF02BF9014628460AF0AE
:100F50001FF819490AF024F91849054630460AF0E5
:100F60001FF960622846BDE8F88F0025CEE600BF75
:100F7000F5792B6D0AD7A33C5C8F823F000060405F
:100F8000000080BF4AB57F3FBD66633D384A7E3F63
:100F900065C1993D6210783F618B1D3EF2D25D3F85
:100FA000F8F79E3ECDCC0C3F8E6F083F38F842BF1D
:100FB000AD6D8A3C6744093FAE47E13D9C6AED3D1B
:100FC000234B334483EAD33043F0010303FB00F0A7
:100FD00040F03D0280EAD01302FB0303584080EA50
:100FE00090300AF085F84FF03E510AF0D9F81949CF
:100FF0000AF0D6F8184909F0CBFF184B33442B60A0
:10100000074683EAD33043F0010303FB00F040F0CE
:101010003D0280EAD01302FB0303584080EA90307F
:101020000AF066F84FF03E510AF0BAF84FF07C51E2
:101030000AF054FA38B94FF07E533D46236360E618
:101040004FF07E5562E6064B07F10045F6E700BF1C
:10105000EAF356DA3333333F9A99993EDF6D82478C
:10106000000080BF2DE9F0414FF07C5104468068BC
:1010700009F08EFF0AF070FAD4F82480A76AE56AB6
:10108000266B80F30200A066C4F880000021404671
:101090000AF02EFA002840F0E280D4F8F010404622
:1010A0000AF07EF801467D480AF02EF907F0A8F90B
:1010B00001464FF07E5009F069FFC4F8000100219D
:1010C00038460AF015FA002840F0D280D4F8F01023
:1010D00038460AF065F8014671480AF015F907F03C
:1010E0008FF901464FF07E5009F050FFC4F804011B
:1010F000002130460AF0FCF9002840F0B680D4F810
:10110000F01030460AF04CF8014665480AF0FCF849
:1011100007F076F901464FF07E5009F037FFC4F82A
:101120000801002128460AF0D9F9002840F0B480CF
:101130004FF07E5128460AF0EFF908B14FF07E5586
:10114000D4F83480C4F8FC5000214046A76BE56B0E
:10115000266C0AF0CDF9002840F09080D4F80C11EC
:1011600040460AF01DF801464C480AF0CDF807F059
:1011700047F901464FF07E5009F008FFC4F81C0102
:10118000002138460AF0B4F9002874D1D4F80C11C3
:1011900038460AF005F8014641480AF0B5F807F06C
:1011A0002FF901464FF07E5009F0F0FEC4F82001FF
:1011B000002130460AF09CF9002853D1D4F80C11D4
:1011C000304609F0EDFF014635480AF09DF807F07A
:1011D00017F901464FF07E5009F0D8FEC4F82401FB
:1011E000002128460AF07AF900284AD14FF07E51B2
:1011F00028460AF091F908B14FF07E55A66C2949AE
:10120000C4F8185130460AF069F900283BD14FF074
:101210007E5130460AF080F940B1234DC4F8405168
:101220004FF07E50C4F84401BDE8F0814FF07E518C
:10123000304609F0ADFE1D4909F0B2FF4FF07A517A
:1012400009F0AEFF064607F07BF90546304607F089
:10125000A9F9C4F84051C4F84401BDE8F0814FF049
:101260007E502AE74FF07E50B8E74FF07E5056E7A9
:101270004FF07E503AE74FF07E5097E74FF07E50A8
:101280007CE70025BAE700204FF07E55C4F84051B6
:10129000C4F84401BDE8F081002551E7549F8CBF9C
:1012A0008E5D93C0000080BF2EBD3BB3DB0F494075
:1012B0002DE9F047456C0446002128460AF02CF938
:1012C000002840F01081D4F83461D4F83881E06807
:1012D0004FF07C5109F064FF41460746284609F06B
:1012E0005FFFB74909F05CFF31468146284609F0A7
:1012F00057FFB34909F054FF394609F047FEB14999
:101300000AF002F801464FF08040D4F8286107F057
:101310009FF80146304609F043FF616D09F0F4FF84
:101320000025294680460AF0D9F8002840F0388187
:10133000DFF894A2404651460AF0EEF8002840F04B
:10134000B980C4F85C80294640460AF0E5F828B127
:1013500041464FF07E5009F0D7FF054649462566C5
:10136000384609F015FE974909F0CEFF01464FF0C7
:10137000804007F06DF80146304609F011FFE16E3C
:1013800009F0C2FF0025294607460AF0A7F8002801
:1013900040F00B81DFF83082384641460AF0BCF855
:1013A000002840F008816767294638460AF0B4F8FB
:1013B00028B14FF07E50394609F0A6FF05464FF0A0
:1013C0007C51A567304609F0EBFED4F8841009F093
:1013D0009BFF0027394605460AF080F8002840F0B8
:1013E000E180794E284631460AF096F8002840F010
:1013F000DE80C4F88C50394628460AF08DF828B1B2
:101400004FF07E50294609F07FFF0746D4F81411AB
:10141000206AC4F8907009F0C3FED4F82C11054678
:10142000206D09F0BDFE0146284609F0B1FD0146D8
:101430004FF08040656907F00BF80146284609F037
:10144000AFFE62490546206809F0AAFE60490646DB
:1014500028460AF043F800B15D4D314628460AF0AF
:101460005BF800B13546E0694FF07C510AF036F880
:1014700020B3D4F89C70D4F818803946384609F067
:1014800087FD5449064628460AF028F8002840F00F
:10149000B1804E49384609F083FE0146074628468A
:1014A0000AF03AF84C49002800F0CC80384609F0A0
:1014B00077FEA0E0494DC4F85CA04FE74849A06919
:1014C00009F06EFE4FF07C5109F062FD0023C4F874
:1014D000C800C4F8C450C4F8CC3004F1BC00FFF715
:1014E000CDFABDE8F087D4F804803E4BD8F80090E0
:1014F0004B4483EAD33043F0010303FB00F040F098
:101500003D0280EAD01302FB0303584080EA90308A
:1015100009F0EEFD4FF03E5109F042FE4FF07C51D4
:1015200009F034FD304909F03BFE30490646D4F855
:10153000340109F035FE0146304609F029FD2B49FA
:10154000C4F834010646D4F8380109F029FE284AC7
:101550004A44C8F8002082EAD23342F0010202FB7A
:1015600003F343F03D0183EAD31201FB0232074645
:1015700083EA020080EA903009F0BAFD4FF03E5154
:1015800009F00EFE4FF07C5109F000FD164909F0FC
:1015900007FE394609F0FCFC8046C4F8380196E69F
:1015A000E565DBE6C4F88C7030E7656707E70B4F4D
:1015B000C4F88C602AE7094DC4F87480FFE600BFC8
:1015C000000070410000964448E1FA3E6666E63E3F
:1015D0000000A0416F12833ADB0FC9C0BC9C0240DF
:1015E00000001841F5792B6DCDCC4C3D77BE7F3F87
:1015F000EAF356DA1548314609F086FE06F000FF98
:1016000001464FF07E5009F0C1FC0021C4F8A00053
:10161000404609F063FF30B90D49404609F07CFFB0
:1016200050B10C4800E000204FF07E53C4F8A400F5
:10163000C4F8A830BDE8F0874FF08141404609F07A
:10164000AFFDF1E7284609F0ABFDD4E72FE3CDBBB2
:101650006666863F666686402DE9F04F0546C0F80F
:10166000401D002300204A1E83B0C5F8583DC5F830
:101670005C3D85F8603DC5F82C0D072A00F26881B5
:10168000DFE812F0CC00F6001F012F0146015501E2
:1016900008000800082914BF4FF07E534FF085431F
:1016A00005F50C7A4FF000080193DFF8A8B22B463D
:1016B00005F54D66D1464546002798464C223146F1
:1016C00009F1080005F01CF84846FFF7CBFC53462B
:1016D000D3F8F4201C4603F5AA7362B39E42F7D1F7
:1016E000514600240AE0D1F84C21D4F84C319A42FA
:1016F00038BF0C4601F5AA71B1420AD091F85031B9
:10170000002BF7D1002CEED10C4601F5AA71B142A5
:10171000F4D184B95146002C00F00E81D1F84C214F
:10172000D4F84C319A4238BF0C4601F5AA718E426A
:10173000F1D1002C65D0884B019953F82500D8F8D9
:10174000643DC4F84C31012384F85031C4F8485149
:1017500009F026FD814BC4F82C31C4F82801594604
:10176000E06C09F01DFD01464FF07E5009F00EFCC3
:101770006168C4F830010A68C4F8387102F1DA42CD
:1017800002F52D1202F567523532C4F83471A7659F
:1017900082EAD2300A6042F0010202FB00F040F01F
:1017A0003D0180EAD01201FB0202504080EA9030F5
:1017B00009F09EFC4FF03E5109F0F2FC009008F059
:1017C00055F9009A0146104609F0E0FB0123C4F8E0
:1017D000F430C4F8103100232067C4F88870C4F8CE
:1017E000B870C4F8B470C4F8B070C4F8AC70C4F881
:1017F000E870C4F8EC70C4F8F870C4F81471C4F858
:101800003C310135082D09F5AA797FF457AF544BC7
:101810004546C5F8243D03B0BDE8F08F0323696851
:101820005048AB6109F070FD00242146064609F0DE
:1018300055FE002840F08A804B4F3046394609F06B
:101840006BFE00287FD1EE602146304609F064FE31
:1018500028B14FF07E50314609F056FD0446434B07
:101860002C610022AA60C5F8243D03B0BDE8F08FCA
:1018700069683C4800240023AB6109F045FD21461E
:10188000064609F02BFE002858D1374F304639461E
:1018900009F042FE002853D1EE602146304609F09F
:1018A0003BFE28B14FF07E50314609F02DFD044635
:1018B00000222F4B2C61AA60C5F8243D03B0BDE87F
:1018C000F08F4FF07C51D5F81C0D09F069FC09F040
:1018D00043FE224BC5F8580DC5F8243D03B0BDE8C2
:1018E000F08F4FF07851D5F81C0D09F059FC09F034
:1018F00033FE204BC5F8580D0022C5F80C22C5F860
:101900001C22C5F82C22C5F8243D03B0BDE8F08F99
:101910001949D5F81C0D09F043FC09F01DFE104BC8
:10192000C5F8580DC5F8243D03B0BDE8F08F6968CF
:101930001248002400239FE70C46F6E6EC60B7E768
:101940000F4CEF60B4E70E4CEF6088E7EC6086E781
:101950000023B1E7CCCC4C3E38D10000CDCC4C3F7D
:10196000295C0F3E0000DC4348E1FA3E9A99993E1B
:10197000EC51383E9A99193F0000404000005C420B
:10198000BC9C0240D0F8402D042A2DE9F84F824635
:1019900007D0052A00F04F81032A00F02881BDE816
:1019A000F88FD0F80402002837D0DAF80C22511151
:1019B0000AEB810102F01F04D1F800120132E1406C
:1019C0009042D8BF0022C907CAF80C2225D5DAF800
:1019D0003450A949A94ACAF820100024CAF8242082
:1019E000CAF828402146284609F082FD002800F068
:1019F0006B82DAF83050CAF844400021284609F0DA
:101A000077FD002800F0548200204FF07E52CAF883
:101A10005000CAF84020CAF84C20DAF81402002816
:101A200000F08F80DAF81C2251110AEB810102F0DC
:101A30001F04D1F8101201329042D8BF0022E140B9
:101A4000CAF81C22CA077CD58D4ADAF864108D4882
:101A5000CAF8602009F058FC00242146054609F028
:101A60003DFD002840F02182874E2846314609F08E
:101A700053FD002840F05182CAF86C502146284698
:101A800009F04AFD28B14FF07E50294609F03CFC90
:101A90000446DAF87C10CAF870407C4809F034FC3F
:101AA00000252946044609F019FD002840F0268249
:101AB000754E2046314609F02FFD002840F0318256
:101AC000CAF884402946204609F026FD28B14FF087
:101AD0007E50214609F018FC0546DAF85860CAF82D
:101AE000885000244FF07A52CAF86840CAF8802023
:101AF000CAF80041CAF804412146304609F0F8FC12
:101B000058B9DAF80811304609F04AFB0146604836
:101B100009F0FAFB06F074FC0446DAF85C50CAF8E7
:101B200010410021284609F0E3FC002800F0E9817B
:101B300000204FF07E52CAF81C01CAF80C21CAF8E6
:101B40001821DAF8240200283FF429AFDAF82C2211
:101B500051110AEB810102F01F04D1F82012013269
:101B6000E1409042D8BF0022CB07CAF82C227FF573
:101B700016AF4FF07E504FF07C52464E464FCAF89B
:101B80002421D3460AF19008002581461EE03E49F3
:101B9000204609F0C1FC002840F04F81CBF83841C5
:101BA0002946204609F0B8FC002800F0BE812146F5
:101BB000484609F0A9FBCBF83C01CBF834510BF1B6
:101BC000180BD84500F03E8156F8040F394609F04D
:101BD000E7FADBF8301109F097FB0021044609F021
:101BE0007DFC0028D3D0CBF838512846E3E7456B7D
:101BF00021492A4A01620024426284622146284621
:101C000009F076FC002800F00B81DAF83050CAF8B1
:101C100044400021284609F06BFC002800F0F480C5
:101C200000204FF07E52CAF85000CAF84020CAF88F
:101C30004C20BDE8F88F90F8607D002587F0010703
:101C400080F8607DA8460026002F5CD0144BDAF89F
:101C500064ED53F825C00AF50C794B460AF54D6042
:101C60004A46D2F8F410144602F5AA7200296AD046
:101C70009042F6D1002420E0000048423333733F05
:101C8000CDCC4C3F00003E4348E1FA3E0000984373
:101C9000550CDDC058D100000000A5436666663FC4
:101CA00018D10000D9F84C11D4F84C21914238BF1A
:101CB0004C4609F5AA7981450AD099F85021002AA5
:101CC000F7D1002CEED14C4609F5AA798145F4D123
:101CD000002C38D11C4603F5AA7398420CD0002C76
:101CE000F8D0D3F84C11D4F84C21914238BF1C469F
:101CF00003F5AA739842F2D12CBB0135082D3FF4AD
:101D00004EAE002FA2D10AF561730AF624610420B9
:101D100003E003F5AA739942EFD013F8042C002ACC
:101D2000F7D053F80C2CAA42F3D153F8602C03F8E7
:101D3000048C0AB143F8600C53F8442C002AE8D014
:101D400043F8440CE5E77A4BC4F84CE14FF0010945
:101D5000C4F828C1C4F82C31E06C7649C4F8485165
:101D600084F8509109F01CFA01464FF07E5009F0BA
:101D70000DF96268C4F830011368C4F8386103F1E2
:101D8000DA4303F52D1303F567533533C4F8346193
:101D9000A66583EAD330136043EA090303FB00F02E
:101DA00040F03D0280EAD01302FB0303584080EA72
:101DB000903009F09DF94FF03E5109F0F1F983465A
:101DC00007F054FE0146584609F0E0F80135082DA9
:101DD0002067C4F88860C4F8B860C4F8B460C4F878
:101DE000B060C4F8AC60C4F8E860C4F8EC60C4F853
:101DF000F860C4F8F490C4F81091C4F81461C4F801
:101E00003C817FF47EAFCAE5DAF84810284609F035
:101E1000C7F90146484809F077FA06F0F1FA00E7F9
:101E2000DAF83C10284609F0BBF90146424809F0AF
:101E30006BFA06F0E5FA0446E7E6404B4048CBF87B
:101E40003831B8E6DAF82841CAF8EC510021CAF86E
:101E5000F051204609F04CFB002842D00022CAF87D
:101E6000FC213849DAF82C0109F09AF93649044680
:101E7000DAF8200109F094F901460546204609F0F8
:101E80002DFB0AF5E07200B92C463048CAF8CC01A7
:101E900000211046CAF8C841CAF8D011FEF7EEFD7D
:101EA0004FF07E52CAF8F82179E5CAF86C40F0E5A7
:101EB000DAF84810284609F073F901461E4809F07F
:101EC00023FA06F09DFAA0E5DAF83C10284609F05E
:101ED00067F90146184809F017FA06F091FA044626
:101EE00087E5DAF8F411204609F05AF9014612485C
:101EF00009F00AFA06F084FA0246B0E7CAF88450FC
:101F0000EBE5DAF81411284609F04AF901460A48C7
:101F100009F0FAF906F074FA0BE6094CCAF86C609D
:101F2000B7E5074DCAF88460D7E5284643E600BF09
:101F30003333333F9A99993E550CDDC048E1FA3E60
:101F4000BC9C024000C0DA456666E63E8104353F2F
:101F50002DE9F04F9FB01C461D93D0F8683D1692B6
:101F60000133289AC0F8683DD0F8643D0890151BED
:101F70002B441291C0F8643DD0F8383DBFF35B8F1D
:101F8000D0F83C2D93420DD0C0F83C3DD0F8343D04
:101F9000C0F8443D0023C0F84C3D80F8483D002384
:101FA000C0F8243D089BD3F84C4D002C01F0CE879F
:101FB000012C01F06C86089BD3F8403D062B02F003
:101FC0005580289A1D9B9A4241F312860993129BD1
:101FD000043B4FF0000B1C930898289AD0F8583D0A
:101FE0000999002BA2EB010441F34685D0F85C3D32
:101FF000002B41F3F3859C4208992246A8BF1A465C
:102000009B1AC1F85C3DD1F8403D0999013B0A4457
:102010000B92072B01F20B83DFE813F055065506F0
:102020007E0A3B080A0055060A000A00289B0B930B
:10203000089A099B02F50C7602F54D6203F1804384
:102040001092129A013B02EB83021A92169A02EB4B
:1020500083031993B24605E0109B0AF5AA7A53450B
:1020600001F0E582DAF8F430002BF5D0DAF81C3014
:102070000D93DAF810300B9A0E93099B9342EBDA2A
:10208000DAF83C2101920AF1540213920AF16C022F
:10209000149204930AF18402019B1592199A0592F5
:1020A000002B1A9A069240F3C481013B0193019BD5
:1020B000CAF83C31DAF81031013B032B1CD8DFE8B9
:1020C00013F0E105B905DB050400DAF81441DAF88C
:1020D0002411204609F064F80146204608F056FF16
:1020E000AE49044609F0FAF9002801F00383002301
:1020F000CAF814B1CAF81031DAF86830032B02F2CA
:102100004880DFE813F0FD0461045B040400DAF8A2
:102110005840A349204609F043F806F043FADAF89C
:102120005C1003460393204608F032FF4FF07E51C7
:10213000044609F0E7F9002801F0E48220464FF058
:102140007E5108F023FFCAF85800DAF88030032BDC
:1021500002F24E80DFE813F0FC029503F702040060
:10216000DAF870408E49204609F01AF806F01AFA9B
:10217000DAF8741003460293204608F009FF4FF086
:102180007E51044609F0BEF9002801F0BF822046C6
:102190004FF07E5108F0FAFECAF8700003990298D9
:1021A00008F0F6FE4FF07C5108F0FAFFDAF89830AC
:1021B0000390032B02F20580DFE813F02C028D015F
:1021C00088010400DAF888407549204608F0E8FFE5
:1021D00006F0E8F9DAF88C1003460293204608F07E
:1021E000D7FE4FF07E51044609F08CF9002801F02B
:1021F000918220464FF07E5108F0C8FECAF8880050
:1022000002990E9808F0CCFF039908F0C1FE4FF038
:102210007C5104460D9809F061F9002801F0108204
:102220004FF07C51204608F0BBFFDAF8A430DAF812
:10223000B8801D4681460146404608F0A7FE294663
:10224000039508F0ADFFDAF8A83001461E46204697
:1022500008F09CFE3146029608F0A2FF06F000FA54
:10226000DAF8AC70DAF8A0500646384606F0F8F90D
:102270000146304608F08AFE294608F091FF3946AB
:1022800008F086FE0A9006F0EBF9DAF8B06007462F
:10229000304606F0E5F901463846079708F076FE25
:1022A000294608F07DFF314608F072FE0F9006F0D7
:1022B000D7F9DAF8B4600746304606F0D1F901469E
:1022C000384608F063FE294608F06AFF314608F0F8
:1022D0005FFE0C9006F0C4F90646404606F0C0F9D1
:1022E0000146304608F052FE294608F059FF4146A3
:1022F00008F04EFE4946814608F048FE039908F072
:102300004FFF0146204608F041FE029908F048FFC1
:1023100006F0A6F9079908F039FE294608F040FFB3
:102320000A9908F035FECAF8AC0006F099F939466A
:1023300008F02CFE294608F033FF0F9A114608F0EA
:1023400027FECAF8B00006F08BF9314608F01EFEF1
:10235000294608F025FF0C9B194608F019FECAF81B
:10236000B40006F07DF90446484606F079F90146C6
:10237000204608F00BFE294608F012FF494608F0F7
:1023800007FE0446CAF8B800DAF8F430013B032B24
:1023900001F26687DFE803F07A58530617B7D138A1
:1023A000DB0FC940DAF8F850DAF80811284608F0CF
:1023B000F7FE0146284608F0E9FD9349054609F075
:1023C0008DF8002801F09A810023CAF8F8B0CAF805
:1023D000F4305D462846049DDAF830110135049545
:1023E00008F0DEFE214608F0DBFEDAF84011044674
:1023F00008F0D6FE069B014653F8040F06931E46CE
:1024000008F0C6FD3060DAF84411204608F0C8FE36
:10241000059B014653F8040F05931C4608F0B8FDD0
:102420000B9B20609D423FF417AE019B002B3FF7B2
:102430003CAE5046FEF73CFF0F23019337E6DAF837
:10244000FC50CAF8F850C5E7DAF8F850DAF8FC6042
:102450002946304608F09AFDDAF8041108F0A0FE8B
:10246000294608F095FD3146054608F08FFD66497E
:1024700020F0004009F032F8002801F03F810323EA
:10248000CAF8F8603546CAF8F430A3E7DAF8F8502D
:102490004FF07F50294608F079FDDAF8001108F076
:1024A0007FFE294608F074FD4FF07E51054609F085
:1024B00029F8002801F022814FF07E53CAF8F83045
:1024C0000223CAF8F4304FF07E5583E71598FEF7E3
:1024D0009DF9029094E6DAF89430DAF888001793C0
:1024E0001946079008F0FAFFDAF88C3011930028AB
:1024F00041F06683454B0293119C5946204609F0F2
:102500000BF8002801F09B814FF08341204608F032
:1025100047FE079E189001460546304608F036FDF6
:1025200007F062FA09F018F829460446304608F028
:102530002FFD07F09BFA09F00FF8844201F3938511
:10254000431C0F93DAF89030CDF86CA04FF083491C
:102550004FF085485D469A4637E02D480A9350F87B
:10256000232050F821000C92114608F00FFD0A9B21
:10257000014618460A9108F0BFFD0146384608F0AA
:1025800005FD0A9B0146184608F00AFE0C9A114602
:1025900008F0FEFC5946034630461E4608F0B2FFDE
:1025A00028B130464FF07E5108F0F0FC0646314627
:1025B000304608F0EDFC0146284608F0E9FC0F9B88
:1025C00001349C42054601F0B380204608F094FD9A
:1025D0000146079808F0DAFC514608F0E1FD49464B
:1025E000064608F0D5FC414608F0DAFD074607F03C
:1025F0003DFA08F0B1FFB0F5006F034600F10101AC
:10260000ABD35946D8E700BF17B7D138000080BF19
:1026100074F10000DAF88880DAF88C400F944146B3
:10262000404608F0B5FC4FF07E5108F0AFFC59462B
:102630000290204608F070FF002800F081804FF0E3
:102640008341204608F0ACFD01460546404608F0AF
:102650009DFC07F0C9F908F07FFF29460446404673
:1026600008F096FC07F002FA08F076FF844201F3C6
:10267000F784431C0C93DAF89030CDF844A04FF067
:1026800083495F469A46204608F036FD014640469B
:1026900008F07CFC514608F083FD4946054608F0E9
:1026A00077FC4FF0854108F07BFD064607F0DEF928
:1026B00008F052FFB0F5006F034600F1010104F18C
:1026C000010433D29048079350F8232050F821009A
:1026D0000A92114608F05AFC079B014618460791DA
:1026E00008F00AFD0146304608F050FC079B014601
:1026F000184608F055FD0A9A114608F049FC59465B
:10270000034628461D4608F0FDFE28B128464FF036
:102710007E5108F03BFC05464FF04041284608F04A
:102720003FFD0146384608F033FC07460C9B9C42AF
:10273000A9D1DDF844A00298394608F029FC02909E
:102740000F9940464BE51498FEF760F8029025E596
:10275000DAF87080DAF874400F944146404608F089
:1027600017FC4FF07E5108F011FC594602902046AC
:1027700008F0D2FE002800F081804FF0834120460F
:1027800008F00EFD01460546404608F0FFFB07F045
:102790002BF908F0E1FE29460446404608F0F8FB14
:1027A00007F064F908F0D8FE844201F35684431C14
:1027B0000C93DAF87830CDF844A04FF083495F46A7
:1027C0009A46204608F098FC0146404608F0DEFB99
:1027D000514608F0E5FC4946054608F0D9FB4FF0A4
:1027E000854108F0DDFC064607F040F908F0B4FE2C
:1027F000B0F5006F034600F1010104F1010433D28A
:102800004148079350F8232050F821000A921146BE
:1028100008F0BCFB079B01461846079108F06CFCCA
:102820000146304608F0B2FB079B0146184608F007
:10283000B7FC0A9A114608F0ABFB594603462846F6
:102840001D4608F05FFE28B128464FF07E5108F083
:102850009DFB05464FF04041284608F0A1FC01468B
:10286000384608F095FB07460C9B9C42A9D1DDF841
:1028700044A00298394608F08BFB02900F9940461D
:102880007BE4DAF87C30DAF8700017931946079089
:1028900008F024FEDAF874301193002841F0958195
:1028A0001A4B0293119C5946204608F035FE002829
:1028B00001F050804FF08341204608F071FC079EE4
:1028C000189001460546304608F060FB07F08CF88A
:1028D00008F042FE29460446304608F059FB07F04E
:1028E000C5F808F039FE844201F3B483431C0F930A
:1028F000DAF87830CDF86CA04FF083494FF0854876
:102900005D469A463CE000BF74F10000000080BFC5
:1029100079480A9350F8232050F821000C92114670
:1029200008F034FB0A9B014618460A9108F0E4FBC4
:102930000146384608F02AFB0A9B0146184608F073
:102940002FFC0C9A114608F023FB594603463046EB
:102950001E4608F0D7FD28B130464FF07E5108F0F2
:1029600015FB06463146304608F012FB0146284664
:1029700008F00EFB0F9B01349C42054600F0638774
:10298000204608F0B9FB0146079808F0FFFA5146C7
:1029900008F006FC4946064608F0FAFA414608F0F7
:1029A000FFFB074607F062F808F0D6FDB0F5006FB0
:1029B000034600F10101ABD35946D8E71398FDF760
:1029C00025FF0390FFF7C1BBDAF86430DAF858004E
:1029D00011931946029008F081FDDAF85C300F93EC
:1029E000002841F0E880454B03930F9C5946204650
:1029F00008F092FD002801F038804FF08341204616
:102A000008F0CEFB029E179001460546304608F0BE
:102A1000BDFA06F0E9FF08F09FFD2946044630465E
:102A200008F0B6FA07F022F808F096FD844201F3A8
:102A30000F83431C0C93DAF86030CDF860A04FF0A0
:102A400083494FF085485D469A4637E02A48079308
:102A500050F8232050F821000A92114608F096FA07
:102A6000079B01461846079108F046FB0146384689
:102A700008F08CFA079B0146184608F091FB0A9A69
:102A8000114608F085FA5946034630461E4608F0BE
:102A900039FD28B130464FF07E5108F077FA0646EE
:102AA0003146304608F074FA0146284608F070FABC
:102AB0000C9B01349C42054600F05087204608F0EC
:102AC0001BFB0146029808F061FA514608F068FBCA
:102AD0004946064608F05CFA414608F061FB0746A5
:102AE00006F0C4FF08F038FDB0F5006F034600F1B2
:102AF0000101ABD35946D8E774F10000000080BF54
:102B0000DAF85880DAF85C400C944146404608F008
:102B10003FFA4FF07E5108F039FA594603902046AB
:102B200008F0FAFC002800F081804FF08341204635
:102B300008F036FB01460546404608F027FA06F045
:102B400053FF08F009FD29460446404608F020FAE4
:102B500006F08CFF08F000FD844201F37682431CEE
:102B60000A93DAF86030CDF83CA04FF083495F4615
:102B70009A46204608F0C0FA0146404608F006FA98
:102B8000514608F00DFB4946054608F001FA4FF0A2
:102B9000854108F005FB064606F068FF08F0DCFCFE
:102BA000B0F5006F034600F1010104F1010433D2D6
:102BB0009A48029350F8232050F8210007921146BA
:102BC00008F0E4F9029B01461846029108F094FAD5
:102BD0000146304608F0DAF9029B0146184608F033
:102BE000DFFA079A114608F0D3F9594603462846FA
:102BF0001D4608F087FC28B128464FF07E5108F0AA
:102C0000C5F905464FF04041284608F0C9FA01468B
:102C1000384608F0BDF907460A9B9C42A9D1DDF869
:102C20003CA00398394608F0B3F903900C9940464C
:102C3000FFF77ABADAF81441DAF818512146284633
:102C400008F0A4F9DAF8201108F0AAFA214608F0F1
:102C50009FF92946044608F099F9714920F000408F
:102C600008F03CFC002800F045850323CAF8145105
:102C7000CAF81031FFF740BADAF81831CAF814313F
:102C8000FFF73ABADAF814414FF07F50214608F0C6
:102C90007DF9DAF81C1108F083FA214608F078F97A
:102CA0004FF07E51044608F02DFC002800F02285EC
:102CB0004FF07E53CAF814310223CAF81031FFF7DF
:102CC0001BBA289B0B93099B0B9A934281F2468275
:102CD000089A099B91690591043203F180430D9292
:102CE000129A013B02EB83020292169A02EB8303D3
:102CF0004FF0834A0193059A032A01F29C82DFE890
:102D000012F02601930087000400089D4549AC6835
:102D1000204608F045FA05F045FCE9688146204662
:102D200008F036F94FF07E51044608F0EBFB00281E
:102D300000F05B8720464FF07E5108F027F9089B92
:102D40009860029B099C53F8040F02930134494692
:102D50001D46099408F01CF9019B286053F8040FE4
:102D6000019349461D4608F013F90B9B28609C42CD
:102D7000C1D1289B099A93423FF72EA91C9B289A00
:102D800003EB82071D9B03F18045129B013D03EB82
:102D90008506169B03EB8505089BD3F8204DD3F8D9
:102DA000289DD3F8248D17E008F0F2F80446014678
:102DB000404608F093FB00B1444656F8040F214604
:102DC00008F0EEF9306055F8040F214608F0E8F9F4
:102DD000BE42286000F00F872146404608F09CFB69
:102DE000034649462046002BDED12146404608F0E6
:102DF00075FB034649462046002BDED008F0C6F896
:102E000004460146404608F087FB0028D5D0D3E7AA
:102E10000D98FDF7FBFC814693E700BF74F10000BD
:102E200017B7D138DB0FC940089C6369A0680C93C1
:102E30001946079008F052FBE3680A93002840F017
:102E4000C986DFF8A0920A9C5946204608F064FB28
:102E5000002800F0AC865146204608F0A1F9079EF4
:102E60000E9001460546304608F090F806F0BCFD8D
:102E700008F072FB29460446304608F089F806F04F
:102E8000F5FD08F069FB844201F37081431C069351
:102E9000089BCDF83C90D3F810805D46B14637E0F2
:102EA0009148039350F8232050F8210004921146D2
:102EB00008F06CF8039B01461846039108F01CF9D2
:102EC0000146384608F062F8039B0146184608F0B0
:102ED00067F9049A114608F05BF8594603463046F4
:102EE0001E4608F00FFB28B130464FF07E5108F027
:102EF0004DF806463146304608F04AF80146284665
:102F000008F046F8069B01349C42054600F0CE8549
:102F1000204608F0F1F80146484608F037F84146E7
:102F200008F03EF95146064608F032F84FF0854168
:102F300008F036F9074606F099FD08F00DFBB0F5EC
:102F4000006F034600F10101AAD35946D7E7089E56
:102F5000D6F80880F46807944146404608F018F80F
:102F60004FF07E5108F012F859468146204608F08D
:102F7000D3FA00287CD05146204608F011F90146CA
:102F80000546404608F002F806F02EFD08F0E4FA87
:102F900029460446404607F0FBFF06F067FD08F0AF
:102FA000DBFA844201F3E480431C06933369CDF8D5
:102FB00028905F469946204608F09EF80146404614
:102FC00007F0E4FF494608F0EBF85146054607F0E4
:102FD000DFFF4FF0854108F0E3F8064606F046FDB6
:102FE00008F0BAFAB0F5006F034600F1010104F1F0
:102FF000010433D23C48039350F8232050F82100B9
:103000000492114607F0C2FF039B01461846039144
:1030100008F072F80146304607F0B8FF039B0146FE
:10302000184608F0BDF8049A114607F0B1FF59465A
:10303000034628461D4608F065FA28B128464FF099
:103040007E5107F0A3FF05464FF04041284608F0A7
:10305000A7F80146384607F09BFF0746069B9C42AF
:10306000A9D1DDF828904846394607F091FF8146FE
:103070000799404607F08CFF4FF07E51044608F058
:1030800041FA00287FF456AE089B9C6059E6289BC5
:103090000B93089F15493D6C284608F03DFA00281F
:1030A00000F0AF85F86A4FF07E5107F06FFF099B83
:1030B0000B9A0290934281F226801299DFF83090A9
:1030C000DFF830A003F18043013B01EB8304169944
:1030D0000D9301EB83061C9B019603EB8203039384
:1030E0000BE000BF000080BF74F1000017B7D138BB
:1030F000DB0FC940F304353F3D6CFE6C386D314643
:1031000008F04EF83146F864029808F049F83E6A33
:103110004FF07E5107F03CFF314608F041F8F96965
:1031200008F0F2F8B96A07F033FF4FF07E51064617
:1031300008F0E8F902464FF07E51304612B107F030
:1031400025FF06464946BE62304608F029F805F0DC
:1031500029FABE6BAA498046304608F0BFF90346FB
:103160003146404663B908F01BF805F079FA80460D
:10317000304605F075FA0146404608F0C5F880462D
:10318000786C294608F00CF829463864404608F067
:1031900007F8796A08F004F8514608F001F8054686
:1031A000294654F8040F07F0F3FE019E206056F8FC
:1031B000040F0196294607F0EBFE039B3060A34203
:1031C0009AD1089B8F49D3F80C0108F0A5F9002883
:1031D00040F04C85089B8B49D3F8180108F09CF906
:1031E000002800F0DD80089D8749686D07F0D8FF52
:1031F0004FF07C5107F0D4FF044605F0A1F92D6E85
:10320000294607F0CDFF03462046059305F0CAF98D
:103210000146284607F0C4FF0690089C129A04F164
:103220006403079304F17C030A9304F194030C9361
:103230000D9B02EB8309169A02EB8303099A029312
:103240000192019B079801330193FDF7DFFA0546D0
:103250000A98FDF7DBFAD4F80C7106463946D4F823
:10326000100107F09DFF3146C4F80C01284607F015
:103270008FFE4FF07C5107F093FF394607F090FF27
:1032800003900C98FDF70AFDD4F804A1514680463E
:1032900007F07CFED4F80071D4F8E810D4F8EC50B4
:1032A0000646384607F07CFF29460490304607F072
:1032B00077FF049B0146184607F06AFE294605463B
:1032C000384607F06DFF514607F062FED4F8F01063
:1032D0000490304607F064FF049A0146104607F058
:1032E00057FE29460646284607F052FE394607F0A3
:1032F0004DFE3146C4F80001304607F049FE514604
:1033000007F044FED4F8F410C4F80401404607F076
:1033100047FFD4F8F8108046284607F041FF0146E1
:10332000404607F035FED4F8FC100546304607F05D
:1033300037FF0146284607F02BFED4F818610546F2
:103340003146D4F81C0107F02BFF2946C4F81801B8
:10335000304607F025FF069907F022FF059905463C
:10336000039807F01DFF0146284607F011FE274984
:1033700007F016FF0546294659F8040F07F008FE26
:10338000029AC9F8000052F8040F02922946154625
:1033900007F0FEFD019B0B9A28609342FFF651AFA8
:1033A000089B1849D3F8F8311093184608F0B4F880
:1033B000002800F03C810D9B129A02EB83020F92D1
:1033C000169A02EB83030E93089B90334FF08348C9
:1033D0000D93089B0493CDF81CB0049CD4F84031A5
:1033E000D4F834A10A931946504608F077F8D4F877
:1033F00038310693002840F09E85054B059309E07F
:10340000BD37863517B7D138DB0F4940F304353F58
:10341000000080BF069C5946204608F07DF8002831
:1034200000F0D7844146204607F0BAFE0146054623
:103430000C90504607F0AAFD06F0D6FA08F08CF87A
:1034400029460446504607F0A3FD06F00FFB08F09E
:1034500083F8844200F33884431C0393049B5D4645
:10346000D3F83C9137E0AD48019350F8232050F851
:1034700021000292114607F089FD019B0146184682
:10348000019107F039FE0146384607F07FFD019BA8
:103490000146184607F084FE029A114607F078FDAF
:1034A0005946034630461E4608F02CF828B13046EF
:1034B0004FF07E5107F06AFD06463146304607F070
:1034C00067FD0146284607F063FD039B01349C42DB
:1034D000054600F0FA83204607F00EFE01465046EE
:1034E00007F054FD494607F05BFE4146064607F0EB
:1034F0004FFD4FF0854107F053FE074606F0B6FA40
:1035000008F02AF8B0F5006F034600F10101AAD3D4
:103510005946D7E7289B0B93089F81493E6C30465C
:1035200007F0FAFF002800F08280F86A4FF07E5121
:1035300007F02CFD099B0B9A0290934277DA03F176
:103540008045129BDFF8DC91DFF8DCA1013D03EB45
:103550008504169B03EB85051C9B019503EB8203F9
:10356000039300E03E6CFD6C386D294607F018FEB1
:103570002946F864029807F013FE3D6A4FF07E5129
:1035800007F006FD294607F00BFEF96907F0BCFEBF
:10359000B96A07F0FDFC4FF07E51054607F0B2FF17
:1035A00002464FF07E51284612B107F0EFFC054667
:1035B0004946BD62284607F0F3FD04F0F3FFBD6BFA
:1035C0005A498046284607F089FF03462946404667
:1035D00063B907F0E5FD05F043F88046284605F09D
:1035E0003FF80146404607F08FFE8046786C314632
:1035F00007F0D6FD31463864404607F0D1FD796AC0
:1036000007F0CEFD514607F0CBFD0646314654F893
:10361000040F07F0BDFC019D206055F8040F0195D3
:10362000314607F0B5FC039B2860A3429AD10B9B5F
:103630000993099A289B93423EF7CEACFFF79EBBB5
:10364000DAF8EC702046394607F0A0FCDAF8E8809A
:10365000DAF8D010DAF8D4900646404607F0A0FD1C
:1036600049460546304607F09BFD0146284607F0CF
:103670008FFC49460546404607F092FD394607F063
:1036800087FCDAF8D8108146304607F089FD0146FC
:10369000484607F07DFC29460646284607F078FC98
:1036A000414607F073FC3146CAF8E800304607F09F
:1036B0006FFC394607F06AFCDAF8DC10CAF8EC0057
:1036C000204607F06DFDDAF8E0100446284607F0C2
:1036D00067FD0146204607F05BFCDAF8E41004467B
:1036E000304607F05DFD0146204607F051FC0446D8
:1036F000FEF74ABECAF81441FEF7FEBCCAF8F850FD
:10370000FEF768BECAF85840FEF71FBDCAF8704001
:10371000FEF744BDCAF88840FEF772BD74F10000A0
:1037200017B7D138DB0FC940F304353FBD378635B5
:10373000DDF86CA00298294607F02AFC17990F9033
:10374000079807F023FC189C2146804607F01EFCD2
:1037500006F04AF907F000FF21460446404607F00C
:1037600017FC06F083F907F0F7FE844200F3688443
:10377000431C0C93DAF89030CDF85CA04FF08349ED
:103780005F469A46204607F0B7FC0146404607F0E0
:10379000FDFB514607F004FD4946054607F0F8FBDE
:1037A0004FF0854107F0FCFC064606F05FF907F094
:1037B000D3FEB0F5006F034600F1010104F10104EE
:1037C00033D2AC48029350F8232050F821000A92DB
:1037D000114607F0DBFB029B01461846029107F0F9
:1037E0008BFC0146304607F0D1FB029B0146184690
:1037F00007F0D6FC0A9A114607F0CAFB5946034661
:1038000028461D4607F07EFE28B128464FF07E511F
:1038100007F0BCFB05464FF04041284607F0C0FCCE
:103820000146384607F0B4FB07460C9B9C42A9D1E1
:10383000DDF85CA00F98394607F0AAFB02901199B9
:103840000798FEF7CCBCDDF86CA00299284607F07B
:103850009FFB17990F90079807F098FB189C21463B
:10386000804607F093FB06F0BFF807F075FE21468F
:103870000446404607F08CFB06F0F8F807F06CFEB3
:10388000844200F3E083431C0C93DAF87830CDF8DF
:103890005CA04FF083495F469A46204607F02CFC17
:1038A0000146404607F072FB514607F079FC494655
:1038B000054607F06DFB4FF0854107F071FC0646A9
:1038C00006F0D4F807F048FEB0F5006F034600F1AB
:1038D000010104F1010433D26648029350F8232019
:1038E00050F821000A92114607F050FB029B014656
:1038F0001846029107F000FC0146304607F046FBEF
:10390000029B0146184607F04BFC0A9A114607F045
:103910003FFB5946034628461D4607F0F3FD28B1F4
:1039200028464FF07E5107F031FB05464FF04041ED
:10393000284607F035FC0146384607F029FB0746C4
:103940000C9B9C42A9D1DDF85CA00F99384607F08A
:103950001FFB029011990798FEF70FBCDDF860A0DD
:103960000399284607F014FB11990C90029807F070
:103970000DFB179C2146804607F008FB06F034F843
:1039800007F0EAFD21460446404607F001FB06F039
:103990006DF807F0E1FD844200F34583431C0A9370
:1039A000DAF86030CDF844A04FF083495F469A467C
:1039B000204607F0A1FB0146404607F0E7FA5146D2
:1039C00007F0EEFB4946054607F0E2FA4FF0854165
:1039D00007F0E6FB064606F049F807F0BDFDB0F536
:1039E000006F034600F1010104F1010433D22148C4
:1039F000039350F8232050F821000792114607F056
:103A0000C5FA039B01461846039107F075FB014672
:103A1000304607F0BBFA039B0146184607F0C0FB8F
:103A2000079A114607F0B4FA5946034628461D4640
:103A300007F068FD28B128464FF07E5107F0A6FA3E
:103A400005464FF04041284607F0AAFB014638469C
:103A500007F09EFA07460A9B9C42A9D1DDF844A0D4
:103A60000C98394607F094FA03900F990298FEF7E4
:103A70005BBB00BF74F10000089BD3F8403D013BE5
:103A8000072B3FF67BA901A252F823F0C32C0000BC
:103A9000C32C0000153500008F3000002D200000E1
:103AA000C32C00002D2000002D200000DDF83C90EC
:103AB0002946484607F06CFA0C990C90079807F0D5
:103AC00065FA0E9C2146804607F060FA05F08CFFEF
:103AD00007F042FD21460446404607F059FA05F03A
:103AE000C5FF07F039FD844200F34583431C06936C
:103AF000089BD3F810905F46204607F0FDFA014678
:103B0000404607F043FA494607F04AFB514605464E
:103B100007F03EFA4FF0854107F042FB064605F0FC
:103B2000A5FF07F019FDB0F5006F034600F1010194
:103B300004F1010433D26148039350F8232050F874
:103B400021000492114607F021FA039B0146184612
:103B5000039107F0D1FA0146304607F017FA039BAC
:103B60000146184607F01CFB049A114607F010FAAC
:103B70005946034628461D4607F0C4FC28B128468E
:103B80004FF07E5107F002FA05464FF040412846BB
:103B900007F006FB0146384607F0FAF90746069B90
:103BA0009C42A9D10C98394607F0F2F981460A994E
:103BB0000798FFF75FBA4FF07E530393FEF715BFE8
:103BC0004FF07E530293FEF797BC4FF07E53029363
:103BD000FEF768BE4FF07E59FFF735B90546FDF791
:103BE000D1FED5F8583DFEF706BAAC60FFF7A9B88C
:103BF000089BD3F8204D089BC3F8204D1FB0BDE8AB
:103C0000F08F089B2E49D3F80C0107F085FC40B9D2
:103C1000089B2B49D3F8180107F07EFC002800F020
:103C20008482089D2749686D07F0BAFA4FF07C51ED
:103C300007F0B6FA044604F083FC2D6E294607F01F
:103C4000AFFA03462046059304F0ACFC0146284633
:103C500007F0A6FA099B0B9A06909342BFF6E7ACD1
:103C600003F18043013B0D93FFF7D7BA089D154937
:103C7000686D07F095FA4FF07C5107F091FA044611
:103C800004F05EFC2D6E01462846FFF7BABA089A8A
:103C9000D2F8543D5B1B002BC2F8543D3EF78BA974
:103CA0001646D2F8441D1046FDF7D6FC0223C6F88E
:103CB0004C3D86F8484DFEF77EB900BF74F1000018
:103CC00017B7D138DB0F49405D460598294607F004
:103CD0005FF90A990590504607F058F90C9C214667
:103CE000814607F053F905F07FFE07F035FC2146C9
:103CF0000446484607F04CF905F0B8FE07F02CFCE6
:103D0000844200F32181431C0393049BCDF828A037
:103D1000D3F83C315F469A46204607F0EDF901465C
:103D2000484607F033F9514607F03AFA414605464E
:103D300007F02EF94FF0854107F032FA064605F0FC
:103D400095FE07F009FCB0F5006F034600F1010194
:103D500004F1010433D2B548019350F8232050F800
:103D600021000292114607F011F9019B0146184605
:103D7000019107F0C1F90146304607F007F9019BB0
:103D80000146184607F00CFA029A114607F000F9AE
:103D90005946034628461D4607F0B4FB28B128467D
:103DA0004FF07E5107F0F2F805464FF040412846AB
:103DB00007F0F6F90146384607F0EAF80746039B94
:103DC0009C42A9D1DDF828A00598394607F0E0F813
:103DD00005900699504607F0DBF84FF07E510446F7
:103DE00007F090FB002800F0AB8020464FF07E519A
:103DF00007F0CCF8049BC3F834010798059907F045
:103E0000C7F8049B0D9A079018339A4204937FF4E5
:103E1000E4AA099B86490133099307F075FA089CC7
:103E2000D4F8F0713946064607F0B0F8D4F8EC91B2
:103E3000D4F8D411D4F8D8A10546484607F0B0F913
:103E400051460446284607F0ABF90146204607F0E4
:103E50009FF851460446484607F0A2F9394607F054
:103E600097F8089A8246D2F8DC11284607F098F9AC
:103E70000146504607F08CF821460546204607F0DB
:103E800087F8494607F082F8DDF820902946C9F8FE
:103E9000EC01284607F07CF8394607F077F8D9F8A6
:103EA000E011C9F8F001304607F07AF9D9F8E411C9
:103EB0000646204607F074F90146304607F068F8D8
:103EC000D9F8E8110446284607F06AF90146204669
:103ED00007F05EF8109E04463146D9F8FC0107F061
:103EE0005FF93146C9F8F801204607F059F9D9F8C9
:103EF000241107F055F94F4907F052F90F9A04467B
:103F000052F8040F0F922146164607F041F80E9A18
:103F1000306052F8040F0E922146144607F038F82C
:103F2000099B0B9A20609342BFF681ABD9F8F83118
:103F30001093FFF74EBA4FF07E530593FFF76ABA1E
:103F4000049BC3F8344158E75F463DE7D3F8200DA2
:103F5000002107F0CDFA00283EF42DA8089E36492E
:103F6000F06B07F01DF90146344807F0CDF904F075
:103F700047FA31497064D6F8080107F011F9014693
:103F80002E4807F0C1F904F03BFA2B49C6F810019E
:103F9000D6F8140107F004F90146284807F0B4F9EF
:103FA00004F02EFA2449C6F81C01D6F8F40107F0F3
:103FB000F7F80146214807F0A7F904F021FA06F5C1
:103FC0006177C6F8FC0106F62461204604263B46CC
:103FD00003E003F5AA73994218D013F8042C002AC1
:103FE000F7D053F80C2CA242F3D153F8602C03F80D
:103FF000040C0AB143F8606C53F8442C002AE8D052
:1040000043F8446C03F5AA739942E6D10134082CB5
:10401000DDD1089AD2F8503DC2F8543D0123C2F8D0
:104020004C3DFDF7C8BF5F461AE500BF74F10000C4
:104030000000C040F304353F8FC2F53C550CDDC095
:104040005F46FFF7F7BB5F467FE45F46FEF7E9BDDB
:104050005D4685E45D46FFF7F8BB5F46FEF709BCA9
:104060005F46FEF768BB5D46FFF764BB284607F076
:1040700043F8089D81490446D5F81C0D07F090F8D7
:104080000146204607F040F9D5F82C1D06F080FFC8
:104090004FF07E51044607F035FA00285BD02046E9
:1040A0004FF07E5106F072FF089B0446C3F82C0DBA
:1040B0007349204607F074F804F042FB714907F099
:1040C0006FF8089F796807F01FF90024214605461C
:1040D00007F004FA002855D16B4E2846314607F008
:1040E0001BFA002851D1FD602146284607F014FA3A
:1040F00028B129464FF07E5007F006F90446089B88
:104100001C61FDF75EBF089B6049D3F80C0107F006
:1041100003FA00287FF48BAA089B5C49D3F81801A6
:1041200007F0FAF900287FF482AA089B5749D3F8D0
:10413000F8311093184607F0EFF900283FF477AAFA
:10414000099B0B9A9342BFF672AA03F18043013B8D
:104150000D93FFF730B9C5F82C4DA9E70992289BBC
:10416000099A93423DF738AFFEF708BE5D469FE4DB
:104170005F46FEF778BF5F460C98394606F008FFA9
:10418000814614E5089BDC60B9E7089B404CDE6083
:10419000B5E7DAF85C10DAF8580006F0F9FE4FF0EF
:1041A0007E51044607F0AEF9002860D020464FF05B
:1041B0007E5106F0EBFECDF80CB0CAF85800FDF7C2
:1041C000C4BFDAF88C10DAF8880006F0E1FE4FF090
:1041D0007E51044607F096F908B320464FF07E5111
:1041E00006F0D4FECDF808B0CAF88800FEF708B88B
:1041F000DAF87410DAF8700006F0CAFE4FF07E515B
:10420000044607F07FF980B120464FF07E5106F05A
:10421000BDFECDF808B0CAF87000FDF7BFBFCAF800
:104220008840CDF808B0FDF7EBBFCAF87040CDF874
:1042300008B0FDF7B3BF089DE968A86806F0A8FEBE
:104240004FF07E51044607F05DF960B120464FF013
:104250007E5106F09BFE089BD9469860FEF771BD23
:104260005D46FEF7B7B8AC60D946FEF76ABDCAF83E
:104270005840CDF80CB0FDF768BF00BF0000C0404B
:104280000000E04000005C4248E1FA3E17B7D13838
:10429000BC9C02402DE9F04F87B0049001F0A6FDD0
:1042A0000390002800F0898001F0A0FD059000280F
:1042B00000F086804FF4007200214248424C434E89
:1042C000DFF80C8107F052FC4FF4007200214148E6
:1042D00007F04CFC04983F4A3A49802300938069D8
:1042E0000023FDF735FE059B9F1C039B4FF07E5A74
:1042F0009D1C04F500792CE05146584607F00CF956
:10430000002853D13449584606F04AFF07F024F9F3
:1043100000B256F804BF25F8020F5946584607F078
:1043200005F9002845D14146584607F0EBF8F8B1A9
:104330005146584607F0F0F8002834D1264958462F
:1043400006F02EFF07F008F900B2A14527F8020F8A
:1043500013D054F804BF5946584607F0E7F850BB4D
:104360004146584607F0CEF80028C5D11B48D0E793
:104370001A4827F8020FA145EBD1039E049D0022A5
:104380003146284601F0B2FD059C0122214628460F
:1043900001F0ACFD304601F07FFD204607B0BDE8DE
:1043A000F04F01F079BD47F6FF70CEE747F6FF709A
:1043B000AFE70020C9E70020ABE707B0BDE8F08F0A
:1043C0000398EBE790C1FF1F8CC1FF1F8CBFFF1F3D
:1043D000000080BF90BFFF1F00FEFF460180FFFF6F
:1043E0002DE9F04F264D274C2E68274FDFF89C9083
:1043F0009DB040F2EE2803F03BFB2378002B00F049
:104400005D833B78DA0740F159832B68D9F80020A7
:104410009B1A0E2B40F252832B680393039E1A4F74
:10442000DFF8688003F024FB2378002B00F0518331
:104430003B78DB0740F14D832B68D8F800209B1AAE
:104440000E2B40F246831248124E01F079F94D21AD
:104450000F4801F0A9F9104A1049114B1360C6F832
:104460001C3D08467222002301E010F8012F0133A1
:10447000002AFAD10B4A0C485A407224622318E0F1
:1044800038C5FF1F29C6FF1F50C6FF1F54C6FF1F98
:10449000D8C3FF1F40A9FF1F38A9FF1F55C1000047
:1044A000A6552C4767E6096A512D9ECC234611F884
:1044B000014F534000FB03F34FEAF342002CF5D1C8
:1044C000CC4BCD49C6F8281D82EA124203FB02F20A
:1044D000CA4BDFF82CB3CB4FCB4D756082EA52321A
:1044E00003FB02F282EA12423260C84BC84A3265CC
:1044F00044F2EF42C6F8502D0FCB0DF1140C8CE8AE
:104500000F00C44BCDF81CB008939CE80F0087E85F
:104510000F00C14B7364C14BF56193E807000DF1C7
:104520002409BF4BB564F56389E80700C6F8C830B5
:10453000BC4BC6F8CC3007F1280EBB4BC6F8D030C8
:104540004FF0020A8EE80700C6F8984007F1A8006D
:10455000C6F878A0C6F890A0F567C6F89450C6F8DB
:104560009C60C6F8D45075664FF00108FCF786FAD7
:1045700007F1A800C6F8D880FCF780FAAB4BC6F864
:10458000DC30AB4BC6F8E0300023C6F8E43007F16E
:10459000A800FCF773FAA74BC6F81031A64BC6F873
:1045A0001C31A64BC6F828314FF07E53C6F82C318B
:1045B000C6F80851C6F81451C6F82051A7F12C06C8
:1045C00033466437C3F83051C3F844811833BB42D3
:1045D000F8D19B48C6F8C051FCF750FA9848C6F885
:1045E000C481FCF74BFA974BC6F8FC310023C6F8A0
:1045F000D031954BC6F8C8318D4B9148C6F8F4516F
:10460000C6F8CC31FCF73AFA9048914C7E4DDFF871
:1046100044B2002310220521FBF73AFF0423194678
:104620008D481022FBF734FF01238C4810220B2108
:10463000FBF72EFF8A494C22484602F061F84FF002
:104640007A530B93874B0C93874B10934FF07E5309
:10465000494612938548864B13934C2202F050F83A
:10466000DFF81092814925604C22666004F1080051
:1046700002F046F8804BC4F8A03001224FF07E577C
:1046800004F1BC080023C4F89820C4F8A430E566FF
:10469000C4F88450C4F89C50C4F8BC50C4F8A87046
:1046A00040466565FCF7EAF90023C4F8C03040468F
:1046B000DFF8C8A1FCF7E2F9C4F8F050C4F800A193
:1046C0006F49514806F06CFD01468046484606F0A9
:1046D0001BFE03F095FE0146384606F057FC59468E
:1046E000C4F80401484806F05BFD0146484606F060
:1046F0000BFE03F085FE0146384606F047FC4146B6
:10470000DFF88081C4F80801C4F81CA1C4F80C517A
:10471000C4F8FC80484606F0F7FD03F071FE014640
:10472000384606F033FC5946C4F82001364806F0F6
:1047300037FD0146484606F0E7FD03F061FE0146FD
:10474000384606F023FCC4F81881C4F8240120463A
:10475000FCF788FC454B04F5AA74A3424FF0010214
:104760004FF000037FF47EAFC6F8403DC6F8443DED
:10477000C6F8303DC6F8343DC6F8383DC6F83C3D75
:1047800002234148C6F84C3D1821002386F8482DE5
:10479000C6F8243DC6F8203D01F0B4FA3B4801F0CC
:1047A000AFFE42243D2003F0E1F8013CFAD1374846
:1047B00001F0A6FE1221364803F054F8334801F008
:1047C0009FFE42243D2003F0D1F8013CFAD1314E46
:1047D0002E4801F095FE3048FBF73EFE306806F0AB
:1047E00059F8042402460B460094284801F0A0FE24
:1047F000032153E06BCAEB855B8C143B35AEB2C230
:10480000CDCC0C3F6CA9FF1FA6552C477811010099
:1048100018337F3F0000404058ED7F3F8811010072
:1048200072AF393D4B243E39741D7D3F0000E14499
:104830008104353F04C77F3FA0BB7F3F0AD7A33D1C
:1048400000ABFF1FDC7F7F3F00C0DA4540ABFF1F9E
:1048500070ABFF1FCDCC4C3E50ABFF1F60ABFF1FBA
:104860009411010000803B460AD7233C10B6FF1F7D
:104870009A99193E8E5D93C0F8C38C3D00FE223B91
:10488000CDCCCC3D3333333F0082FF1F90B7FF1FA9
:104890005CC1000038A9FF1F70C10000934802F0FE
:1048A000E1FF934801F02CFE3621924802F0DAFF36
:1048B0008F4801F025FE38218F4802F0D3FF8C4845
:1048C00001F01EFE3A218D4802F0CCFF884801F02D
:1048D00017FE3A218A4802F0C5FF854801F010FE14
:1048E0002F21884802F0BEFF814801F009FE022511
:1048F0008548FBF7B1FD854B009500227C4801F00F
:1049000017FE2C21824802F0ADFF794801F0F8FD36
:104910003B21804802F0A6FF754801F0F1FD3921E6
:104920007D4802F09FFF724801F0EAFD38217B4884
:1049300002F098FF6E4801F0E3FD7948FBF78CFD2B
:1049400080216B4801F0D4FD0721764802F08AFFF0
:10495000674801F0D5FD7448FBF77EFD30684FF0E5
:10496000705106F01DFC05F095FF009502460B46C0
:104970005F4801F0DDFD0B216C4802F073FF5C48DD
:1049800001F0BEFD6A48FBF767FD4821584801F079
:10499000AFFD2146674802F065FF554801F0B0FDC4
:1049A0006548FBF759FD1821514801F0A1FD1B2175
:1049B000624802F057FF4E4801F0A2FD4C4801F05A
:1049C0009FFD20215E4802F04DFF494801F098FD0F
:1049D0003B215C4802F046FF454801F091FD3B2138
:1049E000594802F03FFF424801F08AFD3B215748F9
:1049F00002F038FF3E4801F083FD3521544802F0B3
:104A000031FF3B4801F07CFD3B21524802F02AFF78
:104A1000374801F075FD3B214F4802F023FF344831
:104A200001F06EFD3B214D4802F01CFF304801F0C3
:104A300067FD39214A4802F015FF2D4801F060FD5D
:104A40003621484802F00EFF294801F059FD38216F
:104A5000454802F007FF264801F052FD3B2143483C
:104A600002F000FF224801F04BFD3A21404802F0DD
:104A7000F9FE1F4801F044FD2E213E4802F0F2FEEF
:104A80001B4801F03DFD36213B4802F0EBFE184883
:104A900001F036FD3921394802F0E4FE144801F0F6
:104AA0002FFD3321364802F0DDFE114801F028FDCC
:104AB0000F481DB0BDE8F04F01F022BD2B682278F1
:104AC0009B1B7AB1B3F5FA6F3FF6A6AC02F0D0FFAC
:104AD00091E42B680493049B9B1BB3F57A6FFFF45E
:104AE000A1ACB0E44345F1D996E400BF7CC100001D
:104AF00090B7FF1F80C10000B8C10000F4C10000E2
:104B000030C200006CC200009CC2000000807B40EC
:104B1000ACC20000DCC2000018C3000054C3000097
:104B200090C300009CC30000A4C30000B8C30000F1
:104B3000C4C30000D0C30000D8C30000E8C3000015
:104B400004C4000028C4000064C40000A0C4000025
:104B5000DCC4000014C5000050C500008CC5000076
:104B6000C8C5000004C600003CC6000078C60000AE
:104B7000B4C60000F0C6000020C7000058C70000FF
:104B800094C70000FFFFFFFF2DE9F04FDFF8D8B218
:104B9000B64DDBF800402B688BB0002C0793079ACA
:104BA0002FDBDFF8CC82DFF8CC9298F800306BB1C5
:104BB000D9F80030D31AB04904EB840201EB820229
:104BC00052689A423DD90BB0BDE8F08FD9F8003059
:104BD000D31AB3F5617FEED3A84CA94B2488A94919
:104BE0001C80A94B0988A9481980A94BD0F8640DED
:104BF000A849186001230A6088F800300BB0BDE8AE
:104C0000F08FA548A14B01689A4C013101602260E8
:104C10009748D3F8302D0021CBF80010017052B125
:104C2000C3F8301DC3F8341DD3F8382DBFF35B8FA4
:104C30000132C3F8382D00200BB0BDE8F04FFBF770
:104C400063BD8E4BDFF844A2188806F055FA9349ED
:104C500006F09EF9924906F057FB894B06461888E4
:104C600006F04AFA8D4906F093F98D4906F04CFB9F
:104C70002B6809938449864B07461A680888DAF836
:104C8000641D844B02908A1A1B680392099AD31AF6
:104C90000493844B43F82470834B092143F8240088
:104CA000824802F0DFFD824801F02AFC8148FBF7D0
:104CB000D3FB304605F0EEFD022602460B467C484B
:104CC000009601F035FC31467B4802F0CBFD784878
:104CD00001F016FC7948FBF7BFFB384605F0DAFD1A
:104CE000009602460B46724801F022FC314672489B
:104CF00002F0B8FD6E4801F003FC7148FBF7ACFB15
:104D000000230A2202996A4801F008FC04216D4838
:104D100002F0A8FD1821664801F0EAFB07216A4865
:104D200002F0A0FD624801F0EBFB6848FBF794FB42
:104D30000AF561730AF62460002153F8602C03F52C
:104D4000AA7302B101318342F7D1594801F0D0FB77
:104D5000574801F0D5FB049805F07AFD5C4B0646F8
:104D600018680F4605F096FD02460B463046394658
:104D700005F0E8FD574B002205F00EFF002200234E
:104D800006460F4606F06EF80490002800F0B68044
:104D9000039805F05DFD32463B4605F01BFC4E4B8B
:104DA000002205F0CFFD32463B4605F0F5FE0B46EE
:104DB0000246CDE9042306F095F8484B43F8240059
:104DC0004748FBF749FB00230A220399384801F0C2
:104DD000A5FB0B21434802F045FD434B0022304622
:104DE000394605F0F9FB06F05DF8002301460A227A
:104DF0002F4801F093FB08213C4802F033FD0323C8
:104E000000932B48DDE9042301F092FB02212A489C
:104E100002F028FD264801F073FB3548FBF71CFB28
:104E2000029B172B00F2AA80DDE90401314B00221E
:104E300005F0FAFF002840F03482DDE9040108A300
:104E4000D3E9002305F0F0FF002800F08F80312126
:104E5000294802F007FD164801F052FB95E000BF1B
:104E6000000000A09999B9BF3CA9FF1F38C5FF1FDA
:104E700054C4FF1F98C3FF1FE0110100AEC4FF1F01
:104E8000B2C4FF1FA4C4FF1FACC4FF1F40A9FF1F73
:104E900094C3FF1F7CC4FF1F90C3FF1F5C8F82421F
:104EA0005C8F02430CC4FF1F30C4FF1FC8C7000043
:104EB00090B7FF1FD4C70000DCC70000E0C70000A8
:104EC000E8C7000028C10000F8C7000000C80000C3
:104ED00038A9FF1F00408F400000594058C4FF1FF1
:104EE00010C8000020C800000000E03F2CC80000EF
:104EF00038C800000000E0BFACC80000374B38489D
:104F0000002243F82420FBF7A7FA049C03993548B4
:104F100023460A2201F002FB0B21334802F0A2FCD7
:104F2000324B00223046394605F056FB05F0BAFFF9
:104F3000234601460A222B4801F0F0FA08212C48AA
:104F400002F090FC0323002200932648002301F086
:104F5000EFFA0221274802F085FC224801F0D0FA3E
:104F60002548FBF779FA029B172B07D80D21234818
:104F700002F078FC1B4801F0C3FA06E02048322119
:104F800002F070FC174801F0BBFADBF800000130BA
:104F90000828CBF8000037DC2B681A4A089300EB8E
:104FA0008003089952F82330DAF8302DC9F8001040
:104FB00093424FF0000188F800103FF43DAECAF86C
:104FC000303DCAF8343DDAF8383DBFF35B8F01332A
:104FD000CAF8383DDBF800002EE600BF58C4FF1FBA
:104FE00010C8000090B7FF1F20C800000000E03F7D
:104FF0002CC80000DCC7000038C80000E0C8000072
:1050000044C80000E0110100DAF8303D5BB1002334
:10501000CAF8303DCAF8343DDAF8383DBFF35B8F4B
:105020000133CAF8383DB14801F06AFA42243D2004
:1050300002F09CFC013CFAD1AC4801F061FA0E216F
:10504000AB4802F00FFCAB4AA848116823460A227D
:1050500001F064FAA54801F053FA42243D2002F021
:1050600085FC013CFAD1A148A34DA44EDFF8908203
:10507000A44FDFF894929D4C01F042FA4321A348DB
:1050800002F0F0FB994801F03BFA0221484602F099
:10509000E9FBD6F808A0BAF1000F06D0504606F09A
:1050A0000FFE0146504602F0DDFB504606F008FEBA
:1050B0002928824607D820200AF1010A02F056FC6E
:1050C000BAF12A0FF7D155F8040F05F0E3FB0B46B0
:1050D000022102460091204601F02AFA04218C4860
:1050E00002F0C0FB00230A2258F8041F204601F0FA
:1050F00015FA0521874802F0B5FB57F8040F05F0B3
:10510000C9FB0B46032102460091204601F010FA2C
:10511000204601F0F5F9804B9D4206F11406B4D10A
:105120007E4C2768E069394605F030FF394606466F
:10513000206A05F02BFF05466C4801F0E1F9422496
:105140002D2002F013FC013CFAD1684801F0D8F997
:105150003821734802F086FB644801F0D1F94224FB
:105160002D2002F003FC013CFAD1604801F0C8F99F
:105170006C48FBF771F9384605F08CFB02240246B7
:105180000B465A48009401F0D3F90C21664802F00E
:1051900069FB564801F0B4F96448FBF75DF9304605
:1051A00005F078FB009402460B46504801F0C0F928
:1051B0001E215F4802F056FB4C4801F0A1F95D4802
:1051C000FBF74AF9284605F065FB009402460B46BA
:1051D000464801F0ADF92121574802F043FB43480E
:1051E00001F08EF95548FBF737F95549304606F07E
:1051F00093F900285DD153482B2102F033FB3B4843
:1052000001F07EF95048FBF727F94D49284606F092
:1052100083F9002861D039464C4805F0B7FE4FF0BD
:10522000824105F0BDFF294606F06EF806F094F9BC
:1052300001462E4801F05CF94548312102F012FB8D
:105240002A4801F05DF9294801F05AF9382141480E
:1052500002F008FB254801F053F92A213E4802F0EC
:1052600001FB224801F04CF93A213C4802F0FAFADD
:105270001E4801F045F93821394802F0F3FA1B487D
:1052800001F03EF9194801F03BF93321354802F0AD
:10529000E9FA164801F034F94FF0FF33CBF800304B
:1052A00091E43321304802F0DDFA104801F028F98A
:1052B0006BE63146284606F027F805F0EBFA009435
:1052C00002460B46094801F033F92721274802F02E
:1052D000C9FA064801F014F994E70E21244802F0B7
:1052E000C1FA024801F00CF9ADE700BF90B7FF1F0B
:1052F000F0C8000090C3FF1F08C4FF1FE0110100A9
:105300002CC4FF1F54C4FF1F30C1000000C900009F
:1053100018C1000044C900002CC4FF1F0CC4FF1FAB
:105320004CC9000088C9000098C90000A8C9000045
:10533000B8C90000D8C90000E8C900004CC300008B
:105340000AD7233C34CA000060CA00000000B442FF
:1053500070CA0000B4CA0000F0CA00001CCB0000F4
:1053600058CB000094CB000078C800000CCA0000A5
:10537000A4CA000010B52D492D4A0C682D481060B4
:10538000002382B013611381D360002C4AD02346DE
:1053900019465B69002BFBD14A61274B27481060F7
:1053A000002127489061516151609172022003F100
:1053B000180258721A611972D9609961D96122462E
:1053C0006469002CFBD153611E4A5C615C609C7275
:1053D0001A60194800F092FB1B4B1C4919600A2205
:1053E0001A721B4800F0B0FD134B1149009422467D
:1053F000174800F01DFE174A1749154802F07AFCBD
:10540000164800F0A1FD0122009209490A4B1348F9
:1054100000F00EFE0F4A1049104802B0BDE81040DF
:1054200002F068BC0A601446B7E700BFA8C4FF1FBB
:10543000BCC3FF1FD0CB00009CC3FF1FDCCB000010
:1054400040A9FF1FB8120100D8C3FF1F9C12010022
:10545000E4C3FF1F34A9FF1FE5600000F8C3FF1F6E
:105460000020704700207047F8B51F4C037A0D46A6
:105470005A000127C1F307210646204684F863201D
:1054800084F8AE7084F8AD7002F05EFCE9B220469C
:1054900002F05AFC0021204602F038FE08B100203C
:1054A000F8BD317A3B460222204602F0A5FE0128D3
:1054B000F5D994F8602094F86100824210D2A118C6
:1054C000531CDBB2097E84F8603098424FEA012118
:1054D00006D923440232187E84F860200843F8BDC0
:1054E0004FF0FF30F8BD00BFB0B8FF1FF8B5154C46
:1054F000037A24294FF0010708BFC280BB400D4644
:105500002046C1F30721164684F8633084F8AE7054
:1055100084F8AD7002F018FCE9B2204602F014FCE9
:10552000C6F30721204602F00FFCF1B2204602F03C
:105530000BFC3946204602F0E9FDB0FA80F0400944
:10554000F8BD00BFB0B8FF1FF8B504467A480E4654
:10555000154602F089FC052001F096FB0621204645
:10556000FFF782FF002E77D0B02800F0E0800127FF
:10557000277144F2600230212046FFF7B7FF002870
:1055800073D06C2226212046FFF7B0FF4FF4F9724A
:1055900028212046FFF7AAFF40F622722C21204640
:1055A000FFF7A4FF44F246423C212046FFF79EFF4E
:1055B00040F2371224212046FFF798FF5F4B9E42AE
:1055C00000F2AF80002234212046FFF78FFF2846EB
:1055D00005F08EFDB5FBF6F50746304605F088FD73
:1055E0000146384605F090FE05F01F0506462846A0
:1055F00005F07EFD0146304605F0C8FC4FF08A41BB
:1056000005F0CEFD05F0CEFFC0F30A0242EAC52246
:1056100032212046FFF76AFF44F2FF523021204634
:10562000FFF764FF732202212046FFF75FFF4FF46C
:10563000C87001F029FB41F61D522E212046FFF7CC
:1056400055FF072204212046FFF750FFB022062114
:105650002046FFF74BFF46E00123237144F260022E
:1056600030212046FFF742FF08B90020F8BD6C2228
:1056700026212046FFF73AFF4FF4F97228212046F1
:10568000FFF734FF40F622722C212046FFF72EFF51
:1056900044F246423C212046FFF728FF40F23712F1
:1056A00024212046FFF722FF44F2FF02302120464A
:1056B000FFF71CFF732202212046FFF717FF4FF46C
:1056C000C87001F0E1FA41F61D522E212046FFF785
:1056D0000DFF042211462046FFF708FF3022062165
:1056E0002046FFF703FF10220A212046FFF7FEFEA7
:1056F00000220E212046FFF7F9FE43F63C4210211E
:105700002046FFF7F3FE47F67F7222212046FFF77F
:10571000EDFE362224212046FFF7E8FE01206072CC
:10572000F8BD3A4634212046FFF7E0FE4FE701205E
:10573000002323716072F8BDB0B8FF1F40660301FB
:10574000014A0021FFF700BF605AC50A10B50446A0
:10575000D1B1012901D0002010BD40F273122A21DD
:10576000FFF7C4FE0028F6D0882220212046FFF74C
:10577000BDFE0028EFD0E28820462421BDE810407D
:1057800022F00402FFF7B2BE55222021FFF7AEFE41
:105790000028E0D0E28820462421BDE8104042F0F5
:1057A0000402FFF7A3BE00BF38B50546F1B180295A
:1057B00003799ABFC1F1800444EA0424002433B978
:1057C000224628462221BDE83840FFF78FBEC28816
:1057D000002322F0100203712421FFF787FE2246E6
:1057E00028462221BDE83840FFF780BE012347F656
:1057F0007F7222210371FFF779FEEA88284624216F
:10580000BDE8384042F01002FFF770BE38B50B46D5
:1058100005461D49184605F0C3FC1C4905F0B8FBB8
:1058200005F0C0FEF8B180282B799ABFC0F1800442
:1058300044EA0424002433B9224628462221BDE844
:105840003840FFF753BEEA88002322F010022B7184
:1058500024212846FFF74AFE224628462221BDE899
:105860003840FFF743BE012347F67F7222212B7198
:105870002846FFF73BFEEA8828462421BDE8384049
:1058800042F01002FFF732BE00000143EE7CFF3E03
:105890002DE9F84F374B38481A68384912681B7998
:1058A000CB7782422AD2364B1B78002B4AD1DFF8C5
:1058B000D4A0DFF8D490DFF8D480354FDAF8006058
:1058C000D9F800B0B8F800403D88002E41D0BBF1B7
:1058D000000F16D00BF10402311D02EB450201EB63
:1058E000440100F07FF9403540347F2C11D87F2DE2
:1058F000A8F800401AD83D80BDE8F88FA0F5807068
:10590000D5E7311D01EB4401403400F08AF97F2CCA
:10591000EDD900243046A8F8004000F0BDFA1D4B38
:105920007F2D1A68CAF800201C60E4D9002458466C
:105930003C8000F0B1FA184B1A68C9F800201C60CE
:10594000BDE8F88F4FF0E0234FF08042C3F8082203
:10595000ADE7BBF1000F07D00BF1040101EB4501EE
:1059600000F07FF94035C0E74FF48072594606F0E9
:10597000FDF8BAE798C4FF1F609BFF1F008000403E
:1059800094C4FF1F80C4FF1F88C4FF1F90C4FF1F63
:1059900092C4FF1F84C4FF1F8CC4FF1F38B50021B1
:1059A000044600F0C5FA88B1034672B61B4A106877
:1059B00000282AD01A490D68002D2BD01560194AED
:1059C0000B600023138062B600F066FA01212046C6
:1059D00000F0AEFA034690B172B6134A106878B17F
:1059E00012490C684CB11460114A0B6000241480F9
:1059F00062B6BDE8384000F04FBA0B6062B638BD01
:105A00000B491360088062B638BD064913600880F0
:105A100062B6DBE70B6062B6D8E700BF80C4FF1F49
:105A200084C4FF1F90C4FF1F88C4FF1F8CC4FF1FC6
:105A300092C4FF1F10B5044600F020FC204610BDA4
:105A4000284A294BD16B41F40041D163116C41F0DC
:105A500002011164D16B41F00201D1631A68002A7E
:105A600037DBD3F88020002A33DB4FF0864270B456
:105A7000C3F80021D3F80021002AFBDB01251B4AD3
:105A8000002647F23201C3F804114FF480341E6639
:105A900017495D609A60174ADC6019615A61C3F862
:105AA000E060C3F8845005F18E45C3F88850C3F810
:105AB0008C40C3F89010C3F8942020B90E4B4FF4DB
:105AC000C0629A609A610C4B4FF4C06270BCDA609D
:105AD000704728B9084B4FF4C0629A609A617047CA
