:1000000000800020BD010000991A0000551A000070
:10001000551A0000551A0000551A0000551A000024
:10002000551A0000551A0000551A0000991A0000D0
:10003000991A0000551A0000E9290000ED29000076
:10004000991A0000991A0000991A0000991A0000E4
:10005000991A0000991A0000991A0000991A0000D4
:10006000991A0000991A0000991A0000991A0000C4
:10007000991A0000991A0000991A0000991A0000B4
:10008000991A0000991A0000991A0000991A0000A4
:10009000991A0000991A0000991A0000991A000094
:1000A0008D32000099320000991A0000991A000060
:1000B000991A0000991A0000991A0000991A000074
:1000C000991A0000991A0000991A0000991A000064
:1000D000991A0000991A0000991A0000991A000054
:1000E000991A0000991A0000991A0000991A000044
:1000F000991A0000991A0000991A0000991A000034
:10010000991A0000991A0000991A0000991A000023
:10011000991A0000991A0000991A0000991A000013
:10012000991A0000991A0000991A0000991A000003
:10013000991A0000991A0000991A0000991A0000F3
:10014000991A0000991A0000991A0000991A0000E3
:10015000F5170000111800002D18000049180000C4
:10016000991A0000791F0000991A0000991A0000DE
:10017000991A0000991A0000991A0000991A0000B3
:10018000991A0000991A0000991A0000991A0000A3
:10019000991A0000991A0000991A0000991A000093
:1001A000991A0000991A0000991A0000991A000083
:1001B000991A0000991A00007D150000574B4CF267
:1001C000205210B5DA814DF62812DA8100BF00BF47
:1001D00001F066FC524B4FF010621A63514A9A6369
:1001E000514ADA63514A136913F4807303D153619E
:1001F0004FF4A85313614E4B9A78110703D59A78A0
:1002000042F008029A704B4B4B482A221A704B4B13
:10021000DA1C121AC11E22F00302994288BF002282
:10022000474901F043FB474B4748DA1C121AC11EED
:1002300022F00302994288BF0022002105F080F8D5
:10024000424943484FF4DE7201F030FB414B424AD1
:10025000802103F8011B9342FBD14FF0E0233C4A7D
:10026000C3F8082D3D4B8A221A70A3F5805324222F
:100270005A70A0221A709A799207FCD59A79D406FE
:10028000FCD4374B9A7902F00C02082AFAD10522E5
:100290001A7143225A719A799006FCD5304A9379A3
:1002A0005906FCD51E4B4FF08171596405219964A4
:1002B00020211170917901F00C010C29FAD1294A01
:1002C0005A604FF0E023284A5A6100229A610722BF
:1002D0001A61264AC3F8202D62B601F0C9FC134BFF
:1002E0005B69DA0705D5224801F0B6FC214B224AAA
:1002F000DA61224B1B785B0609D51E4C1E4BE26966
:100300009A4204D11A4801F0A7FC0023E36101F0EE
:10031000CDFB05F085F801F0C1FAFEE700200540AD
:1003200000800440823F04000100002B00D0034005
:1003300000D0074000E00740309CFF1F20A6FF1FB1
:10034000645E0000B4AFFF1F20A6FF1F0000000086
:100350000092FF1F00E400E05FE400E00050064070
:1003600000400640C01005003F1901000000202099
:10037000AA4A7E6A00E00340A5C3945A00F00740F1
:10038000FFFFFFFFFFFFFFFFFFFFFFFFFFFFFFFF7D
:10039000FFFFFFFFFFFFFFFFFFFFFFFFFFFFFFFF6D
:1003A000FFFFFFFFFFFFFFFFFFFFFFFFFFFFFFFF5D
:1003B000FFFFFFFFFFFFFFFFFFFFFFFFFFFFFFFF4D
:1003C000FFFFFFFFFFFFFFFFFFFFFFFFFFFFFFFF3D
:1003D000FFFFFFFFFFFFFFFFFFFFFFFFFFFFFFFF2D
:1003E000FFFFFFFFFFFFFFFFFFFFFFFFFFFFFFFF1D
:1003F000FFFFFFFFFFFFFFFFFFFFFFFFFFFFFFFF0D
:10040000FFFFFFFFFFFFFFFFFFFFFFFFDEF9FFFF23
:100410000548064B1B1AD90F01EBA301491002D066
:10042000034B03B11847704720A6FF1F20A6FF1FEC
:100430000000000008B5054B1BB105490548AFF3A6
:100440000080BDE80840FFF7E3BF00BF00000000E8
:1004500020A6FF1F5C5E00002DE9F04F85B00290E2
:1004600000F0DEFE0190002800F0038100F0D8FECD
:100470000390002800F000814FF4007200217F48B3
:1004800004F05EFF00217E484FF4007204F058FF34
:10049000029B7C499C69666A304604F027FC002870
:1004A00000F0BF802069784DDFF8E0814FF07E5189
:1004B00004F056F905F5007B4FF07E578246CDF8E3
:1004C00000B000E0666AD4F83090606B494604F0F2
:1004D00051FA49462063504604F04CFAD4F804908F
:1004E000394604F03FF9494604F044FA216804F023
:1004F000F5FAE16804F036F93946814604F0ECFB80
:1005000003463946484613B104F02AF9814660494A
:10051000C4F80C90484604F02DFA02F0F3FED4F82B
:100520001CB05C498146584604F0C2FB024659465D
:10053000484662B904F01EFA02F01CFF8146584694
:1005400002F018FF0146484604F0C8FA8146A06A46
:10055000314604F00FFA31466062484604F00AFA68
:10056000A16804F007FA4C4904F004FA0646314643
:1005700055F8040F04F0F6F803462B6058F8040F02
:10058000314604F0EFF8009BC8F80000AB4299D167
:10059000DDF800B0039B3C4C3C4FDFF800819E1C13
:1005A000019B4FF07E599D1C2CE04946504604F0BB
:1005B0009DFB002856D13A49504604F0DBF904F07F
:1005C000B5FB00B257F804AF25F8020F514650466C
:1005D00004F096FB002848D14146504604F07CFBCD
:1005E00010B34946504604F081FB002837D12C490E
:1005F000504604F0BFF904F099FB00B25C4526F8C0
:10060000020F16D054F804AF5146504604F078FB60
:1006100068BB4146504604F05FFB0028C5D1214825
:10062000D0E7DFF884B0B5E71E4826F8020F5C4536
:10063000E8D1019E029D00223146284600F070FE5E
:10064000039C01222146284600F06AFE304600F055
:100650003DFE204605B0BDE8F04F00F037BE47F63E
:10066000FF70CBE747F6FF70ACE70020C6E700203D
:10067000A8E705B0BDE8F08F0198EBE738A8FF1FA9
:1006800038A6FF1F17B7D13834A8FF1F34A6FF1FA5
:10069000DB0FC940BD378635F304353F000080BF0E
:1006A00000FEFF460180FFFF34AAFF1F30B5154B47
:1006B000154CDFF858E0164DC4F82CE00FCB85B090
:1006C000EC468CE80F00134A134B029203939CE80C
:1006D0000F00A4464CF810EB8CE80F000F4BA36200
:1006E0000C210F4B0F48C4F820E0636300F024FD99
:1006F000284600F03FFA4D21284605B0BDE83040BD
:1007000000F06CBA04580000389DFF1FA6552C4716
:1007100074AAFF1FCDCC0C3F0000404058ED7F3F36
:1007200018337F3F0082FF1F70B51B4C1B4AA66920
:100730001B4B6260002529463046A360E56004F04B
:10074000C1FA50B9216A304604F014F9014615483F
:1007500004F0C4F902F0A6FD05466669A562002111
:10076000304604F0AFFA58B100224FF07E53626376
:10077000636223634FF4FA70BDE8704001F02CBB54
:10078000E16A304604F0F6F80146064804F0A6F99E
:1007900002F088FD0246E8E7389DFF1F000048424E
:1007A0006666663F550CDDC010B52D492D4A0C68B4
:1007B0002D481060002382B013611381D360002C98
:1007C0004AD0234619465B69002BFBD14A61274B6F
:1007D0002748106000212748906151615160917253
:1007E000022003F1180258721A611972D9609961D6
:1007F000D96122466469002CFBD153611E4A5C61B9
:100800005C609C721A60194800F092FB1B4B1C49FB
:1008100019600A221A721B4800F0B0FD134B1149EF
:1008200000942246174800F01DFE174A1749154844
:1008300002F0B0F9164800F0A1FD0122009209492A
:100840000A4B134800F00EFE0F4A1049104802B040
:10085000BDE8104002F09EB90A601446B7E700BF39
:10086000D0AAFF1F58AAFF1FF457000038AAFF1F85
:1008700000580000389DFF1F3858000074AAFF1F61
:100880001C58000080AAFF1F349DFF1F191500008F
:1008900094AAFF1F0020704700207047F8B51F4C36
:1008A000037A0D465A000127C1F307210646204668
:1008B00084F8632084F8AE7084F8AD7002F096F985
:1008C000E9B2204602F092F90021204602F070FBC6
:1008D00008B10020F8BD317A3B460222204602F0E2
:1008E000DDFB0128F5D994F8602094F8610082427C
:1008F00010D2A118531CDBB2097E84F860309842F4
:100900004FEA012106D923440232187E84F8602080
:100910000843F8BD4FF0FF30F8BD00BF649FFF1FD4
:10092000F8B5154C037A24294FF0010708BFC2809F
:10093000BB400D462046C1F30721164684F86330BC
:1009400084F8AE7084F8AD7002F050F9E9B2204638
:1009500002F04CF9C6F30721204602F047F9F1B244
:10096000204602F043F93946204602F021FBB0FA56
:1009700080F04009F8BD00BF649FFF1FF8B5044632
:100980007A480E46154602F0C1F9052001F024FA16
:1009900006212046FFF782FF002E77D0B02800F016
:1009A000E0800127277144F2600230212046FFF7E2
:1009B000B7FF002873D06C2226212046FFF7B0FF36
:1009C0004FF4F97228212046FFF7AAFF40F6227261
:1009D0002C212046FFF7A4FF44F246423C2120464A
:1009E000FFF79EFF40F2371224212046FFF798FFC1
:1009F0005F4B9E4200F2AF80002234212046FFF779
:100A00008FFF284603F05EFFB5FBF6F5074630463C
:100A100003F058FF0146384604F060F805F01F0562
:100A20000646284603F04EFF0146304603F098FE86
:100A30004FF08A4103F09EFF04F09EF9C0F30A02D2
:100A400042EAC52232212046FFF76AFF44F2FF52F4
:100A500030212046FFF764FF732202212046FFF772
:100A60005FFF4FF4C87001F0B7F941F61D522E2117
:100A70002046FFF755FF072204212046FFF750FFCD
:100A8000B02206212046FFF74BFF46E001232371E9
:100A900044F2600230212046FFF742FF08B90020EF
:100AA000F8BD6C2226212046FFF73AFF4FF4F97279
:100AB00028212046FFF734FF40F622722C212046E1
:100AC000FFF72EFF44F246423C212046FFF728FF65
:100AD00040F2371224212046FFF722FF44F2FF02A2
:100AE00030212046FFF71CFF732202212046FFF72A
:100AF00017FF4FF4C87001F06FF941F61D522E2117
:100B00002046FFF70DFF042211462046FFF708FF9D
:100B1000302206212046FFF703FF10220A2120463B
:100B2000FFF7FEFE00220E212046FFF7F9FE43F6F6
:100B30003C4210212046FFF7F3FE47F67F72222148
:100B40002046FFF7EDFE362224212046FFF7E8FE7F
:100B500001206072F8BD3A4634212046FFF7E0FEDE
:100B60004FE70120002323716072F8BD649FFF1FCF
:100B700040660301014A0021FFF700BF605AC50A21
:100B800010B50446D1B1012901D0002010BD40F2BA
:100B900073122A21FFF7C4FE0028F6D088222021F4
:100BA0002046FFF7BDFE0028EFD0E2882046242132
:100BB000BDE8104022F00402FFF7B2BE552220210A
:100BC000FFF7AEFE0028E0D0E28820462421BDE8F1
:100BD000104042F00402FFF7A3BE00BF38B505463F
:100BE000F1B1802903799ABFC1F1800444EA042459
:100BF000002433B9224628462221BDE83840FFF7B9
:100C00008FBEC288002322F0100203712421FFF757
:100C100087FE224628462221BDE83840FFF780BEE5
:100C2000012347F67F7222210371FFF779FEEA88DC
:100C300028462421BDE8384042F01002FFF770BE7C
:100C400038B50B4605461D49184603F093FE1C496E
:100C500003F088FD04F090F8F8B180282B799ABF52
:100C6000C0F1800444EA0424002433B92246284613
:100C70002221BDE83840FFF753BEEA88002322F066
:100C800010022B7124212846FFF74AFE22462846EF
:100C90002221BDE83840FFF743BE012347F67F72AB
:100CA00022212B712846FFF73BFEEA8828462421A3
:100CB000BDE8384042F01002FFF732BE00000143A9
:100CC000EE7CFF3E2DE9F84F374B38481A6838491B
:100CD00012681B79CB7782422AD2364B1B78002BC5
:100CE0004AD1DFF8D4A0DFF8D490DFF8D480354FB4
:100CF000DAF80060D9F800B0B8F800403D88002E5E
:100D000041D0BBF1000F16D00BF10402311D02EBF4
:100D1000450201EB440100F07FF9403540347F2C5F
:100D200011D87F2DA8F800401AD83D80BDE8F88F73
:100D3000A0F58070D5E7311D01EB4401403400F08F
:100D40008AF97F2CEDD900243046A8F8004000F045
:100D5000BDFA1D4B7F2D1A68CAF800201C60E4D92B
:100D6000002458463C8000F0B1FA184B1A68C9F8C4
:100D700000201C60BDE8F88F4FF0E0234FF0804268
:100D8000C3F80822ADE7BBF1000F07D00BF1040157
:100D900001EB450100F07FF94035C0E74FF4807268
:100DA000594604F0CDFABAE7C0AAFF1F408FFF1FD3
:100DB00000800040BCAAFF1FA8AAFF1FB0AAFF1F07
:100DC000B8AAFF1FBAAAFF1FACAAFF1FB4AAFF1F31
:100DD00038B50021044600F0C5FA88B1034672B662
:100DE0001B4A106800282AD01A490D68002D2BD004
:100DF0001560194A0B600023138062B600F066FA92
:100E00000121204600F0AEFA034690B172B6134AB3
:100E1000106878B112490C684CB11460114A0B602B
:100E20000024148062B6BDE8384000F04FBA0B6071
:100E300062B638BD0B491360088062B638BD0649FA
:100E40001360088062B6DBE70B6062B6D8E700BFCC
:100E5000A8AAFF1FACAAFF1FB8AAFF1FB0AAFF1FB6
:100E6000B4AAFF1FBAAAFF1F10B5044600F020FC69
:100E7000204610BD284A294BD16B41F40041D16373
:100E8000116C41F002011164D16B41F00201D16398
:100E90001A68002A37DBD3F88020002A33DB4FF0B2
:100EA000864270B4C3F80021D3F80021002AFBDB8E
:100EB00001251B4A002647F23201C3F804114FF402
:100EC00080341E6617495D609A60174ADC601961BC
:100ED0005A61C3F8E060C3F8845005F18E45C3F849
:100EE0008850C3F88C40C3F89010C3F8942020B900
:100EF0000E4B4FF4C0629A609A610C4B4FF4C06283
:100F000070BCDA60704728B9084B4FF4C0629A6031
:100F10009A617047704700BF0080044000F00240B3
:100F2000010000071B1F0100001F1F1F00B004402D
:100F300038B5254C0121204600F05CFB234A244BA8
:100F4000002010601860FFF795FF224B22494FF4F4
:100F5000C0625A602368214A19602149D960214939
:100F600019615A6002254FF480720621DA829D6071
:100F7000DA8398829983986123791B4D03F180432A
:100F800003F504338F2218701A70184B2079184A11
:100F9000E8764FF0807119601A6000F0D7FA227974
:100FA000144C15492070531102F1100003F138233D
:100FB000124C41F8204040339B0002F01F020121F7
:100FC00001FA02F21A6038BDC0AAFF1FA8AAFF1FCB
:100FD000B0AAFF1F00B00440408EFF1F02000101B5
:100FE00000FEFFFF22F002400080004000F00240BF
:100FF00001000090BCAAFF1F0092FF1FC50C00005B
:10100000024A0349034801F0C5BD00BF349DFF1FDC
:10101000690E0000C0AAFF1F2DE9F04F00F5807E89
:10102000B1E8A00AB2E84015C5EA0643C6EA25447D
:10103000C7EA0845C8EA2746C9EA0A47CAEA29486A
:10104000CBEA0C49CCEA2B4AA0E8F8078645E7D161
:10105000BDE8F04F70474FF000022DE9F00F00F5AA
:10106000807C00BFB1E8A00AC5EA0203C2EA2544B9
:10107000C7EA0205C2EA2746C9EA0207C2EA2948C6
:10108000CBEA0209C2EA2B4AA0E8F8078445E9D175
:10109000BDE8F00F70474FF000022DE9F00F00F5AA
:1010A000807C00BFB1E8A00AC2EA0543C2EA050499
:1010B000C2EA0745C2EA0706C2EA0947C2EA0908C6
:1010C000C2EA0B49C2EA0B0AA0E8F8078445E9D155
:1010D000BDE8F00F70472DE9F00F089C00F5007B8C
:1010E00051F8045B53F8046BC5EA0647C6EA254984
:1010F00052F8045B54F8046BC5EA0648C6EA254A70
:10110000A0E880078345EBD1BDE8F00F704700BF32
:101110004FF0E0234FF08042C3F80822704700BF31
:10112000036818470B680360704700BF0B680360D3
:10113000704700BF704700BF70B5C0298E468CB0A5
:101140000B4628BF4FF0C00E72B62D492D4C2E4ACB
:1011500008600021118021606160A160E16021616F
:101160006161C3B10A468C46012501E054F82C1098
:1011700002F01F0305FA03F301320B43964544F8CE
:101180002C304FEA521CF1D80023438001339E4596
:1011900000F58270F9D81D4C257815B162B60CB0F7
:1011A00070BD082000F09CFC194B05608022027184
:1011B00006460093069302A9164B029308A8FFF770
:1011C000B1FF154A06A9304600F0A6FA069B08A80A
:1011D000DB689847009B02A8DB6898472378002BC0
:1011E000DCD10E4B4FF0E022D02083F85E004FF0B0
:1011F00080410123C2F80811237062B60CB070BDA3
:10120000C8AAFF1FE0AAFF1FDCAAFF1FD8AAFF1F62
:101210003C58000011110000FF97010000E400E0BD
:1012200030B472B6244D254C2A8804F1180104EB21
:1012300082038B423BD204F11701C91A02F1010C5F
:101240000CEB910C02E00132624530D0184653F8A5
:10125000041B0029F7D0B1FA81FC4FF0004323FAB8
:101260000CF321EA0301016001B90132144B2A8019
:101270001A88013291B2198062B6001B801000EB0F
:10128000801041F67C7303EBC013CCEB0C60CCEB0D
:10129000801C0C4803EB8C0300680124C4541844E0
:1012A000094B1C88944238BF198030BC704762B625
:1012B000002030BC704700BFDCAAFF1FE0AAFF1F60
:1012C000CCAAFF1FC8AAFF1FD4AAFF1F428872B66C
:1012D0000378012B03D9013B037062B670475109B3
:1012E0000C48D24302F01F024FF0004310B4D34029
:1012F000094C50F821201343228840F821308A42BB
:10130000064A88BF21801388013B138062B610BC57
:10131000704700BFE0AAFF1FDCAAFF1FCCAAFF1F77
:10132000C36813B91CE0DB68DBB1187A9042FAD1CC
:1013300010B4586893F809C0006950F82C404CB1BB
:10134000DB682BB1187A9042F3D0DB68002BF9D11F
:1013500010BC704740F82C10087801300870EFE797
:1013600070477047437A8B4206D90369002253F8CD
:10137000210043F8212070470020704704490022D3
:1013800002604260028102740A68C26008607047AD
:10139000F8AAFF1F037CFBB903680146FBB1436851
:1013A000EBB1427A5B7A9A421CD230B472B62B4BC4
:1013B0001C68ECB1E368C3B1486801E0DB68A3B125
:1013C0005A688242FAD193F809C04A7A9445F5D115
:1013D00062B6042030BC7047012062B6704703201B
:1013E00062B67047022062B670476469002CE1D192
:1013F0001B4C236843B1994202D10BE0994207D0BC
:101400001A46DB68002BF9D1052062B630BC704764
:1014100002F10C040D68E868E8B1C36823B908E07C
:10142000DA68184632B113468142F9D162B6062015
:10143000D0E70346D960CB6823600020C860AA7A51
:1014400001231A44AA724A682B72947A13721C44BC
:1014500094720B74D9E7E960EDE700BFD0AAFF1FD3
:10146000F8AAFF1F10B5047C9DF808E00CB101201C
:1014700010BD027280F809E0BDE81040C0E9001319
:10148000FFF788BF037C002B37D010B54368427A42
:101490005B7A9A42044638D272B60168CB68002B58
:1014A0002DD0984233D01A46DB689C422AD0002BBC
:1014B000F9D16268607A136953F8200048B1FFF7E8
:1014C00005FF72B66268617A1369002043F8210053
:1014D00021688B7A013BDBB28B7203B90B72937A72
:1014E000013BDBB2937203B913720A4B00201A68F6
:1014F0002074E2601C6062B610BD0120704762B6C5
:10150000032010BDE368D360D3E7022010BDC36899
:10151000CB60CEE7F8AAFF1F10B50446FFF7B2FF75
:10152000094A136843B19C4202D108E09C4205D0AD
:101530001A46DB68002BF9D1204610BD0C32E36857
:101540001360204610BD00BFF8AAFF1F094B1A7890
:1015500072B909484FF0E0214FF0D00C80F85EC01E
:1015600001224FF08040C1F8080110461A70704700
:1015700000207047D8AAFF1F00E400E04FF0E022EF
:10158000F8B5D2F8FC3D174D174943F08073C2F807
:10159000FC3D2B680C6843F001032B606E689CB126
:1015A000237A20466BB123686F681B6898476B6885
:1015B000E188DB1BC3F30F12B1EB131FA28038BF0E
:1015C000E2806469002CEBD1064B084A5B68108806
:1015D000074C9B1BC3F30F11B0EB131F218038BFC7
:1015E0001180F8BD001000E0D0AAFF1FDAAAFF1F8B
:1015F000D6AAFF1F10B472B621B9026812B10379DE
:101600000F2B41D9284C2188002341FA03F212F014
:10161000010208D00133102BF7D162B6002202601C
:10162000037110BC70474FF0010C0CFA03FC41EA47
:101630000C01218062B61D495FFA83FC80F804C06A
:101640000C6C44F002040C64CC6B44F00204CC63D8
:1016500003F10073A1F58021822403F590630C60EF
:101660005B0181F81AC081F81EC081F818C081F8AA
:101670001FC010BC0360C3E90022C3E90222C3E912
:101680000422C3E906227047074C218841FA03FC73
:101690001CF0010FB8D003F1007303F59063B2EBB7
:1016A000431FB1D162B6BCE7FCAAFF1F0080044013
:1016B00003790F2B11D8094A937672B6084990F82E
:1016C00004C00B88012202FA0CF223EA02030B8009
:1016D00062B6102200230271036070470080004050
:1016E000FCAAFF1F704700BF704700BF704700BFD4
:1016F000704700BF704700BF38B5064CA4F16005C5
:1017000054F8083C2046DB68183C9847AC42F7D1B7
:1017100038BD00BF50ABFF1F2DE9F043036887B011
:1017200004469046002B3ED000229A600122DA60E7
:10173000294DDFF8A8901D442D1151F8083B009366
:1017400005EB4506F60002A85B68984706F1080716
:1017500059F806304F443846DB689847009B204ACA
:10176000009202A949F8063038469B689847009BCA
:1017700002A8DB68984723681A49C3F8008003224F
:101780009A6005F14402531103F13823207968541B
:10179000403301209B0002F01F0200FA02F21A609F
:1017A00007B0BDE8F083104AD36B43F40003D36362
:1017B00000BF0E4B01221A6003F580730C4A0360D0
:1017C00098680028B4D0103393422360F8D10020E9
:1017D000206007B0BDE8F083008FFCBF00ABFF1FA7
:1017E0004C58000044E400E00080044000700340D6
:1017F000407103400448054A50F8083B01211B682A
:10180000C2F80C11184700BF00ABFF1F0070034067
:101810000448054A836901211B68C2F81C11203065
:10182000184700BF00ABFF1F007003400448054A83
:10183000036B01211B68C2F82C113830184700BF18
:1018400000ABFF1F007003400448054A836C012170
:101850001B68C2F83C115030184700BF00ABFF1F97
:1018600000700340084B0948094A0A4910B40A4C61
:101870001C6098609C6118621C6398639C64186586
:1018800010BC002001F086B900ABFF1FE516000078
:10189000349DFF1FF91600003C58000008B5FEF704
:1018A00005FFFEF741FF01F005F8FAE701B441EA50
:1018B000000313F003036FD1403A41D351F8043BC6
:1018C00040F8043B51F8043B40F8043B51F8043B1A
:1018D00040F8043B51F8043B40F8043B51F8043B0A
:1018E00040F8043B51F8043B40F8043B51F8043BFA
:1018F00040F8043B51F8043B40F8043B51F8043BEA
:1019000040F8043B51F8043B40F8043B51F8043BD9
:1019100040F8043B51F8043B40F8043B51F8043BC9
:1019200040F8043B51F8043B40F8043B51F8043BB9
:1019300040F8043B51F8043B40F8043B403ABDD228
:10194000303211D351F8043B40F8043B51F8043BCA
:1019500040F8043B51F8043B40F8043B51F8043B89
:1019600040F8043B103AEDD20C3205D351F8043B59
:1019700040F8043B043AF9D204320AD0D2071CBF23
:1019800011F8013B00F8013B03D30B7803704B784F
:10199000437001BC704700BF0C2A4AD310F0030308
:1019A00011D0C3F10403D21ADB071CBF11F8013BAD
:1019B00000F8013B07D311F8013B00F8013B11F897
:1019C000013B00F8013B11F003033FF475AF30B465
:1019D000043AC91AC3F1040C51F8044B022B19D074
:1019E000032B0BD0240A51F8043B1D0644EA0504DE
:1019F00040F8044B1C46043AF4D216E0240E51F889
:101A0000043B1D0244EA050440F8044B1C46043A1A
:101A1000F4D20AE0240C51F8043B1D0444EA050406
:101A200040F8044B1C46043AF4D20432B1EB0C01EA
:101A300030BC043AA0D3013A11F8013B00F8013B55
:101A4000F9D20B7803704B7843708B78837001BCAC
:101A5000704700BF08B50F4C636B58030DD4636B20
:101A600059050FD4636B1A0511D4636BDB04F3D5EE
:101A700000F012F8636B5803F1D500F07DFA636B48
:101A80005905EFD500F008F8636B1A05EDD500F0A5
:101A900003F8EAE70080044008B5FFF7DBFF00BF6A
:101AA000014B10221A80704700200540704700BF8C
:101AB000094A08B50346106833B169460344A1F5E5
:101AC00080518B4201D2136008BD03F0A3FC0C23AC
:101AD00003604FF0FF3008BD709DFF1FFEE700BFA1
:101AE00003F06AB9704700BF212835D8042A33D8DB
:101AF00030B42A4B2A4D53F8223005EBC0021B04A8
:101B00005468226812F4E06239D0264A2648C2F8A6
:101B10009C012648C2F8A0012548C2F8A401254826
:101B2000C2F8A8012448C2F8AC0104F14042A2F571
:101B300092207C2811D8214872B6226822F47022A3
:101B400022601343C4F3840243F0807340F82210F0
:101B5000236062B630BC70477047A2F594207C28A1
:101B600015D9A2F596207C2813D9A2F598207C28B7
:101B700011D9A2F59A227C2AECD81148DCE755F855
:101B8000300080F880224FF480722260BDE70D485B
:101B9000D2E70D48D0E70D48CEE700BF5C58000003
:101BA000705800000092FF1F019DFF1FCD9CFF1F7A
:101BB000999CFF1F659CFF1F319CFF1F749DFF1F99
:101BC0004C9EFF1FAC9DFF1FFC9DFF1F2C9EFF1F07
:101BD0001A4B03EBC0035A6802F14043A3F592216C
:101BE0007C2905D9A3F594217C2914D8144900E057
:101BF000144910B472B61368134C23F08773C2F300
:101C0000840023F4803343F08073136041F8204054
:101C100062B610BC7047A3F596217C2909D9A3F5BB
:101C200098217C2907D9A3F59A237C2B05D807494D
:101C3000DFE70749DDE70749DBE770477058000039
:101C4000AC9DFF1F749DFF1FE51A00004C9EFF1FF7
:101C5000FC9DFF1F2C9EFF1F034B002210215A6189
:101C60005A6018605961704700D00340704700BF48
:101C7000F0B54FF0E0244FF400054FF0807CC4F83D
:101C80000851C4F808C14FF0007CC4F808C11D4ACF
:101C90001D481E494FF0806CC4F808C12823002756
:101CA00048F6FF7609254FF0006CC4F808C183B0F0
:101CB00057609660D3605361D3615362D3625363BC
:101CC000D3635364156047608660C36043610560F9
:101CD0004F608E60CB604B610D6000F08FFEFFF7B0
:101CE000C5FF0B4C23680093009B132BFAD900F01F
:101CF000FFFC23680193019BB3F5967FF9D303B0F2
:101D0000F0BD00BF008003400090034000800B4006
:101D100060ABFF1F212816D810B4104B53F83020A9
:101D200092F880422CB1012371B982F8003110BCC5
:101D3000704703EBC0035B681A6849B142F00302C5
:101D400010BC1A607047704782F8803010BC704732
:101D500022F0020210BC1A60704700BF70580000E9
:101D6000212820D81B4A02EBC00301295B680FD051
:101D700004291DD052F83000002280F8802299B149
:101D8000022922D003290DD14FF481721A607047C5
:101D900052F830004FF4A27280F880121A601A686C
:101DA00022F020021A6070474FF480721A60704768
:101DB00052F830104FF4A272012081F880021A60AC
:101DC0001A6842F020021A60704740F203121A604B
:101DD000704700BF705800002DE9F843044672B602
:101DE000204F4FF0E02293693D68D2F8042D62B68F
:101DF000520102D5322B88BF01350CB9BDE8F883FA
:101E0000DFF86490DFF86480A9EB0303A8FB0323E9
:101E10004FF47A7202FB05F505EB13154FF0E0263F
:101E200072B6B1693A68D6F804CD62B6A9EB01037F
:101E3000A8FB03031CF0806FC5EB13134FF47A70FB
:101E400002D0322988BF013200FB0233B3F57A7F1A
:101E500004D3013CD2D005F57A75E1E700F02AFD04
:101E6000DEE700BF60ABFF1F3F190100398EE3388A
:101E700010B472B6194A1A4C042312F8011B090750
:101E800043F0010C05D554F8331061B154F83C10FF
:101E9000B9B10433182BF0D162B6124B00221A707C
:101EA00010BC00F089BC0F4904EBC302083050603D
:101EB0000A780D4844F83300013A0A7062B610BC43
:101EC0007047084A094904EBCC030830586013787E
:101ED00044F83C10013B137062B6F0E7E45900008F
:101EE0000080FF1F5EACFF1F88004000C80040005C
:101EF000421E042A0ED81C4B400140F0100010B4C2
:101F0000034472B6194CA05C03281CD8DFE800F02B
:101F10001315031870470520A05413F0080F088804
:101F200014BFC8228822083142EA004259601A6070
:101F300062B610BC70470320EEE708330220EBE7DF
:101F400008330420E8E70A4B53F8220038B1094B64
:101F500053F82200416043F8221062B6E9E743F8E3
:101F60002210044BF7E700BF0080FF1F4CACFF1F9F
:101F700024ACFF1F38ACFF1F2DE9F04FDFF8D0A2D3
:101F8000DFF8D0B285B03DE0B34D9E0805EBC60743
:101F9000013A796813F00803D4B2A1F1080040F0C7
:101FA000BA8055F836204FEA124C120C21F808CCB2
:101FB00000F0A98021F8063C41F8043CA74B53F8F7
:101FC0002420002A00F00382A54B53F824205060FF
:101FD00043F82400A34B33F81420944423F814C08E
:101FE00000F0CAFB002800F0EB8117F0080F9E4BB1
:101FF00000F1080018BF5B46786045F836300823CA
:102000008AF880309AF880305907DCB21DD5974B9A
:102010001B78BBB196490A7802F0FF032AB1013B55
:10202000DBB20B70002B00F0488392490A7802F073
:10203000FF032AB1013BDBB20B70002B00F0ED81F6
:1020400000F0E2FB04238AF8803014F0080200F06C
:10205000CC819AF89020D3B2120995D1DFF8F8918B
:102060009B0809EBC30459F833006468C0F383008C
:1020700009287CD00FD80138012808D87E4A158855
:1020800042F22100854200F0FB8149F833B0012380
:102090008AF89430B3E70D28F9D1D4E90007774DD9
:1020A00049F833B0744E764CC9F8102083B240F230
:1020B000816CC9F818202A6063454FF00102C6E917
:1020C0000007227000F2FF80B3F5D06F80F0CB8262
:1020D000B3F5817F00F0268240F2DE8040F20232CA
:1020E00093427BD107F07F07052F00F20881020C95
:1020F00040F00581634911F8273043F0020301F8ED
:102100002730134670E017F0080F574B18BF5B4697
:1021100045F8363073E700F04FFB5B495B4A51F8F6
:102120002430002B00F05781586841F82400115DDD
:1021300003F108007860032905D8DFE801F0120FE9
:102140001502042111551A8817F0080F14BFC8236F
:10215000882343EA024345F8363050E702211155FF
:10216000F1E703211155EEE705211155EBE7434D4A
:102170002A683AB34649424C0F88464894F800E032
:102180000678402F3B4628BF4023BEF1000F8EF05B
:10219000010E84F800E046F0020486F001060670A5
:1021A00009EBC400426014BFC820882040EA034005
:1021B0001A44FB1A9BB249F834000B80002B00F044
:1021C00036812A602C4B1A88B2F5A06F7FF45FAF7E
:1021D0009A788AF8982000225A7058E7B3F5A06FD1
:1021E00040F08D8000221346B6F806C02948944579
:1021F00028BF944667460278402F28BF402742F008
:10220000020E3E0409EBCE0846F0C806C8F80430BA
:1022100049F83E6000263B442670BCEB070782F07D
:102220000106067040F01181BCF13F0F4FF001052F
:1022300009D946F00206027009EBC6022570536008
:10224000882349F8363001238AF894301FE700BF0D
:1022500000200740C80040000080FF1FF4ABFF1FB4
:1022600008ACFF1F54ACFF1F8800400051ACFF1F9B
:1022700052ACFF1F80ACFF1F1CACFF1FE8ABFF1F61
:10228000E5ABFF1FC020074024ACFF1F4CACFF1F75
:10229000E6ABFF1FE4ABFF1F802B00F08B81822B8E
:1022A0002DD107F07F07052F29D8A74A00231380D7
:1022B000A64B13F827309F0740F1FC8101231370D0
:1022C000A14B022290E742F2210C6345BBD01DD9FD
:1022D00042F2212293420DD1BFB2002F82D19C4BFA
:1022E0001A689C4B1A609C4BC0F307400022187080
:1022F000134679E742F2213293423FF473AF0F2342
:102300008AF8C03001238AF89430C0E6B3F5086F2C
:1023100000F04A81B3F5106FF1D1904BC0F3074044
:102320000425187059F835301A0606D40135182DD1
:102330000CD059F835301A06F8D509EBC50301352C
:102340005868083800F038FA182DF2D1844A854BC5
:102350000292854A0192854E854ADFF818820394DD
:10236000009200251C4656F8047B2FB138467F6842
:1023700000F022FA002FF9D1009BD8F8007043F842
:10238000045B46F8045C00932FB138467F6800F088
:1023900013FA002FF9D1029B48F8045B43F8045B61
:1023A0000293019B23F8025B01932378023B032BEA
:1023B00000F20981DFE813F03F0104013F0104014D
:1023C0006D4A45F8360013780133137017E643F869
:1023D0002400674BFCE5115D022926D07FF60FAE85
:1023E00003291DD10123135509E6E0076ED4210608
:1023F00021D4A20708D5614B93F888200221D2B2DC
:1024000083F8882083F88010E30603D55B4B102205
:1024100083F8802005B0BDE8F08F00F027FA0FE6C2
:1024200017F0080F14BF032302231355E7E53F2FCE
:1024300098BF0022C5E6514B80220D2183F8C010C1
:1024400083F88020A207DFD5D5E746F002060270A8
:10245000402F09EBC6003A4628BF402243601004D3
:10246000134440F088000121BA1A49F8360021705F
:1024700055D02B60424B1A8001238AF8943006E62F
:1024800092885AB93F4AE51D14F8011B02F8011F52
:10249000AC42F9D13C4A1268862A3CD03B4C3C48BD
:1024A00025780278002D85F00105257042F00204A0
:1024B00082F00102027009EBC4024FF0000050608C
:1024C00014BFC822882249F83420DEE52B4B30485F
:1024D0003049314C022583F8945002702F480C602B
:1024E0002F4D48608C600D24CD60FF200A618A6109
:1024F00083F8C04001219F2483F8880083F880007E
:1025000083F8982083F88C0083F8844083F8941033
:1025100005B0BDE8F08F234A0F201070BEE73F2FB3
:10252000A7D890E607F07F07052F3FF6E8AE000C2E
:102530007FF4E5AE054A12F8273023F0020302F8D3
:102540002730002213464FE6ECABFF1FC0200740A8
:1025500060ABFF1F7CACFF1F78ACFF1F51ACFF1FAF
:1025600038ACFF1F4CACFF1F54ACFF1FF4ABFF1F78
:1025700008ACFF1F24ACFF1F5EACFF1F002007400C
:10258000E6ABFF1F6FACFF1F70ACFF1FE5ABFF1F7B
:10259000E4ABFF1F0080FF1F8800400064ABFF1FFB
:1025A000A4ABFF1F52ACFF1F484B49491B780B706F
:1025B0000B4619E6464A00231380454B022213E6D8
:1025C0004FF001032370434BB34204F101047FF445
:1025D000CAAE414E039CDFF80481414F00233370A3
:1025E000042518F8013B3F4AAB541B0725D445F09E
:1025F000020145F0030204350023182D49F831305B
:1026000049F83230EDD1384F25783A7842F002005F
:1026100009EBC00C85F00106CCF80430002D4DD13B
:10262000882382F0010226703A7049F83030012385
:102630008AF894302BE52570C5E700F09DF8002856
:1026400032D009EBC5030830586049F8357000F006
:1026500093F808B345F0010309EBC302083050605A
:1026600049F833B0C3E7214A5368002B3FF447AE23
:10267000000CBFB204E013690C32002B3FF43FAEF4
:1026800011888142F7D15188B942F4D1000A032858
:102690000CBF1A781289A7E533780133337045F0FF
:1026A000010349F83300A2E7337849F835000133D4
:1026B0003370CCE7064B022296E500BE2670C82395
:1026C00082F001063E7049F83030BCE551ACFF1F86
:1026D000ECABFF1F08ACFF1F5EACFF1FE45900000E
:1026E00088004000C0200740E4ABFF1F8459000071
:1026F00070B500F0E9F900231A4A194642F8331080
:1027000002EBC3000133182B4160F7D1164C174B75
:10271000606B174D40F480206063C2F3072483F898
:102720009C40144CFF204FF0010CC2F30746120EE0
:1027300083F8B0604FF0E02E83F8B42083F8800077
:1027400083F88800187483F894C0217083F884C0DB
:10275000702385F849304FF400721023CEF8082119
:10276000237270BD0080FF1F0080044000200740DE
:1027700000E400E00021074072B60D490B68B3FA8F
:1027800083F01D2810DC4FF00042C24023EA020310
:102790000B6062B6074A00EBC000C10002EBC0004C
:1027A000002353504360704762B60020704700BF5B
:1027B000549EFF1FBC93FF1F0E4BC31AB3F5076F48
:1027C00010D20D4A127872B972B60C4A0C49A2FBAB
:1027D000032308684FF000421B0922FA03F3034366
:1027E0000B6062B67047074A1278002AECD0FFF7F8
:1027F0003FBB00BFBC93FF1F5EACFF1F398EE338A9
:10280000549EFF1F51ACFF1F70B50B4C257845B986
:102810000A4E31680123237009B14B8813B9002394
:10282000237070BD9B000B800420FFF761FB002329
:1028300035602370F5E700BF5FACFF1F60ACFF1F82
:10284000084B094A1B6810B554881BB11A885B886D
:10285000D31A1C440CB1204610BD00F02BF82046C2
:1028600010BD00BF64ACFF1F54ACFF1F38B50E4B4A
:102870001B7853B90D4C216841B103F0FF054B881B
:102880000B800320FFF734FB256038BDFFF774FF92
:10289000014620B1BDE838400320FFF729BB044BB7
:1028A00001221A7038BD00BF68ACFF1F6CACFF1F5F
:1028B00080ACFF1F2DE9F843324E337863B1324FBD
:1028C0003A784AB90122D9073A7043D49A0726D4F4
:1028D00000225B073A7001D4BDE8F8832B4B1A68DD
:1028E000002AF9D0EFF30582002AF5D1EFF3108525
:1028F00072B6186800283AD0254C2178002936D1C4
:1029000042691A6001232370002A37D0916105B90A
:1029100062B600258368457798472570DCE7DFF8C5
:10292000748098F80020002AD2D00025DFF8689043
:102930002B4659F82340236820461B6901359847E8
:1029400008B12369984798F80020EBB29A42F0D872
:102950003378BDE7FFF774FF68B9104B1B780BB9EC
:102960003378B3E7337803F0FE033370AEE7002D1E
:10297000B2D162B6B0E700F0A5F8EEE7084B1A60F6
:10298000C5E700BF589EFF1F81ACFF1F84ACFF1F2F
:1029900090ACFF1FA4ACFF1F98ACFF1F8059000034
:1029A00094ACFF1F70B5EFF3108272B60C4C206828
:1029B00080B10C4E00254369236073B19D6102B95B
:1029C00062B6836845779847EFF3108272B6206845
:1029D0000028F0D102B962B670BD3360EFE700BFE6
:1029E0008CACFF1F88ACFF1FFFF7DCBF024A1368E7
:1029F00001331360704700BF60ABFF1F2A4B2B4AA7
:102A00006020E1211870597013782948082B34D0C0
:102A10000A2B20D00C2B274B0CBF15213D21122255
:102A20008160C2609960DA60234B21491B78214A9A
:102A3000CBB101230B621362204B1D491B781D4A49
:102A4000012B13D9042B1BD884234B6253621C4BDC
:102A500001221A707047174B192113228160C2603E
:102A60009960DA60E0E70B621362E5E780234B626E
:102A70005362134B01221A7070470E4B0121ECE791
:102A8000082B06D885234B6253620D4B01221A7026
:102A90007047102B94BF862387234B625362084BE9
:102AA00001221A70704700BF00400740599EFF1F67
:102AB00000B0034000B00B40A5ACFF1F5A9EFF1FA3
:102AC000A6ACFF1F704700BF10B584B072B6174A9E
:102AD000702441200F2180231470D07191711370E4
:102AE00013781B06FCD5906862B6114B114C9842C6
:102AF00038BF00EB800001A938BF40000A2200F077
:102B00001BF801A92046002311F8012B01333AB12B
:102B10000A2B20F8022FF7D11623237004B010BD22
:102B20005B00DBB2237004B010BD00BF00000240A8
:102B3000809698004C9FFF1F01F1FF3C70B56546E1
:102B4000002401E070460134B0FBF2FE02FB1E03DC
:102B5000092B03F130068ABF3733F3B2DBB2904260
:102B600005F8013FEED2631C0022CA54C8187CB19C
:102B700062461CF8015F10F801ED8CF800E0A1EB53
:102B80000C030232013B521A23449A420570EFDBD8
:102B9000084670BD03460846194602F023BC00BF34
:102BA0000020704790F8612090F86000101A70477C
:102BB00090F8603090F861209A4205D95A1C03447D
:102BC00080F86020187E70474FF0FF30704700BFDC
:102BD00090F8603090F861209A4286BFC018007E5D
:102BE0004FF0FF30704700BF704700BFB0F8AE3005
:102BF0002BB190F8AD30482B03D90123436000205E
:102C00007047C218013380F8AD30012082F863109C
:102C1000704700BF38B5B0F8AE40A4B190F8AD3001
:102C2000C3F14904A24284BF01224260054698BF15
:102C30001446633018442246FEF738FE95F8AD304E
:102C4000234485F8AD30204638BD00BF70B5164C22
:102C50002369DB7813F0200514D094F8B0300133E9
:102C6000DBB2012B84F8B03002D894F8AF3043B90E
:102C7000636994F8B1201344BDE87040187AFEF7F8
:102C8000A7BF70BD636994F8B1201344187AFEF7AA
:102C90009FFFD4F8B830002BF3D094F8610084F88B
:102CA0006050BDE87040184720A0FF1F70B5164C5B
:102CB0002369DB7813F0200514D094F8B030013389
:102CC000DBB2012B84F8B03002D894F8AF3043B9AE
:102CD000636994F8B1201344BDE87040187AFEF798
:102CE00077BF70BD636994F8B1201344187AFEF77A
:102CF0006FFFD4F8B830002BF3D094F8610084F85B
:102D00006050BDE870401847649FFF1F4269002370
:102D1000A0F86030C0F8AC3010B4D2E900140A68F2
:102D2000C0F8B43022430469C0F8B8300A60A37018
:102D3000426990F8B1301849134493F808C05B7B9E
:102D400001EBCC0C1B02DCF8044003F4E06343F01D
:102D50006403236090F8B23013449C7CDB7D01EB6C
:102D6000C4011B024C68116803F4E06343F0640380
:102D7000236009685368194205D0036928225A70F4
:102D8000036903229A71036920225A710369802220
:102D90009A7010BC704700BF7058000010B50369EE
:102DA000D978CAB2C906044622D510215006D97076
:102DB0001DD512F0040250D03D49D4F8B4200023B0
:102DC0000B7084F8AD30002A5BD0904794F8AD309A
:102DD000002B56D02369D0229A70236994F863207F
:102DE0001A712369012284F8AC200222DA7010BD26
:102DF0005106DED4997811F0100117D12D4A80F8D0
:102E0000B01090424FD02C4A904241D094F86110BB
:102E10001A794729D2B2E8D8254800780028E4D0AA
:102E2000481C214484F861000A76DEE712F00102B2
:102E300020D190F8AC1090F8AD00884281BF4A1CB8
:102E4000091984F8AC2091F863201A712369D02203
:102E50009A7023690222DA70C9E7236984F8612035
:102E6000C0219970124A2369012111700222187938
:102E7000DA70BCE7C0229A7003691A790222DA700C
:102E8000B5E70122002384F8AD2084F86330A1E780
:102E9000436990F8B120094913440322187AFEF7D8
:102EA00023FE2369B2E7436990F8B1200449F3E7B0
:102EB000A7ACFF1F649FFF1F20A0FF1F4D2C000029
:102EC000AD2C00002DE9F047374C0269236882B031
:102ED0000093DDF80080D378990618D5334E054667
:102EE000002102E0D3789B0611D523680193019B52
:102EF000A3EB08030F2BF5D969B1102BF2D00020FA
:102F000090702B6980229A7002B0BDE8F087012092
:102F100002B0BDE8F08795F8B1206B691344052134
:102F2000187AFEF71DFF6B6995F8B1201344012153
:102F300093F812A05046FEF713FF09274FF07809C7
:102F400000215046FEF7E6FE4B46013BFDD1012134
:102F50005046FEF7DFFE4B46013BFDD1013FEFD16E
:102F6000696995F8B1300B44F022187A5B7B06EB67
:102F7000C0001B02406803F4E06343F06403036095
:102F800095F8B2300B44997CDB7D06EBC1011B0246
:102F9000496803F4E06343F064030B60013AFDD138
:102FA00001212A699EE700BF60ABFF1F7058000037
:102FB000F0B503691222DA700269937813F02006E3
:102FC00085B004460D4652D0B4239370324920692F
:102FD0000B680093009E05E00A680192019A921B1B
:102FE000042A3DD8C37813F02003F5D094F8AD300F
:102FF0006BB34FF0000CE646022604EB0E0393F889
:10300000633003710B680293029F206907E0920608
:103010000AD50A680392039AD21B052A20D8C378DE
:10302000DAB213F00203F2D0C6702369DA78D7B2AD
:10303000D206184626D4BA0624D5FA0726D494F820
:10304000AD300CF1010C5FFA8CFE7345D5D8002031
:1030500015B1236980229A70002384F8AE3004E011
:103060008370236980229A70042005B0F0BDFFF7B9
:1030700029FF28B1236984F8AF60B0229A70A5E7D0
:103080000420F2E780229A700420E1E7BEF1000FED
:103090000CBF02200320DDE760ABFF1F2DE9F047E6
:1030A0009046994600220369A0F860201222DA7047
:1030B00003699C7814F0200588B007468A4600F022
:1030C0009F80B4229A70704E3B6932680092009AD9
:1030D00008E030680190019CA4EB020CBCF1040FE5
:1030E00000F28680DC7814F02005F2D04FEA4A0224
:1030F00042F00102D2B21A713368029302983A691F
:1031000006E0336803930399091A052900F28280C7
:10311000D47814F00205F4D04FF0020C82F803C00A
:103120003B69DC7814F011057CD1B8F1000F00F098
:103130008480B8F1010F00F08D80A0229A70396967
:103140000B794FF0A80E33680493049805E03268B9
:103150000592059A121A052A68D8CB7813F0020353
:10316000F5D081F803C03969CB78DCB2DB060846BC
:103170000A4641D4A4063FD508F1FF385FFA88F823
:10318000B8F1010F04D181F802E0396908460A4616
:10319000472D59D90379B8F1010FD4D1336806937B
:1031A000069805E0316807910799091A052956D84C
:1031B000D37813F00203F5D00223D3703A69D378A1
:1031C000D806D9B255D48B0616D5B023472D9370A7
:1031D0004CD83A697C19127922766B1CDDB2B9F1B0
:1031E000000F02D03B6980229A7087F8615003E09B
:1031F0009D703B6980229A70284608B0BDE8F08730
:10320000FFF760FE0028F7D03B6987F8AF50B02287
:103210009A7058E795703B69802228469A7008B0EA
:10322000BDE8F08780229A700025E5E78B703B6946
:1032300080229A7087F86150DEE7B9F1000F14BF61
:103240008022A0229A70D7E77B19007918766C1C2F
:10325000E5B2A0E7A8229A703A6913799EE79370C5
:103260003B6980229A7087F86150C5E73B691B79FA
:10327000B5E710217823D170013BFDD13A699378ED
:1032800003F0F7039370B7E760ABFF1F0148FFF748
:1032900085BD00BF649FFF1F0148FFF77FBD00BFD2
:1032A00020A0FF1F38B5044600F010FA054620465E
:1032B00000F020F848B10D49204601F017FD30B963
:1032C0000B49204601F0F4FC48B9284638BD02F00D
:1032D000A1F84FF0FF4522230360284638BD02F0D5
:1032E00099F8222300250360EFE700BF1772B1426F
:1032F000B5F1CFC220F00040B0F1FF4FACBF0020CD
:10330000012070471A4A20F0004393421BDD00B5AC
:10331000B3F1FF4F83B005DB014601F021FA03B0A2
:103320005DF804FB694600F0F3FA00F003000128A1
:1033300001990CD0022813D068B1009800F08AF8E7
:1033400000F10040EBE70021002200F049B90098AD
:1033500000F080F8E3E70098012200F041F9DEE791
:103360000098012200F03CF900F10040D7E700BFCF
:10337000D80F493FF0B520F00043B3F1FF4F83B0C1
:10338000014604460BDB2F4B002918681C6833DB11
:1033900001F0A4FB214601F0E5F903B0F0BD2A4A93
:1033A00093420BDD274A294B1068196801F0D8F9C0
:1033B000002CB8BF00F1004003B0F0BDB3F1105FC6
:1033C00021DBB3F17E5F27DB214D00F0B7FD2968DB
:1033D00001F0D0FA00F036FC1A4B01461E682F6847
:1033E000286801F0BFF90146384601F077FB014635
:1033F000304601F0B5F9DBE701F070FB214601F042
:10340000AFF903B0F0BD0F4B0190186801F0AAF9B5
:10341000019901F0AFFAC0E70D4E356800F08EFD5E
:10342000014605F1004001F0A5FA00F00BFC014651
:10343000306801F1004501F095F90146284601F098
:103440004DFBB5E7DCA0FF1FFFFFAF41E0A0FF1F72
:10345000E4A0FF1F2DE9F84320F00045B5F1485FD7
:10346000064688464ADA01F061FC002800F09F8099
:103470003146304601F07EFA4F49044601F07AFAAF
:103480004E4901F06FF9214601F074FA4C4901F000
:1034900067F9214601F06EFA4A4901F063F92146C5
:1034A00001F068FA484901F05BF9214601F062FA3F
:1034B000464901F057F9214601F05CFA07464FF002
:1034C0007C51204601F056FA3946034620461C46F8
:1034D00001F050FA41460546304601F04BFA0146EC
:1034E000284601F03DF90146204601F039F9014630
:1034F0004FF07E5001F034F9BDE8F883014601F049
:1035000039FA2D49044601F035FA2C4901F02AF91F
:10351000214601F02FFA2A4901F022F9214601F053
:1035200029FA284901F01EF9214601F023FA26491B
:1035300001F016F9214601F01DFA244901F012F9B3
:10354000214601F017FA224B9D420746B7DD214B79
:103550009D4228DC05F17F454FF07E50294601F061
:10356000FFF881464FF07C51204601F003FA2946CE
:1035700001F0F6F83946034620461C4601F0FAF9F8
:1035800041460546304601F0F5F90146284601F06E
:10359000E7F80146204601F0E3F80146484601F00D
:1035A000DFF8BDE8F883DFF830900C4DDAE74FF034
:1035B0007E50BDE8F88300BF4ED747ADF6740F319B
:1035C0007CF29334010DD037610BB63AABAA2A3D99
:1035D0009999993E0000483F0000383F0000903E16
:1035E0002DE9F84320F00043B3F1485F04460E464E
:1035F000904603DA01F09AFB002858D02146204675
:1036000001F0B8F905460146204601F0B3F9294911
:103610008146284601F0AEF9274901F0A1F8294674
:1036200001F0A8F9254901F09DF8294601F0A2F919
:10363000234901F095F8294601F09CF9214901F050
:1036400091F80746B8F1000F22D04FF07C51304678
:1036500001F090F939468046484601F08BF9014661
:10366000404601F07DF8294601F084F9314601F029
:1036700077F815490546484601F07CF90146284689
:1036800001F070F80146204601F06AF8BDE8F883C1
:103690000146284601F06EF90B4901F061F84946F0
:1036A00001F068F9214601F05DF8BDE8F883204695
:1036B000BDE8F883D3C92E2F342FD7321BEF38360D
:1036C000010D50398988083CABAA2A3E20F00042FF
:1036D000B2F1FF4F2DE9F04704466CD84FEAD075A0
:1036E00000F0C6807A49884200F3B4800028C0F216
:1036F000B680784B9A4263D9774B9A4200F2C580E4
:10370000764B204653F8251001F02AF8744BC5F18A
:10371000010653F825908046761B4946404601F045
:103720001FF80146054601F025F96E49044601F0EF
:1037300021F96D4901F014F8214601F01BF96B499C
:1037400001F010F8214601F015F9694901F008F877
:10375000214601F00FF9674901F004F8214601F014
:1037600009F90146284600F0FBFF2C460746824631
:10377000002E57D03946284601F0FCF83946044659
:103780004FF0804000F0ECFF0146204601F0A6F922
:103790000146484600F0E4FF414600F0E1FF0146E3
:1037A0004FF07E5000F0DCFF16F17D0F64DB00EB84
:1037B000C650BDE8F087014600F0D4FFBDE8F087B1
:1037C000B2F1505F09D24C49204600F0CBFF4FF0D8
:1037D0007E5101F08BFA002874D12146204601F079
:1037E000C9F84049054601F0C5F83F4900F0B8FF67
:1037F000294601F0BFF83D4900F0B4FF294601F029
:10380000B9F83B4900F0ACFF294601F0B3F839495B
:1038100000F0A8FF294601F0ADF80146204600F06F
:103820009FFF82465146204601F0A4F84FF08041A8
:103830000546504600F094FF0146284601F04EF937
:10384000214600F08DFF01464FF07E5000F088FFCA
:10385000BDE8F087BDE8F047002000F0EFB9274B46
:103860009A427FF646AFBDE8F047002000F0E2B98B
:10387000002DA3D00020A1E764364FF0586100EB83
:10388000C65001F077F8BDE8F0871D49204601F0E9
:1038900071F81C4B53F8251000F064FF01F046FA54
:1038A000064601F013F81849054601F063F8014691
:1038B000204600F055FF15498046284601F05AF889
:1038C00081462AE74FF07E51204600F04BFF75E716
:1038D0001772B1421872B13E9115853F585A0000D7
:1038E000605A00004CBB31330EEADD3555B38A38DF
:1038F000610B363BABAA2A3ECAF24971B5F1CF4201
:103900003BAAB83F505A00008071313FD1F71737BA
:103910002DE9F04FAB4A20F00044944289B00D46A7
:103920006CDDA94A944207461CDC0028A74940F3F5
:103930001E8100F015FFA64B24F00F049C420646A2
:103940006BD0A44900F00CFF01462860304600F01F
:1039500007FFA04900F004FF01266860304609B067
:10396000BDE8F08F9C4A94426CDDB4F1FF4F4DDA14
:10397000E615863EA4EBC654204601F0D7F900F0C8
:10398000A5FF01462046059100F0EAFE4FF0874171
:1039900000F0F0FF804601F0C9F900F097FF0446FF
:1039A00021464046069400F0DBFE4FF0874100F0D0
:1039B000E1FF0021079001F071F9002800F0B880C4
:1039C0000021204601F06AF9002814BF01230223D8
:1039D000824A0192022200922946324605A800F04E
:1039E000B1FA002F0646B9DAD5E9002302F1004208
:1039F00003F100432A606B604642AFE7002628606F
:103A0000002230464A6009B0BDE8F08F014600F060
:103A1000A7FE002668602860A0E7714900F0A0FEBC
:103A20007049044600F09CFE01462860204600F0E4
:103A300097FE6C4900F094FE01266860304609B09C
:103A4000BDE8F08F00F07AFA6749804600F092FFF7
:103A50004FF07C5100F086FE01F068F9064600F058
:103A600035FF5A49834600F085FF0146404600F085
:103A700077FE58498246584600F07CFF1F2E81464B
:103A80000146504620DC721E584B53F8223024F079
:103A9000FF029A4218D000F063FE8046C5F800800D
:103AA0004146504600F05CFE494600F059FE002FAA
:103AB0006860BFF653AF08F1004800F10040C5F858
:103AC00000806860764249E700F04AFEC0F3C753C1
:103AD000C3EBD453082B80464FEAE452DEDD404965
:103AE0000392584600F046FF80460146504600F0DB
:103AF00037FE04462146504600F032FE414600F0B3
:103B00002FFE38498046584600F034FF414600F009
:103B100027FE01468146204600F022FE039AC0F3AC
:103B2000C753D21A192A804604DC2860A246B7E798
:103B300003234DE72E49584600F01CFF01468046FE
:103B4000204600F00DFE82465146204600F008FE59
:103B5000414600F005FE27490446584600F00AFF9A
:103B6000214600F0FDFD81460146504693E700F0F6
:103B7000F9FD174B24F00F049C4206460ED0154960
:103B800000F0F0FD01462860304600F0E9FD1149E3
:103B900000F0E8FD4FF0FF366860DFE6104900F006
:103BA000E1FD1049044600F0DDFD01462860204695
:103BB00000F0D6FD0B4900F0D5FD4FF0FF366860F0
:103BC000CCE600BFD80F493FE3CB1640800FC93F7A
:103BD000D00FC93F43443537800F4943E85A0000AE
:103BE0000044353708A3852E84F9223F685A000027
:103BF00000A3852E32318D2438B505460C4601F0E0
:103C000009FC034628461C6038BD00BF08B540B11A
:103C100001F1004000F0AEFEBDE808402221FFF7B0
:103C2000EBBF084600F0A6FEBDE808402221FFF7E2
:103C3000E3BF00BF4FF08051FFF7E8BF4FF0E04116
:103C4000FFF7E4BFAA4A2DE9F84320F0004393426E
:103C5000044635D9B3F1FF4F00F2AB8000F01A8172
:103C60000028C0F2B880A34A934200F23381A249EF
:103C700000F080FE01464FF07C5000F073FD01F033
:103C800055F8064600F022FE9C49074600F072FEF9
:103C90000146204600F064FD99490546384600F08B
:103CA00069FE07463946284600F05AFD014604469B
:103CB000284600F055FD394600F052FD814607E0E8
:103CC000904A93427AD8B3F14C5FC0F0AF8000269F
:103CD0004FF07C51204600F04DFE0746014620463D
:103CE00000F048FE8849054600F044FE874900F090
:103CF00039FD294600F03EFE854900F031FD294698
:103D000000F038FE834900F02DFD294600F032FE18
:103D1000814900F025FD294600F02CFE4FF07E5130
:103D200000F020FD80464146384600F023FE014663
:103D30007A4800F015FD07463946404600F010FD70
:103D400039460746204600F015FE0146744800F04B
:103D500007FD0146384600F0C1FE294600F00AFE84
:103D60000146002E56D0494600F0FAFC214600F0EC
:103D700001FE494600F0F4FC294600F0F1FC731CFA
:103D8000054673D0012E5DD0731C392B33D8162E07
:103D900000F38480214600F0E3FC4FF0807535414C
:103DA000C5F17E550146284600F0DAFC00EBC6500E
:103DB00002E0014600F0D6FCBDE8F883594A934280
:103DC00000F28D8000284D495DDB00F0C9FC4C4FAE
:103DD0000546012666E7544900F0C4FC002100F0C6
:103DE00067FF002858D14449204600F0C3FD014632
:103DF0004FF03F4041E7214600F0B2FC01464FF052
:103E00007E5000F0ADFC4FF07E5100EBC65000F04C
:103E1000A7FCD1E7204600F0ADFD294600F0A0FC4C
:103E20000146204600F09CFCBDE8F8833F4900F0C5
:103E300099FC014600F094FC0146204600F090FCFD
:103E4000BDE8F8833A49204600F032FF002835D01B
:103E50004FF07C51204600F085FC0146284600F0DA
:103E60007FFC4FF0404100F085FDA5E7014620466C
:103E700000F076FC4FF07C5100F07CFD4FF07C515F
:103E800000F06EFC98E700F06DFC2A4F05464FF0FD
:103E9000FF3607E700288FDA27488DE7C6F17F0154
:103EA000C90500F05FFC0146204600F059FC4FF0C8
:103EB0007E5100F057FCF60530447DE72946204648
:103EC00000F04EFC014600F04DFC4FF07E5100F03A
:103ED00049FC71E7BDE8F8430020FFF7AFBE064993
:103EE00000F048FD002C014682DB4FF07C50C4E618
:103EF00043B895411772B1423BAAB83F8071313F38
:103F0000D1F717371872B13EBBED57B4547E8636E1
:103F1000CD70A638010DD03A8988083D0000404098
:103F20000000C0409115853F6042A20DCAF2497160
:103F3000000080BED1F717B7000080BF20F000401E
:103F4000704700BF2DE9F04FDDB01C460693099184
:103F5000A64B66990B9253F821300393111D04F17F
:103F6000FF3305460193C0F2EC82D31E48BF131DF8
:103F7000DB1005930133DB000A93DDE90A239B1A6A
:103F80000493059A019BD61A039A12EB030818D4DE
:103F900008F10108DDF89C91B044002420AF08E04E
:103FA00059F8260000F092FC0136464547F8040B0C
:103FB00007D0002EF4DA01362046464547F8040BB8
:103FC000F7D1039B002BC0F21183069B019E20AA10
:103FD00002EB83079A000092039A291F02910DF5C4
:103FE000907802EB030901EB8305019B002BB8BF1E
:103FF000002410DBDDF808A0BB4600245BF8041D9C
:104000005AF8040F00F0B6FC0146204600F0AAFB67
:10401000AA450446F2D101364E4548F8044B07F153
:104020000407E2D1029B009D039A1D440CAB03EBF5
:104030008203043B07930CAB03EB82030893904687
:104040005CAB03EB8803B8F1000F53F850AC4FEAB8
:10405000880921DD48AF07EB88040CAE4FF06E51A4
:10406000504600F087FC00F061FE00F02FFC4FF09E
:104070008741834600F07EFC0146504600F070FB0D
:1040800000F054FE54F8041D46F8040B584600F0A6
:1040900069FBBC428246E1D1049E5046314600F0A5
:1040A00003FB4FF07851044600F064FC00F0BAFACC
:1040B0004FF0824100F05EFC0146204600F050FBCC
:1040C000044600F033FE824600F000FC0146204624
:1040D00000F046FB002E0446314640F3898008F18B
:1040E000FF360CAAC1F1080352F8262042FA03F069
:1040F00000FA03F3D21AC1F107010CAB42FA01F73F
:10410000002F43F8262082447CDC0021204600F06A
:10411000C5FD002800F0D380039B08F1FF34A342C3
:1041200008F1804010DC0CABDDF820C04FEA8806B7
:1041300003EB8803002253F8041D634542EA0102A1
:10414000F9D1002A40F01181039B0CAA013B52F8DF
:104150002330002B40F00581079B012653F8042DE6
:104160000136002AFAD008EB0603009308F1010794
:10417000059A02EB0709069A6FF0404399441344ED
:10418000679A434402EB890920AA02EB830848ABF3
:1041900003EB800A59F8040F00F098FB019B48F8E4
:1041A000040F002B19DBDDF808B04446002601E0BF
:1041B00054F8040D5BF8041F00F0DCFB01463046A8
:1041C00000F0D0FAAB450646F2D1009B4AF8046FE6
:1041D00001379F42DEDD984632E7009B013700261B
:1041E0009F424AF8046FD5DDF5E700BF2C5E000062
:1041F00040F09F8008F1FF330CAA52F82370FF11A2
:10420000002F82DDB8F1000F0AF1010A40F39E8110
:104210000C9E002E40F08580B8F1010F20D00CAB31
:10422000012253F8046F002E7ED0531C0CA9C6F552
:104230008076984541F8226011DD09F130020DEBDE
:1042400002010CAA0CA852F8232000EB830300E023
:104250001A68C2F1FF0243F8042B8B42F8D1012601
:10426000049B002B0EDD012B00F06081022B09D195
:1042700008F1FF320CAB0CA953F8223003F03F03D6
:1042800041F82230022F7FF440AF21464FF07E509C
:1042900000F066FA0446002E3FF437AF04994FF061
:1042A0007E5000F001FA0146204600F059FA04461B
:1042B0000021204600F0F2FC00287FF42DAFDDE95C
:1042C0000A322046991A009700F0EEF94FF0874124
:1042D000044600F001FD002800F06481049B4FF0CB
:1042E0006E5108332046049300F044FB00F01EFD9D
:1042F00000F0ECFA4FF08741054600F03BFB014629
:10430000204600F02DFA00F011FD0CAB08F101047D
:1043100043F82800284600F009FD0CAB43F82400C0
:1043200036E00123002281E7013242457FF479AF74
:1043300096E74FF07C5100F0CFFC074600283FF491
:10434000E4AEB8F1000F0AF1010AC8BF02273FF737
:104350005FAF21464FF07E5000F002FA022704467C
:10436000D3E608F10107009702E7049B0097A3F149
:1043700008020CAB049253F824304BB9331F0CA93C
:104380000B4453F8041D013C083A0029F9D004926B
:1043900004994FF07E5000F087F9002C0746C0F2D8
:1043A0002B81631C9A0001920CAA02EB830848AA95
:1043B00002934FF06E5602EB830558F8040D00F09F
:1043C00085FA394600F0D6FA314645F8040D3846EC
:1043D00000F0D0FA0CAB98450746EED1019BDDF812
:1043E0000C90CDF810A0083B48AA02EB0308002768
:1043F000A346B9F1000FB8BF002515DB874C8848EC
:10440000C2460025002603E0B7420DDB54F8040F36
:104410005AF8041F00F0AEFA0146284600F0A2F94F
:104420000136B1450546EFDA5CAB03EB87035F4528
:1044300043F8A05CA8F104084FEA870607F10103DE
:1044400001D01F46D5E7669BDDF810A0022B5C4625
:1044500017DC002B7CDC0FD1019C34AD2C440020F8
:1044600054F8041D00F07EF9A542F9D1009B0BB170
:1044700000F10040099B18600AF007005DB0BDE83C
:10448000F08F669B032BF7D1002C00F0C28034AF75
:1044900007EB060858F804BC2846594600F062F9B4
:1044A000A94605462946584600F05AF9494600F003
:1044B00059F9C8F8000048F8045D4745EAD1012CD5
:1044C00040F3A78006F5B8736B44BD1953F8A04CB0
:1044D0000DF1D40855F804BC2046594600F042F9C5
:1044E000A14604462146584600F03AF9494600F0F4
:1044F00039F9286045F8044DA845EBD1341D3C44FA
:104500000020083754F8041D00F02CF9A742F9D117
:10451000009B002B4ED10999349A359B88600AF094
:1045200007000A604B605DB0BDE8F08F08F1FF3214
:104530000CAB0CA953F8223003F07F0341F8223072
:10454000A0E608230A930023059316E5002687E6D4
:10455000029B34AD05EB8306002056F8041D00F0E5
:1045600001F9B542F9D1009B002B34D1099B0146DA
:104570001860349800F0F4F8002C0CDD34AE0125FE
:1045800056F8041F013500F0EDF8AC42F8DA009B54
:104590000BB100F10040099B58600AF007005DB0C4
:1045A000BDE8F08F204600F0C1FB0CAB444643F859
:1045B0002800EDE6DDE93423099900F1004002F11D
:1045C000004203F1004388600AF007000A604B6074
:1045D0005DB0BDE8F08F099A00F100430146136019
:1045E000349800F0BDF8002CC8DCD2E72B1F0293F2
:1045F000069B9B00009315E5669B022B05DC002BB8
:1046000009DC7FF439AF002030E7669B032B7FF491
:1046100033AF00207CE70020A5E700BF005E00006C
:104620000000C93F2DE9F041C0F3C7557F3D162D6D
:10463000044620F0004725DC002D804614DB174F90
:104640002F4138421BD0164900F08CF8002100F0B1
:104650004DFBA0B1002C03DA4FF400032B4198442A
:1046600028EA0700BDE8F0810D4900F07BF8002141
:1046700000F03CFB18B1002C0CDB002000E02046D1
:10468000BDE8F081B7F1FF4FF9D3014600F06AF8B9
:10469000BDE8F081002FF2D00248F1E7FFFF7F0074
:1046A000CAF24971000080BF10B50C4630F00041DD
:1046B00003461DD0B1F1FF4F1BD210F0FF4F024651
:1046C0001BD14FF0984100F055F9204A944203461F
:1046D0002CDBC0F3C75102464CF250308442A1F1AA
:1046E000190110DD1A49184661F31E0000F042F965
:1046F00010BD014600F036F810BD4CF25030844237
:104700004FEAD151EEDC2144FE29EBDC002911DC1B
:1047100011F1160F13DB01F1190022F0FF424FF0E7
:104720004C5142EAC05000F025F910BD094900F093
:1047300021F910BD22F0FF4242EAC15010BD0549E7
:10474000184661F31E0000F015F910BDB03CFFFFE4
:10475000CAF249716042A20D80F0004002E000BF41
:1047600081F0004142001FBF5FEA410392EA030F5C
:104770007FEA226C7FEA236C6AD04FEA1262D2EBA6
:104780001363C1BFD218414048404140B8BF5B42AB
:10479000192B88BF704710F0004F40F4000020F044
:1047A0007F4018BF404211F0004F41F4000121F05A
:1047B0007F4118BF494292EA030F3FD0A2F10102A4
:1047C00041FA03FC10EB0C00C3F1200301FA03F1E2
:1047D00000F0004302D5494260EB4000B0F5000F05
:1047E00013D3B0F1807F06D340084FEA310102F1C4
:1047F0000102FE2A51D2B1F1004F40EBC25008BF76
:1048000020F0010040EA03007047490040EB00003F
:10481000013A28BFB0F5000FEDD2B0FA80FCACF140
:10482000080CB2EB0C0200FA0CF0AABF00EBC2506D
:1048300052421843BCBFD0401843704792F0000F5B
:1048400081F4000106BF80F400000132013BB5E7AE
:104850004FEA41037FEA226C18BF7FEA236C21D024
:1048600092EA030F04D092F0000F08BF0846704789
:1048700090EA010F1CBF0020704712F07F4F04D157
:10488000400028BF40F00040704712F100723CBF6A
:1048900000F50000704700F0004343F0FE4040F494
:1048A000000070477FEA226216BF08467FEA236352
:1048B0000146420206BF5FEA412390EA010F40F43D
:1048C000800070474FF0000304E000BF10F0004389
:1048D00048BF40425FEA000C08BF704743F0964370
:1048E00001464FF000001CE050EA010208BF70478B
:1048F0004FF000030AE000BF50EA010208BF704712
:1049000011F0004302D5404261EB41015FEA010C26
:1049100002BF84460146002043F0B64308BFA3F11E
:104920008053A3F50003BCFA8CF2083AA3EBC25300
:1049300010DB01FA02FC634400FA02FCC2F120021F
:10494000BCF1004F20FA02F243EB020008BF20F056
:104950000100704702F1200201FA02FCC2F12002BC
:1049600050EA4C0021FA02F243EB020008BF20EAB1
:10497000DC7070474FF0FF0C1CEAD0521EBF1CEADF
:10498000D15392EA0C0F93EA0C0F6FD01A4480EACD
:10499000010C400218BF5FEA41211ED04FF00063B6
:1049A00043EA501043EA5111A0FB01310CF00040E2
:1049B000B1F5000F3EBF490041EAD3715B0040EA08
:1049C000010062F17F02FD2A1DD8B3F1004F40EBD8
:1049D000C25008BF20F00100704790F0000F0CF0AB
:1049E000004C08BF49024CEA502040EA51207F3A6F
:1049F000C2BFD2F1FF0340EAC250704740F400004A
:104A00004FF00003013A5DDC12F1190FDCBF00F03A
:104A100000407047C2F10002410021FA02F1C2F1E8
:104A2000200200FA02FC5FEA310040F1000053EA84
:104A30004C0308BF20EADC70704792F0000F00F0D2
:104A4000004C02BF400010F4000F013AF9D040EAD8
:104A50000C0093F0000F01F0004C02BF490011F46C
:104A6000000F013BF9D041EA0C018FE70CEAD1536A
:104A700092EA0C0F18BF93EA0C0F0AD030F0004CEA
:104A800018BF31F0004CD8D180EA010000F000409E
:104A9000704790F0000F17BF90F0004F084691F05C
:104AA000000F91F0004F14D092EA0C0F01D1420296
:104AB0000FD193EA0C0F03D14B0218BF084608D15F
:104AC00080EA010000F0004040F0FE4040F40000A9
:104AD000704740F0FE4040F4400070474FF0FF0C3C
:104AE0001CEAD0521EBF1CEAD15392EA0C0F93EA83
:104AF0000C0F69D0A2EB030280EA010C49024FEAD5
:104B0000402037D04FF0805343EA111143EA10138D
:104B10000CF000408B4238BF5B0042F17D024FF445
:104B2000000C8B4224BF5B1A40EA0C00B3EB510F20
:104B300024BFA3EB510340EA5C00B3EB910F24BF09
:104B4000A3EB910340EA9C00B3EBD10F24BFA3EB8E
:104B5000D10340EADC001B0118BF5FEA1C1CE0D156
:104B6000FD2A3FF650AF8B4240EBC25008BF20F009
:104B7000010070470CF0004C4CEA50207F32C2BF5D
:104B8000D2F1FF0340EAC250704740F400004FF0FA
:104B90000003013A37E792F0000F00F0004C02BF2B
:104BA000400010F4000F013AF9D040EA0C0093F0F5
:104BB000000F01F0004C02BF490011F4000F013B4F
:104BC000F9D041EA0C0195E70CEAD15392EA0C0FB7
:104BD00008D142027FF47DAF93EA0C0F7FF470AFEF
:104BE000084676E793EA0C0F04D14B023FF44CAF32
:104BF00008466EE730F0004C18BF31F0004CCAD1C7
:104C000030F000427FF45CAF31F000437FF43CAF02
:104C10005FE700BF4FF0FF3C06E000BF4FF0010C24
:104C200002E000BF4FF0010C4DF804CD4FEA400206
:104C30004FEA41037FEA226C18BF7FEA236C11D050
:104C400001B052EA530C18BF90EA010F58BFB2EB03
:104C5000030088BFC81738BF6FEAE17018BF40F083
:104C6000010070477FEA226C02D15FEA402C05D137
:104C70007FEA236CE4D15FEA412CE1D05DF8040BBC
:104C8000704700BF844608466146FFE70FB5FFF74F
:104C9000C9FF002848BF10F1000F0FBD4DF808ED07
:104CA000FFF7F4FF0CBF012000205DF808FB00BFF8
:104CB0004DF808EDFFF7EAFF34BF012000205DF852
:104CC00008FB00BF4DF808EDFFF7E0FF94BF01209F
:104CD00000205DF808FB00BF4DF808EDFFF7D2FF9C
:104CE00094BF012000205DF808FB00BF4DF808EDDF
:104CF000FFF7C8FF34BF012000205DF808FB00BFAC
:104D00004FEA40024FEA41037FEA226C02D15FEA98
:104D1000402C08D17FEA236C02D15FEA412C02D1FA
:104D20004FF0000070474FF0010070474FEA40021B
:104D3000B2F1FE4F0FD34FF09E03B3EB12620DD9C9
:104D40004FEA002343F0004310F0004F23FA02F033
:104D500018BF404270474FF00000704712F1610FDA
:104D600001D1420205D110F0004008BF6FF00040B1
:104D700070474FF00000704742000ED2B2F1FE4F74
:104D80000BD34FF09E03B3EB126209D44FEA00231A
:104D900043F0004323FA02F070474FF000007047E1
:104DA00012F1610F01D1420202D14FF0FF30704782
:104DB0004FF00000704700BF024B0146186800F03A
:104DC00003B800BF18A6FF1F2DE9F04F01F10B0635
:104DD000162E83B0044624D8102900F2BA8000F0C1
:104DE000A3FA102618220220B54F3A44A2F1080176
:104DF00053688B4200F0BA805A68D96822F00302E7
:104E00001A449D68E9608D60516841F001012046B7
:104E1000516003F1080500F08DFA284603B0BDE8A3
:104E2000F08F36F0070600F19480B14200F29180D5
:104E300000F07AFAB6F5FC7FC0F09A81730A00F0B0
:104E40008F80042B00F26F81B30903F1390003F165
:104E5000380CC3009A4F3B44A3F108055B689D42A0
:104E600006D10CE0002980F22781DB689D4206D044
:104E70005A6822F00302911B0F29F3DD60463D6959
:104E8000DFF840C265457CD06A6822F00302931BBC
:104E90000F2B00F37B81002BC7E904CC80F26C81DF
:104EA000B2F5007F80F01A81D308796801334FEAA8
:104EB000521E012202FA0EF20A4357F833E0C5F8F7
:104EC00008E007EBC3010839E9607A6047F833501E
:104ED000CEF80C50831001219940914257D81142CD
:104EE00006D120F003004900114200F10400FAD07D
:104EF00007EBC0094D468646D5F80C80454508D1DC
:104F00001DE1002B80F22481D8F80C80454500F08B
:104F10001681D8F8042022F00302931B0F2BF0DD3A
:104F20002046D8E9025408EB060146F00106C8F80D
:104F30000460EC60A56043F00104C7E90411C1E915
:104F400002CC4C6048F8023000F0F4F908F1080592
:104F500002E00C2323600025284603B0BDE8F08F53
:104F60004FF4007340204FF03F0C73E7D3689A4230
:104F700008BF02307FF440AF3D69DFF848C16545A6
:104F800082D17A688310012199409142A7D9BD68E6
:104F90006B6823F003094E4503D8A9EB06030F2BDA
:104FA0007ADCDFF824B1494BDBF800201B680132C2
:104FB000334405EB090A00F0338103F580530F33C6
:104FC00023F47F6828F00F084146204600F010FACD
:104FD000411C024600F0F380824500F2EE803C4B1B
:104FE000196841441960084600F04E81DBF8001052
:104FF000019301311BBFA2EB0A010918CBF8002075
:10500000196012F0070B00F01781CBF108010A4478
:10501000CBF5805190440831A1EB0801C1F30B0A94
:1050200051462046009200F0E3F9421CDDE90023DE
:1050300000F04F81801A00EB0A081968BA6048F046
:1050400001005144BD425060196000F02981B9F15E
:105050000F0F40F227816868A9F10C0C2CF0070CA7
:1050600000F0010040EA0C0068604FF0050E05EB0F
:105070000C00BCF10F0FC0E901EE00F23281506864
:105080001546144B1A688A4238BF1960124B1A68C9
:105090008A4238BF196094E0AA1943F0010346F030
:1050A00001066E602046BA60536000F043F908358F
:1050B000284603B0BDE8F08FD9681A44A1E600BFC6
:1050C000E8A0FF1FF0A0FF1FF0A4FF1FD8ACFF1F38
:1050D000A8ACFF1FD0ACFF1FD4ACFF1FB2F5206FF0
:1050E0004FEA522363D3142B00F2B78003F15C0123
:1050F000C9005B3307EB010E7958AEF1080E8E45FF
:1051000000F091804B6823F00303934202D9896831
:105110008E45F7D1D1F80CE07A68C5E9021ECEF8C9
:105120000850CD60D6E6142B59D9542B00F29D803F
:10513000330B03F16F0003F16E0CC3008AE60EF12E
:10514000010E1EF0030F05F108057FF4D5AE51E006
:10515000424445465368D8F80C1043F001035360AD
:1051600055F8083F2046D9608B6000F0E3F8F3E67D
:10517000F00806F1080237E62A442046536843F057
:1051800001035360083500F0D5F8E5E6A91920467B
:1051900046F0010643F001046E60C7E90411C1E95D
:1051A00002CC4C60AB5000F0C5F80835D4E693094A
:1051B00003F13901C90038339CE7BD425FD0BD68B7
:1051C000686820F003084645A8EB060302D80F2BB9
:1051D0003FF762AF204600F0ADF80025BCE603F1D2
:1051E0005C0003F15B0CC30034E659F808394B4509
:1051F00040F0968010F0030F00F1FF30F5D17B688E
:1052000023EA01037B60490099423FF6C0AE19B919
:10521000BDE649000EF1040E1942FAD0704667E669
:1052200003F11008D0E69A104FF001087B6808FAE5
:1052300002F21A437A6070E702EB08014942C1F3B7
:105240000B0A51462046009200F0D2F8431CDDE9DB
:1052500000237FF4EFAEDA46EFE6542B25D8130B8C
:1052600003F16F01C9006E3344E7B3F5AA7F25D877
:10527000F30B03F1780003F1770CC300EAE5294B47
:10528000186840441860B1E6CAF30B0CBCF1000F7B
:105290007FF4ACAEBD68C84448F001006860F0E639
:1052A0001546EEE60123536094E7B3F5AA7F23D8B1
:1052B000D30B03F17801C90077331BE740F2545256
:1052C000934223D8B30C03F17D0003F17C0CC3009F
:1052D000C0E5ABF1080BD844A8EB02084FF0000A78
:1052E000ABE605F108012046009300F065F9BD68C2
:1052F000009B68681968C4E640F254518B420BD891
:10530000930C03F17D01C9007C33F3E64FF47E7307
:105310007F204FF07E0C9DE54FF47E717E23E9E601
:105320007B6870E7A8ACFF1F014800F09DB800BF84
:1053300018AEFF1F014800F099B800BF18AEFF1F5C
:10534000830730B548D0541E002A3FD0CAB2034666
:1053500001E0013C3AD303F8012B9D07F9D1032C5E
:105360002DD9CDB245EA05250F2C45EA054536D99C
:10537000A4F1100222F00F0C03F1200EE6444FEAD4
:10538000121C03F1100242E9045542E902551032A1
:105390007245F8D10CF1010214F00C0F03EB02126C
:1053A00004F00F0C13D0ACF1040323F00303043317
:1053B000134442F8045B9342FBD10CF003042CB17C
:1053C000C9B21C4403F8011B9C42FBD130BD6446AA
:1053D0001346002CF4D1F9E703461446BFE71A46FA
:1053E000A446E0E713460A460146022000F040B812
:1053F00038B5074D0022044608462A60FCF758FBE2
:10540000431C00D038BD2B68002BFBD0236038BD77
:10541000B0AFFF1F014B1868704700BF18A6FF1FF1
:1054200070B50D4E0D4D761BB61006D0002455F804
:10543000043B01349847A642F9D1094E094D761B29
:1054400000F0FAFCB61006D0002455F8043B0134F5
:105450009847A642F9D170BD445E0000445E00004A
:10546000585E0000445E0000704700BF704700BFF8
:105470002DE9F047DFF874A00646DAF800009846F8
:105480000F469146FFF7F0FF194B1C6824B365687F
:105490001F2D24DC5EB96B1C0235DAF80000636056
:1054A00044F82570FFF7E2FF0020BDE8F08704EB29
:1054B00085010123C1F88890D4F88821AB401A43B4
:1054C000022EC4F88821C1F80881E4D1D4F88C21D7
:1054D0001A43C4F88C21DEE7064C1C60D7E7DAF8E3
:1054E0000000FFF7C3FF4FF0FF30DEE71CA6FF1FF1
:1054F000ACAFFF1F1CAEFF1F024B13B1024800F000
:1055000005B8704700000000C557000000230146A1
:105510001A461846FFF7ACBFF8B5244F0C460646AE
:10552000FFF702FFBB685D68C4F57E610F3125F0AF
:1055300003054B1923F47F6323F00F03A3F5805475
:10554000B4F5805F07DB00213046FFF751FFBB68F1
:105550002B44984204D03046FFF7ECFE0020F8BD03
:1055600061423046FFF744FF01300DD0104ABB685E
:105570002D1B45F001055D60136830461B1B136051
:10558000FFF7D8FE0120F8BD00213046FFF730FFBD
:10559000BA68831A0F2BDEDD43F001035360054B1D
:1055A00003491B68C01A0860D5E700BFE8A0FF1FC9
:1055B000A8ACFF1FF0A4FF1F002961D0F8B50C466E
:1055C0000646FFF7B1FE54F8042C7B4FA4F1080502
:1055D00022F0010105EB010CB868DCF804306045ED
:1055E00023F0030300F08B80D207CCF8043032D4D0
:1055F00054F8082CAD1A1144AA6807F10800824239
:105600006AD00CEB0304D4F804E0EC68D4601EF01C
:10561000010FA26000F0978041F001036B60CCF8AD
:105620000010B1F5007F35D27868CB080122490916
:1056300001338A40024357F833107A6007EBC30204
:10564000083AC5E9021247F83350CD603046BDE84C
:10565000F840FFF76FBE0CEB03025268D00710D47E
:10566000194407F10800DCF80830834273D0DCF8F5
:105670000C20DA60936041F001036B606950D0E761
:10568000704741F00103B1F5007F44F8043CCCF8C9
:105690000010C9D3B1F5206F4FEA512348D28B09CE
:1056A00003F1390003F13802C300F818FB58083839
:1056B000984259D05A6822F003028A4202D99B6864
:1056C0009842F7D1D868C5E902308560DD60304680
:1056D000BDE8F840FFF72EBE0CEB03025268D2077C
:1056E00063D40B44DCE90212CA60916043F001020A
:1056F0006A603046EB50BDE8F840FFF71BBE0B4434
:10570000D10707D454F8082CAD1A1344D5E9021276
:10571000CA60916043F001026A60284ABD60126865
:105720009A4293D8264B30461968FFF7F5FE8DE76D
:10573000142B0AD9542B1FD80B0B03F16F0003F164
:105740006E02C300B1E719448DE703F15C0003F179
:105750005B02C300A9E741F00103C7E90455C5E9AD
:1057600002006B60695071E779689210012404FAB5
:1057700002F20A437A60A6E7B3F5AA7F06D8CB0BFC
:1057800003F1780003F17702C3008EE740F2545230
:10579000934206D88B0C03F17D0003F17C02C30019
:1057A00083E74FF47E737E227FE741F001036B6055
:1057B000CCF800104AE700BFE8A0FF1FF4A4FF1FC9
:1057C000D8ACFF1F38B5074D074C2C1BA41005D0D3
:1057D000013C55F8043D9847002CF9D1BDE838400C
:1057E00000F03ABB000000000000000000000000D4
:1057F00000000000DD1A00000000000000000000B2
:10580000590400000000C040CDCC4C3DCDCCCC3E76
:10581000000000400000000000000000750B0000C8
:1058200095080000410C000099080000810B000061
:105830000000000000000000D10D00002111000058
:10584000251100002D11000035110000E91600009F
:10585000ED160000F1160000F5160000080000002B
:105860000C0000000A000000090000000B0000000E
:105870004008FE4340A004404408FE4344A00440C6
:105880000018FE4300C004403000FE433090044046
:105890003400FE43349004401C18FE431CC00440F6
:1058A0001018FE4310C004400818FE4308C004400E
:1058B0000C18FE430CC004400C10FE430CB0044016
:1058C0001010FE4310B004401810FE4318B00440FE
:1058D0001C10FE431CB004401410FE4314B00440DE
:1058E0000418FE4304C004400010FE4300B004400E
:1058F0000008FE4300A004400408FE4304A0044046
:105900000C08FE430CA004400808FE4308A0044015
:105910001418FE4314C004401818FE4318C0044075
:105920000410FE4304B004400810FE4308B00440D5
:105930001400FE43149004404C08FE434CA0044065
:105940000420FE4304D004402410FE4324B004404D
:105950002010FE4320B004402810FE4328B004402D
:105960002C10FE432CB004400020FE4300D0044025
:105970004808FE4348A004401000FE431090044035
:1059800000FFFFFF00010000F49EFF1F1200000057
:10599000000200005C9EFF1F950000000503090443
:1059A000249FFF1F0000000000030000089FFF1F4E
:1059B00000000000010309040C9FFF1F000000000D
:1059C00002030904349FFF1F0000000003030904C1
:1059D0004C9FFF1F000000000000000000000000BE
:1059E000000000001519151519FFFFFF3480044051
:1059F000800000001EFFFFFFFF02000000001DFFEF
:105A0000FFFFFF0200000000190000003480044086
:105A1000400000001211FFFFFF02020000001310FF
:105A2000FFFFFF020200000018000000000000005D
:105A300000000000ED2B0000152C0000A12B000041
:105A4000E92B0000A52B0000B12B0000D12B00009A
:105A50000000003F000000BF8071313F807131BF06
:105A6000D1F71737D1F717B7000FC93F000F4940DB
:105A700000CB9640000FC9400053FB4000CB1641BD
:105A800000ED2F41000F49410031624100537B413D
:105A9000003A8A4100CB9641005CA34100EDAF4142
:105AA000007EBC41000FC94100A0D5410031E24158
:105AB00000C2EE410053FB4100F20342003A0A42A9
:105AC0000083104200CB164200141D42005C2342AA
:105AD00000A5294200ED2F4200363642007E3C42AE
