:1000000000000320D101000021330000DD32000098
:10001000DD320000DD320000DD320000DD320000A4
:10002000DD320000DD320000DD320000213300004F
:1000300021330000DD320000E5410000E94100000D
:100040002133000021330000213300002133000060
:100050002133000021330000213300002133000050
:100060002133000021330000213300002133000040
:100070002133000021330000213300002133000030
:100080002133000021330000213300002133000020
:100090002133000021330000213300002133000010
:1000A00015490000214900002133000021330000E0
:1000B00021330000213300002133000021330000F0
:1000C00021330000213300002133000021330000E0
:1000D00021330000213300002133000021330000D0
:1000E00021330000213300002133000021330000C0
:1000F00021330000213300002133000021330000B0
:10010000152E0000312E00004D2E0000692E00003B
:10011000213300005137000021330000213300005B
:10012000213300002133000021330000213300007F
:10013000213300002133000021330000213300006F
:10014000952B0000213300002133000021330000F3
:10015000213300002133000021330000213300004F
:1001600021330000213300002D490000213300001D
:10017000213300002133000021330000213300002F
:10018000213300002133000021330000213300001F
:10019000213300002133000021330000213300000F
:1001A00021330000213300002133000039490000D1
:1001B00021330000213300002133000021330000EF
:1001C00021330000213300002133000021330000DF
:1001D0005F4B4CF2205210B5DA814DF62812DA81CD
:1001E00000BF00BF03F0A0F85A4B4FF030621A6313
:1001F000594A9A63594ADA634FF0E0234FF4700288
:10020000C3F8882D03F5E823554A1A60554B9A78B0
:10021000110703D59A7842F008029A70524B53485E
:10022000AA221A70524BDA1C121AC11E22F00302C3
:10023000994288BF00224F4902F07CFF4E4B4F4845
:10024000DA1C121AC11E22F00302994288BF002252
:10025000002106F0C5FC4A494A484FF4E87202F012
:1002600069FF494B494A802103F8011B9342FBD1A6
:100270004FF0E023434AC3F8082D454B8A221A70F9
:10028000A3F5805324225A70A0221A709A799207FB
:10029000FCD59A79D406FCD43E4A937903F00C033A
:1002A000082BFAD1304B60225A70DA78802AFCD1C0
:1002B000384B01221A715D225A719A799006FCD549
:1002C0009A795106FCD5234A33495164002191643F
:1002D000202119702F498B7903F00C030C2BFAD1D4
:1002E0002E4B53602E4A136913F4807303D153616C
:1002F0004FF4A85313614FF0E0232A4A5A610022B9
:100300009A6107221A61284AC3F8202D62B603F0C9
:1003100069F8234B5B69DA0705D5244803F056F8E2
:10032000234B244ADA61244B1B785B0609D5204C09
:10033000204BE2699A4204D11C4803F047F800239D
:10034000E36102F0F7FF06F0BBFC02F0EBFEFEE714
:100350000020054000800440823F04000100002B83
:100360000300008500D0074000E00740401CFF1F4D
:10037000D029FF1FA0B80000D033FF1FD029FF1FD6
:10038000000000000012FF1F00E400E064E400E051
:10039000005006400040064000000602C010070062
:1003A00000D003401FBF020000002020B5D77F6AA5
:1003B00000E00340A5C3945A00F00740FFFFFFFF91
:1003C000FFFFFFFFFFFFFFFFFFFFFFFFFFFFFFFF3D
:1003D000FFFFFFFFFFFFFFFFFFFFFFFFFFFFFFFF2D
:1003E000FFFFFFFFFFFFFFFFFFFFFFFFFFFFFFFF1D
:1003F000FFFFFFFFFFFFFFFFFFFFFFFFFFFFFFFF0D
:10040000FFFFFFFFFFFFFFFFFFFFFFFFDEF9FFFF23
:100410000548064B1B1AD90F01EBA301491002D066
:10042000034B03B118477047D029FF1FD029FF1F86
:100430000000000008B5054B1BB105490548AFF3A6
:100440000080BDE80840FFF7E3BF00BF00000000E8
:10045000D029FF1F98B800002DE9F04F541E0F2C33
:100460008BB003D8002901DB8A4202DA0BB0BDE869
:10047000F08F93FBF2F402FB1433002BC46801935A
:10048000BCBF9B1801930023A242036042608160BD
:10049000D8BFC3600029E9D08A4200F0018101235E
:1004A000551A00249D42CDE908440793029500F3B4
:1004B00083801C461D460393019B0492C3F10009EF
:1004C000D71A4FF000080126A6468B464A467346C7
:1004D0004FF0000C11E050F824300B4340F824306A
:1004E0000CF1010C4FEA6C130AA9AC4501EB830334
:1004F00002F101021CD053F80C3C0CF01F01002A41
:1005000023FA01FA1146B8BF0CEB07014C110AF0AF
:10051000010A01F01F01234606FA01F1BAF1000FAA
:10052000D9D150F8244024EA010440F82340D7E709
:1005300008F10108C345E14467445B46C6DC012B72
:100540005946049AB8BF01210CFB01FC029F012F00
:100550008CD1039E019B6644ACEB0301F61AA3EB1E
:100560000C0C08E050F82E401C4340F82E4001319E
:100570008E423FF47BAF01EB0C035C110AAD05EB3F
:100580008404002954F8084C03F01F0524FA05F4EC
:100590000B46B8BF53184FEA631E04F0010403F082
:1005A0001F0307FA03F3002CDCD150F82E4024EA95
:1005B000030440F82E40DAE70490039327469C4654
:1005C0000DF124089E469A4620460592029ADDF8CF
:1005D0000C9000268A42A8BF0A460CEB0A05344656
:1005E0004B460CE044F8049C013674110AABB44548
:1005F00003EB840019D050F80C3C50F8040C06F0C2
:100600001F0B23FA0BF9A30003F128040EFA0BFBCE
:1006100019F0010F6C444BEA0009E3D128336B4415
:1006200020EA0B0043F8040CDEE700230DE058F845
:100630002900204348F82900013358110AAC5345DA
:1006400004EB800016D050F8087C03F01F0B03EB7E
:100650000C0027FA0BF700F01F04FF074FEA6019A0
:100660000EFA04F4E3D458F8297027EA040748F88E
:100670002970E1E78A4224DB029B9B1A0293029BCA
:1006800009980790012B17DC114600290446059AAA
:100690000498CDF80CA03FF70FAF4FF0000C55E7D2
:1006A00000210B46012505FA03F401339A4241EA81
:1006B0000401F8D10160D9E6089F0390AC461146C9
:1006C00084E7039B08938B1A0293B246D7E700BFD7
:1006D00010B590ED027ADFED7F7AD0ED006AB4EECE
:1006E000E77AF1EE10FA2DED048B04460AD4DFED23
:1006F0007A7A66EEA77AB4EEE77AF1EE10FAD8BF0E
:10070000F0EE477A87EEA60A9FED727A94ED038A9F
:10071000B4EEC78AF1EE10FA5ABFB7EE007A87EE50
:10072000089AB0EE478A9FED6D7A48BF9FED6C9AAC
:1007300020EE070A04F042FA6368F0EE408A082BC4
:100740002CD8DFE803F06A717B828C97A305420006
:10075000D4ED040ADFED637AB2EE040AC0EEA70A14
:1007600004F02CF9B5EE400AF1EE10FAB0EE408A32
:1007700000F1AC80B1EEC80AC8EE808AB7EE007A0C
:10078000FFEE007AE8EE087A38EE478A84ED087AC0
:1007900028EE098AC4ED0A7A84ED098A78EE897A0E
:1007A000F7EE006AB0EE666AA7EEA86A86EE867A71
:1007B00067EE287A84ED057A27EEA80ABDEC048B53
:1007C000C4ED067A84ED070A10BDD4ED040ADFED0E
:1007D000457AB2EE040AC0EEA70A04F0EFF8B5EECF
:1007E000400AF1EE10FAB0EE408A6CD4B1EEC80ABD
:1007F000B7EE007A77EE487A68EE086A67EE897A93
:1008000037EE667A67EE887A68EE808AC4ED086A09
:10081000C4ED097A84ED0A7AC0E700234FF07E52D6
:1008200023626362A262B9E72F4BA3624FF07E524C
:10083000F1EE497A2262C4ED097AAFE700234FF066
:100840007E5223626262A362A8E700234FF07E52C9
:10085000F1EE497A2262C4ED097AA3629EE74FF075
:100860007E52F1EE497A4FF040432262C4ED097A9C
:10087000A36293E7F8EE007A69EE277A00234FF03F
:100880007E522262C4ED097AA36287E7DFED157A12
:10089000D4ED040AB2EE040AC0EEA70A04F08EF802
:1008A0000023A36228EE008AB7EE007A87EE089A4A
:1008B000FFEE007AE0EE007A84ED087A67EE897A3E
:1008C000C4ED097A6AE704F0D7F891E704F0D4F8A8
:1008D00052E700BF6F12833A48E1FA3EDB0F49400E
:1008E000FFFF794400002042000080BF30B443681D
:1008F0002DED028B042B00F25881DFE803F037CC9A
:100900005D9503008168CD4A0D6890ED0E7ADFEDAC
:10091000CC6A2A4482EAD2330A6042F0010202FB26
:1009200003F383EAD31243F03D0404FB0232534045
:1009300083EA933307EE903AF8EE677A67EEA67A89
:10094000B4EEE77AF1EE10FA00F3328190ED0B7A13
:1009500090ED0C0A27EE000AD0ED0F7A67EE877A49
:10096000C0ED0B7ABDEC028B30BC70478068B34A97
:100970000368DFEDB36A1A4442F0010182EAD23320
:1009800001FB03F343F03D0483EAD31104FB01317F
:100990004B4083EA933307EE903ABDEC028BF8EEBE
:1009A000677AB0EE007A67EEA67ABFEE000AA7EE8D
:1009B000870A30BC026070478468A04A236890EDC3
:1009C0000A7ADFED9F4ADFED9F5A9FED9F6A1A4436
:1009D00042F0010182EAD23301FB03F3226083EA91
:1009E000D31143F03D0202FB0132534083EA9333BB
:1009F00007EE903AF8EE677AB0EE005A67EEA47A06
:100A0000FFEE006AE7EE856ABDEC028BF0EE477AF6
:100A1000E6EEA57A30BC87EE867AB0EE0C0A27EEB9
:100A2000000A80ED0A7A70478468844A236890ED52
:100A30000D7ADFED836A1A4442F0010182EAD23373
:100A400001FB03F383EAD31143F03D0000FB0131C6
:100A50004B4083EA933307EE903AF8EE677A2260D0
:100A600067EEA67AB4EEE77AF1EE10FA40F29D80D6
:100A7000BDEC028BF6EE006A27EE267AB7EE000A8E
:100A8000B4EEE77AF1EE10FAFFEE007AD8BFB0EEDE
:100A9000670A30BC70478468684A236890ED038A0F
:100AA000D0ED040AD0ED051AD0ED062ADFED643A48
:100AB000DFED664A9FED665A9FED660A9FED661A66
:100AC000DFED665A9FED662A9FED666A9FED663AF6
:100AD000DFED666A1A4442F0010182EAD23301FB7B
:100AE00003F3226083EAD31143F03D0202FB01329B
:100AF000534083EA933307EE903AF8EE677AB0EE0C
:100B0000004A67EEA37ABFEE007AA7EE847AD0EDB2
:100B1000073A9FED574ADFED577A67EE244A27EEF2
:100B2000055AE8EE004ABDEC028BA0EE815A30BCBB
:100B300067EE255A27EE066AE1EE825AA2EE836A34
:100B400067EE266A34EE850AE3EE846A67EEC77ABA
:100B5000D0ED083A9FED484A9FED483AC0ED034A70
:100B600030EE250AE3EE847A30EE060A90ED094A6B
:100B7000DFED433A80ED045A30EE260AC0ED055A07
:100B800030EE270A80ED066A30EE040A9FED3D4AFA
:100B9000C0ED076AA7EE030A27EE237A20EE040AC7
:100BA000C0ED087A80ED097A70479FED370AD9E6E3
:100BB000364B374CDFED375A9FED377A2B4483EABB
:100BC000D33243F0010303FB02F22C4442F03D0315
:100BD00082EAD21503FB05256A4082EA92320C6054
:100BE00007EE902A84EAD43344F0010404FB03F3B3
:100BF00083EAD31143F03D02F8EE677A02FB01323B
:100C000067EEA67A534083EA9333A7EEA57A07EE00
:100C1000903AF8EE677AB6EE006A67EEA67AF4EEDE
:100C2000C67AF1EE10FA4BBF1C4B4FF07E53B1EE7B
:100C3000470AB0EE470A03638EE600BFF5792B6DD5
:100C40000000802F0AD7A33C5C8F823FBD66633DC6
:100C500065C1993D4AB57F3F384A7E3F618B1D3E55
:100C60006210783FF8F79E3EF2D25D3F8E6F083FEC
:100C7000CDCC0C3FAD6D8A3C38F842BF6744093F8C
:100C80009C6AED3DAE47E13D00000000EAF356DA14
:100C9000DF6D82473333333F9A99993E000080BF1E
:100CA000F8B52DED048B9FEDC18ADFEDC18A9FED74
:100CB000C19ADFEDC19A044600F5077700F5F67595
:100CC00000266A6892B3EB68591103F01F0055F8CB
:100CD000211001339A42D8BF002321FA00F2EB60C1
:100CE000D30723D5D7ED007AFB684EBB94ED077A86
:100CF000C4ED027AB5EEC07AF1EE10FAE36084ED4D
:100D0000048A52D8B0EE480AD4ED067A84ED0B0A74
:100D1000F5EEC07AF1EE10FA00F29980B0EE480AD2
:100D20004FF07E5384ED0E0AA36263630136032EF7
:100D300007F1040705F11005C3D1BDEC048BF8BD24
:100D4000012E00F08F80B7EE007A9C4AC4F80C3177
:100D5000B0EE475A234604F19001D3ED465A27EEF0
:100D6000877AB0EE486AC7EE256AF5EEC06AF1EE02
:100D700010FA69D4F4EEE86AF1EE10FA20DCF5EE30
:100D8000C06AF1EE10FAC8BF85EE266AC3ED486A64
:100D9000D8BFB0EE486A83ED496A83ED478A1833BD
:100DA000994218D0B2EC017AD7E7D4ED097A9FEDD9
:100DB000840A27EE277A80EE070A03F0C3FDA3E733
:100DC000B0EE496AC3ED488A83ED496A83ED478AEC
:100DD00018339942E6D1D4ED447A84ED758AF5EE64
:100DE000C07AF1EE10FA84ED768A00F2D480B0EE8B
:100DF000480AD4ED457A94ED427ADFED726A724B7F
:100E0000C4F8B43127EE267A67EEA97A84ED790A20
:100E1000F4EEC77AF1EE10FA58BFF0EE477AC4ED5F
:100E20006C7A84ED6E8A04F5D4700136FFF750FCBD
:100E30004FF07E53032EC4F8E03107F1040705F1AB
:100E400010057FF43EAF78E783ED488AA3E794ED81
:100E50000C7A9FED5B0A67EE877A80EE270A03F033
:100E600071FD5DE7D4ED136AA36487EEA67AB5EE53
:100E7000C07AF1EE10FA64D4B4EEE87AF1EE10FA2A
:100E80007FDCB5EEC07AF1EE10FAC4BFB7EE006AAF
:100E9000C6EE076A84ED157AD8BFF0EE486A9FED7A
:100EA0004B7A94ED196AC4ED166A67EE877A87EE7D
:100EB000867AB5EEC07AF1EE10FA5DD4B4EEE87A37
:100EC000F1EE10FA62DCB5EEC07AF1EE10FAC4BFB2
:100ED000F7EE007AC7EE876A84ED1B7AD8BFF0EE92
:100EE000486AD4ED107AC4ED1C6AF5EEC07A4FF072
:100EF0007A53F1EE10FA84ED148AA36684ED3A8AEF
:100F000084ED3B8A2DD8B0EE480AD4ED117A84EDF9
:100F10003E0AF5EEC07AF1EE10FA17D8B0EE480AA4
:100F200001364FF07E53032E84ED410AC4F8F430AD
:100F3000C4F8003107F1040705F110057FF4C1AED4
:100F4000FBE6F0EE486A84ED158AA8E794ED3F7A57
:100F50009FED1B0A67EE877A80EE270A03F0F2FC0A
:100F6000DEE794ED3C7A9FED160A67EE877A80EE15
:100F7000270A03F0E7FCC8E7F0EE486A84ED1B8A15
:100F8000AFE7F0EE496AC4ED158A88E7F0EE496AEA
:100F9000C4ED1B8AA5E794ED777A9FED090A67EE09
:100FA000877A80EE270A03F0CDFC22E700000000DC
:100FB00048E1FA3EBC9C024000C0DA45B470000033
:100FC000550CDDC06666E63E8104353FCDCCCC3F96
:100FD0002DE9F04F2DED108B89B00792229A0193E5
:100FE0009342069180F2E384D0F83C320393039B52
:100FF0009FEDAC8A9FEDB19A002B834640F342846B
:10100000019B229A0399DBED0A8ADFEDAD7AD21AB1
:101010008A42A8BF0A46F4EEE78A0592F1EE10FA7A
:101020001A44009240F34884DBED05AAF7EE009ADB
:101030009A427AEEE9AA40F3BF8499000798049196
:101040000699DFED99BA9FED99BA9FED99AA01EB48
:10105000830500EB830701EB820401E0DBED0A8AE4
:10106000DBED0D6A9BED027ADBED015A9BED046A24
:10107000DBED0E7AB0EE695AAAEEA65A67EEA67AB2
:1010800027EE057ACBED0D7A87EE250A30EE060ABB
:10109000B4EEE90AF1EE10FAA8BF30EE690A8BED62
:1010A000040A20EE2B0A03F04FFD9BED08CAB4EEB4
:1010B000CBCAF1EE10FAF0EE407A0DD420EE0C0A15
:1010C00003F0A6FDF0EE407AB0EE4C0AB0EE67CA2F
:1010D00003F09EFDCCEE007A9BED0B7ADBED036A0C
:1010E00027EE287A67EEA87A8BED0A7A95ED007ADA
:1010F00067EEA67AA7EE8A7AA5EC017A97ED007AD8
:10110000A7EE8A7AAC42A7EC017AA7D1DBED3D9A33
:10111000DFED6B7AF4EEE79AF1EE10FAF0EE698A01
:1011200040F3E8839FED637ADBED0F9A69EE879ACF
:10113000F6EE007A69EEA79AB0EE690A03F0CCFCED
:10114000B0EE40FAB0EE690A03F0FEFCDBED12EA05
:1011500060EE2E7A2FEE2EFACDED027A069A049BDF
:101160009FED53EA544C019F02EB0309079A0BF1E0
:101170007C0602EB0308B6EE00DA9BED14AADBED69
:1011800015CAB4EECDAAF1EE10FAF1EE007A4CBF1A
:10119000FFEE009AF0EE089AF5EEC0CA4CBFEAEEF8
:1011A000279AEAEE679AF1EE10FA40F3C280F3EE66
:1011B00000BA2CEEABCAF2EE00AA3AEE4C0A04F0EA
:1011C000B5FCF0EE407AFDEEE77A3AEE0C0A17EE47
:1011D00090AA04F0F3FCFDEEC07A6CEEAAAA17EE1A
:1011E000905AAA4500F35D83DBED16DA9FED33BA22
:1011F000013513E007EE103AD1ED007AB8EEC70AD8
:1012000091ED017A7FEEC0FA37EE677A0AF1010AB2
:10121000EFEE877AAA45AAEEA7BA20D007EE90AAE9
:10122000F8EEE77AF0EE6BFA7AEE677AE7EEADFA6F
:101230006FEE88FAB0EE6F0A04F0C0FCFDEEC07AE3
:1012400017EE903AB3F5006F04EB8301D2D30AF1A5
:10125000010AF0EE497AAA45AAEEA7BADED17AEEE3
:101260004DBA3BEE29BA3BEECC0A04F05FFCF0EE3F
:10127000407AFDEEE77A3BEE8C0A17EE90AA04F076
:101280009DFCFDEEC07AF1EE6AAA17EE905AAA45CF
:1012900000F30A83DBED16DADFED089A0135B3EED1
:1012A00000CA23E000008042DB0FC940BD3786350D
:1012B000F304353FDB0F4940C87000000000000018
:1012C00017B7D13807EE103AD1ED007AB8EEC70A59
:1012D00091ED017A7FEEC0FA37EE677A0AF1010AE2
:1012E000EFEE877AAA45EAEEA79A20D007EE90AAF9
:1012F000F8EEE77AF0EE4CFA7BEEE77AE7EEADFA3D
:101300006FEE88FAB0EE6F0A04F058FCFDEEC07A7A
:1013100017EE903AB3F5006F04EB8301D2D30AF1D4
:10132000010AF0EE497AAA45EAEEA79ADED179EEF3
:101330008B9A3AEE2CAAF7EE007AB4EEE7AAF1EE19
:1013400010FAA8BF3AEE67AADBED1BDA8BED14AA00
:101350009BED1AAAB4EECDAAF1EE10FAF1EE007AE6
:101360004CBFBFEE00CAB0EE08CAF5EEC0DA4CBF03
:10137000AAEE27CAAAEE67CAF1EE10FA40F3B280CD
:10138000F3EE00BA6DEEABCAF2EE00AA3AEE6C0ACA
:1013900004F0CCFBF0EE407AFDEEE77A3AEE2C0A50
:1013A00017EE90AA04F00AFCFDEEC07A6DEEAAAA30
:1013B00017EE905AAA4500F37C829BED1CBA5FEDB4
:1013C00041EA013513E007EE103AD1ED007AB8EEAC
:1013D000C70A91ED017A7FEEC0FA37EE677A0AF11B
:1013E000010AEFEE877AAA45EAEEA7EA20D007EED7
:1013F00090AAF8EEE77AF0EE6BFA7AEE677AE7EE0B
:101400008BFA6FEE88FAB0EE6F0A04F0D7FBFDEEB0
:10141000C07A17EE903AB3F5006F04EB8301D2D394
:101420000AF1010AF0EE497AAA45EAEEA7EADED10E
:101430007AEE4DBA3EEE8CBA3BEEEC0A04F076FB47
:10144000F0EE407AFDEEE77A3BEEAC0A17EE90AA9A
:1014500004F0B4FBFDEEC07AF1EE6AAA17EE905AE2
:10146000AA4500F31982DBED1CCA5FED6CEA013579
:10147000B3EE00CA13E007EE103AD1ED007AB8EEF1
:10148000C70A91ED017A7FEEC0FA37EE677A0AF16A
:10149000010AEFEE877AAA45EAEEA7EA20D007EE26
:1014A00090AAF8EEE77AF0EE4CFA7BEEE77AE7EEF8
:1014B000ACFA6FEE88FAB0EE6F0A04F07FFBFDEE37
:1014C000C07A17EE903AB3F5006F04EB8301D2D3E4
:1014D0000AF1010AF0EE497AAA45EAEEA7EADED15E
:1014E0003BEE2ECA3AEE2DAAF7EE007AB4EEE7AA4A
:1014F000F1EE10FAA8BF3AEE67AADBED3E7A8BED6B
:101500001AAA67EEA87A3046CBED3D7AFFF7EEF9DE
:101510009BED3B7ADBED354ADBED3A6A9BED346AB5
:10152000DBED387A9BED364A009B30EE475A3CEEB5
:1015300029CA65EE245A2CEE0DCAE6EE265A01376A
:10154000BB42B0EE476AA6EEA46A65EEA77ADBED71
:10155000374AA5EE046AE0EE247A9BED395ADBEDBA
:10156000404AE6EE057AB0EE004AD5EE846A64EEB3
:10157000A77ADDED025A9BED415ACBED3A6A96EE21
:10158000047A6CEE288A67EEA57A25EE246AEFEEDF
:10159000287A8BED3B7A8BED406A99ED007AA7EEC5
:1015A0008E7AA9EC017A98ED007AA7EE8E7AA8ECF3
:1015B000017A02DDDBED3D8ADFE5DBED789A5FED58
:1015C000C07AF4EEE79AF1EE10FA40F34A81069AF7
:1015D000049BDB4D02EB0308079A0BF1900702EB2B
:1015E0000309F8EE008ADA469FEDD6AA5446B7EE14
:1015F00000DAD4ED47CAD4ED4AAAD4ED48DAF4EEC5
:10160000EACAF1EE10FABFEE00CAF5EEC0DA54BF36
:10161000F0EE4CEAF0EE4DEAF1EE10FA40F3B28053
:10162000B3EE00CA6DEE8CBA3CEEEB0A04F07EFA23
:10163000F0EE407AFDEEE77A3CEEAB0A17EE906AE8
:1016400004F0BCFAFDEEC07A17EE90BA5E4500F3E6
:101650000481D4ED49FA9FEDBBBA0BF1010B19E0FF
:10166000D2ED007A92ED017AF8EEE66A37EE677A0B
:101670003EEE660AB5EEC0FAE0EE077A0136F1EE0C
:1016800010FAA8BF77EECD7A5E4577EEA77A3BEEEB
:1016900027BA21D007EE906AB8EEE7FA3CEECFFA0F
:1016A0002FEE2FFA3FEE0C0A20EE08EAB0EE4E0ABB
:1016B00004F084FAFDEEC06A16EE901A16EE903A27
:1016C000B1F5006F05EB8302CAD30136F0EE497A1B
:1016D0005E453BEE27BADDD17CEEEAAA3BEE2EBAA0
:1016E0003AEEEB0A04F022FAF0EE407AFDEEE77AE9
:1016F0003AEEAB0A17EE906A04F060FAFDEEC07A9B
:1017000017EE90BA5E4500F3A38094ED49FA9FED81
:101710008DCA0BF1010BF3EE00EA07EE906AB8EE0A
:10172000E7EA01363AEECEEA2EEE0FEA7EEE2E6AB8
:1017300066EE88BAB0EE6B0A04F040FAFDEEC06ABD
:1017400016EE901A16EE903AB1F5006F05EB830293
:1017500014D2D2ED007A92ED017AF8EEE66A37EE15
:10176000677A7BEEE66AB5EEC0EAE6EE877AF1EEDE
:1017700010FAA8BF77EECD7AA7EEA8CA5E45CCD105
:101780007BEE0CEA7CEEADCA1834F4EECDCAF1EE75
:1017900010FAA8BF7CEECDCA3AEE2EAAC4ED41CA1B
:1017A000A7427FF426AFF1EE087A8AEE274A019B22
:1017B000009A01339A4201939AED766ADAED756ADE
:1017C0009AED707A9AED6F1ADAED737ADAED710AA2
:1017D000DAED721A9AED742A9AED795ADAED432A03
:1017E000DFED594A34EE463AF0EE465AE6EE875AB5
:1017F00023EE077AE3EE205AA1EE267AF0EE003AC5
:1018000067EE277AD7EE236AE4EE217A95EEA36A93
:10181000E5EE827A25EE295A8AED766A8AED785AC3
:10182000CAED756A67EEA99A98ED007A69EEA29AF8
:10183000F0EE477AE9EEA47AE8EC017AD9ED007A85
:10184000E9EEA47AE9EC017A0ADDDAED789ACBE6E2
:101850009FED3CCA7BEE0CEA94E79FED3ABA3BE77A
:10186000D346039B059A9B1A0393009ACBF83C320C
:10187000229B934240F39B80009B0193039B002B90
:101880003FF7BEAB5846FFF70BFADBF8383203934D
:10189000CBF83C32FFF7B4BBDFED2AEA3BEE2ECAB1
:1018A00020E69FED28BADAE4DFED269A79EE8B9AEE
:1018B0003FE5DFED24EABBE5DBED3D9AF4EEE79A88
:1018C000F1EE10FA46DC9BED407AB4EEE77AF1EEE9
:1018D00010FA3FDCDBED789ADFED1C7AF4EEE79A44
:1018E000F1EE10FABDDDDDE900239A42B9DD9B007F
:1018F00004936CE69BED407AB4EEE77AF1EE10FAD1
:101900004CDD9FED137ADBED0F8A68EE878AF6EEE9
:10191000007A68EEA78AB0EE680A03F0DDF8B0EE50
:1019200040FAB0EE680A03F00FF9DBED12EA6EEE52
:10193000807A2EEE8FFACDED027AF0EE698A0DE410
:10194000CC90000000000000F304353F17B7D138F9
:10195000DB0F49401FED027ADBED0F8A68EE878AC4
:10196000F6EE007A68EEA78AB0EE680A03F0B4F8E3
:10197000B0EE40FAB0EE680A03F0E6F8DBED12EAEA
:10198000DDE900236EEE807A9A422FEE2EFACDED3D
:10199000027A7FF766AF9B000493CEE7DBED789A7F
:1019A000F4EEE79AF1EE10FA3FF711AE59E709B0FD
:1019B000BDEC108BBDE8F08F9BED3D7AB4EEE77A7D
:1019C000F1EE10FA3FF74DAF9BED407AB4EEE77AB7
:1019D000F1EE10FA7FF77EAF43E700BFF0B583B0BA
:1019E000064600F029FF002800F08480054600F03C
:1019F00023FF07462846002F6DD04FF400720021C8
:101A00003D483E4C05F0ECF84FF4007200213B4895
:101A100005F0E6F880230093384A3749B06900237F
:101A2000FFF7D6FA344A9FED366ADFF8D8E0B81CE3
:101A3000BFEE007AF7EE006AA91C02F5007C29E0EF
:101A4000F4EEE67AF1EE10FA4DDC67EE867AFDEE02
:101A5000E77A17EE903A1BB2F4EC017A21F8023FD4
:101A6000F4EE677AF1EE10FA42D6F4EEC77AF1EEB0
:101A700010FA1DDBF4EEE67AF1EE10FA30DC67EED8
:101A8000867AFDEEE77A17EE903A1BB2944520F87D
:101A9000023F12D0F2EC017AF4EE677AF1EE10FA1E
:101AA00024D6F4EEC77AF1EE10FAC9DA7346D3E71A
:101AB0007346944520F8023FECD100222946304677
:101AC00000F03AFF01223946304600F035FF284643
:101AD00000F008FF384603B0BDE8F04000F002BF58
:101AE00047F6FF73D2E747F6FF73B5E70023B3E786
:101AF0000023CBE703B0F0BDE82BFF1FE829FF1F51
:101B000000FEFF460180FFFF2DE9F047734884B0D7
:101B100000F042FB4D21714800F072FB70497222C7
:101B20000846002301E010F8012F0133002AFAD102
:101B30006C4A6D485A407225642302E02B4611F826
:101B4000015F5A4000FB02F24FEAF242002DF5D14C
:101B5000664B674C6749684E666282EA124202FB36
:101B600003F3664ADFED666A9FED667ADFED667A1B
:101B7000C4ED2C6A83EA533302FB03F383EA134375
:101B80002360624BE362624BA36341F28B5301F12A
:101B90001008C4F838320FC9EC4604F1140E8CE872
:101BA0000F008EE80F0098E8070004F13C098CE86C
:101BB000070089E80700204684ED2D7A4FF0020ADD
:101BC000C4F8346266602663C4F88050E66440F866
:101BD000BC6FC4ED2E7A0127C4F860A0C4F878A0C9
:101BE0006666E667C4F88440FEF772FD04F1BC0047
:101BF000C4F8C070FEF76CFD464B474AC4F8C830C5
:101C000004F1BC000023C4F8C420C4F8CC30FEF7B3
:101C10005FFD424A424BC4F8F820C4F80431414AFF
:101C2000C4F810214FF07E53C4F81431C4F8F060AA
:101C3000C4F8FC60C4F80861234604F19002C3F8BC
:101C40001861C3F82C7118339A42F8D13648C4F899
:101C5000A861FEF73DFD3448C4F8AC71FEF738FDCD
:101C6000324B33492B4AC4F8E4312F48C4F8B01141
:101C70000023C4F8B421C4F8B831C4F8DC61FEF71D
:101C800027FD2C48002310220521FEF7E5FB042345
:101C9000194629481022FEF7DFFB28480B210123B3
:101CA0001022FEF7D9FB264A2648274B2749C4F8BD
:101CB0001C22C4F82402264A2648C4F82032C4F85C
:101CC00028124FF07C530C21C4F82C22C4F8303277
:101CD00004B0BDE8F04700F03DBD00BF242EFF1F5B
:101CE0008D70000067E6096A512D9ECC6BCAEB85AA
:101CF000441CFF1FD0B00000A6552C4735AEB2C221
:101D000072AF393D4B243E39741D7D3F5AE67F3F0B
:101D100018337F3F8104353F0000E14404C77F3F13
:101D2000A0BB7F3F0AD7A33DEC1DFF1FDC7F7F3F99
:101D300000C0DA45301EFF1F401EFF1F501EFF1F50
:101D4000000048420000A54300003E433333733F88
:101D5000CDCC4C3F0002FF1F08B50E2001F070F9FA
:101D6000164BDFED176AC0EB0010C000A3FB002389
:101D7000C01A03EB50035B0A3C3307EE903AF8EECF
:101D8000E77A104A87EEA67A3220F1EE007A92EDD9
:101D90008D6A27EE277AF6EE006AC6EE077A77EEAE
:101DA000A67AFDEEE77A17EE903A012BB8BF012331
:101DB000C2F83832BDE8084001F0F6BB051040001B
:101DC00000007042441CFF1F10B52D492D4A0C68BD
:101DD0002D481060002382B013611381D360002C62
:101DE0004AD0234619465B69002BFBD14A61274B39
:101DF000274810600021274890615161516091721D
:101E0000022003F1180258721A611972D96099619F
:101E1000D96122466469002CFBD153611E4A5C6182
:101E20005C609C721A60194800F092FB1B4B1C49C5
:101E300019600A221A721B4800F0AEFD134B1149BB
:101E400000942246174800F01BFE174A1749154810
:101E500002F03EFA164800F09FFD01220092094967
:101E60000A4B134800F00CFE0F4A1049104802B00C
:101E7000BDE8104002F02CBA0A601446B7E700BF74
:101E8000802EFF1F082EFF1FA0700000E82DFF1FEF
:101E9000AC700000441CFF1F10B10000242EFF1F77
:101EA000F4B00000302EFF1F401CFF1F352B000038
:101EB000442EFF1F0020704700207047F8B51F4CCC
:101EC000037A0D465A000127C1F307210646204632
:101ED00084F8A32084F82E7184F82D7102F024FA7E
:101EE000E9B2204602F020FA0021204602F0A0FBD1
:101EF00008B10020F8BD317A3B460222204602F0AC
:101F00000DFC0128F5D994F8A02094F8A100824294
:101F100010D2A118531CDBB2097E84F8A03098427D
:101F20004FEA012106D923440232187E84F8A0200A
:101F30000843F8BD4FF0FF30F8BD00BF9C1FFF1FE6
:101F4000F8B5154C037A24294FF0010708BFC28069
:101F5000BB400D462046C1F30721164684F8A33046
:101F600084F82E7184F82D7102F0DEF9E9B2204672
:101F700002F0DAF9C6F30721204602F0D5F9F1B2F2
:101F8000204602F0D1F93946204602F051FBB0FA62
:101F900080F04009F8BD00BF9C1FFF1FF8B5044644
:101FA0007A480E46154602F0EFF9052001F0FCFADA
:101FB00006212046FFF782FF002E76D0B02800F0E1
:101FC000DF800127277144F2600230212046FFF7AD
:101FD000B7FF002872D06C2226212046FFF7B0FF01
:101FE0004FF4F97228212046FFF7AAFF40F622722B
:101FF0002C212046FFF7A4FF44F246423C21204614
:10200000FFF79EFF40F2371224212046FFF798FF8A
:102010005F4B9E4200F2AE80002234212046FFF743
:102020008FFFB5FBF6F107EE905AF8EE676A07EE00
:10203000906AB8EE677A01F01F02C6EE877A322105
:10204000204607EE102AF8EEC76A9FED527A77EE27
:10205000E67A67EE877AFCEEE77A17EE903AC3F3FA
:102060000A0343EAC222FFF76BFF44F2FF5230211A
:102070002046FFF765FF732202212046FFF760FF2D
:102080004FF4C87001F090FA41F61D522E212046FF
:10209000FFF756FF072204212046FFF751FFB02229
:1020A00006212046FFF74CFF46E00123237144F24E
:1020B000600230212046FFF743FF08B90020F8BD39
:1020C0006C2226212046FFF73BFF4FF4F9722821AE
:1020D0002046FFF735FF40F622722C212046FFF7FD
:1020E0002FFF44F246423C212046FFF729FF40F2F1
:1020F000371224212046FFF723FF44F2FF0230214C
:102100002046FFF71DFF732202212046FFF718FF2C
:102110004FF4C87001F048FA41F61D522E212046B6
:10212000FFF70EFF042211462046FFF709FF302279
:1021300006212046FFF704FF10220A212046FFF760
:10214000FFFE00220E212046FFF7FAFE43F63C4236
:1021500010212046FFF7F4FE47F67F722221204629
:10216000FFF7EEFE362224212046FFF7E9FE01208C
:102170006072F8BD3A4634212046FFF7E1FE50E791
:102180000120002323716072F8BD00BF9C1FFF1F58
:102190004066030100000045014A0021FFF7FEBE32
:1021A000605AC50A10B50446D1B1012901D00020FA
:1021B00010BD40F273122A21FFF7C2FE0028F6D0AC
:1021C000882220212046FFF7BBFE0028EFD0E288BE
:1021D00020462421BDE8104022F00402FFF7B0BEE3
:1021E00055222021FFF7ACFE0028E0D0E2882046EF
:1021F0002421BDE8104042F00402FFF7A1BE00BF59
:1022000038B50546F1B1802903799ABFC1F1800440
:1022100044EA0424002433B9224628462221BDE89A
:102220003840FFF78DBEC288002322F010020371F0
:102230002421FFF785FE224628462221BDE83840AA
:10224000FFF77EBE012347F67F7222210371FFF75D
:1022500077FEEA8828462421BDE8384042F0100283
:10226000FFF76EBE9FED1D7ADFED1D7AE0EE077A77
:1022700038B5FCEEE77A054617EE904AF4B1802CAB
:1022800003799ABFC4F1800444EA0424002433B9DA
:10229000224628462221BDE83840FFF751BEC288B9
:1022A000002322F0100203712421FFF749FE224689
:1022B00028462221BDE83840FFF742BE012347F6F9
:1022C0007F7222210371FFF73BFEEA882846242112
:1022D000BDE8384042F01002FFF732BE0000014373
:1022E000EE7CFF3E2DE9F84F374B38481A683849E5
:1022F00012681B79CB7782422AD2364B1B78002B8F
:102300004AD1DFF8E0A0DFF8E090DFF8E080324F5C
:10231000DAF80060D9F800B0B8F800403D88002E27
:1023200040D0BBF1000F16D00BF10402311D02EBBF
:10233000450201EB440100F07FF9403540347F2C29
:1023400011D87F2DA8F800401AD83D80BDE8F88F3D
:10235000A0F58070D5E7311D01EB4401403400F059
:102360008AF97F2CEDD900243046A8F8004000F00F
:10237000B9FA1A4B7F2D1A68CAF800201C60E4D9FC
:10238000002458463C8000F0ADFA154B1A68C9F895
:1023900000201C60BDE8F88F4FF0E0230122C3F855
:1023A0000822AEE7BBF1000F07D00BF1040101EBEF
:1023B000450100F080F94035C1E74FF4807259467D
:1023C00004F00EFCBBE700BF702EFF1F400FFF1F85
:1023D000008000406C2EFF1F6A2EFF1F5C2EFF1F27
:1023E000642EFF1F582EFF1F602EFF1F682EFF1F39
:1023F00038B50021044600F0C3FA88B172B61C4A11
:102400001368002B2BD01B490D68002D2CD01560B4
:10241000194A08600021118062B6184600F062FA7D
:102420000121204600F0ACFA98B172B6134A136845
:1024300083B113490C6854B11460124A0860002437
:10244000148062B61846BDE8384000F04BBA086008
:1024500062B638BD0B4910600B8062B638BD0649C4
:1024600010600B8062B6DBE7086062B6D8E700BF99
:10247000582EFF1F5C2EFF1F682EFF1F602EFF1FB0
:10248000642EFF1F6A2EFF1F10B5044600F020FCCB
:10249000204610BD284A294BD16B41F40041D1633D
:1024A000116C41F002011164D16B41F00201D16362
:1024B0001A68002A37DBD3F88020002A33DB4FF07C
:1024C000804270B4C3F80021D3F80021002AFBDB5E
:1024D00001251B4A00264FF2FE01C3F804114FF4F8
:1024E00080341E6617495D609A60174ADC60196186
:1024F0005A61C3F8E060C3F8845005F18E45C3F813
:102500008850C3F88C40C3F89010C3F8942020B9C9
:102510000E4B4FF4C0629A609A610C4B4FF4C0624C
:1025200070BCDA60704728B9084B4FF4C0629A60FB
:102530009A617047704700BF0080044000F002407D
:10254000010000071B1F0100001F1F1F00B00440F7
:1025500038B5254C0121204600F058FB234A244B76
:10256000002010601860FFF795FF224B22494FF4BE
:10257000C0625A602368214A19602149D960214903
:1025800019615A6002254FF480720621DA829D603B
:10259000DA8398829983986123791B4D03F18043F4
:1025A00003F504338D2218701A70184B2079184ADD
:1025B000E8764FF0807119601A6000F0D5FA227940
:1025C000144C15492070531102F1100003F1382307
:1025D000124C41F8204040339B0002F01F020121C1
:1025E00001FA02F21A6038BD702EFF1F582EFF1F2D
:1025F000602EFF1F00B00440400EFF1F02000101CB
:1026000000FEFFFF22F002400080004000F0024088
:10261000010000906C2EFF1F0012FF1FE52200003A
:10262000024A0349034801F053BE00BF401CFF1F8C
:1026300089240000702EFF1F2DE9F04F00F5807EE9
:10264000B1E8A00AB2E84015C5EA0643C6EA254447
:10265000C7EA0845C8EA2746C9EA0A47CAEA294834
:10266000CBEA0C49CCEA2B4AA0E8F8078645E7D12B
:10267000BDE8F04F70474FF000022DE9F00F00F574
:10268000807C00BFB1E8A00AC5EA0203C2EA254483
:10269000C7EA0205C2EA2746C9EA0207C2EA294890
:1026A000CBEA0209C2EA2B4AA0E8F8078445E9D13F
:1026B000BDE8F00F70474FF000022DE9F00F00F574
:1026C000807C00BFB1E8A00AC2EA0543C2EA050463
:1026D000C2EA0745C2EA0706C2EA0947C2EA090890
:1026E000C2EA0B49C2EA0B0AA0E8F8078445E9D11F
:1026F000BDE8F00F70472DE9F00F089C00F5007B56
:1027000051F8045B53F8046BC5EA0647C6EA25494D
:1027100052F8045B54F8046BC5EA0648C6EA254A39
:10272000A0E880078345EBD1BDE8F00F704700BFFC
:102730004FF0E0230122C3F80822704703681847CE
:102740000B680360704700BF0B680360704700BFF1
:10275000704700BFF0B5B1F5607F8DB00E460F46F3
:1027600028BF4FF46076054672B62B4B00241860E4
:102770002A4B2B481C807022214604F031FAC7B145
:10278000274821464FF0010C4A0901F01F0350F879
:1027900022400CFA03F3013123438E4240F82230E9
:1027A000F2D828460023438001339E4200F5827010
:1027B000F9D81C4C257815B162B60DB0F0BD0820D3
:1027C00000F002FE184B056080220271064600935D
:1027D000069302A9154B029308A8FFF7B1FF144A0C
:1027E00006A9304600F0A8FA069B08A8DB689847BF
:1027F000009B02A8DB6898472378002BDCD10D49A9
:102800004FF0E0220123D02081F84000C2F80831C7
:10281000237062B60DB0F0BD782EFF1F8C2EFF1F07
:10282000902EFF1F882EFF1F14B1000031270000DB
:10283000FFA7020000E400E030B472B6244D254C3E
:102840002A8804F1700104EB82038B423CD204F12C
:102850006F01C91A501C00EB910002E00132824264
:1028600032D09C4653F8041B0029F7D0B1FA81F00E
:102870004FF00043C34021EA0301CCF8001001B936
:102880000132154B2A801A88013291B2198062B642
:10289000ACEB040C4FEAAC0CC0EB00640CEB8C1CF2
:1028A00041F67C73C0EB841003EBCC1303EB800385
:1028B0000A4800680124C4541844094B1C889442F7
:1028C00038BF198030BC704762B6002030BC7047FA
:1028D0008C2EFF1F902EFF1F7C2EFF1F782EFF1FB8
:1028E000842EFF1F428872B60378012B03D9013B67
:1028F000037062B6704751090C48D24302F01F02C0
:102900004FF0004310B4D340094C50F8212013433A
:10291000228840F821308A42064A88BF21801388E5
:10292000013B138062B65DF8044B7047902EFF1F89
:102930008C2EFF1F7C2EFF1FC36813B91DE0DB68C0
:10294000E3B1187A9042FAD110B4586893F809C0EC
:10295000006950F82C4054B1DB682BB1187A9042D2
:10296000F3D0DB68002BF9D15DF8044B704740F8D9
:102970002C10087801300870EEE77047704700BFF0
:10298000437A8B4206D90369002253F8210043F8A9
:1029900021207047002070470449002202604260F5
:1029A000028102740A68C26008607047002FFF1F2E
:1029B000037CFBB903680146FBB14368EBB1427A83
:1029C0005B7A9A421CD230B472B62B4B1C68ECB1C5
:1029D000E368C3B1486801E0DB68A3B15A6882428A
:1029E000FAD193F809C04A7A9445F5D162B6042029
:1029F00030BC7047012062B67047032062B6704752
:102A0000022062B670476469002CE1D11B4C236838
:102A100043B1994202D10BE0994207D01A46DB68D4
:102A2000002BF9D1052062B630BC704702F10C04CE
:102A30000D68E868E8B1C36823B908E0DA681846A9
:102A400032B113468142F9D162B60620D0E703467F
:102A5000D960CB6823600020C860AA7A01231A4499
:102A6000AA724A682B72947A13721C4494720B7483
:102A7000D9E7E960EDE700BF802EFF1F002FFF1FA1
:102A800010B5047C9DF808E00CB1012010BD027265
:102A900080F809E0BDE81040C0E90013FFF788BFE7
:102AA000037C002B37D010B54368427A5B7A9A4298
:102AB000044638D272B60168CB68002B2DD09842FC
:102AC00033D01A46DB689C422AD0002BF9D16268C9
:102AD000607A136953F8200048B1FFF703FF72B61C
:102AE0006268617A1369002043F8210021688B7ABB
:102AF000013BDBB28B7203B90B72937A013BDBB201
:102B0000937203B913720A4B00201A682074E260B2
:102B10001C6062B610BD0120704762B6032010BD74
:102B2000E368D360D3E7022010BDC368CB60CEE773
:102B3000002FFF1F10B50446FFF7B2FF094A1368C4
:102B400043B19C4202D108E09C4205D01A46DB68A2
:102B5000002BF9D1204610BD0C32E36813602046EB
:102B600010BD00BF002FFF1F084B1A7862B908483C
:102B70004FF0E02101224FF0D00C80F840C0C1F8A6
:102B8000082110461A70704700207047882EFF1FDA
:102B900000E400E04FF0E022F8B5D2F8FC3D174D1C
:102BA000174943F08073C2F8FC3D2B680C6843F072
:102BB00001032B606E689CB1237A20466BB12368B9
:102BC0006F681B6898476B68E188DB1BC3F30F12C3
:102BD000B1EB131FA28038BFE2806469002CEBD1F7
:102BE000064B084A5B681088074C9B1BC3F30F1108
:102BF000B0EB131F218038BF1180F8BD001000E03A
:102C0000802EFF1F8A2EFF1F862EFF1F10B472B664
:102C100021B9026812B103790F2B44D92A4C2188BB
:102C2000002341FA03F212F0010209D00133102B04
:102C3000F7D162B60022026003715DF8044B704761
:102C40004FF0010C0CFA03FC41EA0C01218062B642
:102C50001E495FFA83FC80F804C00C6C44F0020447
:102C60000C64CC6B44F00204CC6303F10073A1F557
:102C7000802140F2824403F590630C605B0181F88F
:102C80001AC081F81EC081F818C081F81FC05DF815
:102C9000044B0360C3E90022C3E90222C3E9042212
:102CA000C3E906227047084C218841FA03FC1CF056
:102CB000010FB5D003F1007303F59063B2EB431F2E
:102CC000AED162B6B9E700BF042FFF1F00800440F9
:102CD00003790F2B11D8094A937672B6084990F8F8
:102CE00004C00B88012202FA0CF223EA02030B80D3
:102CF00062B610220023027103607047008000401A
:102D0000042FFF1F704700BF704700BF704700BF10
:102D1000704700BF704700BF38B5064CA4F160058E
:102D200054F8083C2046DB68183C9847AC42F7D181
:102D300038BD00BF582FFF1F2DE9F041036888B050
:102D400004461746002B3DD000229A600122DA602B
:102D5000294DDFF8BC801D442D1151F8083B02932A
:102D600005EB4506F60004A85B68984758F806305E
:102D700006F108004044DB6801909847029B1F4A17
:102D8000029204A9019848F806309B689847029B74
:102D900004A8DB689847236819491F6003229A60DA
:102DA00005F13002531103F1382320796854403380
:102DB00001209B0002F01F0200FA02F21A6008B024
:102DC000BDE8F0810F4AD36B43F40003D36300BF27
:102DD0000D4B01221A6003F580730C4A036098685A
:102DE0000028B5D0103393422360F8D10020206032
:102DF00008B0BDE8F08100BF008FFCBF24B1000027
:102E000030E400E000800440007003404071034063
:102E1000082FFF1F0448054A50F8083B01211B6892
:102E2000C2F80C11184700BF082FFF1F00700340A5
:102E30000448054A836901211B68C2F81C1120302F
:102E4000184700BF082FFF1F007003400448054AC1
:102E5000036B01211B68C2F82C113830184700BFE2
:102E6000082FFF1F007003400448054A836C0121AE
:102E70001B68C2F83C115030184700BF082FFF1FD5
:102E800000700340094B0A480A4A0B4910B40B4C26
:102E90001C6098609C6118621C6398639C64186550
:102EA0005DF8044B002001F013BA00BF082FFF1F8C
:102EB000052D0000401CFF1F192D000014B100005B
:102EC00038B52A4C2A4D01E001F0F2F8636A1B067E
:102ED000FAD46B6A13F08003F6D172B625490A78EA
:102EE000002A40D0A26BE06B0244206C0244606C6C
:102EF0000244A06C0244E06C0244C2F34E0242F46D
:102F00000042E262A26DE06D0244206E0244606EF7
:102F10000244A06E0244E06E0244C2F34E0242F448
:102F200000422263AA6BE86B0244286C0244686C7E
:102F30000244A86C0244E86C0244C2F34E0242F41C
:102F40000042EA62AA6DE86D0244286E0244686E8F
:102F50000244A86E0244E86E0244C2F34E0242F4F8
:102F600000422A630B7062B638BD00BF00B0034058
:102F700000B00B406C2FFF1F2A4B2B4A6020E12131
:102F80001870597013782948082B34D00A2B20D098
:102F90000C2B274B0CBF35215D2112228160C260B2
:102FA0009960DA60234B21491B78214ACBB1012378
:102FB0000B621362204B1D491B781D4A012B13D94C
:102FC000042B1BD884234B6253621C4B01221A70C2
:102FD0007047174B392113228160C2609960DA6013
:102FE000E0E70B621362E5E780234B625362134B09
:102FF00001221A7070470E4B2121ECE7082B06D8EE
:1030000085234B6253620D4B01221A707047102BBF
:1030100094BF862387234B625362084B01221A70A8
:10302000704700BF00400740841EFF1F00B00340F0
:1030300000B00B406A2FFF1F851EFF1F6C2FFF1F64
:10304000472829D8304B2DE9F0411E5CFF2E53D084
:103050002E4B1B7813BB340624D472B62C4C2D4D4A
:1030600001272E60277062B672B62B68180609D445
:103070002378002BF5D062B601F01AF872B62B68EF
:103080001906F5D5234A00231069237062B6224B36
:103090001B781841BDE8F08100207047FFF710FF52
:1030A0003406DAD572B61D4D1D4C06F040080127D6
:1030B00006F03F06E368B8F1000F20D023F01003BC
:1030C000E36026602F7062B672B623681A0609D4D0
:1030D0002B78002BEED062B600F0EAFF72B62368C0
:1030E0001B06F5D50E4A002310692B7062B60A4BF9
:1030F0001B781841BDE8F0810020BDE8F08143F065
:103100001003E360DDE700BF34B100006C2FFF1F48
:10311000682FFF1F00B003406B2FFF1F692FFF1F99
:1031200000B00B4008B5FEF7EFFCFEF715FE00F00F
:10313000BFFFFAE701B441EA000313F003036FD1C4
:10314000403A41D351F8043B40F8043B51F8043B6A
:1031500040F8043B51F8043B40F8043B51F8043B71
:1031600040F8043B51F8043B40F8043B51F8043B61
:1031700040F8043B51F8043B40F8043B51F8043B51
:1031800040F8043B51F8043B40F8043B51F8043B41
:1031900040F8043B51F8043B40F8043B51F8043B31
:1031A00040F8043B51F8043B40F8043B51F8043B21
:1031B00040F8043B51F8043B40F8043B51F8043B11
:1031C00040F8043B403ABDD2303211D351F8043BB1
:1031D00040F8043B51F8043B40F8043B51F8043BF1
:1031E00040F8043B51F8043B40F8043B103AEDD260
:1031F0000C3205D351F8043B40F8043B043AF9D2B1
:1032000004320AD0D2071CBF11F8013B00F8013B81
:1032100003D30B7803704B78437001BC704700BF39
:103220000C2A4AD310F0030311D0C3F10403D21ABD
:10323000DB071CBF11F8013B00F8013B07D311F875
:10324000013B00F8013B11F8013B00F8013B11F094
:1032500003033FF475AF30B4043AC91AC3F1040C48
:1032600051F8044B022B19D0032B0BD0240A51F830
:10327000043B1D0644EA050440F8044B1C46043A8E
:10328000F4D216E0240E51F8043B1D0244EA050472
:1032900040F8044B1C46043AF4D20AE0240C51F8DE
:1032A000043B1D0444EA050440F8044B1C46043A60
:1032B000F4D20432B1EB0C0130BC043AA0D3013A91
:1032C00011F8013B00F8013BF9D20B7803704B7801
:1032D00043708B78837001BC704700BF08B50F4CFA
:1032E000636B58030DD4636B59050FD4636B1A05D8
:1032F00011D4636BDB04F3D500F012F8636B580351
:10330000F1D500F025FA636B5905EFD500F008F808
:10331000636B1A05EDD500F003F8EAE7008004407E
:1033200008B5FFF7DBFF00BF014B10221A80704782
:1033300000200540704700BF0B490A6848B108B536
:10334000EC461318ACF50050834204D20B601046D3
:1033500008BD1046704703F0ADFC0C234FF0FF3260
:103360000360104608BD00BF881EFF1FFEE700BFB8
:10337000074BDA78802A01D00020704705490648BB
:10338000486400225A70DA78802AFCD00120704705
:1033900000E007400080044000002822074BDA7854
:1033A000012A01D00020704760225A70DA78802A02
:1033B000FCD1034B034A5A640120704700E00740E8
:1033C000008004400000060203F046B9034B0022CF
:1033D00010215A615A6018605961704700D003404B
:1033E000704700BF4FF0E02C2DE9F0414FF000682E
:1033F000CCF804814FF08058CCF804814FF000588D
:10340000CCF804812F4A3049304C314D314E4FF0C9
:103410008048CCF80481282300204EF6FF7E09273F
:103420004FF00048CCF804814860C1F808E0CB6058
:103430004B61CB614B62CB624B63CB634B64D3601C
:103440005361D3615362D3625363D36353640F6098
:103450006860C5F808E0EB606B612F606060C4F8DD
:1034600008E0E360636127605060C2F808E0D36061
:1034700053611760F16A41F40071F162716802F5FD
:10348000803241F00071716047F6FF74082150608E
:1034900082B09460D36053611160FFF76DFDFFF758
:1034A0009FFF0D4C23680093009B132BFAD900F06B
:1034B0000BFD23680193019BB3F5967FF9D302B00E
:1034C000BDE8F08100900B400080034000800B407D
:1034D0000090034000800440702FFF1F3F2818D841
:1034E00010B4124B53F8302092F8804234B10123CB
:1034F00081B982F800315DF8044B704703EBC003DB
:103500005B681A6859B142F003025DF8044B1A6017
:103510007047704782F880305DF8044B704722F0A6
:1035200002025DF8044B1A60704700BF7CB10000D6
:103530003F2820D81B4A02EBC00301295B680FD04B
:1035400004291DD052F83000002280F8802299B161
:10355000022922D003290DD14FF481721A607047DD
:1035600052F830004FF4A27280F880121A601A6884
:1035700022F020021A6070474FF480721A60704780
:1035800052F830104FF4A272012081F880021A60C4
:103590001A6842F020021A60704740F203121A6063
:1035A000704700BF7CB100002DE9F843044672B6B5
:1035B000214F4FF0E02293693D68D2F8042D62B6A6
:1035C000520102D5322B88BF01350CB9BDE8F88312
:1035D000DFF86890DFF86880A9EB03039B08A8FB7D
:1035E00003234FF47A7202FB05F505EB93054FF0C8
:1035F000E02672B6B1693A68D6F804CD62B6A9EB96
:1036000001039B08A8FB03031CF0806FC5EB930329
:103610004FF47A7002D0322988BF013200FB0233A6
:10362000B3F57A7F04D3013CD0D005F57A75E0E795
:1036300000F03EFDDDE700BF702FFF1F1FBF02003F
:10364000176CC11610B472B61A4A1B4C042312F838
:10365000011B090743F0010C05D554F8331069B17B
:1036600054F83C10C9B10433182BF0D162B6134B97
:1036700000221A705DF8044B00F09CBC0F4904EB6B
:10368000C302083050600A780D4844F83300013A0C
:103690000A7062B65DF8044B7047084A094904EBAA
:1036A000CC0308305860137844F83C10013B137089
:1036B00062B6EFE7E0B300000000FF1F6E30FF1FAF
:1036C00088004000C8004000421E042A0ED81C4B4F
:1036D000400140F0100010B4034472B6194CA05CD5
:1036E00003281DD8DFE800F01416031970470520E1
:1036F000A05413F0080F088814BFC822882208318C
:1037000042EA004259601A6062B65DF8044B7047A5
:103710000320EDE708330220EAE708330420E7E757
:10372000094B53F8220038B1084B53F8220041608E
:1037300043F8221062B6E8E743F82210034BF7E79C
:103740000000FF1F5C30FF1F3430FF1F4830FF1F99
:103750002DE9F04FDFF810A3DFF810B385B03DE09E
:10376000B14D9E0805EBC607013A796813F00803CE
:10377000D4B2A1F1080040F0BA8055F836204FEAE3
:10378000124C120C21F808CC00F0A98021F8063C5C
:1037900041F8043CA54B53F82420002A00F0038292
:1037A000A34B53F82420506043F82400A14B33F876
:1037B0001420944423F814C000F0DCFB002800F02F
:1037C000EB8117F0080F9C4B00F1080018BF5B4617
:1037D000786045F8363008238AF880309AF88030CF
:1037E0005907DCB21DD5954B1B78BBB194490A78BB
:1037F00002F0FF032AB1013BDBB20B70002B00F09B
:10380000488390490A7802F0FF032AB1013BDBB2FA
:103810000B70002B00F0ED8100F0F4FB04238AF81C
:10382000803014F0080200F0CC819AF89020D3B2D6
:10383000120995D1DFF8F0919B0809EBC30459F800
:1038400033006468C0F3830009287CD00FD80138A6
:10385000012808D87C4A158842F22100854200F0F0
:10386000FB8149F833B001238AF89430B3E70D287F
:10387000F9D1D4E90007754D49F833B0724E744C54
:10388000C9F8102083B240F2816CC9F818202A6070
:1038900063454FF00102C6E90007227000F2FF8085
:1038A000B3F5D06F80F0CB82B3F5817F00F0268234
:1038B00040F2DE8040F2023293427BD107F07F0774
:1038C000052F00F20881020C40F00581614911F8D2
:1038D000273043F0020301F82730134670E017F059
:1038E000080F554B18BF5B4645F8363073E700F0BC
:1038F00061FB5949594A51F82430002B00F0578197
:10390000586841F82400115D03F10800786003292C
:1039100005D8DFE801F0120F1502042111551A88AD
:1039200017F0080F14BFC823882343EA024345F861
:10393000363050E702211155F1E703211155EEE72A
:1039400005211155EBE7414D2A683AB34449404CF3
:103950000F88444894F800E00678402F3B4628BF83
:103960004023BEF1000F8EF0010E84F800E046F017
:10397000020486F00106067009EBC400426014BF21
:10398000C820882040EA03401A44FB1A9BB249F839
:1039900034000B80002B00F036812A602A4B1A88F5
:1039A000B2F5A06F7FF45FAF9A788AF89820002272
:1039B0005A7058E7B3F5A06F40F08D80002213468F
:1039C000B6F806C02748944528BF94466746027853
:1039D000402F28BF402742F0020E3E0409EBCE08DC
:1039E00046F0C806C8F8043049F83E6000263B445B
:1039F0002670BCEB070782F00106067040F01181CB
:103A0000BCF13F0F4FF0010509D946F002060270E4
:103A100009EBC60225705360882349F8363001232C
:103A20008AF894301FE700BF0000FF1F0430FF1F1B
:103A30001830FF1F6430FF1F880040006130FF1FF7
:103A40006230FF1F9030FF1F2C30FF1FF82FFF1F29
:103A5000F52FFF1FC02007403430FF1F5C30FF1FD1
:103A6000F62FFF1FF42FFF1F00200740C800400063
:103A7000802B00F08B81822B2DD107F07F07052F43
:103A800029D8A74A00231380A64B13F827309F0795
:103A900040F1FC8101231370A14B022290E742F216
:103AA000210C6345BBD01DD942F2212293420DD196
:103AB000BFB2002F82D19C4B1A689C4B1A609C4B62
:103AC000C0F3074000221870134679E742F2213212
:103AD00093423FF473AF0F238AF8C03001238AF872
:103AE0009430C0E6B3F5086F00F04A81B3F5106F6B
:103AF000F1D1904BC0F307400425187059F83530C8
:103B00001A0606D40135182D0CD059F835301A068E
:103B1000F8D509EBC50301355868083800F04AFAB2
:103B2000182DF2D1844A854B0292854A0192854E26
:103B3000854ADFF848820394009200251C4656F817
:103B4000047B2FB138467F6800F034FA002FF9D19A
:103B5000009BD8F8007043F8045B46F8045C0093BF
:103B60002FB138467F6800F025FA002FF9D1029B6B
:103B700048F8045B43F8045B0293019B23F8025B63
:103B800001932378023B032B00F20981DFE813F055
:103B90003F0104013F0104016C4A45F836001378E7
:103BA0000133137017E643F82400674BFCE5115D01
:103BB000022926D07FF60FAE03291DD1012313550C
:103BC00009E6E0076ED4210621D4A20708D5604B90
:103BD00093F888200221D2B283F8882083F88010DD
:103BE000E30603D55A4B102283F8802005B0BDE8C8
:103BF000F08F00F039FA0FE617F0080F14BF032317
:103C000002231355E7E53F2F98BF0022C5E6504B2E
:103C100080220D2183F8C01083F88020A207DFD511
:103C2000D5E746F002060270402F09EBC6003A467F
:103C300028BF402243601004134440F08800012153
:103C4000BA1A49F83600217055D02B60414B1A80C2
:103C500001238AF8943006E692885AB93E4AE51D57
:103C600014F8011B02F8011FAC42F9D13B4A12685B
:103C7000862A3CD03A4C3B4825780278002D85F0C6
:103C80000105257042F0020482F00102027009EB86
:103C9000C4024FF00000506014BFC822882249F8C7
:103CA0003420DEE52A4B2F482F49304C022583F87B
:103CB000945002702E480C602E4D48608C600D248C
:103CC000CD60FF200A618A6183F8C04001219F24F2
:103CD00083F8880083F8800083F8982083F88C00AC
:103CE00083F8844083F8941005B0BDE8F08F224A31
:103CF0000F201070BEE73F2FA7D890E607F07F0790
:103D0000052F3FF6E8AE000C7FF4E5AE054A12F849
:103D1000273023F0020302F82730002213464FE633
:103D2000FC2FFF1FC0200740702FFF1F8C30FF1F8C
:103D30008830FF1F6130FF1F4830FF1F5C30FF1FBE
:103D40006430FF1F0430FF1F1830FF1F6E30FF1F4D
:103D500000200740F62FFF1F7F30FF1F8030FF1F1E
:103D6000F52FFF1FF42FFF1F0000FF1F88004000EA
:103D7000742FFF1FB42FFF1F6230FF1F3430FF1F4F
:103D8000484B49491B780B700B4619E6464A0023FD
:103D90001380454B022213E64FF001032370434B7F
:103DA000B34204F101047FF4CAAE414E039CDFF834
:103DB0001481404F00233370042518F8013B3E4A1C
:103DC000AB541B0725D445F0020145F0030204352E
:103DD0000023182D49F8313049F83230EDD1374FF2
:103DE00025783A7842F0020009EBC00C85F0010614
:103DF000CCF80430002D4DD1882382F001022670CA
:103E00003A7049F8303001238AF894302BE5257058
:103E1000C5E700F0AFF8002832D009EBC503083041
:103E2000586049F8357000F0A5F808B345F0010373
:103E300009EBC3020830506049F833B0C3E7204AA9
:103E40005368002B3FF447AE000CBFB204E0136987
:103E50000C32002B3FF43FAE11888142F7D15188DC
:103E6000B942F4D1000A03280CBF1A781289A7E5D9
:103E700033780133337045F0010349F83300A2E78A
:103E8000337849F8350001333370CCE7064B022212
:103E900096E500BE2670C82382F001063E7049F800
:103EA0003030BCE56130FF1FFC2FFF1F1830FF1FB3
:103EB0006E30FF1F88004000C0200740F42FFF1F16
:103EC00080B30000E0B3000010B500F097F90023C4
:103ED000234A194642F8331002EBC3000133182B72
:103EE0004160F7D11F48204C436B43F48023436368
:103EF000D4F8003800F5283000F5807043F04073A6
:103F0000C4F80038032480F84440184BA02480F8FB
:103F10004040C2F3072483F89C40C2F30744120ECA
:103F200083F8B0404FF0FF0C83F8B420012283F8EF
:103F300080C00F4C83F888C083F810C083F89420A9
:103F400001704FF0E02183F884204FF0700C4FF4A3
:103F50000012102384F835C0C1F80421037210BD8B
:103F60000000FF1F0080044000D0004000200740F8
:103F700000E400E072B60D490B68B3FA83F01D2827
:103F800010DC4FF00042C24023EA02030B6062B62D
:103F9000074A00EBC000C10002EBC00000235350F1
:103FA0004360704762B60020704700BF8C1EFF1F41
:103FB000D013FF1F0E4BC31AB3F5076F10D20D4A73
:103FC000127872B972B60C4A0C49A2FB0323086836
:103FD0004FF000421B0922FA03F303430B6062B661
:103FE0007047074A1278002AECD0FFF72BBB00BFBE
:103FF000D013FF1F6E30FF1F398EE3388C1EFF1F5A
:104000006130FF1F70B50B4C257845B90A4E3168F9
:104010000123237009B14B8813B90023237070BDAD
:104020009B000B800420FFF74FFB002335602370BB
:10403000F5E700BF6F30FF1F7030FF1F084B094AC4
:104040001B6810B554881BB11A885B88D31A1C44AE
:104050000CB1204610BD00F02BF8204610BD00BF6B
:104060007430FF1F6430FF1F38B50E4B1B7853B9F7
:104070000D4C216841B103F0FF054B880B800320F4
:10408000FFF722FB256038BDFFF774FF014620B122
:10409000BDE838400320FFF717BB044B01221A701C
:1040A00038BD00BF7830FF1F7C30FF1F9030FF1FEE
:1040B0002DE9F843324E337863B1324F3A784AB93A
:1040C0000122D9073A7043D49A0726D400225B070D
:1040D0003A7001D4BDE8F8832B4B1A68002AF9D056
:1040E000EFF30582002AF5D1EFF3108572B6186858
:1040F00000283AD0254C2178002936D142691A602F
:1041000001232370002A37D0916105B962B60025DA
:104110008368457798472570DCE7DFF87C8098F85E
:104120000020002AD2D00025DFF870902B4659F8E5
:104130002340236820461B690135984708B123694D
:10414000984798F80020EBB29A42F0D83378BDE750
:10415000FFF774FF68B90E4B1B780BB93378B3E7E0
:10416000337803F0FE033370AEE7002DB2D162B6B0
:10417000B0E700F041F8EEE7064B1A60C5E700BF74
:10418000901EFF1F9130FF1F9430FF1FA030FF1FB4
:104190007CB30000A430FF1FC030FF1FA830FF1FFA
:1041A00070B5EFF3108272B60C4C206880B10C4EE3
:1041B00000254369236073B19D6102B962B68368CB
:1041C00045779847EFF3108272B620680028F0D147
:1041D00002B962B670BD3360EFE700BF9C30FF1FCD
:1041E0009830FF1FFFF7DCBF024A136801331360EA
:1041F000704700BF702FFF1F704700BF10B584B01D
:1042000072B6FFF7B5F8174A17495160702080233E
:104210001070137013781B06FCD5D468FFF7BEF836
:1042200062B6124B9C423CBF04EB840464002046FF
:104230000F4C01A90A2200F01DF801A92046002315
:1042400011F8012B01333AB10A2B20F8022FF7D1D4
:104250001623237004B010BD5B00DBB2237004B0E2
:1042600010BD00BF0000024000000741809698008A
:10427000841FFF1F01F1FF3C70B56546002401E07B
:1042800070460134B0FBF2FE02FB1E03092B03F162
:1042900030068ABF3733F3B2DBB2904205F8013FF4
:1042A000EED2631C0022CA54C8187CB162461CF8C6
:1042B000015F10F801ED8CF800E0A1EB0C03023275
:1042C000013B521A23449A420570EFDB084670BD49
:1042D00003460846194602F0D5BC00BF00207047CF
:1042E00090F8A12090F8A000101A704790F8A03024
:1042F00090F8A1209A4205D95A1C034480F8A020C6
:10430000187E70474FF0FF30704700BF90F8A03024
:1043100090F8A1209A4286BFC018007E4FF0FF306F
:10432000704700BF704700BFB0F82E312BB190F836
:104330002D31882B03D90123436000207047C21818
:10434000013380F82D31012082F8A310704700BF9F
:1043500038B5B0F82E41A4B190F82D31C3F18904DD
:10436000A24284BF01224260054698BF1446A33092
:1043700018442246FEF7DEFE95F82D31234485F8D9
:104380002D31204638BD00BF42690023A0F8A0307F
:10439000C0F82C3110B4D2E900140A68C0F83431E6
:1043A00022430469C0F838310A60A370426990F86A
:1043B00031311849134493F808C05B7B01EBCC0CF6
:1043C0001B02DCF8044003F4E06343F06403236061
:1043D00090F8323113449C7CDB7D01EBC4011B025D
:1043E0004C68116803F4E06343F0640323600968D8
:1043F0005368194205D003692C225A7003690422BC
:104400009A71036920225A71036980229A705DF8BB
:10441000044B70477CB1000038B50369DA78D5B237
:10442000D206044622D51022DA706B061DD515F08F
:10443000040567D04249D4F8342100230B7084F876
:104440002D31002A72D0904794F82D31002B6DD079
:104450002369D0229A70236994F8A3201A712369E2
:10446000012284F82C210222DA7038BD15F0400CAC
:10447000DDD19A7902F060016029D2B231D09A7808
:1044800012F0100216D015F0010548D194F82C2135
:1044900094F82D11914250D9511C224484F82C11CA
:1044A00092F8A3201A712369D0229A7023690222FC
:1044B000DA70DAE784F830219A7942F020029A71B2
:1044C000236994F8A1101A798729D2B2CBD81C4855
:1044D00000780028C7D0481C214484F8A1000A763F
:1044E000C1E702F0DF029A71D0F8383123B190F8B9
:1044F000A10084F8A0C0984723699A7812F01002AE
:10450000D8D0C0E7236984F8A150C0229A700C4A21
:1045100023690121117002221879DA70A5E7C022FF
:104520009A7023691A790222DA709EE70122002329
:1045300084F82D2184F8A3308AE71D71B3E700BF0A
:10454000C130FF1F2DE9F047374C0269236882B064
:104550000093DDF80080D378990618D5334E0546D0
:10456000002102E0D3789B0611D523680193019BBB
:10457000A3EB08030F2BF5D969B1102BF2D0002063
:1045800090702B6980229A7002B0BDE8F0870120FC
:1045900002B0BDE8F08795F831216B69134405211D
:1045A000187AFEF7C5FF6B6995F831211344012194
:1045B00093F812A05046FEF7BBFF09274FF49679F7
:1045C00000215046FEF78AFF4B46013BFDD10121F9
:1045D0005046FEF783FF4B46013BFDD1013FEFD133
:1045E000696995F831310B444FF41672187A5B7B88
:1045F00006EBC0001B02406803F4E06343F0640371
:10460000036095F832310B44997CDB7D06EBC101E8
:104610001B02496803F4E06343F064030B60013A52
:10462000FDD101212A699DE7702FFF1F7CB1000099
:10463000F0B503691222DA700269937813F020064C
:1046400085B004460D4652D0B42393703249206998
:104650000B680093009E05E00A680192019A921B84
:10466000042A3DD8C37813F02003F5D094F82D31F7
:104670006BB34FF0000CE646022604EB0E0393F8F2
:10468000A33003710B680293029F206907E0920632
:104690000AD50A680392039AD21B052A20D8C37848
:1046A000DAB213F00203F2D0C6702369DA78D7B217
:1046B000D206184626D4BA0624D5FA0726D494F88A
:1046C0002D310CF1010C5FFA8CFE7345D5D800201A
:1046D00015B1236980229A70002384F82E3104E0FA
:1046E0008370236980229A70042005B0F0BDFFF723
:1046F00029FF28B1236984F82F61B0229A70A5E7B9
:104700000420F2E780229A700420E1E7BEF1000F56
:104710000CBF02200320DDE7702FFF1F2DE9F047BB
:104720009046994600220369A0F8A0201222DA7070
:1047300003699C7814F0200588B007468A4600F08B
:10474000A280B4229A70724E3B6932680092009A3D
:1047500008E030680190019CA4EB020CBCF1040F4E
:1047600000F28980DC7814F02005F2D04FEA4A028A
:1047700042F00102D2B21A713368029302983A6988
:1047800006E0336803930399091A052900F285802E
:10479000D47814F00205F4D04FF0020C82F803C074
:1047A0003B69DC7814F011057FD1B8F1000F00F0FF
:1047B0008780B8F1010F00F09080A0229A703969CB
:1047C0000B794FF0A80E33680493049805E0326823
:1047D0000592059A121A052A6BD8CB7813F00203BA
:1047E000F5D081F803C03969CB78DCB2DB06084626
:1047F0000A4644D4A40642D508F1FF385FFA88F887
:10480000B8F1010F04D181F802E0396908460A467F
:10481000872D5CD90379B8F1010FD4D133680693A1
:10482000069805E0316807910799091A052959D8B2
:10483000D37813F00203F5D00223D3703A69D3780A
:10484000D806D9B258D48B0619D5B023872D9370CA
:104850004FD83A697C19127922766B1CDDB200BF01
:1048600000BF00BFB9F1000F02D03B6980229A70EF
:1048700087F8A15003E09D703B6980229A7028461A
:1048800008B0BDE8F087FFF75DFE0028F7D03B6970
:1048900087F82F51B0229A7055E795703B698022B6
:1048A00028469A7008B0BDE8F08780229A700025EB
:1048B000E5E78B703B6980229A7087F8A150DEE7AC
:1048C000B9F1000F14BF8022A0229A70D7E77B199C
:1048D000007918766C1CE5B29DE7A8229A703A69B7
:1048E00013799BE793703B6980229A7087F8A150F7
:1048F000C5E73B691B79B2E710214FF49673D1707D
:10490000013BFDD13A69937803F0F7039370B6E762
:10491000702FFF1F0148FFF77FBD00BF9C1FFF1FC7
:104920000148FFF779BD00BFD820FF1F0148FFF7FE
:1049300073BD00BF1422FF1F0148FFF76DBD00BF0C
:104940005023FF1F08B52DED028BB0EE408A00F01A
:1049500083FBF0EE408AB0EE480A00F0AFF868B191
:10496000DFED127AB4EEE78AF1EE10FA0BDCDFED40
:10497000107AB4EEE78AF1EE10FA0FD4B0EE680ABE
:10498000BDEC028B08BDDFED0B8A02F093F9B0EEAF
:10499000680ABDEC028B2223036008BD02F08AF98D
:1049A0002223DFED058A0360E8E700BF1772B142FA
:1049B000B5F1CFC20000807F0000000008B52DEDEA
:1049C000048BB0EE608AB0EE409A00F03DFCB4EE8D
:1049D000488AF1EE10FAF0EE408A0BD6B5EE409A16
:1049E000F1EE10FA17D1B5EE408AF1EE10FA06D1C9
:1049F000F7EE008AB0EE680ABDEC048B08BDB0EE9D
:104A0000480A00F05BF80028F4D0B5EEC08AF1EE59
:104A100010FAEFD525E000F051F888B1F5EE408AA4
:104A2000F1EE10FAE6D1B0EE490A00F047F800289E
:104A3000E0D0B0EE480A00F041F80028DAD010E0EB
:104A4000B0EE490A00F03AF80028E7D0B0EE480A84
:104A500000F034F80028E1D0F4EE688AF1EE10FAA4
:104A600004D602F027F922230360C3E702F022F9FB
:104A700021230360BEE700BF08B52DED028BB0EE29
:104A8000408A00F0DDFBB4EE488AF1EE10FA06D65B
:104A9000DFED098AB4EEE88AF1EE10FA02D4BDEC3B
:104AA000028B08BD02F006F988EEA80ABDEC028B65
:104AB0002123036008BD00BF0000000082B08DED1F
:104AC000010A019820F00040B0F1FF4FACBF002078
:104AD000012002B0704700BF10EE103A184A23F0D0
:104AE000004393421BDDB3F1FF4F02DB30EE400A7F
:104AF000704700B583B0684600F0E8FE00F00300A0
:104B00000128DDED010A9DED000A0CD0022812D02B
:104B100070B1012000F078F903B05DF804FBDFED1F
:104B2000090A00F0EFB800F06FF9B1EE400AF3E7C0
:104B300000F0E8F8F0E700F0E5F8B1EE400AEBE746
:104B4000D80F493F0000000010EE103A194A23F038
:104B5000004393421CDDB3F1FF4F02DB30EE400A0D
:104B6000704700B583B0684600F0B0FE00F0030067
:104B70000128DDED010A9DED000A0ED0022813D0B8
:104B800070B100F0BFF8B1EE400A03B05DF804FB6D
:104B9000DFED090A002000F037B900F0B3F8F4E7C0
:104BA000012000F031F9F0E7012000F02DF9B1EE1D
:104BB000400AEAE7D80F493F0000000010EE103A23
:104BC000114A23F00043934218DDB3F1FF4F02DB9B
:104BD00030EE400A704700B583B0684600F076FEBC
:104BE000400000F00200DDED010A9DED000AC0F179
:104BF000010000F051F903B05DF804FBDFED030A9A
:104C0000012000F049B900BFDA0F493F0000000061
:104C100030B52DED028B83B08DED010A019C24F09F
:104C20000043B3F1FF4F10DB324B002C93ED007AC1
:104C3000D3ED007A39DBF0EE406A87EE260A30EEDB
:104C4000270A03B0BDEC028B30BD2B4A93420FDD27
:104C5000284A2A4B92ED000AD3ED007A30EE670A1B
:104C6000002CB8BFB1EE400A03B0BDEC028B30BDE2
:104C7000B3F1105F23DBB3F17E5F214D29DB01F03F
:104C8000B7F9D5ED007A20EE270A01F07BF8194B31
:104C9000D3ED007AD5ED006A95ED007A37EE000A83
:104CA00086EE807A37EEC70ADAE7DDED016A87EE35
:104CB000260A30EE670A03B0BDEC028B30BD0D4B07
:104CC000DDED017A93ED000A30EE270A20EE270A87
:104CD000B7E795ED008A01F08BF928EE400A01F064
:104CE00051F895ED007A37EE007AF1EE407A87EED2
:104CF000870AB5E78C24FF1FFFFFAF419024FF1FF9
:104D00009424FF1F10EE103A23F00043B3F1485FE4
:104D10002CDAFDEEC07A17EE903A002B60D020EE30
:104D2000007ADFED317A9FED315ADFED315A9FED98
:104D3000316ADFED316AA7EE275ADFED307AE7EE10
:104D4000055AA7EE256AE7EE067AE7EE276A67EED0
:104D5000266A60EEC00AF6EE007AE7EE260AB7EEA3
:104D6000000AD7EE270A30EE600A704720EE007A7C
:104D7000DFED1D7A9FED1D5ADFED1D5A9FED1D6A77
:104D8000DFED1D6A1E4AA7EE275A9342DFED1B7A1C
:104D9000E5EE075AA5EE876AE6EE077AE7EE876A40
:104DA00066EE876AD5DD174A934214DC03F17F4330
:104DB00007EE903AB7EE006A36EE676A60EEC00A18
:104DC000F6EE005AD7EE257AE7EE260A77EEE07A7D
:104DD00036EE670A7047B6EE076AF5EE027AEDE73F
:104DE000B7EE000A704700BF4ED747ADF6740F31DB
:104DF0007CF293B4010DD037ABAA2A3D610BB6BA51
:104E00009999993E0000483F10EE103A23F0004374
:104E1000B3F1485F04DAFDEEC07A17EE903A5BB367
:104E200060EE007A9FED157ADFED155A9FED156A59
:104E3000DFED156AE7EE875A9FED147AA5EEA76AB3
:104E400020EE275AE6EE276AA6EEA77A30B9DFED04
:104E5000106AE7EE876AA6EE850A704727EE457A64
:104E6000F6EE006AA0EEA67ADFED0A6AD7EE270A10
:104E7000E5EE260A30EE600A704700BFD3C92E2F38
:104E8000342FD7B21BEF3836010D50B98988083C52
:104E9000ABAA2ABEABAA2A3E08B510EE103A23F000
:104EA0000042B2F1465FF0EE407A0FDABDEEC07A12
:104EB00017EE101AF9B9431C134300F09F80012824
:104EC00003D0BFEE007A87EE270A08BD50498A4218
:104ED00011DB9FED507ADFED506A002BBCBFF1EE85
:104EE000600AF1EE407A77EE677A36EEE07ADFED2F
:104EF0004B0A77EE277A67EEA76ADFED494ADFEDC6
:104F0000495A9FED495A9FED496A414926EEA67AD2
:104F10008A42E7EE245AA7EE056ADFED454A9FED87
:104F2000455AE5EE874AA6EE075ADFED435A9FED54
:104F3000436AE4EE875AA5EE076ADFED414A9FED2A
:104F4000415AE5EE874AA6EE075A9FED3F6ADFED2C
:104F50003F5AA4EE876AE5EE075AB0EE467AA5EE10
:104F6000A67A27EEA65AB0EE606AA7EE056ADFEDD4
:104F7000384AE6EE260AE5EE240A37EEA00A1FDAE2
:104F80000128A2D0BFEE007AC7EE006A314B10EEC6
:104F9000102A1A4006EE102A16EE902A76EE677A4C
:104FA000134000EE103AB7EE007A70EEE70AF0EE2A
:104FB000477AE6EE007AE0EE807AA7EEA60A08BD10
:104FC00007EE100AB8EEC77A60EE006A30EE070A04
:104FD0009B1786EE806A03F00203C3F10103F0EE33
:104FE000005A36EE606A06EE903A77EEC67AF8EE30
:104FF000E66AA7EEE57A26EE870A08BD00F0F8FF1C
:10500000B7EE007AF0EE407A87EE270A08BD00BFBF
:1050100040A12C3FDA0F493F6821223300000000F5
:105020005FAE9BB745F4A3388453D9377AC095381F
:10503000C8261A3AB937813916696B3B48DEBE3A41
:10504000A427B33C1F37113C8988083ED10D5D3D34
:10505000ABAAAA3E00F0FFFF10EE103A23F0004288
:10506000B2F1FF4F56D84FEAD37100F095806248F5
:10507000834200F38780002BC0F287805F4B9A4207
:105080004BD95F4B9A4200F29A805E4B5E4A03EB2B
:105090008103D3ED004A02EB8102C1F1010370EEFE
:1050A000644AD2ED007A5B1A34EEE70ADFED576A04
:1050B0009FED575ADFED575A9FED576A20EE007A61
:1050C000A7EE265ADFED556AE5EE075AE5EE876A48
:1050D000A6EE876AF0EE406AE6EE476A002B42D001
:1050E000B0EE007A20EE266A37EE667AB7EE000A56
:1050F000C6EE076A13F17D0F77EEE67A77EEE47A73
:1051000030EE670A4FDB10EE102A02EBC35300EEBD
:10511000103A704730EE000A7047B2F1505F0AD281
:10512000DFED3F7A70EE277AB7EE007AF4EEC77AB9
:10513000F1EE10FA5DDC60EE007A9FED347ADFED7F
:10514000345A9FED346ADFED356AE7EE875A9FEDFA
:10515000327AA7EEA56AE7EE866AA7EEA67AF0EEA7
:10516000406AE7EEC76AF0EE007A20EE266A76EE35
:10517000E76AB7EE007AC6EE267A77EEC07A37EEA7
:10518000670A7047002000F083BD264B9A427FF6E5
:1051900075AF002000F076BDDFED237A002918BF3F
:1051A000B0EE670A704710EE102A643302EBC35367
:1051B000DFED1E7A00EE103A20EE270A70471C4BF6
:1051C0009FED1C7ADFED1C6A03EB8103D3ED007ABF
:1051D000E0EE077A9FED197AFDEEE77AF0EE404AAD
:1051E00017EE903AF8EEE77AE7EEE64A67EE877A4E
:1051F0005AE730EE070A70471772B1421872B13E93
:105200009115853F94B400009CB400004CBB313331
:105210000EEADDB555B38A38ABAA2A3E610B36BB20
:10522000CAF24971B5F1CF42000000000000800DC4
:105230008CB400003BAAB83F8071313FD1F71737DB
:10524000B1EEC00A704700BF2DE9F0412DED028B91
:1052500082B0CDED010A8DED000ADDE9004535F0A3
:10526000004611D184F48004640014F5000F40F26C
:105270001281DDED007A9DED017A37EE870A02B0EA
:10528000BDEC028BBDE8F08124F00047B7F1FF4F81
:10529000EFDCB6F1FF4F00F3F380002CC0F2028187
:1052A0004FF00008B6F1FF4F00F01781B6F17E5FB6
:1052B00000F02281B5F1804F00F00A81B5F17C5FEA
:1052C0009DED000A40F01D81002C80F2478100F026
:1052D0008FFEB7F1FF4F00F02581002F00F01F81F6
:1052E000B7F17E5F00F01581E20F013A58EA020340
:1052F00000F03B81B6F19A4F40F35E819E4B9F4296
:1053000040F34F829D4B9F4200F35882F7EE007AA4
:1053100030EE670A9FED9A6ADFED9A5AF5EE007A51
:10532000A0EE676AF6EE006AE6EE406A20EE007ACA
:10533000DFED957A9FED956A27EE267A67EEC77ABC
:10534000E0EE257AF0EE676AE0EE066A16EE903A35
:1053500023F47F6323F00F0307EE103AA0EE467AA2
:1053600006EE903A77EEC77A25F47F6525F00F05B3
:105370009DED017A06EE105A67EE877A37EE466A9F
:1053800007EE105AE6EE267A08F1FF3858EA0208CE
:1053900026EE877AB7EE008A77EE876ABFEE006A5C
:1053A00016EE903A08BFB0EE468A002B23F000427A
:1053B00040F3C581B2F1864F00F32E8200F01182D6
:1053C000B2F17C5F00F353820022104623F47F6326
:1053D00023F00F0306EE103ADFED6D6A9FED6D3A94
:1053E0009FED6D2ADFED6D3A9FED6D4ADFED6D4A61
:1053F0009FED6D5A36EE477AF0EE002A77EEC77AC7
:1054000026EE267ADFED696AA7EEA67AB7EE000AE5
:10541000F0EE476AE6EE036A66EEA65AF0EE667AAA
:10542000E5EE823AE6EE437AB0EE446AA3EEA56A70
:1054300077EE677AB0EE647AA6EE257AB0EE456A2A
:10544000A7EE256AB0EE667AA6EE657AE6EEA77A52
:1054500066EE875A37EE626A85EE867A77EE677A6D
:1054600077EEE67A30EE670A10EE103A1344B3F5A1
:10547000000FC0F2A08100EE103A20EE080AFEE60E
:10548000B4F17E5F7FF4F5AE85F480056D0015F50F
:10549000000F3FF6EEAEB7EE000A02B0BDEC028B95
:1054A000BDE8F081B6F1974F0FDAB6F17E5F09DB08
:1054B000F315C3F1960346FA03F202FA03F3B3427B
:1054C00000F038814FF00008F0E64FF00208E9E6FE
:1054D000DDED007A27EEA70AD1E6B7F17E5FDAD0DC
:1054E0002BDD9FED330ADDED017A002DB8BFF0EE24
:1054F000407AB0EE670AC2E6002D23DB9DED000A7C
:10550000BDE600F075FDB7F1FF4F02D0002F7FF42C
:10551000E7AE002DBCBFF7EE007A87EE800A002CC4
:10552000BFF6ADAEA7F17E5757EA080740F0FB8003
:1055300070EE407A87EEA70AA1E6002D09DB9FED09
:105540001C0A9CE69DED007AF7EE007A87EE870A4A
:1055500095E6DDED017AB1EE670A90E602B0BDECAA
:10556000028BBDE8F041FFF76BBEDDED007A77EE10
:10557000E77A87EEA70A82E6F3FF7F3F0700803FC6
:10558000ABAAAA3E70A5EC363BAAB83F00AAB83F2A
:105590008CBEBF350072313F4CBB31330EEADDB5F6
:1055A00055B38A38610B36BBABAA2A3E1872313F1D
:1055B000000000000000804B14F0FF4F40F0EF802F
:1055C0005FED047A60EE277A6FF0170317EE907A9A
:1055D000AC48F915C7F316077F398742194447F0DD
:1055E0007E5340F3D480A848874240F3F1809FED7A
:1055F000A74A0131B0EE443AA3F50003F7EE005A92
:10560000002006EE103A76EE257AB7EE007A87EEA5
:10561000270A5B1043F0005303F58023034476EE22
:10562000656A07EE901A66EE803AB8EEE77A13EEF6
:10563000901A07EE903A964BDFED960A9FED968A08
:105640009FED961ADFED962ADFED961A9FED962ACA
:1056500077EEE55A194005EE101A36EE656A63EEEC
:10566000A35AE5EE676AF0EE607AE5EE887AE5EE39
:10567000466AA7EEA51A66EE806AE1EE252A73EE69
:10568000857AE2EEA51A25EEA58AA1EEA52A67EE97
:10569000A67AF0EE084AB0EE646AE8EE027AA5EE69
:1056A000056ADFED820A9FED821ADFED822A36EE6F
:1056B000276A16EE101A194006EE101A76EE644AA2
:1056C000E5EE454A77EEE47A67EEA37AE6EE867A6F
:1056D000F0EE675AE5EE065A15EE901A194006EEFE
:1056E000901AE5EE466A05EE901A77EEE67A67EED6
:1056F000A07AE5EE817A77EE837AF0EE676AE5EEDE
:10570000A26A76EE846A76EE876A16EE901A1940DF
:1057100006EE901A36EEC77A37EE447AA5EEE27AB4
:1057200077EEC77A20E6B8F1010F7FF4A8ADB1EEAD
:10573000400AA4E502F00102C2F10208B6E55E49A2
:105740008A4200F38C806FD0B2F17C5F7FF73CAE71
:10575000D2154FF400017E3A41FA02F21344C3F32A
:10576000C751564A7F39C3F316000A4140F400007E
:10577000C1F117011A400841404206EE902A37EE67
:10578000667AC20577EE876A16EE903A1EE69FEDBE
:105790003F4AF7EE005AB0EE443A002031E70023CA
:1057A00016E7002D0CDB002002B0BDEC028BBDE83B
:1057B000F04100F067BA00F071FA5EE6002DF2DD0C
:1057C000002002B0BDEC028BBDE8F04100F060BAF1
:1057D0009FED3B4A9FED3B3AF7EE085A4FF400101D
:1057E0000FE79FED396A76EEC76A37EE866AB4EE48
:1057F000E66AF1EE10FA0FDC03F500432F4AC3F31B
:10580000C7517F39C3F316000A4140F40000C1F1CB
:1058100017011A400841B0E7B5EEC08AF1EE10FA60
:105820004CBF01200020CCE776EEC76AF4EEE76AB1
:10583000F1EE10FA13DA03F50044204AC4F3C7511D
:105840007F39C4F316000A4140F40000C1F117018A
:10585000002B40FA01F002EA04028DDB8DE7B5EE81
:10586000C08AF1EE10FA4CBF012000209CE7D2154F
:105870004FF400017E3A41FA02F21344D9150F4A5F
:10588000BFE700BF71C41C00D6B35D00000000007C
:1058900000F0FFFF55326C3E42F1533E05A38B3EB4
:1058A000ABAAAA3EB76DDB3E9A99193F4F38763FB7
:1058B000A0C39D360038763F00001643000080FFED
:1058C00000C0153FDCCFD1353CAA383370B510EE9F
:1058D000103A884A23F00044944286B0054670DDB1
:1058E000854A944210EE106A22DC002BDFED837AA9
:1058F000834A24F00F04B0EE407A40F3E2809442F1
:1059000070EE677A09BFDFED7F6A9FED7F7A9FEDCA
:105910007F7A77EEE67A012077EEC76A77EEE67A4D
:10592000C5ED006A77EEC77AC5ED017A06B070BDA5
:10593000774A944254DDB4F1FF4F49DAE215863AD2
:10594000A4EBC25307EE903ABDEEE77ADFED716A41
:10595000B8EEC77A77EEC77A8DED037A67EEA67A4E
:10596000BDEEE77AB8EEC77A77EEC77A8DED047AA6
:1059700067EEA67AF5EE407AF1EE10FACDED057AF3
:1059800040F08E80B5EE407AF1EE10FA14BF02239B
:105990000123614901910221009103A8294600F0E9
:1059A0002FFB002EC2DA95ED007AD5ED017AB1EE2B
:1059B000477AF1EE677A85ED007AC5ED017A4042CB
:1059C000B4E7002285ED000A4260002006B070BDF9
:1059D00070EE407A0020C5ED017AC5ED007AA5E7AA
:1059E00000F006FB9FED4D7A9FED446AF6EE007ADB
:1059F000E0EE077A9FED447AFDEEE77A17EE900A23
:105A0000F8EEE76A1F28A6EEC60A66EE877AB1EEC0
:105A1000666A1EDC424A411E24F0FF0352F8212030
:105A2000934216D030EE677A85ED007A30EE470A61
:105A3000002E30EE670A85ED010ABFF677AFB1EEB2
:105A4000477AB1EE400A85ED007A85ED010A4042C1
:105A50006CE730EE677AE21517EE103AC3F3C753DE
:105A6000C3EBD453082BDFDD9FED267A9FED275A39
:105A7000F0EE405AE6EE075A70EE657AE6EE077AE7
:105A8000D6EE857A35EEE77A17EE103AC3F3C753B0
:105A9000D21A192A06DCB0EE650A85ED007AC5E750
:105AA000032376E79FED1F7A9FED1F5AB0EE650A3C
:105AB000A6EE070A75EEC07AE6EE077AD6EE857A8C
:105AC000B0E7944270EE277A09BFDFED0E6A9FEDD2
:105AD0000E7A9FED0E7A77EEA67A4FF0FF3077EED2
