:1000000000000320D101000011340000CD330000B6
:10001000CD330000CD330000CD330000CD330000E0
:10002000CD330000CD330000CD330000113400008B
:1000300011340000CD330000794700007D470000F7
:10004000113400001134000011340000113400009C
:10005000113400001134000011340000113400008C
:10006000113400001134000011340000113400007C
:10007000113400001134000011340000113400006C
:10008000113400001134000011340000113400005C
:10009000113400001134000011340000113400004C
:1000A000714F00007D4F000011340000113400003A
:1000B000113400001134000011340000113400002C
:1000C000113400001134000011340000113400001C
:1000D000113400001134000011340000113400000C
:1000E00011340000113400001134000011340000FC
:1000F00011340000113400001134000011340000EC
:100100006931000085310000A1310000BD310000DF
:100110001134000081380000113400001134000057
:1001200011340000113400001134000011340000BB
:1001300011340000113400001134000011340000AB
:10014000E92E0000113400001134000011340000C9
:10015000113400001134000011340000113400008B
:100160001134000011340000894F000011340000E8
:10017000113400001134000011340000113400006B
:10018000113400001134000011340000113400005B
:10019000113400001134000011340000113400004B
:1001A000113400001134000011340000954F00009C
:1001B000113400001134000011340000113400002B
:1001C000113400001134000011340000113400001B
:1001D0005F4B4CF2205210B5DA814DF62812DA81CD
:1001E00000BF00BF03F018F95A4B4FF030621A639A
:1001F000594A9A63594ADA634FF0E0234FF4700288
:10020000C3F8882D03F5E823554A1A60554B9A78B0
:10021000110703D59A7842F008029A70524B53485E
:10022000AA221A70524BDA1C121AC11E22F00302C3
:10023000994288BF00224F4902F0F4FF4E4B4F48CD
:10024000DA1C121AC11E22F00302994288BF002252
:10025000002106F0F9FF4A494A484FF4E87202F0DB
:10026000E1FF494B494A802103F8011B9342FBD12E
:100270004FF0E023434AC3F8082D454B8A221A70F9
:10028000A3F5805324225A70A0221A709A799207FB
:10029000FCD59A79D406FCD43E4A937903F00C033A
:1002A000082BFAD1304B60225A70DA78802AFCD1C0
:1002B000384B01221A715D225A719A799006FCD549
:1002C0009A795106FCD5234A33495164002191643F
:1002D000202119702F498B7903F00C030C2BFAD1D4
:1002E0002E4B53602E4A136913F4807303D153616C
:1002F0004FF4A85313614FF0E0232A4A5A610022B9
:100300009A6107221A61284AC3F8202D62B603F0C9
:10031000E1F8234B5B69DA0705D5244803F0CEF8F2
:10032000234B244ADA61244B1B785B0609D5204C09
:10033000204BE2699A4204D11C4803F0BFF8002325
:10034000E36103F06FF806F0EFFF02F063FFFEE7F2
:100350000020054000800440823F04000100002B83
:100360000300008500D0074000E007404020FF1F49
:10037000A836FF1FDCBE00002442FF1FA836FF1F67
:10038000000000000016FF1F00E400E064E400E04D
:10039000005006400040064000000602C010070062
:1003A00000D003401FBF02000000202006D97F6A52
:1003B00000E00340A5C3945A00F00740FFFFFFFF91
:1003C000FFFFFFFFFFFFFFFFFFFFFFFFFFFFFFFF3D
:1003D000FFFFFFFFFFFFFFFFFFFFFFFFFFFFFFFF2D
:1003E000FFFFFFFFFFFFFFFFFFFFFFFFFFFFFFFF1D
:1003F000FFFFFFFFFFFFFFFFFFFFFFFFFFFFFFFF0D
:10040000FFFFFFFFFFFFFFFFFFFFFFFFDEF9FFFF23
:100410000548064B1B1AD90F01EBA301491002D066
:10042000034B03B118477047A836FF1FA836FF1FBC
:100430000000000008B5054B1BB105490548AFF3A6
:100440000080BDE80840FFF7E3BF00BF00000000E8
:10045000A836FF1FD4BE000010B590ED027ADFED84
:100460007F7AD0ED006AB4EEE77AF1EE10FA2DED66
:10047000048B04460AD4DFED7A7A66EEA77AB4EEEE
:10048000E77AF1EE10FAD8BFF0EE477A87EEA60AC7
:100490009FED727A94ED038AB4EEC78AF1EE10FAFA
:1004A0005ABFB7EE007A87EE089AB0EE478A9FED02
:1004B0006D7A48BF9FED6C9A20EE070A04F0ACFEFF
:1004C0006368F0EE408A082B2CD8DFE803F06A71ED
:1004D0007B828C97A3054200D4ED040ADFED637A9A
:1004E000B2EE040AC0EEA70A04F096FDB5EE400A8B
:1004F000F1EE10FAB0EE408A00F1AC80B1EEC80A1D
:10050000C8EE808AB7EE007AFFEE007AE8EE087A4D
:1005100038EE478A84ED087A28EE098AC4ED0A7A13
:1005200084ED098A78EE897AF7EE006AB0EE666AA1
:10053000A7EEA86A86EE867A67EE287A84ED057AB9
:1005400027EEA80ABDEC048BC4ED067A84ED070AF9
:1005500010BDD4ED040ADFED457AB2EE040AC0EE18
:10056000A70A04F059FDB5EE400AF1EE10FAB0EE1C
:10057000408A6CD4B1EEC80AB7EE007A77EE487ABA
:1005800068EE086A67EE897A37EE667A67EE887AEF
:1005900068EE808AC4ED086AC4ED097A84ED0A7AAF
:1005A000C0E700234FF07E5223626362A262B9E784
:1005B0002F4BA3624FF07E52F1EE497A2262C4EDD6
:1005C000097AAFE700234FF07E5223626262A36292
:1005D000A8E700234FF07E52F1EE497A2262C4ED83
:1005E000097AA3629EE74FF07E52F1EE497A4FF00E
:1005F00040432262C4ED097AA36293E7F8EE007AE1
:1006000069EE277A00234FF07E522262C4ED097A08
:10061000A36287E7DFED157AD4ED040AB2EE040A8F
:10062000C0EEA70A04F0F8FC0023A36228EE008ABB
:10063000B7EE007A87EE089AFFEE007AE0EE007AD5
:1006400084ED087A67EE897AC4ED097A6AE704F0E6
:1006500041FD91E704F03EFD52E700BF6F12833A7F
:1006600048E1FA3EDB0F4940FFFF79440000204299
:10067000000080BFF8B543692DED0E8B0446032BB7
:1006800000F26982DFE813F0E501080122000400AE
:1006900090ED018A9FED9D0A28EE000A04F082FD8C
:1006A00094ED027A38EE078AF7EE007AB4EEE78A24
:1006B000F1EE10FAA8BF38EE678AF0EE408A84EDBA
:1006C000018AB0EE680ABDEC0E8BF8BD90ED019A80
:1006D000D0ED029AF6EE007AB4EEE79AF1EE10FA57
:1006E000F1EE007A4CBFFFEE008AF0EE088AF5EEDC
:1006F000C09A4CBFE9EE278AE9EE678AF1EE10FA5C
:1007000040F3B880B3EE00BA69EE8BBAB2EE00AA3D
:1007100039EE6B0A05F03EFDF0EE407AFDEEE77A29
:1007200039EE2B0A17EE905A05F07CFDFDEEC07AEB
:1007300029EE8AAA17EE907ABD42DFED77AA3BDC5C
:10074000D4ED03CA9FED75CA714EB0EE6ADA013777
:1007500012E007EE103AD1ED007AB8EEC70A91ED3B
:10076000017A38EE408A37EE677A0135E8EE077A8B
:10077000BD42EAEE27AA1FD007EE905AF8EEE77ABC
:10078000B0EE4B8A79EE677AA7EEAC8A28EE0C8A37
:10079000B0EE480A05F046FDFDEEC07A17EE903A3D
:1007A000B3F5006F06EB8301D3D30135F0EE4D7A3C
:1007B000BD42EAEE27AADFD1B6EE00BA39EE4BBA57
:1007C0007AEEA8AA3BEE6B0A05F0E4FCF0EE407A64
:1007D000FDEEE77A3BEE2B0A17EE905A05F022FD6C
:1007E000FDEEC07ADFED4C8A17EE907ABD42B1EE95
:1007F0004AAA3DDCD4ED03CA9FED48CA444EB0EE90
:1008000068DA0137F3EE00BA12E007EE103AD1EDE4
:10081000007AB8EEC70A91ED017A38EE408A37EED9
:10082000677A0135E8EE077ABD42EAEE278A1FD0E3
:1008300007EE905AF8EEE77AB0EE6B8A7BEE677AB5
:10084000A7EEAC8A28EE0C8AB0EE480A05F0EAFC66
:10085000FDEEC07A17EE903AB3F5006F06EB830118
:10086000D3D30135F0EE4D7ABD42EAEE278ADFD1CF
:1008700078EEAA8A39EE299AF7EE007AB4EEE79A72
:10088000F1EE10FAA8BF39EE679AB0EE680A84ED6F
:10089000019ABDEC0E8BF8BD90ED019A90ED048AA3
:1008A000D0ED029AB4EEC89AF1EE10FAF7EE00BA63
:1008B000FFEE008AF5EEC09A48BFF0EE6B8AF1EECB
:1008C00010FAD7DDB3EE00AA29EE8ACA9FED12EA2C
:1008D00039EE4C0A05F05EFCF0EE407AFDEEE77A68
:1008E00039EE0C0A17EE905A05F09CFCFDEEC07A2A
:1008F00017EE907ABD424FDC94ED03BADFED07AA04
:10090000044EF0EE4ECA013726E000BFDB0FC940AF
:100910001C770000209700000000000000008042CB
:1009200007EE103AD1ED007AB8EEC70A91ED017AE0
:100930007DEEC0DA37EE677AB5EEC0DAEDEE877A93
:100940000135F1EE10FAA8BF77EEEB7ABD4277EEF3
:10095000A77A3EEE27EA1FD007EE905AB8EEE7DA04
:1009600039EE4DDA2DEE0BDA7DEE0ADA6DEEAADA0B
:10097000B0EE6D0A05F056FCFDEEC07A17EE903A27
:10098000B3F5006F06EB8301CAD30135F0EE6C7A44
:10099000BD423EEE27EADFD179EE48AA38EE8EEA74
:1009A0003AEECC0A05F0F6FBF0EE407AFDEEE77A7F
:1009B0003AEE8C0A17EE905A05F034FCFDEEC07A40
:1009C00017EE907ABD4200F3C38094ED03CA5FED49
:1009D0002E8A5FED2EBA6A4E0137B3EE00BAF8EEFA
:1009E00000CAB7EE00DA07EE905AB8EEE78A013592
:1009F0003AEEC88A28EE0C8A78EE0BDA6DEEABDAA6
:100A0000B0EE6D0A05F00EFCFDEEC07A17EE903ADE
:100A1000B3F5006F06EB830116D207EE103AD1ED65
:100A2000007AB8EEC70A91ED017A7DEEC0DA37EEB2
:100A3000677AB5EEC08AEDEE877AF1EE10FAA8BFBC
:100A400077EECD7AE7EEAC8ABD42CCD17EEE288A35
:100A500010E790ED02CAD0ED019AB5EEC0CAF0EEF3
:100A6000007AFFEE008AF1EE10FAE9EEA78A5ADD6D
:100A7000F3EE00AAB0EE690AACEE6A0A05F08AFB52
:100A8000F0EE407AFDEEE77AB0EE690AACEE2A0AA3
:100A900017EE905A05F0C6FBFDEEC07A17EE907A7D
:100AA000BD4252DCD4ED03BA9FED36AA9FED36BAB3
:100AB000334E0137F8EE00CAB7EE00DA07EE905A6F
:100AC000B8EEE78A013539EEC88A28EE2B8A38EE6F
:100AD0002A9A29EE0B9AB0EE490A05F0A3FBFDEE27
:100AE000C07A17EE903AB3F5006F06EB830116D289
:100AF00007EE103AD1ED007AB8EEC70A91ED017A0F
:100B000039EE409A37EE677AB5EEC08AE9EE077A99
:100B1000F1EE10FAA8BF77EECD7AA7EEACAABD42EF
:100B2000CCD178EE8A8A79EE8C9AF7EE007AF4EEE0
:100B3000E79AF1EE10FAA8BF79EEE79AB0EE680AEC
:100B4000C4ED019ABDEC0E8BF8BD9FED0EAAE8E74F
:100B5000DFED0C8A7AE7D0ED017AD0ED026ADFEDA5
:100B6000098A77EEA67AB7EE007AF4EEC77AF1EE4C
:100B700010FAA8BF77EEC77AC0ED017AA1E500BFF1
:100B8000209700000000000000008042D0ED027AB3
:100B9000B6EE007A77EE877A10B5FDEEE77A90ED43
:100BA000097A17EE903AB5EEC07A83F30203F1EEBC
:100BB00010FA2DED048B044690ED0A9A90ED0B8A05
:100BC000D0ED0C8A8366C0F8803040F2DC80D0ED36
:100BD0003C7A9FED8C0A27EE277A80EE070A04F014
:100BE000DFF9F7EE007A37EEC00AB5EEC09AF1EE03
:100BF00010FA84ED400A40F2D080D4ED3C7A9FEDAB
:100C0000820A29EE279A80EE090A04F0C9F9F7EE64
:100C1000007A37EEC00AF5EEC08AF1EE10FA84EDE4
:100C2000410A40F2C480D4ED3C7A9FED770A68EE29
:100C3000A78A80EE280A04F0B3F9F7EE007A37EEBF
:100C4000C00AB5EEC08AF1EE10FA84ED420A00F156
:100C5000B880F7EE007AB4EE678AF1EE10FAC8BFFA
:100C6000B0EE678AD4ED0D7A84ED3F8AF5EEC07A56
:100C7000F1EE10FA94ED0E9A94ED0F8AD4ED108AED
:100C800040F2B18094ED437A9FED5E0A67EE877A79
:100C900080EE270A04F084F9F7EE007A37EEC00AF6
:100CA000B5EEC09AF1EE10FA84ED470A40F2988052
:100CB000D4ED437A9FED540A29EE279A80EE090A73
:100CC00004F06EF9F7EE007A37EEC00AF5EEC08A4E
:100CD000F1EE10FA84ED480A76D9D4ED437A9FED0F
:100CE0004A0A68EEA78A80EE280A04F059F9F7EE5E
:100CF000007A37EEC00AB5EEC08AF1EE10FA84ED44
:100D0000490A6AD4F7EE007AB4EE678AF1EE10FA77
:100D1000C8BFB0EE678AD4ED127A84ED468ABFEE82
:100D2000007AF4EEC77AF1EE10FA5FD4B7EE000A5B
:100D3000F4EEC07AF1EE10FA08DD9FED348A84ED0E
:100D4000510A84ED508ABDEC048B10BD37EE808AC9
:100D50009FED2F7A28EE078AF5EE007A28EE278A93
:100D6000B0EE480A04F0E6F9F0EE407AB0EE480A38
:100D7000B0EE678A04F016FA84ED508ABDEC048B5D
:100D800084ED510A10BDB5EEC09AB7EE000AF1EE3F
:100D900010FA84ED400A3FF630AFF5EEC08AB7EEA8
:100DA000000AF1EE10FA84ED410A3FF63CAFB5EED1
:100DB000C08AB7EE000AF1EE10FA84ED420A7FF520
:100DC00048AF9FED148A4DE7B5EEC08AB7EE000A32
:100DD000F1EE10FA84ED490A94D59FED0E8A9AE758
:100DE000B7EE000A72E7B7EE000A59E7B7EE008ADD
:100DF00084ED508ABDEC048B9FED060A84ED510A08
:100E000010BD00BF549F8CBF8E5D93C02EBD3BB301
:100E1000DB0F49400000000038B5D0ED117AF5EE47
:100E2000C07AF1EE10FA2DED048B044600F3228116
:100E3000D0ED4D6A90ED4E7AD4ED038A94ED4A9A46
:100E4000B6EE006A68EE868A67EEA66AB2EE0E6AB1
:100E5000F0EE680AD6EE860ADFEDC26A67EE877AA0
:100E6000C0EEA60AB0EE000A27EE868A04F0D4F897
:100E700094ED157ADFEDBC6A29EE000AC0EE077A20
:100E8000F4EEE67AF1EE10FA00F140819FEDB76AD8
:100E9000F4EEC67AF1EE10FA00F3D380F4EEE67ABF
:100EA000F1EE10FAC4BFF7EE006A86EEA77AC4ED41
:100EB000177AD8BFB0EE667A78EE888ADFEDA90A95
:100EC00084ED187AC8EEA00AB0EE000A04F0A4F887
:100ED00094ED1B7ADFEDA46A29EE000AC0EE077AD2
:100EE000F4EEE67AF1EE10FA00F115819FED9F6ABB
:100EF000F4EEC67AF1EE10FA00F31781F4EEE67A1A
:100F0000F1EE10FAC4BFF7EE006A86EEA77AC4EDE0
:100F10001D7AD8BFB0EE667AF6EE007AD4ED216A7B
:100F200084ED1E7A29EE279AC9EE267ADFED8E6AC5
:100F3000F4EEE67AF1EE10FA00F1F2809FED8B6AA2
:100F4000F4EEC67AF1EE10FA00F3F480F4EEE67AED
:100F5000F1EE10FAC4BFF7EE006A86EEA77AC4ED90
:100F6000237AD8BFB0EE667AD4ED4B7AD4ED140A6A
:100F7000D4ED086A84ED247A60EEA70AD4ED457AB0
:100F800094ED058AE6EEA70AB0EE000A04F044F8F4
:100F900028EE000AB3EE047AD4ED007ADFED746A2D
:100FA00094ED076AB4EE470AF1EE10FA67EEA67AFE
:100FB00048BFB0EE470AB4EE670AB6EE007AF1EE2B
:100FC00010FAB4EEC76AC8BFB0EE670AF1EE10FAC5
:100FD0003CD59FED686AD4ED277A94ED068AB4EE8D
:100FE000C60AF1EE10FA37EEA77A00F1A88067EE94
:100FF000A67AB4EEE70AF1EE10FAD5BFDFED5E7A1D
:10100000DFED5D6A20EE270A27EEA60A80EE070ACA
:1010100003F0C6FFF7EE007A37EEC00AB5EEC08ADD
:10102000F1EE10FA84ED280A00F18C80DFED537A9E
:10103000B4EEE78AF1EE10FA40F38F809FED508A0C
:1010400082E09FED507A84ED176A35E7D4ED066AA9
:1010500084ED310AF2EE037AA6EEA77A0023C4F8F3
:10106000CC3004F1BC0084ED327AFFF7F5F9BDEC29
:10107000048B38BD4568444B2A684449DFED444A37
:101080009FED445AD4ED4D3ADFED435A94ED4E4A6C
:101090001344114483EAD33243F0010303FB02F209
:1010A00041F0010C81EAD1330CFB03F382EAD21048
:1010B00042F03D0C0CFB0020424082EA923207EEE7
:1010C000102ABEEE006AB8EE477AF0EE466AE7EE06
:1010D000246A83EAD31266EE856AE3EEA56AC4ED5C
:1010E0004D6A296043F03D0101FB0232534083EA1F
:1010F000933307EE103AB8EE477AA7EE246A26EE4D
:10110000057AA4EE257A84ED4E7A95E6B0EE667AFD
:10111000C4ED176AD0E6B0EE667AC4ED1D6AFBE650
:10112000B0EE667AC4ED236A1EE79FED167A84ED71
:101130001D6AF1E69FED137A84ED236A14E79FEDB3
:10114000170A63E79FED088A84ED298ABDEC048BBA
:101150004FF07E53C4F8A83038BDF1EE007A28EE87
:10116000278AF1E7000096440000000048E1FA3EBB
:101170006666E63E6F12833ADB0FC9C06666863F3D
:1011800066668640BC9C0240F5792B6DEAF356DA20
:101190000000802FCDCC4C3D77BE7F3F2FE3CDBBF1
:1011A0002DE9F04F2DED108B87B0039001F0EEFC90
:1011B0000290002800F07C8201F0E8FC04900028F6
:1011C00000F07B824FF400720021E04806F03CF80A
:1011D0004FF40072DE48002106F036F8039B9A694E
:1011E000059292F8183B002B40F0978102F6A42359
:1011F000141D01939FEDD7AAD74DF6EE008A05E0A6
:10120000019B04F5AA74A34200F0DF81D4F8F43006
:10121000002BF5D0D4F83CB1D4ED079A94ED049AA4
:10122000DFF828A3DFF82893BBF1000F04F154087E
:1012300004F16C0704F1840640F3F9800BF1FF3BE5
:10124000D4F81031C4F83CB1013B032B18D8DFE8C7
:1012500013F04D0134012F010400D4ED457A94EDD3
:10126000497AE7EEC77AF4EECA7AF1EE10FA40F165
:10127000A681DFEDBA7A0023C4ED457AC4F81031B7
:101280004046FFF7F7F93846B0EE408AFFF7F2F92B
:10129000304638EE008AFFF7EDF929EE000AF4EE49
:1012A000E89AA8EE280AF1EE10FAF0EE40CA40F1F2
:1012B000598194ED2E8AD4ED29FA94ED2AFAF0EEB4
:1012C000487AE0EE687AF1EE40AAAFEEE70A2FEE38
:1012D000000A03F0CBFFD4ED2BEAD4ED28BAB0EE30
:1012E00040BAB0EE6E0A03F0C1FF3BEE40BAEBEE3F
:1012F0008BEAB0EE6E0A03F0B9FF94ED2CEAF0EE43
:1013000040DAB0EE4E0A03F0B1FF7DEEC06AABEEFC
:10131000A6EAB0EE4E0A03F0A9FF94ED2DBAB0EEA6
:1013200040DAB0EE4B0A03F0A1FF3DEE400AABEE0F
:1013300080BAB0EE4B0A03F099FFB0EE40CAB0EEAF
:10134000480A03F093FF3CEE400AABEE808AF0EED1
:10135000487AEAEEA87AE7EEEFCA2CEE8F0A03F09D
:1013600085FF70EE6D6AB0EE6E0AA6EEAB0A84EDF4
:101370002B0A03F07BFF30EE4D0AA0EE2BEAB0EE15
:101380004E0A84ED2CEA03F071FF30EE4C0AA0EE19
:101390002BBAB0EE4B0A84ED2DBA03F067FFB0EE26
:1013A00040BAB0EE480A03F061FF3BEE400AB0EEEF
:1013B000487AA0EE2B7A84ED2E7AD4F8F430013BF3
:1013C000032B00F27C81DFE803F0593D3802D4EDB5
:1013D0003E7AD4ED426AE7EEE67AF4EECA7AF1EEAE
:1013E00010FA40F1EF80DFED5D7A0023C4ED3E7A24
:1013F000C4F8F430D4ED4C6A94ED506A67EEA67AE6
:10140000DAED006A67EE877A99ED007AE7EE866A90
:10141000EAEC016AD4ED516AA7EEA67A5545A9EC2B
:10142000017A3FF4EDAEBBF1000F3FF707AF204666
:10143000FFF7F2FC4FF00F0B02E7D4ED3F7AC4ED5B
:101440003E7AD7E7D4ED3E7AD4ED3F6AD4ED415AE7
:1014500036EEE76AE5EE867A37EEE66AB0EEC66A01
:10146000B4EECA6AF1EE10FA40F1AC800323F0EE5C
:10147000667AC4ED3E6AC4F8F430BBE7D4ED3E7A38
:10148000D4ED405AF7EE086A76EEE76AB7EE006AE6
:10149000E5EEA67AF4EEC67AF1EE10FAC0F292808A
:1014A0000223F0EE467A84ED3E6AC4F8F430A1E7F8
:1014B000D4F81831C4F81431E2E6D4ED457AD4ED0D
:1014C000466A94ED486A36EEE77AE6EE077A37EE3A
:1014D000E67AB0EEC77AB4EECA7AF1EE10FA6ED5BB
:1014E0000323C4ED456AC4F81031C9E6D4ED457A4A
:1014F00094ED476AB7EE087A37EE677AF7EE006A3E
:10150000E6EE077AF4EEE67AF1EE10FA57DB022304
:10151000C4ED456AC4F81031B2E6059B1C1D03F604
:10152000A426254601964C22314605F1080001F01B
:1015300079FE284605F5AA75FFF728FBB542F2D1DA
:10154000059A002382F8183B54E600BFC038FF1FFD
:10155000C036FF1F17B7D138C03AFF1F0000000088
:1015600000FEFF46D4ED3B7AD4ED3A6A94ED357A2D
:10157000D4ED344A94ED364A30EE675AB0EE676ADD
:10158000A6EE876A65EE075AA5EE046AE4EEA65A4F
:1015900094ED387AD4ED374A25EE877AB0EE005ACA
:1015A000A0EE247AD5EE856AD6EE057AD4ED394AD6
:1015B000C4ED3A6AA6EE247AC4ED3B7AFDE6C4EDAA
:1015C000457A5DE6C4ED3E7A14E7059A1FED1C6A84
:1015D000D2F8143B3B4C3C4E8033C2F8143B049B86
:1015E0003A4A981C029BBFEE007AF7EE006A991CFB
:1015F00029E0F4EEE67AF1EE10FA52DC67EE867A34
:10160000FDEEE77A17EE903A1BB2F4EC017A21F87E
:10161000023FF4EE677AF1EE10FA45D6F4EEC77A9F
:10162000F1EE10FA1DDBF4EEE67AF1EE10FA35DC9D
:1016300067EE867AFDEEE77A17EE903A1BB2954296
:1016400020F8023F12D0F2EC017AF4EE677AF1EE64
:1016500010FA2BD6F4EEC77AF1EE10FAC9DA334657
:10166000D3E73346954220F8023FECD1029E039D1A
:1016700000223146284601F009FB049C0122214644
:10168000284601F003FB304601F0D6FA204607B0A9
:10169000BDEC108BBDE8F04F01F0CEBA47F6FF73FA
:1016A000CDE747F6FF73B0E70023C8E70023ACE7B8
:1016B00007B0BDEC108BBDE8F08F0298E7E7DFEDD7
:1016C000047A97E6C036FF1F0180FFFFC038FF1F76
:1016D000000000002DE9F0412DED0C8B2F4C96B051
:1016E000B0EE408A054621466922002301E011F848
:1016F000012F0133002AFAD1294A2A485A40692188
:101700006D2302E00B4614F8011F534000FB03F366
:101710004FEAF3420029F5D1234B2449DFED24AAF7
:10172000DFED24CADFED24BA9FED24BADFED248A71
:101730009FED35CA82EA124202FB03F3214A83EA93
:10174000533302FB03F383EA13434C222B6003A8B9
:1017500001F068FD1C4A1D4B1D48069209931D4A65
:101760001D4B1E4907900A921D481E4A0B9305F611
:10177000A4271D4B04910C900D9314921B4BCDED9F
:1017800003AA03A94C223846159305F6EC2601F06E
:1017900049FD05F1F40405F69438D8E0F57600002B
:1017A00067E6096A512D9ECC6BCAEB8524B7000011
:1017B000CDCC4C3E0AD7233C549F8CBFCDCCCC3DE6
:1017C0008E5D93C035AEB2C2004083456666E63E8C
:1017D0009A99993EA69BC43BEC51383E0000C0400C
:1017E0006666263F3333333F295C8F3ECDCCCC3EFB
:1017F0002EBD3BB36666E63E00007A44DB0FC9C0EF
:101800008096184B49FF15BB0000000000803B4745
:101810002DEE8A0A88EE800A03F0C2FBF7EE007A0A
:1018200037EEC00AB5EEC0DAF1EE10FA84ED050A23
:1018300040F253812DEE0A0A88EE800A03F0B0FBD5
:10184000F7EE007A37EEC00AB5EEC09AF1EE10FA64
:1018500084ED060A00F14B81F7EE007AB4EE679A48
:10186000F1EE10FAC8BFB0EE679A14ED2F0A84EDBE
:10187000039AB5EEC00AF1EE10FA14ED2EDA14ED6B
:101880002D9A14ED2CAA40F24D8120EE290A8BEE00
:10189000800A03F085FBF7EE007A37EEC00AB5EE5A
:1018A000C0DAF1EE10FA84ED0B0A40F238812DEE29
:1018B000290A88EE800A03F073FBF7EE007A37EE10
:1018C000C00AB5EEC0AAF1EE10FA84ED0C0A40F29F
:1018D00019812AEE290A88EE800A03F061FBF7EEEF
:1018E000007A37EEC00AB5EEC09AF1EE10FA84ED38
:1018F0000D0A00F11181F7EE007AB4EE679AF1EE6D
:1019000010FAC8BFB0EE679A54ED2A7A84ED0A9AAD
:10191000BFEE007AF4EEC77AF1EE10FA00F14481DE
:10192000B7EE000AF4EEC07AF1EE10FA40F3A781A8
:101930001FED519A84ED149A84ED150A04F5AA74EA
:101940004FF0FF33A04546F8043F00F0AF81B5EEFD
:10195000C08AF1EE10FA40F3E8805FED577AB4EEFA
:10196000E78AF1EE10FA40F1248104ED3C8A44F854
:10197000EC5C4C223946A4F1E80001F053FC04ED84
:10198000278A04ED218A012304ED1B8A44F8583C80
:101990001FED680A5FED687A1FED687A04ED158A1D
:1019A00028EE000AB4EEE70AF1EE10FA58BFB0EEE6
:1019B000670A20EE077A38EE080A87EE000A03F07D
:1019C000EFFAA4F13400F7EE007A37EEC00A04ED26
:1019D00013CA04ED140A44ED127A04ED0D8A019045
:1019E000FEF73AFD0023019844F8303CFEF734FD41
:1019F00068EE2C7AB0EE489A8BEEA70A84ED009A36
:101A000003F0CEFA94ED00AA2AEE0B0A88EE800AC3
:101A100003F0C6FA2AEE2A0A88EE800A03F0C0FA1A
:101A2000B5EEC08AF1EE10FA64DD5FED8B7AB4EEAC
:101A3000E78AF1EE10FA5DD528EE2C7AF0EE487ABE
:101A40008BEE870AC4ED077A03F0AAFAD4ED079A61
:101A500029EE8B0A88EE800A03F0A2FA29EEAA0A80
:101A600088EE800A03F09CFA54ED3A7A14ED330ABA
:101A700054ED32DA14ED319A14ED30DAB6EE007A24
:101A800077EE877AB5EEC00AFDEEE77AF1EE10FA4E
:101A900017EE903A83F3020344F8883C44F8703C14
:101AA0002DD920EE0A0A8BEE800A03F079FAF7EEC0
:101AB000007A37EEC00AF5EEC0DAF1EE10FA84EDE6
:101AC000040A3FF6A5AEB5EEC0DAB7EE000AF1EEB5
:101AD00010FA84ED050A3FF6ADAEB5EEC09AB7EE4A
:101AE000000AF1EE10FA84ED060A7FF5B5AE1FED9F
:101AF000BA9ABAE61FEDBD0A5FEDBC7AA2E7B7EE6F
:101B0000000AD8E7B5EEC09AB7EE000AF1EE10FA77
:101B100084ED0D0A7FF5EFAE1FEDC59AF4E6B7EE42
:101B2000000ACEE6B7EE000AB9E61FEDC89A44F8FF
:101B3000EC5C04ED3C9A4C223946A4F1E80001F03B
:101B400071FBB5EEC08AF1EE10FA3DDC04ED279A88
:101B500045DC04ED219A4DDC4FF0010304ED1B9AA6
:101B600044F8583C54DC544A04ED159A4FF07E5327
:101B700044F8502C04ED13CA44F8483CA4F1340056
:101B80005CDC04ED0D9A0190FEF766FC00230198E1
:101B900044F8303CFEF760FCB5EEC08AF1EE10FA76
:101BA00060DC9FED460A29E7B0EE4C0AB7EE009ADA
:101BB000C0E6434B44F8EC5C44F8F03C4C22394618
:101BC000A4F1E80001F02EFBDFED3E7AB4EEE78AE7
:101BD000F1EE10FA3FF5D3AE394B44F89C3CDFED03
:101BE000397AB4EEE78AF1EE10FA3FF5CAAE344B1B
:101BF00044F8843CDFED337AB4EEE78AF1EE10FA74
:101C00003FF5C1AE2E4A44F86C2C012344F8583CF1
:101C1000DFED2C7AB4EEE78AF1EE10FA3FF5B8AEBC
:101C20002749254A44F8541C4FF07E5344F8502C61
:101C300004ED13CA44F8483CA4F13400DFED217AE6
:101C4000B4EEE78AF1EE10FA3FF5C7AE1C4B44F84C
:101C5000343C0190FEF700FC0023019844F8303C2E
:101C6000FEF7FAFBDFED177AB4EEE78AF1EE10FA31
:101C70003FF5BEAE9FED110A9FED139ABEE637EE1B
:101C8000809A9FED127A29EE079AF5EE007A29EEF6
:101C9000279AB0EE490A03F04DFAF0EE407AB0EE22
:101CA000490AB0EE679A03F07DFA43E616B0BDEC40
:101CB0000C8BBDE8F08100BFB8BF813D49FF15BB6B
:101CC00000803B478096184B00803B47DB0F494024
:101CD0002DE9F0410B78013B2DED028B0E460546B8
:101CE000062B1ED8DFE803F08B581D211D1D0400B4
:101CF0008B88DFEDB66A9FEDB67A9FEDB60A07EEE8
:101D0000903AF8EE677A05F5316577EEE67A67EE98
:101D1000877A77EEA77A27EE800A03F021FB85ED1C
:101D2000000ABDEC028BBDE8F0818B784A2B00F0F5
:101D300096807B2BF5D100F6EC2100F60C3700F6EF
:101D4000F8344FF0000C4FF0040E4FF0FF3602E075
:101D5000B9420E60E5D051F8040F0028F8DB05F514
:101D6000AC7303E003F5AA73A342F1D013F8042C7B
:101D7000002AF7D053F80C2C9042F3D153F8602C82
:101D800003F804CC0AB143F860EC53F8442C002A61
:101D9000E8D043F844ECE5E788782B1D05F6A4214C
:101DA0000024042603E003F5AA73994218D093F89F
:101DB0005021002AF7D0D3F848219042F3D1D3F82C
:101DC000F42083F850410AB1C3F8F460D3F810212D
:101DD000002AE8D0C3F8106103F5AA739942E6D14E
:101DE00005F6EC22002352F8041F884200F0E1803F
:101DF0000133082BF7D1BDEC028BBDE8F0818F7861
:101E00009FED740AA7F1450307EE903AF8EEE77AE2
:101E100027EE800A03F0A4FA2A1D114605F6A42C29
:101E20001346D3F8F4001C4603F5AA73002842D0E9
:101E30009C45F6D100240AE0D2F84C01D4F84C318C
:101E4000984238BF144602F5AA7262451ED092F835
:101E50005031002BF7D1002CEED11446F3E7CB78AC
:101E60009FED5D7ADFED5D6A07EE903AF8EE677AF6
:101E700000F52B6267EE877A9FED597AA7EEA67A76
:101E8000012382ED007A80F8183B4AE79CB90C46A2
:101E900001F5AA718C450CD0002CF8D0D1F84C215A
:101EA000D4F84C319A4238BF0C4601F5AA718C45E2
:101EB000F2D1002C6FD0F3786068DFED476A494AB1
:101EC000D4ED134A9FED486A07EE103A05F53163E9
:101ED000B8EE477AD3ED005A036827EE267A1A4403
:101EE000F7EE007A42F0010137EEC75A82EAD233A8
:101EF00001FB03F3E4EEC57A43F03D0C83EAD31112
:101F00000CFB013120EE060A4B4083EA9333F0EEDE
:101F1000676A60EE257A05EE903A9FED346AD5F84F
:101F2000143BC4F84C31B8EE658A002628EE068AC8
:101F30004FF00108C4F84871C4ED4A7A84ED4B7A39
:101F4000C4ED4C6AC4F83861C4F83461A66584F8FD
:101F50005081B0EE480A026004F064F938EE400A9D
:101F60000023C4F8886084ED1C0AC4F8B860C4F883
:101F7000B460C4F8B060C4F8AC60C4F8E860C4F8F9
:101F8000EC60C4F8F860C4F8F480C4F81461C4F8D4
:101F90001081C4F83C3105F6EC22002352F8041FEE
:101FA00000290DDB0133082BF8D1BDEC028BBDE815
:101FB000F08103F52F734FF0FF3245F82320B0E690
:101FC00003F52F7345F82370ABE600BF0000004611
:101FD00000000039ABAAAA3D0402013C00201946CA
:101FE00000004843F5792B6D0000DC430000802F92
:101FF00010B5094C204600F079FA5A21204600F02D
:10200000A9FA06489FED060AFFF764FBBDE81040F9
:102010000448102100F048BDFC3AFF1F4420FF1F78
:10202000A6552C470002FF1FF0B5374C374D384EF0
:1020300083B0002002F0BAF8002837D094F90030BD
:102040002278002BF5DA2B78013BDBB20F2BF0D88E
:102050001343304F31783A7883F080006F28E8D806
:1020600001F07F0002F07F0103F0F002B02A03F0DC
:102070000F0343D023D8902A37D0A02A18D14FF08D
:10208000030C4FF400528DF802008DF80310224823
:102090008DF800C069468DF80130ADF80420FFF7D7
:1020A00017FE002002F082F80028C7D103B0F0BD6F
:1020B000802ABED14FF0020C4FF40052E3E7D02A41
:1020C0000DD0E02A04D140EAC1124FF0070CDAE744
:1020D000C02AAED14FF0050C4FF40052D3E70146B1
:1020E0004FF0060C4FF40052CDE700290CBF4FF023
:1020F000020C4FF0010C4FF40052C4E74FF0040CF7
:102100004FF40052BFE700BFC43EFF1F9D3DFF1FBD
:102110009E3DFF1F9F3DFF1F4420FF1F10B52D490F
:102120002D4A0C682D481060002382B01361138182
:10213000D360002C4AD0234619465B69002BFBD1A3
:102140004A61274B27481060002127489061516160
:1021500051609172022003F1180258721A611972CB
:10216000D9609961D96122466469002CFBD1536121
:102170001E4A5C615C609C721A60194800F092FB18
:102180001B4B1C4919600A221A721B4800F0AEFD55
:10219000134B114900942246174800F01BFE174AC2
:1021A0001749154802F0C2FB164800F09FFD0122B6
:1021B000009209490A4B134800F00CFE0F4A1049DF
:1021C000104802B0BDE8104002F0B0BB0A601446EF
:1021D000B7E700BF583BFF1FE03AFF1F0C77000036
:1021E000C03AFF1F187700004420FF1F94B700007B
:1021F000FC3AFF1F78B70000083BFF1F4020FF1F7D
:10220000892E00001C3BFF1F0020704700207047F4
:10221000F8B51F4C037A0D465A000127C1F3072178
:102220000646204684F8A32084F82E7184F82D7188
:1022300002F0A8FBE9B2204602F0A4FB00212046F0
:1022400002F024FD08B10020F8BD317A3B4602229D
:10225000204602F091FD0128F5D994F8A02094F8C9
:10226000A100824210D2A118531CDBB2097E84F86F
:10227000A03098424FEA012106D923440232187E49
:1022800084F8A0200843F8BD4FF0FF30F8BD00BF30
:10229000742CFF1FF8B5154C037A24294FF0010761
:1022A00008BFC280BB400D462046C1F30721164639
:1022B00084F8A33084F82E7184F82D7102F062FB4B
:1022C000E9B2204602F05EFBC6F30721204602F089
:1022D00059FBF1B2204602F055FB3946204602F088
:1022E000D5FCB0FA80F04009F8BD00BF742CFF1F88
:1022F000F8B504467A480E46154602F073FB0520F1
:1023000001F0CAF906212046FFF782FF002E76D0A1
:10231000B02800F0DF800127277144F260023021ED
:102320002046FFF7B7FF002872D06C2226212046F6
:10233000FFF7B0FF4FF4F97228212046FFF7AAFFFC
:1023400040F622722C212046FFF7A4FF44F24642B9
:102350003C212046FFF79EFF40F237122421204601
:10236000FFF798FF5F4B9E4200F2AE8000223421BF
:102370002046FFF78FFFB5FBF6F107EE905AF8EE17
:10238000676A07EE906AB8EE677A01F01F02C6EE40
:10239000877A3221204607EE102AF8EEC76A9FEDB1
:1023A000527A77EEE67A67EE877AFCEEE77A17EEF6
:1023B000903AC3F30A0343EAC222FFF76BFF44F2E9
:1023C000FF5230212046FFF765FF7322022120468D
:1023D000FFF760FF4FF4C87001F05EF941F61D523F
:1023E0002E212046FFF756FF072204212046FFF743
:1023F00051FFB02206212046FFF74CFF46E00123A3
:10240000237144F2600230212046FFF743FF08B9F0
:102410000020F8BD6C2226212046FFF73BFF4FF439
:10242000F97228212046FFF735FF40F622722C2151
:102430002046FFF72FFF44F246423C212046FFF79B
:1024400029FF40F2371224212046FFF723FF44F2F0
:10245000FF0230212046FFF71DFF73220221204694
:10246000FFF718FF4FF4C87001F016F941F61D523E
:102470002E212046FFF70EFF042211462046FFF7CB
:1024800009FF302206212046FFF704FF10220A210F
:102490002046FFF7FFFE00220E212046FFF7FAFE3E
:1024A00043F63C4210212046FFF7F4FE47F67F72C8
:1024B00022212046FFF7EEFE362224212046FFF798
:1024C000E9FE01206072F8BD3A4634212046FFF74C
:1024D000E1FE50E70120002323716072F8BD00BFC8
:1024E000742CFF1F4066030100000045014A0021D3
:1024F000FFF7FEBE605AC50A10B50446D1B10129E6
:1025000001D0002010BD40F273122A21FFF7C2FE55
:102510000028F6D0882220212046FFF7BBFE0028A5
:10252000EFD0E28820462421BDE8104022F00402CA
:10253000FFF7B0BE55222021FFF7ACFE0028E0D007
:10254000E28820462421BDE8104042F00402FFF753
:10255000A1BE00BF38B50546F1B1802903799ABF05
:10256000C1F1800444EA0424002433B922462846F9
:102570002221BDE83840FFF78DBEC288002322F03B
:10258000100203712421FFF785FE224628462221EE
:10259000BDE83840FFF77EBE012347F67F72222157
:1025A0000371FFF777FEEA8828462421BDE838400A
:1025B00042F01002FFF76EBE9FED1D7ADFED1D7A2F
:1025C000E0EE077A38B5FCEEE77A054617EE904A5A
:1025D000F4B1802C03799ABFC4F1800444EA042446
:1025E000002433B9224628462221BDE83840FFF7AF
:1025F00051BEC288002322F0100203712421FFF78C
:1026000049FE224628462221BDE83840FFF742BE57
:10261000012347F67F7222210371FFF73BFEEA8810
:1026200028462421BDE8384042F01002FFF732BEB0
:1026300000000143EE7CFF3E2DE9F84F374B384850
:102640001A68384912681B79CB7782422AD2364BF6
:102650001B78002B4AD1DFF8E0A0DFF8E090DFF82C
:10266000E080324FDAF80060D9F800B0B8F80040E6
:102670003D88002E40D0BBF1000F16D00BF10402B4
:10268000311D02EB450201EB440100F07FF94035BA
:1026900040347F2C11D87F2DA8F800401AD83D80F7
:1026A000BDE8F88FA0F58070D5E7311D01EB44013E
:1026B000403400F08AF97F2CEDD900243046A8F888
:1026C000004000F0B9FA1A4B7F2D1A68CAF80020B2
:1026D0001C60E4D9002458463C8000F0ADFA154B4C
:1026E0001A68C9F800201C60BDE8F88F4FF0E0239D
:1026F0000122C3F80822AEE7BBF1000F07D00BF1AF
:10270000040101EB450100F080F94035C1E74FF4C9
:102710008072594604F098FDBBE700BF483BFF1F9D
:102720004013FF1F00800040443BFF1F423BFF1F40
:10273000343BFF1F3C3BFF1F303BFF1F383BFF1F5D
:10274000403BFF1F38B50021044600F0C3FA88B1B2
:1027500072B61C4A1368002B2BD01B490D68002D44
:102760002CD01560194A08600021118062B6184605
:1027700000F062FA0121204600F0ACFA98B172B67E
:10278000134A136883B113490C6854B11460124A98
:1027900008600024148062B61846BDE8384000F096
:1027A0004BBA086062B638BD0B4910600B8062B648
:1027B00038BD064910600B8062B6DBE7086062B680
:1027C000D8E700BF303BFF1F343BFF1F403BFF1FDC
:1027D000383BFF1F3C3BFF1F423BFF1F10B5044629
:1027E00000F020FC204610BD284A294BD16B41F453
:1027F0000041D163116C41F002011164D16B41F0D1
:102800000201D1631A68002A37DBD3F88020002A3E
:1028100033DB4FF0804270B4C3F80021D3F80021BD
:10282000002AFBDB01251B4A00264FF2FE01C3F8FC
:1028300004114FF480341E6617495D609A60174A90
:10284000DC6019615A61C3F8E060C3F8845005F197
:102850008E45C3F88850C3F88C40C3F89010C3F875
:10286000942020B90E4B4FF4C0629A609A610C4BD1
:102870004FF4C06270BCDA60704728B9084B4FF45F
:10288000C0629A609A617047704700BF0080044040
:1028900000F00240010000071B1F0100001F1F1F66
:1028A00000B0044038B5254C0121204600F058FB0B
:1028B000234A244B002010601860FFF795FF224B3D
:1028C00022494FF4C0625A602368214A19602149A5
:1028D000D960214919615A6002254FF4807206219E
:1028E000DA829D60DA8398829983986123791B4DFF
:1028F00003F1804303F504338D2218701A70184BCE
:102900002079184AE8764FF0807119601A6000F05B
:10291000D5FA2279144C15492070531102F1100098
:1029200003F13823124C41F8204040339B0002F061
:102930001F02012101FA02F21A6038BD483BFF1F55
:10294000303BFF1F383BFF1F00B004404012FF1F09
:102950000200010100FEFFFF22F002400080004063
:1029600000F0024001000090443BFF1F0016FF1FD3
:1029700039260000024A0349034801F0D7BF00BFCF
:102980004020FF1FDD270000483BFF1F2DE9F04FCF
:1029900000F5807EB1E8A00AB2E84015C5EA06431A
:1029A000C6EA2544C7EA0845C8EA2746C9EA0A47ED
:1029B000CAEA2948CBEA0C49CCEA2B4AA0E8F80736
:1029C0008645E7D1BDE8F04F70474FF000022DE992
:1029D000F00F00F5807C00BFB1E8A00AC5EA020351
:1029E000C2EA2544C7EA0205C2EA2746C9EA020745
:1029F000C2EA2948CBEA0209C2EA2B4AA0E8F80752
:102A00008445E9D1BDE8F00F70474FF000022DE991
:102A1000F00F00F5807C00BFB1E8A00AC2EA0543D0
:102A2000C2EA0504C2EA0745C2EA0706C2EA094744
:102A3000C2EA0908C2EA0B49C2EA0B0AA0E8F80791
:102A40008445E9D1BDE8F00F70472DE9F00F089CEF
:102A500000F5007B51F8045B53F8046BC5EA0647A8
:102A6000C6EA254952F8045B54F8046BC5EA0648E7
:102A7000C6EA254AA0E880078345EBD1BDE8F00F00
:102A8000704700BF4FF0E0230122C3F808227047CF
:102A9000036818470B680360704700BF0B6803604A
:102AA000704700BF704700BFF0B5B1F5607F8DB0D3
:102AB0000E460F4628BF4FF46076054672B62B4B84
:102AC000002418602A4B2B481C807022214604F0F9
:102AD000BBFBC7B1274821464FF0010C4A0901F062
:102AE0001F0350F822400CFA03F3013123438E42B6
:102AF00040F82230F2D828460023438001339E421A
:102B000000F58270F9D81C4C257815B162B60DB06D
:102B1000F0BD082000F0D0FC184B05608022027147
:102B200006460093069302A9154B029308A8FFF7E7
:102B3000B1FF144A06A9304600F0A8FA069B08A87F
:102B4000DB689847009B02A8DB6898472378002B36
:102B5000DCD10D494FF0E0220123D02081F8400064
:102B6000C2F80831237062B60DB0F0BD503BFF1FB4
:102B7000643BFF1F683BFF1F603BFF1F98B70000CF
:102B8000852A0000FFA7020000E400E030B472B61E
:102B9000244D254C2A8804F1700104EB82038B42FA
:102BA0003CD204F16F01C91A501C00EB910002E005
:102BB0000132824232D09C4653F8041B0029F7D0E0
:102BC000B1FA81F04FF00043C34021EA0301CCF891
:102BD000001001B90132154B2A801A88013291B2D6
:102BE000198062B6ACEB040C4FEAAC0CC0EB00648D
:102BF0000CEB8C1C41F67C73C0EB841003EBCC1304
:102C000003EB80030A4800680124C4541844094BAC
:102C10001C88944238BF198030BC704762B60020CF
:102C200030BC7047643BFF1F683BFF1F543BFF1FD6
:102C3000503BFF1F5C3BFF1F428872B60378012B9D
:102C400003D9013B037062B6704751090C48D24367
:102C500002F01F024FF0004310B4D340094C50F86B
:102C600021201343228840F821308A42064A88BF37
:102C700021801388013B138062B65DF8044B7047D6
:102C8000683BFF1F643BFF1F543BFF1FC36813B922
:102C90001DE0DB68E3B1187A9042FAD110B45868AD
:102CA00093F809C0006950F82C4054B1DB682BB18F
:102CB000187A9042F3D0DB68002BF9D15DF8044B11
:102CC000704740F82C10087801300870EEE7704724
:102CD000704700BF437A8B4206D90369002253F83C
:102CE000210043F82120704700207047044900224A
:102CF00002604260028102740A68C2600860704724
:102D0000D83BFF1F037CFBB903680146FBB1436856
:102D1000EBB1427A5B7A9A421CD230B472B62B4B3A
:102D20001C68ECB1E368C3B1486801E0DB68A3B19B
:102D30005A688242FAD193F809C04A7A9445F5D18B
:102D400062B6042030BC7047012062B67047032091
:102D500062B67047022062B670476469002CE1D108
:102D60001B4C236843B1994202D10BE0994207D032
:102D70001A46DB68002BF9D1052062B630BC7047DB
:102D800002F10C040D68E868E8B1C36823B908E0F3
:102D9000DA68184632B113468142F9D162B606208C
:102DA000D0E70346D960CB6823600020C860AA7AC8
:102DB00001231A44AA724A682B72947A13721C4433
:102DC00094720B74D9E7E960EDE700BF583BFF1F31
:102DD000D83BFF1F10B5047C9DF808E00CB1012022
:102DE00010BD027280F809E0BDE81040C0E9001390
:102DF000FFF788BF037C002B37D010B54368427AB9
:102E00005B7A9A42044638D272B60168CB68002BCE
:102E10002DD0984233D01A46DB689C422AD0002B32
:102E2000F9D16268607A136953F8200048B1FFF75E
:102E300003FF72B66268617A1369002043F82100CB
:102E400021688B7A013BDBB28B7203B90B72937AE8
:102E5000013BDBB2937203B913720A4B00201A686C
:102E60002074E2601C6062B610BD0120704762B63B
:102E7000032010BDE368D360D3E7022010BDC36810
:102E8000CB60CEE7D83BFF1F10B50446FFF7B2FF7B
:102E9000094A136843B19C4202D108E09C4205D024
:102EA0001A46DB68002BF9D1204610BD0C32E368CE
:102EB0001360204610BD00BFD83BFF1F084B1A7897
:102EC00062B908484FF0E02101224FF0D00C80F8A1
:102ED00040C0C1F8082110461A70704700207047A2
:102EE000603BFF1F00E400E04FF0E022F8B5D2F8AD
:102EF000FC3D174D174943F08073C2F8FC3D2B6829
:102F00000C6843F001032B606E689CB1237A204665
:102F10006BB123686F681B6898476B68E188DB1B9F
:102F2000C3F30F12B1EB131FA28038BFE2806469B4
:102F3000002CEBD1064B084A5B681088074C9B1BA2
:102F4000C3F30F11B0EB131F218038BF1180F8BD00
:102F5000001000E0583BFF1F623BFF1F5E3BFF1F5E
:102F600010B472B621B9026812B103790F2B44D99B
:102F70002A4C2188002341FA03F212F0010209D001
:102F80000133102BF7D162B60022026003715DF8A5
:102F9000044B70474FF0010C0CFA03FC41EA0C01A2
:102FA000218062B61E495FFA83FC80F804C00C6C75
:102FB00044F002040C64CC6B44F00204CC6303F1D3
:102FC0000073A1F5802140F2824403F590630C6008
:102FD0005B0181F81AC081F81EC081F818C081F821
:102FE0001FC05DF8044B0360C3E90022C3E902225D
:102FF000C3E90422C3E906227047084C218841FA3C
:1030000003FC1CF0010FB5D003F1007303F59063CE
:10301000B2EB431FAED162B6B9E700BFDC3BFF1F86
:103020000080044003790F2B11D8094A937672B6B9
:10303000084990F804C00B88012202FA0CF223EA36
:1030400002030B8062B610220023027103607047F6
:1030500000800040DC3BFF1F704700BF704700BF8F
:10306000704700BF704700BF704700BF38B5064CBF
:10307000A4F1600554F8083C2046DB68183C9847EA
:10308000AC42F7D138BD00BF303CFF1F2DE9F04105
:10309000036888B004461746002B3DD000229A6092
:1030A0000122DA60294DDFF8BC801D442D1151F852
:1030B000083B029305EB4506F60004A85B689847B9
:1030C00058F8063006F108004044DB680190984744
:1030D000029B1F4A029204A9019848F806309B6897
:1030E0009847029B04A8DB689847236819491F602A
:1030F00003229A6005F13002531103F1382320793D
:103100006854403301209B0002F01F0200FA02F2D3
:103110001A6008B0BDE8F0810F4AD36B43F4000396
:10312000D36300BF0D4B01221A6003F580730C4A74
:10313000036098680028B5D0103393422360F8D11B
:103140000020206008B0BDE8F08100BF008FFCBF08
:10315000A8B7000030E400E00080044000700340A5
:1031600040710340E03BFF1F0448054A50F8083B0C
:1031700001211B68C2F80C11184700BFE03BFF1F7C
:10318000007003400448054A836901211B68C2F8A6
:103190001C112030184700BFE03BFF1F00700340A8
:1031A0000448054A036B01211B68C2F82C11383012
:1031B000184700BFE03BFF1F007003400448054A6A
:1031C000836C01211B68C2F83C115030184700BFC6
:1031D000E03BFF1F00700340094B0A480A4A0B49B5
:1031E00010B40B4C1C6098609C6118621C6398635F
:1031F0009C6418655DF8044B002001F097BB00BF8C
:10320000E03BFF1F593000004020FF1F6D300000E1
:1032100098B7000008B5FEF7EBFEFEF705FF01F0DA
:1032200011FAFAE701B441EA000313F003036FD186
:10323000403A41D351F8043B40F8043B51F8043B79
:1032400040F8043B51F8043B40F8043B51F8043B80
:1032500040F8043B51F8043B40F8043B51F8043B70
:1032600040F8043B51F8043B40F8043B51F8043B60
:1032700040F8043B51F8043B40F8043B51F8043B50
:1032800040F8043B51F8043B40F8043B51F8043B40
:1032900040F8043B51F8043B40F8043B51F8043B30
:1032A00040F8043B51F8043B40F8043B51F8043B20
:1032B00040F8043B403ABDD2303211D351F8043BC0
:1032C00040F8043B51F8043B40F8043B51F8043B00
:1032D00040F8043B51F8043B40F8043B103AEDD26F
:1032E0000C3205D351F8043B40F8043B043AF9D2C0
:1032F00004320AD0D2071CBF11F8013B00F8013B91
:1033000003D30B7803704B78437001BC704700BF48
:103310000C2A4AD310F0030311D0C3F10403D21ACC
:10332000DB071CBF11F8013B00F8013B07D311F884
:10333000013B00F8013B11F8013B00F8013B11F0A3
:1033400003033FF475AF30B4043AC91AC3F1040C57
:1033500051F8044B022B19D0032B0BD0240A51F83F
:10336000043B1D0644EA050440F8044B1C46043A9D
:10337000F4D216E0240E51F8043B1D0244EA050481
:1033800040F8044B1C46043AF4D20AE0240C51F8ED
:10339000043B1D0444EA050440F8044B1C46043A6F
:1033A000F4D20432B1EB0C0130BC043AA0D3013AA0
:1033B00011F8013B00F8013BF9D20B7803704B7810
:1033C00043708B78837001BC704700BF08B50F4C09
:1033D000636B58030DD4636B59050FD4636B1A05E7
:1033E00011D4636BDB04F3D500F012F8636B580360
:1033F000F1D500F045FA636B5905EFD500F008F8F8
:10340000636B1A05EDD500F003F8EAE7008004408D
:1034100008B5FFF7DBFF00BF014B10221A80704791
:1034200000200540704700BF0B490A6848B108B545
:10343000EC461318ACF50050834204D20B601046E2
:1034400008BD1046704703F069FF0C234FF0FF32B0
:103450000360104608BD00BF602BFF1FFEE700BFE2
:10346000074BDA78802A01D00020704705490648CA
:10347000486400225A70DA78802AFCD00120704714
:1034800000E007400080044000002822074BDA7863
:10349000012A01D00020704760225A70DA78802A11
:1034A000FCD1034B034A5A640120704700E00740F7
:1034B000008004400000060203F002BC034B00221F
:1034C00010215A615A6018605961704700D003405A
:1034D000704700BF4FF0E02C2DE9F0414FF000683D
:1034E000CCF804814FF08058CCF804814FF000589C
:1034F000CCF804812F4A3049304C314D314E4FF0D9
:103500008048CCF80481282300204EF6FF7E09274E
:103510004FF00048CCF804814860C1F808E0CB6067
:103520004B61CB614B62CB624B63CB634B64D3602B
:103530005361D3615362D3625363D36353640F60A7
:103540006860C5F808E0EB606B612F606060C4F8EC
:1035500008E0E360636127605060C2F808E0D36070
:1035600053611760F16A41F40071F162716802F50C
:10357000803241F00071716047F6FF74082150609D
:1035800082B09460D3605361116001F0FFF8FFF7DF
:103590009FFF0D4C23680093009B132BFAD900F07A
:1035A0002BFD23680193019BB3F5967FF9D302B0FD
:1035B000BDE8F08100900B400080034000800B408C
:1035C0000090034000800440403CFF1F3F2818D873
:1035D00010B4124B53F8302092F8804234B10123DA
:1035E00081B982F800315DF8044B704703EBC003EA
:1035F0005B681A6859B142F003025DF8044B1A6027
:103600007047704782F880305DF8044B704722F0B5
:1036100002025DF8044B1A60704700BFB8B70000A3
:103620003F2820D81B4A02EBC00301295B680FD05A
:1036300004291DD052F83000002280F8802299B170
:10364000022922D003290DD14FF481721A607047EC
:1036500052F830004FF4A27280F880121A601A6893
:1036600022F020021A6070474FF480721A6070478F
:1036700052F830104FF4A272012081F880021A60D3
:103680001A6842F020021A60704740F203121A6072
:10369000704700BFB8B700002DE9F843044672B682
:1036A000214F4FF0E02293693D68D2F8042D62B6B5
:1036B000520102D5322B88BF01350CB9BDE8F88321
:1036C000DFF86890DFF86880A9EB03039B08A8FB8C
:1036D00003234FF47A7202FB05F505EB93054FF0D7
:1036E000E02672B6B1693A68D6F804CD62B6A9EBA5
:1036F00001039B08A8FB03031CF0806FC5EB930339
:103700004FF47A7002D0322988BF013200FB0233B5
:10371000B3F57A7F04D3013CD0D005F57A75E0E7A4
:1037200000F090FFDDE700BF403CFF1F1FBF02001D
:10373000176CC116431E042B16D872B60B4951F8EC
:10374000230078B130B40A4CB0F800C034F813202C
:10375000456841F82350A2EB0C0224F8132062B60E
:1037600030BC704762B6704700207047D43CFF1FE2
:10377000343DFF1F10B472B61A4A1B4C042312F8D2
:10378000011B090743F0010C05D554F8331069B14A
:1037900054F83C10C9B10433182BF0D162B6134B66
:1037A00000221A705DF8044B00F09CBC0F4904EB3A
:1037B000C302083050600A780D4844F83300013ADB
:1037C0000A7062B65DF8044B7047084A094904EB79
:1037D000CC0308305860137844F83C10013B137058
:1037E00062B6EFE71CBA00000000FF1F3E3DFF1F5E
:1037F00088004000C8004000421E042A0ED81C4B1E
:10380000400140F0100010B4034472B6194CA05CA3
:1038100003281DD8DFE800F01416031970470520AF
:10382000A05413F0080F088814BFC822882208315A
:1038300042EA004259601A6062B65DF8044B704774
:103840000320EDE708330220EAE708330420E7E726
:10385000094B53F8220038B1084B53F8220041605D
:1038600043F8221062B6E8E743F82210034BF7E76B
:103870000000FF1F2C3DFF1F043DFF1F183DFF1FD1
:103880002DE9F04FDFF810A3DFF810B385B03DE06D
:10389000B14D9E0805EBC607013A796813F008039D
:1038A000D4B2A1F1080040F0BA8055F836204FEAB2
:1038B000124C120C21F808CC00F0A98021F8063C2B
:1038C00041F8043CA54B53F82420002A00F0038261
:1038D000A34B53F82420506043F82400A14B33F845
:1038E0001420944423F814C000F0DCFB002800F0FE
:1038F000EB8117F0080F9C4B00F1080018BF5B46E6
:10390000786045F8363008238AF880309AF880309D
:103910005907DCB21DD5954B1B78BBB194490A7889
:1039200002F0FF032AB1013BDBB20B70002B00F069
:10393000488390490A7802F0FF032AB1013BDBB2C9
:103940000B70002B00F0ED8100F014FC04238AF8CA
:10395000803014F0080200F0CC819AF89020D3B2A5
:10396000120995D1DFF8F0919B0809EBC30459F8CF
:1039700033006468C0F3830009287CD00FD8013875
:10398000012808D87C4A158842F22100854200F0BF
:10399000FB8149F833B001238AF89430B3E70D284E
:1039A000F9D1D4E90007754D49F833B0724E744C23
:1039B000C9F8102083B240F2816CC9F818202A603F
:1039C00063454FF00102C6E90007227000F2FF8054
:1039D000B3F5D06F80F0CB82B3F5817F00F0268203
:1039E00040F2DE8040F2023293427BD107F07F0743
:1039F000052F00F20881020C40F00581614911F8A1
:103A0000273043F0020301F82730134670E017F027
:103A1000080F554B18BF5B4645F8363073E700F08A
:103A200061FB5949594A51F82430002B00F0578165
:103A3000586841F82400115D03F1080078600329FB
:103A400005D8DFE801F0120F1502042111551A887C
:103A500017F0080F14BFC823882343EA024345F830
:103A6000363050E702211155F1E703211155EEE7F9
:103A700005211155EBE7414D2A683AB34449404CC2
:103A80000F88444894F800E00678402F3B4628BF52
:103A90004023BEF1000F8EF0010E84F800E046F0E6
:103AA000020486F00106067009EBC400426014BFF0
:103AB000C820882040EA03401A44FB1A9BB249F808
:103AC00034000B80002B00F036812A602A4B1A88C4
:103AD000B2F5A06F7FF45FAF9A788AF89820002241
:103AE0005A7058E7B3F5A06F40F08D80002213465E
:103AF000B6F806C02748944528BF94466746027822
:103B0000402F28BF402742F0020E3E0409EBCE08AA
:103B100046F0C806C8F8043049F83E6000263B4429
:103B20002670BCEB070782F00106067040F0118199
:103B3000BCF13F0F4FF0010509D946F002060270B3
:103B400009EBC60225705360882349F836300123FB
:103B50008AF894301FE700BF0000FF1FD43CFF1F0E
:103B6000E83CFF1F343DFF1F88004000313DFF1F30
:103B7000323DFF1FE43EFF1FFC3CFF1FC83CFF1F00
:103B8000C53CFF1FC0200740043DFF1F2C3DFF1F09
:103B9000C63CFF1FC43CFF1F00200740C800400078
:103BA000802B00F08B81822B2DD107F07F07052F12
:103BB00029D8A74A00231380A64B13F827309F0764
:103BC00040F1FC8101231370A14B022290E742F2E5
:103BD000210C6345BBD01DD942F2212293420DD165
:103BE000BFB2002F82D19C4B1A689C4B1A609C4B31
:103BF000C0F3074000221870134679E742F22132E1
:103C000093423FF473AF0F238AF8C03001238AF840
:103C10009430C0E6B3F5086F00F04A81B3F5106F39
:103C2000F1D1904BC0F307400425187059F8353096
:103C30001A0606D40135182D0CD059F835301A065D
:103C4000F8D509EBC50301355868083800F04AFA81
:103C5000182DF2D1844A854B0292854A0192854EF5
:103C6000854ADFF848820394009200251C4656F8E6
:103C7000047B2FB138467F6800F034FA002FF9D169
:103C8000009BD8F8007043F8045B46F8045C00938E
:103C90002FB138467F6800F025FA002FF9D1029B3A
:103CA00048F8045B43F8045B0293019B23F8025B32
:103CB00001932378023B032B00F20981DFE813F024
:103CC0003F0104013F0104016C4A45F836001378B6
:103CD0000133137017E643F82400674BFCE5115DD0
:103CE000022926D07FF60FAE03291DD101231355DB
:103CF00009E6E0076ED4210621D4A20708D5604B5F
:103D000093F888200221D2B283F8882083F88010AB
:103D1000E30603D55A4B102283F8802005B0BDE896
:103D2000F08F00F06BFC0FE617F0080F14BF0323B1
:103D300002231355E7E53F2F98BF0022C5E6504BFD
:103D400080220D2183F8C01083F88020A207DFD5E0
:103D5000D5E746F002060270402F09EBC6003A464E
:103D600028BF402243601004134440F08800012122
:103D7000BA1A49F83600217055D02B60414B1A8091
:103D800001238AF8943006E692885AB93E4AE51D26
:103D900014F8011B02F8011FAC42F9D13B4A12682A
:103DA000862A3CD03A4C3B4825780278002D85F095
:103DB0000105257042F0020482F00102027009EB55
:103DC000C4024FF00000506014BFC822882249F896
:103DD0003420DEE52A4B2F482F49304C022583F84A
:103DE000945002702E480C602E4D48608C600D245B
:103DF000CD60FF200A618A6183F8C04001219F24C1
:103E000083F8880083F8800083F8982083F88C007A
:103E100083F8844083F8941005B0BDE8F08F224AFF
:103E20000F201070BEE73F2FA7D890E607F07F075E
:103E3000052F3FF6E8AE000C7FF4E5AE054A12F818
:103E4000273023F0020302F82730002213464FE602
:103E5000CC3CFF1FC0200740403CFF1FE03EFF1F3F
:103E6000DC3EFF1F313DFF1F183DFF1F2C3DFF1F94
:103E7000343DFF1FD43CFF1FE83CFF1F3E3DFF1FAA
:103E800000200740C63CFF1FD33EFF1FD43EFF1F4C
:103E9000C53CFF1FC43CFF1F0000FF1F88004000FF
:103EA000443CFF1F843CFF1F323DFF1F043DFF1FAA
:103EB000484B49491B780B700B4619E6464A0023CC
:103EC0001380454B022213E64FF001032370434B4E
:103ED000B34204F101047FF4CAAE414E039CDFF803
:103EE0001481404F00233370042518F8013B3E4AEB
:103EF000AB541B0725D445F0020145F003020435FD
:103F00000023182D49F8313049F83230EDD1374FC0
:103F100025783A7842F0020009EBC00C85F00106E2
:103F2000CCF80430002D4DD1882382F00102267098
:103F30003A7049F8303001238AF894302BE5257027
:103F4000C5E700F0AFF8002832D009EBC503083010
:103F5000586049F8357000F0A5F808B345F0010342
:103F600009EBC3020830506049F833B0C3E7204A78
:103F70005368002B3FF447AE000CBFB204E0136956
:103F80000C32002B3FF43FAE11888142F7D15188AB
:103F9000B942F4D1000A03280CBF1A781289A7E5A8
:103FA00033780133337045F0010349F83300A2E759
:103FB000337849F8350001333370CCE7064B0222E1
:103FC00096E500BE2670C82382F001063E7049F8CF
:103FD0003030BCE5313DFF1FCC3CFF1FE83CFF1FEC
:103FE0003E3DFF1F88004000C0200740C43CFF1F2B
:103FF000BCB900001CBA000010B500F02DFC002375
:10400000234A194642F8331002EBC3000133182B40
:104010004160F7D11F48204C436B43F48023436336
:10402000D4F8003800F5283000F5807043F0407374
:10403000C4F80038032480F84440184BA02480F8CA
:104040004040C2F3072483F89C40C2F30744120E99
:1040500083F8B0404FF0FF0C83F8B420012283F8BE
:1040600080C00F4C83F888C083F810C083F8942078
:1040700001704FF0E02183F884204FF0700C4FF472
:104080000012102384F835C0C1F80421037210BD5A
:104090000000FF1F0080044000D0004000200740C7
:1040A00000E400E072B60D490B68B3FA83F01D28F6
:1040B00010DC4FF00042C24023EA02030B6062B6FC
:1040C000074A00EBC000C10002EBC00000235350C0
:1040D0004360704762B60020704700BF642BFF1F2B
:1040E000D017FF1F0E4BC31AB3F5076F10D20D4A3E
:1040F000127872B972B60C4A0C49A2FB0323086805
:104100004FF000421B0922FA03F303430B6062B62F
:104110007047074A1278002AECD0FFF72BBB00BF8C
:10412000D017FF1F3E3DFF1F398EE338642BFF1F62
:10413000313DFF1F38B50C4B0C4D1B6829880446D8
:1041400043B1B1F5917F09D24B1C9BB2084A2B8039
:10415000545438BDB1F5917FF6D338BD04480022E0
:10416000984700210123F1E7883DFF1FC23EFF1F52
:10417000A03DFF1F70B50B4C257845B90A4E31683C
:104180000123237009B14B8813B90023237070BD3C
:104190009B000B800420FFF72FFB0023356023706A
:1041A000F5E700BF443DFF1F483DFF1FF8B5AB4E8C
:1041B00033680746002B60D01D885A8822F003011F
:1041C0001944043295428C686AD95A80A44B04F091
:1041D0000F05C4F303121A70A5F10803062B4FEA6A
:1041E000142612D9AB1E012BF0B261D9052D00F0B7
:1041F000B780042D00F09B816B1F022B40F2A2813F
:104200000F2D00F0EA800020F8BD06F00F06013601
:104210000FB1BE42F7D1082DC4F303336CD0092D82
:104220007CD00A2D00F08C800B2D00F091800C2D9D
:1042300000F0B2800D2D00F0C2800E2BE3D1894B2F
:10424000894A1B68E0211170002B00F09A81610CF3
:10425000C4F3064201F47E511143F6B2A1F50051B8
:1042600030469847250CEDB2240E804B804A1E70D4
:10427000804B15701C700120F8BD7F4B1B78002B04
:10428000C1D00520FFF756FA034630600028BAD0A7
:104290000588002D91D1FFF725FF35602846F8BD30
:1042A0001846FFF71FFF0520FFF744FA30608DE73F
:1042B000F1380E28A7D801A353F820F0FF440000DE
:1042C000F74300001D4400000742000007420000C1
:1042D00025450000074200002F440000074200006F
:1042E00041440000B5440000CF44000007420000F4
:1042F000E74400000D450000082B84D15F4B5A4A6B
:104300001B688021C4F307451170F6B2240E002B00
:10431000ABD02246294630469847A6E7092B7FF4C2
:1043200072AF220E504B00F01F8190211970544B38
:104330001B68C4F30745F6B2D4B2002BE9D194E769
:104340000A2B7FF460AF4F4B474A1B68A021D9E787
:104350000B2B7FF458AF4C4B434A1B68B021D1E77D
:10436000F02801D9F728A3D1FFF7E4FE474B404AD4
:1043700019884048464C11700D0A3B4A0570246864
:1043800000201880F0231370002C00F0E6804148D4
:104390000122A0470120F8BD0C2B7FF434AF3E4B27
:1043A000314A1B68C0211170F6B2C4F30745002BD7
:1043B0003FF45AAF29463046240E984755E70D2B57
:1043C0007FF421AF354B284A1B68D0211170F6B21B
:1043D000C4F30745002BEDD146E7F7283FF668AF59
:1043E000F02804D0294B1B88002B3FF40CAFFFF7BB
:1043F000A1FE0020F8BD2A4B1A68002A00F08F8029
:10440000600CC4F3064300F47E5018439047250C1B
:10441000EDB2154B240E1E70002626E7214B1B68BB
:10442000C4F30745002BF4D028469847F1E71E4B0C
:104430001B68002B00F0AA809847C4F30745E8E703
:104440001A4B1B68002BF7D1194B1B68002B66D049
:10445000FA209847C4F30745DBE700BF403DFF1F44
:104460009C3DFF1F683DFF1FC43EFF1F9D3DFF1F7A
:104470009E3DFF1F9F3DFF1F313DFF1F603DFF1F02
:10448000643DFF1F983DFF1F5C3DFF1FC23EFF1FA5
:10449000883DFF1FA03DFF1F6C3DFF1F503DFF1FCC
:1044A000743DFF1F783DFF1F543DFF1F7C3DFF1FE4
:1044B000703DFF1F3C4B1B68002BBDD13B4B1B6865
:1044C000002B2CD0FB209847C4F30745A1E7384BBD
:1044D0001B68002BB0D1354B1B6803B3FC209847F9
:1044E000C4F3074595E7334B1B68002BA4D12F4B32
:1044F0001B68A3B1FE209847C4F3074589E72E4BFC
:104500001B68C4F30745002B8ED182E72B4B1B6839
:10451000002B91D1254B1B680BB1FF209847C4F3AA
:10452000074576E7264B1B68002B85D1F7E7FFF799
:1045300001FEC4F30740FFF7FDFD200EFFF7FAFD73
:104540000020F8BDFFF7F6FDC4F30740FFF7F2FDCA
:10455000072D7FF40BAF200E06E71A4B1B68F3B153
:10456000194898470120F8BD80211970174B1B6826
:10457000F6B2C4F30745A3B129463046144698471E
:1045800073E6C4F30745F6B2240E6EE6074B1B68CC
:10459000002BC4D0F8209847C4F3074539E7012021
:1045A000F8BD1C4661E600BF583DFF1F703DFF1F70
:1045B000803DFF1F4C3DFF1F903DFF1F8C3DFF1FA7
:1045C000943DFF1F843DFF1FA03DFF1F603DFF1F67
:1045D000084B094A1B6810B554881BB11A885B88C0
:1045E000D31A1C440CB1204610BD00F02BF8204615
:1045F00010BD00BFC83EFF1F343DFF1F38B50E4B36
:104600001B7853B90D4C216841B103F0FF054B886D
:104610000B800320FFF7F0F8256038BDFFF742FD5F
:10462000014620B1BDE838400320FFF7E5B8044B50
:1046300001221A7038BD00BFCC3EFF1FD03EFF1FC5
:10464000E43EFF1F2DE9F843324E337863B1324F19
:104650003A784AB90122D9073A7043D49A0726D446
:1046600000225B073A7001D4BDE8F8832B4B1A682F
:10467000002AF9D0EFF30582002AF5D1EFF3108577
:1046800072B6186800283AD0254C2178002936D116
:1046900042691A6001232370002A37D0916105B95D
:1046A00062B600258368457798472570DCE7DFF818
:1046B0007C8098F80020002AD2D00025DFF8709086
:1046C0002B4659F82340236820461B69013598473B
:1046D00008B12369984798F80020EBB29A42F0D8C5
:1046E0003378BDE7FFF774FF68B90E4B1B780BB941
:1046F0003378B3E7337803F0FE033370AEE7002D71
:10470000B2D162B6B0E700F0A5F8EEE7064B1A604A
:10471000C5E700BF682BFF1FE53EFF1FE83EFF1FF8
:10472000F43EFF1FB8B90000F83EFF1F143FFF1F03
:10473000FC3EFF1F70B5EFF3108272B60C4C206880
:1047400080B10C4E00254369236073B19D6102B9AD
:1047500062B6836845779847EFF3108272B6206897
:104760000028F0D102B962B670BD3360EFE700BF38
:10477000F03EFF1FEC3EFF1FFFF7DCBF024A13684D
:1047800001331360704700BF403CFF1F2A4B2B4A88
:104790006020E1211870597013782948082B34D013
:1047A0000A2B20D00C2B274B0CBF35215D21122268
:1047B0008160C2609960DA60234B21491B78214AED
:1047C000CBB101230B621362204B1D491B781D4A9C
:1047D000012B13D9042B1BD884234B6253621C4B2F
:1047E00001221A707047174B392113228160C26071
:1047F0009960DA60E0E70B621362E5E780234B62C1
:104800005362134B01221A7070470E4B2121ECE7C3
:10481000082B06D885234B6253620D4B01221A7078
:104820007047102B94BF862387234B625362084B3B
:1048300001221A70704700BF00400740692BFF1F1C
:1048400000B0034000B00B40153FFF1F6A2BFF1F55
:10485000163FFF1F704700BF10B584B072B6FEF759
:10486000FFFD174A174951607020802310701370A4
:1048700013781B06FCD5D468FEF708FE62B6124B0F
:104880009C423CBF04EB8404640020460F4C01A909
:104890000A2200F01DF801A92046002311F8012B7F
:1048A00001333AB10A2B20F8022FF7D116232370D7
:1048B00004B010BD5B00DBB2237004B010BD00BFBC
:1048C0000000024000000741809698005C2CFF1F0A
:1048D00001F1FF3C70B56546002401E070460134EB
:1048E000B0FBF2FE02FB1E03092B03F130068ABF68
:1048F0003733F3B2DBB2904205F8013FEED2631CCE
:104900000022CA54C8187CB162461CF8015F10F836
:1049100001ED8CF800E0A1EB0C030232013B521ACE
:1049200023449A420570EFDB084670BD03460846F3
:10493000194602F0DBBC00BF0020704790F8A120B0
:1049400090F8A000101A704790F8A03090F8A120BD
:104950009A4205D95A1C034480F8A020187E70475B
:104960004FF0FF30704700BF90F8A03090F8A120C2
:104970009A4286BFC018007E4FF0FF30704700BFDC
:10498000704700BFB0F82E312BB190F82D31882B35
:1049900003D90123436000207047C218013380F817
:1049A0002D31012082F8A310704700BF38B5B0F850
:1049B0002E41A4B190F82D31C3F18904A24284BFE5
:1049C00001224260054698BF1446A330184422468F
:1049D000FEF728FC95F82D31234485F82D3120462B
:1049E00038BD00BF42690023A0F8A030C0F82C31C8
:1049F00010B4D2E900140A68C0F8343122430469C3
:104A0000C0F838310A60A370426990F83131184912
:104A1000134493F808C05B7B01EBCC0C1B02DCF861
:104A2000044003F4E06343F06403236090F8323100
:104A300013449C7CDB7D01EBC4011B024C681168B4
:104A400003F4E06343F06403236009685368194288
:104A500005D003692C225A70036904229A710369F4
:104A600020225A71036980229A705DF8044B7047C6
:104A7000B8B7000038B50369DA78D5B2D206044673
:104A800022D51022DA706B061DD515F0040567D00B
:104A90004249D4F8342100230B7084F82D31002AC8
:104AA00072D0904794F82D31002B6DD02369D0221D
:104AB0009A70236994F8A3201A712369012284F85B
:104AC0002C210222DA7038BD15F0400CDDD19A7924
:104AD00002F060016029D2B231D09A7812F010024F
:104AE00016D015F0010548D194F82C2194F82D1119
:104AF000914250D9511C224484F82C1192F8A320E1
:104B00001A712369D0229A7023690222DA70DAE7D7
:104B100084F830219A7942F020029A71236994F83E
:104B2000A1101A798729D2B2CBD81C480078002866
:104B3000C7D0481C214484F8A1000A76C1E702F0DE
:104B4000DF029A71D0F8383123B190F8A10084F8CF
:104B5000A0C0984723699A7812F01002D8D0C0E715
:104B6000236984F8A150C0229A700C4A236901215C
:104B7000117002221879DA70A5E7C0229A702369B1
:104B80001A790222DA709EE70122002384F82D218F
:104B900084F8A3308AE71D71B3E700BF173FFF1FFA
:104BA0002DE9F047374C0269236882B00093DDF8A5
:104BB0000080D378990618D5334E0546002102E0CF
:104BC000D3789B0611D523680193019BA3EB0803BF
:104BD0000F2BF5D969B1102BF2D0002090702B6902
:104BE00080229A7002B0BDE8F087012002B0BDE8D3
:104BF000F08795F831216B6913440521187AFEF787
:104C00000FFD6B6995F831211344012193F812A02F
:104C10005046FEF705FD09274FF4967900215046CE
:104C2000FEF7D4FC4B46013BFDD101215046FEF777
:104C3000CDFC4B46013BFDD1013FEFD1696995F8B1
:104C400031310B444FF41672187A5B7B06EBC000CF
:104C50001B02406803F4E06343F06403036095F8CB
:104C600032310B44997CDB7D06EBC1011B024968A4
:104C700003F4E06343F064030B60013AFDD10121CA
:104C80002A699DE7403CFF1FB8B70000F0B50369F3
:104C90001222DA700269937813F0200685B0044678
:104CA0000D4652D0B4239370324920690B680093AB
:104CB000009E05E00A680192019A921B042A3DD8E1
:104CC000C37813F02003F5D094F82D316BB34FF077
:104CD000000CE646022604EB0E0393F8A3300371A2
:104CE0000B680293029F206907E092060AD50A68C2
:104CF0000392039AD21B052A20D8C378DAB213F0A4
:104D00000203F2D0C6702369DA78D7B2D206184609
:104D100026D4BA0624D5FA0726D494F82D310CF1FE
:104D2000010C5FFA8CFE7345D5D8002015B12369BC
:104D300080229A70002384F82E3104E08370236966
:104D400080229A70042005B0F0BDFFF729FF28B13A
:104D5000236984F82F61B0229A70A5E70420F2E756
:104D600080229A700420E1E7BEF1000F0CBF022000
:104D70000320DDE7403CFF1F2DE9F04790469946B0
:104D800000220369A0F8A0201222DA7003699C783F
:104D900014F0200588B007468A4600F0A280B422AD
:104DA0009A70724E3B6932680092009A08E030684F
:104DB0000190019CA4EB020CBCF1040F00F289806D
:104DC000DC7814F02005F2D04FEA4A0242F00102EA
:104DD000D2B21A713368029302983A6906E03368D6
:104DE00003930399091A052900F28580D47814F0F9
:104DF0000205F4D04FF0020C82F803C03B69DC7866
:104E000014F011057FD1B8F1000F00F08780B8F1E0
:104E1000010F00F09080A0229A7039690B794FF051
:104E2000A80E33680493049805E032680592059A49
:104E3000121A052A6BD8CB7813F00203F5D081F84B
:104E400003C03969CB78DCB2DB0608460A4644D495
:104E5000A40642D508F1FF385FFA88F8B8F1010FCF
:104E600004D181F802E0396908460A46872D5CD9E9
:104E70000379B8F1010FD4D133680693069805E0A1
:104E8000316807910799091A052959D8D37813F081
:104E90000203F5D00223D3703A69D378D806D9B289
:104EA00058D48B0619D5B023872D93704FD83A6903
:104EB0007C19127922766B1CDDB200BF00BF00BFE7
:104EC000B9F1000F02D03B6980229A7087F8A15097
:104ED00003E09D703B6980229A70284608B0BDE8C7
:104EE000F087FFF75DFE0028F7D03B6987F82F5168
:104EF000B0229A7055E795703B69802228469A70D7
:104F000008B0BDE8F08780229A700025E5E78B7035
:104F10003B6980229A7087F8A150DEE7B9F1000F53
:104F200014BF8022A0229A70D7E77B1900791876E7
:104F30006C1CE5B29DE7A8229A703A6913799BE749
:104F400093703B6980229A7087F8A150C5E73B694E
:104F50001B79B2E710214FF49673D170013BFDD15C
:104F60003A69937803F0F7039370B6E7403CFF1F6C
:104F70000148FFF77FBD00BF742CFF1F0148FFF7FA
:104F800079BD00BFB02DFF1F0148FFF773BD00BF03
:104F9000EC2EFF1F0148FFF76DBD00BF2830FF1F3B
:104FA00008B52DED028BB0EE408A00F089FBF0EEE3
:104FB000408AB0EE480A00F0AFF868B1DFED127A2F
:104FC000B4EEE78AF1EE10FA0BDCDFED107AB4EE06
:104FD000E78AF1EE10FA0FD4B0EE680ABDEC028B4E
:104FE00008BDDFED0B8A02F099F9B0EE680ABDEC5E
:104FF000028B2223036008BD02F090F92223DFED2B
:10500000058A0360E8E700BF1772B142B5F1CFC26D
:105010000000807F0000000008B52DED048BB0EE8D
:10502000608AB0EE409A00F043FCB4EE488AF1EE9C
:1050300010FAF0EE408A0BD6B5EE409AF1EE10FA77
:1050400017D1B5EE408AF1EE10FA06D1F7EE008ADC
:10505000B0EE680ABDEC048B08BDB0EE480A00F063
:105060005BF80028F4D0B5EEC08AF1EE10FAEFD567
:1050700025E000F051F888B1F5EE408AF1EE10FA23
:10508000E6D1B0EE490A00F047F80028E0D0B0EED3
:10509000480A00F041F80028DAD010E0B0EE490AE2
:1050A00000F03AF80028E7D0B0EE480A00F034F8F3
:1050B0000028E1D0F4EE688AF1EE10FA04D602F08E
:1050C0002DF922230360C3E702F028F921230360AE
:1050D000BEE700BF08B52DED028BB0EE408A00F0B0
:1050E000E3FBB4EE488AF1EE10FA06D6DFED098A4A
:1050F000B4EEE88AF1EE10FA02D4BDEC028B08BDE2
:1051000002F00CF988EEA80ABDEC028B21230360A3
:1051100008BD00BF0000000082B08DED010A0198BB
:1051200020F00040B0F1FF4FACBF0020012002B0E2
:10513000704700BF10EE103A184A23F00043934224
:105140001BDDB3F1FF4F02DB30EE400A704700B5C4
:1051500083B0684600F0EEFE00F003000128DDEDAC
:10516000010A9DED000A0CD0022812D070B1012076
:1051700000F07EF903B05DF804FBDFED090A00F0F2
:10518000F5B800F075F9B1EE400AF3E700F0EEF87B
:10519000F0E700F0EBF8B1EE400AEBE7D80F493F3B
:1051A0000000000010EE103A194A23F00043934229
:1051B0001CDDB3F1FF4F02DB30EE400A704700B553
:1051C00083B0684600F0B6FE00F003000128DDED74
:1051D000010A9DED000A0ED0022813D070B100F034
:1051E000C5F8B1EE400A03B05DF804FBDFED090A33
:1051F000002000F03DB900F0B9F8F4E7012000F01C
:1052000037F9F0E7012000F033F9B1EE400AEAE7A0
:10521000D80F493F0000000010EE103A114A23F069
:105220000043934218DDB3F1FF4F02DB30EE400A3A
:10523000704700B583B0684600F07CFE400000F087
:105240000200DDED010A9DED000AC0F1010000F051
:1052500057F903B05DF804FBDFED030A012000F00D
:105260004FB900BFDA0F493F0000000030B52DED07
:10527000028B83B08DED010A019C24F00043B3F151
:10528000FF4F10DB324B002C93ED007AD3ED007A08
:1052900039DBF0EE406A87EE260A30EE270A03B0CB
:1052A000BDEC028B30BD2B4A93420FDD284A2A4BBE
:1052B00092ED000AD3ED007A30EE670A002CB8BFF9
:1052C000B1EE400A03B0BDEC028B30BDB3F1105F0C
:1052D00023DBB3F17E5F214D29DB01F0BDF9D5ED74
:1052E000007A20EE270A01F081F8194BD3ED007AFD
:1052F000D5ED006A95ED007A37EE000A86EE807AE9
:1053000037EEC70ADAE7DDED016A87EE260A30EEEE
:10531000670A03B0BDEC028B30BD0D4BDDED017AA9
:1053200093ED000A30EE270A20EE270AB7E795ED45
:10533000008A01F091F928EE400A01F057F895ED46
:10534000007A37EE007AF1EE407A87EE870AB5E709
:105350006431FF1FFFFFAF416831FF1F6C31FF1F3A
:10536000F0EE400AB0EE000AFFF756BE10EE103A1B
:1053700023F00043B3F1485F2CDAFDEEC07A17EE5C
:10538000903A002B60D020EE007ADFED317A9FED6D
:10539000315ADFED315A9FED316ADFED316AA7EE08
:1053A000275ADFED307AE7EE055AA7EE256AE7EED9
:1053B000067AE7EE276A67EE266A60EEC00AF6EE26
:1053C000007AE7EE260AB7EE000AD7EE270A30EE9B
:1053D000600A704720EE007ADFED1D7A9FED1D5ABE
:1053E000DFED1D5A9FED1D6ADFED1D6A1E4AA7EE17
:1053F000275A9342DFED1B7AE5EE075AA5EE876A3E
:10540000E6EE077AE7EE876A66EE876AD5DD174A29
:10541000934214DC03F17F4307EE903AB7EE006A43
:1054200036EE676A60EEC00AF6EE005AD7EE257ACD
:10543000E7EE260A77EEE07A36EE670A7047B6EEB8
:10544000076AF5EE027AEDE7B7EE000A704700BF93
:105450004ED747ADF6740F317CF293B4010DD037BF
:10546000ABAA2A3D610BB6BA9999993E0000483F14
:1054700010EE103A23F00043B3F1485F04DAFDEE7A
:10548000C07A17EE903A5BB360EE007A9FED157A22
:10549000DFED155A9FED156ADFED156AE7EE875AC5
:1054A0009FED147AA5EEA76A20EE275AE6EE276A4A
:1054B000A6EEA77A30B9DFED106AE7EE876AA6EEAE
:1054C000850A704727EE457AF6EE006AA0EEA67AC6
:1054D000DFED0A6AD7EE270AE5EE260A30EE600A0B
:1054E000704700BFD3C92E2F342FD7B21BEF3836E9
:1054F000010D50B98988083CABAA2ABEABAA2A3E46
:1055000008B510EE103A23F00042B2F1465FF0EE1B
:10551000407A0FDABDEEC07A17EE101AF9B9431CC3
:10552000134300F09F80012803D0BFEE007A87EE7E
:10553000270A08BD50498A4211DB9FED507ADFED02
:10554000506A002BBCBFF1EE600AF1EE407A77EEB4
:10555000677A36EEE07ADFED4B0A77EE277A67EE70
:10556000A76ADFED494ADFED495A9FED495A9FEDA1
:10557000496A414926EEA67A8A42E7EE245AA7EE06
:10558000056ADFED454A9FED455AE5EE874AA6EEEE
:10559000075ADFED435A9FED436AE4EE875AA5EEC2
:1055A000076ADFED414A9FED415AE5EE874AA6EED4
:1055B000075A9FED3F6ADFED3F5AA4EE876AE5EE9A
:1055C000075AB0EE467AA5EEA67A27EEA65AB0EEB6
:1055D000606AA7EE056ADFED384AE6EE260AE5EED8
:1055E000240A37EEA00A1FDA0128A2D0BFEE007A03
:1055F000C7EE006A314B10EE102A1A4006EE102A50
:1056000016EE902A76EE677A134000EE103AB7EE67
:10561000007A70EEE70AF0EE477AE6EE007AE0EE06
:10562000807AA7EEA60A08BD07EE100AB8EEC77A80
:1056300060EE006A30EE070A9B1786EE806A03F080
:105640000203C3F10103F0EE005A36EE606A06EE83
:10565000903A77EEC67AF8EEE66AA7EEE57A26EE9D
:10566000870A08BD00F0F8FFB7EE007AF0EE407A46
:1056700087EE270A08BD00BF40A12C3FDA0F493F43
:1056800068212233000000005FAE9BB745F4A338C9
:105690008453D9377AC09538C8261A3AB937813930
:1056A00016696B3B48DEBE3AA427B33C1F37113C5A
:1056B0008988083ED10D5D3DABAAAA3E00F0FFFFF0
:1056C00010EE103A23F00042B2F1FF4F56D84FEAE5
:1056D000D37100F095806248834200F38780002BED
:1056E000C0F287805F4B9A424BD95F4B9A4200F2DF
:1056F0009A805E4B5E4A03EB8103D3ED004A02EBD6
:105700008102C1F1010370EE644AD2ED007A5B1AA6
:1057100034EEE70ADFED576A9FED575ADFED575A2F
:105720009FED576A20EE007AA7EE265ADFED556A04
:10573000E5EE075AE5EE876AA6EE876AF0EE406A64
:10574000E6EE476A002B42D0B0EE007A20EE266AE1
:1057500037EE667AB7EE000AC6EE076A13F17D0FE0
:1057600077EEE67A77EEE47A30EE670A4FDB10EEFA
:10577000102A02EBC35300EE103A704730EE000AD5
:105780007047B2F1505F0AD2DFED3F7A70EE277AB0
:10579000B7EE007AF4EEC77AF1EE10FA5DDC60EE57
:1057A000007A9FED347ADFED345A9FED346ADFEDF5
:1057B000356AE7EE875A9FED327AA7EEA56AE7EEE3
:1057C000866AA7EEA67AF0EE406AE7EEC76AF0EEC8
:1057D000007A20EE266A76EEE76AB7EE007AC6EE29
:1057E000267A77EEC07A37EE670A7047002000F01D
:1057F00083BD264B9A427FF675AF002000F076BD40
:10580000DFED237A002918BFB0EE670A704710EE6B
:10581000102A643302EBC353DFED1E7A00EE103A18
:1058200020EE270A70471C4B9FED1C7ADFED1C6AA7
:1058300003EB8103D3ED007AE0EE077A9FED197A4E
:10584000FDEEE77AF0EE404A17EE903AF8EEE77A8E
:10585000E7EEE64A67EE877A5AE730EE070A7047C6
:105860001772B1421872B13E9115853FD0BA00004F
:10587000D8BA00004CBB31330EEADDB555B38A38D7
:10588000ABAA2A3E610B36BBCAF24971B5F1CF42D1
:10589000000000000000800DC8BA00003BAAB83F1D
:1058A0008071313FD1F71737B1EEC00A704700BFA2
:1058B0002DE9F0412DED028B82B0CDED010A8DED89
:1058C000000ADDE9004535F0004611D184F480047A
:1058D000640014F5000F40F21281DDED007A9DEDB9
:1058E000017A37EE870A02B0BDEC028BBDE8F08189
:1058F00024F00047B7F1FF4FEFDCB6F1FF4F00F3A4
:10590000F380002CC0F202814FF00008B6F1FF4F87
:1059100000F01781B6F17E5F00F02281B5F1804F73
:1059200000F00A81B5F17C5F9DED000A40F01D8119
:10593000002C80F2478100F08FFEB7F1FF4F00F09E
:105940002581002F00F01F81B7F17E5F00F01581E7
:10595000E20F013A58EA020300F03B81B6F19A4F98
:1059600040F35E819E4B9F4240F34F829D4B9F428E
:1059700000F35882F7EE007A30EE670A9FED9A6ADC
:10598000DFED9A5AF5EE007AA0EE676AF6EE006A4D
:10599000E6EE406A20EE007ADFED957A9FED956A9B
:1059A00027EE267A67EEC77AE0EE257AF0EE676A90
:1059B000E0EE066A16EE903A23F47F6323F00F03BD
:1059C00007EE103AA0EE467A06EE903A77EEC77AE6
:1059D00025F47F6525F00F059DED017A06EE105A3E
:1059E00067EE877A37EE466A07EE105AE6EE267AB9
:1059F00008F1FF3858EA020826EE877AB7EE008AE7
:105A000077EE876ABFEE006A16EE903A08BFB0EEF6
:105A1000468A002B23F0004240F3C581B2F1864F45
:105A200000F32E8200F01182B2F17C5F00F353820A
:105A30000022104623F47F6323F00F0306EE103A92
:105A4000DFED6D6A9FED6D3A9FED6D2ADFED6D3AEA
:105A50009FED6D4ADFED6D4A9FED6D5A36EE477A48
:105A6000F0EE002A77EEC77A26EE267ADFED696A35
:105A7000A7EEA67AB7EE000AF0EE476AE6EE036AF2
:105A800066EEA65AF0EE667AE5EE823AE6EE437AE4
:105A9000B0EE446AA3EEA56A77EE677AB0EE647A58
:105AA000A6EE257AB0EE456AA7EE256AB0EE667AD4
:105AB000A6EE657AE6EEA77A66EE875A37EE626A58
:105AC00085EE867A77EE677A77EEE67A30EE670AC9
:105AD00010EE103A1344B3F5000FC0F2A08100EEAF
