:1000000000000320D1010000C52E0000812E000059
:10001000812E0000812E0000812E0000812E000024
:10002000812E0000812E0000812E0000C52E0000D0
:10003000C52E0000812E0000F1400000F5400000B8
:10004000C52E0000C52E0000C52E0000C52E0000E4
:10005000C52E0000C52E0000C52E0000C52E0000D4
:10006000C52E0000C52E0000C52E0000C52E0000C4
:10007000C52E0000C52E0000C52E0000C52E0000B4
:10008000C52E0000C52E0000C52E0000C52E0000A4
:10009000C52E0000C52E0000C52E0000C52E000094
:1000A0008948000095480000C52E0000C52E0000BC
:1000B000C52E0000C52E0000C52E0000C52E000074
:1000C000C52E0000C52E0000C52E0000C52E000064
:1000D000C52E0000C52E0000C52E0000C52E000054
:1000E000C52E0000C52E0000C52E0000C52E000044
:1000F000C52E0000C52E0000C52E0000C52E000034
:10010000FD2B0000192C0000352C0000512C0000A4
:10011000C52E0000BD330000C52E0000C52E000016
:10012000C52E0000C52E0000C52E0000C52E000003
:10013000C52E0000C52E0000C52E0000C52E0000F3
:100140007D290000C52E0000C52E0000C52E000030
:10015000C52E0000C52E0000C52E0000C52E0000D3
:10016000C52E0000C52E0000A1480000C52E0000CD
:10017000C52E0000C52E0000C52E0000C52E0000B3
:10018000C52E0000C52E0000C52E0000C52E0000A3
:10019000C52E0000C52E0000C52E0000C52E000093
:1001A000C52E0000C52E0000C52E0000AD48000081
:1001B000C52E0000C52E0000C52E0000C52E000073
:1001C000C52E0000C52E0000C52E0000C52E000063
:1001D0005F4B4CF2205210B5DA814DF62812DA81CD
:1001E00000BF00BF02F072FE5A4B4FF030621A633C
:1001F000594A9A63594ADA634FF0E0234FF4700288
:10020000C3F8882D03F5E823554A1A60554B9A78B0
:10021000110703D59A7842F008029A70524B53485E
:10022000AA221A70524BDA1C121AC11E22F00302C3
:10023000994288BF00224F4902F04EFD4E4B4F4875
:10024000DA1C121AC11E22F00302994288BF002252
:10025000002106F021FB4A494A484FF4E87202F0B7
:100260003BFD494B494A802103F8011B9342FBD1D6
:100270004FF0E023434AC3F8082D454B8A221A70F9
:10028000A3F5805324225A70A0221A709A799207FB
:10029000FCD59A79D406FCD43E4A937903F00C033A
:1002A000082BFAD1304B60225A70DA78802AFCD1C0
:1002B000384B01221A715D225A719A799006FCD549
:1002C0009A795106FCD5234A33495164002191643F
:1002D000202119702F498B7903F00C030C2BFAD1D4
:1002E0002E4B53602E4A136913F4807303D153616C
:1002F0004FF4A85313614FF0E0232A4A5A610022B9
:100300009A6107221A61284AC3F8202D62B602F0CA
:1003100069FE234B5B69DA0705D5244802F056FED7
:10032000234B244ADA61244B1B785B0609D5204C09
:10033000204BE2699A4204D11C4802F047FE002398
:10034000E36102F0C9FD06F017FB02F0BDFCFEE719
:100350000020054000800440823F04000100002B83
:100360000300008500D0074000E00740401CFF1F4D
:100370007029FF1F34B700007033FF1F7029FF1F63
:10038000000000000012FF1F00E400E064E400E051
:10039000005006400040064000000602C010070062
:1003A00000D003401FBF0200000020205F4C7E6A87
:1003B00000E00340A5C3945A00F00740FFFFFFFF91
:1003C000FFFFFFFFFFFFFFFFFFFFFFFFFFFFFFFF3D
:1003D000FFFFFFFFFFFFFFFFFFFFFFFFFFFFFFFF2D
:1003E000FFFFFFFFFFFFFFFFFFFFFFFFFFFFFFFF1D
:1003F000FFFFFFFFFFFFFFFFFFFFFFFFFFFFFFFF0D
:10040000FFFFFFFFFFFFFFFFFFFFFFFFDEF9FFFF23
:100410000548064B1B1AD90F01EBA301491002D066
:10042000034B03B1184770477029FF1F7029FF1F46
:100430000000000008B5054B1BB105490548AFF3A6
:100440000080BDE80840FFF7E3BF00BF00000000E8
:100450007029FF1F2CB70000F8B543692DED0E8BF6
:100460000446032B00F26982DFE813F0E50108017E
:100470002200040090ED018A9FED9D0A28EE000AFB
:1004800004F064FA94ED027A38EE078AF7EE007A07
:10049000B4EEE78AF1EE10FAA8BF38EE678AF0EE04
:1004A000408A84ED018AB0EE680ABDEC0E8BF8BD7F
:1004B00090ED019AD0ED029AF6EE007AB4EEE79A4A
:1004C000F1EE10FAF1EE007A4CBFFFEE008AF0EE8A
:1004D000088AF5EEC09A4CBFE9EE278AE9EE678AF2
:1004E000F1EE10FA40F3B880B3EE00BA69EE8BBAC1
:1004F000B2EE00AA39EE6B0A04F0D4FDF0EE407AB9
:10050000FDEEE77A39EE2B0A17EE905A04F012FE50
:10051000FDEEC07A29EE8AAA17EE907ABD42DFED91
:1005200077AA3BDCD4ED03CA9FED75CA714EB0EEDD
:100530006ADA013712E007EE103AD1ED007AB8EE30
:10054000C70A91ED017A38EE408A37EE677A0135B5
:10055000E8EE077ABD42EAEE27AA1FD007EE905ACE
:10056000F8EEE77AB0EE4B8A79EE677AA7EEAC8ABE
:1005700028EE0C8AB0EE480A04F0DCFDFDEEC07AED
:1005800017EE903AB3F5006F06EB8301D3D3013534
:10059000F0EE4D7ABD42EAEE27AADFD1B6EE00BA00
:1005A00039EE4BBA7AEEA8AA3BEE6B0A04F07AFD5C
:1005B000F0EE407AFDEEE77A3BEE2B0A17EE905A0A
:1005C00004F0B8FDFDEEC07ADFED4C8A17EE907AAC
:1005D000BD42B1EE4AAA3DDCD4ED03CA9FED48CA44
:1005E000444EB0EE68DA0137F3EE00BA12E007EEDF
:1005F000103AD1ED007AB8EEC70A91ED017A38EEE3
:10060000408A37EE677A0135E8EE077ABD42EAEEB6
:10061000278A1FD007EE905AF8EEE77AB0EE6B8A81
:100620007BEE677AA7EEAC8A28EE0C8AB0EE480A19
:1006300004F080FDFDEEC07A17EE903AB3F5006F3E
:1006400006EB8301D3D30135F0EE4D7ABD42EAEEDD
:10065000278ADFD178EEAA8A39EE299AF7EE007A56
:10066000B4EEE79AF1EE10FAA8BF39EE679AB0EE51
:10067000680A84ED019ABDEC0E8BF8BD90ED019AED
:1006800090ED048AD0ED029AB4EEC89AF1EE10FA19
:10069000F7EE00BAFFEE008AF5EEC09A48BFF0EE22
:1006A0006B8AF1EE10FAD7DDB3EE00AA29EE8ACA02
:1006B0009FED12EA39EE4C0A04F0F4FCF0EE407AB9
:1006C000FDEEE77A39EE0C0A17EE905A04F032FD8F
:1006D000FDEEC07A17EE907ABD424FDC94ED03BA7E
:1006E000DFED07AA044EF0EE4ECA013726E000BF48
:1006F000DB0FC9402C6F0000308F000000000000AD
:100700000000804207EE103AD1ED007AB8EEC70A39
:1007100091ED017A7DEEC0DA37EE677AB5EEC0DA98
:10072000EDEE877A0135F1EE10FAA8BF77EEEB7A9D
:10073000BD4277EEA77A3EEE27EA1FD007EE905A29
:10074000B8EEE7DA39EE4DDA2DEE0BDA7DEE0ADAA5
:100750006DEEAADAB0EE6D0A04F0ECFCFDEEC07AA4
:1007600017EE903AB3F5006F06EB8301CAD301355B
:10077000F0EE6C7ABD423EEE27EADFD179EE48AA70
:1007800038EE8EEA3AEECC0A04F08CFCF0EE407AB9
:10079000FDEEE77A3AEE8C0A17EE905A04F0CAFCA6
:1007A000FDEEC07A17EE907ABD4200F3C38094ED5F
:1007B00003CA5FED2E8A5FED2EBA6A4E0137B3EEA3
:1007C00000BAF8EE00CAB7EE00DA07EE905AB8EEBB
:1007D000E78A01353AEEC88A28EE0C8A78EE0BDA01
:1007E0006DEEABDAB0EE6D0A04F0A4FCFDEEC07A5B
:1007F00017EE903AB3F5006F06EB830116D207EEC1
:10080000103AD1ED007AB8EEC70A91ED017A7DEE8B
:10081000C0DA37EE677AB5EEC08AEDEE877AF1EE90
:1008200010FAA8BF77EECD7AE7EEAC8ABD42CCD104
:100830007EEE288A10E790ED02CAD0ED019AB5EE5F
:10084000C0CAF0EE007AFFEE008AF1EE10FAE9EE8F
:10085000A78A5ADDF3EE00AAB0EE690AACEE6A0A86
:1008600004F020FCF0EE407AFDEEE77AB0EE690A83
:10087000ACEE2A0A17EE905A04F05CFCFDEEC07A4A
:1008800017EE907ABD4252DCD4ED03BA9FED36AA42
:100890009FED36BA334E0137F8EE00CAB7EE00DAF4
:1008A00007EE905AB8EEE78A013539EEC88A28EE8D
:1008B0002B8A38EE2A9A29EE0B9AB0EE490A04F0F8
:1008C00039FCFDEEC07A17EE903AB3F5006F06EBF7
:1008D000830116D207EE103AD1ED007AB8EEC70ABE
:1008E00091ED017A39EE409A37EE677AB5EEC08A1B
:1008F000E9EE077AF1EE10FAA8BF77EECD7AA7EE0F
:10090000ACAABD42CCD178EE8A8A79EE8C9AF7EE09
:10091000007AF4EEE79AF1EE10FAA8BF79EEE79AC2
:10092000B0EE680AC4ED019ABDEC0E8BF8BD9FEDE8
:100930000EAAE8E7DFED0C8A7AE7D0ED017AD0ED78
:10094000026ADFED098A77EEA67AB7EE007AF4EE56
:10095000C77AF1EE10FAA8BF77EEC77AC0ED017A38
:10096000A1E500BF308F00000000000000008042C1
:1009700038B5B5EEC00AF1EE10FA2DED068B04463F
:10098000B0EE408A0D4615DDDFEDB47AB4EEE70A2D
:10099000F1EE10FA0CD59FEDB27ADFEDB26A20EEDF
:1009A000077AF0EE407A86EE87AAF0EE408A07E0FA
:1009B00000F14781DFEDAC7A9FEDACAAF0EE678ADB
:1009C00000236361C4ED007AB0EE4A0A84ED2C8AFC
:1009D000C4ED068A03F070FFDFEDA57ADFEDA59A7E
:1009E000B7EE009A68EEA77A39EE400A84ED0A0A5B
:1009F00089EEA70A03F060FFDFED9F7A39EE400A27
:100A000068EEA77A84ED0B0A89EEA70A03F054FF7B
:100A10009A4B6362002339EE400AB5EEC08AF1EECC
:100A200010FA84ED0C0A40F3F780DFED8C7AB4EE17
:100A3000E78AF1EE10FA00F18F80914AE363914B5F
:100A4000626384ED109AA363DFED847AB4EEE78AE3
:100A5000F1EE10FA58BF04F16C0100F19E80DFED59
:100A60007F7AB4EEE78AF1EE10FA00F1E580DFED6F
:100A70007E9AF0EE69AAA1660121616604F18801FF
:100A8000C4F88410804B814AE2660021AE46A3651B
:100A9000C4F888206367C4F88010BEE80F0004F132
:100AA0008C0CC4ED159AC4ED1CAAACE80F00BEE88E
:100AB0000F00ACE80F00DEF80030CCF80030B0EEEC
:100AC0004A0A94ED2AAA03F0F7FEB7EE009A39EE2F
:100AD000400AB5EEC0AAF1EE10FA84ED0A0A09D96F
:100AE0002AEE28AA9FED630A80EE0A0A03F0E4FECC
:100AF00039EE409ADFED667A9FED5E0A84ED0B9A3F
:100B000068EEA77A80EE270A03F0D6FE0023636220
:100B1000D4ED276A86EEA97AF7EE007A37EEC00A9E
:100B2000B5EEC07AF1EE10FA84ED0C0A3CDBF6EE7D
:100B3000007AB4EEE77AF1EE10FA67DCB5EEC07A2F
:100B4000F1EE10FA30DDDFED536AE7EE267AFCEEC7
:100B5000E77A17EE903A28E09FED4F0ADFED4F7AE3
:100B60009FED4F7A84ED0D8A28EE000AB4EEE70A75
:100B7000F1EE10FA58BFB0EE670A20EE077A38EEB1
:100B8000080A87EE000A03F097FE0023E36339EEBC
:100B9000400A84ED109A84ED0E0AF0EE489AF0EEC9
:100BA00048AA04F16C0166E70023D4ED297A236694
:100BB00087EEAA7AB5EEC07AF1EE10FA14DBF6EE03
:100BC000007AB4EEE77AF1EE10FA22DCB5EEC07AE4
:100BD000F1EE10FA08DDDFED2F6AE7EE267AFCEE83
:100BE000E77A17EE903A00E00023F6EE007AE8EE9E
:100BF000277AE367FDEEE77A17EE903A022BB8BF4B
:100C00000223C4F8B430BDEC068B38BD4FF000436E
:100C1000CBE74FF00043E8E7DFED139A194AC4ED44
:100C20000D9AA263E36384ED109A3FF70DAF04F1D0
:100C30006C017FF71EAF12E7DFED0B9AF0EE48AACA
:100C400019E7DFED077A9FED077A60EE277AF0EE7D
:100C5000408A87EE27AADFED047AB1E68096184B2A
:100C60000AD7233C549F8CBF00803B4749FF15BBEC
:100C7000CDCCCC3D8E5D93C0CDCC4C3E3333333F99
:100C800000803B47B8BF813DEC0A073F979B28ADEA
:100C90000AD7A33D0000804F6666E63E00007A4416
:100CA000DB0FC9C02DE9F04F744D754C2E68754FA0
:100CB000DFF828922DED028B40F2EE288DB003F084
:100CC0007DF92378002B00F0CA803B78DA0740F1E9
:100CD000C6802B68D9F800209B1A0E2B40F2BF80EB
:100CE00069486A4C6A4D9FED6B8A01F049F94021D1
:100CF000654801F079F9684BA36100236361636380
:100D00004FF07A53E3610FCD0DF10C09CDF804904B
:100D1000CC46CB46CA46A9E80F0095E8070089E80B
:100D20000700BBE80F009FED5D0A9FED5D6ADFEDF8
:100D30005D6A84ED000A04F1540884ED026AC4ED92
:100D4000036A84ED1C0A84ED080A84ED0E0AA8E803
:100D50000F0099E8070088E8070045F22B626267F8
:100D600005F10C070022C4F890200FCFAAE80F006D
:100D700097E80700DFED4C0A9FED4C1ADFED4C1AA7
:100D800084ED0A6A89E8070005F1280E42F615325B
:100D90006546C4ED0B6AC4ED130A84ED141AC4ED64
:100DA000111A84ED420A84ED1F0A84ED250A84EDB0
:100DB0002C0A84ED128A84ED330AC4F80C210FCD7D
:100DC00004F1EC060FC699E8070086E80700BEE8C4
:100DD0000F00DFED387A9FED387A9FED382A9FEDCE
:100DE000383ADFED383A9FED384ADFED384A9FED6B
:100DF000385ADFED385A84ED342AF7EE002AC4ED74
:100E0000362A84ED213AC4ED223A84ED294AC4ED14
:100E10002A4A84ED305AC4ED315AC4ED357A84ED56
:100E20002B7A84ED327AC4ED287AC4ED2F7AACE8BF
:100E30000F00BEE80F00ACE80F00DEF80030CCF881
:100E4000003003A904F58A70FFF792FD22480C21B7
:100E50000DB0BDEC028BBDE8F04F01F06FBB2B680D
:100E600022789B1B32B1B3F5FA6F3FF639AF03F02E
:100E7000A5F824E74345FAD932E700BF102FFF1F3A
:100E80000130FF1F2830FF1FC42DFF1F441CFF1F10
:100E900034AF000080CAA23B00005C43A6552C473B
:100EA0003167A33BE688484300F0633A00E0DA3953
:100EB000CDCC0C3F0000000000AD083BF8C38C3DDA
:100EC0003167233BE688C843005DCB3B0030733974
:100ED00040BB4A3C00B0F8390002FF1F2C30FF1F16
:100EE0002DE9F041124DDFF85480124E124F0024CC
:100EF000C8F80040284601342DB105F081FD0146B7
:100F0000284602F053FF384601F0D0FE4FF47A60D5
:100F100002F04AF9042C08D056F8045FC8F80040E3
:100F200028460134002DE8D1EDE7BDE8F08100BF8F
:100F3000586E000090AF00001C1EFF1FD02DFF1F39
:100F40002DE9F04704462DED108B11B3012903D094
:100F5000BDEC108BBDE8F087D0F8F450DFEDD37A0C
:100F6000D0F8FC309668D2F80C9007EE105AB8EE24
:100F7000470AD2E9007820EE270A00F1980A042BEC
:100F800000F28884DFE813F01D042C0444045304A9
:100F9000CD0192E8CA00BE42DADAD0F89450DFED13
:100FA000C4AA9FEDC4AADFEDC4BA01EB860903EB26
:100FB0008608F7EE009A002D40F019810123E361C5
:100FC000A363D4ED0F6A94ED117AF7EE087A77EE09
:100FD000E67AE7EE276AF4EEE96AF1EE10FAC0F27B
:100FE0009A810223C4ED0F9AF7EE006AA36394ED91
:100FF0001E7A94ED1D6AD4ED147AD4ED1FCA36EE34
:10100000476A37EEA70AA6EE267AB4EECA7AF1EE60
:1010100010FA00F17781DFEDA96A67EEA67AB4EEE7
:10102000E77AF1EE10FAD4BFDFEDA57A9FEDA47A4E
:1010300067EE877A87EE800A03F03EFCF5EEC0CAC1
:1010400079EEC08AF1EE10FAC4ED158A00F15D81E7
:10105000DFED9C7AF4EEE7CAF1EE10FA00F3588166
:10106000F1EE007A6CEEA7CA2046C4ED16CAC4EDB4
:10107000179AFFF7F1F994ED1B8AB6EE00CAF0EE6D
:10108000486AE0EE4C6AF0EE40FAB1EE40BAA6EEE5
:10109000EC0A03F095FC94ED18FAB0EE409AB0EE2D
:1010A0004F0A03F08DFC39EE409AA8EE89FAB0EEB3
:1010B0004F0A03F085FCD4ED19EAB0EE40EAB0EE39
:1010C0006E0A03F07DFC7EEE406AE8EEA6EAB0EE22
:1010D0006E0A03F075FC94ED1A9AF0EE40DAB0EE69
:1010E000490A03F06DFC7DEEC06AA8EEA69AB0EE48
:1010F000490A03F065FCB0EE40DAB0EE480A03F0AE
:101100005FFC7DEE406AB0EE6F0AA8EEA68AF0EEB4
:10111000486AEBEE0C6AA6EEEC0A03F051FC30EEE6
:101120004E0AA8EE80FAB0EE4F0A84ED18FA03F0EA
:1011300047FC30EE6D0AE8EE80EAB0EE6E0AC4EDD0
:1011400019EA03F03DFC30EE4D0AA8EE809AB0EEAD
:10115000490A84ED1A9A03F033FCB0EE409AB0EEDF
:10116000480A03F02DFC39EE400AF0EE487AE8EE2A
:10117000807AE369013BC4ED1B7A032B00F2818383
:10118000DFE803F04D61460294ED087AD4ED0C6A75
:10119000A7EE667AB4EEEA7AF1EE10FA40F1BE807C
:1011A000DFED496A0023B0EE667AC4ED086AE361B8
:1011B00067EE877AD4ED226A99ED007AD4F8903000
:1011C000A6EEA77A013501369D42A8BF0025A9ECFD
:1011D000017A98ED007AA6EEA77AB742A8EC017AD8
:1011E000C4F894503FF4B4AE002D3FF4E7AEA36BC7
:1011F000013B032B00F24A8301A252F823F000BF07
:10120000C30F0000D1120000A31200007B120000E7
:1012100094ED097A84ED087A67EE877ACAE794ED4F
:10122000087A94ED0A6AF7EE086A76EEC76AA6EEC7
:10123000267AB4EEE97AF1EE10FAEBDB0223C4ED84
:10124000089AE361B6E794ED087AD4ED096AD4ED23
:101250000B5A36EEC76AA5EE867A37EE666AB0EEAE
:10126000C66AB4EEEA6AF1EE10FA57D50323B0EE7F
:10127000667AC4ED086AE3619AE7D4ED0F6AD4EDAB
:10128000137AE6EEE76AF4EEEA6AF1EE10FA42D576
:10129000DFED0D7A0023F0EE676AC4ED0F7AA363E9
:1012A000A5E6D4ED106AC4ED0F6AA0E60000802F19
:1012B00017B7D1386F12833A2FE3CDBB6666E63E8F
:1012C000DB0FC9C06666863F000000006666864088
:1012D000D4ED0F6AD4ED107A94ED126A37EEE67A07
:1012E000E6EE076A36EEE77AB0EEC77AB4EEEA7A4F
:1012F000F1EE10FA0FD50323F0EE676AC4ED0F7A12
:10130000A36374E6F0EE6B7A94E65FED11CAABE688
:101310005FED12CAA8E6C4ED0F6A68E684ED087AAC
:1013200046E790ED3C8AF7EE007A38EE278AF6EE33
:10133000007A28EE278AD4F8F830ED18C4F8F45073
:1013400025D3D4F8001111B30B68E14A9FEDE16A8F
:101350001A440A6082EAD23342F0010202FB03F32C
:1013600083EAD31243F03D0101FB0232534083EA8A
:10137000933307EE903AF8EE677AF0EE006A67EE84
:10138000867ABFEE007AA7EEA67A84ED3C7AD4F88E
:101390001051DFEDD07AD4F8183107EE105AB8EEBC
:1013A000470A60EE277A042B00F26882DFE813F028
:1013B0000202F401ED01DF01050094ED430AD4F8C7
:1013C0001431ED18C4F8105125D3D4F81C1111B301
:1013D0000B68BF4A9FEDBF6A1A440A6082EAD233A3
:1013E00042F0010202FB03F383EAD31243F03D0112
:1013F00001FB0232534083EA933307EE903AF8EE52
:10140000677AF0EE006A67EE867ABFEE007AA7EEA2
:10141000A67A84ED437A94ED4E7ADFEDAF7AD4ED7F
:10142000498A20EE070A80EE270A03F043FB94ED79
:10143000267ADFEDB46A28EE800AC0EE077AF4EE71
:10144000E67AF1EE10FA00F109829FEDA46AF4EE5B
:10145000C67AF1EE10FA00F30682F4EEE67AF1EEC7
:1014600010FAC4BFF7EE006A86EEA77AC4ED287AB8
:10147000D8BFB0EE667A94ED4C0A84ED297A28EE56
:10148000000A94ED4A8A03F015FBDFED956AD4ED6E
:10149000337A28EE000A37EEA77AB4EEE60AF1EEC8
:1014A00010FA94ED4B8A00F1D381DFED8E6A67EE7E
:1014B000A67AB4EEE70AF1EE10FAD5BFDFED8A7A2C
:1014C000DFED896A20EE270A27EEA60A80EE070ADA
:1014D00003F0F2F9F7EE007A37EEC00AB5EEC08AF3
:1014E000F1EE10FA84ED340A00F1B581DFED7F7A78
:1014F000B4EEE78AF1EE10FA00F3BA81F1EE007A69
:1015000028EE278A4FF07E534E4584ED358AC4F885
:10151000D830BFF61DADDFED76AA9FED7ABAD4F8CC
:10152000505107EB860708EB860815B90123C4F86C
:10153000B4305046FEF790FF94ED3A8A94ED35EAC8
:10154000D4ED36DAF6EE00EAF0EE487AE0EE6E7AA6
:10155000B0EE40DAB1EE40FAAEEE670A2DEE800A48
:1015600003F02EFAD4ED379AF0EE408AB0EE690A15
:1015700003F026FA94ED34AA78EEC08AEAEE289AAF
:10158000B0EE690A03F01CFA94ED389AF0EE40CA06
:10159000B0EE490A03F014FA3CEEC07AAAEE079ABC
:1015A000B0EE490A03F00CFAD4ED398AB0EE40CA25
:1015B000B0EE680A03F004FA3CEE407AEAEE078ADD
:1015C000B0EE680A03F0FCF9F0EE40BAB0EE480A5B
:1015D00003F0F6F93BEEC07AAAEE078AB0EE487A3D
:1015E000AFEE2E7AA7EE4EDA2DEE2D0A03F0E8F9D3
:1015F00030EE6C0AE0EE0A9AB0EE690AC4ED379A52
:1016000003F0DEF930EE4C0AA0EE0A9AB0EE490A79
:1016100084ED389A03F0D4F930EE6B0AE0EE0A8AD2
:10162000B0EE680AC4ED398A03F0CAF9F0EE408AD8
:10163000B0EE480A03F0C4F938EEC00AF0EE487A7A
:10164000E0EE0A7AD4F8B430013BC4ED3A7A032BC9
:1016500000F21181DFE803F07458350294ED2E7A20
:10166000D4ED326AA7EE667AB4EEEA7AF1EE10FAB9
:1016700040F1EB800023B0EE4B7A84ED2EBAC4F833
:10168000B43067EE877AD4ED516A97ED007AD4F8DA
:101690004C31A6EEA77A013501369D42A8BF002540
:1016A000A7EC017A98ED007AA6EEA77AB145A8ECEE
:1016B000017AC4F850517FF438AFBDEC108BBDE80F
:1016C000F08794ED2F7A84ED2E7A67EE877ADAE749
:1016D000F5792B6D0000802F0000964448E1FA3E1A
:1016E0006F12833A6666E63EDB0FC9C06666863FC8
:1016F00017B7D138DB0FC9402FE3CDBBBC9C0240EC
:10170000666686400000000094ED2E7A94ED2F6A04
:10171000D4ED315A76EE476AA5EEA67A77EE466AA0
:10172000F0EEE66AF4EEEA6AF1EE10FA40F18D802E
:101730000323B0EE467A84ED2E6AC4F8B430A0E7F5
:1017400094ED2E7AD4ED305AF7EE086A76EEC76A39
:10175000B7EE006AA5EEA67AB4EEC67AF1EE10FAFC
:10176000B1DB022384ED2E6AC4F8B4308BE7B6EE09
:10177000007AF4EEC77AB7EE000AFFEE007AF1EED7
:1017800010FA58BFB0EE670A19E6B0EE007ABFEE65
:10179000000AA7EE870A12E6B6EE007AF4EEC77AE0
:1017A000F1EE10FAB1EE007AF1D4B0EE080AA7EE2D
:1017B000C70A04E61FED310A27EE800A03F0C6F8D7
:1017C000FDE55FED347A20EE270A03F0BFF8F7EE6F
:1017D000007A30EE270AF6EE007A20EE278AAAE594
:1017E000B6EE008AB4EEC80AF1EE10FAB1EE007A55
:1017F0004BBFFFEE007AF0EE087AE0EE077AE0EEFB
:10180000477AB7EE007A77EE877A27EE888A92E5F4
:10181000B0EE007AFFEE007AE0EE077AF7EE006AAB
:1018200077EEA67AB6EE007A27EE878A83E5B6EEE3
:10183000007A5FED4C7AB4EEC70AB7EE008AF1EE9B
:1018400010FA58BFB0EE678A75E584ED2E7A18E776
:101850001FED570A3AE61FED558A53E6B0EE667A59
:10186000C4ED286A07E61FED5B7A84ED286A02E67C
:101870001FED5D8A46E667EE8B7A04E71FED5F0A8F
:101880009DE51FED607A67EE877A93E45FED636A0A
:10189000FFF7ADBBB6EE008A4DE500BF2DE9F04F76
:1018A0002DED048B87B0054600F0BAFE002800F04D
:1018B000D380044600F0B4FE06462046002E00F019
:1018C0008580B24FDFF8CC924FF400720021384689
:1018D00004F0E2FF4FF400720021484604F0DCFF00
:1018E000AB69196800228023CDE90279CDE9042390
:1018F000002972D1DFF8B0A29AED078AB84607F541
:1019000000775046FEF7A8FD98ED007AD9ED007AF1
:10191000A0EE087AE0EE087AA8EC017A4745E9ECF7
:10192000017AEED1994A9FED9A6A9A48DFF87CE2F3
:10193000BFEE007AF7EE006A06F1020CA11C29E066
:10194000F4EEE67AF1EE10FA7FDC67EE867AFDEED1
:10195000E77A17EE903A1BB2F0EC017A21F8023FD9
:10196000F4EE677AF1EE10FA74D6F4EEC77AF1EE7F
:1019700010FA65DBF4EEE67AF1EE10FA62DC67EE5F
:10198000867AFDEEE77A17EE903A1BB297422CF872
:10199000023F0DD0F2EC017AF4EE677AF1EE10FA24
:1019A00056D6F4EEC77AF1EE10FAC9DA7346D3E7E9
:1019B00000222146284600F0B3FE01223146284687
:1019C00000F0AEFE204600F081FE304607B0BDECD0
:1019D000048BBDE8F04F00F079BE012941D1DFF85A
:1019E000C8B1DFED6D9ADBF874309FED6C9A9BED1A
:1019F0001B8ADBF878A0009307EE903AF8EEE78AAE
:101A0000B84607F50077BAF1000F38D0DBED1A7A47
:101A1000DBF83C2068EEA77AFDEEE77A17EE903A05
:101A2000534500F0AB805E480192FEF715FD019A28
:101A3000013A032A00F2A780DFE802F034607D8AD1
:101A40007346A3E747F6FF73A0E747F6FF7383E704
:101A5000002381E7002399E707B0BDEC048BBDE8C4
:101A6000F08F5048023902AA07F50077FFF768FAAD
:101A700058E70022B845CBF878203FF453AFDBEDB0
:101A80001A7A68EEA77A0122FDEEE77ACBF83C20BD
:101A900017EE90AABAF1000F54D04148FEF7DCFCD3
:101AA0004FF0000ADBED107A9BED126AB7EE087A70
:101AB00037EE677AF7EE006AE6EE077AF4EEE67A3A
:101AC000F1EE10FA39DB0222CBED106ACBF83C20A4
:101AD00098ED007AD9ED007A009BA8EE007A0AF121
:101AE000010A9A45E8EE007AA8EC017AE9EC017A5D
:101AF000BFDAB845CBF878A085D113E7DBED107AD3
:101B00009BED117A9BED136A77EE676AE6EE267A13
:101B100077EEC76AF0EEE66AF4EEE96AF1EE10FAE3
:101B200029D50322F0EE477A8BED107ACBF83C20D2
:101B300020EE270ACCE7DBED117ACBED107A20EE10
:101B4000270AC5E704221648CBF83C20FEF784FCA0
:101B5000DBED107A9BED147AE7EEC77AF4EEE97AC2
:101B6000F1EE10FA07D50022F0EE497A8BED109ACB
:101B7000CBF83C20DCE7CBED107AD9E7002AE1D1A5
:101B80000748FEF769FC20EE090AA1E7882BFF1F32
:101B900000FEFF468829FF1F17B7D138000000005C
:101BA000641CFF1FC01CFF1F441CFF1F0180FFFFA0
:101BB00010B52D492D4A0C682D481060002382B0C5
:101BC00013611381D360002C4AD0234619465B6908
:101BD000002BFBD14A61274B274810600021274882
:101BE0009061516151609172022003F118025872A4
:101BF0001A611972D9609961D96122466469002C11
:101C0000FBD153611E4A5C615C609C721A6019488A
:101C100000F092FB1B4B1C4919600A221A721B48E8
:101C200000F0AEFD134B114900942246174800F016
:101C30001BFE174A1749154802F006FB164800F02C
:101C40009FFD0122009209490A4B134800F00CFE47
:101C50000F4A1049104802B0BDE8104002F0F4BA33
:101C60000A601446B7E700BF242EFF1FA82DFF1FF0
:101C70008C6E0000882DFF1F986E0000D02DFF1F76
:101C8000C4AF0000C42DFF1FA8AF0000D42DFF1F5C
:101C9000401CFF1F1D290000E82DFF1F002070477A
:101CA00000207047F8B51F4C037A0D465A000127F3
:101CB000C1F307210646204684F8A32084F82E713C
:101CC00084F82D7102F0EAFAE9B2204602F0E6FA51
:101CD0000021204602F066FC08B10020F8BD317AF0
:101CE0003B460222204602F0D3FC0128F5D994F8A5
:101CF000A02094F8A100824210D2A118531CDBB29C
:101D0000097E84F8A03098424FEA012106D9234485
:101D10000232187E84F8A0200843F8BD4FF0FF304F
:101D2000F8BD00BF3C1FFF1FF8B5154C037A2429EE
:101D30004FF0010708BFC280BB400D462046C1F3EB
:101D40000721164684F8A33084F82E7184F82D718B
:101D500002F0A4FAE9B2204602F0A0FAC6F3072185
:101D6000204602F09BFAF1B2204602F097FA39467B
:101D7000204602F017FCB0FA80F04009F8BD00BF21
:101D80003C1FFF1FF8B504467A480E46154602F080
:101D9000B5FA052001F008FA06212046FFF782FF78
:101DA000002E76D0B02800F0DF800127277144F2A2
:101DB000600230212046FFF7B7FF002872D06C2266
:101DC00026212046FFF7B0FF4FF4F9722821204664
:101DD000FFF7AAFF40F622722C212046FFF7A4FF4E
:101DE00044F246423C212046FFF79EFF40F2371264
:101DF00024212046FFF798FF5F4B9E4200F2AE8001
:101E0000002234212046FFF78FFFB5FBF6F107EEE5
:101E1000905AF8EE676A07EE906AB8EE677A01F0BA
:101E20001F02C6EE877A3221204607EE102AF8EE0E
:101E3000C76A9FED527A77EEE67A67EE877AFCEE14
:101E4000E77A17EE903AC3F30A0343EAC222FFF798
:101E50006BFF44F2FF5230212046FFF765FF7322EB
:101E600002212046FFF760FF4FF4C87001F09CF993
:101E700041F61D522E212046FFF756FF072204216E
:101E80002046FFF751FFB02206212046FFF74CFF06
:101E900046E00123237144F2600230212046FFF71F
:101EA00043FF08B90020F8BD6C2226212046FFF729
:101EB0003BFF4FF4F97228212046FFF735FF40F62B
:101EC00022722C212046FFF72FFF44F246423C218C
:101ED0002046FFF729FF40F2371224212046FFF762
:101EE00023FF44F2FF0230212046FFF71DFF73223B
:101EF00002212046FFF718FF4FF4C87001F054F993
:101F000041F61D522E212046FFF70EFF04221146F6
:101F10002046FFF709FF302206212046FFF704FF85
:101F200010220A212046FFF7FFFE00220E21204644
:101F3000FFF7FAFE43F63C4210212046FFF7F4FE7D
:101F400047F67F7222212046FFF7EEFE362224213B
:101F50002046FFF7E9FE01206072F8BD3A463421C1
:101F60002046FFF7E1FE50E7012000232371607255
:101F7000F8BD00BF3C1FFF1F406603010000004585
:101F8000014A0021FFF7FEBE605AC50A10B504469B
:101F9000D1B1012901D0002010BD40F273122A21D5
:101FA000FFF7C2FE0028F6D0882220212046FFF746
:101FB000BBFE0028EFD0E28820462421BDE8104077
:101FC00022F00402FFF7B0BE55222021FFF7ACFE3D
:101FD0000028E0D0E28820462421BDE8104042F0ED
:101FE0000402FFF7A1BE00BF38B50546F1B1802954
:101FF00003799ABFC1F1800444EA0424002433B970
:10200000224628462221BDE83840FFF78DBEC2880F
:10201000002322F0100203712421FFF785FE2246DF
:1020200028462221BDE83840FFF77EBE012347F64F
:102030007F7222210371FFF777FEEA882846242168
:10204000BDE8384042F01002FFF76EBE9FED1D7AEA
:10205000DFED1D7AE0EE077A38B5FCEEE77A05464B
:1020600017EE904AF4B1802C03799ABFC4F1800432
:1020700044EA0424002433B9224628462221BDE83C
:102080003840FFF751BEC288002322F010020371CE
:102090002421FFF749FE224628462221BDE8384088
:1020A000FFF742BE012347F67F7222210371FFF73B
:1020B0003BFEEA8828462421BDE8384042F0100261
:1020C000FFF732BE00000143EE7CFF3E2DE9F84FE2
:1020D000374B38481A68384912681B79CB778242E7
:1020E0002AD2364B1B78002B4AD1DFF8E0A0DFF86C
:1020F000E090DFF8E080324FDAF80060D9F800B005
:10210000B8F800403D88002E40D0BBF1000F16D03B
:102110000BF10402311D02EB450201EB440100F01A
:102120007FF9403540347F2C11D87F2DA8F800402E
:102130001AD83D80BDE8F88FA0F58070D5E7311D35
:1021400001EB4401403400F08AF97F2CEDD90024E2
:102150003046A8F8004000F0B9FA1A4B7F2D1A68F3
:10216000CAF800201C60E4D9002458463C8000F0E6
:10217000ADFA154B1A68C9F800201C60BDE8F88F4D
:102180004FF0E0230122C3F80822AEE7BBF1000FB5
:1021900007D00BF1040101EB450100F080F9403557
:1021A000C1E74FF48072594604F076FBBBE700BFED
:1021B000142EFF1F400FFF1F00800040102EFF1F36
:1021C0000E2EFF1F002EFF1F082EFF1FFC2DFF1FCE
:1021D000042EFF1F0C2EFF1F38B50021044600F00F
:1021E000C3FA88B172B61C4A1368002B2BD01B4966
:1021F0000D68002D2CD01560194A0860002111804F
:1022000062B6184600F062FA0121204600F0ACFAEE
:1022100098B172B6134A136883B113490C6854B16C
:102220001460124A08600024148062B61846BDE8A3
:10223000384000F04BBA086062B638BD0B491060F8
:102240000B8062B638BD064910600B8062B6DBE7D2
:10225000086062B6D8E700BFFC2DFF1F002EFF1FED
:102260000C2EFF1F042EFF1F082EFF1F0E2EFF1F18
:1022700010B5044600F020FC204610BD284A294B2A
:10228000D16B41F40041D163116C41F00201116442
:10229000D16B41F00201D1631A68002A37DBD3F811
:1022A0008020002A33DB4FF0804270B4C3F8002155
:1022B000D3F80021002AFBDB01251B4A00264FF240
:1022C000FE01C3F804114FF480341E6617495D60A7
:1022D0009A60174ADC6019615A61C3F8E060C3F87C
:1022E000845005F18E45C3F88850C3F88C40C3F87C
:1022F0009010C3F8942020B90E4B4FF4C0629A603E
:102300009A610C4B4FF4C06270BCDA60704728B918
:10231000084B4FF4C0629A609A617047704700BFE3
:102320000080044000F00240010000071B1F010074
:10233000001F1F1F00B0044038B5254C0121204666
:1023400000F058FB234A244B002010601860FFF770
:1023500095FF224B22494FF4C0625A602368214AFC
:1023600019602149D960214919615A6002254FF449
:1023700080720621DA829D60DA839882998398615F
:1023800023791B4D03F1804303F504338D2218702C
:102390001A70184B2079184AE8764FF0807119604E
:1023A0001A6000F0D5FA2279144C154920705311A7
:1023B00002F1100003F13823124C41F82040403361
:1023C0009B0002F01F02012101FA02F21A6038BDDF
:1023D000142EFF1FFC2DFF1F042EFF1F00B0044012
:1023E000400EFF1F0200010100FEFFFF22F002402D
:1023F0000080004000F0024001000090102EFF1FFE
:102400000012FF1FCD200000024A0349034801F0DB
:102410001BBF00BF401CFF1F71220000142EFF1FB6
:102420002DE9F04F00F5807EB1E8A00AB2E8401532
:10243000C5EA0643C6EA2544C7EA0845C8EA27466E
:10244000C9EA0A47CAEA2948CBEA0C49CCEA2B4A2E
:10245000A0E8F8078645E7D1BDE8F04F70474FF098
:1024600000022DE9F00F00F5807C00BFB1E8A00A62
:10247000C5EA0203C2EA2544C7EA0205C2EA2746C2
:10248000C9EA0207C2EA2948CBEA0209C2EA2B4A92
:10249000A0E8F8078445E9D1BDE8F00F70474FF098
:1024A00000022DE9F00F00F5807C00BFB1E8A00A22
:1024B000C2EA0543C2EA0504C2EA0745C2EA0706C2
:1024C000C2EA0947C2EA0908C2EA0B49C2EA0B0A92
:1024D000A0E8F8078445E9D1BDE8F00F70472DE981
:1024E000F00F089C00F5007B51F8045B53F8046B77
:1024F000C5EA0647C6EA254952F8045B54F8046B5E
:10250000C5EA0648C6EA254AA0E880078345EBD11C
:10251000BDE8F00F704700BF4FF0E0230122C3F881
:1025200008227047036818470B680360704700BFB4
:102530000B680360704700BF704700BFF0B5B1F58E
:10254000607F8DB00E460F4628BF4FF4607605467B
:1025500072B62B4B002418602A4B2B481C8070222B
:10256000214604F099F9C7B1274821464FF0010CE4
:102570004A0901F01F0350F822400CFA03F301311D
:1025800023438E4240F82230F2D82846002343806D
:1025900001339E4200F58270F9D81C4C257815B1A4
:1025A00062B60DB0F0BD082000F0E0FC184B0560ED
:1025B0008022027106460093069302A9154B0293EE
:1025C00008A8FFF7B1FF144A06A9304600F0A8FAA0
:1025D000069B08A8DB689847009B02A8DB68984721
:1025E0002378002BDCD10D494FF0E0220123D020CD
:1025F00081F84000C2F80831237062B60DB0F0BD1A
:102600001C2EFF1F302EFF1F342EFF1F2C2EFF1FEE
:10261000C8AF000019250000FFA7020000E400E099
:1026200030B472B6244D254C2A8804F1700104EBB5
:1026300082038B423CD204F16F01C91A501C00EB9B
:10264000910002E00132824232D09C4653F8041BD2
:102650000029F7D0B1FA81F04FF00043C34021EADE
:102660000301CCF8001001B90132154B2A801A88F9
:10267000013291B2198062B6ACEB040C4FEAAC0C9B
:10268000C0EB00640CEB8C1C41F67C73C0EB841037
:1026900003EBCC1303EB80030A4800680124C45405
:1026A0001844094B1C88944238BF198030BC7047CD
:1026B00062B6002030BC7047302EFF1F342EFF1F43
:1026C000202EFF1F1C2EFF1F282EFF1F428872B6D0
:1026D0000378012B03D9013B037062B6704751099F
:1026E0000C48D24302F01F024FF0004310B4D34015
:1026F000094C50F821201343228840F821308A42A7
:10270000064A88BF21801388013B138062B65DF8BA
:10271000044B7047342EFF1F302EFF1F202EFF1F4B
:10272000C36813B91DE0DB68E3B1187A9042FAD1AF
:1027300010B4586893F809C0006950F82C4054B19F
:10274000DB682BB1187A9042F3D0DB68002BF9D10B
:102750005DF8044B704740F82C1008780130087081
:10276000EEE77047704700BF437A8B4206D9036992
:10277000002253F8210043F82120704700207047C1
:102780000449002202604260028102740A68C26049
:1027900008607047A42EFF1F037CFBB90368014645
:1027A000FBB14368EBB1427A5B7A9A421CD230B4F7
:1027B00072B62B4B1C68ECB1E368C3B1486801E00A
:1027C000DB68A3B15A688242FAD193F809C04A7A09
:1027D0009445F5D162B6042030BC7047012062B642
:1027E0007047032062B67047022062B67047646982
:1027F000002CE1D11B4C236843B1994202D10BE07C
:10280000994207D01A46DB68002BF9D1052062B641
:1028100030BC704702F10C040D68E868E8B1C36889
:1028200023B908E0DA68184632B113468142F9D17B
:1028300062B60620D0E70346D960CB68236000204B
:10284000C860AA7A01231A44AA724A682B72947A41
:1028500013721C4494720B74D9E7E960EDE700BF72
:10286000242EFF1FA42EFF1F10B5047C9DF808E046
:102870000CB1012010BD027280F809E0BDE81040E3
:10288000C0E90013FFF788BF037C002B37D010B5D9
:102890004368427A5B7A9A42044638D272B601683B
:1028A000CB68002B2DD0984233D01A46DB689C426F
:1028B0002AD0002BF9D16268607A136953F820009E
:1028C00048B1FFF703FF72B66268617A13690020AE
:1028D00043F8210021688B7A013BDBB28B7203B98C
:1028E0000B72937A013BDBB2937203B913720A4BFA
:1028F00000201A682074E2601C6062B610BD0120DE
:10290000704762B6032010BDE368D360D3E70220AE
:1029100010BDC368CB60CEE7A42EFF1F10B50446E0
:10292000FFF7B2FF094A136843B19C4202D108E0A5
:102930009C4205D01A46DB68002BF9D1204610BD19
:102940000C32E3681360204610BD00BFA42EFF1FA9
:10295000084B1A7862B908484FF0E02101224FF085
:10296000D00C80F840C0C1F8082110461A7070479A
:10297000002070472C2EFF1F00E400E04FF0E02203
:10298000F8B5D2F8FC3D174D174943F08073C2F8F3
:10299000FC3D2B680C6843F001032B606E689CB112
:1029A000237A20466BB123686F681B6898476B6871
:1029B000E188DB1BC3F30F12B1EB131FA28038BFFA
:1029C000E2806469002CEBD1064B084A5B681088F2
:1029D000074C9B1BC3F30F11B0EB131F218038BFB3
:1029E0001180F8BD001000E0242EFF1F2E2EFF1FC7
:1029F0002A2EFF1F10B472B621B9026812B10379F2
:102A00000F2B44D92A4C2188002341FA03F212F0FB
:102A1000010209D00133102BF7D162B60022026007
:102A200003715DF8044B70474FF0010C0CFA03FC86
:102A300041EA0C01218062B61E495FFA83FC80F8EE
:102A400004C00C6C44F002040C64CC6B44F002042F
:102A5000CC6303F10073A1F5802140F2824403F5B9
:102A600090630C605B0181F81AC081F81EC081F888
:102A700018C081F81FC05DF8044B0360C3E9002251
:102A8000C3E90222C3E90422C3E906227047084CC5
:102A9000218841FA03FC1CF0010FB5D003F100734B
:102AA00003F59063B2EB431FAED162B6B9E700BF46
:102AB000A82EFF1F0080044003790F2B11D8094A6C
:102AC000937672B6084990F804C00B88012202FA86
:102AD0000CF223EA02030B8062B61022002302717B
:102AE0000360704700800040A82EFF1F704700BFA2
:102AF000704700BF704700BF704700BF704700BFFE
:102B000038B5064CA4F1600554F8083C2046DB6853
:102B1000183C9847AC42F7D138BD00BF002FFF1FCB
:102B20002DE9F041036888B004461746002B3DD0DC
:102B300000229A600122DA60294DDFF8BC801D4432
:102B40002D1151F8083B029305EB4506F60004A849
:102B50005B68984758F8063006F108004044DB6887
:102B600001909847029B1F4A029204A9019848F8D5
:102B700006309B689847029B04A8DB689847236847
:102B800019491F6003229A6005F13002531103F1C5
:102B9000382320796854403301209B0002F01F0243
:102BA00000FA02F21A6008B0BDE8F0810F4AD36B58
:102BB00043F40003D36300BF0D4B01221A6003F5F9
:102BC00080730C4A036098680028B5D01033934294
:102BD0002360F8D10020206008B0BDE8F08100BF7C
:102BE000008FFCBFD8AF000030E400E0008004405C
:102BF0000070034040710340B02EFF1F0448054A97
:102C000050F8083B01211B68C2F80C11184700BF9F
:102C1000B02EFF1F007003400448054A836901215C
:102C20001B68C2F81C112030184700BFB02EFF1FD0
:102C3000007003400448054A036B01211B68C2F879
:102C40002C113830184700BFB02EFF1F0070034012
:102C50000448054A836C01211B68C2F83C115030BE
:102C6000184700BFB02EFF1F00700340094B0A48F1
:102C70000A4A0B4910B40B4C1C6098609C611862A6
:102C80001C6398639C6418655DF8044B002001F098
:102C9000DBBA00BFB02EFF1FED2A0000401CFF1F53
:102CA000012B0000C8AF00000020704700B503688A
:102CB00083B040F60D22ADF804205B68022201A922
:102CC000984703B05DF804FB08B5FDF7EBFFFEF78E
:102CD00007F901F073F9FAE701B441EA000313F0D0
:102CE00003036FD1403A41D351F8043B40F8043B11
:102CF00051F8043B40F8043B51F8043B40F8043BD6
:102D000051F8043B40F8043B51F8043B40F8043BC5
:102D100051F8043B40F8043B51F8043B40F8043BB5
:102D200051F8043B40F8043B51F8043B40F8043BA5
:102D300051F8043B40F8043B51F8043B40F8043B95
:102D400051F8043B40F8043B51F8043B40F8043B85
:102D500051F8043B40F8043B51F8043B40F8043B75
:102D600051F8043B40F8043B403ABDD2303211D315
:102D700051F8043B40F8043B51F8043B40F8043B55
:102D800051F8043B40F8043B51F8043B40F8043B45
:102D9000103AEDD20C3205D351F8043B40F8043B15
:102DA000043AF9D204320AD0D2071CBF11F8013B11
:102DB00000F8013B03D30B7803704B78437001BCE0
:102DC000704700BF0C2A4AD310F0030311D0C3F19F
:102DD0000403D21ADB071CBF11F8013B00F8013BCA
:102DE00007D311F8013B00F8013B11F8013B00F853
:102DF000013B11F003033FF475AF30B4043AC91A34
:102E0000C3F1040C51F8044B022B19D0032B0BD047
:102E1000240A51F8043B1D0644EA050440F8044B1B
:102E20001C46043AF4D216E0240E51F8043B1D026D
:102E300044EA050440F8044B1C46043AF4D20AE084
:102E4000240C51F8043B1D0444EA050440F8044BEB
:102E50001C46043AF4D20432B1EB0C0130BC043A03
:102E6000A0D3013A11F8013B00F8013BF9D20B78ED
:102E700003704B7843708B78837001BC704700BF40
:102E800008B50F4C636B58030DD4636B59050FD411
:102E9000636B1A0511D4636BDB04F3D500F012F8F1
:102EA000636B5803F1D500F089FA636B5905EFD5D0
:102EB00000F008F8636B1A05EDD500F003F8EAE7B7
:102EC0000080044008B5FFF7DBFF00BF014B102274
:102ED0001A80704700200540704700BF0B490A6800
:102EE00048B108B5EC461318ACF50050834204D243
:102EF0000B60104608BD1046704703F037FD0C23E9
:102F00004FF0FF320360104608BD00BF181EFF1FC0
:102F1000FEE700BF074BDA78802A01D00020704717
:102F200005490648486400225A70DA78802AFCD0A5
:102F30000120704700E00740008004400000282284
:102F4000074BDA78012A01D00020704760225A70BE
:102F5000DA78802AFCD1034B034A5A640120704777
:102F600000E00740008004400000060203F0D0B9F2
:102F700001F1FF3C70B56546002401E07046013464
:102F8000B0FBF2FE02FB1E03092B03F130068ABFE1
:102F90003733F3B2DBB2904205F8013FEED2631C47
:102FA0000022CA54C8187CB162461CF8015F10F8B0
:102FB00001ED8CF800E0A1EB0C030232013B521A48
:102FC00023449A420570EFDB084670BD034B002294
:102FD00010215A615A6018605961704700D003404F
:102FE000704700BF4FF0E02C2DE9F0414FF0006832
:102FF000CCF804814FF08058CCF804814FF0005891
:10300000CCF804812F4A3049304C314D314E4FF0CD
:103010008048CCF80481282300204EF6FF7E092743
:103020004FF00048CCF804814860C1F808E0CB605C
:103030004B61CB614B62CB624B63CB634B64D36020
:103040005361D3615362D3625363D36353640F609C
:103050006860C5F808E0EB606B612F606060C4F8E1
:1030600008E0E360636127605060C2F808E0D36065
:1030700053611760F16A41F40071F162716802F501
:10308000803241F00071716047F6FF740821506092
:1030900082B09460D3605361116001F033F8FFF7A0
:1030A0009FFF0D4C23680093009B132BFAD900F06F
:1030B00041FD23680193019BB3F5967FF9D302B0DC
:1030C000BDE8F08100900B400080034000800B4081
:1030D0000090034000800440102FFF1F3F2818D8A5
:1030E00010B4124B53F8302092F8804234B10123CF
:1030F00081B982F800315DF8044B704703EBC003DF
:103100005B681A6859B142F003025DF8044B1A601B
:103110007047704782F880305DF8044B704722F0AA
:1031200002025DF8044B1A60704700BFE8AF000070
:103130003F2820D81B4A02EBC00301295B680FD04F
:1031400004291DD052F83000002280F8802299B165
:10315000022922D003290DD14FF481721A607047E1
:1031600052F830004FF4A27280F880121A601A6888
:1031700022F020021A6070474FF480721A60704784
:1031800052F830104FF4A272012081F880021A60C8
:103190001A6842F020021A60704740F203121A6067
:1031A000704700BFE8AF00002DE9F843044672B64F
:1031B000214F4FF0E02293693D68D2F8042D62B6AA
:1031C000520102D5322B88BF01350CB9BDE8F88316
:1031D000DFF86890DFF86880A9EB03039B08A8FB81
:1031E00003234FF47A7202FB05F505EB93054FF0CC
:1031F000E02672B6B1693A68D6F804CD62B6A9EB9A
:1032000001039B08A8FB03031CF0806FC5EB93032D
:103210004FF47A7002D0322988BF013200FB0233AA
:10322000B3F57A7F04D3013CD0D005F57A75E0E799
:1032300000F0C4FEDDE700BF102FFF1F1FBF02001C
:10324000176CC116431E042B16D872B60B4951F8E1
:10325000230078B130B40A4CB0F800C034F8132021
:10326000456841F82350A2EB0C0224F8132062B603
:1032700030BC704762B6704700207047A42FFF1F14
:103280000430FF1F013804280BD872B6074B53F8DF
:10329000203043B100205B680130002BFBD162B6C7
:1032A0007047002070471846F9E700BFD42FFF1F72
:1032B00010B472B61A4A1B4C042312F8011B0907FA
:1032C00043F0010C05D554F8331069B154F83C10A3
:1032D000C9B10433182BF0D162B6134B00221A7017
:1032E0005DF8044B00F0B0BC0F4904EBC30208309A
:1032F00050600A780D4844F83300013A0A7062B60B
:103300005DF8044B7047084A094904EBCC030830C8
:103310005860137844F83C10013B137062B6EFE735
:1033200074B200000000FF1F0E30FF1F8800400035
:10333000C8004000421E042A0ED81C4B400140F039
:10334000100010B4034472B6194CA05C03281DD8B9
:10335000DFE800F01416031970470520A05413F09D
:10336000080F088814BFC8228822083142EA0042A8
:1033700059601A6062B65DF8044B70470320EDE7B0
:1033800008330220EAE708330420E7E7094B53F843
:10339000220038B1084B53F82200416043F8221054
:1033A00062B6E8E743F82210034BF7E70000FF1F7F
:1033B000FC2FFF1FD42FFF1FE82FFF1F2DE9F04F19
:1033C000DFF810A3DFF810B385B03DE0B14D9E08E3
:1033D00005EBC607013A796813F00803D4B2A1F1EE
:1033E000080040F0BA8055F836204FEA124C120C13
:1033F00021F808CC00F0A98021F8063C41F8043CF3
:10340000A54B53F82420002A00F00382A34B53F865
:103410002420506043F82400A14B33F81420944436
:1034200023F814C000F0F0FB002800F0EB8117F047
:10343000080F9C4B00F1080018BF5B46786045F808
:10344000363008238AF880309AF880305907DCB289
:103450001DD5954B1B78BBB194490A7802F0FF0348
:103460002AB1013BDBB20B70002B00F0488390497E
:103470000A7802F0FF032AB1013BDBB20B70002B8C
:1034800000F0ED8100F008FC04238AF8803014F08D
:10349000080200F0CC819AF89020D3B2120995D19D
:1034A000DFF8F0919B0809EBC30459F83300646816
:1034B000C0F3830009287CD00FD80138012808D830
:1034C0007C4A158842F22100854200F0FB8149F8D0
:1034D00033B001238AF89430B3E70D28F9D1D4E949
:1034E0000007754D49F833B0724E744CC9F810207E
:1034F00083B240F2816CC9F818202A6063454FF00E
:103500000102C6E90007227000F2FF80B3F5D06F18
:1035100080F0CB82B3F5817F00F0268240F2DE801E
:1035200040F2023293427BD107F07F07052F00F271
:103530000881020C40F00581614911F8273043F001
:10354000020301F82730134670E017F0080F554BBF
:1035500018BF5B4645F8363073E700F075FB5949F4
:10356000594A51F82430002B00F05781586841F82F
:103570002400115D03F108007860032905D8DFE815
:1035800001F0120F1502042111551A8817F0080FC7
:1035900014BFC823882343EA024345F8363050E776
:1035A00002211155F1E703211155EEE705211155CF
:1035B000EBE7414D2A683AB34449404C0F884448F0
:1035C00094F800E00678402F3B4628BF4023BEF128
:1035D000000F8EF0010E84F800E046F0020486F041
:1035E0000106067009EBC400426014BFC8208820A1
:1035F00040EA03401A44FB1A9BB249F834000B809E
:10360000002B00F036812A602A4B1A88B2F5A06F91
:103610007FF45FAF9A788AF8982000225A7058E7B2
:10362000B3F5A06F40F08D8000221346B6F806C0B7
:103630002748944528BF944667460278402F28BF04
:10364000402742F0020E3E0409EBCE0846F0C806C1
:10365000C8F8043049F83E6000263B442670BCEBB5
:10366000070782F00106067040F01181BCF13F0FA0
:103670004FF0010509D946F00206027009EBC602B7
:1036800025705360882349F8363001238AF8943036
:103690001FE700BF0000FF1FA42FFF1FB82FFF1F51
:1036A0000430FF1F880040000130FF1F0230FF1F61
:1036B0003030FF1FCC2FFF1F982FFF1F952FFF1FAC
:1036C000C0200740D42FFF1FFC2FFF1F962FFF1F86
:1036D000942FFF1F00200740C8004000802B00F0FF
:1036E0008B81822B2DD107F07F07052F29D8A74A80
:1036F00000231380A64B13F827309F0740F1FC816D
:1037000001231370A14B022290E742F2210C634582
:10371000BBD01DD942F2212293420DD1BFB2002F5E
:1037200082D19C4B1A689C4B1A609C4BC0F307409B
:1037300000221870134679E742F2213293423FF497
:1037400073AF0F238AF8C03001238AF89430C0E6A3
:10375000B3F5086F00F04A81B3F5106FF1D1904BCB
:10376000C0F307400425187059F835301A0606D4FE
:103770000135182D0CD059F835301A06F8D509EB5B
:10378000C50301355868083800F05EFA182DF2D1EB
:10379000844A854B0292854A0192854E854ADFF81C
:1037A00048820394009200251C4656F8047B2FB1F2
:1037B00038467F6800F048FA002FF9D1009BD8F80E
:1037C000007043F8045B46F8045C00932FB1384660
:1037D0007F6800F039FA002FF9D1029B48F8045BAA
:1037E00043F8045B0293019B23F8025B0193237867
:1037F000023B032B00F20981DFE813F03F010401D3
:103800003F0104016C4A45F8360013780133137008
:1038100017E643F82400674BFCE5115D022926D02A
:103820007FF60FAE03291DD10123135509E6E007EA
:103830006ED4210621D4A20708D5604B93F88820C6
:103840000221D2B283F8882083F88010E30603D5E2
:103850005A4B102283F8802005B0BDE8F08F00F0AD
:1038600089FB0FE617F0080F14BF0323022313553B
:10387000E7E53F2F98BF0022C5E6504B80220D217F
:1038800083F8C01083F88020A207DFD5D5E746F083
:1038900002060270402F09EBC6003A4628BF4022BC
:1038A00043601004134440F088000121BA1A49F81B
:1038B0003600217055D02B60414B1A8001238AF8C5
:1038C000943006E692885AB93E4AE51D14F8011B69
:1038D00002F8011FAC42F9D13B4A1268862A3CD05B
:1038E0003A4C3B4825780278002D85F0010525707B
:1038F00042F0020482F00102027009EBC4024FF0B0
:103900000000506014BFC822882249F83420DEE548
:103910002A4B2F482F49304C022583F894500270CF
:103920002E480C602E4D48608C600D24CD60FF2029
:103930000A618A6183F8C04001219F2483F88800CE
:1039400083F8800083F8982083F88C0083F8844003
:1039500083F8941005B0BDE8F08F224A0F20107054
:10396000BEE73F2FA7D890E607F07F07052F3FF669
:10397000E8AE000C7FF4E5AE054A12F8273023F0DC
:10398000020302F82730002213464FE69C2FFF1F48
:10399000C0200740102FFF1F2C30FF1F2830FF1FB3
:1039A0000130FF1FE82FFF1FFC2FFF1F0430FF1FF8
:1039B000A42FFF1FB82FFF1F0E30FF1F002007404E
:1039C000962FFF1F1F30FF1F2030FF1F952FFF1F57
:1039D000942FFF1F0000FF1F88004000142FFF1FBF
:1039E000542FFF1F0230FF1FD42FFF1F484B4949A0
:1039F0001B780B700B4619E6464A00231380454B93
:103A0000022213E64FF001032370434BB34204F14B
:103A100001047FF4CAAE414E039CDFF81481404F8D
:103A200000233370042518F8013B3E4AAB541B07B2
:103A300025D445F0020145F0030204350023182D7A
:103A400049F8313049F83230EDD1374F25783A789E
:103A500042F0020009EBC00C85F00106CCF80430FE
:103A6000002D4DD1882382F0010226703A7049F86A
:103A7000303001238AF894302BE52570C5E700F03B
:103A8000C3F8002832D009EBC5030830586049F864
:103A9000357000F0B9F808B345F0010309EBC30233
:103AA0000830506049F833B0C3E7204A5368002B10
:103AB0003FF447AE000CBFB204E013690C32002B98
:103AC0003FF43FAE11888142F7D15188B942F4D119
:103AD000000A03280CBF1A781289A7E5337801334E
:103AE000337045F0010349F83300A2E7337849F811
:103AF000350001333370CCE7064B022296E500BE59
:103B00002670C82382F001063E7049F83030BCE5CB
:103B10000130FF1F9C2FFF1FB82FFF1F0E30FF1F0C
:103B200088004000C0200740942FFF1F14B20000FF
:103B300074B2000010B500F04BFB0023234A194675
:103B400042F8331002EBC3000133182B4160F7D168
:103B50001F48204C436B43F480234363D4F8003860
:103B600000F5283000F5807043F04073C4F8003849
:103B7000032480F84440184BA02480F84040C2F34E
:103B8000072483F89C40C2F30744120E83F8B04028
:103B90004FF0FF0C83F8B420012283F880C00F4C53
:103BA00083F888C083F810C083F8942001704FF028
:103BB000E02183F884204FF0700C4FF400121023A2
:103BC00084F835C0C1F80421037210BD0000FF1F46
:103BD0000080044000D000400020074000E400E0E6
:103BE00000F0C8B800F098B800F072B800F0ACB8B7
:103BF00000F094B900F06EB90846114600F0D6B84E
:103C0000084600F059B900BF72B60D490B68B3FA07
:103C100083F01D2810DC4FF00042C24023EA02036B
:103C20000B6062B6074A00EBC000C10002EBC000A7
:103C3000002353504360704762B60020704700BFB6
:103C40002C1EFF1FD013FF1F0E4BC31AB3F5076FB7
:103C500010D20D4A127872B972B60C4A0C49A2FB06
:103C6000032308684FF000421B0922FA03F30343C1
:103C70000B6062B67047074A1278002AECD0FFF753
:103C800017BB00BFD013FF1F0E30FF1F398EE33864
:103C90002C1EFF1F0130FF1F70B50B4C257845B956
:103CA0000A4E31680123237009B14B8813B90023F0
:103CB000237070BD9B000B800420FFF73BFB0023AB
:103CC00035602370F5E700BF0F30FF1F1030FF1F76
:103CD00038B50F4C206878B143880288C118013389
:103CE0009A420D7A02D94380284638BDFFF7ACFFCF
:103CF00000232360284638BD064B1B782BB10220D9
:103D0000FFF7A0FA20600028E6D14FF0FF35EBE77F
:103D10001430FF1F0130FF1F10B5094C206818B187
:103D200043881844007A10BD064B1B782BB1022043
:103D3000FFF788FA20600028F2D14FF0FF3010BD65
:103D40001430FF1F0130FF1F084B094A1B6810B5D4
:103D500054881BB11A885B88D31A1C440CB12046C6
:103D600010BD00F02BF9204610BD00BF1430FF1F1E
:103D70000430FF1F0B4B1B789BB110B50A4C206819
:103D800048B1FFF761FF002302202360FFF75AFAD2
:103D900030B1FFF759FF0220FFF754FA0028F8D19D
:103DA00010BD70470130FF1F1430FF1F2DE9F04F89
:103DB000DFF8F89083B0012289F80020019179B3EF
:103DC000374FDFF8EC80019D364EDFF8E8A08346E0
:103DD0003868A8B3B0F802E0CEF1400CAC4528BF7B
:103DE000AC460EEB0C040022A4B23270A5EB0C051D
:103DF000448000F10802BCF1000F0AD00EF1FF3E32
:103E00007244DC441BF8014B02F8014FDC45F9D148
:103E100044883F2C0BD805228AF80020002DD7D1EA
:103E20000198002389F8003003B0BDE8F08F4022EC
:103E3000028001460320FFF77DFA00223A60EAE79C
:103E400098F800201AB3184C08E0013C18D03278DA
:103E5000B2B900F0B3F898F80020C2B10320FFF720
:103E600011FA0728F1D84FF0010389F80030FFF765
:103E7000CBFE38600028ADD1013C89F80000E6D1C6
:103E800001234FF0FF30337003B0BDE8F08F002303
:103E90004FF0FF3089F8003003B0BDE8F08F00BF6D
:103EA0001C30FF1F1830FF1F214801001930FF1F71
:103EB0000130FF1F3030FF1F00B583B003460121E2
:103EC0000DF107008DF80730FFF770FF03B05DF8C4
:103ED00004FB00BF38B50E4D0E4C2868012323703B
:103EE00028B140880023C0F14000237038BD0A4B40
:103EF0001B7813B90020207038BD0320FFF7C2F9EA
:103F00000728F7D8FFF780FE28600028E9D1F1E7FD
:103F10001C30FF1F1930FF1F0130FF1FF8B5114B78
:103F20001B788BB1104E114D346801272F7064B18E
:103F30000F4B00271F706388238021460320FFF763
:103F4000F9F9376000232B70F8BDFFF75DFE084BD1
:103F5000014620B103201C70FFF7ECF9F2E71F7057
:103F6000F0E700BF0130FF1F1C30FF1F1930FF1F9B
:103F70003030FF1F38B50E4B1B7853B90D4C2168FC
:103F800041B103F0FF054B880B800320FFF7D2F906
:103F9000256038BDFFF738FE014620B1BDE8384046
:103FA0000320FFF7C7B9044B01221A7038BD00BFC8
:103FB0001930FF1F1C30FF1F3030FF1F2DE9F84361
:103FC000324E337863B1324F3A784AB90122D90779
:103FD0003A7043D49A0726D400225B073A7001D482
:103FE000BDE8F8832B4B1A68002AF9D0EFF305825D
:103FF000002AF5D1EFF3108572B6186800283AD080
:10400000254C2178002936D142691A60012323709A
:10401000002A37D0916105B962B6002583684577DB
:1040200098472570DCE7DFF87C8098F80020002AAC
:10403000D2D00025DFF870902B4659F82340236832
:1040400020461B690135984708B12369984798F8BD
:104050000020EBB29A42F0D83378BDE7FFF774FE48
:1040600068B90E4B1B780BB93378B3E7337803F09C
:10407000FE033370AEE7002DB2D162B6B0E700F0B8
:10408000A5F8EEE7064B1A60C5E700BF301EFF1F1C
:104090003130FF1F3430FF1F4030FF1F10B20000CF
:1040A0004430FF1F6030FF1F4830FF1F70B5EFF333
:1040B000108272B60C4C206880B10C4E002543690A
:1040C000236073B19D6102B962B6836845779847F2
:1040D000EFF3108272B620680028F0D102B962B600
:1040E00070BD3360EFE700BF3C30FF1F3830FF1F6B
:1040F000FFF7DCBF024A136801331360704700BF4B
:10410000102FFF1F2A4B2B4A6020E1211870597095
:1041100013782948082B34D00A2B20D00C2B274B9E
:104120000CBF35215D2112228160C2609960DA6086
:10413000234B21491B78214ACBB101230B62136227
:10414000204B1D491B781D4A012B13D9042B1BD86A
:1041500084234B6253621C4B01221A707047174B29
:10416000392113228160C2609960DA60E0E70B6256
:104170001362E5E780234B625362134B01221A70EE
:1041800070470E4B2121ECE7082B06D885234B62A4
:1041900053620D4B01221A707047102B94BF862377
:1041A00087234B625362084B01221A70704700BF8D
:1041B00000400740311EFF1F00B0034000B00B401D
:1041C0006130FF1F321EFF1F6230FF1F704700BFAC
:1041D00010B584B072B6FEF79DFE174A17495160BC
:1041E000702080231070137013781B06FCD5D468E0
:1041F000FEF7A6FE62B6124B9C423CBF04EB840461
:10420000640020460F4C01A90A22FEF7B1FE01A965
:104210002046002311F8012B01333AB10A2B20F874
:10422000022FF7D11623237004B010BD5B00DBB260
:10423000237004B010BD00BF000002400000074121
:1042400080969800241FFF1F03460846194602F077
:1042500075BB00BF90F8A12090F8A000101A70471D
:1042600090F8A03090F8A1209A4205D95A1C034436
:1042700080F8A020187E70474FF0FF30704700BFD5
:1042800090F8A03090F8A1209A4286BFC018007E16
:104290004FF0FF30704700BF704700BFB0F82E31BD
:1042A0002BB190F82D31882B03D9012343600020D6
:1042B0007047C218013380F82D31012082F8A31015
:1042C000704700BF38B5B0F82E41A4B190F82D3139
:1042D000C3F18904A24284BF01224260054698BF0F
:1042E0001446A33018442246FEF7F6FC95F82D310B
:1042F000234485F82D31204638BD00BF4269002394
:10430000A0F8A030C0F82C3110B4D2E900140A682B
:10431000C0F8343122430469C0F838310A60A37010
:10432000426990F831311849134493F808C05B7B17
:1043300001EBCC0C1B02DCF8044003F4E06343F017
:104340006403236090F8323113449C7CDB7D01EBE5
:10435000C4011B024C68116803F4E06343F064037A
:10436000236009685368194205D003692C225A70EA
:10437000036904229A71036920225A710369802219
:104380009A705DF8044B7047E8AF000038B50369D8
:10439000DA78D5B2D206044622D51022DA706B063E
:1043A0001DD515F0040567D04249D4F83421002307
:1043B0000B7084F82D31002A72D0904794F82D317B
:1043C000002B6DD02369D0229A70236994F8A32022
:1043D0001A712369012284F82C210222DA7038BD77
:1043E00015F0400CDDD19A7902F060016029D2B25B
:1043F00031D09A7812F0100216D015F0010548D18C
:1044000094F82C2194F82D11914250D9511C22443A
:1044100084F82C1192F8A3201A712369D0229A7083
:1044200023690222DA70DAE784F830219A7942F0BF
:1044300020029A71236994F8A1101A798729D2B2BF
:10444000CBD81C4800780028C7D0481C214484F8E9
:10445000A1000A76C1E702F0DF029A71D0F8383184
:1044600023B190F8A10084F8A0C0984723699A78F6
:1044700012F01002D8D0C0E7236984F8A150C022FE
:104480009A700C4A23690121117002221879DA709E
:10449000A5E7C0229A7023691A790222DA709EE792
:1044A0000122002384F82D2184F8A3308AE71D71AE
:1044B000B3E700BF6330FF1F2DE9F047374C0269B7
:1044C000236882B00093DDF80080D378990618D570
:1044D000334E0546002102E0D3789B0611D52368B0
:1044E0000193019BA3EB08030F2BF5D969B1102BA6
:1044F000F2D0002090702B6980229A7002B0BDE843
:10450000F087012002B0BDE8F08795F831216B6992
:1045100013440521187AFEF70BFE6B6995F83121DB
:104520001344012193F812A05046FEF701FE09271B
:104530004FF4967900215046FEF7D0FD4B46013BE3
:10454000FDD101215046FEF7C9FD4B46013BFDD18F
:10455000013FEFD1696995F831310B444FF4167280
:10456000187A5B7B06EBC0001B02406803F4E06333
:1045700043F06403036095F832310B44997CDB7D92
:1045800006EBC1011B02496803F4E06343F06403D6
:104590000B60013AFDD101212A699DE7102FFF1F11
:1045A000E8AF0000F0B503691222DA70026993786F
:1045B00013F0200685B004460D4652D0B423937004
:1045C000324920690B680093009E05E00A68019259
:1045D000019A921B042A3DD8C37813F02003F5D02A
:1045E00094F82D316BB34FF0000CE646022604EB35
:1045F0000E0393F8A33003710B680293029F2069A6
:1046000007E092060AD50A680392039AD21B052A8C
:1046100020D8C378DAB213F00203F2D0C67023694F
:10462000DA78D7B2D206184626D4BA0624D5FA07C5
:1046300026D494F82D310CF1010C5FFA8CFE7345F1
:10464000D5D8002015B1236980229A70002384F800
:104650002E3104E08370236980229A70042005B013
:10466000F0BDFFF729FF28B1236984F82F61B0223C
:104670009A70A5E70420F2E780229A700420E1E70F
:10468000BEF1000F0CBF02200320DDE7102FFF1F3B
:104690002DE9F0479046994600220369A0F8A02032
:1046A0001222DA7003699C7814F0200588B007465E
:1046B0008A4600F0A280B4229A70724E3B6932683A
:1046C0000092009A08E030680190019CA4EB020C73
:1046D000BCF1040F00F28980DC7814F02005F2D0E0
:1046E0004FEA4A0242F00102D2B21A7133680293D1
:1046F00002983A6906E0336803930399091A052979
:1047000000F28580D47814F00205F4D04FF0020C4A
:1047100082F803C03B69DC7814F011057FD1B8F151
:10472000000F00F08780B8F1010F00F09080A02208
:104730009A7039690B794FF0A80E33680493049886
:1047400005E032680592059A121A052A6BD8CB78D3
:1047500013F00203F5D081F803C03969CB78DCB2DD
:10476000DB0608460A4644D4A40642D508F1FF38C1
:104770005FFA88F8B8F1010F04D181F802E03969D5
:1047800008460A46872D5CD90379B8F1010FD4D1C8
:1047900033680693069805E0316807910799091A6E
:1047A000052959D8D37813F00203F5D00223D3702A
:1047B0003A69D378D806D9B258D48B0619D5B02324
:1047C000872D93704FD83A697C19127922766B1C29
:1047D000DDB200BF00BF00BFB9F1000F02D03B69DE
:1047E00080229A7087F8A15003E09D703B69802277
:1047F0009A70284608B0BDE8F087FFF75DFE0028F4
:10480000F7D03B6987F82F51B0229A7055E7957021
:104810003B69802228469A7008B0BDE8F087802264
:104820009A700025E5E78B703B6980229A7087F8C3
:10483000A150DEE7B9F1000F14BF8022A0229A70C8
:10484000D7E77B19007918766C1CE5B29DE7A822A2
:104850009A703A6913799BE793703B6980229A704A
:1048600087F8A150C5E73B691B79B2E710214FF4E7
:104870009673D170013BFDD13A69937803F0F70349
:104880009370B6E7102FFF1F0148FFF77FBD00BFF1
:104890003C1FFF1F0148FFF779BD00BF7820FF1FB5
:1048A0000148FFF773BD00BFB421FF1F0148FFF7A8
:1048B0006DBD00BFF022FF1F08B52DED028BB0EEDD
:1048C000408A00F0C7F9F0EE408AB0EE480A00F0E6
:1048D0002FF868B1DFED127AB4EEE78AF1EE10FA44
:1048E0000BDCDFED107AB4EEE78AF1EE10FA0FD4AC
:1048F000B0EE680ABDEC028B08BDDFED0B8A02F05A
:1049000035F8B0EE680ABDEC028B2223036008BDC7
:1049100002F02CF82223DFED058A0360E8E700BFF0
:104920001772B142B5F1CFC20000807F00000000D5
:1049300082B08DED010A019820F00040B0F1FF4FE8
:10494000ACBF0020012002B0704700BF10EE103A4B
:10495000194A23F0004393421CDDB3F1FF4F02DB01
:1049600030EE400A704700B583B0684600F06AFA3E
:1049700000F003000128DDED010A9DED000A0ED0D4
:10498000022813D070B100F09BF8B1EE400A03B0DA
:104990005DF804FBDFED090A002000F013B900F018
:1049A0008FF8F4E7012000F00DF9F0E7012000F0A6
:1049B00009F9B1EE400AEAE7D80F493F00000000CC
:1049C00030B52DED028B83B08DED010A019C24F0F2
:1049D0000043B3F1FF4F10DB324B002C93ED007A14
:1049E000D3ED007A39DBF0EE406A87EE260A30EE2E
:1049F000270A03B0BDEC028B30BD2B4A93420FDD7A
:104A0000284A2A4B92ED000AD3ED007A30EE670A6D
:104A1000002CB8BFB1EE400A03B0BDEC028B30BD34
:104A2000B3F1105F23DBB3F17E5F214D29DB00F092
:104A300085FDD5ED007A20EE270A00F049FC194BE0
:104A4000D3ED007AD5ED006A95ED007A37EE000AD5
:104A500086EE807A37EEC70ADAE7DDED016A87EE87
:104A6000260A30EE670A03B0BDEC028B30BD0D4B59
:104A7000DDED017A93ED000A30EE270A20EE270AD9
:104A8000B7E795ED008A00F059FD28EE400A00F0E6
:104A90001FFC95ED007A37EE007AF1EE407A87EE52
:104AA000870AB5E72C24FF1FFFFFAF413024FF1F0B
:104AB0003424FF1FF0EE400AB0EE000A00F0AABB5B
:104AC00010EE103A23F00043B3F1485F2CDAFDEE0C
:104AD000C07A17EE903A002B60D020EE007ADFED1E
:104AE000317A9FED315ADFED315A9FED316ADFEDBA
:104AF000316AA7EE275ADFED307AE7EE055AA7EEC6
:104B0000256AE7EE067AE7EE276A67EE266A60EE28
:104B1000C00AF6EE007AE7EE260AB7EE000AD7EEF4
:104B2000270A30EE600A704720EE007ADFED1D7A2A
:104B30009FED1D5ADFED1D5A9FED1D6ADFED1D6AC9
:104B40001E4AA7EE275A9342DFED1B7AE5EE075A7D
:104B5000A5EE876AE6EE077AE7EE876A66EE876A71
:104B6000D5DD174A934214DC03F17F4307EE903AF8
:104B7000B7EE006A36EE676A60EEC00AF6EE005ADB
:104B8000D7EE257AE7EE260A77EEE07A36EE670A68
:104B90007047B6EE076AF5EE027AEDE7B7EE000A67
:104BA000704700BF4ED747ADF6740F317CF293B417
:104BB000010DD037ABAA2A3D610BB6BA9999993E3F
:104BC0000000483F10EE103A23F00043B3F1485F75
:104BD00004DAFDEEC07A17EE903A5BB360EE007A2D
:104BE0009FED157ADFED155A9FED156ADFED156A19
:104BF000E7EE875A9FED147AA5EEA76A20EE275AB2
:104C0000E6EE276AA6EEA77A30B9DFED106AE7EE86
:104C1000876AA6EE850A704727EE457AF6EE006AA7
:104C2000A0EEA67ADFED0A6AD7EE270AE5EE260A9D
:104C300030EE600A704700BFD3C92E2F342FD7B291
:104C40001BEF3836010D50B98988083CABAA2ABE43
:104C5000ABAA2A3E10EE103A23F00042B2F1FF4F09
:104C600056D84FEAD37100F095806248834200F332
:104C70008780002BC0F287805F4B9A424BD95F4BF5
:104C80009A4200F29A805E4B5E4A03EB8103D3EDB9
:104C9000004A02EB8102C1F1010370EE644AD2EDD9
:104CA000007A5B1A34EEE70ADFED576A9FED575A38
:104CB000DFED575A9FED576A20EE007AA7EE265A8D
:104CC000DFED556AE5EE075AE5EE876AA6EE876ADC
:104CD000F0EE406AE6EE476A002B42D0B0EE007A72
:104CE00020EE266A37EE667AB7EE000AC6EE076A4D
:104CF00013F17D0F77EEE67A77EEE47A30EE670A0D
:104D00004FDB10EE102A02EBC35300EE103A70474F
:104D100030EE000A7047B2F1505F0AD2DFED3F7A01
:104D200070EE277AB7EE007AF4EEC77AF1EE10FA59
:104D30005DDC60EE007A9FED347ADFED345A9FED52
:104D4000346ADFED356AE7EE875A9FED327AA7EED7
:104D5000A56AE7EE866AA7EEA67AF0EE406AE7EE6D
:104D6000C76AF0EE007A20EE266A76EEE76AB7EEC2
:104D7000007AC6EE267A77EEC07A37EE670A704779
:104D8000002000F041BA264B9A427FF675AF002012
:104D900000F034BADFED237A002918BFB0EE670ABD
:104DA000704710EE102A643302EBC353DFED1E7A16
:104DB00000EE103A20EE270A70471C4B9FED1C7A3C
:104DC000DFED1C6A03EB8103D3ED007AE0EE077A96
:104DD0009FED197AFDEEE77AF0EE404A17EE903A31
:104DE000F8EEE77AE7EEE64A67EE877A5AE730EEC2
:104DF000070A70471772B1421872B13E9115853F8C
:104E000028B3000030B300004CBB31330EEADDB5EF
:104E100055B38A38ABAA2A3E610B36BBCAF2497138
:104E2000B5F1CF42000000000000800D20B300006B
:104E30003BAAB83F8071313FD1F71737B1EEC00AB6
:104E4000704700BF70B510EE103A884A23F0004456
:104E5000944286B0054670DD854A944210EE106A91
:104E600022DC002BDFED837A834A24F00F04B0EEBE
:104E7000407A40F3E280944270EE677A09BFDFED3A
:104E80007F6A9FED7F7A9FED7F7A77EEE67A012049
:104E900077EEC76A77EEE67AC5ED006A77EEC77AF5
:104EA000C5ED017A06B070BD774A944254DDB4F185
:104EB000FF4F49DAE215863AA4EBC25307EE903A67
:104EC000BDEEE77ADFED716AB8EEC77A77EEC77AA2
:104ED0008DED037A67EEA67ABDEEE77AB8EEC77A73
:104EE00077EEC77A8DED047A67EEA67AF5EE407A12
:104EF000F1EE10FACDED057A40F08E80B5EE407AF5
:104F0000F1EE10FA14BF022301236149019102213D
:104F1000009103A8294600F019FB002EC2DA95ED96
:104F2000007AD5ED017AB1EE477AF1EE677A85ED38
:104F3000007AC5ED017A4042B4E7002285ED000A0F
:104F40004260002006B070BD70EE407A0020C5EDD2
:104F5000017AC5ED007AA5E700F0F0FA9FED4D7AF1
:104F60009FED446AF6EE007AE0EE077A9FED447A10
:104F7000FDEEE77A17EE900AF8EEE76A1F28A6EE34
:104F8000C60A66EE877AB1EE666A1EDC424A411EA8
:104F900024F0FF0352F82120934216D030EE677AB6
:104FA00085ED007A30EE470A002E30EE670A85ED77
:104FB000010ABFF677AFB1EE477AB1EE400A85ED50
:104FC000007A85ED010A40426CE730EE677AE2151F
:104FD00017EE103AC3F3C753C3EBD453082BDFDDEE
:104FE0009FED267A9FED275AF0EE405AE6EE075ADB
:104FF00070EE657AE6EE077AD6EE857A35EEE77AD8
:1050000017EE103AC3F3C753D21A192A06DCB0EED2
:10501000650A85ED007AC5E7032376E79FED1F7AE1
:105020009FED1F5AB0EE650AA6EE070A75EEC07A2C
:10503000E6EE077AD6EE857AB0E7944270EE277AEC
:1050400009BFDFED0E6A9FED0E7A9FED0E7A77EEC7
:10505000A67A4FF0FF3077EE876A77EEE67AC5EDF5
:10506000006A77EE877AC5ED017A1BE7D80F493FD2
:10507000E3CB1640800FC93FD00FC93F00443537FE
:105080004344353708A3852E800F494300008043F1
:10509000B8B3000084F9223F38B3000000A3852E86
:1050A00032318D2410EE102AC2F3C7537F3B162BEA
:1050B00022F0004131DC002B10EE100A18DB1A49F7
:1050C00019410A4228D0DFED197A70EE277AF5EE01
:1050D000C07AF1EE10FA1FDD002A04DD4FF4000261
:1050E00042FA03F3184420EA010300EE103A704735
:1050F000DFED0E7A70EE277AF5EEC07AF1EE10FA57
:105100000ADD002A06DBF7EE007A002918BFB0EEB0
:10511000670A70479FED060A7047B1F1FF4FFBD356
:1051200030EE000A704700BFFFFF7F00CAF24971EE
:105130000000008010EE102AC2F3C7537F3B162BED
:1051400022F000412ADC002B10EE100A18DB1A496D
:1051500019410A4221D0DFED197A70EE277AF5EE77
:10516000C07AF1EE10FA18DD002A04DA4FF40002DA
:1051700042FA03F3184420EA010300EE103A7047A4
:10518000DFED0E7A70EE277AF5EEC07AF1EE10FAC6
:1051900003DD002A08DB9FED0A0A7047B1F1FF4FDB
:1051A000FBD330EE000A7047FFEE007A002918BFEB
:1051B000B0EE670A704700BFFFFF7F00CAF2497177
:1051C0000000000010B582B08DED010A044601F028
:1051D000CDFB9DED010A046002B010BD30B1F1EECF
:1051E000407A27EE800A2220FFF7ECBFF0EE407AEB
:1051F00027EE800A2220FFF7E5BF00BF9FED010ADE
:10520000FFF7ECBF000000109FED010AFFF7E6BFBB
:105210000000007008B52DED048BB0EE608AB0EE92
:10522000409A00F0BFFCB4EE488AF1EE10FAF0EEBE
:10523000408A0BD6B5EE409AF1EE10FA17D1B5EED2
:10524000408AF1EE10FA06D1F7EE008AB0EE680A55
:10525000BDEC048B08BDB0EE480AFFF769FB0028DF
:10526000F4D0B5EEC08AF1EE10FAEFD525E0FFF7E5
:105270005FFB88B1F5EE408AF1EE10FAE6D1B0EEB0
:10528000490AFFF755FB0028E0D0B0EE480AFFF7C7
:105290004FFB0028DAD010E0B0EE490AFFF748FBD8
:1052A0000028E7D0B0EE480AFFF742FB0028E1D023
:1052B000F4EE688AF1EE10FA04D601F057FB2223CF
:1052C0000360C3E701F052FB21230360BEE700BF88
:1052D00010EE102A8A4922F000438B422AD9B3F1FA
:1052E000FF4F7ED800F0D680002AC0F28A80854A1F
:1052F000934200F2F1809FED847A20EE077AF6EE79
:10530000007A77EE877A9FED816ADFED816AFDEEA4
:10531000E77AB8EEE77A17EE903AF0EE407AE7EEE9
:10532000467A27EE267A37EEC70A77EEC07A77EE0E
:10533000C77A07E077498B4256D8B3F14C5FC0F08B
:1053400082800023B6EE003A20EE034ADFED726A57
:105350009FED726ADFED724A9FED725A20EE047A79
:10536000F7EE003AA7EE266ADFED6F6AE6EE074A2F
:10537000B0EE086AE4EE876AF1EE085AA6EE875AA4
:10538000F0EE636AE5EE076AA4EE666AE0EE465A5E
:1053900036EEC66AC6EE256A66EE876A002B4DD0E9
:1053A00076EEE76A5A1CD6EE807A77EEC77A63D03B
:1053B000012B51D05A1C392A33D8162B71DC4FF0EF
:1053C00080721A41C2F17E5207EE102A77EEC07A3F
:1053D00077EE677A17EE902A02EBC35300EE103A8D
:1053E000704730EE000A704750498B427AD8002A45
:1053F000DFED467A47DB9FED467A70EE677A012350
:1054000091E7DFED4B7A70EE277AF5EEC07AF1EE98
:1054100010FA64D49FED3C7AFEEE007A20EE077A13
:105420006FE777EEC07A73EEE77A17EE902A02EB19
:10543000C35307EE903A37EEE30A704790EE267AB0
:1054400030EE470A7047DFED3B7A70EE277A77EE51
:10545000E77A30EE670A7047BDEE007AB4EEC70A0D
:10546000F1EE10FA2FD530EE033AB8EE000A77EEDF
:10547000C37A27EE800A704770EE677ABEEE000AA4
:10548000A7EE830A70479FED2C7A70EE277A4FF0D3
:10549000FF3348E7FFEE007A002AB8BFB0EE670A94
:1054A0007047C3F17F02D20507EE102A77EE877AA4
:1054B00070EE677A77EEA37A17EE902A02EBC35369
:1054C00000EE103A704770EE677AB0EE007AE7EEC1
:1054D000873AB0EE630A70470020FFF795BEBFEE33
:1054E000000A70479FED087AF6EE007AFEEE006A39
:1054F000002A20EE077AB8BFF0EE667A01E700BF17
:1055000043B895411772B1423BAAB83F8071313F11
:10551000D1F717371872B13EBBED57B4547E8636BB
:10552000CD70A6B8898808BD010DD03A9115853F88
:105530006042A20DCAF24971D1F717B710EE103AC6
:1055400023F0004300EE103A704700BF2DE9F04F02
:105550002DED048BDBB01C4603930691A04B68999C
:10556000089253F82150111D824604F1FF38C0F211
:105570009882D31E48BF131DDB1002930133DB005A
:105580000793DDE907239B1A0593029B15EB08019E
:10559000A3EB080316D401319FED927A6998194460
:1055A0001EAA002BA4BF50F8234007EE904A03F137
:1055B0000103ACBFF8EEE77AF0EE477A8B42E2ECFB
:1055C000017AEED1002DC0F2DB82039B1EAA02EB12
:1055D000830446AE4FEA830C4046EF180AEB830182
:1055E000B8F1000FDFED7F7A09DB22465346F3EC7A
:1055F000016A32ED017A8B42E6EE877AF7D101300B
:10560000B842E6EC017A04F10404E9D10AAF07EBF1
:105610008503043B9FED759ADFED738A059804932B
:105620000AEB0C0407EB850946AE00955AAB03EB79
:105630008503002D13ED140A4FEA850B16DD06EBEA
:1056400085033A4660EE097AB0EE407AFDEEE77ADD
:1056500073ED016AF8EEE77AB342A7EEE87A37EE27
:10566000A60ABDEEC77AA2EC017AEBD1019000F058
:10567000DBFDB0EE408AB4EE000A28EE000AFFF728
:1056800059FDF2EE007AA0EE678A01980028FDEE3F
:10569000C89AF8EEE97A38EE678A76DD05F1FF3EC2
:1056A000C0F1080357F82E2042FA03FC0CFA03F36A
:1056B000D31AC0F1070119EE902A47F82E300B419A
:1056C0006244002B09EE902A67DCB5EE408AF1EEC9
:1056D00010FA40F0BE80009A05F1FF3B5A450EDCFF
:1056E0004FEA850C07EB850200219E4652F8043DE7
:1056F0004A4541EA0301F9D1002940F0F180009BBD
:10570000013B57F82330002B40F0E680049B4FF01C
:10571000010C53F8042D0CF1010C002AF9D06B1C7C
:10572000AC449E460299039A01EB030B0BF1804BAC
:1057300069992A440BF1FF3B06EB83051EAB01EB95
:105740008B0B03EB8201DBED017A9FED267AF8EEFD
:10575000E77AB8F1000F0BF1040BC1ED007A0A46AD
:1057600001F1040109DB534601E072ED017AF3EC2B
:10577000016AA342A6EEA77AF7D10EF1010EE64523
:10578000A5EC017ADFDD654650E740F09B806B1E9B
:1057900057F82330DB11002B97DD19EE902A002DEE
:1057A00002F1010209EE902A40F391813968002943
:1057B0007ED1012D26D03A464FF0010C52F8041F3D
:1057C000002979D00CF10102C1F58071954247F8AA
:1057D0002C1016DD57F82210BB4407EB82020AE0BA
:1057E000FCB6000000000000000080430000803B89
:1057F0000000C93F1168C1F1FF0142F8041B5A457E
:10580000F8D1012100280CDD012800F04181022897
:1058100007D105F1FF3C57F82C2002F03F0247F872
:105820002C20022B7FF451AFB7EE000A30EE488AED
:1058300000293FF44AAF0993019000F0F5FC38EEDF
:10584000408A099B0198B5EE408AF1EE10FA3FF4C8
:1058500042AF9846DDE90732B0EE480A981A019542
:10586000009D00F0E1FC1FED207A019BB4EEC70A19
:10587000F1EE10FAC0F255815FED247A059A60EEE0
:10588000277A0832FDEEE77A0592F8EEE77A03F11F
:10589000010BA7EEC70AFDEEE77ABDEEC00A10EED7
:1058A000102A47F8232017EE903A47F82B302BE0C8
:1058B00001224FF0000C87E70CF1010CAC457FF49E
:1058C0007DAF9FE7F6EE007AB4EEE78AF1EE10FACC
:1058D00080F2EC800023F8E66B1C9E469C4621E794
:1058E000059B009DA3F1080257F82B300592F04666
:1058F00053B9ACF104033B4453F8041D0BF1FF3BD7
:10590000083A0029F8D005920598B7EE000A00F091
:105910008BFCBBF1000FC0F229810BF1010646AAF6
:105920001FED4E7A4FEA860C07EB860302EB8602E8
:1059300073ED017AF8EEE77ABB4267EE807A20EEEB
:10594000070A62ED017AF3D1ACF1040346AA002DF7
:105950001FED596A02EB03044FF0000022DB8F4970
:10596000DFED8F7AB0EE467A2246002303E09842BC
:1059700008DBB1EC017AF2EC016A01339D42E6EEFC
:10598000877AF4DA5AAB03EB8003584543ED287A63
:105990004FEA800100F10102A4F1040405D0002DBA
:1059A0001046DCDADFED7E7AECE7689A022A1DDC2D
:1059B000002A00F38E8010D132ABDFED797A9C445F
:1059C0003CED017A634577EE877AF9D143460BB116
:1059D000F1EE677A069BC3ED007A19EE903A03F078
:1059E00007005BB0BDEC048BBDE8F08F689A032A1A
:1059F000F3D1BBF1000F00F0CB8032A813ED287A71
:105A000000EB8B020BF1804372ED017AF0EE476AF6
:105A100037EE277A904277EEC77A82ED007A77EEFA
:105A2000A67AC2ED017AEFD1BBF1010F40F3B0804D
:105A300001F5B4720DEB020111ED287A9A0033A939
:105A400000EB830373ED017AF0EE476A37EE277AB5
:105A5000994277EEC77A83ED007A77EEA67AC3EDA6
:105A6000017AEFD1131DDFED4E7A0344083033ED98
:105A7000017A984277EE877AF9D14346002B58D1C4
:105A80000699329A339B0A604B60C1ED027AA4E713
:105A900005F1FF3C57F82C2002F07F0247F82C203C
:105AA000BFE608230793002302936AE519EE903AB4
:105AB000002D03F1010309EE903AC8BF02233FF71E
:105AC00075AEF7EE007A37EEC88A0223FDE50021B5
:105AD00098E632ABDFED327A03EB860636ED017ADB
