:1000000000800020BD010000713200002D32000090
:100010002D3200002D3200002D3200002D32000064
:100020002D3200002D3200002D3200007132000010
:10003000713200002D320000294500002D450000DE
:100040007132000071320000713200007132000024
:100050007132000071320000713200007132000014
:100060007132000071320000713200007132000004
:1000700071320000713200007132000071320000F4
:1000800071320000713200007132000071320000E4
:1000900071320000713200007132000071320000D4
:1000A0006D4D0000794D000071320000713200008A
:1000B00071320000713200007132000071320000B4
:1000C00071320000713200007132000071320000A4
:1000D0007132000071320000713200007132000094
:1000E0007132000071320000713200007132000084
:1000F0007132000071320000713200007132000074
:100100007132000071320000713200007132000063
:100110007132000071320000713200007132000053
:100120007132000071320000713200007132000043
:100130007132000071320000713200007132000033
:100140007132000071320000713200007132000023
:10015000AD2F0000C92F0000E52F00000130000086
:10016000713200001D380000713200007132000051
:1001700071320000713200007132000071320000F3
:1001800071320000713200007132000071320000E3
:1001900071320000713200007132000071320000D3
:1001A00071320000713200007132000071320000C3
:1001B0007132000071320000352D0000574B4CF2B7
:1001C000205210B5DA814DF62812DA8100BF00BF47
:1001D00003F052F8524B4FF010621A63514A9A637F
:1001E000514ADA63514A136913F4807303D153619E
:1001F0004FF4A85313614E4B9A78110703D59A78A0
:1002000042F008029A704B4B4B482A221A704B4B13
:10021000DA1C121AC11E22F00302994288BF002282
:10022000474902F02FFF474B4748DA1C121AC11EFC
:1002300022F00302994288BF0022002107F0CEFA83
:10024000424943484FF4DE7202F01CFF414B424AE0
:10025000802103F8011B9342FBD14FF0E0233C4A7D
:10026000C3F8082D3D4B8A221A70A3F5805324222F
:100270005A70A0221A709A799207FCD59A79D406FE
:10028000FCD4374B9A7902F00C02082AFAD10522E5
:100290001A7143225A719A799006FCD5304A9379A3
:1002A0005906FCD51E4B4FF08171596405219964A4
:1002B00020211170917901F00C010C29FAD1294A01
:1002C0005A604FF0E023284A5A6100229A610722BF
:1002D0001A61264AC3F8202D62B603F0E3F8134BE7
:1002E0005B69DA0705D5224803F0D0F8214B224A92
:1002F000DA61224B1B785B0609D51E4C1E4BE26966
:100300009A4204D11A4803F0C1F80023E36102F0D5
:10031000B9FF07F0D3FA02F0ADFEFEE7002005407A
:1003200000800440823F04000100002B00D0034005
:1003300000D0074000E00740309CFF1FD8A7FF1FF8
:1003400058C5000074B1FF1FD8A7FF1F00000000B0
:100350000092FF1F00E400E05FE400E00050064070
:1003600000400640C01005003F1901000000202099
:100370007A4C7E6A00E00340A5C3945A00F007401F
:10038000FFFFFFFFFFFFFFFFFFFFFFFFFFFFFFFF7D
:10039000FFFFFFFFFFFFFFFFFFFFFFFFFFFFFFFF6D
:1003A000FFFFFFFFFFFFFFFFFFFFFFFFFFFFFFFF5D
:1003B000FFFFFFFFFFFFFFFFFFFFFFFFFFFFFFFF4D
:1003C000FFFFFFFFFFFFFFFFFFFFFFFFFFFFFFFF3D
:1003D000FFFFFFFFFFFFFFFFFFFFFFFFFFFFFFFF2D
:1003E000FFFFFFFFFFFFFFFFFFFFFFFFFFFFFFFF1D
:1003F000FFFFFFFFFFFFFFFFFFFFFFFFFFFFFFFF0D
:10040000FFFFFFFFFFFFFFFFFFFFFFFFDEF9FFFF23
:100410000548064B1B1AD90F01EBA301491002D066
:10042000034B03B118477047D8A7FF1FD8A7FF1F7A
:100430000000000008B5054B1BB105490548AFF3A6
:100440000080BDE80840FFF7E3BF00BF00000000E8
:10045000D8A7FF1F50C500002DE9F04F43698BB0AE
:100460000190032B00F20382DFE813F0B700620172
:1004700025000400019DAA496C68204606F0C8FCCE
:1004800004F0B0FCA96803462046029306F0B8FBCE
:100490004FF07E51044606F06DFE002800F0F68114
:1004A0004FF07E51204606F0A9FB019B5860029850
:1004B0000BB0BDE8F08F019CD4F804804FF07C5164
:1004C000404606F043FEA36806934FF081410028A2
:1004D00040F0C081404606F09BFC0146914806F082
:1004E0008DFB0290069C0021204606F04DFE002860
:1004F00000F003814FF08241204606F089FC4FF066
:1005000083410746204606F083FC014605460790D6
:10051000404606F073FB05F05DF906F055FE2946EE
:100520000446404606F06CFB05F096F906F04CFEDA
:10053000844200F33282431C0593019B0025D3F8CB
:100540000CB04FF0834A4FF085492BE07648039377
:1005500050F823200492591C50F82100114606F04F
:100560004DFB039B01461846039106F0FDFB014637
:10057000304606F043FB039B0146184606F048FC54
:10058000049A114606F03CFB0146384606F040FC52
:100590000146284606F034FB059B01349C42054683
:1005A00000F0FC81204606F0DFFB0146404606F0E5
:1005B00025FB594606F02CFC514606F021FB494626
:1005C00006F026FC064605F047F906F0FDFDB0F5FD
:1005D000006F0346BAD30021D7E7019ED6F8048006
:1005E000B46806944146404606F00AFB4FF07E513F
:1005F00006F004FB00210290204606F0C5FD00280D
:100600007BD04FF08341204606F002FC01460546B0
:10061000404606F0F3FA05F0DDF806F0D5FD294670
:100620000446404606F0ECFA05F016F906F0CCFD5B
:10063000844200F32F82431CD6F80CB005930027A8
:100640004FF0834A4FF08549204606F08DFB014666
:10065000404606F0D3FA594606F0DAFB5146054605
:1006600006F0CEFA494606F0D3FB064605F0F4F84C
:1006700006F0AAFDB0F5006F04F10104034634D280
:100680002A48039350F823200492591C50F8210063
:10069000114606F0B3FA039B01461846039106F093
:1006A00063FB0146304606F0A9FA039B0146184653
:1006B00006F0AEFB049A114606F0A2FA00210346AA
:1006C00028461D4606F056FD28B128464FF07E51BB
:1006D00006F094FA05464FF04041284606F098FB94
:1006E0000146384606F08CFA0746059B9C42ABD182
:1006F0000298394606F084FA02900699404606F0C0
:100700007FFA4FF07E51044606F034FD00287FF456
:10071000C7AE019B02985C600BB0BDE8F08F00BFD4
:10072000DB0FC940000040406C7E0000709E00005E
:10073000019C2369606808931946039006F006FD42
:10074000A3680793002840F08E80AA4B0293079C71
:100750000021204606F018FD002800F01B814FF014
:100760008341204606F054FB039E0990014605464E
:10077000304606F043FA05F02DF806F025FD29462F
:100780000446304606F03CFA05F066F806F01CFD1B
:1007900084427DDC431C0693019B0025D3F80CA00A
:1007A0004FF083494FF08548AB4637E092480493B9
:1007B00050F823200592591C50F82100114606F0EC
:1007C0001DFA049B01461846049106F0CDFA014635
:1007D000384606F013FA049B0146184606F018FB4B
:1007E000059A114606F00CFA5946034630461E4655
:1007F00006F0C0FC28B130464FF07E5106F0FEF9FD
:1008000006463146304606F0FBF90146284606F01A
:10081000F7F9069B01349C4205463AD0204606F083
:10082000A3FA0146039806F0E9F9514606F0F0FAFA
:100830004946064606F0E4F9414606F0E9FA07465D
:1008400005F00AF806F0C0FCB0F5006F0346ADD322
:100850005946DBE7404606F0DBFA4FF07E5106F0E2
:10086000CDF902903EE64FF07E5302936FE7019D73
:10087000A968686806F0C4F94FF07E51044606F096
:1008800079FC002840F00C81002302936C600EE696
:1008900000252946029806F0B3F9089906900398B6
:1008A00006F0ACF9099C2146804606F0A7F904F051
:1008B00091FF06F089FC21460446404606F0A0F967
:1008C00004F0CAFF06F080FC844200F3E780431C7A
:1008D0000593019BD3F80CB000274FF0834A4FF0EB
:1008E0008549204606F040FA0146404606F086F962
:1008F000594606F08DFA5146054606F081F94946FB
:1009000006F086FA064604F0A7FF06F05DFCB0F597
:10091000006F04F10104034634D23748029350F8C3
:1009200023200492591C50F82100114606F066F964
:10093000029B01461846029106F016FA014630461F
:1009400006F05CF9029B0146184606F061FA049A2B
:10095000114606F055F90021034628461D4606F0CB
:1009600009FC28B128464FF07E5106F047F90546AC
:100970004FF04041284606F04BFA0146384606F053
:100980003FF90746059B9C42ABD10698394606F0D5
:1009900037F9029007990398B1E600250299284695
:1009A00006F02EF94FF07C510490404606F026F9EF
:1009B000079C2146814606F021F904F00BFF06F062
:1009C00003FC21460446484606F01AF904F044FFA9
:1009D00006F0FAFB844207F100475DDC431C0393F9
:1009E000019BCDF81480D3F80CB000254FF0834A5A
:1009F0002DE000BF000080BF709E00002D4A0290D5
:100A000052F82080411C52F82100414606F0F6F8C9
:100A1000029B01461846029106F0A6F901463046AF
:100A200006F0ECF8029B0146184606F0F1F9414643
:100A300006F0E6F80146384606F0EAF9014628468F
:100A400006F0DEF8039B01349C4205461AD020468E
:100A500006F08AF90146484606F0D0F8594606F0F5
:100A6000D7F9514606F0CCF84FF0854106F0D0F9A1
:100A7000064604F0F1FE06F0A7FBB0F5006FBDD30B
:100A80000021D8E7DDF814800499284606F0B8F86C
:100A9000029032E600272BE60025F5E7002774E7F1
:100AA0004FF07E51204606F0A9F800230293019BE7
:100AB0005860FCE46C7E00002DE9F84F0D460446BA
:100AC00000212846924606F05FFB002800F09C813A
:100AD000B049284606F03AFB002840F0FA80AD49BC
:100AE000284606F033FB002840F09681AA4BDFF839
:100AF000AC821E46236000236361C4F8B050A66137
:100B0000404604F03FF901464FF07E5006F076F87B
:100B1000A349A062304606F07BF90146A14806F0E1
:100B20002BFA04F02FF901464FF07E5006F066F8DC
:100B30009D49E062304606F06BF90146994806F09F
:100B40001BFA04F01FF901464FF07E5006F056F8EC
:100B50004FF00009954B206363624946284606F032
:100B600013FB002800F036818A49284606F0EEFA89
:100B7000002840F0BC80884B63638D4BA3634FF02B
:100B80007E53C4F83C9023648249284606F0DEFA7E
:100B900004F16C0B002840F0D0807E497E4F28463F
:100BA00006F0D4FA002840F0CB80B946814BE366CA
:100BB000C4F88830804BA36563670123636604F142
:100BC0008803C4F88430D6460023C4F88030BEE8D9
:100BD0000F0004F18C0CC4F868B06765C4F870901D
:100BE000ACE80F00BEE80F00ACE80F00DEF8003004
:100BF000CCF800304046D4F8A88004F0C3F8014691
:100C00004FF07E5005F0FAFF0021A062404606F04A
:100C1000A7FA002840F0BB803146404606F0F8F8BD
:100C20000146604806F0A8F904F0ACF801464FF020
:100C30007E5005F0E3FF6149E062304606F0E8F8D7
:100C40000146584806F098F904F09CF801464FF028
:100C50007E5005F0D3FF3946002720636762D4F841
:100C60009C0006F089F93946064606F083FA00280A
:100C70003BD04FF07C51304606F086FA002861D018
:100C80004FF000434946D4F8A400236606F074F9F7
:100C90000021064606F06EFA40B14FF07C51304616
:100CA00006F072FA002860D04FF000404FF07C51FF
:100CB000E067284606F0ACF84FF07C5105F0A0FF45
:100CC00006F082FA0228B8BF0220C4F8B400BDE8DA
:100CD000F88F3B49284606F09BF80146394806F054
:100CE0004BF92E4680462B4604E70346CAE73649B1
:100CF0006563284606F08CF83449074606F026FA64
:100D0000002800F095803249384606F081F82946DF
:100D10000746284605F074FF0146384606F02CF9D0
:100D200004F030F801464FF07E5005F067FF0023D5
:100D3000E3634FF07E53A063236404F16C0B2F46F2
:100D4000A94633E73946304606F01EFA0028CCD0D3
:100D50004FF09F41304606F05BF84FF07C5105F0B4
:100D60004FFF06F057FA03468CE70021304606F0A5
:100D70000BFA00289AD04FF09F41304606F048F811
:100D80004FF07C5105F03CFF06F044FA8EE74FF03F
:100D90007E5050E78096184B00803B4749FF15BBBB
:100DA000CDCCCC3D8E5D93C0CDCC4C3E3333333F68
:100DB000B8BF813D979B28ADEC0A073F0AD7A33DFA
:100DC0000AD7233C549F8CBF6666E63E00007A44F7
:100DD000DB0FC9C0174B184FA3634FF07E53C4F805
:100DE0003C90676323644946284606F0CDF9002805
:100DF0007FF4CAAE4946284606F0C6F904F16C0BEA
:100E000000283FF4D2AEC8E60021284606F0BCF91F
:100E100000283FF46BAE62E60849284605F0F8FF6B
:100E20000146074806F0A8F82E46034B804661E6C7
:100E3000044F68E7B8BF813D00803B470AD7233C99
:100E4000549F8CBF00007A442DE9F04F664D674CEB
:100E50002E68674FDFF89C918DB040F2EE2803F0CA
:100E6000C9FA2378002B00F0B0803B78DB0740F113
:100E7000AC802B68D9F800209B1A0E2B40F2A5807D
:100E80005D485E4C5E4D5F4E01F050FA40215A487D
:100E900001F080FA5C4BA3610023636163635B4AEA
:100EA0005B49A2604FF07A53E160E3610FCD0DF131
:100EB0000C09CC46CDF80090CDF80490CB46A9E8BB
:100EC0000F0095E8070089E80700BBE80F0004F170
:100ED000540A266026672662A663AAE80F0099E8EE
:100EE00007008AE80700494AA2624A4AA2644A4ABD
:100EF000E2644A4A22654A4A62644549E16205F170
:100F00000C0845F22B6200236267C4F89030B8E801
:100F10000F0005F1280E65460FC598E80700414B04
:100F2000C4F80861E667C4F89460C4F8B06089E862
:100F30000700C4F8D0304FF07E53C4F8D8303A4B95
:100F4000C4F88430394BC4F88830394BC4F8A43025
:100F5000384BC4F8A830384BC4F8C030374BC4F80D
:100F6000C43042F61533364AC4F80C3165460023C6
:100F7000C4F8D430C4F8AC20C4F8C820C4F8A030F9
:100F8000C4F8BC300FCD04F1EC070FC799E8070097
:100F9000C4F8CC6087E80700BEE80F00ACE80F009B
:100FA000BEE80F00ACE80F00DEF80030CCF80030EF
:100FB000314604F58A7003AAFFF77EFD21480C2113
:100FC0000DB0BDE8F04F01F093BC2B6822789B1B5D
:100FD00032B1B3F5FA6F3FF653AF03F00BFA3EE7C9
:100FE0004345FAD94CE700BF20ADFF1F11AEFF1FEC
:100FF00038AEFF1F3CAEFF1F2CACFF1F389DFF1FFC
:1010000074BE0000A6552C4700005C433167A33B2B
:10101000E688484380CAA23B00F0633A00E0DA3930
:10102000CDCC0C3FF8C38C3D3167233BE688C843E9
:10103000005DCB3B0030733940BB4A3C00B0F8390F
:1010400000AD083B0082FF1F2DE9F041124DDFF893
:101050004C80134E134F0024C8F80040284601343A
:101060002DB106F06DFC0146284603F0BDF8384668
:1010700001F0F2FF4FF47A6002F0C8FA042C08D0B5
:1010800056F8045FC8F8004028460134002DE8D126
:10109000EDE7BDE8F08100BF987D000038ACFF1F90
:1010A000D0BE0000F09FFF1F2DE9F04F83468DB0AA
:1010B00019B3012902D00DB0BDE8F08F9368D0F8C4
:1010C000F4400193D3680A9300F1980320460B93F0
:1010D0001768566805F044FE4FF03E5105F098FE43
:1010E000DBF8FC300546042B00F26A85DFE813F0DC
:1010F000D704180507050F054D029368D0680193C2
:101100008342D2E900120990D5DA03F18043013B12
:10111000DBF8948001EB830102EB830302910393DC
:10112000B8F1000F40F077810123CBF81C30CBF8E9
:101130003830DBF83C404FF07F50214605F05EFD33
:10114000DBF8441005F064FE214605F059FD4FF030
:101150007E51044606F00EF8002800F003824FF09E
:101160007E53CBF83C300223CBF838304FF07E541E
:10117000DBF87850DBF87400294605F03FFD214686
:1011800005F046FE294605F03BFDDBF85070DBF824
:101190007C5004463946384605F032FDBB490646C8
:1011A000204605F0D3FF002840F0D481B8493846E6
:1011B00005F02EFE07460146204605F0E5FF002813
:1011C00040F0D381B349204605F022FE314605F0B8
:1011D000D3FE03F0D7FD01464FF07E5005F00EFD23
:1011E00000210446CBF85400284605F0AFFF002844
:1011F00040F0B281A849284605F0C6FF002840F01B
:10120000AE8128464FF0814105F002FE82464FF044
:101210007E53CBF85C30CBF858A05846FFF71CF94A
:101220004FF07C51054605F0F3FDDBF86C2007928A
:1012300081460146104605F0E1FC514605F0E8FD07
:1012400001462846049505F0D9FC03F003FEDBF8BF
:1012500060600546304603F0FDFD0146284605F076
:10126000CDFC214605F0D4FD314605F0C9FC0590C2
:1012700003F0F0FDDBF864500746284603F0EAFD72
:101280000146384605F0BAFC214605F0C1FD294665
:1012900005F0B6FC069003F0DDFDDBF8685006466D
:1012A000284603F0D7FD0146304605F0A7FC21464D
:1012B00005F0AEFD294605F0A3FC089003F0CAFD39
:1012C000079A0546104603F0C5FD0146284605F07D
:1012D00095FC214605F09CFD079A114605F090FC0F
:1012E0004946814605F08AFC514605F091FD0146CC
:1012F000049805F083FC03F0ADFD394605F07EFC53
:10130000214605F085FD059905F07AFCCBF86000D3
:1013100003F0A0FD314605F071FC214605F078FD93
:10132000069905F06DFCCBF8640003F093FD2946A7
:1013300005F064FC214605F06BFD089B194605F09D
:101340005FFCCBF8680003F085FD0546484603F0D6
:1013500081FD0146284605F051FC214605F058FD67
:10136000494605F04DFCDBF81C30CBF86C00013B26
:101370000446032B00F21C84DFE803F092665E0251
:10138000DBF82050DBF83010284605F041FD01461F
:10139000284605F033FC4149054605F0D7FE0028F4
:1013A00000F0E8800023CBF820300023CBF81C307D
:1013B00000252046294605F02BFD0446019DDBF85B
:1013C000881020460135019505F022FD029B044658
:1013D00053F8040F029321461E4605F011FC039BAF
:1013E000306053F8040F039321461C4605F008FCB7
:1013F000DBF89030206008F101089845A8BF4FF055
:101400000008099BCBF89480AB423FF454AEB8F18E
:10141000000F3FF489AEDBF83830013B032B00F2BC
:10142000CC8301A252F823F03311000015150000FF
:101430000B150000DB140000DBF82410CBF82010A3
:1014400005F0E6FC0446B9E7DBF82050DBF8246041
:101450002946304605F0D2FBDBF82C1005F0D8FC0D
:10146000294605F0CDFB3146054605F0C7FB0B4983
:1014700020F0004005F06AFE00287BD00323CBF863
:1014800020603546CBF81C3093E700BF6F12833ADB
:101490006666E63EDB0FC9C06666863F17B7D13881
:1014A000DBF820504FF07F50294605F0A7FBDBF812
:1014B000281005F0ADFC294605F0A2FB4FF07E5147
:1014C000054605F057FE002857D04FF07E53CBF865
:1014D00020300223CBF81C3070E7DBF83C40DBF80F
:1014E0004C10204605F094FC0146204605F086FB92
:1014F0004C49044605F02AFEA0B30023CBF83C304B
:101500000023CBF83830002432E6DBF84040CBF83B
:101510003C402DE6DBF83C40DBF8405021462846B5
:1015200005F06CFBDBF8481005F072FC214605F075
:1015300067FB2946044605F061FB3A4920F000406C
:1015400005F004FE70B10323CBF83C502C46CBF8D9
:1015500038300DE6344839E64FF0000A57E6DFF838
:10156000CCA054E6CBF83C4002E63149384605F0C1
:101570004FFC2BE6CBF820501BE72046CBF8205041
:10158000294605F045FC044618E74FF07E51DBF88C
:10159000F00005F035FB4FF07C5105F039FC80463A
:1015A000DBF8F830E418CBF8F44024D3DBF8002162
:1015B0000AB311681F4B0B44136083EAD33043F026
:1015C000010303FB00F040F03D0280EAD01302FB70
:1015D0000303584080EA903005F0C2FB4FF03E51C3
:1015E00005F016FC014605F00BFB4FF07E5105F0AF
:1015F00005FBCBF8F000DBF81041204605F0B0FB0E
:101600004FF03E5105F004FCDBF818310546042B81
:1016100000F2CC82DFE813F0630252026A023B025E
:10162000100000BF17B7D1382FE3CDBB66668640E8
:10163000DB0FC9C0F5792B6DDBF80C51DBF81431E9
:10164000E418CBF8104124D3DBF81C210AB311684D
:101650005F4B0B44136083EAD33043F0010303FB79
:1016600000F040F03D0280EAD01302FB0303584033
:1016700080EA903005F074FB4FF03E5105F0C8FB56
:10168000014605F0BDFA4FF07E5105F0B7FACBF8F0
:101690000C01DBF83811284605F0BAFB4D4905F07E
:1016A0006BFCDBF8244103F045FC0146204605F0C5
:1016B000AFFBDBF8981005F05FFC002421460546DF
:1016C00005F044FD002840F04382DFF80C912846E5
:1016D000494605F059FD002840F03F82CBF8A05064
:1016E0002146284605F050FD28B129464FF07E508E
:1016F00005F042FC0446DBF83011CBF8A44040462C
:1017000005F086FBDBF8284103F014FC0146204677
:1017100005F07EFBDBF8CC90DBF82C8104464946D3
:10172000484605F06DFA2D490546204605F00EFDA8
:10173000002840F00B822A49484605F069FB8146A3
:101740000146204605F020FD002840F00C82254986
:10175000204605F05DFB294605F00EFC03F012FB68
:1017600001464FF07E5005F049FA0021CBF8D00039
:10177000404605F0EBFC002840F0ED811A49404658
:1017800005F002FD002840F0EC8140464FF0814119
:1017900005F03EFB4FF07E530A9ACBF8D830019B00
:1017A000CBF8D4009342BFF686AC03F18043013BF3
:1017B000DBF850A107EB830206EB8303039202934D
:1017C000D146B9F1000F11D10123CBF8B4300DE0AF
:1017D000F5792B6D0000964448E1FA3E6F12833A8A
:1017E0006666E63EDB0FC9C06666863F0B98FEF76D
:1017F00033FE4FF07C51054605F00AFBDBF8D43090
:10180000DBF8E8A01C4680460146504605F0F6F994
:101810002146069405F0FCFADBF8D8300495014621
:1018200028461D4605F0EAF92946059505F0F0FA27
:1018300003F010FBDBF8DC60DBF8D04005463046F7
:1018400003F008FB0146284605F0D8F9214605F0CB
:10185000DFFA314605F0D4F9079003F0FBFADBF824
:10186000E0500746284603F0F5FA0146384605F0F1
:10187000C5F9214605F0CCFA294605F0C1F90990D1
:1018800003F0E8FADBF8E4500646284603F0E2FAF3
:101890000146304605F0B2F9214605F0B9FA29466D
:1018A00005F0AEF9089003F0D5FA0546504603F06E
:1018B000D1FA0146284605F0A1F9214605F0A8FA1B
:1018C000514605F09DF94146804605F097F9069985
:1018D00005F09EFA0146049805F090F9059905F087
:1018E00097FA03F0B7FA394605F088F9214605F072
:1018F0008FFA079905F084F9CBF8DC0003F0AAFA17
:10190000314605F07BF9214605F082FA099A114625
:1019100005F076F9CBF8E00003F09CFA294605F0D3
:101920006DF9214605F074FA089B194605F068F92F
:10193000CBF8E40003F08EFA0546404603F08AFA3D
:101940000146284605F05AF9214605F061FA41465C
:1019500005F056F9DBF8B430CBF8E800013B04465B
:10196000032B00F21E81DFE803F075544C02DBF814
:10197000B850DBF8C810284605F04AFA0146284658
:1019800005F03CF99049054605F0E0FB002800F021
:10199000D2800023CBF8B8300023CBF8B430002538
:1019A0002046294605F034FA0446019DDBF844112F
:1019B00020460135019505F02BFA039B044653F8A8
:1019C000040F039321461E4605F01AF9029B30606E
:1019D00053F8040F029321461C4605F011F9DBF879
:1019E0004C31206009F101099945A8BF4FF0000969
:1019F0000A9BCBF85091AB427FF4E3AE0DB0BDE84B
:101A0000F08FDBF8BC10CBF8B81005F001FA0446F3
:101A1000CBE7DBF8B850DBF8BC602946304605F070
:101A2000EDF8DBF8C41005F0F3F9294605F0E8F805
:101A30003146054605F0E2F8634920F0004005F024
:101A400085FB002877D00323CBF8B8603546CBF868
:101A5000B430A5E7DBF8B8504FF07F50294605F0C9
:101A6000CDF8DBF8C01005F0D3F9294605F0C8F829
:101A70004FF07E51054605F07DFB00285ED04FF00B
:101A80007E53CBF8B8300223CBF8B4308DE74FF05B
:101A90007C5105F05BFB00287DD14C4DCEE54C49D7
:101AA00005F0B6F903F09EF94FF07E5105F0A8F865
:101AB0004FF07C5105F0ACF9804671E54FF07C5158
:101AC00005F044FB002853D028464FF0814105F033
:101AD0009FF94FF07E5105F091F80546AEE53C497F
:101AE00005F096F903F07EF90546A7E5014605F0F5
:101AF00087F84FF07E5105F081F805469EE50146D6
:101B000005F07EF84FF07E5105F078F8CCE74FF005
:101B10007C5105F01BFB002840D14FF000083FE549
:101B20004FF07C5105F012FB68B328464FF081411D
:101B300005F06EF9E6E7CBF8B85031E72046CBF870
:101B4000B850294605F064F904462EE7214802E61C
:101B5000CBF8A040CFE500201CE61F4CCBF8A090AE
:101B6000C9E51E4816E61E49484605F051F9F2E55A
:101B700028464FF0814105F04BF90146194805F020
:101B80003DF805465AE54FF08141284605F040F9F9
:101B900001461448B8E74FF07E554FE54FF07E58A8
:101BA000FEE4002105F034F90446FEE6002545E593
:101BB000002105F02DF9044600E40024FFF7D8BA0F
:101BC0004FF07C58ECE400BF17B7D138000080BF5D
:101BD000DB0FC9402FE3CDBBBC9C0240666686404C
:101BE000DB0FC9C0000040402DE9F04F8DB00290DE
:101BF00000F0F2FE0190002800F0DB8000F0ECFE27
:101C00000390002800F0A681AE4CAF4D4FF4007257
:101C10000021204605F0E2FD4FF400720021284625
:101C200005F0DCFD029B9B69196800228023CDE949
:101C30000845CDE90A23002969D1DFF89082231FE6
:101C4000043DD8F81C60059504F5FE7B04931C4602
:101C50004046FEF701FC314605F0DAF80746394602
:101C600054F8040F04F0CCFF3946206055F8040FF7
:101C700004F0C6FFA3452860EAD1039B049C059DA0
:101C8000DFF84C829F1C019B4FF07E599E1C2EE07A
:101C90004946504605F078FA002840F083808D4987
:101CA000504605F0B5F805F08FFA00B255F804AFCC
:101CB00026F8020F5146504605F070FA002874D1FC
:101CC0004146504605F056FA00284DD04946504648
:101CD00005F05AFA002862D17E49504605F098F87E
:101CE00005F072FA00B2A34527F8020F41D054F86C
:101CF00004AF5146504605F051FA002857D14146ED
:101D0000504605F037FA0028C2D17348CEE70129C2
:101D100052D1A5F1040A6D4DCDF814A0261F04F58B
:101D2000FE7BD5F87490AC6FEF6E0496002C54D007
:101D3000484605F019F8A96E05F06AF805F044FA6E
:101D4000A04200F0F2806548D5F83C80FEF784FBA5
:101D500008F1FF320346032A00F2EE80DFE812F0BA
:101D60004F008500AC00CA005B4827F8020FA3456E
:101D7000BDD1019E029D00223146284600F0ACFEF6
:101D8000039C01222146284600F0A6FE304600F0C2
:101D900079FE20460DB0BDE8F04F00F073BE47F667
:101DA000FF70A0E747F6FF7080E700209BE7002068
:101DB0007CE70DB0BDE8F08F2B1F49480593023931
:101DC00008AAFFF771F9231F049304F5FE7B54E77B
:101DD0000023B345AB673FF450AF0123EB634846A4
:101DE00004F0C2FFA96E05F013F805F0EDF9044602
:101DF000002879D03948FEF72FFB00240346D5F898
:101E00004080069341464FF07F5004F0F7FEA96CE6
:101E100004F0FEFF414604F0F3FE4FF07E51804691
:101E200005F0A8F9069B002800F08C804FF07E5248
:101E30002A640222EA631946384604F0E9FF804624
:101E4000414656F8040F04F0DBFE414630605AF874
:101E5000040F04F0D5FE01344C45CAF80000B7DA8F
:101E6000B345AC677FF462AF07E76A6CD5F8408092
:101E7000079041461046069204F0C0FEE96C04F05B
:101E8000C7FF414604F0BCFE069A1146804604F0A6
:101E9000B5FE144920F0004005F058F9069A079B5A
:101EA00000283FD02A6490460322EA631846414640
:101EB00004F0AEFF0346BEE7696C296404F0A8FF96
:101EC0000346B8E7F0A9FF1FF0A7FF1F389DFF1FCB
:101ED000000080BF00FEFF460180FFFF589DFF1FEE
:101EE000B49DFF1F17B7D1380423EB631A48FEF7E0
:101EF000B3FA0346D5F84080296D0693404604F0B6
:101F000087FF0146404604F079FE1449804605F0FB
:101F10001DF9069B30B100222A640022EA634FF0CB
:101F20000008C3E7C5F84080C0E7EB6B002BDBD1AE
:101F30000948FEF791FA03461846002104F068FFAD
:101F4000034678E71846C5F84080414604F060FF34
:101F5000034670E701981DE7589DFF1F17B7D1385A
:101F600010B52D492D4A0C682D481060002382B011
:101F700013611381D360002C4AD0234619465B6954
:101F8000002BFBD14A61274B2748106000212748CE
:101F90009061516151609172022003F118025872F0
:101FA0001A611972D9609961D96122466469002C5D
:101FB000FBD153611E4A5C615C609C721A601948D7
:101FC00000F092FB1B4B1C4919600A221A721B4835
:101FD00000F0B0FD134B114900942246174800F061
:101FE0001DFE174A1749154802F046FB164800F037
:101FF000A1FD0122009209490A4B134800F00EFE90
:102000000F4A1049104802B0BDE8104002F034BB3E
:102010000A601446B7E700BF8CACFF1F10ACFF1F6F
:10202000CC7D0000F0ABFF1FD87D000038ACFF1F57
:1020300004BF00002CACFF1FE8BE00003CACFF1F3B
:10204000349DFF1FD12C000050ACFF1F00207047B3
:1020500000207047F8B51F4C037A0D465A0001273F
:10206000C1F307210646204684F8632084F8AE7049
:1020700084F8AD7002F02AFBE9B2204602F026FB9C
:102080000021204602F004FD08B10020F8BD317A9D
:102090003B460222204602F071FD0128F5D994F852
:1020A000602094F86100824210D2A118531CDBB268
:1020B000097E84F8603098424FEA012106D9234412
:1020C0000232187E84F860200843F8BD4FF0FF30DC
:1020D000F8BD00BF10A1FF1FF8B5154C037A2429E5
:1020E0004FF0010708BFC280BB400D462046C1F338
:1020F0000721164684F8633084F8AE7084F8AD701A
:1021000002F0E4FAE9B2204602F0E0FAC6F3072151
:10211000204602F0DBFAF1B2204602F0D7FA394647
:10212000204602F0B5FCB0FA80F04009F8BD00BFCF
:1021300010A1FF1FF8B504467A480E46154602F076
:1021400055FB052001F062FA06212046FFF782FFC9
:10215000002E77D0B02800F0E0800127277144F2EC
:10216000600230212046FFF7B7FF002873D06C22B1
:1021700026212046FFF7B0FF4FF4F97228212046B0
:10218000FFF7AAFF40F622722C212046FFF7A4FF9A
:1021900044F246423C212046FFF79EFF40F23712B0
:1021A00024212046FFF798FF5F4B9E4200F2AF804C
:1021B000002234212046FFF78FFF284604F0D0FD8F
:1021C000B5FBF6F50746304604F0CAFD0146384631
:1021D00004F0D2FE05F01F050646284604F0C0FDB7
:1021E0000146304604F00AFD4FF08A4104F010FE2B
:1021F00005F010F8C0F30A0242EAC5223221204657
:10220000FFF76AFF44F2FF5230212046FFF764FFD8
:10221000732202212046FFF75FFF4FF4C87001F0E0
:10222000F5F941F61D522E212046FFF755FF0722F2
:1022300004212046FFF750FFB02206212046FFF779
:102240004BFF46E00123237144F260023021204617
:10225000FFF742FF08B90020F8BD6C222621204676
:10226000FFF73AFF4FF4F97228212046FFF734FFB9
:1022700040F622722C212046FFF72EFF44F2464200
:102280003C212046FFF728FF40F237122421204648
:10229000FFF722FF44F2FF0230212046FFF71CFF28
:1022A000732202212046FFF717FF4FF4C87001F098
:1022B000ADF941F61D522E212046FFF70DFF0422F5
:1022C00011462046FFF708FF302206212046FFF77F
:1022D00003FF10220A212046FFF7FEFE00220E21F6
:1022E0002046FFF7F9FE43F63C4210212046FFF757
:1022F000F3FE47F67F7222212046FFF7EDFE3622DD
:1023000024212046FFF7E8FE01206072F8BD3A461E
:1023100034212046FFF7E0FE4FE701200023237120
:102320006072F8BD10A1FF1F40660301014A002141
:10233000FFF700BF605AC50A10B50446D1B10129A4
:1023400001D0002010BD40F273122A21FFF7C4FE15
:102350000028F6D0882220212046FFF7BDFE002865
:10236000EFD0E28820462421BDE8104022F004028C
:10237000FFF7B2BE55222021FFF7AEFE0028E0D0C5
:10238000E28820462421BDE8104042F00402FFF715
:10239000A3BE00BF38B50546F1B1802903799ABFC5
:1023A000C1F1800444EA0424002433B922462846BB
:1023B0002221BDE83840FFF78FBEC288002322F0FB
:1023C000100203712421FFF787FE224628462221AE
:1023D000BDE83840FFF780BE012347F67F72222117
:1023E0000371FFF779FEEA8828462421BDE83840CA
:1023F00042F01002FFF770BE38B50B4605461D4986
:10240000184604F005FD1C4904F0FAFB04F002FF35
:10241000F8B180282B799ABFC0F1800444EA0424E3
:10242000002433B9224628462221BDE83840FFF770
:1024300053BEEA88002322F010022B712421284683
:10244000FFF74AFE224628462221BDE83840FFF722
:1024500043BE012347F67F7222212B712846FFF7E6
:102460003BFEEA8828462421BDE8384042F01002AD
:10247000FFF732BE00000143EE7CFF3E2DE9F84F2E
:10248000374B38481A68384912681B79CB77824233
:102490002AD2364B1B78002B4AD1DFF8D4A0DFF8C4
:1024A000D490DFF8D480354FDAF80060D9F800B066
:1024B000B8F800403D88002E41D0BBF1000F16D087
:1024C0000BF10402311D02EB450201EB440100F067
:1024D0007FF9403540347F2C11D87F2DA8F800407B
:1024E0001AD83D80BDE8F88FA0F58070D5E7311D82
:1024F00001EB4401403400F08AF97F2CEDD900242F
:102500003046A8F8004000F0BDFA1D4B7F2D1A6838
:10251000CAF800201C60E4D9002458463C8000F032
:10252000B1FA184B1A68C9F800201C60BDE8F88F92
:102530004FF0E0234FF08042C3F80822ADE7BBF133
:10254000000F07D00BF1040101EB450100F07FF90A
:102550004035C0E74FF48072594605F03FF9BAE7BD
:102560007CACFF1F408FFF1F0080004078ACFF1F36
:1025700064ACFF1F6CACFF1F74ACFF1F76ACFF1F79
:1025800068ACFF1F70ACFF1F38B50021044600F097
:10259000C5FA88B1034672B61B4A106800282AD0D3
:1025A0001A490D68002D2BD01560194A0B600023C5
:1025B000138062B600F066FA0121204600F0AEFA00
:1025C000034690B172B6134A106878B112490C688C
:1025D0004CB11460114A0B600024148062B6BDE84F
:1025E000384000F04FBA0B6062B638BD0B4913603B
:1025F000088062B638BD06491360088062B6DBE722
:102600000B6062B6D8E700BF64ACFF1F68ACFF1F69
:1026100074ACFF1F6CACFF1F70ACFF1F76ACFF1FCC
:1026200010B5044600F020FC204610BD284A294B76
:10263000D16B41F40041D163116C41F0020111648E
:10264000D16B41F00201D1631A68002A37DBD3F85D
:102650008020002A33DB4FF0864270B4C3F800219B
:10266000D3F80021002AFBDB01251B4A002647F294
:102670003201C3F804114FF480341E6617495D60BF
:102680009A60174ADC6019615A61C3F8E060C3F8C8
:10269000845005F18E45C3F88850C3F88C40C3F8C8
:1026A0009010C3F8942020B90E4B4FF4C0629A608A
:1026B0009A610C4B4FF4C06270BCDA60704728B965
:1026C000084B4FF4C0629A609A617047704700BF30
:1026D0000080044000F00240010000071B1F0100C1
:1026E000001F1F1F00B0044038B5254C01212046B3
:1026F00000F05CFB234A244B002010601860FFF7B9
:1027000095FF224B22494FF4C0625A602368214A48
:1027100019602149D960214919615A6002254FF495
:1027200080720621DA829D60DA83988299839861AB
:1027300023791B4D03F1804303F504338F22187076
:102740001A70184B2079184AE8764FF0807119609A
:102750001A6000F0D7FA2279144C154920705311F1
:1027600002F1100003F13823124C41F820404033AD
:102770009B0002F01F02012101FA02F21A6038BD2B
:102780007CACFF1F64ACFF1F6CACFF1F00B00440AB
:10279000408EFF1F0200010100FEFFFF22F00240F9
:1027A0000080004000F002400100009078ACFF1F64
:1027B0000092FF1F7D240000024A0349034801F0F4
:1027C0005BBF00BF349DFF1F212600007CACFF1FB4
:1027D0002DE9F04F00F5807EB1E8A00AB2E840157F
:1027E000C5EA0643C6EA2544C7EA0845C8EA2746BB
:1027F000C9EA0A47CAEA2948CBEA0C49CCEA2B4A7B
:10280000A0E8F8078645E7D1BDE8F04F70474FF0E4
:1028100000022DE9F00F00F5807C00BFB1E8A00AAE
:10282000C5EA0203C2EA2544C7EA0205C2EA27460E
:10283000C9EA0207C2EA2948CBEA0209C2EA2B4ADE
:10284000A0E8F8078445E9D1BDE8F00F70474FF0E4
:1028500000022DE9F00F00F5807C00BFB1E8A00A6E
:10286000C2EA0543C2EA0504C2EA0745C2EA07060E
:10287000C2EA0947C2EA0908C2EA0B49C2EA0B0ADE
:10288000A0E8F8078445E9D1BDE8F00F70472DE9CD
:10289000F00F089C00F5007B51F8045B53F8046BC3
:1028A000C5EA0647C6EA254952F8045B54F8046BAA
:1028B000C5EA0648C6EA254AA0E880078345EBD169
:1028C000BDE8F00F704700BF4FF0E0234FF08042AB
:1028D000C3F80822704700BF036818470B680360FD
:1028E000704700BF0B680360704700BF704700BFB0
:1028F00070B5C0298E468CB00B4628BF4FF0C00E75
:1029000072B62D492D4C2E4A08600021118021609D
:102910006160A160E16021616161C3B10A468C46DA
:10292000012501E054F82C1002F01F0305FA03F30F
:1029300001320B43964544F82C304FEA521CF1D833
:102940000023438001339E4500F58270F9D81D4C69
:10295000257815B162B60CB070BD082000F0ACFC53
:10296000194B05608022027106460093069302A966
:10297000164B029308A8FFF7B1FF154A06A9304687
:1029800000F0A6FA069B08A8DB689847009B02A8FF
:10299000DB6898472378002BDCD10E4B4FF0E02208
:1029A000D02083F85E004FF080410123C2F8081167
:1029B000237062B60CB070BD84ACFF1F9CACFF1FCF
:1029C00098ACFF1F94ACFF1F08BF0000C92800008F
:1029D000FF97010000E400E030B472B6244D254CAE
:1029E0002A8804F1180104EB82038B423BD204F1E4
:1029F0001701C91A02F1010C0CEB910C02E0013233
:102A0000624530D0184653F8041B0029F7D0B1FABC
:102A100081FC4FF0004323FA0CF321EA030101602B
:102A200001B90132144B2A801A88013291B21980FF
:102A300062B6001B801000EB801041F67C7303EB44
:102A4000C013CCEB0C60CCEB801C0C4803EB8C036C
:102A500000680124C4541844094B1C88944238BFB0
:102A6000198030BC704762B6002030BC704700BF90
:102A700098ACFF1F9CACFF1F88ACFF1F84ACFF1FEE
:102A800090ACFF1F428872B60378012B03D9013B3B
:102A9000037062B6704751090C48D24302F01F021E
:102AA0004FF0004310B4D340094C50F82120134399
:102AB000228840F821308A42064A88BF2180138844
:102AC000013B138062B610BC704700BF9CACFF1F77
:102AD00098ACFF1F88ACFF1FC36813B91CE0DB680C
:102AE000DBB1187A9042FAD110B4586893F809C053
:102AF000006950F82C404CB1DB682BB1187A904239
:102B0000F3D0DB68002BF9D110BC704740F82C10D3
:102B1000087801300870EFE770477047437A8B42BE
:102B200006D90369002253F8210043F82120704799
:102B30000020704704490022026042600281027452
:102B40000A68C26008607047B4ACFF1F037CFBB921
:102B500003680146FBB14368EBB1427A5B7A9A4263
:102B60001CD230B472B62B4B1C68ECB1E368C3B115
:102B7000486801E0DB68A3B15A688242FAD193F851
:102B800009C04A7A9445F5D162B6042030BC70473A
:102B9000012062B67047032062B67047022062B619
:102BA00070476469002CE1D11B4C236843B1994202
:102BB00002D10BE0994207D01A46DB68002BF9D10D
:102BC000052062B630BC704702F10C040D68E8685D
:102BD000E8B1C36823B908E0DA68184632B1134691
:102BE0008142F9D162B60620D0E70346D960CB68AE
:102BF00023600020C860AA7A01231A44AA724A6896
:102C00002B72947A13721C4494720B74D9E7E960A6
:102C1000EDE700BF8CACFF1FB4ACFF1F10B5047C08
:102C20009DF808E00CB1012010BD027280F809E0A7
:102C3000BDE81040C0E90013FFF788BF037C002BFC
:102C400037D010B54368427A5B7A9A42044638D24C
:102C500072B60168CB68002B2DD0984233D01A464B
:102C6000DB689C422AD0002BF9D16268607A136934
:102C700053F8200048B1FFF705FF72B66268617A29
:102C80001369002043F8210021688B7A013BDBB2F5
:102C90008B7203B90B72937A013BDBB2937203B967
:102CA00013720A4B00201A682074E2601C6062B63E
:102CB00010BD0120704762B6032010BDE368D360E9
:102CC000D3E7022010BDC368CB60CEE7B4ACFF1FD2
:102CD00010B50446FFF7B2FF094A136843B19C429E
:102CE00002D108E09C4205D01A46DB68002BF9D1DE
:102CF000204610BD0C32E3681360204610BD00BFB3
:102D0000B4ACFF1F094B1A7872B909484FF0E021A3
:102D10004FF0D00C80F85EC001224FF08040C1F827
:102D2000080110461A7070470020704794ACFF1FCE
:102D300000E400E04FF0E022F8B5D2F8FC3D174D7A
:102D4000174943F08073C2F8FC3D2B680C6843F0D0
:102D500001032B606E689CB1237A20466BB1236817
:102D60006F681B6898476B68E188DB1BC3F30F1221
:102D7000B1EB131FA28038BFE2806469002CEBD155
:102D8000064B084A5B681088074C9B1BC3F30F1166
:102D9000B0EB131F218038BF1180F8BD001000E098
:102DA0008CACFF1F96ACFF1F92ACFF1F10B472B625
:102DB00021B9026812B103790F2B41D9284C21881F
:102DC000002341FA03F212F0010208D00133102B64
:102DD000F7D162B600220260037110BC70474FF059
:102DE000010C0CFA03FC41EA0C01218062B61D497A
:102DF0005FFA83FC80F804C00C6C44F002040C649D
:102E0000CC6B44F00204CC6303F10073A1F5802184
:102E1000822403F590630C605B0181F81AC081F88D
:102E20001EC081F818C081F81FC010BC0360C3E940
:102E30000022C3E90222C3E90422C3E90622704743
:102E4000074C218841FA03FC1CF0010FB8D003F1B4
:102E5000007303F59063B2EB431FB1D162B6BCE7D8
:102E6000B8ACFF1F0080044003790F2B11D8094A2A
:102E7000937672B6084990F804C00B88012202FAD2
:102E80000CF223EA02030B8062B6102200230271C7
:102E90000360704700800040B8ACFF1F704700BF60
:102EA000704700BF704700BF704700BF704700BF4A
:102EB00038B5064CA4F1600554F8083C2046DB68A0
:102EC000183C9847AC42F7D138BD00BF10ADFF1F8A
:102ED0002DE9F043036887B004469046002B3ED0AE
:102EE00000229A600122DA60294DDFF8A8901D4483
:102EF0002D1151F8083B009305EB4506F60002A89A
:102F00005B68984706F1080759F806304F44384681
:102F1000DB689847009B204A009202A949F80630D6
:102F200038469B689847009B02A8DB68984723684F
:102F30001A49C3F8008003229A6005F14402531134
:102F400003F1382320796854403301209B0002F0BC
:102F50001F0200FA02F21A6007B0BDE8F083104ABF
:102F6000D36B43F40003D36300BF0E4B01221A60FE
:102F700003F580730C4A036098680028B4D01033BE
:102F800093422360F8D10020206007B0BDE8F083B1
:102F9000008FFCBFC0ACFF1F18BF000044E400E07E
:102FA0000080044000700340407103400448054A1B
:102FB00050F8083B01211B68C2F80C11184700BFEC
:102FC000C0ACFF1F007003400448054A836901211B
:102FD0001B68C2F81C112030184700BFC0ACFF1F8F
:102FE000007003400448054A036B01211B68C2F8C6
:102FF0002C113830184700BFC0ACFF1F00700340D1
:103000000448054A836C01211B68C2F83C1150300A
:10301000184700BFC0ACFF1F00700340084B0948B1
:10302000094A0A4910B40A4C1C6098609C611862F5
:103030001C6398639C64186510BC002001F01CBBE5
:10304000C0ACFF1F9D2E0000349DFF1FB12E00005D
:1030500008BF00000020704700B5036883B040F649
:103060000D22ADF804205B68022201A9984703B045
:103070005DF804FB08B5FDF7E7FEFDF7E5FF01F09D
:10308000B9F9FAE701B441EA000313F003036FD181
:10309000403A41D351F8043B40F8043B51F8043B1B
:1030A00040F8043B51F8043B40F8043B51F8043B22
:1030B00040F8043B51F8043B40F8043B51F8043B12
:1030C00040F8043B51F8043B40F8043B51F8043B02
:1030D00040F8043B51F8043B40F8043B51F8043BF2
:1030E00040F8043B51F8043B40F8043B51F8043BE2
:1030F00040F8043B51F8043B40F8043B51F8043BD2
:1031000040F8043B51F8043B40F8043B51F8043BC1
:1031100040F8043B403ABDD2303211D351F8043B61
:1031200040F8043B51F8043B40F8043B51F8043BA1
:1031300040F8043B51F8043B40F8043B103AEDD210
:103140000C3205D351F8043B40F8043B043AF9D261
:1031500004320AD0D2071CBF11F8013B00F8013B32
:1031600003D30B7803704B78437001BC704700BFEA
:103170000C2A4AD310F0030311D0C3F10403D21A6E
:10318000DB071CBF11F8013B00F8013B07D311F826
:10319000013B00F8013B11F8013B00F8013B11F045
:1031A00003033FF475AF30B4043AC91AC3F1040CF9
:1031B00051F8044B022B19D0032B0BD0240A51F8E1
:1031C000043B1D0644EA050440F8044B1C46043A3F
:1031D000F4D216E0240E51F8043B1D0244EA050423
:1031E00040F8044B1C46043AF4D20AE0240C51F88F
:1031F000043B1D0444EA050440F8044B1C46043A11
:10320000F4D20432B1EB0C0130BC043AA0D3013A41
:1032100011F8013B00F8013BF9D20B7803704B78B1
:1032200043708B78837001BC704700BF08B50F4CAA
:10323000636B58030DD4636B59050FD4636B1A0588
:1032400011D4636BDB04F3D500F012F8636B580301
:10325000F1D500F0E3FA636B5905EFD500F008F8FB
:10326000636B1A05EDD500F003F8EAE7008004402F
:1032700008B5FFF7DBFF00BF014B10221A80704733
:1032800000200540704700BF094A08B50346106892
:1032900033B169460344A1F580518B4201D21360DA
:1032A00008BD04F005FB0C2303604FF0FF3008BDA0
:1032B0000C9FFF1FFEE700BF03F0CCBF01F1FF3CF6
:1032C00070B56546002401E070460134B0FBF2FEA3
:1032D00002FB1E03092B03F130068ABF3733F3B21A
:1032E000DBB2904205F8013FEED2631C0022CA54C3
:1032F000C8187CB162461CF8015F10F801ED8CF82B
:1033000000E0A1EB0C030232013B521A23449A4223
:103310000570EFDB084670BD704700BF212835D827
:10332000042A33D830B42A4B2A4D53F8223005EB07
:10333000C0021B045468226812F4E06239D0264AA5
:103340002648C2F89C012648C2F8A0012548C2F8C8
:10335000A4012548C2F8A8012448C2F8AC0104F130
:103360004042A2F592207C2811D8214872B62268EA
:1033700022F4702222601343C4F3840243F080736A
:1033800040F82210236062B630BC70477047A2F547
:1033900094207C2815D9A2F596207C2813D9A2F573
:1033A00098207C2811D9A2F59A227C2AECD81148C1
:1033B000DCE755F8300080F880224FF480722260FC
:1033C000BDE70D48D2E70D48D0E70D48CEE700BF76
:1033D00028BF00003CBF00000092FF1F019DFF1F9F
:1033E000CD9CFF1F999CFF1F659CFF1F319CFF1FF9
:1033F000109FFF1FE89FFF1F489FFF1F989FFF1F01
:10340000C89FFF1F1A4B03EBC0035A6802F14043E9
:10341000A3F592217C2905D9A3F594217C2914D800
:10342000144900E0144910B472B61368134C23F029
:103430008773C2F3840023F4803343F080731360F6
:1034400041F8204062B610BC7047A3F596217C2954
:1034500009D9A3F598217C2907D9A3F59A237C2BB8
:1034600005D80749DFE70749DDE70749DBE770478C
:103470003CBF0000489FFF1F109FFF1F1933000033
:10348000E89FFF1F989FFF1FC89FFF1F034B00224D
:1034900010215A615A6018605961704700D003408A
:1034A000704700BFF0B54FF0E0244FF400054FF037
:1034B000807CC4F80851C4F808C14FF0007CC4F8FF
:1034C00008C11D4A1D481E494FF0806CC4F808C150
:1034D0002823002748F6FF7609254FF0006CC4F832
:1034E00008C183B057609660D3605361D361536263
:1034F000D3625363D3635364156047608660C360CF
:10350000436105604F608E60CB604B610D6001F0E0
:1035100015F8FFF7C5FF0B4C23680093009B132B96
:10352000FAD900F037FD23680193019BB3F5967F2C
:10353000F9D303B0F0BD00BF00800340009003400A
:1035400000800B4020ADFF1F212816D810B4104B6F
:1035500053F8302092F880422CB1012371B982F8DF
:10356000003110BC704703EBC0035B681A6849B1B7
:1035700042F0030210BC1A607047704782F8803036
:1035800010BC704722F0020210BC1A60704700BFE6
:103590003CBF0000212820D81B4A02EBC0030129B0
:1035A0005B680FD004291DD052F83000002280F84B
:1035B000802299B1022922D003290DD14FF48172C2
:1035C0001A60704752F830004FF4A27280F88012EF
:1035D0001A601A6822F020021A6070474FF4807255
:1035E0001A60704752F830104FF4A272012081F82F
:1035F00080021A601A6842F020021A60704740F296
:1036000003121A60704700BF3CBF00002DE9F84369
:10361000044672B6204F4FF0E02293693D68D2F81D
:10362000042D62B6520102D5322B88BF01350CB988
:10363000BDE8F883DFF86490DFF86480A9EB03034A
:10364000A8FB03234FF47A7202FB05F505EB131573
:103650004FF0E02672B6B1693A68D6F804CD62B68A
:10366000A9EB0103A8FB03031CF0806FC5EB131348
:103670004FF47A7002D0322988BF013200FB023346
:10368000B3F57A7F04D3013CD2D005F57A75E1E732
:1036900000F0B0FEDEE700BF20ADFF1F3F190100C4
:1036A000398EE338431E042B17D872B60C4951F8F3
:1036B000230080B110B40B4CB0F800C034F81320D4
:1036C000A2EB0C02D0F804C041F823C024F8132068
:1036D00062B610BC704762B670470020704700BFEA
:1036E000B4ADFF1F14AEFF1F013804280BD872B60B
:1036F000074B53F8203043B100205B680130002BAA
:10370000FBD162B67047002070471846F9E700BF4A
:10371000E4ADFF1F10B472B6194A1A4C042312F814
:10372000011B090743F0010C05D554F8331061B1B2
:1037300054F83C10B9B10433182BF0D162B6124BD7
:1037400000221A7010BC00F09DBC0F4904EBC302AC
:10375000083050600A780D4844F83300013A0A7086
:1037600062B610BC7047084A094904EBCC03083024
:103770005860137844F83C10013B137062B6F0E7D0
:10378000D8C000000080FF1F1EAEFF1F8800400051
:10379000C8004000421E042A0ED81C4B400140F0D5
:1037A000100010B4034472B6194CA05C03281CD856
:1037B000DFE800F01315031870470520A05413F03C
:1037C000080F088814BFC8228822083142EA004244
:1037D00059601A6062B610BC70470320EEE70833E8
:1037E0000220EBE708330420E8E70A4B53F82200F5
:1037F00038B1094B53F82200416043F8221062B6F9
:10380000E9E743F82210044BF7E700BF0080FF1FF1
:103810000CAEFF1FE4ADFF1FF8ADFF1F2DE9F04F09
:10382000DFF8D0A2DFF8D0B285B03DE0B34D9E08FE
:1038300005EBC607013A796813F00803D4B2A1F189
:10384000080040F0BA8055F836204FEA124C120CAE
:1038500021F808CC00F0A98021F8063C41F8043C8E
:10386000A74B53F82420002A00F00382A54B53F8FD
:103870002420506043F82400A34B33F814209444D0
:1038800023F814C000F0DEFB002800F0EB8117F0F5
:10389000080F9E4B00F1080018BF5B46786045F8A2
:1038A000363008238AF880309AF880305907DCB225
:1038B0001DD5974B1B78BBB196490A7802F0FF03E0
:1038C0002AB1013BDBB20B70002B00F04883924918
:1038D0000A7802F0FF032AB1013BDBB20B70002B28
:1038E00000F0ED8100F0F6FB04238AF8803014F03C
:1038F000080200F0CC819AF89020D3B2120995D139
:10390000DFF8F8919B0809EBC30459F833006468A9
:10391000C0F3830009287CD00FD80138012808D8CB
:103920007E4A158842F22100854200F0FB8149F869
:1039300033B001238AF89430B3E70D28F9D1D4E9E4
:103940000007774D49F833B0744E764CC9F8102013
:1039500083B240F2816CC9F818202A6063454FF0A9
:103960000102C6E90007227000F2FF80B3F5D06FB4
:1039700080F0CB82B3F5817F00F0268240F2DE80BA
:1039800040F2023293427BD107F07F07052F00F20D
:103990000881020C40F00581634911F8273043F09B
:1039A000020301F82730134670E017F0080F574B59
:1039B00018BF5B4645F8363073E700F063FB5B49A0
:1039C0005B4A51F82430002B00F05781586841F8C9
:1039D0002400115D03F108007860032905D8DFE8B1
:1039E00001F0120F1502042111551A8817F0080F63
:1039F00014BFC823882343EA024345F8363050E712
:103A000002211155F1E703211155EEE7052111556A
:103A1000EBE7434D2A683AB34649424C0F88464883
:103A200094F800E00678402F3B4628BF4023BEF1C3
:103A3000000F8EF0010E84F800E046F0020486F0DC
:103A40000106067009EBC400426014BFC82088203C
:103A500040EA03401A44FB1A9BB249F834000B8039
:103A6000002B00F036812A602C4B1A88B2F5A06F2B
:103A70007FF45FAF9A788AF8982000225A7058E74E
:103A8000B3F5A06F40F08D8000221346B6F806C053
:103A90002948944528BF944667460278402F28BF9E
:103AA000402742F0020E3E0409EBCE0846F0C8065D
:103AB000C8F8043049F83E6000263B442670BCEB51
:103AC000070782F00106067040F01181BCF13F0F3C
:103AD0004FF0010509D946F00206027009EBC60253
:103AE00025705360882349F8363001238AF89430D2
:103AF0001FE700BF00200740C80040000080FF1FF4
:103B0000B4ADFF1FC8ADFF1F14AEFF1F88004000FB
:103B100011AEFF1F12AEFF1F40AEFF1FDCADFF1F37
:103B2000A8ADFF1FA5ADFF1FC0200740E4ADFF1FDC
:103B30000CAEFF1FA6ADFF1FA4ADFF1F802B00F032
:103B40008B81822B2DD107F07F07052F29D8A74A1B
:103B500000231380A64B13F827309F0740F1FC8108
:103B600001231370A14B022290E742F2210C63451E
:103B7000BBD01DD942F2212293420DD1BFB2002FFA
:103B800082D19C4B1A689C4B1A609C4BC0F3074037
:103B900000221870134679E742F2213293423FF433
:103BA00073AF0F238AF8C03001238AF89430C0E63F
:103BB000B3F5086F00F04A81B3F5106FF1D1904B67
:103BC000C0F307400425187059F835301A0606D49A
:103BD0000135182D0CD059F835301A06F8D509EBF7
:103BE000C50301355868083800F04CFA182DF2D199
:103BF000844A854B0292854A0192854E854ADFF8B8
:103C000018820394009200251C4656F8047B2FB1BD
:103C100038467F6800F036FA002FF9D1009BD8F8BB
:103C2000007043F8045B46F8045C00932FB13846FB
:103C30007F6800F027FA002FF9D1029B48F8045B57
:103C400043F8045B0293019B23F8025B0193237802
:103C5000023B032B00F20981DFE813F03F0104016E
:103C60003F0104016D4A45F83600137801331370A3
:103C700017E643F82400674BFCE5115D022926D0C6
:103C80007FF60FAE03291DD10123135509E6E00786
:103C90006ED4210621D4A20708D5614B93F8882061
:103CA0000221D2B283F8882083F88010E30603D57E
:103CB0005B4B102283F8802005B0BDE8F08F00F048
:103CC00075FB0FE617F0080F14BF032302231355EB
:103CD000E7E53F2F98BF0022C5E6514B80220D211A
:103CE00083F8C01083F88020A207DFD5D5E746F01F
:103CF00002060270402F09EBC6003A4628BF402258
:103D000043601004134440F088000121BA1A49F8B6
:103D10003600217055D02B60424B1A8001238AF85F
:103D2000943006E692885AB93F4AE51D14F8011B03
:103D300002F8011FAC42F9D13C4A1268862A3CD0F5
:103D40003B4C3C4825780278002D85F00105257014
:103D500042F0020482F00102027009EBC4024FF04B
:103D60000000506014BFC822882249F83420DEE5E4
:103D70002B4B30483049314C022583F89450027067
:103D80002F480C602F4D48608C600D24CD60FF20C3
:103D90000A618A6183F8C04001219F2483F888006A
:103DA00083F8800083F8982083F88C0083F884409F
:103DB00083F8941005B0BDE8F08F234A0F201070EF
:103DC000BEE73F2FA7D890E607F07F07052F3FF605
:103DD000E8AE000C7FF4E5AE054A12F8273023F078
:103DE000020302F82730002213464FE6ACADFF1F56
:103DF000C020074020ADFF1F3CAEFF1F38AEFF1FA5
:103E000011AEFF1FF8ADFF1F0CAEFF1F14AEFF1F5A
:103E1000B4ADFF1FC8ADFF1FE4ADFF1F1EAEFF1FF7
:103E200000200740A6ADFF1F2FAEFF1F30AEFF1FC3
:103E3000A5ADFF1FA4ADFF1F0080FF1F880040003D
:103E400024ADFF1F64ADFF1F12AEFF1F484B494951
:103E50001B780B700B4619E6464A00231380454B2E
:103E6000022213E64FF001032370434BB34204F1E7
:103E700001047FF4CAAE414E039CDFF80481414F38
:103E800000233370042518F8013B3F4AAB541B074D
:103E900025D445F0020145F0030204350023182D16
:103EA00049F8313049F83230EDD1384F25783A7839
:103EB00042F0020009EBC00C85F00106CCF804309A
:103EC000002D4DD1882382F0010226703A7049F806
:103ED000303001238AF894302BE52570C5E700F0D7
:103EE000B1F8002832D009EBC5030830586049F812
:103EF000357000F0A7F808B345F0010309EBC302E1
:103F00000830506049F833B0C3E7214A5368002BAA
:103F10003FF447AE000CBFB204E013690C32002B33
:103F20003FF43FAE11888142F7D15188B942F4D1B4
:103F3000000A03280CBF1A781289A7E533780133E9
:103F4000337045F0010349F83300A2E7337849F8AC
:103F5000350001333370CCE7064B022296E500BEF4
:103F60002670C82382F001063E7049F83030BCE567
:103F700011AEFF1FACADFF1FC8ADFF1F1EAEFF1F70
:103F8000D8C0000088004000C0200740A4ADFF1F3B
:103F900078C0000070B500F037FB00231A4A1946BC
:103FA00042F8331002EBC3000133182B4160F7D104
:103FB000164C174B606B174D40F480206063C2F3C2
:103FC000072483F89C40144CFF204FF0010CC2F3EF
:103FD0000746120E83F8B0604FF0E02E83F8B4204D
:103FE00083F8800083F88800187483F894C02170E7
:103FF00083F884C0702385F849304FF40072102391
:10400000CEF80821237270BD0080FF1F008004409D
:104010000020074000E400E00021074000F0C8B89D
:1040200000F098B800F072B800F0ACB800F092B9A7
:1040300000F06CB90846114600F0D6B8084600F00A
:1040400057B900BF72B60D490B68B3FA83F01D284B
:1040500010DC4FF00042C24023EA02030B6062B65C
:10406000074A00EBC000C10002EBC0000023535020
:104070004360704762B60020704700BF00A0FF1F7A
:10408000BC93FF1F0E4BC31AB3F5076F10D20D4A36
:10409000127872B972B60C4A0C49A2FB0323086865
:1040A0004FF000421B0922FA03F303430B6062B690
:1040B0007047074A1278002AECD0FFF72BBB00BFED
:1040C000BC93FF1F1EAEFF1F398EE33800A0FF1FF9
:1040D00011AEFF1F70B50B4C257845B90A4E3168FB
:1040E0000123237009B14B8813B90023237070BDDD
:1040F0009B000B800420FFF74DFB002335602370ED
:10410000F5E700BF1FAEFF1F20AEFF1F38B50F4CF5
:10411000206878B143880288C11801339A420D7A29
:1041200002D94380284638BDFFF7ACFF0023236047
:10413000284638BD064B1B782BB10220FFF7B2FA98
:1041400020600028E6D14FF0FF35EBE724AEFF1FDB
:1041500011AEFF1F10B5094C206818B143881844F0
:10416000007A10BD064B1B782BB10220FFF79AFA9C
:1041700020600028F2D14FF0FF3010BD24AEFF1FA9
:1041800011AEFF1F084B094A1B6810B554881BB1BC
:104190001A885B88D31A1C440CB1204610BD00F06D
:1041A00029F9204610BD00BF24AEFF1F14AEFF1F2B
:1041B0000B4B1B789BB110B50A4C206848B1FFF738
:1041C00061FF002302202360FFF76CFA30B1FFF794
:1041D00059FF0220FFF766FA0028F8D110BD70479A
:1041E00011AEFF1F24AEFF1F2DE9F04FDFF8EC905A
:1041F00083B0012289F80020019179B3384FDFF8AC
:10420000E480019D384EDFF8E4A083463968A1B30D
:10421000B1F802E0CEF1400CAC4528BFAC460EEB45
:104220000C040022A4B23270A5EB0C054C8001F105
:104230000802BCF1000F0AD00EF1FF3E7244DC44CC
:104240001BF8014B02F8014FDC45F9D14C883F2C9B
:104250000BD805228AF80020002DD7D10198002321
:1042600089F8003003B0BDE8F08F40220A800320B7
:10427000FFF790FA00223A60EBE798F800202AB3A3
:1042800048F6014408E0013C19D03278BAB900F090
:10429000B1F898F80020CAB10320FFF725FA0728E3
:1042A000F1D84FF0010389F80030FFF7CBFE01464B
:1042B00038600028ACD1013C89F80000E5D1012329
:1042C0004FF0FF30337003B0BDE8F08F00234FF0A4
:1042D000FF3089F8003003B0BDE8F08F29AEFF1F32
:1042E0002CAEFF1F11AEFF1F28AEFF1F40AEFF1FF9
:1042F00000B583B0034601210DF107008DF80730AA
:10430000FFF772FF03B05DF804FB00BF38B50E4D38
:104310000E4C28680123237028B140880023C0F187
:104320004000237038BD0A4B1B7813B90020207061
:1043300038BD0320FFF7D8F90728F7D8FFF782FE2A
:1043400028600028E9D1F1E72CAEFF1F29AEFF1F3E
:1043500011AEFF1FF8B5114B1B788BB1104E114DEC
:10436000346801272F7064B10F4B00271F706388DA
:10437000238021460320FFF70DFA376000232B70BE
:10438000F8BDFFF75FFE084B014620B103201C700B
:10439000FFF700FAF2E71F70F0E700BF11AEFF1F52
:1043A0002CAEFF1F29AEFF1F40AEFF1F38B50E4BCE
:1043B0001B7853B90D4C216841B103F0FF054B88C0
:1043C0000B800320FFF7E6F9256038BDFFF73AFEC2
:1043D000014620B1BDE838400320FFF7DBB9044BAC
:1043E00001221A7038BD00BF29AEFF1F2CAEFF1F7F
:1043F00040AEFF1F2DE9F843324E337863B1324FA0
:104400003A784AB90122D9073A7043D49A0726D498
:1044100000225B073A7001D4BDE8F8832B4B1A6881
:10442000002AF9D0EFF30582002AF5D1EFF31085C9
:1044300072B6186800283AD0254C2178002936D168
:1044400042691A6001232370002A37D0916105B9AF
:1044500062B600258368457798472570DCE7DFF86A
:10446000748098F80020002AD2D00025DFF86890E8
:104470002B4659F82340236820461B69013598478D
:1044800008B12369984798F80020EBB29A42F0D817
:104490003378BDE7FFF776FE68B9104B1B780BB990
:1044A0003378B3E7337803F0FE033370AEE7002DC3
:1044B000B2D162B6B0E700F0A5F8EEE7084B1A609B
:1044C000C5E700BF04A0FF1F41AEFF1F44AEFF1FA2
:1044D00050AEFF1F64AEFF1F58AEFF1F74C0000038
:1044E00054AEFF1F70B5EFF3108272B60C4C20680B
:1044F00080B10C4E00254369236073B19D6102B900
:1045000062B6836845779847EFF3108272B62068E9
:104510000028F0D102B962B670BD3360EFE700BF8A
:104520004CAEFF1F48AEFF1FFFF7DCBF024A136807
:1045300001331360704700BF20ADFF1F2A4B2B4A89
:104540006020E1211870597013782948082B34D065
:104550000A2B20D00C2B274B0CBF15213D211222FA
:104560008160C2609960DA60234B21491B78214A3F
:10457000CBB101230B621362204B1D491B781D4AEE
:10458000012B13D9042B1BD884234B6253621C4B81
:1045900001221A707047174B192113228160C260E3
:1045A0009960DA60E0E70B621362E5E780234B6213
:1045B0005362134B01221A7070470E4B0121ECE736
:1045C000082B06D885234B6253620D4B01221A70CB
:1045D0007047102B94BF862387234B625362084B8E
:1045E00001221A70704700BF0040074005A0FF1F5E
:1045F00000B0034000B00B4065AEFF1F06A0FF1FD8
:1046000066AEFF1F704700BF10B584B072B6174A80
:10461000702441200F2180231470D0719171137088
:1046200013781B06FCD5906862B6114B114C98426A
:1046300038BF00EB800001A938BF40000A22FEF716
:104640003DFE01A92046002311F8012B01333AB1A8
:104650000A2B20F8022FF7D11623237004B010BDC7
:104660005B00DBB2237004B010BD00BF000002404D
:1046700080969800F8A0FF1F03460846194603F0ED
:10468000FFB800BF90F8612090F86000101A7047E2
:1046900090F8603090F861209A4205D95A1C034482
:1046A00080F86020187E70474FF0FF30704700BFE1
:1046B00090F8603090F861209A4286BFC018007E62
:1046C0004FF0FF30704700BF704700BFB0F8AE300A
:1046D0002BB190F8AD30482B03D901234360002063
:1046E0007047C218013380F8AD30012082F86310A2
:1046F000704700BF38B5B0F8AE40A4B190F8AD3007
:10470000C3F14904A24284BF01224260054698BF1A
:104710001446633018442246FEF7B4FC95F8AD30D9
:10472000234485F8AD30204638BD00BF70B5164C27
:104730002369DB7813F0200514D094F8B0300133EE
:10474000DBB2012B84F8B03002D894F8AF3043B913
:10475000636994F8B1201344BDE87040187AFEF7FD
:1047600051BE70BD636994F8B1201344187AFEF706
:1047700049FED4F8B830002BF3D094F8610084F8E7
:104780006050BDE870401847CCA1FF1F70B5164CB3
:104790002369DB7813F0200514D094F8B03001338E
:1047A000DBB2012B84F8B03002D894F8AF3043B9B3
:1047B000636994F8B1201344BDE87040187AFEF79D
:1047C00021BE70BD636994F8B1201344187AFEF7D6
:1047D00019FED4F8B830002BF3D094F8610084F8B7
:1047E0006050BDE87040184710A1FF1F42690023C8
:1047F000A0F86030C0F8AC3010B4D2E900140A68F8
:10480000C0F8B43022430469C0F8B8300A60A3701D
:10481000426990F8B1301849134493F808C05B7BA3
:1048200001EBCC0C1B02DCF8044003F4E06343F022
:104830006403236090F8B23013449C7CDB7D01EB71
:10484000C4011B024C68116803F4E06343F0640385
:10485000236009685368194205D0036928225A70F9
:10486000036903229A71036920225A710369802225
:104870009A7010BC704700BF3CBF000010B50369C0
:10488000D978CAB2C906044622D510215006D9707B
:104890001DD512F0040250D03D49D4F8B4200023B5
:1048A0000B7084F8AD30002A5BD0904794F8AD309F
:1048B000002B56D02369D0229A70236994F8632084
:1048C0001A712369012284F8AC200222DA7010BD2B
:1048D0005106DED4997811F0100117D12D4A80F8D5
:1048E000B01090424FD02C4A904241D094F86110C1
:1048F0001A794729D2B2E8D8254800780028E4D0B0
:10490000481C214484F861000A76DEE712F00102B7
:1049100020D190F8AC1090F8AD00884281BF4A1CBD
:10492000091984F8AC2091F863201A712369D02208
:104930009A7023690222DA70C9E7236984F861203A
:10494000C0219970124A236901211170022218793D
:10495000DA70BCE7C0229A7003691A790222DA7011
:10496000B5E70122002384F8AD2084F86330A1E785
:10497000436990F8B120094913440322187AFEF7DD
:10498000CDFC2369B2E7436990F8B1200449F3E70D
:1049900067AEFF1F10A1FF1FCCA1FF1F2D47000016
:1049A0008D4700002DE9F047374C0269236882B03B
:1049B0000093DDF80080D378990618D5334E05466C
:1049C000002102E0D3789B0611D523680193019B57
:1049D000A3EB08030F2BF5D969B1102BF2D00020FF
:1049E00090702B6980229A7002B0BDE8F087012098
:1049F00002B0BDE8F08795F8B1206B69134405213A
:104A0000187AFEF7C7FD6B6995F8B12013440121B0
:104A100093F812A05046FEF7BDFD09274FF0780924
:104A200000215046FEF790FD4B46013BFDD1012190
:104A30005046FEF789FD4B46013BFDD1013FEFD1CA
:104A4000696995F8B1300B44F022187A5B7B06EB6C
:104A5000C0001B02406803F4E06343F0640303609A
:104A600095F8B2300B44997CDB7D06EBC1011B024B
:104A7000496803F4E06343F064030B60013AFDD13D
:104A800001212A699EE700BF20ADFF1F3CBF000047
:104A9000F0B503691222DA700269937813F02006E8
:104AA00085B004460D4652D0B42393703249206934
:104AB0000B680093009E05E00A680192019A921B20
:104AC000042A3DD8C37813F02003F5D094F8AD3014
:104AD0006BB34FF0000CE646022604EB0E0393F88E
:104AE000633003710B680293029F206907E092060E
:104AF0000AD50A680392039AD21B052A20D8C378E4
:104B0000DAB213F00203F2D0C6702369DA78D7B2B2
:104B1000D206184626D4BA0624D5FA0726D494F825
:104B2000AD300CF1010C5FFA8CFE7345D5D8002036
:104B300015B1236980229A70002384F8AE3004E016
:104B40008370236980229A70042005B0F0BDFFF7BE
:104B500029FF28B1236984F8AF60B0229A70A5E7D5
:104B60000420F2E780229A700420E1E7BEF1000FF2
:104B70000CBF02200320DDE720ADFF1F2DE9F04729
:104B80009046994600220369A0F860201222DA704C
:104B900003699C7814F0200588B007468A4600F027
:104BA0009F80B4229A70704E3B6932680092009ADE
:104BB00008E030680190019CA4EB020CBCF1040FEA
:104BC00000F28680DC7814F02005F2D04FEA4A0229
:104BD00042F00102D2B21A713368029302983A6924
:104BE00006E0336803930399091A052900F28280CD
:104BF000D47814F00205F4D04FF0020C82F803C010
:104C00003B69DC7814F011057CD1B8F1000F00F09D
:104C10008480B8F1010F00F08D80A0229A7039696C
:104C20000B794FF0A80E33680493049805E03268BE
:104C30000592059A121A052A68D8CB7813F0020358
:104C4000F5D081F803C03969CB78DCB2DB060846C1
:104C50000A4641D4A4063FD508F1FF385FFA88F828
:104C6000B8F1010F04D181F802E0396908460A461B
:104C7000472D59D90379B8F1010FD4D13368069380
:104C8000069805E0316807910799091A052956D851
:104C9000D37813F00203F5D00223D3703A69D378A6
:104CA000D806D9B255D48B0616D5B023472D9370AC
:104CB0004CD83A697C19127922766B1CDDB2B9F1B5
:104CC000000F02D03B6980229A7087F8615003E0A0
:104CD0009D703B6980229A70284608B0BDE8F08735
:104CE000FFF760FE0028F7D03B6987F8AF50B0228D
:104CF0009A7058E795703B69802228469A7008B0F0
:104D0000BDE8F08780229A700025E5E78B703B694B
:104D100080229A7087F86150DEE7B9F1000F14BF66
:104D20008022A0229A70D7E77B19007918766C1C34
:104D3000E5B2A0E7A8229A703A6913799EE79370CA
:104D40003B6980229A7087F86150C5E73B691B79FF
:104D5000B5E710217823D170013BFDD13A699378F2
:104D600003F0F7039370B7E720ADFF1F0148FFF78B
:104D700085BD00BF10A1FF1F0148FFF77FBD00BF29
:104D8000CCA1FF1F38B5044600F016FA05462046B0
:104D900000F020F848B10D49204602F0F5F930B98D
:104DA0000B49204602F0D2F948B9284638BD02F036
:104DB0007FFD4FF0FF4522230360284638BD02F0F7
:104DC00077FD222300250360EFE700BF1772B14291
:104DD000B5F1CFC220F00040B0F1FF4FACBF0020D2
:104DE000012070471A4A20F0004393421BDD00B5B2
:104DF000B3F1FF4F83B005DB014601F0FFFE03B0C6
:104E00005DF804FB694600F071FB00F00300012827
:104E100001990CD0022813D068B1009800F090F8E6
:104E200000F10040EBE70021002200F04FB90098AC
:104E300000F086F8E3E70098012200F047F9DEE78A
:104E40000098012200F042F900F10040D7E700BFCE
:104E5000D80F493FF0B520F00043B3F1FF4F83B0C6
:104E6000014604460BDB2F4B002918681C6833DB16
:104E700002F082F8214601F0C3FE03B0F0BD2A4AD9
:104E800093420BDD274A294B1068196801F0B6FEE2
:104E9000002CB8BF00F1004003B0F0BDB3F1105FCB
:104EA00021DBB3F17E5F27DB214D00F00DFF296888
:104EB00001F0AEFF00F08CFD1A4B01461E682F6812
:104EC000286801F09DFE0146384602F055F801467B
:104ED000304601F093FEDBE702F04EF8214601F088
:104EE0008DFE03B0F0BD0F4B0190186801F088FEF5
:104EF000019901F08DFFC0E70D4E356800F0E4FE2A
:104F0000014605F1004001F083FF00F061FD01461C
:104F1000306801F1004501F073FE0146284602F0B9
:104F20002BF8B5E788A2FF1FFFFFAF418CA2FF1F40
:104F300090A2FF1F01464FF0804000F0F5BC00BF7B
:104F40002DE9F84320F00045B5F1485F0646884654
:104F50004ADA02F039F9002800F09F8031463046E5
:104F600001F056FF4F49044601F052FF4E4901F04F
:104F700047FE214601F04CFF4C4901F03FFE21461F
:104F800001F046FF4A4901F03BFE214601F040FF97
:104F9000484901F033FE214601F03AFF464901F04D
:104FA0002FFE214601F034FF07464FF07C5120468A
:104FB00001F02EFF3946034620461C4601F028FF2B
:104FC00041460546304601F023FF0146284601F0E0
:104FD00015FE0146204601F011FE01464FF07E50BD
:104FE00001F00CFEBDE8F883014601F011FF2D49E8
:104FF000044601F00DFF2C4901F002FE214601F0AC
:1050000007FF2A4901F0FAFD214601F001FF284976
:1050100001F0F6FD214601F0FBFE264901F0EEFD10
:10502000214601F0F5FE244901F0EAFD214601F098
:10503000EFFE224B9D420746B7DD214B9D4228DC07
:1050400005F17F454FF07E50294601F0D7FD81469E
:105050004FF07C51204601F0DBFE294601F0CEFDE9
:105060003946034620461C4601F0D2FE414605461D
:10507000304601F0CDFE0146284601F0BFFD014655
:10508000204601F0BBFD0146484601F0B7FDBDE8F2
:10509000F883DFF830900C4DDAE74FF07E50BDE832
:1050A000F88300BF4ED747ADF6740F317CF29334CE
:1050B000010DD037610BB63AABAA2A3D9999993EBA
:1050C0000000483F0000383F0000903E2DE9F843C3
:1050D00020F00043B3F1485F04460E46904603DAE1
:1050E00002F072F8002858D02146204601F090FEC8
:1050F00005460146204601F08BFE29498146284697
:1051000001F086FE274901F079FD294601F080FE75
:10511000254901F075FD294601F07AFE234901F089
:105120006DFD294601F074FE214901F069FD074635
:10513000B8F1000F22D04FF07C51304601F068FEEC
:1051400039468046484601F063FE0146404601F07C
:1051500055FD294601F05CFE314601F04FFD154931
:105160000546484601F054FE0146284601F048FD38
:105170000146204601F042FDBDE8F883014628467D
:1051800001F046FE0B4901F039FD494601F040FEB1
:10519000214601F035FDBDE8F8832046BDE8F883DF
:1051A000D3C92E2F342FD7321BEF3836010D50398B
:1051B0008988083CABAA2A3E20F00042B2F1FF4F9A
:1051C0002DE9F04704466CD84FEAD07500F0C68050
:1051D0007A49884200F3B4800028C0F2B680784B48
:1051E0009A4263D9774B9A4200F2C580764B2046AB
:1051F00053F8251001F002FD744BC5F1010653F878
:1052000025908046761B4946404601F0F7FC014652
:10521000054601F0FDFD6E49044601F0F9FD6D49BA
:1052200001F0ECFC214601F0F3FD6B4901F0E8FCD4
:10523000214601F0EDFD694901F0E0FC214601F055
:10524000E7FD674901F0DCFC214601F0E1FD014684
:10525000284601F0D3FC2C4607468246002E57D044
:105260003946284601F0D4FD394604464FF08040C7
:1052700001F0C4FC0146204601F07EFE014648468E
:1052800001F0BCFC414601F0B9FC01464FF07E50F4
:1052900001F0B4FC16F17D0F64DB00EBC650BDE8F5
:1052A000F087014601F0ACFCBDE8F087B2F1505F39
:1052B00009D24C49204601F0A3FC4FF07E5101F089
:1052C00063FF002874D12146204601F0A1FD40492A
:1052D000054601F09DFD3F4901F090FC294601F093
:1052E00097FD3D4901F08CFC294601F091FD3B49B9
:1052F00001F084FC294601F08BFD394901F080FC66
:10530000294601F085FD0146204601F077FC8246E2
:105310005146204601F07CFD4FF080410546504645
:1053200001F06CFC0146284601F026FE214601F002
:1053300065FC01464FF07E5001F060FCBDE8F0874F
:10534000BDE8F047002000F0EBBA274B9A427FF609
:1053500046AFBDE8F047002000F0DEBA002DA3D034
:105360000020A1E764364FF0586100EBC65001F011
:105370004FFDBDE8F0871D49204601F049FD1C4B5B
:1053800053F8251001F03CFC01F01EFF064601F029
:10539000EBFC1849054601F03BFD0146204601F0B3
:1053A0002DFC15498046284601F032FD81462AE74A
:1053B0004FF07E51204601F023FC75E71772B14291
:1053C0001872B13E9115853F4CC1000054C10000D8
:1053D0004CBB31330EEADD3555B38A38610B363BB1
:1053E000ABAA2A3ECAF24971B5F1CF423BAAB83FF7
:1053F00044C100008071313FD1F7173720F00042DF
:10540000B2F1FF4F2DE9F041044654D2002A50D0AA
:105410000028034657DB14F0FF4F4FEAE05009D154
:1054200014F400025BD15B001C02114602F1010280
:10543000F9D5401AC3F3160242F40002C307A0F1E3
:105440007F0558BF520000246D1052004FF0190E16
:1054500021464FF0807C01EB0C039342DDBF03EB50
:105460000C016444D31A1346BEF1010E4FEA430205
:105470004FEA5C0CEFD1BBB11A4E1B4F3068396854
:10548000D6F8008001F0BAFB0146404601F068FE04
:1054900050B130683968366801F0B2FB01463046D9
:1054A00001F054FEB8B10234601000F17C5000EB02
:1054B000C550BDE8F081014601F0AAFC214601F08B
:1054C0009FFBBDE8F081014601F098FB014601F029
:1054D00053FDBDE8F081013424F00104E4E74FF00E
:1054E000FF31A6E794A2FF1F98A2FF1F2DE9F04FFE
:1054F000AB4A20F00044944289B00D466CDDA94AC5
:10550000944207461CDC0028A74940F31E8101F0A5
:1055100075FBA64B24F00F049C4206466BD0A449B1
:1055200001F06CFB01462860304601F067FBA049A2
:1055300001F064FB01266860304609B0BDE8F08FD9
:105540009C4A94426CDDB4F1FF4F4DDAE615863E7D
:10555000A4EBC654204601F037FE01F005FC0146DD
:105560002046059101F04AFB4FF0874101F050FCC5
:10557000804601F029FE01F0F7FB04462146404633
:10558000069401F03BFB4FF0874101F041FC002104
:10559000079001F0D1FD002800F0B88000212046DE
:1055A00001F0CAFD002814BF01230223824A0192A0
:1055B000022200922946324605A800F089FB002FFE
:1055C0000646B9DAD5E9002302F1004203F10043AF
:1055D0002A606B604642AFE7002628600022304612
:1055E0004A6009B0BDE8F08F014601F007FB0026D4
:1055F00068602860A0E7714901F000FB704904462B
:1056000001F0FCFA01462860204601F0F7FA6C49E7
:1056100001F0F4FA01266860304609B0BDE8F08F69
:1056200000F052FB6749804601F0F2FB4FF07C51DD
:1056300001F0E6FA01F0C8FD064601F095FB5A4973
:10564000834601F0E5FB0146404601F0D7FA584990
:105650008246584601F0DCFB1F2E8146014650462B
:1056600020DC721E584B53F8223024F0FF029A427D
:1056700018D001F0C3FA8046C5F800804146504674
:1056800001F0BCFA494601F0B9FA002F6860BFF694
:1056900053AF08F1004800F10040C5F80080686091
:1056A000764249E701F0AAFAC0F3C753C3EBD453DB
:1056B000082B80464FEAE452DEDD4049039258460B
:1056C00001F0A6FB80460146504601F097FA0446D9
:1056D0002146504601F092FA414601F08FFA3849CE
:1056E0008046584601F094FB414601F087FA014696
:1056F0008146204601F082FA039AC0F3C753D21ABA
:10570000192A804604DC2860A246B7E703234DE748
:105710002E49584601F07CFB01468046204601F0A8
:105720006DFA82465146204601F068FA414601F082
:1057300065FA27490446584601F06AFB214601F004
:105740005DFA81460146504693E701F059FA174B3E
:1057500024F00F049C4206460ED0154901F050FA81
:1057600001462860304601F049FA114901F048FA33
:105770004FF0FF366860DFE6104901F041FA10494A
:10578000044601F03DFA01462860204601F036FA51
:105790000B4901F035FA4FF0FF366860CCE600BFE8
:1057A000D80F493FE3CB1640800FC93FD00FC93F08
:1057B00043443537800F4943DCC10000004435378E
:1057C00008A3852E84F9223F5CC1000000A3852E2A
:1057D00032318D242DE9F041C0F3C7557F3D162DA0
:1057E000044620F0004724DC002D804614DB184FCF
:1057F0002F4138421AD0174901F002FA002101F076
:10580000C3FC98B1002C03DD4FF400032B419844F6
:1058100028EA0700BDE8F0810E4901F0F1F9002106
:1058200001F0B2FC10B1002C0EDB57B92046BDE8E8
:10583000F081B7F1FF4FF9D3014601F0E1F9BDE87E
:10584000F0814FF07E50F2E74FF00040EFE700BFED
:10585000FFFF7F00CAF249712DE9F041C0F3C7553F
:105860007F3D162D044620F0004725DC002D8046A4
:1058700014DB174F2F4138421BD0164901F0C0F9F5
:10588000002101F081FCA0B1002C03DA4FF40003E9
:105890002B41984428EA0700BDE8F0810D4901F04A
:1058A000AFF9002101F070FC18B1002C0CDB0020D6
:1058B00000E02046BDE8F081B7F1FF4FF9D3014683
:1058C00001F09EF9BDE8F081002FF2D00248F1E727
:1058D000FFFF7F00CAF24971000080BF38B505465E
:1058E0000C4601F0E5FF034628461C6038BD00BFAA
:1058F00008B540B101F1004001F08AFABDE8084066
:105900002221FFF7EBBF084601F082FABDE808400C
:105910002221FFF7E3BF00BF4FF08051FFF7E8BF40
:105920004FF0E041FFF7E4BF70B50C46064600F0CB
:105930003FFD21460546204601F030FC58B90021C4
:10594000304601F0F9FBA0B10021204601F0F4FB44
:1059500018B14FF07E55284670BD2046FFF73AFA41
:105960000028F8D00021204601F0F0FB0028F2D0FA
:1059700023E02846FFF72EFA80B10021284601F0E7
:10598000DBFB0028E7D03046FFF724FA0028E2D0FE
:105990002046FFF71FFA0028DDD00EE03046FFF763
:1059A00019FA0028E9D02046FFF714FA0028E4D0BD
:1059B0002946284601F0F2FB20B901F079FF2223A5
:1059C0000360C8E701F074FF21230360C3E700BF51
:1059D000AA4A2DE9F84320F000439342044635D902
:1059E000B3F1FF4F00F2AB8000F01A810028C0F243
:1059F000B880A34A934200F23381A24901F008FA29
:105A000001464FF07C5001F0FBF801F0DDFB06464B
:105A100001F0AAF99C49074601F0FAF9014620462F
:105A200001F0ECF899490546384601F0F1F90746CE
:105A30003946284601F0E2F801460446284601F0BE
:105A4000DDF8394601F0DAF8814607E0904A9342E2
:105A50007AD8B3F14C5FC0F0AF8000264FF07C5194
:105A6000204601F0D5F907460146204601F0D0F95D
:105A70008849054601F0CCF9874901F0C1F829466B
:105A800001F0C6F9854901F0B9F8294601F0C0F9DD
:105A9000834901F0B5F8294601F0BAF9814901F0CE
:105AA000ADF8294601F0B4F94FF07E5101F0A8F8A5
:105AB00080464146384601F0ABF901467A4801F08C
:105AC0009DF807463946404601F098F839460746A2
:105AD000204601F09DF90146744801F08FF8014617
