:1000000000800020BD010000E9210000A5210000C2
:10001000A5210000A5210000A5210000A5210000C8
:10002000A5210000A5210000A5210000E921000074
:10003000E9210000A5210000393100003D31000018
:10004000E9210000E9210000E9210000E921000088
:10005000E9210000E9210000E9210000E921000078
:10006000E9210000E9210000E9210000E921000068
:10007000E9210000E9210000E9210000E921000058
:10008000E9210000E9210000E9210000E921000048
:10009000E9210000E9210000E9210000E921000038
:1000A000DD390000E9390000E9210000E921000004
:1000B000E9210000E9210000E9210000E921000018
:1000C000E9210000E9210000E9210000E921000008
:1000D000E9210000E9210000E9210000E9210000F8
:1000E000E9210000E9210000E9210000E9210000E8
:1000F000E9210000E9210000E9210000E9210000D8
:10010000E9210000E9210000E9210000E9210000C7
:10011000E9210000E9210000E9210000E9210000B7
:10012000E9210000E9210000E9210000E9210000A7
:10013000E9210000E9210000E9210000E921000097
:10014000E9210000E9210000E9210000E921000087
:10015000451F0000611F00007D1F0000991F000067
:10016000E9210000C9260000E9210000E921000082
:10017000E9210000E9210000E9210000E921000057
:10018000E9210000E9210000E9210000E921000047
:10019000E9210000E9210000E9210000E921000037
:1001A000E9210000E9210000E9210000E921000027
:1001B000E9210000E9210000CD1C0000574B4CF262
:1001C000205210B5DA814DF62812DA8100BF00BF47
:1001D00002F00EF8524B4FF010621A63514A9A63C4
:1001E000514ADA63514A136913F4807303D153619E
:1001F0004FF4A85313614E4B9A78110703D59A78A0
:1002000042F008029A704B4B4B482A221A704B4B13
:10021000DA1C121AC11E22F00302994288BF002282
:10022000474901F0EBFE474B4748DA1C121AC11E42
:1002300022F00302994288BF0022002106F0A6F8AE
:10024000424943484FF4DE7201F0D8FE414B424A26
:10025000802103F8011B9342FBD14FF0E0233C4A7D
:10026000C3F8082D3D4B8A221A70A3F5805324222F
:100270005A70A0221A709A799207FCD59A79D406FE
:10028000FCD4374B9A7902F00C02082AFAD10522E5
:100290001A7143225A719A799006FCD5304A9379A3
:1002A0005906FCD51E4B4FF08171596405219964A4
:1002B00020211170917901F00C010C29FAD1294A01
:1002C0005A604FF0E023284A5A6100229A610722BF
:1002D0001A61264AC3F8202D62B602F071F8134B5A
:1002E0005B69DA0705D5224802F05EF8214B224A05
:1002F000DA61224B1B785B0609D51E4C1E4BE26966
:100300009A4204D11A4802F04FF80023E36101F049
:1003100075FF06F0ABF801F069FEFEE7002005402E
:1003200000800440823F04000100002B00D0034005
:1003300000D0074000E00740309CFF1FE8A5FF1FEA
:10034000086F0000BCDDFF1FE8A5FF1F00000000D4
:100350000092FF1F00E400E05FE400E00050064070
:1003600000400640C01005003F1901000000202099
:10037000554D7E6A00E00340A5C3945A00F0074043
:10038000FFFFFFFFFFFFFFFFFFFFFFFFFFFFFFFF7D
:10039000FFFFFFFFFFFFFFFFFFFFFFFFFFFFFFFF6D
:1003A000FFFFFFFFFFFFFFFFFFFFFFFFFFFFFFFF5D
:1003B000FFFFFFFFFFFFFFFFFFFFFFFFFFFFFFFF4D
:1003C000FFFFFFFFFFFFFFFFFFFFFFFFFFFFFFFF3D
:1003D000FFFFFFFFFFFFFFFFFFFFFFFFFFFFFFFF2D
:1003E000FFFFFFFFFFFFFFFFFFFFFFFFFFFFFFFF1D
:1003F000FFFFFFFFFFFFFFFFFFFFFFFFFFFFFFFF0D
:10040000FFFFFFFFFFFFFFFFFFFFFFFFDEF9FFFF23
:100410000548064B1B1AD90F01EBA301491002D066
:10042000034B03B118477047E8A5FF1FE8A5FF1F5E
:100430000000000008B5054B1BB105490548AFF3A6
:100440000080BDE80840FFF7E3BF00BF00000000E8
:10045000E8A5FF1F006F00002DE9F04F8FB00C9052
:1004600001F086FA0B90002800F0C68101F080FAB6
:100470000D90002800F0C3814FF400720021A048C5
:10048000DFF880B205F082FF9F484FF40072002130
:1004900005F07CFF0C9B9B69099303F5B7571D463C
:1004A000002318374FF07C5A0A9397F82930002B15
:1004B00000F014816B6A0693AB6A0093EB6A0793B2
:1004C000924B0193924B02930A9B40F2C65202FB5D
:1004D00003F30893DCE0286B05F01AFA8046014626
:1004E000204605F029FC002840F0E580204605F074
:1004F00043FC064605F010FA0146204605F056F981
:100500000446686B0138801B431C48BFEA6A009EA2
:1005100048BF9B18002856F82390C0F2C580009B66
:1005200053F82080431E002800F06B81009A79491F
:1005300052F82360023844BFEB6AC018009B53F89E
:1005400020200592404605F03BFA0146484605F05A
:100550002DF931460390304605F02AF9039B0146F8
:10056000184605F025F9059A049051461046039265
:1005700005F026FA049B0146184605F017F9039A80
:10058000034649461046049305F010F9514605F01C
:1005900017FA31460390404605F008F94FF07F51B5
:1005A00005F00EFA039A0146104605F001F92146BE
:1005B00005F006FA049B0146184605F0F9F82146B5
:1005C00005F0FEF94946034630461E4605F0EEF8B2
:1005D000514605F0F5F90146304605F0E9F82146A7
:1005E00005F0EEF9414605F0E3F8F96805F0E8F9A1
:1005F00079690446386905F0E3F90146204605F0BB
:10060000D7F8B969786105F0DBF9D7E9002393429F
:1006100001460BDA089A1A4401337B60099B03EB0D
:100620008203D3F8D81705F0C3F801466B6B009A24
:10063000069842F82310079A0133934208BF00231B
:100640006B6321F0004605F0BBF9019B044653F8AB
:10065000040F01932146984605F0AAF8029BC8F8BA
:10066000000053F8040F029321461C4605F0A0F841
:1006700020603C6A3046214605F05EFB20B9796A6D
:10068000204605F09DF90646019B3E629B451ED023
:10069000BC684FF07E51204605F044FB00287FF4F3
:1006A0001AAF002401262CE7EA6A8118431E56F887
:1006B000218013443AE7404605F05EFB064605F00C
:1006C0002BF90146404605F071F8044619E7124936
:1006D000304605F013FB002840F0868041F2187385
:1006E0001D441F440A9B002B7BD00D9B074C084FD9
:1006F000DFF828809E1C0B9B4FF07E599D1C3CE030
:1007000000A8FF1FFCA9FF1F00A6FF1FFCA7FF1FDB
:10071000FCA5FF1F0000204017B7D138000080BFA4
:100720004946504605F008FB002853D1364950464B
:1007300005F046F905F020FB00B257F804AF25F8A4
:10074000020F5146504605F001FB002845D14146B5
:10075000504605F0E7FAF8B14946504605F0ECFA84
:10076000002834D12849504605F02AF905F004FB49
:1007700000B25C4526F8020F13D054F804AF51467E
:10078000504605F0E3FA50BB4146504605F0CAFA20
:100790000028C5D11D48D0E71C4826F8020F5C454B
:1007A000EBD10B9E0C9D00223146284601F060F9EA
:1007B0000D9C01222146284601F05AF9304601F0ED
:1007C0002DF920460FB0BDE8F04F01F027B947F6EC
:1007D000FF70CEE747F6FF70AFE70020C9E70020C3
:1007E000ABE701230A9360E63B687A689A42A4BFAC
:1007F000002387F8293071E70FB0BDE8F08F0B9820
:10080000E0E7EA6A134491E600FEFF460180FFFF3D
:100810002DE9F04F524887B000F054FD4021504878
:1008200000F084FD4F4875220146002301E011F8D5
:10083000012F0133002AFAD14B4A4C4C5A40752102
:10084000612302E00B4610F8011F5A4004FB02F23C
:100850004FEAF2420029F5D1454B4649DFF818C16D
:10086000464CDFF81CA1DFF81CB182EA124202FB01
:1008700003F383EA533301FB03F383EA13431C447A
:10088000BCE80F000DF1040EAEE80F00DCF80030FC
:10089000CEF800300027D1460AF138050AF2D476A6
:1008A000394B0193394B0293394B049344F00102C5
:1008B00084EAD43302FB03F343F03D0183EAD3120D
:1008C00001FB0232534083EA9333CAF800400DF132
:1008D000040849F8043F2F4B45F82C3CB8E80F00BA
:1008E000A5F1240E45F8289CAEE80F00D8F800309A
:1008F000CEF800304FF4F47345F80C3C4FF4F2732B
:10090000A5F1040C45F8083C45F8105C4CF8047F50
:100910006645FBD1002345F8043C55F82C0C59469C
:1009200005F04EF801461C4805F0FEF803F064F8A7
:1009300041F2187304F1DA44C6F8480F1D441E440E
:10094000164B04F52D1404F567544B4504F135049A
:10095000A6D113480C2107B0BDE8F04F00F094BFBA
:100960003CAAFF1F3968000067E6096A512D9ECC3A
:100970006BCAEB8535AEB2C26C680000F5792B6DA1
:1009800048AAFF1FCDCC4C3D9A99993EAE47613E97
:1009900000004040A6552C47000080BF50AAFF1F12
:1009A0000082FF1F2DE9F04F066889B00F460290C4
:1009B0008E493046154605F0B7F88D49044605F0D6
:1009C000BBF900B98A4C2146384605F0B5F958B153
:1009D0004FF07851304604F0F3FF3946044605F0F5
:1009E0008DF9002800F07281029800F58057026AA4
:1009F000049740F20113C7F80847A7F8143742B12B
:100A000004469200C069002105F0C0FC2668D7F8B2
:100A10000847029F0023BB62049B4FF00008214659
:100A2000C3F80087304605F07FF8BF68059041465F
:100A3000384605F063F9002840F0C0814FF07E5140
:100A4000384605F079F908B14FF07E5739466948C4
:100A500002F0FAFF684904F0B3FF684907463046E0
:100A600004F0AEFF80460146384605F065F900B156
:100A700047466349384604F0A3FF314605F054F871
:100A800002F0BAFF01464FF07E5004F08FFE049F43
:100A90000146C7F8F8064FF07E5004F087FE59492A
:100AA000C7F8FC068046204604F08AFF314605F070
:100AB0003BF8064603F056F88146304603F020F82E
:100AC0000146404604F07CFF01464FF07E5004F0A2
:100AD0006DFE49460746404604F072FF394602F073
:100AE00089FF4FF07E518046059804F05FFE314645
:100AF0000746404605F018F80146384604F056FE11
:100B00004FF07E51064605F0F9F808B14FF07E56D9
:100B1000049B3D49C3F8F466029B5E69304605F0CC
:100B2000EDF8002840F0D0803849304605F004F94F
:100B3000002840F0CD802146304604F041FF0146B8
:100B4000334804F0F1FF0146324802F07DFF049B78
:100B50004FF07C51C3F80407059804F029FE05F016
:100B60000BF9B0F5727FA8BF4FF4727002280346EC
:100B7000B8BF02230393029BD3F81090002148468C
:100B800005F0BCF8002840F01B814FF07E5148462C
:100B900005F0D2F8002800F09D80002301934FF06B
:100BA0007E590021284605F0A9F8002840F09F80D2
:100BB0004FF07E51284605F0BFF8002800F006816E
:100BC000DFF85480029B5A680692146804F1DA44F4
:100BD00004F52D1403F2CC7304F5675435340793F0
:100BE0004FF03E5B1E46012700253CE00000F0432D
:100BF0000000C842610B363D00A08C466666E63EAA
:100C0000DB0FC9C0DB0FC940CDCC4C3D0000A0417B
:100C1000000040C0000020419A99193F012D0CBFEF
:100C20006D490021484604F0CBFE6C4904F0C8FE33
:100C300001990090504604F0C3FE009A0146104608
:100C400004F0B6FD414604F0BBFE039B3060BB429E
:100C500050DD04F1DA4404F52D1404F56754013530
:100C600035340137043644F0010384EAD43003FB01
:100C700000F040F03D0280EAD01302FB030358402D
:100C800080EA903004F044FE594604F099FE014693
:100C900004F08EFD4FF07E5104F088FD8246002D59
:100CA000BCD14E49484604F08BFE01990090504655
:100CB00004F086FE009A0146104604F079FD414694
:100CC00004F07EFE3060C4E7454E34E73C468BE6D8
:100CD000444E30E749464FF07E5004F067FD002156
:100CE0000190284605F00AF800283FF461AF4FF064
:100CF000000867E7069B1C60029BDC6803EB850528
:100D00000021C5F8CC07204604F0F8FF002853D195
:100D10003549204605F010F800B1334C05992046BE
:100D200004F04EFE4FF07C5104F042FD05F024F833
:100D3000041E3FDD039B1E19B6F5727FA8BF4FF45A
:100D400072769E420ADD039BF21A03F2F310029BB5
:100D5000920003EB8000002105F018FBA64216DD8F
:100D6000079B029A03EB8407C4F5F97401343444F9
:100D700006F2F31302EB840502EB830454F8040D2E
:100D800055F8041D04F012FDBC422060F6D1049A0F
:100D90001649C2F8EC660023C2F8F036404604F06B
:100DA000CBFF08B9DFF84480049BC3F80C8709B077
:100DB000BDE8F08F039EEAE70024AFE7474645E62B
:100DC0004FF07E5301934FF00009EAE608492846A8
:100DD00004F0F6FD8046F5E6CDCCCC3ECDCCCC3F44
:100DE000CDCC4C3D0000A0413333733F0AD7233CA8
:100DF0009A99193F10B5114C11482368594201F0D6
:100E0000030103F0030258BF4A42002B50F822109E
:100E10000C4A03F0010003F1010323600A4BB8BF41
:100E2000404241F2187C0CFB0030FFF7BBFDBDE8EF
:100E300010404FF4C87001F077BB00BFACD8FF1F63
:100E40005C680000CDCC4C3F54AAFF1F2DE9F04F49
:100E50004F4C504ADFF840A1DFF84091DFF8408165
:100E6000504F514EDFF844B12146002041F8040BA9
:100E7000606083B04860234600204FF080454FF00B
:100E80007E5E002141F2187CC3F80CA0C3F81490D8
:100E9000C3F81880D8611F625E6219619962D962D5
:100EA00019635963634442F82C1C42F8281C42F829
:100EB000245C42F820EC42F81C0C42F8180C42F872
:100EC000140C42F810BC42F80C0C42F8080C02F862
:100ED000041C02F8031C6244DFF8D4C06345D0D17F
:100EE000344B354A1D683548106011611181D1605D
:100EF000002D49D02B4619465B69002BFBD14A6176
:100F00002F4B13602F4B94610021516151609172FE
:100F1000022003F1180258721A611972D96099619E
:100F2000D9612A466D69002DFBD15361264A5D6166
:100F30005D609D721A60234800F0A2FB234B244998
:100F400019600A221A72234800F0C0FD1D4B1A498D
:100F500000952A461F4800F02DFE1F4A1F491D48D4
:100F600002F0C0F91E4800F0B1FD012200921249C2
:100F7000144B1B4800F01EFE174A1849184803B0CE
:100F8000BDE8F04F02F0AEB91A601546B8E700BFF1
:100F900048AAFF1F6CC1FF1F00803B473333B33E9D
:100FA000295C8F3E000020406666663F0000DC43FF
:100FB00078D8FF1FD8D8FF1F20AAFF1F4C68000059
:100FC0005868000000AAFF1FA46800003CAAFF1F89
:100FD0008868000084D8FF1F349DFF1F691C000033
:100FE00098D8FF1F0020704700207047F8B51F4CAD
:100FF000037A0D465A000127C1F307210646204611
:1010000084F8632084F8AE7084F8AD7002F096F92D
:10101000E9B2204602F092F90021204602F070FB6E
:1010200008B10020F8BD317A3B460222204602F08A
:10103000DDFB0128F5D994F8602094F86100824224
:1010400010D2A118531CDBB2097E84F8603098429C
:101050004FEA012106D923440232187E84F8602029
:101060000843F8BD4FF0FF30F8BD00BF2C9FFF1FB5
:10107000F8B5154C037A24294FF0010708BFC28048
:10108000BB400D462046C1F30721164684F8633065
:1010900084F8AE7084F8AD7002F050F9E9B22046E1
:1010A00002F04CF9C6F30721204602F047F9F1B2ED
:1010B000204602F043F93946204602F021FBB0FAFF
:1010C00080F04009F8BD00BF2C9FFF1FF8B5044613
:1010D0007A480E46154602F0C1F9052001F024FABF
:1010E00006212046FFF782FF002E77D0B02800F0BF
:1010F000E0800127277144F2600230212046FFF78B
:10110000B7FF002873D06C2226212046FFF7B0FFDE
:101110004FF4F97228212046FFF7AAFF40F6227209
:101120002C212046FFF7A4FF44F246423C212046F2
:10113000FFF79EFF40F2371224212046FFF798FF69
:101140005F4B9E4200F2AF80002234212046FFF721
:101150008FFF284604F0DCFBB5FBF6F5074630466A
:1011600004F0D6FB0146384604F0DEFC05F01F050E
:101170000646284604F0CCFB0146304604F016FB38
:101180004FF08A4104F01CFC04F01CFEC0F30A027C
:1011900042EAC52232212046FFF76AFF44F2FF529D
:1011A00030212046FFF764FF732202212046FFF71B
:1011B0005FFF4FF4C87001F0B7F941F61D522E21C0
:1011C0002046FFF755FF072204212046FFF750FF76
:1011D000B02206212046FFF74BFF46E00123237192
:1011E00044F2600230212046FFF742FF08B9002098
:1011F000F8BD6C2226212046FFF73AFF4FF4F97222
:1012000028212046FFF734FF40F622722C21204689
:10121000FFF72EFF44F246423C212046FFF728FF0D
:1012200040F2371224212046FFF722FF44F2FF024A
:1012300030212046FFF71CFF732202212046FFF7D2
:1012400017FF4FF4C87001F06FF941F61D522E21BF
:101250002046FFF70DFF042211462046FFF708FF46
:10126000302206212046FFF703FF10220A212046E4
:10127000FFF7FEFE00220E212046FFF7F9FE43F69F
:101280003C4210212046FFF7F3FE47F67F722221F1
:101290002046FFF7EDFE362224212046FFF7E8FE28
:1012A00001206072F8BD3A4634212046FFF7E0FE87
:1012B0004FE70120002323716072F8BD2C9FFF1FB0
:1012C00040660301014A0021FFF700BF605AC50ACA
:1012D00010B50446D1B1012901D0002010BD40F263
:1012E00073122A21FFF7C4FE0028F6D0882220219D
:1012F0002046FFF7BDFE0028EFD0E28820462421DB
:10130000BDE8104022F00402FFF7B2BE55222021B2
:10131000FFF7AEFE0028E0D0E28820462421BDE899
:10132000104042F00402FFF7A3BE00BF38B50546E7
:10133000F1B1802903799ABFC1F1800444EA042401
:10134000002433B9224628462221BDE83840FFF761
:101350008FBEC288002322F0100203712421FFF700
:1013600087FE224628462221BDE83840FFF780BE8E
:10137000012347F67F7222210371FFF779FEEA8885
:1013800028462421BDE8384042F01002FFF770BE25
:1013900038B50B4605461D49184604F011FB1C499B
:1013A00004F006FA04F00EFDF8B180282B799ABFFC
:1013B000C0F1800444EA0424002433B922462846BC
:1013C0002221BDE83840FFF753BEEA88002322F00F
:1013D00010022B7124212846FFF74AFE2246284698
:1013E0002221BDE83840FFF743BE012347F67F7254
:1013F00022212B712846FFF73BFEEA88284624214C
:10140000BDE8384042F01002FFF732BE0000014351
:10141000EE7CFF3E2DE9F84F374B38481A683849C3
:1014200012681B79CB7782422AD2364B1B78002B6D
:101430004AD1DFF8D4A0DFF8D490DFF8D480354F5C
:10144000DAF80060D9F800B0B8F800403D88002E06
:1014500041D0BBF1000F16D00BF10402311D02EB9D
:10146000450201EB440100F07FF9403540347F2C08
:1014700011D87F2DA8F800401AD83D80BDE8F88F1C
:10148000A0F58070D5E7311D01EB4401403400F038
:101490008AF97F2CEDD900243046A8F8004000F0EE
:1014A000BDFA1D4B7F2D1A68CAF800201C60E4D9D4
:1014B000002458463C8000F0B1FA184B1A68C9F86D
:1014C00000201C60BDE8F88F4FF0E0234FF0804211
:1014D000C3F80822ADE7BBF1000F07D00BF1040100
:1014E00001EB450100F07FF94035C0E74FF4807211
:1014F000594604F04BFFBAE7C8D8FF1F408FFF1FC3
:1015000000800040C4D8FF1FB0D8FF1FB8D8FF1F0D
:10151000C0D8FF1FC2D8FF1FB4D8FF1FBCD8FF1F01
:1015200038B50021044600F0C5FA88B1034672B60A
:101530001B4A106800282AD01A490D68002D2BD0AC
:101540001560194A0B600023138062B600F066FA3A
:101550000121204600F0AEFA034690B172B6134A5C
:10156000106878B112490C684CB11460114A0B60D4
:101570000024148062B6BDE8384000F04FBA0B601A
:1015800062B638BD0B491360088062B638BD0649A3
:101590001360088062B6DBE70B6062B6D8E700BF75
:1015A000B0D8FF1FB4D8FF1FC0D8FF1FB8D8FF1F87
:1015B000BCD8FF1FC2D8FF1F10B5044600F020FCA6
:1015C000204610BD284A294BD16B41F40041D1631C
:1015D000116C41F002011164D16B41F00201D16341
:1015E0001A68002A37DBD3F88020002A33DB4FF05B
:1015F000864270B4C3F80021D3F80021002AFBDB37
:1016000001251B4A002647F23201C3F804114FF4AA
:1016100080341E6617495D609A60174ADC60196164
:101620005A61C3F8E060C3F8845005F18E45C3F8F1
:101630008850C3F88C40C3F89010C3F8942020B9A8
:101640000E4B4FF4C0629A609A610C4B4FF4C0622B
:1016500070BCDA60704728B9084B4FF4C0629A60DA
:101660009A617047704700BF0080044000F002405C
:10167000010000071B1F0100001F1F1F00B00440D6
:1016800038B5254C0121204600F05CFB234A244B51
:10169000002010601860FFF795FF224B22494FF49D
:1016A000C0625A602368214A19602149D9602149E2
:1016B00019615A6002254FF480720621DA829D601A
:1016C000DA8398829983986123791B4D03F18043D3
:1016D00003F504338F2218701A70184B2079184ABA
:1016E000E8764FF0807119601A6000F0D7FA22791D
:1016F000144C15492070531102F1100003F13823E6
:10170000124C41F8204040339B0002F01F0201219F
:1017100001FA02F21A6038BDC8D8FF1FB0D8FF1F07
:10172000B8D8FF1F00B00440408EFF1F0200010127
:1017300000FEFFFF22F002400080004000F0024067
:1017400001000090C4D8FF1F0092FF1F1514000075
:10175000024A0349034801F0C5BD00BF349DFF1F85
:10176000B9150000C8D8FF1F2DE9F04F00F5807EA5
:10177000B1E8A00AB2E84015C5EA0643C6EA254426
:10178000C7EA0845C8EA2746C9EA0A47CAEA294813
:10179000CBEA0C49CCEA2B4AA0E8F8078645E7D10A
:1017A000BDE8F04F70474FF000022DE9F00F00F553
:1017B000807C00BFB1E8A00AC5EA0203C2EA254462
:1017C000C7EA0205C2EA2746C9EA0207C2EA29486F
:1017D000CBEA0209C2EA2B4AA0E8F8078445E9D11E
:1017E000BDE8F00F70474FF000022DE9F00F00F553
:1017F000807C00BFB1E8A00AC2EA0543C2EA050442
:10180000C2EA0745C2EA0706C2EA0947C2EA09086E
:10181000C2EA0B49C2EA0B0AA0E8F8078445E9D1FD
:10182000BDE8F00F70472DE9F00F089C00F5007B34
:1018300051F8045B53F8046BC5EA0647C6EA25492C
:1018400052F8045B54F8046BC5EA0648C6EA254A18
:10185000A0E880078345EBD1BDE8F00F704700BFDB
:101860004FF0E0234FF08042C3F80822704700BFDA
:10187000036818470B680360704700BF0B6803607C
:10188000704700BF704700BF70B5C0298E468CB04E
:101890000B4628BF4FF0C00E72B62D492D4C2E4A74
:1018A00008600021118021606160A160E160216118
:1018B0006161C3B10A468C46012501E054F82C1041
:1018C00002F01F0305FA03F301320B43964544F877
:1018D0002C304FEA521CF1D80023438001339E453F
:1018E00000F58270F9D81D4C257815B162B60CB0A0
:1018F00070BD082000F09CFC194B0560802202712D
:1019000006460093069302A9164B029308A8FFF718
:10191000B1FF154A06A9304600F0A6FA069B08A8B2
:10192000DB689847009B02A8DB6898472378002B68
:10193000DCD10E4B4FF0E022D02083F85E004FF058
:1019400080410123C2F80811237062B60CB070BD4B
:10195000D0D8FF1FE8D8FF1FE4D8FF1FE0D8FF1F33
:10196000A868000061180000FF97010000E400E093
:1019700030B472B6244D254C2A8804F1180104EBCA
:1019800082038B423BD204F11701C91A02F1010C08
:101990000CEB910C02E00132624530D0184653F84E
:1019A000041B0029F7D0B1FA81FC4FF0004323FA61
:1019B0000CF321EA0301016001B90132144B2A80C2
:1019C0001A88013291B2198062B6001B801000EBB8
:1019D000801041F67C7303EBC013CCEB0C60CCEBB6
:1019E000801C0C4803EB8C0300680124C454184489
:1019F000094B1C88944238BF198030BC704762B6CE
:101A0000002030BC704700BFE4D8FF1FE8D8FF1F9C
:101A1000D4D8FF1FD0D8FF1FDCD8FF1F428872B672
:101A20000378012B03D9013B037062B6704751095B
:101A30000C48D24302F01F024FF0004310B4D340D1
:101A4000094C50F821201343228840F821308A4263
:101A5000064A88BF21801388013B138062B610BC00
:101A6000704700BFE8D8FF1FE4D8FF1FD4D8FF1F7E
:101A7000C36813B91CE0DB68DBB1187A9042FAD175
:101A800010B4586893F809C0006950F82C404CB164
:101A9000DB682BB1187A9042F3D0DB68002BF9D1C8
:101AA00010BC704740F82C10087801300870EFE740
:101AB00070477047437A8B4206D90369002253F876
:101AC000210043F82120704700207047044900227C
:101AD00002604260028102740A68C2600860704756
:101AE00000D9FF1F037CFBB903680146FBB14368C3
:101AF000EBB1427A5B7A9A421CD230B472B62B4B6D
:101B00001C68ECB1E368C3B1486801E0DB68A3B1CD
:101B10005A688242FAD193F809C04A7A9445F5D1BD
:101B200062B6042030BC7047012062B670470320C3
:101B300062B67047022062B670476469002CE1D13A
:101B40001B4C236843B1994202D10BE0994207D064
:101B50001A46DB68002BF9D1052062B630BC70470D
:101B600002F10C040D68E868E8B1C36823B908E025
:101B7000DA68184632B113468142F9D162B60620BE
:101B8000D0E70346D960CB6823600020C860AA7AFA
:101B900001231A44AA724A682B72947A13721C4465
:101BA00094720B74D9E7E960EDE700BFD8D8FF1F46
:101BB00000D9FF1F10B5047C9DF808E00CB101208E
:101BC00010BD027280F809E0BDE81040C0E90013C2
:101BD000FFF788BF037C002B37D010B54368427AEB
:101BE0005B7A9A42044638D272B60168CB68002B01
:101BF0002DD0984233D01A46DB689C422AD0002B65
:101C0000F9D16268607A136953F8200048B1FFF790
:101C100005FF72B66268617A1369002043F82100FB
:101C200021688B7A013BDBB28B7203B90B72937A1A
:101C3000013BDBB2937203B913720A4B00201A689E
:101C40002074E2601C6062B610BD0120704762B66D
:101C5000032010BDE368D360D3E7022010BDC36842
:101C6000CB60CEE700D9FF1F10B50446FFF7B2FFE7
:101C7000094A136843B19C4202D108E09C4205D056
:101C80001A46DB68002BF9D1204610BD0C32E36800
:101C90001360204610BD00BF00D9FF1F094B1A7802
:101CA00072B909484FF0E0214FF0D00C80F85EC0C7
:101CB00001224FF08040C1F8080110461A707047A9
:101CC00000207047E0D8FF1F00E400E04FF0E02262
:101CD000F8B5D2F8FC3D174D174943F08073C2F8B0
:101CE000FC3D2B680C6843F001032B606E689CB1CF
:101CF000237A20466BB123686F681B6898476B682E
:101D0000E188DB1BC3F30F12B1EB131FA28038BFB6
:101D1000E2806469002CEBD1064B084A5B681088AE
:101D2000074C9B1BC3F30F11B0EB131F218038BF6F
:101D30001180F8BD001000E0D8D8FF1FE2D8FF1FC7
:101D4000DED8FF1F10B472B621B9026812B1037950
:101D50000F2B41D9284C2188002341FA03F212F0BD
:101D6000010208D00133102BF7D162B600220260C5
:101D7000037110BC70474FF0010C0CFA03FC41EAF0
:101D80000C01218062B61D495FFA83FC80F804C013
:101D90000C6C44F002040C64CC6B44F00204CC6381
:101DA00003F10073A1F58021822403F590630C6098
:101DB0005B0181F81AC081F81EC081F818C081F853
:101DC0001FC010BC0360C3E90022C3E90222C3E9BB
:101DD0000422C3E906227047074C218841FA03FC1C
:101DE0001CF0010FB8D003F1007303F59063B2EB60
:101DF000431FB1D162B6BCE704D9FF1F0080044085
:101E000003790F2B11D8094A937672B6084990F8D6
:101E100004C00B88012202FA0CF223EA02030B80B1
:101E200062B61022002302710360704700800040F8
:101E300004D9FF1F704700BF704700BF704700BF45
:101E4000704700BF704700BF38B5064CA4F160056D
:101E500054F8083C2046DB68183C9847AC42F7D160
:101E600038BD00BF58D9FF1F2DE9F043036887B084
:101E700004469046002B3ED000229A600122DA6090
:101E8000294DDFF8A8901D442D1151F8083B00930F
:101E900005EB4506F60002A85B68984706F10807BF
:101EA00059F806304F443846DB689847009B204A73
:101EB000009202A949F8063038469B689847009B73
:101EC00002A8DB68984723681A49C3F800800322F8
:101ED0009A6005F14402531103F1382320796854C4
:101EE000403301209B0002F01F0200FA02F21A6048
:101EF00007B0BDE8F083104AD36B43F40003D3630B
:101F000000BF0E4B01221A6003F580730C4A036078
:101F100098680028B4D0103393422360F8D1002091
:101F2000206007B0BDE8F083008FFCBF08D9FF1F19
:101F3000B868000044E400E0008004400070034002
:101F4000407103400448054A50F8083B01211B68D2
:101F5000C2F80C11184700BF08D9FF1F00700340DA
:101F60000448054A836901211B68C2F81C1120300E
:101F7000184700BF08D9FF1F007003400448054AF6
:101F8000036B01211B68C2F82C113830184700BFC1
:101F900008D9FF1F007003400448054A836C0121E3
:101FA0001B68C2F83C115030184700BF08D9FF1F0A
:101FB00000700340084B0948094A0A4910B40A4C0A
:101FC0001C6098609C6118621C6398639C6418652F
:101FD00010BC002001F086B908D9FF1F351E000093
:101FE000349DFF1F491E0000A868000008B5FEF7D9
:101FF0000FFCFEF7FFFE01F005F8FAE701B441EA35
:10200000000313F003036FD1403A41D351F8043B6E
:1020100040F8043B51F8043B40F8043B51F8043BC2
:1020200040F8043B51F8043B40F8043B51F8043BB2
:1020300040F8043B51F8043B40F8043B51F8043BA2
:1020400040F8043B51F8043B40F8043B51F8043B92
:1020500040F8043B51F8043B40F8043B51F8043B82
:1020600040F8043B51F8043B40F8043B51F8043B72
:1020700040F8043B51F8043B40F8043B51F8043B62
:1020800040F8043B51F8043B40F8043B403ABDD2D1
:10209000303211D351F8043B40F8043B51F8043B73
:1020A00040F8043B51F8043B40F8043B51F8043B32
:1020B00040F8043B103AEDD20C3205D351F8043B02
:1020C00040F8043B043AF9D204320AD0D2071CBFCC
:1020D00011F8013B00F8013B03D30B7803704B78F8
:1020E000437001BC704700BF0C2A4AD310F00303B1
:1020F00011D0C3F10403D21ADB071CBF11F8013B56
:1021000000F8013B07D311F8013B00F8013B11F83F
:10211000013B00F8013B11F003033FF475AF30B40D
:10212000043AC91AC3F1040C51F8044B022B19D01C
:10213000032B0BD0240A51F8043B1D0644EA050486
:1021400040F8044B1C46043AF4D216E0240E51F831
:10215000043B1D0244EA050440F8044B1C46043AC3
:10216000F4D20AE0240C51F8043B1D0444EA0504AF
:1021700040F8044B1C46043AF4D20432B1EB0C0193
:1021800030BC043AA0D3013A11F8013B00F8013BFE
:10219000F9D20B7803704B7843708B78837001BC55
:1021A000704700BF08B50F4C636B58030DD4636BC9
:1021B00059050FD4636B1A0511D4636BDB04F3D597
:1021C00000F012F8636B5803F1D500F07DFA636BF1
:1021D0005905EFD500F008F8636B1A05EDD500F04E
:1021E00003F8EAE70080044008B5FFF7DBFF00BF13
:1021F000014B10221A80704700200540704700BF35
:10220000094A08B50346106833B169460344A1F58D
:1022100080518B4201D2136008BD04F021F90C23D8
:1022200003604FF0FF3008BD389DFF1FFEE700BF81
:1022300003F0E8BD704700BF212835D8042A33D801
:1022400030B42A4B2A4D53F8223005EBC0021B0450
:102250005468226812F4E06239D0264A2648C2F84F
:102260009C012648C2F8A0012548C2F8A4012548CF
:10227000C2F8A8012448C2F8AC0104F14042A2F51A
:1022800092207C2811D8214872B6226822F470224C
:1022900022601343C4F3840243F0807340F8221099
:1022A000236062B630BC70477047A2F594207C284A
:1022B00015D9A2F596207C2813D9A2F598207C2860
:1022C00011D9A2F59A227C2AECD81148DCE755F8FE
:1022D000300080F880224FF480722260BDE70D4804
:1022E000D2E70D48D0E70D48CEE700BFC868000030
:1022F000DC6800000092FF1F019DFF1FCD9CFF1FA7
:10230000999CFF1F659CFF1F319CFF1F3C9DFF1F79
:10231000149EFF1F749DFF1FC49DFF1FF49DFF1F90
:102320001A4B03EBC0035A6802F14043A3F5922114
:102330007C2905D9A3F594217C2914D8144900E0FF
:10234000144910B472B61368134C23F08773C2F3A8
:10235000840023F4803343F08073136041F82040FD
:1023600062B610BC7047A3F596217C2909D9A3F564
:1023700098217C2907D9A3F59A237C2B05D80749F6
:10238000DFE70749DDE70749DBE77047DC68000066
:10239000749DFF1F3C9DFF1F35220000149EFF1FF0
:1023A000C49DFF1FF49DFF1F034B002210215A61A3
:1023B0005A6018605961704700D00340704700BFF1
:1023C000F0B54FF0E0244FF400054FF0807CC4F8E6
:1023D0000851C4F808C14FF0007CC4F808C11D4A78
:1023E0001D481E494FF0806CC4F808C128230027FF
:1023F00048F6FF7609254FF0006CC4F808C183B099
:1024000057609660D3605361D3615362D362536364
:10241000D3635364156047608660C36043610560A1
:102420004F608E60CB604B610D6000F08FFEFFF758
:10243000C5FF0B4C23680093009B132BFAD900F0C7
:10244000FFFC23680193019BB3F5967FF9D303B09A
:10245000F0BD00BF008003400090034000800B40AF
:1024600068D9FF1F212816D810B4104B53F830201C
:1024700092F880422CB1012371B982F8003110BC6E
:10248000704703EBC0035B681A6849B142F003026E
:1024900010BC1A607047704782F8803010BC7047DB
:1024A00022F0020210BC1A60704700BFDC68000016
:1024B000212820D81B4A02EBC00301295B680FD0FA
:1024C00004291DD052F83000002280F8802299B1F2
:1024D000022922D003290DD14FF481721A6070476E
:1024E00052F830004FF4A27280F880121A601A6815
:1024F00022F020021A6070474FF480721A60704711
:1025000052F830104FF4A272012081F880021A6054
:102510001A6842F020021A60704740F203121A60F3
:10252000704700BFDC6800002DE9F843044672B62E
:10253000204F4FF0E02293693D68D2F8042D62B637
:10254000520102D5322B88BF01350CB9BDE8F883A2
:10255000DFF86490DFF86480A9EB0303A8FB032392
:102560004FF47A7202FB05F505EB13154FF0E026E8
:1025700072B6B1693A68D6F804CD62B6A9EB010328
:10258000A8FB03031CF0806FC5EB13134FF47A70A4
:1025900002D0322988BF013200FB0233B3F57A7FC3
:1025A00004D3013CD2D005F57A75E1E700F02AFDAD
:1025B000DEE700BF68D9FF1F3F190100398EE338FD
:1025C00010B472B6194A1A4C042312F8011B0907F9
:1025D00043F0010C05D554F8331061B154F83C10A8
:1025E000B9B10433182BF0D162B6124B00221A7025
:1025F00010BC00F089BC0F4904EBC30208305060E6
:102600000A780D4844F83300013A0A7062B610BCEB
:102610007047084A094904EBCC0308305860137826
:1026200044F83C10013B137062B6F0E7506A0000BA
:102630000080FF1F66DAFF1F88004000C8004000CE
:10264000421E042A0ED81C4B400140F0100010B46A
:10265000034472B6194CA05C03281CD8DFE800F0D4
:102660001315031870470520A05413F0080F0888AD
:1026700014BFC8228822083142EA004259601A6019
:1026800062B610BC70470320EEE708330220EBE788
:1026900008330420E8E70A4B53F8220038B1094B0D
:1026A00053F82200416043F8221062B6E9E743F88C
:1026B0002210044BF7E700BF0080FF1F54DAFF1F12
:1026C0002CDAFF1F40DAFF1F2DE9F04FDFF8D0A210
:1026D000DFF8D0B285B03DE0B34D9E0805EBC607EC
:1026E000013A796813F00803D4B2A1F1080040F070
:1026F000BA8055F836204FEA124C120C21F808CC5B
:1027000000F0A98021F8063C41F8043CA74B53F89F
:102710002420002A00F00382A54B53F824205060A7
:1027200043F82400A34B33F81420944423F814C036
:1027300000F0CAFB002800F0EB8117F0080F9E4B59
:1027400000F1080018BF5B46786045F83630082372
:102750008AF880309AF880305907DCB21DD5974B43
:102760001B78BBB196490A7802F0FF032AB1013BFE
:10277000DBB20B70002B00F0488392490A7802F01C
:10278000FF032AB1013BDBB20B70002B00F0ED819F
:1027900000F0E2FB04238AF8803014F0080200F015
:1027A000CC819AF89020D3B2120995D1DFF8F89134
:1027B0009B0809EBC30459F833006468C0F3830035
:1027C00009287CD00FD80138012808D87E4A1588FE
:1027D00042F22100854200F0FB8149F833B0012329
:1027E0008AF89430B3E70D28F9D1D4E90007774D82
:1027F00049F833B0744E764CC9F8102083B240F2D9
:10280000816CC9F818202A6063454FF00102C6E9BF
:102810000007227000F2FF80B3F5D06F80F0CB820A
:10282000B3F5817F00F0268240F2DE8040F2023272
:1028300093427BD107F07F07052F00F20881020C3D
:1028400040F00581634911F8273043F0020301F895
:102850002730134670E017F0080F574B18BF5B4640
:1028600045F8363073E700F04FFB5B495B4A51F89F
:102870002430002B00F05781586841F82400115D86
:1028800003F108007860032905D8DFE801F0120F92
:102890001502042111551A8817F0080F14BFC82318
:1028A000882343EA024345F8363050E702211155A8
:1028B000F1E703211155EEE705211155EBE7434DF3
:1028C0002A683AB34649424C0F88464894F800E0DB
:1028D0000678402F3B4628BF4023BEF1000F8EF004
:1028E000010E84F800E046F0020486F0010606704E
:1028F00009EBC400426014BFC820882040EA0340AE
:102900001A44FB1A9BB249F834000B80002B00F0EC
:1029100036812A602C4B1A88B2F5A06F7FF45FAF26
:102920009A788AF8982000225A7058E7B3F5A06F79
:1029300040F08D8000221346B6F806C02948944521
:1029400028BF944667460278402F28BF402742F0B0
:10295000020E3E0409EBCE0846F0C806C8F8043063
:1029600049F83E6000263B442670BCEB070782F026
:102970000106067040F01181BCF13F0F4FF00105D8
:1029800009D946F00206027009EBC60225705360B1
:10299000882349F8363001238AF894301FE700BFB6
:1029A00000200740C80040000080FF1FFCD9FF1F27
:1029B00010DAFF1F5CDAFF1F8800400059DAFF1FA2
:1029C0005ADAFF1F88DAFF1F24DAFF1FF0D9FF1F32
:1029D000EDD9FF1FC02007402CDAFF1F54DAFF1F7C
:1029E000EED9FF1FECD9FF1F802B00F08B81822BCB
:1029F0002DD107F07F07052F29D8A74A0023138080
:102A0000A64B13F827309F0740F1FC810123137078
:102A1000A14B022290E742F2210C6345BBD01DD9A5
:102A200042F2212293420DD1BFB2002F82D19C4BA2
:102A30001A689C4B1A609C4BC0F307400022187028
:102A4000134679E742F2213293423FF473AF0F23EA
:102A50008AF8C03001238AF89430C0E6B3F5086FD5
:102A600000F04A81B3F5106FF1D1904BC0F30740ED
:102A70000425187059F835301A0606D40135182D7A
:102A80000CD059F835301A06F8D509EBC5030135D5
:102A90005868083800F038FA182DF2D1844A854B6E
:102AA0000292854A0192854E854ADFF81882039486
:102AB000009200251C4656F8047B2FB138467F68EB
:102AC00000F022FA002FF9D1009BD8F8007043F8EB
:102AD000045B46F8045C00932FB138467F6800F031
:102AE00013FA002FF9D1029B48F8045B43F8045B0A
:102AF0000293019B23F8025B01932378023B032B93
:102B000000F20981DFE813F03F0104013F010401F5
:102B10006D4A45F8360013780133137017E643F811
:102B20002400674BFCE5115D022926D07FF60FAE2D
:102B300003291DD10123135509E6E0076ED42106B0
:102B400021D4A20708D5614B93F888200221D2B284
:102B500083F8882083F88010E30603D55B4B1022AE
:102B600083F8802005B0BDE8F08F00F027FA0FE66B
:102B700017F0080F14BF032302231355E7E53F2F77
:102B800098BF0022C5E6514B80220D2183F8C0106A
:102B900083F88020A207DFD5D5E746F00206027051
:102BA000402F09EBC6003A4628BF4022436010047C
:102BB000134440F088000121BA1A49F83600217008
:102BC00055D02B60424B1A8001238AF8943006E6D8
:102BD00092885AB93F4AE51D14F8011B02F8011FFB
:102BE000AC42F9D13C4A1268862A3CD03B4C3C4866
:102BF00025780278002D85F00105257042F0020449
:102C000082F00102027009EBC4024FF00000506034
:102C100014BFC822882249F83420DEE52B4B304807
:102C20003049314C022583F8945002702F480C60D3
:102C30002F4D48608C600D24CD60FF200A618A61B1
:102C400083F8C04001219F2483F8880083F8800026
:102C500083F8982083F88C0083F8844083F89410DC
:102C600005B0BDE8F08F234A0F201070BEE73F2F5C
:102C7000A7D890E607F07F07052F3FF6E8AE000CD7
:102C80007FF4E5AE054A12F8273023F0020302F87C
:102C90002730002213464FE6F4D9FF1FC02007401B
:102CA00068D9FF1F84DAFF1F80DAFF1F59DAFF1F80
:102CB00040DAFF1F54DAFF1F5CDAFF1FFCD9FF1F49
:102CC00010DAFF1F2CDAFF1F66DAFF1F0020074013
:102CD000EED9FF1F77DAFF1F78DAFF1FEDD9FF1F4C
:102CE000ECD9FF1F0080FF1F880040006CD9FF1F38
:102CF000ACD9FF1F5ADAFF1F484B49491B780B70AC
:102D00000B4619E6464A00231380454B022213E680
:102D10004FF001032370434BB34204F101047FF4ED
:102D2000CAAE414E039CDFF80481414F002333704B
:102D3000042518F8013B3F4AAB541B0725D445F046
:102D4000020145F0030204350023182D49F8313003
:102D500049F83230EDD1384F25783A7842F0020008
:102D600009EBC00C85F00106CCF80430002D4DD1E4
:102D7000882382F0010226703A7049F8303001232E
:102D80008AF894302BE52570C5E700F09DF80028FF
:102D900032D009EBC5030830586049F8357000F0AF
:102DA00093F808B345F0010309EBC3020830506003
:102DB00049F833B0C3E7214A5368002B3FF447AECC
:102DC000000CBFB204E013690C32002B3FF43FAE9D
:102DD00011888142F7D15188B942F4D1000A032801
:102DE0000CBF1A781289A7E533780133337045F0A8
:102DF000010349F83300A2E7337849F8350001337D
:102E00003370CCE7064B022296E500BE2670C8233D
:102E100082F001063E7049F83030BCE559DAFF1FF8
:102E2000F4D9FF1F10DAFF1F66DAFF1F506A000097
:102E300088004000C0200740ECD9FF1FF069000067
:102E400070B500F0E9F900231A4A194642F8331028
:102E500002EBC3000133182B4160F7D1164C174B1E
:102E6000606B174D40F480206063C2F3072483F841
:102E70009C40144CFF204FF0010CC2F30746120E89
:102E800083F8B0604FF0E02E83F8B42083F8800020
:102E900083F88800187483F894C0217083F884C084
:102EA000702385F849304FF400721023CEF80821C2
:102EB000237270BD0080FF1F008004400020074087
:102EC00000E400E00021074072B60D490B68B3FA38
:102ED00083F01D2810DC4FF00042C24023EA0203B9
:102EE0000B6062B6074A00EBC000C10002EBC000F5
:102EF000002353504360704762B60020704700BF04
:102F00001C9EFF1FBC93FF1F0E4BC31AB3F5076F28
:102F100010D20D4A127872B972B60C4A0C49A2FB53
:102F2000032308684FF000421B0922FA03F303430E
:102F30000B6062B67047074A1278002AECD0FFF7A0
:102F40003FBB00BFBC93FF1F66DAFF1F398EE3381B
:102F50001C9EFF1F59DAFF1F70B50B4C257845B931
:102F60000A4E31680123237009B14B8813B900233D
:102F7000237070BD9B000B800420FFF761FB0023D2
:102F800035602370F5E700BF67DAFF1F68DAFF1FBF
:102F9000084B094A1B6810B554881BB11A885B8816
:102FA000D31A1C440CB1204610BD00F02BF820466B
:102FB00010BD00BF6CDAFF1F5CDAFF1F38B50E4B87
:102FC0001B7853B90D4C216841B103F0FF054B88C4
:102FD0000B800320FFF734FB256038BDFFF774FF3B
:102FE000014620B1BDE838400320FFF729BB044B60
:102FF00001221A7038BD00BF70DAFF1F74DAFF1F9C
:1030000088DAFF1F2DE9F843324E337863B1324F2F
:103010003A784AB90122D9073A7043D49A0726D49C
:1030200000225B073A7001D4BDE8F8832B4B1A6885
:10303000002AF9D0EFF30582002AF5D1EFF31085CD
:1030400072B6186800283AD0254C2178002936D16C
:1030500042691A6001232370002A37D0916105B9B3
:1030600062B600258368457798472570DCE7DFF86E
:10307000748098F80020002AD2D00025DFF86890EC
:103080002B4659F82340236820461B690135984791
:1030900008B12369984798F80020EBB29A42F0D81B
:1030A0003378BDE7FFF774FF68B9104B1B780BB995
:1030B0003378B3E7337803F0FE033370AEE7002DC7
:1030C000B2D162B6B0E700F0A5F8EEE7084B1A609F
:1030D000C5E700BF209EFF1F89DAFF1F8CDAFF1FA4
:1030E00098DAFF1FACDAFF1FA0DAFF1FEC690000BF
:1030F0009CDAFF1F70B5EFF3108272B60C4C20689B
:1031000080B10C4E00254369236073B19D6102B903
:1031100062B6836845779847EFF3108272B62068ED
:103120000028F0D102B962B670BD3360EFE700BF8E
:1031300094DAFF1F90DAFF1FFFF7DCBF024A136823
:1031400001331360704700BF68D9FF1F2A4B2B4A19
:103150006020E1211870597013782948082B34D069
:103160000A2B20D00C2B274B0CBF15213D211222FE
:103170008160C2609960DA60234B21491B78214A43
:10318000CBB101230B621362204B1D491B781D4AF2
:10319000012B13D9042B1BD884234B6253621C4B85
:1031A00001221A707047174B192113228160C260E7
:1031B0009960DA60E0E70B621362E5E780234B6217
:1031C0005362134B01221A7070470E4B0121ECE73A
:1031D000082B06D885234B6253620D4B01221A70CF
:1031E0007047102B94BF862387234B625362084B92
:1031F00001221A70704700BF00400740219EFF1F48
:1032000000B0034000B00B40ADDAFF1F229EFF1F4D
:10321000AEDAFF1F704700BF10B584B072B6174A10
:10322000702441200F2180231470D071917113708C
:1032300013781B06FCD5906862B6114B114C98426E
:1032400038BF00EB800001A938BF40000A2200F01F
:103250001BF801A92046002311F8012B01333AB1D4
:103260000A2B20F8022FF7D11623237004B010BDCB
:103270005B00DBB2237004B010BD00BF0000024051
:1032800080969800149FFF1F01F1FF3C70B56546C2
:10329000002401E070460134B0FBF2FE02FB1E0385
:1032A000092B03F130068ABF3733F3B2DBB2904209
:1032B00005F8013FEED2631C0022CA54C8187CB145
:1032C00062461CF8015F10F801ED8CF800E0A1EBFC
:1032D0000C030232013B521A23449A420570EFDB81
:1032E000084670BD03460846194603F0A1B800BF62
:1032F0000020704790F8612090F86000101A704725
:1033000090F8603090F861209A4205D95A1C034425
:1033100080F86020187E70474FF0FF30704700BF84
:1033200090F8603090F861209A4286BFC018007E05
:103330004FF0FF30704700BF704700BFB0F8AE30AD
:103340002BB190F8AD30482B03D901234360002006
:103350007047C218013380F8AD30012082F8631045
:10336000704700BF38B5B0F8AE40A4B190F8AD30AA
:10337000C3F14904A24284BF01224260054698BFBE
:103380001446633018442246FEF738FE95F8AD30F7
:10339000234485F8AD30204638BD00BF70B5164CCB
:1033A0002369DB7813F0200514D094F8B030013392
:1033B000DBB2012B84F8B03002D894F8AF3043B9B7
:1033C000636994F8B1201344BDE87040187AFEF7A1
:1033D000A7BF70BD636994F8B1201344187AFEF753
:1033E0009FFFD4F8B830002BF3D094F8610084F834
:1033F0006050BDE870401847E89FFF1F70B5164C3D
:103400002369DB7813F0200514D094F8B030013331
:10341000DBB2012B84F8B03002D894F8AF3043B956
:10342000636994F8B1201344BDE87040187AFEF740
:1034300077BF70BD636994F8B1201344187AFEF722
:103440006FFFD4F8B830002BF3D094F8610084F803
:103450006050BDE8704018472C9FFF1F4269002351
:10346000A0F86030C0F8AC3010B4D2E900140A689B
:10347000C0F8B43022430469C0F8B8300A60A370C1
:10348000426990F8B1301849134493F808C05B7B47
:1034900001EBCC0C1B02DCF8044003F4E06343F0C6
:1034A0006403236090F8B23013449C7CDB7D01EB15
:1034B000C4011B024C68116803F4E06343F0640329
:1034C000236009685368194205D0036928225A709D
:1034D000036903229A71036920225A7103698022C9
:1034E0009A7010BC704700BFDC68000010B503691B
:1034F000D978CAB2C906044622D510215006D9701F
:103500001DD512F0040250D03D49D4F8B420002358
:103510000B7084F8AD30002A5BD0904794F8AD3042
:10352000002B56D02369D0229A70236994F8632027
:103530001A712369012284F8AC200222DA7010BDCE
:103540005106DED4997811F0100117D12D4A80F878
:10355000B01090424FD02C4A904241D094F8611064
:103560001A794729D2B2E8D8254800780028E4D053
:10357000481C214484F861000A76DEE712F001025B
:1035800020D190F8AC1090F8AD00884281BF4A1C61
:10359000091984F8AC2091F863201A712369D022AC
:1035A0009A7023690222DA70C9E7236984F86120DE
:1035B000C0219970124A23690121117002221879E1
:1035C000DA70BCE7C0229A7003691A790222DA70B5
:1035D000B5E70122002384F8AD2084F86330A1E729
:1035E000436990F8B120094913440322187AFEF781
:1035F00023FE2369B2E7436990F8B1200449F3E759
:10360000AFDAFF1F2C9FFF1FE89FFF1F9D330000B5
:10361000FD3300002DE9F047374C0269236882B082
:103620000093DDF80080D378990618D5334E05460F
:10363000002102E0D3789B0611D523680193019BFA
:10364000A3EB08030F2BF5D969B1102BF2D00020A2
:1036500090702B6980229A7002B0BDE8F08701203B
:1036600002B0BDE8F08795F8B1206B6913440521DD
:10367000187AFEF71DFF6B6995F8B12013440121FC
:1036800093F812A05046FEF713FF09274FF0780970
:1036900000215046FEF7E6FE4B46013BFDD10121DD
:1036A0005046FEF7DFFE4B46013BFDD1013FEFD117
:1036B000696995F8B1300B44F022187A5B7B06EB10
:1036C000C0001B02406803F4E06343F0640303603E
:1036D00095F8B2300B44997CDB7D06EBC1011B02EF
:1036E000496803F4E06343F064030B60013AFDD1E1
:1036F00001212A699EE700BF68D9FF1FDC6800002E
:10370000F0B503691222DA700269937813F020068B
:1037100085B004460D4652D0B423937032492069D7
:103720000B680093009E05E00A680192019A921BC3
:10373000042A3DD8C37813F02003F5D094F8AD30B7
:103740006BB34FF0000CE646022604EB0E0393F831
:10375000633003710B680293029F206907E09206B1
:103760000AD50A680392039AD21B052A20D8C37887
:10377000DAB213F00203F2D0C6702369DA78D7B256
:10378000D206184626D4BA0624D5FA0726D494F8C9
:10379000AD300CF1010C5FFA8CFE7345D5D80020DA
:1037A00015B1236980229A70002384F8AE3004E0BA
:1037B0008370236980229A70042005B0F0BDFFF762
:1037C00029FF28B1236984F8AF60B0229A70A5E779
:1037D0000420F2E780229A700420E1E7BEF1000F96
:1037E0000CBF02200320DDE768D9FF1F2DE9F04759
:1037F0009046994600220369A0F860201222DA70F0
:1038000003699C7814F0200588B007468A4600F0CA
:103810009F80B4229A70704E3B6932680092009A81
:1038200008E030680190019CA4EB020CBCF1040F8D
:1038300000F28680DC7814F02005F2D04FEA4A02CC
:1038400042F00102D2B21A713368029302983A69C7
:1038500006E0336803930399091A052900F2828070
:10386000D47814F00205F4D04FF0020C82F803C0B3
:103870003B69DC7814F011057CD1B8F1000F00F041
:103880008480B8F1010F00F08D80A0229A70396910
:103890000B794FF0A80E33680493049805E0326862
:1038A0000592059A121A052A68D8CB7813F00203FC
:1038B000F5D081F803C03969CB78DCB2DB06084665
:1038C0000A4641D4A4063FD508F1FF385FFA88F8CC
:1038D000B8F1010F04D181F802E0396908460A46BF
:1038E000472D59D90379B8F1010FD4D13368069324
:1038F000069805E0316807910799091A052956D8F5
:10390000D37813F00203F5D00223D3703A69D37849
:10391000D806D9B255D48B0616D5B023472D93704F
:103920004CD83A697C19127922766B1CDDB2B9F158
:10393000000F02D03B6980229A7087F8615003E043
:103940009D703B6980229A70284608B0BDE8F087D8
:10395000FFF760FE0028F7D03B6987F8AF50B02230
:103960009A7058E795703B69802228469A7008B093
:10397000BDE8F08780229A700025E5E78B703B69EF
:1039800080229A7087F86150DEE7B9F1000F14BF0A
:103990008022A0229A70D7E77B19007918766C1CD8
:1039A000E5B2A0E7A8229A703A6913799EE793706E
:1039B0003B6980229A7087F86150C5E73B691B79A3
:1039C000B5E710217823D170013BFDD13A69937896
:1039D00003F0F7039370B7E768D9FF1F0148FFF7BB
:1039E00085BD00BF2C9FFF1F0148FFF77FBD00BFB3
:1039F000E89FFF1F00F02ABA38B5044600F0AEFA7F
:103A00000546204600F074F848B10D49204602F002
:103A100093F930B90B49204602F070F948B92846AD
:103A200038BD02F01DFD4FF0FF45222303602846FC
:103A300038BD02F015FD222300250360EFE700BF2B
:103A40001772B142B5F1CFC270B50C46064600F010
:103A50001FFC21460546204602F078F958B900219E
:103A6000304602F041F9A0B10021204602F03CF9B5
:103A700018B14FF07E55284670BD204600F038F84A
:103A80000028F8D00021204602F038F90028F2D0B2
:103A900023E0284600F02CF880B10021284602F0EF
:103AA00023F90028E7D0304600F022F80028E2D0C1
:103AB000204600F01DF80028DDD00EE0304600F072
:103AC00017F80028E9D0204600F012F80028E4D0CA
:103AD0002946284602F03AF920B902F0C1FC222317
:103AE0000360C8E702F0BCFC21230360C3E700BF0A
:103AF00020F00040B0F1FF4FACBF00200120704724
:103B0000174A20F0004393421ADD00B5B3F1FF4F8E
:103B100083B005DB014601F049FE03B05DF804FB0C
:103B2000694600F07FFF00F00302012A0199009826
:103B300009D0022A0FD05AB1012200F011F9ECE7A6
:103B4000002100F047B800F00BF900F10040E4E775
:103B500000F040F8E1E700F03DF800F10040DCE75C
:103B6000D80F493F1A4A20F0004393421BDD00B5AD
:103B7000B3F1FF4F83B005DB014601F017FE03B040
:103B80005DF804FB694600F04DFF00F003000128DA
:103B900001990CD0022813D068B1009800F01AF8EF
:103BA00000F10040EBE70021002200F0D9B80098B6
:103BB00000F010F8E3E70098012200F0D1F8DEE70A
:103BC0000098012200F0CCF800F10040D7E700BFD8
:103BD000D80F493F2DE9F84320F00045B5F1485F83
:103BE000064688464ADA02F0C7F8002800F09F80AF
:103BF0003146304601F0E4FE4F49044601F0E0FE54
:103C00004E4901F0D5FD214601F0DAFE4C4901F0A4
:103C1000CDFD214601F0D4FE4A4901F0C9FD2146FF
:103C200001F0CEFE484901F0C1FD214601F0C8FE79
:103C3000464901F0BDFD214601F0C2FE07464FF0A6
:103C40007C51204601F0BCFE3946034620461C4606
:103C500001F0B6FE41460546304601F0B1FE014690
:103C6000284601F0A3FD0146204601F09FFD0146D4
:103C70004FF07E5001F09AFDBDE8F883014601F057
:103C80009FFE2D49044601F09BFE2C4901F090FD5A
:103C9000214601F095FE2A4901F088FD214601F0F8
:103CA0008FFE284901F084FD214601F089FE264956
:103CB00001F07CFD214601F083FE244901F078FDEE
:103CC000214601F07DFE224B9D420746B7DD214B88
:103CD0009D4228DC05F17F454FF07E50294601F0DA
:103CE00065FD81464FF07C51204601F069FE294672
:103CF00001F05CFD3946034620461C4601F060FE9B
:103D000041460546304601F05BFE0146284601F07B
:103D10004DFD0146204601F049FD0146484601F0AF
:103D200045FDBDE8F883DFF830900C4DDAE74FF041
:103D30007E50BDE8F88300BF4ED747ADF6740F3113
:103D40007CF29334010DD037610BB63AABAA2A3D11
:103D50009999993E0000483F0000383F0000903E8E
:103D60002DE9F84320F00043B3F1485F04460E46C6
:103D7000904603DA02F000F8002858D02146204689
:103D800001F01EFE05460146204601F019FE2949B4
:103D90008146284601F014FE274901F007FD294617
:103DA00001F00EFE254901F003FD294601F008FE51
:103DB000234901F0FBFC294601F002FE214901F0F4
:103DC000F7FC0746B8F1000F22D04FF07C51304687
:103DD00001F0F6FD39468046484601F0F1FD014606
:103DE000404601F0E3FC294601F0EAFD314601F0CE
:103DF000DDFC15490546484601F0E2FD014628462E
:103E000001F0D6FC0146204601F0D0FCBDE8F88365
:103E10000146284601F0D4FD0B4901F0C7FC494694
:103E200001F0CEFD214601F0C3FCBDE8F883204639
:103E3000BDE8F883D3C92E2F342FD7321BEF383685
:103E4000010D50398988083CABAA2A3E70B521F093
:103E50000045B5F1FF4F0A4603462CDC20F0004632
:103E6000B6F1FF4F844626DCB1F17E5F35D08C176A
:103E700004F0020444EAD07416B33DB3B5F1FF4F29
:103E800033D0B6F1FF4F21D0761BB6F1F45F4FEA85
:103E9000E65028DA002933DA3C3031DA0020012CF0
:103EA0003FD0022C35D02CB1244901F081FC2449AB
:103EB00001F07CFC70BD1946104601F079FC70BD24
:103EC000022C08D0032CF5D11E4870BDBCF1000FA8
:103ED00007DB1D4870BD1A4870BDBDE8704000F09A
:103EE00093BF1A4870BD1848D9E7B6F1FF4F04F1E7
:103EF000FF3419D0022C1DD8154B53F8240070BD87
:103F00001146184601F010FE01F096F800F07CFF13
:103F1000C5E70A4901F04CFC0146094801F046FC9E
:103F200070BD00F1004070BD022C05D8094B53F85C
:103F3000240070BD002070BD074870BD2EBDBB338E
:103F4000DB0F4940DB0F49C0DB0FC93FDB0FC9BFA7
:103F5000C86A0000BC6A0000DB0F493F20F0004245
:103F6000B2F1FF4F2DE9F04704466CD84FEAD07507
:103F700000F0C6807A49884200F3B4800028C0F27D
:103F8000B680784B9A4263D9774B9A4200F2C5804B
:103F9000764B204653F8251001F008FC744BC5F110
:103FA000010653F825908046761B4946404601F0AD
:103FB000FDFB0146054601F003FD6E49044601F094
:103FC000FFFC6D4901F0F2FB214601F0F9FC6B4961
:103FD00001F0EEFB214601F0F3FC694901F0E6FB3C
:103FE000214601F0EDFC674901F0E2FB214601F0BA
:103FF000E7FC0146284601F0D9FB2C4607468246DD
:10400000002E57D03946284601F0DAFC39460446DE
:104010004FF0804001F0CAFB0146204601F084FDCC
:104020000146484601F0C2FB414601F0BFFB014694
:104030004FF07E5001F0BAFB16F17D0F64DB00EB10
:10404000C650BDE8F087014601F0B2FBBDE8F0873D
:10405000B2F1505F09D24C49204601F0A9FB4FF064
:104060007E5101F069FE002874D12146204601F0FE
:10407000A7FC4049054601F0A3FC3F4901F096FB2F
:10408000294601F09DFC3D4901F092FB294601F0D3
:1040900097FC3B4901F08AFB294601F091FC394924
:1040A00001F086FB294601F08BFC0146204601F019
:1040B0007DFB82465146204601F082FC4FF0804154
:1040C0000546504601F072FB0146284601F02CFDE2
:1040D000214601F06BFB01464FF07E5001F066FB7C
:1040E000BDE8F087BDE8F047002000F031BE274B67
:1040F0009A427FF646AFBDE8F047002000F024BEAC
:10410000002DA3D00020A1E764364FF0586100EBEA
:10411000C65001F055FCBDE8F0871D49204601F06E
:104120004FFC1C4B53F8251001F042FB01F024FE1C
:10413000064601F0F1FB1849054601F041FC014635
:10414000204601F033FB15498046284601F038FC33
:1041500081462AE74FF07E51204601F029FB75E7A2
:104160001772B1421872B13E9115853FDC6A0000AA
:10417000E46A00004CBB31330EEADD3555B38A38B2
:10418000610B363BABAA2A3ECAF24971B5F1CF4268
:104190003BAAB83FD46A00008071313FD1F717378E
:1041A00020F00042B2F1FF4F2DE9F041044654D215
:1041B000002A50D00028034657DB14F0FF4F4FEA87
:1041C000E05009D114F400025BD15B001C021146DF
:1041D00002F10102F9D5401AC3F3160242F40002BB
:1041E000C307A0F17F0558BF520000246D10520094
:1041F0004FF0190E21464FF0807C01EB0C039342E7
:10420000DDBF03EB0C016444D31A1346BEF1010E6B
:104210004FEA43024FEA5C0CEFD1BBB11A4E1B4F81
:1042200030683968D6F8008001F0C0FA014640468F
:1042300001F06EFD50B130683968366801F0B8FAA7
:104240000146304601F05AFDB8B10234601000F169
:104250007C5000EBC550BDE8F081014601F0B0FB99
:10426000214601F0A5FABDE8F081014601F09EFA71
:10427000014601F059FCBDE8F081013424F001044D
:10428000E4E74FF0FF31A6E7A4A0FF1FA8A0FF1F9F
:104290002DE9F04F31F0004987B00C4607468046C3
:1042A0000ED180F480084FEA480818F5000F40F25C
:1042B0004D812146384601F07BFA07B0BDE8F08F0A
:1042C00020F0004ABAF1FF4FF3DCB9F1FF4F0D4681
:1042D00000F331810028C0F23E810026B9F1FF4F82
:1042E00000F05381B9F17E5F00F05781B5F1804F46
:1042F00000F04681B5F17C5F384640F05281B8F15C
:10430000000F80F29B8100F097FEBAF1FF4F00F0A2
:104310005C81BAF1000F00F05481BAF17E5F00F0C9
:1043200049814FEAD873013B0093334300F08B81FE
:10433000B9F19A4F40F38F81B14B9A4540F3D18246
:10434000B04B9A4500F3D9824FF07E5101F02EFA1E
:10435000AD49074601F034FBAC498146384601F0CF
:104360002FFB4FF07A518046384601F029FB014679
:10437000A74801F01BFA394601F022FB01464FF035
:104380007C5001F013FA39468246384601F018FB9A
:104390000146504601F014FB9E4901F011FB014615
:1043A000404601F003FA01468046484601F000FA13
:1043B00020F47F6727F00F074946384601F0F6F9E9
:1043C0000146404601F0F2F925F47F65009B013E6D
:1043D00025F00F051E432946814620460CBF8E4E10
:1043E0004FF07E5601F0E2F9394601F0E9FA214634
:1043F0008046484601F0E4FA0146404601F0D8F90B
:1044000029468046384601F0DBFA01460746404619
:1044100001F0CEF900280546044620F0004340F3A1
:104420003382B3F1864F00F3B88200F09782B3F184
:104430007C5F00F3DE824FF000094D4624F47F6478
:1044400024F00F047549204601F0BAFA3946824635
:10445000204601F0ABF90146404601F0A7F970494A
:1044600001F0AEFA6F490746204601F0A9FA01466D
:10447000384601F09DF904460146504601F098F98E
:104480005146074601F092F90146204601F08EF9A7
:1044900039468046384601F093FA6349044601F0F4
:1044A0008FFA624901F082F9214601F089FA6049E8
:1044B00001F07EF9214601F083FA5E4901F076F9B8
:1044C000214601F07DFA5C4901F072F9214601F0C4
:1044D00077FA0146384601F069F904460146384644
:1044E00001F06EFA4FF080418246204601F05EF9FD
:1044F0000146504601F018FB41460446384601F09B
:104500005FFA414601F054F90146204601F04EF9A8
:10451000394601F04BF901464FF07E5001F046F963
:1045200003464B44B3F5000FC0F2E3811846314611
:1045300001F046FAC1E6B0F17E5F7FF4BAAE81F4D5
:1045400080056D0015F5000F3FF6B3AE4FF07E50BD
:1045500007B0BDE8F08FB9F1974F0FDAB9F17E5F80
:104560000ADB4FEAE953C3F1960349FA03F202FA70
:1045700003F34B4500F083810026B3E60226ADE647
:104580003946384601F01CFA97E6BAF17E5FDDD075
:104590002ADD002D26DB20468FE6002D29DB38465C
:1045A0008BE600F049FDBAF1FF4F03D0BAF1000FDE
:1045B0007FF4B3AE002D04DA01464FF07E5001F0D7
:1045C000B3FAB8F1000FBFF678AEAAF17E5A5AEAF4
:1045D000060A40F04E81014601F0E8F8014601F07C
:1045E000A3FA6AE6002068E6002DFBDA04F1004039
:1045F00063E639464FF07E5001F096FA5DE600BF63
:10460000F3FF7F3F0700803F00AAB83F70A5EC365C
:10461000ABAAAA3E3BAAB83F000080BF0072313F60
:104620001872313F8CBEBF354CBB31330EEADD35DD
:1046300055B38A38610B363BABAA2A3E07B0BDE8BA
:10464000F04FFFF7ADBD3946384601F0AFF80146EF
:1046500001F06AFA31E618F0FF4F40F040814FF068
:10466000974101F0ADF96FF0170282464FEAEA5325
:104670007F3B9A18A94B0192CAF3160A9A454AF051
:104680007E5807DDA64B9A4540F33F8101320192E7
:10469000A8F5000800231A46059304924FF07E53B4
:1046A000002719464046029301F080F8029B0393CD
:1046B00019468246404601F07BF801464FF07E5095
:1046C00001F032FA01460290504601F079F94FEAC2
:1046D000680242F0005202F5802220F47F6B1744FA
:1046E0002BF00F0BC14639468046584601F068F959
:1046F0000146504601F05AF8039B84461946384655
:10470000674601F053F80146484601F04FF8594614
:1047100001F056F90146384601F048F8029901F0D7
:104720004FF941468146404601F04AF97D49074626
:1047300001F046F97C4901F03BF8394601F040F9B7
:104740007A4901F035F8394601F03AF9784901F033
:104750002FF8394601F034F9764901F029F8394645
:1047600001F02EF9744901F023F8394682463846A3
:1047700001F026F90146504601F022F95946074654
:10478000404601F015F8494601F01AF9394601F0A2
:104790000FF859468246584601F012F967490290CF
:1047A00001F006F8514601F003F820F47F6727F086
:1047B0000F073946584601F003F9604983463846E9
:1047C00000F0F4FF029B194600F0F0FF014650464E
:1047D00000F0ECFF414601F0F3F8394680464846C8
:1047E00001F0EEF80146404600F0E2FF8046014647
:1047F000584600F0DDFF20F47F6727F00F0750498F
:10480000384601F0DDF859468146384600F0CEFFC3
:104810000146404600F0CAFF4A4901F0D1F84A4932
:104820008046384601F0CCF80146404600F0C0FF13
:10483000049900F0BDFF8046019801F06DF84146F3
:104840008246484600F0B4FFDDF814B0594600F047
:10485000AFFF514600F0ACFF20F47F6727F00F0751
:104860005146384600F0A2FF594600F09FFF4946E6
:10487000A4E5012E7FF421AD00F100401DE502F01A
:104880000102C2F102062DE5304A934200F3A980ED
:1048900000F08B80B3F17C5F7FF7CDADDB154FF47B
:1048A00000027E3B42FA03F303442949C3F3C75293
:1048B0007F3AC3F31605114145F40005C2F1170212
:1048C000194015416D42384600F070FF0146074619
:1048D000404600F06DFF4FEAC5590446AEE50022A0
:1048E000C4E6002D0BDB002007B0BDE8F04F00F060
:1048F0002BBA294600F030FA19E6002DF3DD00202E
:1049000007B0BDE8F04F00F023BA124B0593124BED
:1049100004934FF400174FF07F53C2E671C41C009C
:10492000D6B35D0042F1533E55326C3E05A38B3E3B
:10493000ABAAAA3EB76DDB3E9A99193F00004040F2
:104940000038763F4F38763FA0C39D3600001643AF
:10495000000080FF00C0153FDCCFD1352F49404615
:1049600000F026FF39468146284600F01FFF014629
:10497000484601F0E1F980B905F50043C3F3C75299
:1049800027497F3A11411940C3F31603C2F11702B8
:1049900043F4000343FA02F595E70021304601F0A5
:1049A000ADF9003818BF0120AAE7394600F0FEFE35
:1049B000414601F0B7F9A0B905F500431849C3F322
:1049C000C7527F3AC3F31605114145F40005C2F101
:1049D0001702002C01EA030145FA02F5FFF672AF57
:1049E00071E70021304601F089F9003818BF012035
:1049F0007AE7DB154FF400027E3B42FA03F32344CF
:104A00000749DA157F3AC3F31605114145F400054D
:104A1000C2F117021940154155E700BF3CAA3833CF
:104A2000000080FF2DE9F04FAB4A20F00044944293
:104A300089B00D466CDDA94A944207461CDC00286B
:104A4000A74940F31E8100F0B1FEA64B24F00F04ED
:104A50009C4206466BD0A44900F0A8FE014628609F
:104A6000304600F0A3FEA04900F0A0FE01266860D9
:104A7000304609B0BDE8F08F9C4A94426CDDB4F139
:104A8000FF4F4DDAE615863EA4EBC654204601F0F2
:104A900073F900F041FF01462046059100F086FEC3
:104AA0004FF0874100F08CFF804601F065F900F07F
:104AB00033FF044621464046069400F077FE4FF04F
:104AC000874100F07DFF0021079001F00DF90028DB
:104AD00000F0B8800021204601F006F9002814BF3C
:104AE00001230223824A0192022200922946324681
:104AF00005A800F0A5FA002F0646B9DAD5E900238B
:104B000002F1004203F100432A606B604642AFE7C6
:104B100000262860002230464A6009B0BDE8F08FC8
:104B2000014600F043FE002668602860A0E7714956
:104B300000F03CFE7049044600F038FE0146286053
:104B4000204600F033FE6C4900F030FE012668601C
:104B5000304609B0BDE8F08F00F06EFA6749804634
:104B600000F02EFF4FF07C5100F022FE01F004F91E
:104B7000064600F0D1FE5A49834600F021FF014667
:104B8000404600F013FE58498246584600F018FF90
:104B90001F2E81460146504620DC721E584B53F8AA
:104BA000223024F0FF029A4218D000F0FFFD804628
:104BB000C5F800804146504600F0F8FD494600F037
:104BC000F5FD002F6860BFF653AF08F1004800F113
:104BD0000040C5F800806860764249E700F0E6FDD5
:104BE000C0F3C753C3EBD453082B80464FEAE452BB
:104BF000DEDD40490392584600F0E2FE8046014661
:104C0000504600F0D3FD04462146504600F0CEFD4C
:104C1000414600F0CBFD38498046584600F0D0FEB2
:104C2000414600F0C3FD01468146204600F0BEFD2E
:104C3000039AC0F3C753D21A192A804604DC2860AD
:104C4000A246B7E703234DE72E49584600F0B8FEC9
:104C500001468046204600F0A9FD82465146204686
:104C600000F0A4FD414600F0A1FD27490446584646
:104C700000F0A6FE214600F099FD8146014650460F
:104C800093E700F095FD174B24F00F049C42064675
:104C90000ED0154900F08CFD01462860304600F02A
:104CA00085FD114900F084FD4FF0FF366860DFE6B6
:104CB000104900F07DFD1049044600F079FD0146E1
:104CC0002860204600F072FD0B4900F071FD4FF0A6
:104CD000FF366860CCE600BFD80F493FE3CB1640F3
:104CE000800FC93FD00FC93F43443537800F494338
:104CF0006C6B00000044353708A3852E84F9223FF1
:104D0000EC6A000000A3852E32318D2438B50546AB
:104D10000C4601F0A5FB034628461C6038BD00BFC9
:104D200008B540B101F1004000F04AFEBDE808407E
:104D30002221FFF7EBBF084600F042FEBDE8084025
:104D40002221FFF7E3BF00BF4FF08051FFF7E8BF1C
:104D50004FF0E041FFF7E4BF10B50C4630F00041E2
:104D600003461DD0B1F1FF4F1BD210F0FF4F02469A
:104D70001BD14FF0984100F023FE204A9442034695
:104D80002CDBC0F3C75102464CF250308442A1F1F3
:104D9000190110DD1A49184661F31E0000F010FEDB
:104DA00010BD014600F004FD10BD4CF250308442AD
:104DB0004FEAD151EEDC2144FE29EBDC002911DC65
:104DC00011F1160F13DB01F1190022F0FF424FF031
:104DD0004C5142EAC05000F0F3FD10BD094900F00B
:104DE000EFFD10BD22F0FF4242EAC15010BD05495F
:104DF000184661F31E0000F0E3FD10BDB03CFFFF5C
:104E0000CAF249716042A20D2DE9F04120F000453F
:104E1000B5F1A14F0446074607DBB5F1FF4F71DC42
:104E200000287FDD7048BDE8F081704B9D427CDC3E
:104E3000B5F1445F6BDB4FF0FF382146204600F0B0
:104E4000BFFD0146064600F0BBFD6949054600F07E
:104E5000B7FD684900F0ACFC294600F0B1FD664999
:104E600000F0A6FC294600F0ABFD644900F0A0FC70
:104E7000294600F0A5FD624900F09AFC294600F0A1
:104E80009FFD604900F094FC314600F099FD5E49B9
:104E90000646284600F094FD5C4900F087FC294650
:104EA00000F08EFD5A4900F081FC294600F088FD93
:104EB000584900F07BFC294600F082FD564900F07D
:104EC00075FC294600F07CFDB8F1FF3F01463046F5
:104ED0004AD000F06DFC214600F072FD4F4B53F8B4
:104EE000281000F063FC214600F060FC4C4B0146AA
:104EF00053F8280000F05AFC002F94DA00F100402B
:104F0000BDE8F081014600F053FCBDE8F081454961
:104F100000F04EFC4FF07E5100F00EFF00288AD0CA
:104F2000204680E74048BDE8F08100F085F83F4B1F
:104F30009D42044623DCA3F5D0039D4241DC01469B
:104F400000F036FC4FF07E5100F030FC4FF0804115
:104F50000546204600F02CFC0146284600F0E4FD02
:104F60004FF00008044668E700F022FC214600F0FC
:104F700027FD0146204600F019FCBDE8F0812C4BCE
:104F80009D4216DC4FF07F5100F010FC4FF07F5136
:104F9000034620461C4600F013FD4FF07E5100F002
:104FA00007FC0146204600F0BFFD4FF00208044612
:104FB00043E721461F4800F0B7FD4FF003080446C1
:104FC0003BE74FF07E5100F0F1FB4FF07E5105467C
:104FD000204600F0EDFB0146284600F0A5FD4FF00D
:104FE0000108044629E700BFDB0FC93FFFFFDF3E92
:104FF000D769853C59DA4B3D356B883D6E2EBA3DFD
:105000002549123EABAAAA3E21A215BD6BF16E3D09
:1050100095879D3D388EE33DCDCC4C3E946E00008F
:10502000846E0000CAF24971DB0FC9BFFFFF973FD2
:10503000FFFF1B40000080BF20F00040704700BF12
:105040002DE9F04FDDB01C4606930991A64B6699F9
:105050000B9253F821300393111D04F1FF330546E1
:105060000193C0F2EC82D31E48BF131DDB100593E1
:105070000133DB000A93DDE90A239B1A0493059AA6
:10508000019BD61A039A12EB030818D408F1010801
:10509000DDF89C91B044002420AF08E059F82600C8
:1050A00000F03AFC0136464547F8040B07D0002EC5
:1050B000F4DA01362046464547F8040BF7D1039B46
:1050C000002BC0F21183069B019E20AA02EB8307EE
:1050D0009A000092039A291F02910DF5907802EB35
:1050E000030901EB8305019B002BB8BF002410DBF3
:1050F000DDF808A0BB4600245BF8041D5AF8040F35
:1051000000F05EFC0146204600F052FBAA45044632
:10511000F2D101364E4548F8044B07F10407E2D1BD
:10512000029B009D039A1D440CAB03EB8203043BDE
:1051300007930CAB03EB8203089390465CAB03EB45
:105140008803B8F1000F53F850AC4FEA880921DD0D
:1051500048AF07EB88040CAE4FF06E51504600F09C
:105160002FFC00F009FE00F0D7FB4FF0874183468B
:1051700000F026FC0146504600F018FB00F0FCFD54
:1051800054F8041D46F8040B584600F011FBBC42CD
:105190008246E1D1049E50463146FFF7DDFD4FF0D7
:1051A0007851044600F00CFC00F0BAFA4FF082414E
:1051B00000F006FC0146204600F0F8FA044600F034
:1051C000DBFD824600F0A8FB0146204600F0EEFA27
:1051D000002E0446314640F3898008F1FF360CAAC0
:1051E000C1F1080352F8262042FA03F000FA03F353
:1051F000D21AC1F107010CAB42FA01F7002F43F8B4
:10520000262082447CDC0021204600F06DFD002831
:1052100000F0D380039B08F1FF34A34208F18040E3
:1052200010DC0CABDDF820C04FEA880603EB8803E6
:10523000002253F8041D634542EA0102F9D1002A15
:1052400040F01181039B0CAA013B52F82330002B44
:1052500040F00581079B012653F8042D0136002AF2
:10526000FAD008EB0603009308F10107059A02EB58
:105270000709069A6FF0404399441344679A4344E0
:1052800002EB890920AA02EB830848AB03EB800AF2
:1052900059F8040F00F040FB019B48F8040F002B65
:1052A00019DBDDF808B04446002601E054F8040D8F
:1052B0005BF8041F00F084FB0146304600F078FAEA
:1052C000AB450646F2D1009B4AF8046F01379F4276
:1052D000DEDD984632E7009B013700269F424AF800
:1052E000046FD5DDF5E700BFD06E000040F09F8071
:1052F00008F1FF330CAA52F82370FF11002F82DD52
:10530000B8F1000F0AF1010A40F39E810C9E002EB5
:1053100040F08580B8F1010F20D00CAB012253F88A
:10532000046F002E7ED0531C0CA9C6F580769845DC
:1053300041F8226011DD09F130020DEB02010CAAE7
:105340000CA852F8232000EB830300E01A68C2F196
:10535000FF0243F8042B8B42F8D10126049B002B5B
:105360000EDD012B00F06081022B09D108F1FF3224
:105370000CAB0CA953F8223003F03F0341F8223064
:10538000022F7FF440AF21464FF07E5000F00EFA1E
:105390000446002E3FF437AF04994FF07E50FFF7DC
:1053A000DBFC0146204600F001FA044600212046BD
:1053B00000F09AFC00287FF42DAFDDE90A32204688
:1053C000991A0097FFF7C8FC4FF08741044600F098
:1053D000A9FC002800F06481049B4FF06E51083353
:1053E0002046049300F0ECFA00F0C6FC00F094FABA
:1053F0004FF08741054600F0E3FA0146204600F0F1
:10540000D5F900F0B9FC0CAB08F1010443F8280011
:10541000284600F0B1FC0CAB43F8240036E0012331
:10542000002281E7013242457FF479AF96E74FF0E1
:105430007C5100F077FC074600283FF4E4AEB8F159
:10544000000F0AF1010AC8BF02273FF75FAF2146EC
:105450004FF07E5000F0AAF902270446D3E608F187
:105460000107009702E7049B0097A3F108020CAB29
:10547000049253F824304BB9331F0CA90B4453F852
:10548000041D013C083A0029F9D0049204994FF018
:105490007E50FFF761FC002C0746C0F22B81631C95
:1054A0009A0001920CAA02EB830848AA02934FF0DB
:1054B0006E5602EB830558F8040D00F02DFA3946BC
:1054C00000F07EFA314645F8040D384600F078FACF
:1054D0000CAB98450746EED1019BDDF80C90CDF85A
:1054E00010A0083B48AA02EB03080027A346B9F125
:1054F000000FB8BF002515DB874C8848C246002541
:10550000002603E0B7420DDB54F8040F5AF8041FDD
:1055100000F056FA0146284600F04AF90136B14536
:105520000546EFDA5CAB03EB87035F4543F8A05C0D
:10553000A8F104084FEA870607F1010301D01F46CE
:10554000D5E7669BDDF810A0022B5C4617DC002B2C
:105550007CDC0FD1019C34AD2C44002054F8041D98
:1055600000F026F9A542F9D1009B0BB100F10040F3
:10557000099B18600AF007005DB0BDE8F08F669BDC
:10558000032BF7D1002C00F0C28034AF07EB0608E4
:1055900058F804BC2846594600F00AF9A9460546C1
:1055A0002946584600F002F9494600F001F9C8F8CA
:1055B000000048F8045D4745EAD1012C40F3A7807C
:1055C00006F5B8736B44BD1953F8A04C0DF1D4081F
:1055D00055F804BC2046594600F0EAF8A1460446B6
:1055E0002146584600F0E2F8494600F0E1F828600C
:1055F00045F8044DA845EBD1341D3C440020083744
:1056000054F8041D00F0D4F8A742F9D1009B002BF8
:105610004ED10999349A359B88600AF007000A60D8
:105620004B605DB0BDE8F08F08F1FF320CAB0CA908
:1056300053F8223003F07F0341F82230A0E608231C
:105640000A930023059316E5002687E6029B34ADF6
:1056500005EB8306002056F8041D00F0A9F8B542BA
:10566000F9D1009B002B34D1099B01461860349876
:1056700000F09CF8002C0CDD34AE012556F8041F18
:10568000013500F095F8AC42F8DA009B0BB100F15F
:105690000040099B58600AF007005DB0BDE8F08F3C
:1056A000204600F069FB0CAB444643F82800EDE6C9
:1056B000DDE93423099900F1004002F1004203F1D1
:1056C000004388600AF007000A604B605DB0BDE8E7
:1056D000F08F099A00F1004301461360349800F0FE
:1056E00065F8002CC8DCD2E72B1F0293069B9B00B9
:1056F000009315E5669B022B05DC002B09DC7FF48B
:1057000039AF002030E7669B032B7FF433AF0020D6
:105710007CE70020A5E700BFA46E00000000C93FA1
:105720002DE9F041C0F3C7557F3D162D044620F00A
:10573000004725DC002D804614DB174F2F413842EF
:105740001BD0164900F034F8002100F0F5FAA0B1A2
:10575000002C03DA4FF400032B41984428EA070099
:10576000BDE8F0810D4900F023F8002100F0E4FAD3
:1057700018B1002C0CDB002000E02046BDE8F081D1
:10578000B7F1FF4FF9D3014600F012F8BDE8F08100
:10579000002FF2D00248F1E7FFFF7F00CAF2497103
:1057A000000080BF80F0004002E000BF81F00041B7
:1057B00042001FBF5FEA410392EA030F7FEA226CB7
:1057C0007FEA236C6AD04FEA1262D2EB1363C1BF47
:1057D000D218414048404140B8BF5B42192B88BFB6
:1057E000704710F0004F40F4000020F07F4018BFD9
:1057F000404211F0004F41F4000121F07F4118BFF9
:10580000494292EA030F3FD0A2F1010241FA03FCA0
:1058100010EB0C00C3F1200301FA03F100F0004388
:1058200002D5494260EB4000B0F5000F13D3B0F150
:10583000807F06D340084FEA310102F10102FE2ABF
:1058400051D2B1F1004F40EBC25008BF20F001002F
:1058500040EA03007047490040EB0000013A28BFCE
:10586000B0F5000FEDD2B0FA80FCACF1080CB2EB51
:105870000C0200FA0CF0AABF00EBC25052421843CF
:10588000BCBFD0401843704792F0000F81F4000174
:1058900006BF80F400000132013BB5E74FEA410347
:1058A0007FEA226C18BF7FEA236C21D092EA030FB3
:1058B00004D092F0000F08BF0846704790EA010F2D
:1058C0001CBF0020704712F07F4F04D1400028BF5A
:1058D00040F00040704712F100723CBF00F500003C
:1058E000704700F0004343F0FE4040F40000704772
:1058F0007FEA226216BF08467FEA2363014642021E
:1059000006BF5FEA412390EA010F40F48000704730
:105910004FF0000304E000BF10F0004348BF4042D6
:105920005FEA000C08BF704743F0964301464FF012
:1059300000001CE050EA010208BF70474FF000036E
:105940000AE000BF50EA010208BF704711F00043AF
:1059500002D5404261EB41015FEA010C02BF84467F
:105960000146002043F0B64308BFA3F18053A3F5DE
:105970000003BCFA8CF2083AA3EBC25310DB01FA25
:1059800002FC634400FA02FCC2F12002BCF1004FA9
:1059900020FA02F243EB020008BF20F0010070473A
:1059A00002F1200201FA02FCC2F1200250EA4C008E
:1059B00021FA02F243EB020008BF20EADC707047D4
:1059C0004FF0FF0C1CEAD0521EBF1CEAD15392EAE2
:1059D0000C0F93EA0C0F6FD01A4480EA010C4002BE
:1059E00018BF5FEA41211ED04FF0006343EA501018
:1059F00043EA5111A0FB01310CF00040B1F5000F5A
:105A00003EBF490041EAD3715B0040EA010062F108
:105A10007F02FD2A1DD8B3F1004F40EBC25008BFF2
:105A200020F00100704790F0000F0CF0004C08BF10
:105A300049024CEA502040EA51207F3AC2BFD2F1DD
:105A4000FF0340EAC250704740F400004FF00003EB
:105A5000013A5DDC12F1190FDCBF00F00040704725
:105A6000C2F10002410021FA02F1C2F1200200FA63
:105A700002FC5FEA310040F1000053EA4C0308BF2A
:105A800020EADC70704792F0000F00F0004C02BF7B
:105A9000400010F4000F013AF9D040EA0C0093F0F6
:105AA000000F01F0004C02BF490011F4000F013B50
:105AB000F9D041EA0C018FE70CEAD15392EA0C0FBE
:105AC00018BF93EA0C0F0AD030F0004C18BF31F029
:105AD000004CD8D180EA010000F00040704790F0FF
