:1000000000800020BD010000311B0000ED1A00003F
:10001000ED1A0000ED1A0000ED1A0000ED1A0000C4
:10002000ED1A0000ED1A0000ED1A0000311B00006F
:10003000311B0000ED1A0000492800004D28000087
:10004000311B0000311B0000311B0000311B000080
:10005000311B0000311B0000311B0000311B000070
:10006000311B0000311B0000311B0000311B000060
:10007000311B0000311B0000311B0000311B000050
:10008000311B0000311B0000311B0000311B000040
:10009000311B0000311B0000311B0000311B000030
:1000A000311B0000311B0000311B0000311B000020
:1000B000311B0000311B0000311B0000311B000010
:1000C000311B0000311B0000311B0000311B000000
:1000D000311B0000311B0000311B0000311B0000F0
:1000E000311B0000311B0000311B0000311B0000E0
:1000F000311B0000311B0000311B0000311B0000D0
:10010000311B0000311B0000311B0000311B0000BF
:10011000311B0000311B0000311B0000311B0000AF
:10012000311B0000311B0000311B0000311B00009F
:10013000311B0000311B0000311B0000311B00008F
:10014000311B0000311B0000311B0000311B00007F
:100150008D180000A9180000C5180000E118000063
:10016000311B0000D91D0000311B0000311B0000B5
:10017000311B0000311B0000311B0000311B00004F
:10018000311B0000311B0000311B0000311B00003F
:10019000311B0000311B0000311B0000311B00002F
:1001A000311B0000311B0000311B0000311B00001F
:1001B000311B0000311B000015160000574B4CF29C
:1001C000205210B5DA814DF62812DA8100BF00BF47
:1001D00001F0B2FC524B4FF010621A63514A9A631D
:1001E000514ADA63514A136913F4807303D153619E
:1001F0004FF4A85313614E4B9A78110703D59A78A0
:1002000042F008029A704B4B4B482A221A704B4B13
:10021000DA1C121AC11E22F00302994288BF002282
:10022000474901F08FFB474B4748DA1C121AC11EA1
:1002300022F00302994288BF0022002105F08CF8C9
:10024000424943484FF4DE7201F07CFB414B424A85
:10025000802103F8011B9342FBD14FF0E0233C4A7D
:10026000C3F8082D3D4B8A221A70A3F5805324222F
:100270005A70A0221A709A799207FCD59A79D406FE
:10028000FCD4374B9A7902F00C02082AFAD10522E5
:100290001A7143225A719A799006FCD5304A9379A3
:1002A0005906FCD51E4B4FF08171596405219964A4
:1002B00020211170917901F00C010C29FAD1294A01
:1002C0005A604FF0E023284A5A6100229A610722BF
:1002D0001A61264AC3F8202D62B601F05BFC134B6D
:1002E0005B69DA0705D5224801F048FC214B224A18
:1002F000DA61224B1B785B0609D51E4C1E4BE26966
:100300009A4204D11A4801F039FC0023E36101F05C
:1003100019FC05F091F801F00DFBFEE70020054007
:1003200000800440823F04000100002B00D0034005
:1003300000D0074000E00740309CFF1F88A2FF1F4D
:10034000305D00002CDAFF1F88A2FF1F00000000B4
:100350000092FF1F00E400E05FE400E00050064070
:1003600000400640C01005003F1901000000202099
:10037000B1527E6A00E00340A5C3945A00F00740E2
:10038000FFFFFFFFFFFFFFFFFFFFFFFFFFFFFFFF7D
:10039000FFFFFFFFFFFFFFFFFFFFFFFFFFFFFFFF6D
:1003A000FFFFFFFFFFFFFFFFFFFFFFFFFFFFFFFF5D
:1003B000FFFFFFFFFFFFFFFFFFFFFFFFFFFFFFFF4D
:1003C000FFFFFFFFFFFFFFFFFFFFFFFFFFFFFFFF3D
:1003D000FFFFFFFFFFFFFFFFFFFFFFFFFFFFFFFF2D
:1003E000FFFFFFFFFFFFFFFFFFFFFFFFFFFFFFFF1D
:1003F000FFFFFFFFFFFFFFFFFFFFFFFFFFFFFFFF0D
:10040000FFFFFFFFFFFFFFFFFFFFFFFFDEF9FFFF23
:100410000548064B1B1AD90F01EBA301491002D066
:10042000034B03B11847704788A2FF1F88A2FF1F24
:100430000000000008B5054B1BB105490548AFF3A6
:100440000080BDE80840FFF7E3BF00BF00000000E8
:1004500088A2FF1F285D00002DE9F04F8FB00C909F
:1004600000F02AFF0B90002800F0C68100F024FF66
:100470000D90002800F0C3814FF400720021A048C5
:10048000DFF880B204F068FF9F484FF4007200214B
:1004900004F062FF0C9B9B69099303F5B7571D4657
:1004A000002318374FF07C5A0A9397F82930002B15
:1004B00000F014816B6A0693AB6A0093EB6A0793B2
:1004C000924B0193924B02930A9B40F2C65202FB5D
:1004D00003F30893DCE0286B04F020FA8046014621
:1004E000204604F02FFC002840F0E580204604F070
:1004F00049FC064604F016FA0146204604F05CF971
:100500000446686B0138801B431C48BFEA6A009EA2
:1005100048BF9B18002856F82390C0F2C580009B66
:1005200053F82080431E002800F06B81009A79491F
:1005300052F82360023844BFEB6AC018009B53F89E
:1005400020200592404604F041FA0146484604F056
:1005500033F931460390304604F030F9039B0146ED
:10056000184604F02BF9059A049051461046039260
:1005700004F02CFA049B0146184604F01DF9039A76
:10058000034649461046049304F016F9514604F018
:100590001DFA31460390404604F00EF94FF07F51AA
:1005A00004F014FA039A0146104604F007F92146B4
:1005B00004F00CFA049B0146184604F0FFF82146AB
:1005C00004F004FA4946034630461E4604F0F4F8A7
:1005D000514604F0FBF90146304604F0EFF821469D
:1005E00004F0F4F9414604F0E9F8F96804F0EEF992
:1005F00079690446386904F0E9F90146204604F0B7
:10060000DDF8B969786104F0E1F9D7E90023934294
:1006100001460BDA089A1A4401337B60099B03EB0D
:100620008203D3F8D81704F0C9F801466B6B009A1F
:10063000069842F82310079A0133934208BF00231B
:100640006B6321F0004604F0C1F9019B044653F8A6
:10065000040F01932146984604F0B0F8029BC8F8B5
:10066000000053F8040F029321461C4604F0A6F83C
:1006700020603C6A3046214604F064FB20B9796A68
:10068000204604F0A3F90646019B3E629B451ED01E
:10069000BC684FF07E51204604F04AFB00287FF4EE
:1006A0001AAF002401262CE7EA6A8118431E56F887
:1006B000218013443AE7404604F064FB064604F008
:1006C00031F90146404604F077F8044619E712492B
:1006D000304604F019FB002840F0868041F2187380
:1006E0001D441F440A9B002B7BD00D9B074C084FD9
:1006F000DFF828809E1C0B9B4FF07E599D1C3CE030
:10070000A0A4FF1F9CA6FF1FA0A2FF1F9CA4FF1F69
:100710009CA2FF1F0000204017B7D138000080BF07
:100720004946504604F00EFB002853D13649504646
:1007300004F04CF904F026FB00B257F804AF25F89A
:10074000020F5146504604F007FB002845D14146B0
:10075000504604F0EDFAF8B14946504604F0F2FA7A
:10076000002834D12849504604F030F904F00AFB3F
:1007700000B25C4526F8020F13D054F804AF51467E
:10078000504604F0E9FA50BB4146504604F0D0FA16
:100790000028C5D11D48D0E71C4826F8020F5C454B
:1007A000EBD10B9E0C9D00223146284600F004FE42
:1007B0000D9C01222146284600F0FEFD304600F047
:1007C000D1FD20460FB0BDE8F04F00F0CBBD47F69D
:1007D000FF70CEE747F6FF70AFE70020C9E70020C3
:1007E000ABE701230A9360E63B687A689A42A4BFAC
:1007F000002387F8293071E70FB0BDE8F08F0B9820
:10080000E0E7EA6A134491E600FEFF460180FFFF3D
:100810002DE9F04F4F4887B075220146002301E0D3
:1008200011F8012F0133002AFAD14B4A4B4C5A40A0
:100830007521612302E00B4610F8011F5A4004FBAA
:1008400002F24FEAF2420029F5D1454B4549DFF863
:1008500018C1464CDFF818A1DFF818B182EA12423D
:1008600002FB03F383EA533301FB03F383EA1343ED
:100870001C44BCE80F000DF1040EAEE80F00DCF8DC
:100880000030CEF800300027D1460AF138050AF2D0
:10089000D476394B0193394B0293394B049344F08E
:1008A000010284EAD43302FB03F343F03D0183EAFF
:1008B000D31201FB0232534083EA9333CAF800405B
:1008C0000DF1040849F8043F2E4B45F82C3CB8E8DC
:1008D0000F00A5F1240E45F8289CAEE80F00D8F8CB
:1008E0000030CEF800304FF4F47345F80C3C4FF470
:1008F000F273A5F1040C45F8083C45F8105C4CF87F
:10090000047F6645FBD1002345F8043C55F82C0CC8
:10091000594604F05BF801461B4804F00BF902F05D
:1009200071F841F2187304F1DA44C6F8480F1D4417
:100930001E44164B04F52D1404F567544B4504F181
:100940003504A6D112480C2107B0BDE8F04F00F0E5
:100950003FBC00BF0558000067E6096A512D9ECCD8
:100960006BCAEB8535AEB2C238580000F5792B6DF5
:10097000D8A6FF1FCDCC4C3D9A99993EAE47613E1B
:1009800000004040A6552C47000080BFE0A6FF1F96
:100990000082FF1F2DE9F04F066889B00F460290D4
:1009A0008E493046154604F0C5F88D49044604F0DA
:1009B000C9F900B98A4C2146384604F0C3F958B148
:1009C0004FF07851304604F001F83946044604F0FF
:1009D0009BF9002800F07281029800F58057026AA6
:1009E000049740F20113C7F80847A7F8143742B13B
:1009F00004469200C069002104F0AEFC2668D7F8D6
:100A00000847029F0023BB62049B4FF00008214669
:100A1000C3F80087304604F08DF8BF680590414662
:100A2000384604F071F9002840F0C0814FF07E5143
:100A3000384604F087F908B14FF07E5739466948C7
:100A400002F008F8684903F0C1FF684907463046DC
:100A500003F0BCFF80460146384604F073F900B14C
:100A600047466349384603F0B1FF314604F062F867
:100A700001F0C8FF01464FF07E5003F09DFE049F39
:100A80000146C7F8F8064FF07E5003F095FE59492D
:100A9000C7F8FC068046204603F098FF314604F074
:100AA00049F8064602F064F88146304602F02EF816
:100AB0000146404603F08AFF01464FF07E5003F0A6
:100AC0007BFE49460746404603F080FF394601F069
:100AD00097FF4FF07E518046059803F06DFE31463A
:100AE0000746404604F026F80146384603F064FE07
:100AF0004FF07E51064604F007F908B14FF07E56DC
:100B0000049B3D49C3F8F466029B5E69304604F0DD
:100B1000FBF8002840F0D0803849304604F012F944
:100B2000002840F0CD802146304603F04FFF0146BB
:100B3000334803F0FFFF0146324801F08BFF049B6E
:100B40004FF07C51C3F80407059803F037FE04F01A
:100B500019F9B0F5727FA8BF4FF4727002280346EE
:100B6000B8BF02230393029BD3F81090002148469C
:100B700004F0CAF8002840F01B814FF07E5148462F
:100B800004F0E0F8002800F09D80002301934FF06E
:100B90007E590021284604F0B7F8002840F09F80D5
:100BA0004FF07E51284604F0CDF8002800F0068171
:100BB000DFF85480029B5A680692146804F1DA4404
:100BC00004F52D1403F2CC7304F567543534079300
:100BD0004FF03E5B1E46012700253CE00000F0433D
:100BE0000000C842610B363D00A08C466666E63EBA
:100BF000DB0FC9C0DB0FC940CDCC4C3D0000A0418C
:100C0000000040C0000020419A99193F012D0CBFFF
:100C10006D490021484603F0D9FE6C4903F0D6FE29
:100C200001990090504603F0D1FE009A014610460B
:100C300003F0C4FD414603F0C9FE039B3060BB4294
:100C400050DD04F1DA4404F52D1404F56754013540
:100C500035340137043644F0010384EAD43003FB11
:100C600000F040F03D0280EAD01302FB030358403D
:100C700080EA903003F052FE594603F0A7FE014689
:100C800003F09CFD4FF07E5103F096FD8246002D4F
:100C9000BCD14E49484603F099FE01990090504658
:100CA00003F094FE009A0146104603F087FD41468A
:100CB00003F08CFE3060C4E7454E34E73C468BE6DB
:100CC000444E30E749464FF07E5003F075FD002159
:100CD0000190284604F018F800283FF461AF4FF067
:100CE000000867E7069B1C60029BDC6803EB850538
:100CF0000021C5F8CC07204604F006F8002853D19F
:100D00003549204604F01EF800B1334C05992046C1
:100D100003F05CFE4FF07C5103F050FD04F032F81C
:100D2000041E3FDD039B1E19B6F5727FA8BF4FF46A
:100D300072769E420ADD039BF21A03F2F310029BC5
:100D4000920003EB8000002104F006FBA64216DDB2
:100D5000079B029A03EB8407C4F5F9740134344409
:100D600006F2F31302EB840502EB830454F8040D3E
:100D700055F8041D03F020FDBC422060F6D1049A12
:100D80001649C2F8EC660023C2F8F036404603F07C
:100D9000D9FF08B9DFF84480049BC3F80C8709B079
:100DA000BDE8F08F039EEAE70024AFE7474645E63B
:100DB0004FF07E5301934FF00009EAE608492846B8
:100DC00003F004FE8046F5E6CDCCCC3ECDCCCC3F46
:100DD000CDCC4C3D0000A0413333733F0AD7233CB8
:100DE0009A99193F10B5114C11482368594201F0E6
:100DF000030103F0030258BF4A42002B50F82210AF
:100E00000C4A03F0010003F1010323600A4BB8BF51
:100E1000404241F2187C0CFB0030FFF7BBFDBDE8FF
:100E200010404FF4C87000F007BF00BF28D5FF1F67
:100E300028580000CDCC4C3FE4A6FF1F2DE9F04F11
:100E4000444C454ADFF814A1DFF81491DFF814810F
:100E5000454F464EDFF818B12146002041F8040BFB
:100E6000606083B04860234600204FF080454FF01B
:100E70007E5E002141F2187CC3F80CA0C3F81490E8
:100E8000C3F81880D8611F625E6219619962D962E5
:100E900019635963634442F82C1C42F8281C42F839
:100EA000245C42F820EC42F81C0C42F8180C42F882
:100EB000140C42F810BC42F80C0C42F8080C02F872
:100EC000041C02F8031C6244DFF8A8C06345D0D1BB
:100ED000294B2A4A1D682A48106011611181D1608E
:100EE000002D34D02B4619465B69002BFBD14A619B
:100EF000244B1360244B9461002151615160917225
:100F0000012003F1180258721A611972D9609961AF
:100F10002A466D69002DFBD153611C4A5D615D60FD
:100F20009D721A60184800F09FF8194800F072FA94
:100F30002A461249144B0095154800F0DFFA154A6D
:100F40001549134803B0BDE8F04F01F053BD1A60D6
:100F50001546CDE7D8A6FF1FFCBDFF1F00803B470D
:100F60003333B33E295C8F3E000020406666663F07
:100F70000000DC4308D5FF1F48D5FF1FBCA6FF1F9C
:100F80001858000024580000A0A6FF1F5458000065
:100F900014D5FF1F309CFF1FB115000010B50021B4
:100FA00000F02CFA80B1034672B6094A106860B1AD
:100FB00008490C6834B114600B6062B6BDE810409B
:100FC00000F0D0B90B6062B610BD136062B610BD00
:100FD0002CD5FF1F30D5FF1F10B51A4B1A481A68C1
:100FE0001A4912681B791A4CC3778A42206836BFA7
:100FF0000A46A1F5807202F58071D8B100F1040CA7
:101000003CF9023B03F500431B1122F8023B9142DD
:10101000F6D800F0A7F90F4B0022196821601A607A
:101020000D4B1B782BB14FF0E0234FF08042C3F8FB
:10103000082210BD4FF4006322F8023B9142FBD816
:10104000EEE700BF38D5FF1F00800040408FFF1F34
:101050002CD5FF1F30D5FF1F34D5FF1F10B5044618
:1010600000F072FB204610BD70B501213C483D4D9B
:1010700000F00CFB3C4AD36A802143F48053D362D6
:10108000002485F8211040F608062C800120083441
:1010900000F0D2FDA3B2B34224B2F6D1324BDB6BE7
:1010A0005B0205D5314A116848F6A2738B4348D0DC
:1010B0002D492E4BCA6B2E4842F480020124CA638C
:1010C000DC6048F6A37140F22F3440F201125C60FC
:1010D000196018601A61224C264823682649D86096
:1010E000264A204819605A60186100224FF4807126
:1010F00002250620D9829A82D9839A6198839D60BD
:10110000237903F1804303F50433B0211A70197079
:1011100000F068FA22791A491A4C5311207003F131
:101120003823CA7602F110001749184C41F82040C4
:101130004033AB4002F01F02012101FA02F21A60B3
:1011400070BD516840F22F339942B1D1D368012B61
:10115000AED1126940F201139A42A9D1BBE700BF98
:1011600038D5FF1F00C00C400080044000600340E1
:10117000A28F010000FEFFFF408EFF1F0200010151
:101180000080004034D5FF1F0092FF1FD90F0000E0
:10119000024A0349034801F02DBC00BF309CFF1FE9
:1011A0005D10000038D5FF1F4FF0E0234FF0804264
:1011B000C3F80822704700BF036818470B68036034
:1011C000704700BF0B680360704700BF704700BFE7
:1011D00070B5C0298E468CB00B4628BF4FF0C00EAC
:1011E00072B62D492D4C2E4A0860002111802160D5
:1011F0006160A160E16021616161C3B10A468C4612
:10120000012501E054F82C1002F01F0305FA03F346
:1012100001320B43964544F82C304FEA521CF1D86A
:101220000023438001339E4500F58270F9D81D4CA0
:10123000257815B162B60CB070BD082000F09CFC9A
:10124000194B05608022027106460093069302A99D
:10125000164B029308A8FFF7B1FF154A06A93046BE
:1012600000F0A6FA069B08A8DB689847009B02A836
:10127000DB6898472378002BDCD10E4B4FF0E0223F
:10128000D02083F85E004FF080410123C2F808119E
:10129000237062B60CB070BD40D5FF1F58D5FF1F3C
:1012A00054D5FF1F50D5FF1F58580000A91100004A
:1012B000FF97010000E400E030B472B6244D254CE5
:1012C0002A8804F1180104EB82038B423BD204F11B
:1012D0001701C91A02F1010C0CEB910C02E001326A
:1012E000624530D0184653F8041B0029F7D0B1FAF4
:1012F00081FC4FF0004323FA0CF321EA0301016063
:1013000001B90132144B2A801A88013291B2198036
:1013100062B6001B801000EB801041F67C7303EB7B
:10132000C013CCEB0C60CCEB801C0C4803EB8C03A3
:1013300000680124C4541844094B1C88944238BFE7
:10134000198030BC704762B6002030BC704700BFC7
:1013500054D5FF1F58D5FF1F44D5FF1F40D5FF1F91
:101360004CD5FF1F428872B60378012B03D9013B8D
:10137000037062B6704751090C48D24302F01F0255
:101380004FF0004310B4D340094C50F821201343D0
:10139000228840F821308A42064A88BF218013887B
:1013A000013B138062B610BC704700BF58D5FF1FC9
:1013B00054D5FF1F44D5FF1FC36813B91CE0DB6879
:1013C000DBB1187A9042FAD110B4586893F809C08A
:1013D000006950F82C404CB1DB682BB1187A904270
:1013E000F3D0DB68002BF9D110BC704740F82C100B
:1013F000087801300870EFE770477047437A8B42F6
:1014000006D90369002253F8210043F821207047D0
:101410000020704704490022026042600281027489
:101420000A68C2600860704770D5FF1F037CFBB973
:1014300003680146FBB14368EBB1427A5B7A9A429A
:101440001CD230B472B62B4B1C68ECB1E368C3B14C
:10145000486801E0DB68A3B15A688242FAD193F888
:1014600009C04A7A9445F5D162B6042030BC704771
:10147000012062B67047032062B67047022062B650
:1014800070476469002CE1D11B4C236843B1994239
:1014900002D10BE0994207D01A46DB68002BF9D144
:1014A000052062B630BC704702F10C040D68E86894
:1014B000E8B1C36823B908E0DA68184632B11346C8
:1014C0008142F9D162B60620D0E70346D960CB68E5
:1014D00023600020C860AA7A01231A44AA724A68CD
:1014E0002B72947A13721C4494720B74D9E7E960DE
:1014F000EDE700BF48D5FF1F70D5FF1F10B5047C76
:101500009DF808E00CB1012010BD027280F809E0DE
:10151000BDE81040C0E90013FFF788BF037C002B33
:1015200037D010B54368427A5B7A9A42044638D283
:1015300072B60168CB68002B2DD0984233D01A4682
:10154000DB689C422AD0002BF9D16268607A13696B
:1015500053F8200048B1FFF705FF72B66268617A60
:101560001369002043F8210021688B7A013BDBB22C
:101570008B7203B90B72937A013BDBB2937203B99E
:1015800013720A4B00201A682074E2601C6062B675
:1015900010BD0120704762B6032010BDE368D36020
:1015A000D3E7022010BDC368CB60CEE770D5FF1F24
:1015B00010B50446FFF7B2FF094A136843B19C42D5
:1015C00002D108E09C4205D01A46DB68002BF9D115
:1015D000204610BD0C32E3681360204610BD00BFEA
:1015E00070D5FF1F094B1A7872B909484FF0E021F6
:1015F0004FF0D00C80F85EC001224FF08040C1F85F
:10160000080110461A7070470020704750D5FF1F20
:1016100000E400E04FF0E022F8B5D2F8FC3D174DB1
:10162000174943F08073C2F8FC3D2B680C6843F007
:1016300001032B606E689CB1237A20466BB123684E
:101640006F681B6898476B68E188DB1BC3F30F1258
:10165000B1EB131FA28038BFE2806469002CEBD18C
:10166000064B084A5B681088074C9B1BC3F30F119D
:10167000B0EB131F218038BF1180F8BD001000E0CF
:1016800048D5FF1F52D5FF1F4ED5FF1F10B472B6AD
:1016900021B9026812B103790F2B41D9284C218856
:1016A000002341FA03F212F0010208D00133102B9B
:1016B000F7D162B600220260037110BC70474FF090
:1016C000010C0CFA03FC41EA0C01218062B61D49B1
:1016D0005FFA83FC80F804C00C6C44F002040C64D4
:1016E000CC6B44F00204CC6303F10073A1F58021BC
:1016F000822403F590630C605B0181F81AC081F8C5
:101700001EC081F818C081F81FC010BC0360C3E977
:101710000022C3E90222C3E90422C3E9062270477A
:10172000074C218841FA03FC1CF0010FB8D003F1EB
:10173000007303F59063B2EB431FB1D162B6BCE70F
:1017400074D5FF1F0080044003790F2B11D8094A7C
:10175000937672B6084990F804C00B88012202FA09
:101760000CF223EA02030B8062B6102200230271FE
:10177000036070470080004074D5FF1F704700BFB2
:10178000704700BF704700BF704700BF704700BF81
:1017900038B5064CA4F1600554F8083C2046DB68D7
:1017A000183C9847AC42F7D138BD00BFC8D5FF1FE1
:1017B0002DE9F043036887B004469046002B3ED0E5
:1017C00000229A600122DA60294DDFF8A8901D44BA
:1017D0002D1151F8083B009305EB4506F60002A8D1
:1017E0005B68984706F1080759F806304F443846B9
:1017F000DB689847009B204A009202A949F806300E
:1018000038469B689847009B02A8DB689847236886
:101810001A49C3F8008003229A6005F1440253116B
:1018200003F1382320796854403301209B0002F0F3
:101830001F0200FA02F21A6007B0BDE8F083104AF6
:10184000D36B43F40003D36300BF0E4B01221A6035
:1018500003F580730C4A036098680028B4D01033F5
:1018600093422360F8D10020206007B0BDE8F083E8
:10187000008FFCBF78D5FF1F6858000044E400E0EB
:101880000080044000700340407103400448054A52
:1018900050F8083B01211B68C2F80C11184700BF23
:1018A00078D5FF1F007003400448054A8369012171
:1018B0001B68C2F81C112030184700BF78D5FF1FE5
:1018C000007003400448054A036B01211B68C2F8FD
:1018D0002C113830184700BF78D5FF1F0070034027
:1018E0000448054A836C01211B68C2F83C11503042
:1018F000184700BF78D5FF1F00700340084B094808
:10190000094A0A4910B40A4C1C6098609C6118622C
:101910001C6398639C64186510BC002001F06AB8D1
:1019200078D5FF1F7D170000309CFF1F9117000026
:101930005858000008B5FEF76BFFFFF753FA00F0A8
:10194000E9FEFAE701B441EA000313F003036FD1A3
:10195000403A41D351F8043B40F8043B51F8043B72
:1019600040F8043B51F8043B40F8043B51F8043B79
:1019700040F8043B51F8043B40F8043B51F8043B69
:1019800040F8043B51F8043B40F8043B51F8043B59
:1019900040F8043B51F8043B40F8043B51F8043B49
:1019A00040F8043B51F8043B40F8043B51F8043B39
:1019B00040F8043B51F8043B40F8043B51F8043B29
:1019C00040F8043B51F8043B40F8043B51F8043B19
:1019D00040F8043B403ABDD2303211D351F8043BB9
:1019E00040F8043B51F8043B40F8043B51F8043BF9
:1019F00040F8043B51F8043B40F8043B103AEDD268
:101A00000C3205D351F8043B40F8043B043AF9D2B8
:101A100004320AD0D2071CBF11F8013B00F8013B89
:101A200003D30B7803704B78437001BC704700BF41
:101A30000C2A4AD310F0030311D0C3F10403D21AC5
:101A4000DB071CBF11F8013B00F8013B07D311F87D
:101A5000013B00F8013B11F8013B00F8013B11F09C
:101A600003033FF475AF30B4043AC91AC3F1040C50
:101A700051F8044B022B19D0032B0BD0240A51F838
:101A8000043B1D0644EA050440F8044B1C46043A96
:101A9000F4D216E0240E51F8043B1D0244EA05047A
:101AA00040F8044B1C46043AF4D20AE0240C51F8E6
:101AB000043B1D0444EA050440F8044B1C46043A68
:101AC000F4D20432B1EB0C0130BC043AA0D3013A99
:101AD00011F8013B00F8013BF9D20B7803704B7809
:101AE00043708B78837001BC704700BF08B50F4C02
:101AF000636B58030DD4636B59050FD4636B1A05E0
:101B000011D4636BDB04F3D500F012F8636B580358
:101B1000F1D500F061F9636B5905EFD500F008F8D5
:101B2000636B1A05EDD500F003F8EAE70080044086
:101B300008B5FFF7DBFF00BF014B10221A8070478A
:101B400000200540704700BF094A08B503461068E9
:101B500033B169460344A1F580518B4201D2136031
:101B600008BD03F063FC0C2303604FF0FF3008BD99
:101B7000349CFF1FFEE700BF03F02AB9034B00228D
:101B800010215A615A6018605961704700D00340B3
:101B9000704700BFF0B54FF0E0244FF400054FF060
:101BA000807CC4F80851C4F808C14FF0007CC4F828
:101BB00008C11D4A1D481E494FF0806CC4F808C179
:101BC0002823002748F6FF7609254FF0006CC4F85B
:101BD00008C183B057609660D3605361D36153628C
:101BE000D3625363D3635364156047608660C360F8
:101BF000436105604F608E60CB604B610D6000F00B
:101C00002DFEFFF7C5FF0B4C23680093009B132BA1
:101C1000FAD900F09DFC23680193019BB3F5967FF0
:101C2000F9D303B0F0BD00BF008003400090034033
:101C300000800B40D8D5FF1F2DE9F843044672B64B
:101C4000204F4FF0E02293693D68D2F8042D62B630
:101C5000520102D5322B88BF01350CB9BDE8F8839B
:101C6000DFF86490DFF86480A9EB0303A8FB03238B
:101C70004FF47A7202FB05F505EB13154FF0E026E1
:101C800072B6B1693A68D6F804CD62B6A9EB010321
:101C9000A8FB03031CF0806FC5EB13134FF47A709D
:101CA00002D0322988BF013200FB0233B3F57A7FBC
:101CB00004D3013CD2D005F57A75E1E700F02AFDA6
:101CC000DEE700BFD8D5FF1F3F190100398EE3388A
:101CD00010B472B6194A1A4C042312F8011B0907F2
:101CE00043F0010C05D554F8331061B154F83C10A1
:101CF000B9B10433182BF0D162B6124B00221A701E
:101D000010BC00F089BC0F4904EBC30208305060DE
:101D10000A780D4844F83300013A0A7062B610BCE4
:101D20007047084A094904EBCC030830586013781F
:101D300044F83C10013B137062B6F0E7DC58000039
:101D40000080FF1FD6D6FF1F88004000C80040005B
:101D5000421E042A0ED81C4B400140F0100010B463
:101D6000034472B6194CA05C03281CD8DFE800F0CD
:101D70001315031870470520A05413F0080F0888A6
:101D800014BFC8228822083142EA004259601A6012
:101D900062B610BC70470320EEE708330220EBE781
:101DA00008330420E8E70A4B53F8220038B1094B06
:101DB00053F82200416043F8221062B6E9E743F885
:101DC0002210044BF7E700BF0080FF1FC4D6FF1F9F
:101DD0009CD6FF1FB0D6FF1F2DE9F04FDFF8D0A231
:101DE000DFF8D0B285B03DE0B34D9E0805EBC607E5
:101DF000013A796813F00803D4B2A1F1080040F069
:101E0000BA8055F836204FEA124C120C21F808CC53
:101E100000F0A98021F8063C41F8043CA74B53F898
:101E20002420002A00F00382A54B53F824205060A0
:101E300043F82400A34B33F81420944423F814C02F
:101E400000F0CAFB002800F0EB8117F0080F9E4B52
:101E500000F1080018BF5B46786045F8363008236B
:101E60008AF880309AF880305907DCB21DD5974B3C
:101E70001B78BBB196490A7802F0FF032AB1013BF7
:101E8000DBB20B70002B00F0488392490A7802F015
:101E9000FF032AB1013BDBB20B70002B00F0ED8198
:101EA00000F0E2FB04238AF8803014F0080200F00E
:101EB000CC819AF89020D3B2120995D1DFF8F8912D
:101EC0009B0809EBC30459F833006468C0F383002E
:101ED00009287CD00FD80138012808D87E4A1588F7
:101EE00042F22100854200F0FB8149F833B0012322
:101EF0008AF89430B3E70D28F9D1D4E90007774D7B
:101F000049F833B0744E764CC9F8102083B240F2D1
:101F1000816CC9F818202A6063454FF00102C6E9B8
:101F20000007227000F2FF80B3F5D06F80F0CB8203
:101F3000B3F5817F00F0268240F2DE8040F202326B
:101F400093427BD107F07F07052F00F20881020C36
:101F500040F00581634911F8273043F0020301F88E
:101F60002730134670E017F0080F574B18BF5B4639
:101F700045F8363073E700F04FFB5B495B4A51F898
:101F80002430002B00F05781586841F82400115D7F
:101F900003F108007860032905D8DFE801F0120F8B
:101FA0001502042111551A8817F0080F14BFC82311
:101FB000882343EA024345F8363050E702211155A1
:101FC000F1E703211155EEE705211155EBE7434DEC
:101FD0002A683AB34649424C0F88464894F800E0D4
:101FE0000678402F3B4628BF4023BEF1000F8EF0FD
:101FF000010E84F800E046F0020486F00106067047
:1020000009EBC400426014BFC820882040EA0340A6
:102010001A44FB1A9BB249F834000B80002B00F0E5
:1020200036812A602C4B1A88B2F5A06F7FF45FAF1F
:102030009A788AF8982000225A7058E7B3F5A06F72
:1020400040F08D8000221346B6F806C0294894451A
:1020500028BF944667460278402F28BF402742F0A9
:10206000020E3E0409EBCE0846F0C806C8F804305C
:1020700049F83E6000263B442670BCEB070782F01F
:102080000106067040F01181BCF13F0F4FF00105D1
:1020900009D946F00206027009EBC60225705360AA
:1020A000882349F8363001238AF894301FE700BFAF
:1020B00000200740C80040000080FF1F6CD6FF1FB3
:1020C00080D6FF1FCCD6FF1F88004000C9D6FF1F57
:1020D000CAD6FF1FF8D6FF1F94D6FF1F60D6FF1F7A
:1020E0005DD6FF1FC02007409CD6FF1FC4D6FF1F30
:1020F0005ED6FF1F5CD6FF1F802B00F08B81822BEA
:102100002DD107F07F07052F29D8A74A0023138078
:10211000A64B13F827309F0740F1FC810123137071
:10212000A14B022290E742F2210C6345BBD01DD99E
:1021300042F2212293420DD1BFB2002F82D19C4B9B
:102140001A689C4B1A609C4BC0F307400022187021
:10215000134679E742F2213293423FF473AF0F23E3
:102160008AF8C03001238AF89430C0E6B3F5086FCE
:1021700000F04A81B3F5106FF1D1904BC0F30740E6
:102180000425187059F835301A0606D40135182D73
:102190000CD059F835301A06F8D509EBC5030135CE
:1021A0005868083800F038FA182DF2D1844A854B67
:1021B0000292854A0192854E854ADFF8188203947F
:1021C000009200251C4656F8047B2FB138467F68E4
:1021D00000F022FA002FF9D1009BD8F8007043F8E4
:1021E000045B46F8045C00932FB138467F6800F02A
:1021F00013FA002FF9D1029B48F8045B43F8045B03
:102200000293019B23F8025B01932378023B032B8B
:1022100000F20981DFE813F03F0104013F010401EE
:102220006D4A45F8360013780133137017E643F80A
:102230002400674BFCE5115D022926D07FF60FAE26
:1022400003291DD10123135509E6E0076ED42106A9
:1022500021D4A20708D5614B93F888200221D2B27D
:1022600083F8882083F88010E30603D55B4B1022A7
:1022700083F8802005B0BDE8F08F00F027FA0FE664
:1022800017F0080F14BF032302231355E7E53F2F70
:1022900098BF0022C5E6514B80220D2183F8C01063
:1022A00083F88020A207DFD5D5E746F0020602704A
:1022B000402F09EBC6003A4628BF40224360100475
:1022C000134440F088000121BA1A49F83600217001
:1022D00055D02B60424B1A8001238AF8943006E6D1
:1022E00092885AB93F4AE51D14F8011B02F8011FF4
:1022F000AC42F9D13C4A1268862A3CD03B4C3C485F
:1023000025780278002D85F00105257042F0020441
:1023100082F00102027009EBC4024FF0000050602D
:1023200014BFC822882249F83420DEE52B4B304800
:102330003049314C022583F8945002702F480C60CC
:102340002F4D48608C600D24CD60FF200A618A61AA
:1023500083F8C04001219F2483F8880083F880001F
:1023600083F8982083F88C0083F8844083F89410D5
:1023700005B0BDE8F08F234A0F201070BEE73F2F55
:10238000A7D890E607F07F07052F3FF6E8AE000CD0
:102390007FF4E5AE054A12F8273023F0020302F875
:1023A0002730002213464FE664D6FF1FC0200740A7
:1023B000D8D5FF1FF4D6FF1FF0D6FF1FC9D6FF1FC9
:1023C000B0D6FF1FC4D6FF1FCCD6FF1F6CD6FF1F91
:1023D00080D6FF1F9CD6FF1FD6D6FF1F00200740C8
:1023E0005ED6FF1FE7D6FF1FE8D6FF1F5DD6FF1F93
:1023F0005CD6FF1F0080FF1F88004000DCD5FF1F58
:102400001CD6FF1FCAD6FF1F484B49491B780B70CB
:102410000B4619E6464A00231380454B022213E679
:102420004FF001032370434BB34204F101047FF4E6
:10243000CAAE414E039CDFF80481414F0023337044
:10244000042518F8013B3F4AAB541B0725D445F03F
:10245000020145F0030204350023182D49F83130FC
:1024600049F83230EDD1384F25783A7842F0020001
:1024700009EBC00C85F00106CCF80430002D4DD1DD
:10248000882382F0010226703A7049F83030012327
:102490008AF894302BE52570C5E700F09DF80028F8
:1024A00032D009EBC5030830586049F8357000F0A8
:1024B00093F808B345F0010309EBC30208305060FC
:1024C00049F833B0C3E7214A5368002B3FF447AEC5
:1024D000000CBFB204E013690C32002B3FF43FAE96
:1024E00011888142F7D15188B942F4D1000A0328FA
:1024F0000CBF1A781289A7E533780133337045F0A1
:10250000010349F83300A2E7337849F83500013375
:102510003370CCE7064B022296E500BE2670C82336
:1025200082F001063E7049F83030BCE5C9D6FF1F85
:1025300064D6FF1F80D6FF1FD6D6FF1FDC580000D1
:1025400088004000C02007405CD6FF1F7C58000078
:1025500070B500F0E9F900231A4A194642F8331021
:1025600002EBC3000133182B4160F7D1164C174B17
:10257000606B174D40F480206063C2F3072483F83A
:102580009C40144CFF204FF0010CC2F30746120E82
:1025900083F8B0604FF0E02E83F8B42083F8800019
:1025A00083F88800187483F894C0217083F884C07D
:1025B000702385F849304FF400721023CEF80821BB
:1025C000237270BD0080FF1F008004400020074080
:1025D00000E400E00021074072B60D490B68B3FA31
:1025E00083F01D2810DC4FF00042C24023EA0203B2
:1025F0000B6062B6074A00EBC000C10002EBC000EE
:10260000002353504360704762B60020704700BFFC
:10261000389CFF1FBC93FF1F0E4BC31AB3F5076F07
:1026200010D20D4A127872B972B60C4A0C49A2FB4C
:10263000032308684FF000421B0922FA03F3034307
:102640000B6062B67047074A1278002AECD0FFF799
:102650003FBB00BFBC93FF1FD6D6FF1F398EE338A8
:10266000389CFF1FC9D6FF1F70B50B4C257845B9A4
:102670000A4E31680123237009B14B8813B9002336
:10268000237070BD9B000B800420FFF761FB0023CB
:1026900035602370F5E700BFD7D6FF1FD8D6FF1FE0
:1026A000084B094A1B6810B554881BB11A885B880F
:1026B000D31A1C440CB1204610BD00F02BF8204664
:1026C00010BD00BFDCD6FF1FCCD6FF1F38B50E4BA8
:1026D0001B7853B90D4C216841B103F0FF054B88BD
:1026E0000B800320FFF734FB256038BDFFF774FF34
:1026F000014620B1BDE838400320FFF729BB044B59
:1027000001221A7038BD00BFE0D6FF1FE4D6FF1FBC
:10271000F8D6FF1F2DE9F843324E337863B1324FBC
:102720003A784AB90122D9073A7043D49A0726D495
:1027300000225B073A7001D4BDE8F8832B4B1A687E
:10274000002AF9D0EFF30582002AF5D1EFF31085C6
:1027500072B6186800283AD0254C2178002936D165
:1027600042691A6001232370002A37D0916105B9AC
:1027700062B600258368457798472570DCE7DFF867
:10278000748098F80020002AD2D00025DFF86890E5
:102790002B4659F82340236820461B69013598478A
:1027A00008B12369984798F80020EBB29A42F0D814
:1027B0003378BDE7FFF774FF68B9104B1B780BB98E
:1027C0003378B3E7337803F0FE033370AEE7002DC0
:1027D000B2D162B6B0E700F0A5F8EEE7084B1A6098
:1027E000C5E700BF3C9CFF1FF9D6FF1FFCD6FF1FAB
:1027F00008D7FF1F1CD7FF1F10D7FF1F78580000F6
:102800000CD7FF1F70B5EFF3108272B60C4C206826
:1028100080B10C4E00254369236073B19D6102B9FC
:1028200062B6836845779847EFF3108272B62068E6
:102830000028F0D102B962B670BD3360EFE700BF87
:1028400004D7FF1F00D7FF1FFFF7DCBF024A136842
:1028500001331360704700BFD8D5FF1F2A4B2B4AA6
:102860006020E1211870597013782948082B34D062
:102870000A2B20D00C2B274B0CBF15213D211222F7
:102880008160C2609960DA60234B21491B78214A3C
:10289000CBB101230B621362204B1D491B781D4AEB
:1028A000012B13D9042B1BD884234B6253621C4B7E
:1028B00001221A707047174B192113228160C260E0
:1028C0009960DA60E0E70B621362E5E780234B6210
:1028D0005362134B01221A7070470E4B0121ECE733
:1028E000082B06D885234B6253620D4B01221A70C8
:1028F0007047102B94BF862387234B625362084B8B
:1029000001221A70704700BF004007403D9CFF1F26
:1029100000B0034000B00B401DD7FF1F3E9CFF1FBF
:102920001ED7FF1F704700BF10B584B072B6174A9C
:10293000702441200F2180231470D0719171137085
:1029400013781B06FCD5906862B6114B114C984267
:1029500038BF00EB800001A938BF40000A2200F018
:102960001BF801A92046002311F8012B01333AB1CD
:102970000A2B20F8022FF7D11623237004B010BDC4
:102980005B00DBB2237004B010BD00BF000002404A
:1029900080969800309DFF1F01F1FF3C70B56546A1
:1029A000002401E070460134B0FBF2FE02FB1E037E
:1029B000092B03F130068ABF3733F3B2DBB2904202
:1029C00005F8013FEED2631C0022CA54C8187CB13E
:1029D00062461CF8015F10F801ED8CF800E0A1EBF5
:1029E0000C030232013B521A23449A420570EFDB7A
:1029F000084670BD03460846194602F0FFBC00BFFA
:102A000000F02ABA38B5044600F0AEFA0546204672
:102A100000F074F848B10D49204602F093F930B93E
:102A20000B49204602F070F948B9284638BD02F03B
:102A3000FDFC4FF0FF4522230360284638BD02F01D
:102A4000F5FC222300250360EFE700BF1772B142B7
:102A5000B5F1CFC270B50C46064600F0A7FB214683
:102A60000546204602F078F958B90021304602F0B8
:102A700041F9A0B10021204602F03CF918B14FF015
:102A80007E55284670BD204600F038F80028F8D062
:102A90000021204602F038F90028F2D023E0284631
:102AA00000F02CF880B10021284602F023F900281C
:102AB000E7D0304600F022F80028E2D0204600F0AF
:102AC0001DF80028DDD00EE0304600F017F8002891
:102AD000E9D0204600F012F80028E4D02946284624
:102AE00002F03AF920B902F0A1FC22230360C8E702
:102AF00002F09CFC21230360C3E700BF20F00040EC
:102B0000B0F1FF4FACBF002001207047174A20F002
:102B1000004393421ADD00B5B3F1FF4F83B005DBEC
:102B2000014601F049FE03B05DF804FB694600F080
:102B300007FF00F00302012A0199009809D0022A38
:102B40000FD05AB1012200F011F9ECE7002100F09A
:102B500047B800F00BF900F10040E4E700F040F85E
:102B6000E1E700F03DF800F10040DCE7D80F493F15
:102B70001A4A20F0004393421BDD00B5B3F1FF4F2A
:102B800083B005DB014601F017FE03B05DF804FBDE
:102B9000694600F0D5FE00F00300012801990CD031
:102BA000022813D068B1009800F01AF800F1004034
:102BB000EBE70021002200F0D9B8009800F010F8EF
:102BC000E3E70098012200F0D1F8DEE70098012247
:102BD00000F0CCF800F10040D7E700BFD80F493F24
:102BE0002DE9F84320F00045B5F1485F06468846D8
:102BF0004ADA02F0C7F8002800F09F8031463046DC
:102C000001F0E4FE4F49044601F0E0FE4E4901F0B8
:102C1000D5FD214601F0DAFE4C4901F0CDFD2146FB
:102C200001F0D4FE4A4901F0C9FD214601F0CEFE73
:102C3000484901F0C1FD214601F0C8FE464901F0B6
:102C4000BDFD214601F0C2FE07464FF07C512046F3
:102C500001F0BCFE3946034620461C4601F0B6FE94
:102C600041460546304601F0B1FE0146284601F0D6
:102C7000A3FD0146204601F09FFD01464FF07E5026
:102C800001F09AFDBDE8F883014601F09FFE2D4951
:102C9000044601F09BFE2C4901F090FD214601F015
:102CA00095FE2A4901F088FD214601F08FFE284952
:102CB00001F084FD214601F089FE264901F07CFDEA
:102CC000214601F083FE244901F078FD214601F000
:102CD0007DFE224B9D420746B7DD214B9D4228DCFD
:102CE00005F17F454FF07E50294601F065FD814694
:102CF0004FF07C51204601F069FE294601F05CFD51
:102D00003946034620461C4601F060FE4146054612
:102D1000304601F05BFE0146284601F04DFD0146BC
:102D2000204601F049FD0146484601F045FDBDE859
:102D3000F883DFF830900C4DDAE74FF07E50BDE8B5
:102D4000F88300BF4ED747ADF6740F317CF2933451
:102D5000010DD037610BB63AABAA2A3D9999993E3D
:102D60000000483F0000383F0000903E2DE9F84346
:102D700020F00043B3F1485F04460E46904603DA64
:102D800002F000F8002858D02146204601F01EFE2F
:102D900005460146204601F019FE2949814628468C
:102DA00001F014FE274901F007FD294601F00EFE4F
:102DB000254901F003FD294601F008FE234901F0F1
:102DC000FBFC294601F002FE214901F0F7FC074611
:102DD000B8F1000F22D04FF07C51304601F0F6FDE3
:102DE00039468046484601F0F1FD0146404601F073
:102DF000E3FC294601F0EAFD314601F0DDFC15490E
:102E00000546484601F0E2FD0146284601F0D6FCA1
:102E10000146204601F0D0FCBDE8F8830146284673
:102E200001F0D4FD0B4901F0C7FC494601F0CEFD8D
:102E3000214601F0C3FCBDE8F8832046BDE8F883D5
:102E4000D3C92E2F342FD7321BEF3836010D50390E
:102E50008988083CABAA2A3E70B521F00045B5F13F
:102E6000FF4F0A4603462CDC20F00046B6F1FF4F28
:102E7000844626DCB1F17E5F35D08C1704F0020465
:102E800044EAD07416B33DB3B5F1FF4F33D0B6F179
:102E9000FF4F21D0761BB6F1F45F4FEAE65028DAF7
:102EA000002933DA3C3031DA0020012C3FD0022CEB
:102EB00035D02CB1244901F081FC244901F07CFC7F
:102EC00070BD1946104601F079FC70BD022C08D087
:102ED000032CF5D11E4870BDBCF1000F07DB1D4867
:102EE00070BD1A4870BDBDE8704000F01BBF1A48A5
:102EF00070BD1848D9E7B6F1FF4F04F1FF3419D07F
:102F0000022C1DD8154B53F8240070BD11461846ED
:102F100001F010FE01F01EF800F004FFC5E70A49B9
:102F200001F04CFC0146094801F046FC70BD00F17F
:102F3000004070BD022C05D8094B53F8240070BD29
:102F4000002070BD074870BD2EBDBB33DB0F49406C
:102F5000DB0F49C0DB0FC93FDB0FC9BFF0580000D2
:102F6000E4580000DB0F493F20F00042B2F1FF4F70
:102F70002DE9F04704466CD84FEAD07500F0C680C2
:102F80007A49884200F3B4800028C0F2B680784BBA
:102F90009A4263D9774B9A4200F2C580764B20461D
:102FA00053F8251001F008FC744BC5F1010653F8E5
:102FB00025908046761B4946404601F0FDFB0146C0
:102FC000054601F003FD6E49044601F0FFFC6D4922
:102FD00001F0F2FB214601F0F9FC6B4901F0EEFB38
:102FE000214601F0F3FC694901F0E6FB214601F0BE
:102FF000EDFC674901F0E2FB214601F0E7FC0146E8
:10300000284601F0D9FB2C4607468246002E57D0B1
:103010003946284601F0DAFC394604464FF0804034
:1030200001F0CAFB0146204601F084FD01464846F6
:1030300001F0C2FB414601F0BFFB01464FF07E505C
:1030400001F0BAFB16F17D0F64DB00EBC650BDE862
:10305000F087014601F0B2FBBDE8F087B2F1505FA6
:1030600009D24C49204601F0A9FB4FF07E5101F0F6
:1030700069FE002874D12146204601F0A7FC404992
:10308000054601F0A3FC3F4901F096FB294601F0FB
:103090009DFC3D4901F092FB294601F097FC3B491C
:1030A00001F08AFB294601F091FC394901F086FBC9
:1030B000294601F08BFC0146204601F07DFB82464B
:1030C0005146204601F082FC4FF0804105465046B3
:1030D00001F072FB0146284601F02CFD214601F06B
:1030E0006BFB01464FF07E5001F066FBBDE8F087B8
:1030F000BDE8F047002000F0B9BD274B9A427FF6AB
:1031000046AFBDE8F047002000F0ACBD002DA3D0D5
:103110000020A1E764364FF0586100EBC65001F083
:1031200055FCBDE8F0871D49204601F04FFC1C4BC3
:1031300053F8251001F042FB01F024FE064601F091
:10314000F1FB1849054601F041FC0146204601F01B
:1031500033FB15498046284601F038FC81462AE7B2
:103160004FF07E51204601F029FB75E71772B142FE
:103170001872B13E9115853F045900000C590000AA
:103180004CBB31330EEADD3555B38A38610B363B23
:10319000ABAA2A3ECAF24971B5F1CF423BAAB83F69
:1031A000FC5800008071313FD1F717372DE9F04FFF
:1031B00031F0004987B00C46074680460ED180F4B6
:1031C00080084FEA480818F5000F40F24D8121466B
:1031D000384601F0F3FA07B0BDE8F08F20F0004A5E
:1031E000BAF1FF4FF3DCB9F1FF4F0D4600F3318127
:1031F0000028C0F23E810026B9F1FF4F00F0538154
:10320000B9F17E5F00F05781B5F1804F00F0468143
:10321000B5F17C5F384640F05281B8F1000F80F282
:103220009B8100F097FEBAF1FF4F00F05C81BAF18C
:10323000000F00F05481BAF17E5F00F049814FEA3F
:10324000D873013B0093334300F08B81B9F19A4F5F
:1032500040F38F81B14B9A4540F3D182B04B9A45F0
:1032600000F3D9824FF07E5101F0A6FAAD4907462E
:1032700001F0ACFBAC498146384601F0A7FB4FF0AA
:103280007A518046384601F0A1FB0146A74801F07B
:1032900093FA394601F09AFB01464FF07C5001F059
:1032A0008BFA39468246384601F090FB014650467B
:1032B00001F08CFB9E4901F089FB0146404601F07C
:1032C0007BFA01468046484601F078FA20F47F6791
:1032D00027F00F074946384601F06EFA014640468E
:1032E00001F06AFA25F47F65009B013E25F00F0589
:1032F0001E432946814620460CBF8E4E4FF07E5617
:1033000001F05AFA394601F061FB214680464846F1
:1033100001F05CFB0146404601F050FA2946804628
:10332000384601F053FB01460746404601F046FA95
:1033300000280546044620F0004340F33382B3F1F1
:10334000864F00F3B88200F09782B3F17C5F00F300
:10335000DE824FF000094D4624F47F6424F00F0410
:103360007549204601F032FB39468246204601F07D
:1033700023FA0146404601F01FFA704901F026FB8E
:103380006F490746204601F021FB0146384601F00F
:1033900015FA04460146504601F010FA5146074618
:1033A00001F00AFA0146204601F006FA3946804645
:1033B000384601F00BFB6349044601F007FB624904
:1033C00001F0FAF9214601F001FB604901F0F6F93C
:1033D000214601F0FBFA5E4901F0EEF9214601F0C9
:1033E000F5FA5C4901F0EAF9214601F0EFFA0146ED
:1033F000384601F0E1F904460146384601F0E6FAA4
:103400004FF080418246204601F0D6F901465046F1
:1034100001F090FB41460446384601F0D7FA414698
:1034200001F0CCF90146204601F0C6F9394601F019
:10343000C3F901464FF07E5001F0BEF903464B44FC
:10344000B3F5000FC0F2E3811846314601F0BEFA31
:10345000C1E6B0F17E5F7FF4BAAE81F480056D0005
:1034600015F5000F3FF6B3AE4FF07E5007B0BDE844
:10347000F08FB9F1974F0FDAB9F17E5F0ADB4FEAAF
:10348000E953C3F1960349FA03F202FA03F34B45F9
:1034900000F083810026B3E60226ADE639463846C1
:1034A00001F094FA97E6BAF17E5FDDD02ADD002DB7
:1034B00026DB20468FE6002D29DB38468BE600F020
:1034C00049FDBAF1FF4F03D0BAF1000F7FF4B3AE5C
:1034D000002D04DA01464FF07E5001F02BFBB8F1CD
:1034E000000FBFF678AEAAF17E5A5AEA060A40F0FB
:1034F0004E81014601F060F9014601F01BFB6AE6CE
:10350000002068E6002DFBDA04F1004063E639464E
:103510004FF07E5001F00EFB5DE600BFF3FF7F3FF2
:103520000700803F00AAB83F70A5EC36ABAAAA3EC0
:103530003BAAB83F000080BF0072313F1872313F94
:103540008CBEBF354CBB31330EEADD3555B38A38FE
:10355000610B363BABAA2A3E07B0BDE8F04F01F045
:103560006DB83946384601F027F9014601F0E2FA14
:1035700031E618F0FF4F40F040814FF0974101F0E5
:1035800025FA6FF0170282464FEAEA537F3B9A18FA
:10359000A94B0192CAF3160A9A454AF07E5807DDF4
:1035A000A64B9A4540F33F8101320192A8F50008ED
:1035B00000231A46059304924FF07E5300271946C4
:1035C0004046029301F0F8F8029B039319468246A5
:1035D000404601F0F3F801464FF07E5001F0AAFAA0
:1035E00001460290504601F0F1F94FEA680242F0BC
:1035F000005202F5802220F47F6B17442BF00F0B52
:10360000C14639468046584601F0E0F90146504629
:1036100001F0D2F8039B844619463846674601F00C
:10362000CBF80146484601F0C7F8594601F0CEF9FB
:103630000146384601F0C0F8029901F0C7F9414649
:103640008146404601F0C2F97D49074601F0BEF9C6
:103650007C4901F0B3F8394601F0B8F97A4901F034
:10366000ADF8394601F0B2F9784901F0A7F83946CA
:1036700001F0ACF9764901F0A1F8394601F0A6F95C
:10368000744901F09BF839468246384601F09EF9AC
:103690000146504601F09AF959460746404601F066
:1036A0008DF8494601F092F9394601F087F85946FC
:1036B0008246584601F08AF96749029001F07EF887
:1036C000514601F07BF820F47F6727F00F07394659
:1036D000584601F07BF960498346384601F06CF8A2
:1036E000029B194601F068F80146504601F064F863
:1036F000414601F06BF939468046484601F066F9CB
:103700000146404601F05AF880460146584601F00D
:1037100055F820F47F6727F00F075049384601F02D
:1037200055F959468146384601F046F8014640466B
:1037300001F042F84A4901F049F94A4980463846C1
:1037400001F044F90146404601F038F8049901F0CF
:1037500035F88046019801F0E5F841468246484632
:1037600001F02CF8DDF814B0594601F027F8514665
:1037700001F024F820F47F6727F00F075146384600
:1037800001F01AF8594601F017F84946A4E5012E50
:103790007FF421AD00F100401DE502F00102C2F10D
:1037A00002062DE5304A934200F3A98000F08B8099
:1037B000B3F17C5F7FF7CDADDB154FF400027E3BAC
:1037C00042FA03F303442949C3F3C7527F3AC3F3D0
:1037D0001605114145F40005C2F1170219401541C3
:1037E0006D42384600F0E8FF01460746404600F0CB
:1037F000E5FF4FEAC5590446AEE50022C4E6002DB8
:103800000BDB002007B0BDE8F04F00F02BBA2946D3
:1038100000F030FA19E6002DF3DD002007B0BDE816
:10382000F04F00F023BA124B0593124B04934FF460
:1038300000174FF07F53C2E671C41C00D6B35D0081
:1038400042F1533E55326C3E05A38B3EABAAAA3ED5
:10385000B76DDB3E9A99193F000040400038763F33
:103860004F38763FA0C39D3600001643000080FF0E
:1038700000C0153FDCCFD1352F49404600F09EFFF8
:1038800039468146284600F097FF0146484601F038
:1038900059FA80B905F50043C3F3C75227497F3A67
:1038A00011411940C3F31603C2F1170243F4000398
:1038B00043FA02F595E70021304601F025FA003879
:1038C00018BF0120AAE7394600F076FF414601F013
:1038D0002FFAA0B905F500431849C3F3C7527F3A40
:1038E000C3F31605114145F40005C2F11702002C7F
:1038F00001EA030145FA02F5FFF672AF71E7002114
:10390000304601F001FA003818BF01207AE7DB15D4
:103910004FF400027E3B42FA03F323440749DA15D1
:103920007F3AC3F31605114145F40005C2F11702B1
:103930001940154155E700BF3CAA3833000080FF0D
:103940002DE9F04FAB4A20F00044944289B00D4677
:103950006CDDA94A944207461CDC0028A74940F3C5
:103960001E8100F029FFA64B24F00F049C4206465E
:103970006BD0A44900F020FF01462860304600F0DB
:103980001BFFA04900F018FF01266860304609B00F
:10399000BDE8F08F9C4A94426CDDB4F1FF4F4DDAE4
:1039A000E615863EA4EBC654204601F0EBF900F084
:1039B000B9FF01462046059100F0FEFE4FF0874119
:1039C00001F004F8804601F0DDF900F0ABFF044699
:1039D00021464046069400F0EFFE4FF0874100F08C
:1039E000F5FF0021079001F085F9002800F0B8806C
:1039F0000021204601F07EF9002814BF0123022394
:103A0000824A0192022200922946324605A800F01D
:103A1000A5FA002F0646B9DAD5E9002302F10042E3
:103A200003F100432A606B604642AFE7002628603E
:103A3000002230464A6009B0BDE8F08F014600F030
:103A4000BBFE002668602860A0E7714900F0B4FE64
:103A50007049044600F0B0FE01462860204600F0A0
:103A6000ABFE6C4900F0A8FE01266860304609B044
:103A7000BDE8F08F00F06EFA6749804600F0A6FFBF
:103A80004FF07C5100F09AFE01F07CF9064600F000
:103A900049FF5A49834600F099FF0146404600F02D
:103AA0008BFE58498246584600F090FF1F2E8146F3
:103AB0000146504620DC721E584B53F8223024F049
:103AC000FF029A4218D000F077FE8046C5F80080C9
:103AD0004146504600F070FE494600F06DFE002F52
:103AE0006860BFF653AF08F1004800F10040C5F828
:103AF00000806860764249E700F05EFEC0F3C7537D
:103B0000C3EBD453082B80464FEAE452DEDD404934
:103B10000392584600F05AFF80460146504600F096
:103B20004BFE04462146504600F046FE414600F05A
:103B300043FE38498046584600F048FF414600F0B1
:103B40003BFE01468146204600F036FE039AC0F354
:103B5000C753D21A192A804604DC2860A246B7E768
:103B600003234DE72E49584600F030FF01468046BA
:103B7000204600F021FE82465146204600F01CFE01
:103B8000414600F019FE27490446584600F01EFF42
:103B9000214600F011FE81460146504693E700F0B1
:103BA0000DFE174B24F00F049C4206460ED015491B
:103BB00000F004FE01462860304600F0FDFD11498A
:103BC00000F0FCFD4FF0FF366860DFE6104900F0C2
:103BD000F5FD1049044600F0F1FD0146286020463D
:103BE00000F0EAFD0B4900F0E9FD4FF0FF36686098
:103BF000CCE600BFD80F493FE3CB1640800FC93F4A
:103C0000D00FC93F43443537800F494394590000D2
:103C10000044353708A3852E84F9223F145900004B
:103C200000A3852E32318D2438B505460C4601F0AF
:103C3000FDFB034628461C6038BD00BF08B540B1F7
:103C400001F1004000F0C2FEBDE808402221FFF76C
:103C5000EBBF084600F0BAFEBDE808402221FFF79E
:103C6000E3BF00BF4FF08051FFF7E8BF4FF0E041E6
:103C7000FFF7E4BF10B50C4630F0004103461DD0FD
:103C8000B1F1FF4F1BD210F0FF4F02461BD14FF096
:103C9000984100F09BFE204A944203462CDBC0F37F
:103CA000C75102464CF250308442A1F1190110DD97
:103CB0001A49184661F31E0000F088FE10BD014647
:103CC00000F07CFD10BD4CF2503084424FEAD151DF
:103CD000EEDC2144FE29EBDC002911DC11F1160F8A
:103CE00013DB01F1190022F0FF424FF04C5142EA80
:103CF000C05000F06BFE10BD094900F067FE10BD1A
:103D000022F0FF4242EAC15010BD0549184661F356
:103D10001E0000F05BFE10BDB03CFFFFCAF249710F
:103D20006042A20D2DE9F04120F00045B5F1A14F10
:103D30000446074607DBB5F1FF4F71DC00287FDD45
:103D40007048BDE8F081704B9D427CDCB5F1445F6A
:103D50006BDB4FF0FF382146204600F037FE01466E
:103D6000064600F033FE6949054600F02FFE68491B
:103D700000F024FD294600F029FE664900F01EFDF2
:103D8000294600F023FE644900F018FD294600F0A2
:103D90001DFE624900F012FD294600F017FE604941
:103DA00000F00CFD314600F011FE5E490646284643
:103DB00000F00CFE5C4900F0FFFC294600F006FE16
:103DC0005A4900F0F9FC294600F000FE584900F07D
:103DD000F3FC294600F0FAFD564900F0EDFC2946B7
:103DE00000F0F4FDB8F1FF3F014630464AD000F044
:103DF000E5FC214600F0EAFD4F4B53F8281000F097
:103E0000DBFC214600F0D8FC4C4B014653F828005F
:103E100000F0D2FC002F94DA00F10040BDE8F08100
:103E2000014600F0CBFCBDE8F081454900F0C6FC3E
:103E30004FF07E5100F086FF00288AD0204680E7B0
:103E40004048BDE8F08100F085F83F4B9D420446B4
:103E500023DCA3F5D0039D4241DC014600F0AEFC1B
:103E60004FF07E5100F0A8FC4FF0804105462046FF
:103E700000F0A4FC0146284600F05CFE4FF000086C
:103E8000044668E700F09AFC214600F09FFD0146D9
:103E9000204600F091FCBDE8F0812C4B9D4216DCE1
:103EA0004FF07F5100F088FC4FF07F5103462046D1
:103EB0001C4600F08BFD4FF07E5100F07FFC014668
:103EC000204600F037FE4FF00208044643E7214643
:103ED0001F4800F02FFE4FF0030804463BE74FF069
:103EE0007E5100F069FC4FF07E510546204600F0FF
:103EF00065FC0146284600F01DFE4FF0010804460F
:103F000029E700BFDB0FC93FFFFFDF3ED769853CD4
:103F100059DA4B3D356B883D6E2EBA3D2549123E30
:103F2000ABAAAA3E21A215BD6BF16E3D95879D3DC2
:103F3000388EE33DCDCC4C3EBC5C0000AC5C000058
:103F4000CAF24971DB0FC9BFFFFF973FFFFF1B405C
:103F5000000080BF20F00040704700BF2DE9F04F07
:103F6000DDB01C4606930991A64B66990B9253F857
:103F700021300393111D04F1FF3305460193C0F274
:103F8000EC82D31E48BF131DDB1005930133DB0009
:103F90000A93DDE90A239B1A0493059A019BD61A1A
:103FA000039A12EB030818D408F10108DDF89C917C
:103FB000B044002420AF08E059F8260000F0B2FC1D
:103FC0000136464547F8040B07D0002EF4DA0136D7
:103FD0002046464547F8040BF7D1039B002BC0F25F
:103FE0001183069B019E20AA02EB83079A00009290
:103FF000039A291F02910DF5907802EB030901EB5A
:104000008305019B002BB8BF002410DBDDF808A05E
:10401000BB4600245BF8041D5AF8040F00F0D6FCE0
:104020000146204600F0CAFBAA450446F2D10136FB
:104030004E4548F8044B07F10407E2D1029B009D6E
:10404000039A1D440CAB03EB8203043B07930CABB8
:1040500003EB8203089390465CAB03EB8803B8F153
:10406000000F53F850AC4FEA880921DD48AF07EB49
:1040700088040CAE4FF06E51504600F0A7FC00F0E3
:1040800081FE00F04FFC4FF08741834600F09EFC1C
:104090000146504600F090FB00F074FE54F8041DF9
:1040A00046F8040B584600F089FBBC428246E1D139
:1040B000049E50463146FFF7DDFD4FF0785104462F
:1040C00000F084FC00F032FB4FF0824100F07EFCF7
:1040D0000146204600F070FB044600F053FE824685
:1040E00000F020FC0146204600F066FB002E04464E
:1040F000314640F3898008F1FF360CAAC1F108036C
:1041000052F8262042FA03F000FA03F3D21AC1F162
:1041100007010CAB42FA01F7002F43F82620824436
:104120007CDC0021204600F0E5FD002800F0D38073
:10413000039B08F1FF34A34208F1804010DC0CAB74
:10414000DDF820C04FEA880603EB8803002253F80D
:10415000041D634542EA0102F9D1002A40F01181B1
:10416000039B0CAA013B52F82330002B40F0058141
:10417000079B012653F8042D0136002AFAD008EBDC
:104180000603009308F10107059A02EB0709069A56
:104190006FF0404399441344679A434402EB890902
:1041A00020AA02EB830848AB03EB800A59F8040FFE
:1041B00000F0B8FB019B48F8040F002B19DBDDF879
:1041C00008B04446002601E054F8040D5BF8041FD3
:1041D00000F0FCFB0146304600F0F0FAAB45064625
:1041E000F2D1009B4AF8046F01379F42DEDD98460A
:1041F00032E7009B013700269F424AF8046FD5DD65
:10420000F5E700BFF85C000040F09F8008F1FF3345
:104210000CAA52F82370FF11002F82DDB8F1000FB5
:104220000AF1010A40F39E810C9E002E40F0858029
:10423000B8F1010F20D00CAB012253F8046F002E0F
:104240007ED0531C0CA9C6F58076984541F82260B3
:1042500011DD09F130020DEB02010CAA0CA852F895
:10426000232000EB830300E01A68C2F1FF0243F849
:10427000042B8B42F8D10126049B002B0EDD012B71
:1042800000F06081022B09D108F1FF320CAB0CA9C0
:1042900053F8223003F03F0341F82230022F7FF41D
:1042A00040AF21464FF07E5000F086FA0446002EC3
:1042B0003FF437AF04994FF07E50FFF7DBFC014627
:1042C000204600F079FA04460021204600F012FD55
:1042D00000287FF42DAFDDE90A322046991A0097B5
:1042E000FFF7C8FC4FF08741044600F021FD00288D
:1042F00000F06481049B4FF06E5108332046049314
:1043000000F064FB00F03EFD00F00CFB4FF0874135
:10431000054600F05BFB0146204600F04DFA00F038
:1043200031FD0CAB08F1010443F82800284600F0E9
:1043300029FD0CAB43F8240036E00123002281E77D
:10434000013242457FF479AF96E74FF07C5100F09F
:10435000EFFC074600283FF4E4AEB8F1000F0AF185
:10436000010AC8BF02273FF75FAF21464FF07E50DA
:1043700000F022FA02270446D3E608F1010700976D
:1043800002E7049B0097A3F108020CAB049253F8D8
:1043900024304BB9331F0CA90B4453F8041D013CC6
:1043A000083A0029F9D0049204994FF07E50FFF7A3
:1043B00061FC002C0746C0F22B81631C9A0001921D
:1043C0000CAA02EB830848AA02934FF06E5602EB48
:1043D000830558F8040D00F0A5FA394600F0F6FA06
:1043E000314645F8040D384600F0F0FA0CAB98451C
:1043F0000746EED1019BDDF80C90CDF810A0083BEC
:1044000048AA02EB03080027A346B9F1000FB8BF82
:10441000002515DB874C8848C2460025002603E0AE
:10442000B7420DDB54F8040F5AF8041F00F0CEFA1F
:104430000146284600F0C2F90136B1450546EFDADB
:104440005CAB03EB87035F4543F8A05CA8F104086D
:104450004FEA870607F1010301D01F46D5E7669BA7
:10446000DDF810A0022B5C4617DC002B7CDC0FD1A2
:10447000019C34AD2C44002054F8041D00F09EF93A
:10448000A542F9D1009B0BB100F10040099B1860D7
:104490000AF007005DB0BDE8F08F669B032BF7D1F3
:1044A000002C00F0C28034AF07EB060858F804BCBB
:1044B0002846594600F082F9A9460546294658463D
:1044C00000F07AF9494600F079F9C8F8000048F898
:1044D000045D4745EAD1012C40F3A78006F5B87387
:1044E0006B44BD1953F8A04C0DF1D40855F804BC29
:1044F0002046594600F062F9A14604462146584636
:1045000000F05AF9494600F059F9286045F8044D81
:10451000A845EBD1341D3C440020083754F8041D55
:1045200000F04CF9A742F9D1009B002B4ED109991C
:10453000349A359B88600AF007000A604B605DB0D2
:10454000BDE8F08F08F1FF320CAB0CA953F8223014
:1045500003F07F0341F82230A0E608230A930023EA
:10456000059316E5002687E6029B34AD05EB83062E
:10457000002056F8041D00F021F9B542F9D1009B46
:10458000002B34D1099B01461860349800F014F9CF
:10459000002C0CDD34AE012556F8041F013500F067
:1045A0000DF9AC42F8DA009B0BB100F10040099B19
:1045B00058600AF007005DB0BDE8F08F204600F0BB
:1045C000E1FB0CAB444643F82800EDE6DDE934237B
:1045D000099900F1004002F1004203F100438860B4
:1045E0000AF007000A604B605DB0BDE8F08F099AE1
:1045F00000F1004301461360349800F0DDF8002C10
:10460000C8DCD2E72B1F0293069B9B00009315E5A5
:10461000669B022B05DC002B09DC7FF439AF002000
:1046200030E7669B032B7FF433AF00207CE700204C
:10463000A5E700BFCC5C00000000C93F20F00042AD
:10464000B2F1FF4F2DE9F041044654D2002A50D078
:104650000028034657DB14F0FF4F4FEAE05009D122
:1046600014F400025BD15B001C02114602F101024E
:10467000F9D5401AC3F3160242F40002C307A0F1B1
:104680007F0558BF520000246D1052004FF0190EE4
:1046900021464FF0807C01EB0C039342DDBF03EB1E
:1046A0000C016444D31A1346BEF1010E4FEA4302D3
:1046B0004FEA5C0CEFD1BBB11A4E1B4F3068396822
:1046C000D6F8008000F078F80146404600F026FB5E
:1046D00050B130683968366800F070F801463046ED
:1046E00000F012FBB8B10234601000F17C5000EB16
:1046F000C550BDE8F081014600F068F9214600F0A0
:104700005DF8BDE8F081014600F056F8014600F082
:1047100011FABDE8F081013424F00104E4E74FF020
:10472000FF31A6E7489DFF1F4C9DFF1F2DE9F0417B
:10473000C0F3C7557F3D162D044620F0004725DC09
:10474000002D804614DB174F2F4138421BD01649ED
:1047500000F034F8002100F0F5FAA0B1002C03DAE3
:104760004FF400032B41984428EA0700BDE8F0818C
:104770000D4900F023F8002100F0E4FA18B1002CF4
:104780000CDB002000E02046BDE8F081B7F1FF4FD0
:10479000F9D3014600F012F8BDE8F081002FF2D005
:1047A0000248F1E7FFFF7F00CAF24971000080BFB5
:1047B00080F0004002E000BF81F0004142001FBFD6
:1047C0005FEA410392EA030F7FEA226C7FEA236CDF
:1047D0006AD04FEA1262D2EB1363C1BFD2184140D4
:1047E00048404140B8BF5B42192B88BF704710F06A
:1047F000004F40F4000020F07F4018BF404211F00D
:10480000004F41F4000121F07F4118BF494292EA74
:10481000030F3FD0A2F1010241FA03FC10EB0C00A0
:10482000C3F1200301FA03F100F0004302D549422D
:1048300060EB4000B0F5000F13D3B0F1807F06D3DA
:1048400040084FEA310102F10102FE2A51D2B1F1D2
:10485000004F40EBC25008BF20F0010040EA0300C7
:104860007047490040EB0000013A28BFB0F5000F47
:10487000EDD2B0FA80FCACF1080CB2EB0C0200FAFD
:104880000CF0AABF00EBC25052421843BCBFD0404C
:104890001843704792F0000F81F4000106BF80F4C6
:1048A00000000132013BB5E74FEA41037FEA226C89
:1048B00018BF7FEA236C21D092EA030F04D092F054
:1048C000000F08BF0846704790EA010F1CBF002088
:1048D000704712F07F4F04D1400028BF40F00040E5
:1048E000704712F100723CBF00F50000704700F005
:1048F000004343F0FE4040F4000070477FEA22622C
:1049000016BF08467FEA23630146420206BF5FEAFC
:10491000412390EA010F40F4800070474FF00003FC
:1049200004E000BF10F0004348BF40425FEA000CC3
:1049300008BF704743F0964301464FF000001CE06B
:1049400050EA010208BF70474FF000030AE000BFC1
:1049500050EA010208BF704711F0004302D54042FF
:1049600061EB41015FEA010C02BF84460146002071
:1049700043F0B64308BFA3F18053A3F50003BCFA8C
:104980008CF2083AA3EBC25310DB01FA02FC634439
:1049900000FA02FCC2F12002BCF1004F20FA02F240
:1049A00043EB020008BF20F00100704702F1200233
:1049B00001FA02FCC2F1200250EA4C0021FA02F294
:1049C00043EB020008BF20EADC7070474FF0FF0C99
:1049D0001CEAD0521EBF1CEAD15392EA0C0F93EA94
:1049E0000C0F6FD01A4480EA010C400218BF5FEA36
:1049F00041211ED04FF0006343EA501043EA5111A9
:104A0000A0FB01310CF00040B1F5000F3EBF4900A2
:104A100041EAD3715B0040EA010062F17F02FD2AA6
:104A20001DD8B3F1004F40EBC25008BF20F0010089
:104A3000704790F0000F0CF0004C08BF49024CEAA0
:104A4000502040EA51207F3AC2BFD2F1FF0340EA32
:104A5000C250704740F400004FF00003013A5DDCA3
:104A600012F1190FDCBF00F000407047C2F10002E4
:104A7000410021FA02F1C2F1200200FA02FC5FEAD1
:104A8000310040F1000053EA4C0308BF20EADC701B
:104A9000704792F0000F00F0004C02BF400010F48D
:104AA000000F013AF9D040EA0C0093F0000F01F03A
:104AB000004C02BF490011F4000F013BF9D041EA5C
:104AC0000C018FE70CEAD15392EA0C0F18BF93EA5E
:104AD0000C0F0AD030F0004C18BF31F0004CD8D188
:104AE00080EA010000F00040704790F0000F17BF0F
:104AF00090F0004F084691F0000F91F0004F14D055
:104B000092EA0C0F01D142020FD193EA0C0F03D1AC
:104B10004B0218BF084608D180EA010000F00040AF
:104B200040F0FE4040F40000704740F0FE4040F48A
:104B3000400070474FF0FF0C1CEAD0521EBF1CEA29
:104B4000D15392EA0C0F93EA0C0F69D0A2EB030247
:104B500080EA010C49024FEA402037D04FF08053E1
:104B600043EA111143EA10130CF000408B4238BFA6
:104B70005B0042F17D024FF4000C8B4224BF5B1AB4
:104B800040EA0C00B3EB510F24BFA3EB510340EA02
:104B90005C00B3EB910F24BFA3EB910340EA9C00B0
:104BA000B3EBD10F24BFA3EBD10340EADC001B0120
:104BB00018BF5FEA1C1CE0D1FD2A3FF650AF8B42C4
:104BC00040EBC25008BF20F0010070470CF0004CD1
:104BD0004CEA50207F32C2BFD2F1FF0340EAC250FC
:104BE000704740F400004FF00003013A37E792F0BD
:104BF000000F00F0004C02BF400010F4000F013A1B
:104C0000F9D040EA0C0093F0000F01F0004C02BF15
:104C1000490011F4000F013BF9D041EA0C0195E77E
:104C20000CEAD15392EA0C0F08D142027FF47DAF17
:104C300093EA0C0F7FF470AF084676E793EA0C0F07
:104C400004D14B023FF44CAF08466EE730F0004C05
:104C500018BF31F0004CCAD130F000427FF45CAF95
:104C600031F000437FF43CAF5FE700BF4FF0FF3C03
:104C700006E000BF4FF0010C02E000BF4FF0010C56
:104C80004DF804CD4FEA40024FEA41037FEA226C1F
:104C900018BF7FEA236C11D001B052EA530C18BF41
:104CA00090EA010F58BFB2EB030088BFC81738BFA6
:104CB0006FEAE17018BF40F0010070477FEA226C94
:104CC00002D15FEA402C05D17FEA236CE4D15FEA90
:104CD000412CE1D05DF8040B704700BF84460846C4
:104CE0006146FFE70FB5FFF7C9FF002848BF10F185
:104CF000000F0FBD4DF808EDFFF7F4FF0CBF0120CA
:104D000000205DF808FB00BF4DF808EDFFF7EAFF53
:104D100034BF012000205DF808FB00BF4DF808ED0E
:104D2000FFF7E0FF94BF012000205DF808FB00BF03
:104D30004DF808EDFFF7D2FF94BF012000205DF889
:104D400008FB00BF4DF808EDFFF7C8FF34BF012096
:104D500000205DF808FB00BF4FEA40024FEA410324
:104D60007FEA226C02D15FEA402C08D17FEA236CF3
:104D700002D15FEA412C02D14FF0000070474FF0A2
:104D8000010070474FEA4002B2F1FE4F0FD34FF0DF
:104D90009E03B3EB12620DD94FEA002343F00043A8
:104DA00010F0004F23FA02F018BF404270474FF056
:104DB0000000704712F1610F01D1420205D110F0DD
:104DC000004008BF6FF0004070474FF00000704790
:104DD000024B0146186800F003B800BF80A2FF1F15
:104DE0002DE9F04F01F10B06162E83B0044624D8AE
:104DF000102900F2BA8000F0A3FA1026182202202F
:104E0000B54F3A44A2F1080153688B4200F0BA80D2
:104E10005A68D96822F003021A449D68E9608D60DF
:104E2000516841F001012046516003F1080500F08E
:104E30008DFA284603B0BDE8F08F36F0070600F182
:104E40009480B14200F2918000F07AFAB6F5FC7FCE
:104E5000C0F09A81730A00F08F80042B00F26F81FA
:104E6000B30903F1390003F1380CC3009A4F3B44F6
:104E7000A3F108055B689D4206D10CE0002980F291
:104E80002781DB689D4206D05A6822F00302911BFD
:104E90000F29F3DD60463D69DFF840C265457CD0EF
:104EA0006A6822F00302931B0F2B00F37B81002B17
:104EB000C7E904CC80F26C81B2F5007F80F01A81E2
:104EC000D308796801334FEA521E012202FA0EF22A
:104ED0000A4357F833E0C5F808E007EBC301083987
:104EE000E9607A6047F83350CEF80C508310012106
:104EF0009940914257D8114206D120F00300490051
:104F0000114200F10400FAD007EBC0094D46864675
:104F1000D5F80C80454508D11DE1002B80F2248195
:104F2000D8F80C80454500F01681D8F8042022F00E
:104F30000302931B0F2BF0DD2046D8E9025408EB47
:104F4000060146F00106C8F80460EC60A56043F075
:104F50000104C7E90411C1E902CC4C6048F80230F1
:104F600000F0F4F908F1080502E00C2323600025A5
:104F7000284603B0BDE8F08F4FF4007340204FF097
:104F80003F0C73E7D3689A4208BF02307FF440AF0A
:104F90003D69DFF848C1654582D17A6883100121F7
:104FA00099409142A7D9BD686B6823F003094E452B
:104FB00003D8A9EB06030F2B7ADCDFF824B1494BA9
:104FC000DBF800201B680132334405EB090A00F0CE
:104FD000338103F580530F3323F47F6828F00F08E3
:104FE0004146204600F010FA411C024600F0F380D2
:104FF000824500F2EE803C4B196841441960084636
:1050000000F04E81DBF80010019301311BBFA2EBD1
:105010000A010918CBF80020196012F0070B00F004
:105020001781CBF108010A44CBF580519044083137
:10503000A1EB0801C1F30B0A51462046009200F093
:10504000E3F9421CDDE9002300F04F81801A00EBF8
:105050000A081968BA6048F001005144BD42506026
:10506000196000F02981B9F10F0F40F227816868BB
:10507000A9F10C0C2CF0070C00F0010040EA0C0028
:1050800068604FF0050E05EB0C00BCF10F0FC0E996
:1050900001EE00F2328150681546144B1A688A42BC
:1050A00038BF1960124B1A688A4238BF196094E001
:1050B000AA1943F0010346F001066E602046BA606B
:1050C000536000F043F90835284603B0BDE8F08F7F
:1050D000D9681A44A1E600BF509DFF1F589DFF1FCD
:1050E00058A1FF1F50D7FF1F20D7FF1F48D7FF1F12
:1050F0004CD7FF1FB2F5206F4FEA522363D3142B16
:1051000000F2B78003F15C01C9005B3307EB010ECD
:105110007958AEF1080E8E4500F091804B6823F06F
:105120000303934202D989688E45F7D1D1F80CE088
:105130007A68C5E9021ECEF80850CD60D6E6142B79
:1051400059D9542B00F29D80330B03F16F0003F10A
:105150006E0CC3008AE60EF1010E1EF0030F05F17E
:1051600008057FF4D5AE51E0424445465368D8F86F
:105170000C1043F00103536055F8083F2046D960F6
:105180008B6000F0E3F8F3E6F00806F1080237E67A
:105190002A442046536843F001035360083500F069
:1051A000D5F8E5E6A919204646F0010643F00104CA
:1051B0006E60C7E90411C1E902CC4C60AB5000F04D
:1051C000C5F80835D4E6930903F13901C90038332D
:1051D0009CE7BD425FD0BD68686820F00308464583
:1051E000A8EB060302D80F2B3FF762AF204600F072
:1051F000ADF80025BCE603F15C0003F15B0CC300D5
:1052000034E659F808394B4540F0968010F0030F0A
:1052100000F1FF30F5D17B6823EA01037B60490090
:1052200099423FF6C0AE19B9BDE649000EF1040E31
:105230001942FAD0704667E603F11008D0E69A10DA
:105240004FF001087B6808FA02F21A437A6070E7AF
:1052500002EB08014942C1F30B0A51462046009275
:1052600000F0D2F8431CDDE900237FF4EFAEDA460C
:10527000EFE6542B25D8130B03F16F01C9006E33F1
:1052800044E7B3F5AA7F25D8F30B03F1780003F1C7
:10529000770CC300EAE5294B186840441860B1E672
:1052A000CAF30B0CBCF1000F7FF4ACAEBD68C84470
:1052B00048F001006860F0E61546EEE60123536011
:1052C00094E7B3F5AA7F23D8D30B03F17801C90083
:1052D00077331BE740F25452934223D8B30C03F1C7
:1052E0007D0003F17C0CC300C0E5ABF1080BD84492
:1052F000A8EB02084FF0000AABE605F108012046D2
:10530000009300F065F9BD68009B68681968C4E601
:1053100040F254518B420BD8930C03F17D01C9002C
:105320007C33F3E64FF47E737F204FF07E0C9DE5D7
:105330004FF47E717E23E9E67B6870E720D7FF1F7C
:10534000014800F09DB800BF90D8FF1F014800F051
:1053500099B800BF90D8FF1F830730B548D0541EBE
:10536000002A3FD0CAB2034601E0013C3AD303F819
:10537000012B9D07F9D1032C2DD9CDB245EA052586
:105380000F2C45EA054536D9A4F1100222F00F0C86
:1053900003F1200EE6444FEA121C03F1100242E929
:1053A000045542E9025510327245F8D10CF1010260
:1053B00014F00C0F03EB021204F00F0C13D0ACF13D
:1053C000040323F003030433134442F8045B9342C1
:1053D000FBD10CF003042CB1C9B21C4403F8011B2F
:1053E0009C42FBD130BD64461346002CF4D1F9E752
:1053F00003461446BFE71A46A446E0E713460A46AA
:105400000146022000F040B838B5074D002204469E
:1054100008462A60FCF798FB431C00D038BD2B6877
:10542000002BFBD0236038BD28DAFF1F014B186822
:10543000704700BF80A2FF1F70B50D4E0D4D761B4B
:10544000B61006D0002455F8043B01349847A64214
:10545000F9D1094E094D761B00F054FCB61006D068
:10546000002455F8043B01349847A642F9D170BD99
:10547000105D0000105D0000245D0000105D000064
:10548000704700BF704700BF2DE9F047DFF874A0F8
:105490000646DAF8000098460F469146FFF7F0FFFF
:1054A000194B1C6824B365681F2D24DC5EB96B1C86
:1054B0000235DAF80000636044F82570FFF7E2FF78
:1054C0000020BDE8F08704EB85010123C1F8889036
:1054D000D4F88821AB401A43022EC4F88821C1F8C1
:1054E0000881E4D1D4F88C211A43C4F88C21DEE77A
:1054F000064C1C60D7E7DAF80000FFF7C3FF4FF057
:10550000FF30DEE784A2FF1F24DAFF1F94D8FF1FBD
:10551000024B13B1024800F005B8704700000000CC
:10552000DD570000002301461A461846FFF7ACBFBE
:10553000F8B5244F0C460646FFF702FFBB685D68CE
:10554000C4F57E610F3125F003054B1923F47F6309
:1055500023F00F03A3F58054B4F5805F07DB00212F
:105560003046FFF751FFBB682B44984204D03046C9
:10557000FFF7ECFE0020F8BD61423046FFF744FF24
:1055800001300DD0104ABB682D1B45F001055D6050
:10559000136830461B1B1360FFF7D8FE0120F8BDCF
:1055A00000213046FFF730FFBA68831A0F2BDEDD8B
:1055B00043F001035360054B03491B68C01A0860A0
:1055C000D5E700BF509DFF1F20D7FF1F58A1FF1F29
:1055D000002961D0F8B50C460646FFF7B1FE54F835
:1055E000042C7B4FA4F1080522F0010105EB010C0E
:1055F000B868DCF80430604523F0030300F08B80CA
:10560000D207CCF8043032D454F8082CAD1A114427
:10561000AA6807F1080082426AD00CEB0304D4F8B0
:1056200004E0EC68D4601EF0010FA26000F09780E7
:1056300041F001036B60CCF80010B1F5007F35D26A
:105640007868CB080122490901338A40024357F8A0
:1056500033107A6007EBC302083AC5E9021247F833
:105660003350CD603046BDE8F840FFF76FBE0CEB1D
:1056700003025268D00710D4194407F10800DCF87F
:105680000830834273D0DCF80C20DA60936041F07C
:1056900001036B606950D0E7704741F00103B1F539
:1056A000007F44F8043CCCF80010C9D3B1F5206F5A
:1056B0004FEA512348D28B0903F1390003F1380234
:1056C000C300F818FB580838984259D05A6822F09D
:1056D00003028A4202D99B689842F7D1D868C5E98B
:1056E00002308560DD603046BDE8F840FFF72EBE31
:1056F0000CEB03025268D20763D40B44DCE90212BC
:10570000CA60916043F001026A603046EB50BDE828
:10571000F840FFF71BBE0B44D10707D454F8082C00
:10572000AD1A1344D5E90212CA60916043F0010238
:105730006A60284ABD6012689A4293D8264B304668
:105740001968FFF7F5FE8DE7142B0AD9542B1FD8E3
:105750000B0B03F16F0003F16E02C300B1E71944B4
:105760008DE703F15C0003F15B02C300A9E741F0A0
:105770000103C7E90455C5E902006B60695071E790
:1057800079689210012404FA02F20A437A60A6E7CB
:10579000B3F5AA7F06D8CB0B03F1780003F17702AB
:1057A000C3008EE740F25452934206D88B0C03F1AB
:1057B0007D0003F17C02C30083E74FF47E737E22F9
:1057C0007FE741F001036B60CCF800104AE700BFAF
:1057D000509DFF1F5CA1FF1F50D7FF1F38B5074D1D
:1057E000074C2C1BA41005D0013C55F8043D9847EC
:1057F000002CF9D1BDE8384000F094BA0000000058
:1058000000000000617564696F736869656C64000D
:105810000000000000000000751B000000000000F8
:1058200000000000590400000000DC425CCF02438D
:105830005CCF2443000044433333B33E295C8F3EA6
:1058400000000000000020406666663F0000000087
:10585000000000009D0F0000B9110000BD11000004
:10586000C5110000CD110000811700008517000050
:10587000891700008D17000000FFFFFF00010000E6
:10588000D89CFF1F1200000000020000409CFF1F78
:105890009500000005030904089DFF1F000000009B
:1058A00000030000EC9CFF1F00000000010309043E
:1058B000F09CFF1F0000000002030904189DFF1F59
:1058C0000000000003030904309DFF1F00000000DA
:1058D0000000000000000000000000001519151570
:1058E00019FFFFFFDB0F49BFE4CB1640E4CB16C026
:1058F00000000080DB0F4940DB0F49C00000003F83
:10590000000000BF8071313F807131BFD1F7173780
:10591000D1F717B7000FC93F000F494000CB9640A1
:10592000000FC9400053FB4000CB164100ED2F4152
:10593000000F49410031624100537B41003A8A41E6
:1059400000CB9641005CA34100EDAF41007EBC411D
:10595000000FC94100A0D5410031E24100C2EE4133
:105960000053FB4100F20342003A0A420083104216
:1059700000CB164200141D42005C234200A52942C0
:1059800000ED2F4200363642007E3C4200C74242C4
:10599000000F4942A2000000F9000000830000004F
:1059A0006E0000004E0000004400000015000000E2
:1059B00029000000FC000000270000005700000044
:1059C000D1000000F500000034000000DD00000000
:1059D000C0000000DB000000620000009500000035
:1059E000990000003C00000043000000900000000F
:1059F00041000000FE0000005100000063000000B4
:105A0000AB000000DE000000BB000000C50000008D
:105A100061000000B7000000240000006E000000DC
:105A20003A000000420000004D000000D2000000DB
:105A3000E000000006000000490000002E00000009
:105A4000EA00000009000000D10000009200000000
:105A50001C000000FE0000001D000000EB00000024
:105A60001C000000B100000029000000A700000099
:105A70003E000000E8000000820000003500000049
:105A8000F50000002E000000BB00000044000000F4
:105A900084000000E90000009C000000700000008D
:105AA00026000000B40000005F0000007E0000003F
:105AB000410000003900000091000000D600000005
:105AC000390000008300000053000000390000008E
:105AD000F40000009C000000840000005F00000053
