:1000000000000320D1010000351B0000F11A0000A0
:10001000F11A0000F11A0000F11A0000F11A0000B4
:10002000F11A0000F11A0000F11A0000351B00005F
:10003000351B0000F11A00002D29000031290000B5
:10004000351B0000351B0000351B0000351B000070
:10005000351B0000351B0000351B0000351B000060
:10006000351B0000351B0000351B0000351B000050
:10007000351B0000351B0000351B0000351B000040
:10008000351B0000351B0000351B0000351B000030
:10009000351B0000351B0000351B0000351B000020
:1000A000351B0000351B0000351B0000351B000010
:1000B000351B0000351B0000351B0000351B000000
:1000C000351B0000351B0000351B0000351B0000F0
:1000D000351B0000351B0000351B0000351B0000E0
:1000E000351B0000351B0000351B0000351B0000D0
:1000F000351B0000351B0000351B0000351B0000C0
:100100008D180000A9180000C5180000E1180000B3
:10011000351B0000991E0000351B0000351B000038
:10012000351B0000351B0000351B0000351B00008F
:10013000351B0000351B0000351B0000351B00007F
:100140000D160000351B0000351B0000351B00009C
:10015000351B0000351B0000351B0000351B00005F
:10016000351B0000351B0000351B0000351B00004F
:10017000351B0000351B0000351B0000351B00003F
:10018000351B0000351B0000351B0000351B00002F
:10019000351B0000351B0000351B0000351B00001F
:1001A000351B0000351B0000351B0000351B00000F
:1001B000351B0000351B0000351B0000351B0000FF
:1001C000351B0000351B0000351B0000351B0000EF
:1001D0005F4B4CF2205210B5DA814DF62812DA81CD
:1001E00000BF00BF01F0AAFC5A4B4FF030621A6307
:1001F000594A9A63594ADA634FF0E0234FF4700288
:10020000C3F8882D03F5E823554A1A60554B9A78B0
:10021000110703D59A7842F008029A70524B53485E
:10022000AA221A70524BDA1C121AC11E22F00302C3
:10023000994288BF00224F4901F086FB4E4B4F4840
:10024000DA1C121AC11E22F00302994288BF002252
:10025000002104F0F9FB4A494A484FF4E87201F0E2
:1002600073FB494B494A802103F8011B9342FBD1A0
:100270004FF0E023434AC3F8082D454B8A221A70F9
:10028000A3F5805324225A70A0221A709A799207FB
:10029000FCD59A79D406FCD43E4A937903F00C033A
:1002A000082BFAD1304B60225A70DA78802AFCD1C0
:1002B000384B01221A715D225A719A799006FCD549
:1002C0009A795106FCD5234A33495164002191643F
:1002D000202119702F498B7903F00C030C2BFAD1D4
:1002E0002E4B53602E4A136913F4807303D153616C
:1002F0004FF4A85313614FF0E0232A4A5A610022B9
:100300009A6107221A61284AC3F8202D62B601F0CB
:1003100073FC234B5B69DA0705D5244801F060FCC8
:10032000234B244ADA61244B1B785B0609D5204C09
:10033000204BE2699A4204D11C4801F051FC002391
:10034000E36101F001FC04F0EFFB01F0F5FAFEE7D8
:100350000020054000800440823F04000100002B83
:100360000300008500D0074000E00740401EFF1F4B
:100370009024FF1F20540000F8F300209024FF1F5A
:10038000000000000014FF1F00E400E064E400E04F
:10039000005006400040064000000602C010070062
:1003A00000D003401FBF02000000202027DB7F6A2F
:1003B00000E00340A5C3945A00F00740FFFFFFFF91
:1003C000FFFFFFFFFFFFFFFFFFFFFFFFFFFFFFFF3D
:1003D000FFFFFFFFFFFFFFFFFFFFFFFFFFFFFFFF2D
:1003E000FFFFFFFFFFFFFFFFFFFFFFFFFFFFFFFF1D
:1003F000FFFFFFFFFFFFFFFFFFFFFFFFFFFFFFFF0D
:10040000FFFFFFFFFFFFFFFFFFFFFFFFDEF9FFFF23
:100410000548064B1B1AD90F01EBA301491002D066
:10042000034B03B1184770479024FF1F9024FF1F10
:100430000000000008B5054B1BB105490548AFF3A6
:100440000080BDE80840FFF7E3BF00BF00000000E8
:100450009024FF1F185400002DE9F04F85B0029042
:1004600000F026FF0190002800F0798100F020FFC5
:100470000390002800F076814FF400720021BC4800
:1004800004F0E2FA4FF400720021BA4804F0DCFAFA
:10049000029BDFEDB91AD3F818E09FEDB81AB849FE
:1004A0007046B7EE002AF0EE042A0EF5E2424FF055
:1004B000000C92F82930002B00F0DC80476B90EDA7
:1004C0000B4A046BAA4DAB4E009741F64643B0EE83
:1004D000003AF6EE004AF7EE083A03FB0CF89BE010
:1004E00090ED0E7AF8EE476AF4EEE67AF1EE10FA45
:1004F00000F3AB80BDEEE77AF8EEC76A17EE109A0C
:1005000077EEE66AC36B013BA3EB090313F1010924
:1005100044BF476BB94404EB8909002BD9ED005A5D
:10052000C0F2878004EB830999ED006A03F1FF397B
:10053000002B00F01981023BB0EE657A48BF476B93
:10054000A6EE627A04EB890948BFDB19D9ED007A7F
:10055000176804EB8303D3ED000A536836EE675A3D
:10056000A7EE837ABB4230EEE50A25EE235AA0EED1
:10057000E47AA0EE245A77EEE55AA5EE267A92EDBB
:10058000050AD2ED047AD2ED030A92ED065A27EE5F
:10059000267A67EE807AA5EEA47AA7EE266AE0EEC8
:1005A000867AC2ED057A67EE857A0BDA08EB030AE4
:1005B000013353600AF676130EEB830393ED027A50
:1005C00077EE877AD0F83C90009F09F10103BB4297
:1005D00008BF002304EB8909C9ED007AC36395EDD8
:1005E000006AD6ED006AA4EE276AE4EE276AA5EC5D
:1005F000016AE6EC016AB0EEE77AD2ED087AB4EE71
:10060000E77AF1EE10FADCBF92ED097A27EE877AED
:10061000A94282ED087A21D0D2ED027AF4EEC27AB4
:10062000F1EE10FABFF65CAFF0EE616A4FF001092F
:1006300068E7D0F834B003EB0B0A03F1FF3904EBA1
:100640008A0A9AED006AD94475E7FDEEE67A17EE5C
:10065000909AF8EEE77A76EEE76A53E7B4EEC17A5D
:10066000F1EE10FA06D5D2E900349C42A4BF002373
:1006700082F829300CF1010C47F21813BCF1040F79
:1006800018441A447FF415AF039B394A9FED3D6A25
:10069000384D3D4E9C1C019BBFEE007AF7EE006A80
:1006A000981C0FE0F4EEE67AF1EE10FA50DC67EEFB
:1006B000867AFDEEE77A17EE903A1BB28A4224F86A
:1006C000023F2AD0F2EC017AF4EE677AF1EE10FAEA
:1006D00043D6F4EEC77AF1EE10FA34DBF4EEE67AA4
:1006E000F1EE10FA31DC67EE867AFDEEE77A17EE6E
:1006F000903A1BB2F5EC017A20F8023FF4EE677AEB
:10070000F1EE10FA27D6F4EEC77AF1EE10FAC9DA54
:1007100033468A4224F8023FD4D1019E029D002232
:100720003146284600F044FE039C0122214628461B
:1007300000F03EFE304600F011FE204605B0BDE858
:10074000F04F00F00BBE3346D4E747F6FF73D1E716
:1007500047F6FF73B2E70023B0E70023CAE705B00E
:10076000BDE8F08F0198E9E7D0F834B0D944E2E66B
:10077000A826FF1FA824FF1F0000000017B7D138CC
:10078000A828FF1F00FEFF460180FFFF2DE9F04F64
:100790002DED068B534887B075220146002301E0FA
:1007A00011F8012F0133002AFAD14F4A4F4C5A4019
:1007B0007521612302E00B4610F8011F5A4004FB2B
:1007C00002F24FEAF2420029F5D1494C494B4A4F17
:1007D000DFF84C919FED49AA494EDFED4A9A9FED13
:1007E0004A9ADFED4A8A9FED4A8A82EA124202FB68
:1007F00004F484EA543403FB04F40FCF0DF1040C29
:10080000ACE80F0084EA144404F1DA4404F52D1432
:100810003B68CCF8003004F567543534C84609F11C
:10082000400544F0010284EAD43302FB03F3394A61
:10083000049243F03D0183EAD31201FB023253409C
:1008400083EA93338DED019ACDED028A0DF1040E0A
:10085000C9F8004048F8043FBEE80F00A5F1240C99
:1008600045ED0B9A45F8288CACE80F0040F6681B64
:10087000DEF80030CCF8003040F6641A2F4645F818
:100880000CBC45F808AC45F8105CA7EC018ABE42E8
:10089000FBD155ED0B7A67EE8A7A0023BFEE000A92
:1008A00045F8043C80EE270A02F022F905F5E14301
:1008B00004F1DA4404F52D1404F56754353483ED5E
:1008C000190A47F218131D441E44134B4345A8D17F
:1008D00012480C2107B0BDEC068BBDE8F04F00F0CC
:1008E00075BC00BFF54E000067E6096A512D9ECC2D
:1008F0006BCAEB8535AEB2C2284F0000CDCC4C3D63
:10090000C44EFF1FA6552C479A99993EAE47613EAB
:100910000000000000004040F428FF1F0002FF1FFD
:10092000E428FF1F2DE9F0479FEDE47A2DED088BB9
:10093000D0ED008A88EE87AA0446F3EE047AB4EE7E
:10094000E7AAF1EE10FAD8BFB0EE67AAB4EECA0A71
:10095000F1EE10FAB0EE608A0ADDB4EE00AA28EEDD
:100960008AAAB4EEC0AAF1EE10FA58BFB0EE40AABF
:10097000226A04F5E04540F2011385ED42AAA5F88C
:10098000143142B1E0699200002104F05DF8D4ED29
:10099000008A95ED42AADFEDCA7AD4ED020AF4EEA0
:1009A000E70A0023F1EE10FAA362C8EE8A9AC5EDB9
:1009B000407A00F17581F7EE007AF4EE670AF1EE05
:1009C00010FAC8BFF0EE670A9FEDBE0A02F0CCF83D
:1009D0009FEDBD7ADFEDBD7A20EE070A68EEA77ABB
:1009E0009FEDBB7AB4EE670AF1EE10FAC8BFB0EE25
:1009F000670A20EE070AB7EE009A80EE280A02F096
:100A000077F8DFEDB47A6AEE277A39EE400AC7EE5E
:100A1000A8AA39EE40BA85ED3E0A85ED3FBAB0EEA0
:100A20006A0A02F045F9F0EE408AB0EE6A0A02F076
:100A300007F96BEE288AF0EE407AF0EE490AEBEE09
:100A4000670AB0EE680A02F051F8C0EE2A6A79EE41
:100A5000C97A9FEDA17A77EEE67AF4EE497AF1EE63
:100A600010FA48BFF0EE497AC5ED3D7AD4ED050A9B
:100A7000F4EEC70AF1EE10FA00F19F80F3EE047A6B
:100A8000F4EE670AF1EE10FAC8BFF0EE670A60EE06
:100A90008A0AF8EE087AC7EEA00AB2EE040A02F05B
:100AA00063F8F6EE007A79EEA77A41F2C823FDEEFC
:100AB000E77AD4ED046A85ED410A17EE90EA9E4587
:100AC000A8BF9E46BEF1020FF5EEC06AB8BF4FF058
:100AD000020EF1EE10FA00F1E680F7EE007AF4EE85
:100AE000E76AF1EE10FA6BDD9FED754AF0EE676A8A
:100AF000B5EEC08AF1EE10FA69D4F7EE007AB4EEE2
:100B0000E78AF1EE10FA40F3D3809FED748AD4F8AF
:100B10000480734FD8F800209FED725ADFED724ABF
:100B20009FED723ADFED663A04F517560C36F0EE9B
:100B3000005ABFEE006A3A4430464FF0010C0021E3
:100B400016E0012914BFF0EE637AF0EE437A66EE08
:100B5000A77AE64567EEA47AE7EE047A67EE887A2C
:100B6000C0ED007A36DD01313A440CF1010C04305D
:100B700042F0010982EAD23309FB03F383EAD31975
:100B800043F03D0A0AFB093983EA090383EA9333F8
:100B900007EE903AF8EE677AB0EE467A67EE857A1D
:100BA000A7EEA57A0029CCD166EEA47AE7EE047A06
:100BB00067EE887AC0ED007AD5E7F0EE470A66E77F
:100BC000B5EEC08AF1EE10FA37EEE64A95D59FED04
:100BD0003C8A9CE794ED037AC8F8002001F6721174
:100BE000B5EEC07A04EB8101F1EE10FAC1ED017AA5
:100BF00053D4DFED3F7AB4EE677AF1EE10FAC8BF56
:100C0000B0EE677AF6EE007AE7EE297AFDEEE77A43
:100C100017EE907A002F3EDD0EEB070841F2C82355
:100C20009845A8BF9846F04509DDA8EB0E020EF6E0
:100C30007310920004EB8000002103F005FFB8451B
:100C400015DD06EB8706C7F517670337474408F637
:100C5000731204EB870304EB820474ED017A33ED25
:100C6000017A77EEC77AB442C4ED007AF5D1DFEDB0
:100C7000217AC5F8EC80B4EEE78AF1EE10FAD8BF1D
:100C8000B0EE678A85ED438ABDEC088B0023C5F87A
:100C9000F030BDE8F087F046E9E79FED097AB1E76B
:100CA000F0EE670A90E6DFED066AB7EE004A1FE74E
:100CB000DFED0A7A28EE278A29E700BF00001645F3
:100CC00000000000610B363D00A08C466666E63EE3
:100CD000DB0FC9C0DB0FC940CDCC4C3D9A99193F01
:100CE000F5792B6D0000802FCDCCCC3FCDCCCC3E08
:100CF0003333733F0AD7233C10B50F4C0F49236899
:100D0000DFED0F0A584200F0030003F0030258BF62
:100D1000424201EB820191ED000A0A4947F21810A4
:100D2000013300FB02102360FFF7FCFDBDE810401B
:100D30004FF4C87000F0DCBF80ED0020184F0000B9
:100D4000CDCC4C3FF828FF1F70B54F4D4F4A504E49
:100D50009FED505ADFED505A9FED506ADFED506A1B
:100D60009FED507A2846002140F8041B696082B04C
:100D700041608160C1602B460020F0EE047A4FF0A4
:100D8000804E47F2181483ED055A9961C3ED075A56
:100D900083ED086A5862C3ED0A7AC3ED0B6A1963E2
:100DA00059639963D96323444FF07E5CB34242F8A0
:100DB0002C1C42F8281C42F824EC42F81C0C42F887
:100DC000180C42F8140C02ED047A42F80C0C42F8AC
:100DD000080C02F8041C02F8031C42F820CC224440
:100DE000CFD1314B314A1C683148106011611181FB
:100DF000D160002C44D0234619465B69002BFBD1FF
:100E00004A612C4B13602C4B95610021516151605C
:100E10009172022003F1180258721A611972D96096
:100E20009961D96122466469002CFBD15361234A40
:100E30005C615C609C721A601F4800F001F92048F8
:100E400000F0E6FA1C4B1949009422461C4800F0B9
:100E500053FB1C4A1C491A4801F042FE1B4800F093
:100E6000D7FA012200921149134B184800F044FBB5
:100E7000144A1549154802B0BDE8704001F030BE73
:100E80001A601446BDE700BFE428FF1F109AFF1F39
:100E900044ED002000803B473333B33E295C8F3E56
:100EA0006666663F0000DC43ACEE0020C828FF1FEA
:100EB000084F0000144F0000A828FF1F444F0000F7
:100EC00058ED0020401EFF1FAD1500006CED002006
:100ED00038B50021044600F08FFA0121054620466E
:100EE00000F08AFA044672B645B1144A1368EBB1B1
:100EF000134801680560F9B111601D4644B1114AFB
:100F0000136883B110480168046099B111601C46F0
:100F100062B615B1284600F021FA54B12046BDE86A
:100F2000384000F01BBA14601C46F1E715601D46FE
:100F3000E4E738BD0C46EBE70D46DFE788EE00201E
:100F40008CEE002090EE002094EE00202DE9F0477A
:100F50002F4A30481168304B127909682F4FC277F9
:100F6000994238682E4D33BF1A46A3F500729E464B
:100F700002F5007E002848D02A4E294B3468002C08
:100F800008BF1C4600F1040C211D51F8043B5CF81D
:100F9000048B1FFA83F909F500491FFA88FA4FEA12
:100FA00019190AF5004A1B0C4FEA094903F50043D9
:100FB00049EA1A1942F8089B4FEA18481B0908F534
:100FC00000481B0443EA1813964542F8043CDCD859
:100FD000A84206D000F0C2F9134B0022196839600C
:100FE0001A60AC4207D0204600F0B8F90F4B00223F
:100FF000196831601A600E4B1B7823B14FF0E02363
:101000000122C3F80822BDE8F0872846B4E700BFF4
:101010009CEE0020008000404010FF1F88EE002062
:1010200084ED002090EE00208CEE002094EE002055
:1010300098EE002010B5044600F086FB204610BD57
:1010400070B54448444E454D012100F01BFB444916
:101050004448CB6A802243F44053CB6286F8212077
:10106000002185F821204FF4827203F0EDFC00246A
:10107000348001202C80083400F03AFEA2B240F601
:1010800008039A4224B2F3D1354BDB6B5E0205D5DF
:10109000354A116848F6A2738B434CD03049324B25
:1010A000CA6B324842F480020124CA63DC6048F60D
:1010B000A37140F24F5440F201125C601960186055
:1010C0001A61244C2A4923682A4A19605A602A481E
:1010D000227998602948D8601F4818614FF48071C0
:1010E0004FF4805002F18042D9829882D98302F570
:1010F0000432A0F540500621998398610021B02365
:101100001170137000F06CFA22791D491D4C5311B7
:10111000207003F13823CA7602F110001A491B4CE3
:1011200041F8204040339B0002F01F02012101FAE8
:1011300002F21A6070BD516840F24F539942ADD12E
:10114000D368012BAAD1126940F201139A42A5D1AA
:10115000B7E700BF9CEE002000C00C4000D00C4060
:101160000080044084ED002000600340A28F010055
:10117000400EFF1F040001020400807F00FCFFFFFF
:101180000080004098EE00200014FF1F4D0F00006B
:10119000024A0349034801F0A3BC00BF401EFF1FE1
:1011A000351000009CEE00204FF0E0230122C3F830
:1011B00008227047036818470B680360704700BF38
:1011C0000B680360704700BF704700BFF0B5B1F512
:1011D000607F8DB00E460F4628BF4FF460760546FF
:1011E00072B62B4B002418602A4B2B481C807022AF
:1011F000214603F029FCC7B1274821464FF0010CD6
:101200004A0901F01F0350F822400CFA03F30131A0
:1012100023438E4240F82230F2D8284600234380F0
:1012200001339E4200F58270F9D81C4C257815B127
:1012300062B60DB0F0BD082000F0D0FC184B056080
:101240008022027106460093069302A9154B029371
:1012500008A8FFF7B1FF144A06A9304600F0A8FA23
:10126000069B08A8DB689847009B02A8DB689847A4
:101270002378002BDCD10D494FF0E0220123D02050
:1012800081F84000C2F80831237062B60DB0F0BD9D
:10129000A4EE0020B8EE0020BCEE0020B4EE00204A
:1012A000484F0000A9110000FFA7020000E400E081
:1012B00030B472B6244D254C2A8804F1700104EB39
:1012C00082038B423CD204F16F01C91A501C00EB1F
:1012D000910002E00132824232D09C4653F8041B56
:1012E0000029F7D0B1FA81F04FF00043C34021EA62
:1012F0000301CCF8001001B90132154B2A801A887D
:10130000013291B2198062B6ACEB040C4FEAAC0C1E
:10131000C0EB00640CEB8C1C41F67C73C0EB8410BA
:1013200003EBCC1303EB80030A4800680124C45488
:101330001844094B1C88944238BF198030BC704750
:1013400062B6002030BC7047B8EE0020BCEE002032
:10135000A8EE0020A4EE0020B0EE0020428872B675
:101360000378012B03D9013B037062B67047510922
:101370000C48D24302F01F024FF0004310B4D34098
:10138000094C50F821201343228840F821308A422A
:10139000064A88BF21801388013B138062B65DF83E
:1013A000044B7047BCEE0020B8EE0020A8EE0020F1
:1013B000C36813B91DE0DB68E3B1187A9042FAD133
:1013C00010B4586893F809C0006950F82C4054B123
:1013D000DB682BB1187A9042F3D0DB68002BF9D18F
:1013E0005DF8044B704740F82C1008780130087005
:1013F000EEE77047704700BF437A8B4206D9036916
:10140000002253F8210043F8212070470020704744
:101410000449002202604260028102740A68C260CC
:10142000086070472CEF0020037CFBB9036801467D
:10143000FBB14368EBB1427A5B7A9A421CD230B47A
:1014400072B62B4B1C68ECB1E368C3B1486801E08D
:10145000DB68A3B15A688242FAD193F809C04A7A8C
:101460009445F5D162B6042030BC7047012062B6C5
:101470007047032062B67047022062B67047646905
:10148000002CE1D11B4C236843B1994202D10BE0FF
:10149000994207D01A46DB68002BF9D1052062B6C5
:1014A00030BC704702F10C040D68E868E8B1C3680D
:1014B00023B908E0DA68184632B113468142F9D1FF
:1014C00062B60620D0E70346D960CB6823600020CF
:1014D000C860AA7A01231A44AA724A682B72947AC5
:1014E00013721C4494720B74D9E7E960EDE700BFF6
:1014F000ACEE00202CEF002010B5047C9DF808E035
:101500000CB1012010BD027280F809E0BDE8104066
:10151000C0E90013FFF788BF037C002B37D010B55C
:101520004368427A5B7A9A42044638D272B60168BE
:10153000CB68002B2DD0984233D01A46DB689C42F2
:101540002AD0002BF9D16268607A136953F8200021
:1015500048B1FFF703FF72B66268617A1369002031
:1015600043F8210021688B7A013BDBB28B7203B90F
:101570000B72937A013BDBB2937203B913720A4B7D
:1015800000201A682074E2601C6062B610BD012061
:10159000704762B6032010BDE368D360D3E7022032
:1015A00010BDC368CB60CEE72CEF002010B5044619
:1015B000FFF7B2FF094A136843B19C4202D108E029
:1015C0009C4205D01A46DB68002BF9D1204610BD9D
:1015D0000C32E3681360204610BD00BF2CEF0020E2
:1015E000084B1A7862B908484FF0E02101224FF009
:1015F000D00C80F840C0C1F8082110461A7070471E
:1016000000207047B4EE002000E400E04FF0E0223C
:10161000F8B5D2F8FC3D174D174943F08073C2F876
:10162000FC3D2B680C6843F001032B606E689CB195
:10163000237A20466BB123686F681B6898476B68F4
:10164000E188DB1BC3F30F12B1EB131FA28038BF7D
:10165000E2806469002CEBD1064B084A5B68108875
:10166000074C9B1BC3F30F11B0EB131F218038BF36
:101670001180F8BD001000E0ACEE0020B6EE0020B6
:10168000B2EE002010B472B621B9026812B103792B
:101690000F2B44D92A4C2188002341FA03F212F07F
:1016A000010209D00133102BF7D162B6002202608B
:1016B00003715DF8044B70474FF0010C0CFA03FC0A
:1016C00041EA0C01218062B61E495FFA83FC80F872
:1016D00004C00C6C44F002040C64CC6B44F00204B3
:1016E000CC6303F10073A1F5802140F2824403F53D
:1016F00090630C605B0181F81AC081F81EC081F80C
:1017000018C081F81FC05DF8044B0360C3E90022D4
:10171000C3E90222C3E90422C3E906227047084C48
:10172000218841FA03FC1CF0010FB5D003F10073CE
:1017300003F59063B2EB431FAED162B6B9E700BFC9
:1017400030EF00200080044003790F2B11D8094AA4
:10175000937672B6084990F804C00B88012202FA09
:101760000CF223EA02030B8062B6102200230271FE
:10177000036070470080004030EF0020704700BFDA
:10178000704700BF704700BF704700BF704700BF81
:1017900038B5064CA4F1600554F8083C2046DB68D7
:1017A000183C9847AC42F7D138BD00BF88EF002005
:1017B0002DE9F041036888B004461746002B3DD060
:1017C00000229A600122DA60294DDFF8BC801D44B6
:1017D0002D1151F8083B029305EB4506F60004A8CD
:1017E0005B68984758F8063006F108004044DB680B
:1017F00001909847029B1F4A029204A9019848F859
:1018000006309B689847029B04A8DB6898472368CA
:1018100019491F6003229A6005F13002531103F148
:10182000382320796854403301209B0002F01F02C6
:1018300000FA02F21A6008B0BDE8F0810F4AD36BDB
:1018400043F40003D36300BF0D4B01221A6003F57C
:1018500080730C4A036098680028B5D01033934217
:101860002360F8D10020206008B0BDE8F08100BFFF
:10187000008FFCBF584F000030E400E000800440BF
:10188000007003404071034038EF00200448054ACF
:1018900050F8083B01211B68C2F80C11184700BF23
:1018A00038EF0020007003400448054A8369012195
:1018B0001B68C2F81C112030184700BF38EF002009
:1018C000007003400448054A036B01211B68C2F8FD
:1018D0002C113830184700BF38EF0020007003404B
:1018E0000448054A836C01211B68C2F83C11503042
:1018F000184700BF38EF002000700340094B0A482A
:101900000A4A0B4910B40B4C1C6098609C61186229
:101910001C6398639C6418655DF8044B002001F01B
:10192000DFB800BF38EF00207D170000401EFF1F0A
:1019300091170000484F000008B5FEF727FFFFF79A
:10194000DBF900F059FFFAE701B441EA000313F0B4
:1019500003036FD1403A41D351F8043B40F8043BB4
:1019600051F8043B40F8043B51F8043B40F8043B79
:1019700051F8043B40F8043B51F8043B40F8043B69
:1019800051F8043B40F8043B51F8043B40F8043B59
:1019900051F8043B40F8043B51F8043B40F8043B49
:1019A00051F8043B40F8043B51F8043B40F8043B39
:1019B00051F8043B40F8043B51F8043B40F8043B29
:1019C00051F8043B40F8043B51F8043B40F8043B19
:1019D00051F8043B40F8043B403ABDD2303211D3B9
:1019E00051F8043B40F8043B51F8043B40F8043BF9
:1019F00051F8043B40F8043B51F8043B40F8043BE9
:101A0000103AEDD20C3205D351F8043B40F8043BB8
:101A1000043AF9D204320AD0D2071CBF11F8013BB4
:101A200000F8013B03D30B7803704B78437001BC83
:101A3000704700BF0C2A4AD310F0030311D0C3F142
:101A40000403D21ADB071CBF11F8013B00F8013B6D
:101A500007D311F8013B00F8013B11F8013B00F8F6
:101A6000013B11F003033FF475AF30B4043AC91AD7
:101A7000C3F1040C51F8044B022B19D0032B0BD0EB
:101A8000240A51F8043B1D0644EA050440F8044BBF
:101A90001C46043AF4D216E0240E51F8043B1D0211
:101AA00044EA050440F8044B1C46043AF4D20AE028
:101AB000240C51F8043B1D0444EA050440F8044B8F
:101AC0001C46043AF4D20432B1EB0C0130BC043AA7
:101AD000A0D3013A11F8013B00F8013BF9D20B7891
:101AE00003704B7843708B78837001BC704700BFE4
:101AF00008B50F4C636B58030DD4636B59050FD4B5
:101B0000636B1A0511D4636BDB04F3D500F012F894
:101B1000636B5803F1D500F0BFF9636B5905EFD53E
:101B200000F008F8636B1A05EDD500F003F8EAE75A
:101B30000080044008B5FFF7DBFF00BF014B102217
:101B40001A80704700200540704700BF0B490A68A3
:101B500048B108B5EC461318ACF50050834204D2E6
:101B60000B60104608BD1046704702F0D7FF0C23EB
:101B70004FF0FF320360104608BD00BF441EFF1F38
:101B8000FEE700BF074BDA78802A01D000207047BB
:101B900005490648486400225A70DA78802AFCD049
:101BA0000120704700E00740008004400000282228
:101BB000074BDA78012A01D00020704760225A7062
:101BC000DA78802AFCD1034B034A5A64012070471B
:101BD00000E00740008004400000060202F070BCF4
:101BE000034B002210215A615A60186059617047F6
:101BF00000D00340704700BF4FF0E02C2DE9F041CA
:101C00004FF00068CCF804814FF08058CCF8048184
:101C10004FF00058CCF804812F4A3049304C314DF8
:101C2000314E4FF08048CCF80481282300204EF636
:101C3000FF7E09274FF00048CCF804814860C1F8C6
:101C400008E0CB604B61CB614B62CB624B63CB63F3
:101C50004B64D3605361D3615362D3625363D363E4
:101C600053640F606860C5F808E0EB606B612F603B
:101C70006060C4F808E0E360636127605060C2F808
:101C800008E0D36053611760F16A41F40071F162BA
:101C9000716802F5803241F00071716047F6FF749F
:101CA0000821506082B09460D3605361116000F0ED
:101CB00047FEFFF79FFF0D4C23680093009B132BFB
:101CC000FAD900F0A5FC23680193019BB3F5967F38
:101CD000F9D302B0BDE8F08100900B4000800340D2
:101CE00000800B40009003400080044098EF0020EB
:101CF0002DE9F843044672B6214F4FF0E022936974
:101D00003D68D2F8042D62B6520102D5322B88BF4D
:101D100001350CB9BDE8F883DFF86890DFF868801A
:101D2000A9EB03039B08A8FB03234FF47A7202FB81
:101D300005F505EB93054FF0E02672B6B1693A68F8
:101D4000D6F804CD62B6A9EB01039B08A8FB0303F8
:101D50001CF0806FC5EB93034FF47A7002D03229E8
:101D600088BF013200FB0233B3F57A7F04D3013C14
:101D7000D0D005F57A75E0E700F03EFDDDE700BF65
:101D800098EF00201FBF0200176CC11610B472B686
:101D90001A4A1B4C042312F8011B090743F0010CDB
:101DA00005D554F8331069B154F83C10C9B1043367
:101DB000182BF0D162B6134B00221A705DF8044B59
:101DC00000F09CBC0F4904EBC302083050600A7855
:101DD0000D4844F83300013A0A7062B65DF8044BCE
:101DE0007047084A094904EBCC030830586013785F
:101DF00044F83C10013B137062B6EFE7CC4F000093
:101E00000000FF1F96F0002088004000C80040003E
:101E1000421E042A0ED81C4B400140F0100010B4A2
:101E2000034472B6194CA05C03281DD8DFE800F00B
:101E30001416031970470520A05413F0080F0888E2
:101E400014BFC8228822083142EA004259601A6051
:101E500062B65DF8044B70470320EDE708330220BB
:101E6000EAE708330420E7E7094B53F8220038B1CA
:101E7000084B53F82200416043F8221062B6E8E7AD
:101E800043F82210034BF7E70000FF1F84F0002007
:101E90005CF0002070F000202DE9F04FDFF810A377
:101EA000DFF810B385B03DE0B14D9E0805EBC607E5
:101EB000013A796813F00803D4B2A1F1080040F0A8
:101EC000BA8055F836204FEA124C120C21F808CC93
:101ED00000F0A98021F8063C41F8043CA54B53F8DA
:101EE0002420002A00F00382A34B53F824205060E2
:101EF00043F82400A14B33F81420944423F814C071
:101F000000F0DCFB002800F0EB8117F0080F9C4B81
:101F100000F1080018BF5B46786045F836300823AA
:101F20008AF880309AF880305907DCB21DD5954B7D
:101F30001B78BBB194490A7802F0FF032AB1013B38
:101F4000DBB20B70002B00F0488390490A7802F056
:101F5000FF032AB1013BDBB20B70002B00F0ED81D7
:101F600000F0F4FB04238AF8803014F0080200F03B
:101F7000CC819AF89020D3B2120995D1DFF8F09174
:101F80009B0809EBC30459F833006468C0F383006D
:101F900009287CD00FD80138012808D87C4A158838
:101FA00042F22100854200F0FB8149F833B0012361
:101FB0008AF89430B3E70D28F9D1D4E90007754DBC
:101FC00049F833B0724E744CC9F8102083B240F215
:101FD000816CC9F818202A6063454FF00102C6E9F8
:101FE0000007227000F2FF80B3F5D06F80F0CB8243
:101FF000B3F5817F00F0268240F2DE8040F20232AB
:1020000093427BD107F07F07052F00F20881020C75
:1020100040F00581614911F8273043F0020301F8CF
:102020002730134670E017F0080F554B18BF5B467A
:1020300045F8363073E700F061FB5949594A51F8C9
:102040002430002B00F05781586841F82400115DBE
:1020500003F108007860032905D8DFE801F0120FCA
:102060001502042111551A8817F0080F14BFC82350
:10207000882343EA024345F8363050E702211155E0
:10208000F1E703211155EEE705211155EBE7414D2D
:102090002A683AB34449404C0F88444894F800E019
:1020A0000678402F3B4628BF4023BEF1000F8EF03C
:1020B000010E84F800E046F0020486F00106067086
:1020C00009EBC400426014BFC820882040EA0340E6
:1020D0001A44FB1A9BB249F834000B80002B00F025
:1020E00036812A602A4B1A88B2F5A06F7FF45FAF61
:1020F0009A788AF8982000225A7058E7B3F5A06FB2
:1021000040F08D8000221346B6F806C0274894455B
:1021100028BF944667460278402F28BF402742F0E8
:10212000020E3E0409EBCE0846F0C806C8F804309B
:1021300049F83E6000263B442670BCEB070782F05E
:102140000106067040F01181BCF13F0F4FF0010510
:1021500009D946F00206027009EBC60225705360E9
:10216000882349F8363001238AF894301FE700BFEE
:102170000000FF1F2CF0002040F000208CF0002019
:102180008800400089F000208AF00020B8F000208C
:1021900054F0002020F000201DF00020C020074057
:1021A0005CF0002084F000201EF000201CF00020D5
:1021B00000200740C8004000802B00F08B81822B5C
:1021C0002DD107F07F07052F29D8A74A00231380B8
:1021D000A64B13F827309F0740F1FC8101231370B1
:1021E000A14B022290E742F2210C6345BBD01DD9DE
:1021F00042F2212293420DD1BFB2002F82D19C4BDB
:102200001A689C4B1A609C4BC0F307400022187060
:10221000134679E742F2213293423FF473AF0F2322
:102220008AF8C03001238AF89430C0E6B3F5086F0D
:1022300000F04A81B3F5106FF1D1904BC0F3074025
:102240000425187059F835301A0606D40135182DB2
:102250000CD059F835301A06F8D509EBC50301350D
:102260005868083800F04AFA182DF2D1844A854B94
:102270000292854A0192854E854ADFF8488203948E
:10228000009200251C4656F8047B2FB138467F6823
:1022900000F034FA002FF9D1009BD8F8007043F811
:1022A000045B46F8045C00932FB138467F6800F069
:1022B00025FA002FF9D1029B48F8045B43F8045B30
:1022C0000293019B23F8025B01932378023B032BCB
:1022D00000F20981DFE813F03F0104013F0104012E
:1022E0006C4A45F8360013780133137017E643F84B
:1022F0002400674BFCE5115D022926D07FF60FAE66
:1023000003291DD10123135509E6E0076ED42106E8
:1023100021D4A20708D5604B93F888200221D2B2BD
:1023200083F8882083F88010E30603D55A4B1022E7
:1023300083F8802005B0BDE8F08F00F039FA0FE691
:1023400017F0080F14BF032302231355E7E53F2FAF
:1023500098BF0022C5E6504B80220D2183F8C010A3
:1023600083F88020A207DFD5D5E746F00206027089
:10237000402F09EBC6003A4628BF402243601004B4
:10238000134440F088000121BA1A49F83600217040
:1023900055D02B60414B1A8001238AF8943006E611
:1023A00092885AB93E4AE51D14F8011B02F8011F34
:1023B000AC42F9D13B4A1268862A3CD03A4C3B48A1
:1023C00025780278002D85F00105257042F0020481
:1023D00082F00102027009EBC4024FF0000050606D
:1023E00014BFC822882249F83420DEE52A4B2F4842
:1023F0002F49304C022583F8945002702E480C600F
:102400002E4D48608C600D24CD60FF200A618A61EA
:1024100083F8C04001219F2483F8880083F880005E
:1024200083F8982083F88C0083F8844083F8941014
:1024300005B0BDE8F08F224A0F201070BEE73F2F95
:10244000A7D890E607F07F07052F3FF6E8AE000C0F
:102450007FF4E5AE054A12F8273023F0020302F8B4
:102460002730002213464FE624F00020C02007400A
:1024700098EF0020B4F00020B0F0002089F0002098
:1024800070F0002084F000208CF000202CF0002060
:1024900040F0002096F00020002007401EF00020B1
:1024A000A7F00020A8F000201DF000201CF0002064
:1024B0000000FF1F880040009CEF0020DCEF0020A0
:1024C0008AF000205CF00020484B49491B780B70D3
:1024D0000B4619E6464A00231380454B022213E6B9
:1024E0004FF001032370434BB34204F101047FF426
:1024F000CAAE414E039CDFF81481404F0023337075
:10250000042518F8013B3E4AAB541B0725D445F07F
:10251000020145F0030204350023182D49F831303B
:1025200049F83230EDD1374F25783A7842F0020041
:1025300009EBC00C85F00106CCF80430002D4DD11C
:10254000882382F0010226703A7049F83030012366
:102550008AF894302BE52570C5E700F0AFF8002825
:1025600032D009EBC5030830586049F8357000F0E7
:10257000A5F808B345F0010309EBC3020830506029
:1025800049F833B0C3E7204A5368002B3FF447AE05
:10259000000CBFB204E013690C32002B3FF43FAED5
:1025A00011888142F7D15188B942F4D1000A032839
:1025B0000CBF1A781289A7E533780133337045F0E0
:1025C000010349F83300A2E7337849F835000133B5
:1025D0003370CCE7064B022296E500BE2670C82376
:1025E00082F001063E7049F83030BCE589F00020E9
:1025F00024F0002040F0002096F0002088004000E9
:10260000C02007401CF000206C4F0000CC4F0000A1
:1026100010B500F0FBF90023234A194642F83310A5
:1026200002EBC3000133182B4160F7D11F48204C47
:10263000436B43F480234363D4F8003800F528301B
:1026400000F5807043F04073C4F80038032480F82C
:102650004440184BA02480F84040C2F3072483F87C
:102660009C40C2F30744120E83F8B0404FF0FF0CB9
:1026700083F8B420012283F880C00F4C83F888C00F
:1026800083F810C083F8942001704FF0E02183F8A4
:1026900084204FF0700C4FF40012102384F835C0E2
:1026A000C1F80421037210BD0000FF1F0080044028
:1026B00000D000400020074000E400E072B60D4961
:1026C0000B68B3FA83F01D2810DC4FF00042C240C3
:1026D00023EA02030B6062B6074A00EBC000C100A8
:1026E00002EBC000002353504360704762B60020E5
:1026F000704700BF481EFF1FD015FF1F0E4BC31AA7
:10270000B3F5076F10D20D4A127872B972B60C4A3F
:102710000C49A2FB032308684FF000421B0922FA70
:1027200003F303430B6062B67047074A1278002A2E
:10273000ECD0FFF72BBB00BFD015FF1F96F0002099
:10274000398EE338481EFF1F89F0002070B50B4C0E
:10275000257845B90A4E31680123237009B14B88A9
:1027600013B90023237070BD9B000B800420FFF77A
:102770004FFB002335602370F5E700BF97F0002082
:1027800098F00020084B094A1B6810B554881BB10B
:102790001A885B88D31A1C440CB1204610BD00F087
:1027A0002BF8204610BD00BF9CF000208CF00020CC
:1027B00038B50E4B1B7853B90D4C216841B103F06D
:1027C000FF054B880B800320FFF722FB256038BDF7
:1027D000FFF774FF014620B1BDE838400320FFF742
:1027E00017BB044B01221A7038BD00BFA0F00020B7
:1027F000A4F00020B8F000202DE9F843324E3378E1
:1028000063B1324F3A784AB90122D9073A7043D4BA
:102810009A0726D400225B073A7001D4BDE8F883FA
:102820002B4B1A68002AF9D0EFF30582002AF5D164
:10283000EFF3108572B6186800283AD0254C21783D
:10284000002936D142691A6001232370002A37D04B
:10285000916105B962B60025836845779847257070
:10286000DCE7DFF87C8098F80020002AD2D0002531
:10287000DFF870902B4659F82340236820461B69E7
:102880000135984708B12369984798F80020EBB2C2
:102890009A42F0D83378BDE7FFF774FF68B90E4B62
:1028A0001B780BB93378B3E7337803F0FE0333704A
:1028B000AEE7002DB2D162B6B0E700F0A5F8EEE7C2
:1028C000064B1A60C5E700BF4C1EFF1FB9F0002081
:1028D000BCF00020C8F00020684F0000CCF00020C1
:1028E000E8F00020D0F0002070B5EFF3108272B64F
:1028F0000C4C206880B10C4E00254369236073B1F5
:102900009D6102B962B6836845779847EFF31082FC
:1029100072B620680028F0D102B962B670BD33608B
:10292000EFE700BFC4F00020C0F00020FFF7DCBFDD
:10293000024A136801331360704700BF98EF00200C
:102940002A4B2B4A6020E1211870597013782948CE
:10295000082B34D00A2B20D00C2B274B0CBF352151
:102960005D2112228160C2609960DA60234B2149A7
:102970001B78214ACBB101230B621362204B1D4906
:102980001B781D4A012B13D9042B1BD884234B62BF
:1029900053621C4B01221A707047174B39211322C6
:1029A0008160C2609960DA60E0E70B621362E5E77C
:1029B00080234B625362134B01221A7070470E4BF7
:1029C0002121ECE7082B06D885234B6253620D4B7F
:1029D00001221A707047102B94BF862387234B6205
:1029E0005362084B01221A70704700BF0040074035
:1029F0004D1EFF1F00B0034000B00B40E9F0002067
:102A00004E1EFF1FEAF00020704700BF10B584B0D3
:102A100072B6FFF7B7F8174A174951607020802344
:102A20001070137013781B06FCD5D468FFF7C0F83C
:102A300062B6124B9C423CBF04EB84046400204607
:102A40000F4C01A90A2200F01DF801A9204600231D
:102A500011F8012B01333AB10A2B20F8022FF7D1DC
:102A60001623237004B010BD5B00DBB2237004B0EA
:102A700010BD00BF00000240000007418096980092
:102A8000401FFF1F01F1FF3C70B56546002401E0C7
:102A900070460134B0FBF2FE02FB1E03092B03F16A
:102AA00030068ABF3733F3B2DBB2904205F8013FFC
:102AB000EED2631C0022CA54C8187CB162461CF8CE
:102AC000015F10F801ED8CF800E0A1EB0C0302327D
:102AD000013B521A23449A420570EFDB084670BD51
:102AE00003460846194602F001B800BF00F0E4B9F9
:102AF00008B52DED028BB0EE408A00F085FAF0EEBD
:102B0000408AB0EE480A00F08DF868B1DFED127A25
:102B1000B4EEE78AF1EE10FA0BDCDFED107AB4EEDA
:102B2000E78AF1EE10FA0FD4B0EE680ABDEC028B22
:102B300008BDDFED0B8A01F0F1FFB0EE680ABDECD5
:102B4000028B2223036008BD01F0E8FF2223DFEDA2
:102B5000058A0360E8E700BF1772B142B5F1CFC242
:102B60000000807F0000000008B52DED048BB0EE62
:102B7000608AB0EE409A00F03BFBB4EE488AF1EE7A
:102B800010FAF0EE408A0BD6B5EE409AF1EE10FA4C
:102B900017D1B5EE408AF1EE10FA06D1F7EE008AB1
:102BA000B0EE680ABDEC048B08BDB0EE480A00F038
:102BB00039F80028F4D0B5EEC08AF1EE10FAEFD55E
:102BC00025E000F02FF888B1F5EE408AF1EE10FA1A
:102BD000E6D1B0EE490A00F025F80028E0D0B0EECA
:102BE000480A00F01FF80028DAD010E0B0EE490AD9
:102BF00000F018F80028E7D0B0EE480A00F012F80C
:102C00000028E1D0F4EE688AF1EE10FA04D601F063
:102C100085FF22230360C3E701F080FF21230360C7
:102C2000BEE700BF82B08DED010A019820F00040A0
:102C3000B0F1FF4FACBF0020012002B0704700BFD1
:102C400010EE103A184A23F0004393421BDDB3F113
:102C5000FF4F02DB30EE400A704700B583B0684694
:102C600000F008FE00F003000128DDED010A9DEDF3
:102C7000000A0CD0022812D070B1012000F0D4F864
:102C800003B05DF804FBDFED090A00F04BB800F07B
:102C9000CBF8B1EE400AF3E700F044F8F0E700F0BB
:102CA00041F8B1EE400AEBE7D80F493F00000000C1
:102CB00010EE103A194A23F0004393421CDDB3F1A1
:102CC000FF4F02DB30EE400A704700B583B0684624
:102CD00000F0D0FD00F003000128DDED010A9DEDBC
:102CE000000A0ED0022813D070B100F01BF8B1EE2C
:102CF000400A03B05DF804FBDFED090A002000F094
:102D000093B800F00FF8F4E7012000F08DF8F0E739
:102D1000012000F089F8B1EE400AEAE7D80F493FF8
:102D20000000000010EE103A23F00043B3F1485FBA
:102D30002CDAFDEEC07A17EE903A002B60D020EE30
:102D4000007ADFED317A9FED315ADFED315A9FED98
:102D5000316ADFED316AA7EE275ADFED307AE7EE10
:102D6000055AA7EE256AE7EE067AE7EE276A67EED0
:102D7000266A60EEC00AF6EE007AE7EE260AB7EEA3
:102D8000000AD7EE270A30EE600A704720EE007A7C
:102D9000DFED1D7A9FED1D5ADFED1D5A9FED1D6A77
:102DA000DFED1D6A1E4AA7EE275A9342DFED1B7A1C
:102DB000E5EE075AA5EE876AE6EE077AE7EE876A40
:102DC00066EE876AD5DD174A934214DC03F17F4330
:102DD00007EE903AB7EE006A36EE676A60EEC00A18
:102DE000F6EE005AD7EE257AE7EE260A77EEE07A7D
:102DF00036EE670A7047B6EE076AF5EE027AEDE73F
:102E0000B7EE000A704700BF4ED747ADF6740F31DA
:102E10007CF293B4010DD037ABAA2A3D610BB6BA50
:102E20009999993E0000483F10EE103A23F0004374
:102E3000B3F1485F04DAFDEEC07A17EE903A5BB367
:102E400060EE007A9FED157ADFED155A9FED156A59
:102E5000DFED156AE7EE875A9FED147AA5EEA76AB3
:102E600020EE275AE6EE276AA6EEA77A30B9DFED04
:102E7000106AE7EE876AA6EE850A704727EE457A64
:102E8000F6EE006AA0EEA67ADFED0A6AD7EE270A10
:102E9000E5EE260A30EE600A704700BFD3C92E2F38
:102EA000342FD7B21BEF3836010D50B98988083C52
:102EB000ABAA2ABEABAA2A3E10B582B0CDED010A5C
:102EC000019B23F00042B2F1FF4FF0EE407A30DC7C
:102ED00010EE100A20F00041B1F1FF4F29DCB3F1F0
:102EE0007E5F42D09C1704F0020444EAD07431B3F0
:102EF0007AB3B2F1FF4F40D0B1F1FF4F29D0891A18
:102F0000B1F1F45F4FEAE15234DA002B42DA3C329D
:102F100040DA9FED340A012C4ED0022C43D064B12C
:102F20009FED317ADFED317A30EE070A30EE670A35
:102F300003E09DED017A37EE270A02B010BD022CA6
:102F400010D09FED2B7A032C08BFB0EE470A02B0D9
:102F500010BD9FED280ADFED287A0028B8BFB0EE3B
:102F6000670AEAE79FED210AE7E702B0BDE81040F3
:102F700000F04CBE9FED1F0ACDE7B1F1FF4F04F109
:102F8000FF3420D0022C26D81C4B03EB840393ED96
:102F9000000AD2E79DED017A87EE870A00F010FF64
:102FA00000F034FEB7E79FED107ADFED107A30EED7
:102FB000070A37EEC00AC0E710EE103A03F10043EB
:102FC00000EE103AB9E7022C08D80D4B03EB84034E
:102FD00093ED000AB1E79FED030AAEE79FED090A02
:102FE000ABE700BF000000002EBDBB33DB0F494044
:102FF000DB0F49C0DB0FC93FDB0FC9BFE04F00004B
:10300000D44F0000DB0F493F10EE103A23F000428E
:10301000B2F1FF4F56D84FEAD37100F09580624865
:10302000834200F38780002BC0F287805F4B9A4277
:103030004BD95F4B9A4200F29A805E4B5E4A03EB9B
:103040008103D3ED004A02EB8102C1F1010370EE6E
:10305000644AD2ED007A5B1A34EEE70ADFED576A74
:103060009FED575ADFED575A9FED576A20EE007AD1
:10307000A7EE265ADFED556AE5EE075AE5EE876AB8
:10308000A6EE876AF0EE406AE6EE476A002B42D071
:10309000B0EE007A20EE266A37EE667AB7EE000AC6
:1030A000C6EE076A13F17D0F77EEE67A77EEE47AE3
:1030B00030EE670A4FDB10EE102A02EBC35300EE2E
:1030C000103A704730EE000A7047B2F1505F0AD2F2
:1030D000DFED3F7A70EE277AB7EE007AF4EEC77A2A
:1030E000F1EE10FA5DDC60EE007A9FED347ADFEDF0
:1030F000345A9FED346ADFED356AE7EE875A9FED6B
:10310000327AA7EEA56AE7EE866AA7EEA67AF0EE17
:10311000406AE7EEC76AF0EE007A20EE266A76EEA5
:10312000E76AB7EE007AC6EE267A77EEC07A37EE17
:10313000670A7047002000F0EFBC264B9A427FF6EA
:1031400075AF002000F0E2BCDFED237A002918BF44
:10315000B0EE670A704710EE102A643302EBC353D7
:10316000DFED1E7A00EE103A20EE270A70471C4B66
:103170009FED1C7ADFED1C6A03EB8103D3ED007A2F
:10318000E0EE077A9FED197AFDEEE77AF0EE404A1D
:1031900017EE903AF8EEE77AE7EEE64A67EE877ABE
:1031A0005AE730EE070A70471772B1421872B13E03
:1031B0009115853FF44F0000FC4F00004CBB3133AC
:1031C0000EEADDB555B38A38ABAA2A3E610B36BB91
:1031D000CAF24971B5F1CF42000000000000800D35
:1031E000EC4F00003BAAB83F8071313FD1F7173751
:1031F0002DE9F0412DED028B82B0CDED010A8DED70
:10320000000ADDE9004535F0004611D184F4800460
:10321000640014F5000F40F21281DDED007A9DED9F
:10322000017A37EE870A02B0BDEC028BBDE8F0816F
:1032300024F00047B7F1FF4FEFDCB6F1FF4F00F38A
:10324000F380002CC0F202814FF00008B6F1FF4F6E
:1032500000F01781B6F17E5F00F02281B5F1804F5A
:1032600000F00A81B5F17C5F9DED000A40F01D8100
:10327000002C80F2478100F0A3FDB7F1FF4F00F072
:103280002581002F00F01F81B7F17E5F00F01581CE
:10329000E20F013A58EA020300F03B81B6F19A4F7F
:1032A00040F35E819E4B9F4240F34F829D4B9F4275
:1032B00000F35882F7EE007A30EE670A9FED9A6AC3
:1032C000DFED9A5AF5EE007AA0EE676AF6EE006A34
:1032D000E6EE406A20EE007ADFED957A9FED956A82
:1032E00027EE267A67EEC77AE0EE257AF0EE676A77
:1032F000E0EE066A16EE903A23F47F6323F00F03A4
:1033000007EE103AA0EE467A06EE903A77EEC77ACC
:1033100025F47F6525F00F059DED017A06EE105A24
:1033200067EE877A37EE466A07EE105AE6EE267A9F
:1033300008F1FF3858EA020826EE877AB7EE008ACD
:1033400077EE876ABFEE006A16EE903A08BFB0EEDD
:10335000468A002B23F0004240F3C581B2F1864F2C
:1033600000F32E8200F01182B2F17C5F00F35382F1
:103370000022104623F47F6323F00F0306EE103A79
:10338000DFED6D6A9FED6D3A9FED6D2ADFED6D3AD1
:103390009FED6D4ADFED6D4A9FED6D5A36EE477A2F
:1033A000F0EE002A77EEC77A26EE267ADFED696A1C
:1033B000A7EEA67AB7EE000AF0EE476AE6EE036AD9
:1033C00066EEA65AF0EE667AE5EE823AE6EE437ACB
:1033D000B0EE446AA3EEA56A77EE677AB0EE647A3F
:1033E000A6EE257AB0EE456AA7EE256AB0EE667ABB
:1033F000A6EE657AE6EEA77A66EE875A37EE626A3F
:1034000085EE867A77EE677A77EEE67A30EE670AAF
:1034100010EE103A1344B3F5000FC0F2A08100EE95
:10342000103A20EE080AFEE6B4F17E5F7FF4F5AEB6
:1034300085F480056D0015F5000F3FF6EEAEB7EE92
:10344000000A02B0BDEC028BBDE8F081B6F1974FE7
:103450000FDAB6F17E5F09DBF315C3F1960346FA86
:1034600003F202FA03F3B34200F038814FF0000890
:10347000F0E64FF00208E9E6DDED007A27EEA70A54
:10348000D1E6B7F17E5FDAD02BDD9FED330ADDEDBB
:10349000017A002DB8BFF0EE407AB0EE670AC2E6BE
:1034A000002D23DB9DED000ABDE600F089FCB7F19D
:1034B000FF4F02D0002F7FF4E7AE002DBCBFF7EE28
:1034C000007A87EE800A002CBFF6ADAEA7F17E57DA
:1034D00057EA080740F0FB8070EE407A87EEA70AB3
:1034E000A1E6002D09DB9FED1C0A9CE69DED007A0C
:1034F000F7EE007A87EE870A95E6DDED017AB1EE08
:10350000670A90E602B0BDEC028BBDE8F04100F026
:103510008BBFDDED007A77EEE77A87EEA70A82E6C9
:10352000F3FF7F3F0700803FABAAAA3E70A5EC36B1
:103530003BAAB83F00AAB83F8CBEBF350072313FEE
:103540004CBB31330EEADDB555B38A38610B36BB5F
:10355000ABAA2A3E1872313F000000000000804BE9
:1035600014F0FF4F40F0EF805FED047A60EE277AB1
:103570006FF0170317EE907AAC48F915C7F31607EA
:103580007F398742194447F07E5340F3D480A848DE
:10359000874240F3F1809FEDA74A0131B0EE443AF3
:1035A000A3F50003F7EE005A002006EE103A76EE7F
:1035B000257AB7EE007A87EE270A5B1043F00053B6
:1035C00003F58023034476EE656A07EE901A66EEF3
:1035D000803AB8EEE77A13EE901A07EE903A964BDF
:1035E000DFED960A9FED968A9FED961ADFED962AFB
:1035F000DFED961A9FED962A77EEE55A194005EE13
:10360000101A36EE656A63EEA35AE5EE676AF0EECD
:10361000607AE5EE887AE5EE466AA7EEA51A66EED0
:10362000806AE1EE252A73EE857AE2EEA51A25EE90
:10363000A58AA1EEA52A67EEA67AF0EE084AB0EEBA
:10364000646AE8EE027AA5EE056ADFED820A9FED74
:10365000821ADFED822A36EE276A16EE101A19401A
:1036600006EE101A76EE644AE5EE454A77EEE47A05
:1036700067EEA37AE6EE867AF0EE675AE5EE065A32
:1036800015EE901A194006EE901AE5EE466A05EE20
:10369000901A77EEE67A67EEA07AE5EE817A77EE19
:1036A000837AF0EE676AE5EEA26A76EE846A76EED9
:1036B000876A16EE901A194006EE901A36EEC77A0F
:1036C00037EE447AA5EEE27A77EEC77A20E6B8F1D3
:1036D000010F7FF4A8ADB1EE400AA4E502F00102AB
:1036E000C2F10208B6E55E498A4200F38C806FD0D1
:1036F000B2F17C5F7FF73CAED2154FF400017E3A09
:1037000041FA02F21344C3F3C751564A7F39C3F357
:1037100016000A4140F40000C1F117011A400841A7
:10372000404206EE902A37EE667AC20577EE876A47
:1037300016EE903A1EE69FED3F4AF7EE005AB0EEC5
:10374000443A002031E7002316E7002D0CDB00206F
:1037500002B0BDEC028BBDE8F04100F0D7B900F03B
:10376000E1F95EE6002DF2DD002002B0BDEC028B37
:10377000BDE8F04100F0D0B99FED3B4A9FED3B3AE8
:10378000F7EE085A4FF400100FE79FED396A76EE16
:10379000C76A37EE866AB4EEE66AF1EE10FA0FDC1D
:1037A00003F500432F4AC3F3C7517F39C3F3160013
:1037B0000A4140F40000C1F117011A400841B0E786
:1037C000B5EEC08AF1EE10FA4CBF01200020CCE724
:1037D00076EEC76AF4EEE76AF1EE10FA13DA03F553
:1037E0000044204AC4F3C7517F39C4F316000A418C
:1037F00040F40000C1F11701002B40FA01F002EA89
:1038000004028DDB8DE7B5EEC08AF1EE10FA4CBFF5
:10381000012000209CE7D2154FF400017E3A41FAC6
:1038200002F21344D9150F4ABFE700BF71C41C0050
:10383000D6B35D000000000000F0FFFF55326C3E83
:1038400042F1533E05A38B3EABAAAA3EB76DDB3EC9
:103850009A99193F4F38763FA0C39D360038763F7E
:1038600000001643000080FF00C0153FDCCFD135BB
:103870003CAA383370B510EE103A884A23F0004461
:10388000944286B0054670DD854A944210EE106A77
:1038900022DC002BDFED837A834A24F00F04B0EEA4
:1038A000407A40F3E280944270EE677A09BFDFED20
:1038B0007F6A9FED7F7A9FED7F7A77EEE67A01202F
:1038C00077EEC76A77EEE67AC5ED006A77EEC77ADB
:1038D000C5ED017A06B070BD774A944254DDB4F16B
:1038E000FF4F49DAE215863AA4EBC25307EE903A4D
:1038F000BDEEE77ADFED716AB8EEC77A77EEC77A88
:103900008DED037A67EEA67ABDEEE77AB8EEC77A58
:1039100077EEC77A8DED047A67EEA67AF5EE407AF7
:10392000F1EE10FACDED057A40F08E80B5EE407ADA
:10393000F1EE10FA14BF0223012361490191022123
:10394000009103A8294600F043FA002EC2DA95ED53
:10395000007AD5ED017AB1EE477AF1EE677A85ED1E
:10396000007AC5ED017A4042B4E7002285ED000AF5
:103970004260002006B070BD70EE407A0020C5EDB8
:10398000017AC5ED007AA5E700F01AFA9FED4D7AAD
:103990009FED446AF6EE007AE0EE077A9FED447AF6
:1039A000FDEEE77A17EE900AF8EEE76A1F28A6EE1A
:1039B000C60A66EE877AB1EE666A1EDC424A411E8E
:1039C00024F0FF0352F82120934216D030EE677A9C
:1039D00085ED007A30EE470A002E30EE670A85ED5D
:1039E000010ABFF677AFB1EE477AB1EE400A85ED36
:1039F000007A85ED010A40426CE730EE677AE21505
:103A000017EE103AC3F3C753C3EBD453082BDFDDD3
:103A10009FED267A9FED275AF0EE405AE6EE075AC0
:103A200070EE657AE6EE077AD6EE857A35EEE77ABD
:103A300017EE103AC3F3C753D21A192A06DCB0EEB8
:103A4000650A85ED007AC5E7032376E79FED1F7AC7
:103A50009FED1F5AB0EE650AA6EE070A75EEC07A12
:103A6000E6EE077AD6EE857AB0E7944270EE277AD2
:103A700009BFDFED0E6A9FED0E7A9FED0E7A77EEAD
:103A8000A67A4FF0FF3077EE876A77EEE67AC5EDDB
:103A9000006A77EE877AC5ED017A1BE7D80F493FB8
:103AA000E3CB1640800FC93FD00FC93F00443537E4
:103AB0004344353708A3852E800F494300008043D7
:103AC0008450000084F9223F0450000000A3852E9A
:103AD00032318D2410B582B08DED010A044601F01B
:103AE0001DF89DED010A046002B010BD30B1F1EE89
:103AF000407A27EE800A2220FFF7ECBFF0EE407AF2
:103B000027EE800A2220FFF7E5BF00BF9FED010AE4
:103B1000FFF7ECBF000000109FED010AFFF7E6BFC2
:103B20000000007010EE103A33F0004110EE102A41
:103B300028D0B1F1FF4F22D213F0FF4F23D1DFED98
:103B40002C7A2C4A60EE277A904217EE903A34DBBA
:103B50004CF2503CC3F3C751604517EE902AA1F1D7
:103B6000190116DDDFED247ADFED246A002BB0EEBB
:103B7000677AB8BFF0EE667A27EE870A704730EEB4
:103B8000000A704770474CF2503C60454FEAD151F3
:103B9000E8DC0144FE29E5DC002915DC11F1160FF3
:103BA00019DB193122F0FF4242EAC15207EE902A96
:103BB0009FED130A27EE800A7047DFED127A07EEB9
:103BC000103A27EE270A704722F0FF4242EAC1531B
:103BD00000EE103A7047DFED0B7ADFED0B6A002B39
:103BE000B0EE677AB8BFF0EE667A27EE870A7047C4
:103BF0000000004CB03CFFFFCAF24971CAF249F123
:103C0000000000336042A20D6042A28D38B510EE74
:103C1000105A25F00044B4F1A14FF0EE407A0DDBCC
:103C2000B4F1FF4F5BDCDFED537A9FED537A002D4B
:103C3000D4BFB0EE470AB0EE670A38BD4F4B9C4286
:103C40005CDCB4F1445F4DDB4FF0FF3327EEA76A35
:103C5000DFED4B6ADFED4B5ADFED4B4A9FED4B5AE0
:103C60009FED4B4A26EE067A5A1CE7EE265ADFED08
:103C7000496AA5EE875AE7EE246ADFED475ADFED81
:103C8000474AE6EE875AA5EE074A9FED455ADFED13
:103C9000456AA5EE875AE4EE074ADFED435AE4EEA3
:103CA000876AE5EE075A66EE866A65EE875A3AD06D
:103CB0003E4A02EB830276EEA56A92ED007A3C4A18
:103CC00096EEA77A02EB8303002DD3ED006A77EE20
:103CD000677A36EEE70AB0DAB1EE400A38BD30EE68
:103CE000000A38BD9FED337A30EE077AF7EE006AAE
:103CF000B4EEE67AF1EE10FAA6DD38BD00F060F819
:103D00002D4B9C4216DCA3F5D0039C4227DCF0EE41
:103D1000007ABFEE007AA0EE277A002330EE270A61
:103D2000C7EE007A92E776EEA56AE6EEE77AB0EEA5
:103D3000670A38BD214B9C420BDCF7EE087AB7EEE0
:103D4000007AA0EE277A022330EE670AC0EE077AE7
:103D50007CE7BFEE007AC7EE007A032376E7F7EE42
:103D6000007A30EE677A30EE270A0123C7EE007A38
:103D70006CE700BFDB0FC93FDB0FC9BFFFFFDF3EB2
:103D8000D769853C59DA4B3D21A215BD356B883D7D
:103D90006E2EBA3D6BF16EBD95879DBD2549123ED5
:103DA000388EE3BDABAAAA3ECDCC4CBEAC530000CE
:103DB0009C530000CAF24971FFFF973FFFFF1B4071
:103DC00010EE103A23F0004300EE103A704700BFA7
:103DD0002DE9F04F2DED048BDBB01C4603930691CB
:103DE000A04B6899089253F82150111D824604F1A6
:103DF000FF38C0F29882D31E48BF131DDB10029318
:103E00000133DB000793DDE907239B1A0593029B2F
:103E100015EB0801A3EB080316D401319FED927A4C
:103E2000699819441EAA002BA4BF50F8234007EE3E
:103E3000904A03F10103ACBFF8EEE77AF0EE477A5F
:103E40008B42E2EC017AEED1002DC0F2DB82039BC3
:103E50001EAA02EB830446AE4FEA830C4046EF18DD
:103E60000AEB8301B8F1000FDFED7F7A09DB224610
:103E70005346F3EC016A32ED017A8B42E6EE877A23
:103E8000F7D10130B842E6EC017A04F10404E9D13B
:103E90000AAF07EB8503043B9FED759ADFED738A4C
:103EA000059804930AEB0C0407EB850946AE0095D0
:103EB0005AAB03EB8503002D13ED140A4FEA850B73
:103EC00016DD06EB85033A4660EE097AB0EE407ADD
:103ED000FDEEE77A73ED016AF8EEE77AB342A7EEFA
:103EE000E87A37EEA60ABDEEC77AA2EC017AEBD1EA
:103EF0000190FFF717FEB0EE408AB4EE000A28EEFC
:103F0000000A00F095FAF2EE007AA0EE678A0198B6
:103F10000028FDEEC89AF8EEE97A38EE678A76DD79
:103F200005F1FF3EC0F1080357F82E2042FA03FCCA
:103F30000CFA03F3D31AC0F1070119EE902A47F8DF
:103F40002E300B416244002B09EE902A67DCB5EE5F
:103F5000408AF1EE10FA40F0BE80009A05F1FF3B76
:103F60005A450EDC4FEA850C07EB850200219E4680
:103F700052F8043D4A4541EA0301F9D1002940F0D5
:103F8000F180009B013B57F82330002B40F0E68086
:103F9000049B4FF0010C53F8042D0CF1010C002A86
:103FA000F9D06B1CAC449E460299039A01EB030BBB
:103FB0000BF1804B69992A440BF1FF3B06EB83051B
:103FC0001EAB01EB8B0B03EB8201DBED017A9FED66
:103FD000267AF8EEE77AB8F1000F0BF1040BC1ED89
:103FE000007A0A4601F1040109DB534601E072ED53
:103FF000017AF3EC016AA342A6EEA77AF7D10EF19B
:10400000010EE645A5EC017ADFDD654650E740F09C
:104010009B806B1E57F82330DB11002B97DD19EEC8
:10402000902A002D02F1010209EE902A40F39181BD
:10403000396800297ED1012D26D03A464FF0010C77
:1040400052F8041F002979D00CF10102C1F58071EA
:10405000954247F82C1016DD57F82210BB4407EBA9
:1040600082020AE0E85300000000000000008043E4
:104070000000803B0000C93F1168C1F1FF0142F818
:10408000041B5A45F8D1012100280CDD012800F05D
:104090004181022807D105F1FF3C57F82C2002F09E
:1040A0003F0247F82C20022B7FF451AFB7EE000AF5
:1040B00030EE488A00293FF44AAF09930190FFF798
:1040C00031FD38EE408A099B0198B5EE408AF1EE49
:1040D00010FA3FF442AF9846DDE90732B0EE480AE5
:1040E000981A0195009DFFF71DFD1FED207A019B99
:1040F000B4EEC70AF1EE10FAC0F255815FED247AF2
:10410000059A60EE277A0832FDEEE77A0592F8EE1E
:10411000E77A03F1010BA7EEC70AFDEEE77ABDEEE1
:10412000C00A10EE102A47F8232017EE903A47F8FD
:104130002B302BE001224FF0000C87E70CF1010C33
:10414000AC457FF47DAF9FE7F6EE007AB4EEE78AE8
:10415000F1EE10FA80F2EC800023F8E66B1C9E462C
:104160009C4621E7059B009DA3F1080257F82B30E0
:104170000592F04653B9ACF104033B4453F8041DD7
:104180000BF1FF3B083A0029F8D005920598B7EEED
:10419000000AFFF7C7FCBBF1000FC0F229810BF149
:1041A000010646AA1FED4E7A4FEA860C07EB8603FE
:1041B00002EB860273ED017AF8EEE77ABB4267EE16
:1041C000807A20EE070A62ED017AF3D1ACF10403A4
:1041D00046AA002D1FED596A02EB03044FF00000C0
:1041E00022DB8F49DFED8F7AB0EE467A224600233C
:1041F00003E0984208DBB1EC017AF2EC016A01338A
:104200009D42E6EE877AF4DA5AAB03EB8003584519
:1042100043ED287A4FEA800100F10102A4F1040481
:1042200005D0002D1046DCDADFED7E7AECE7689AE7
:10423000022A1DDC002A00F38E8010D132ABDFEDA4
:10424000797A9C443CED017A634577EE877AF9D11F
:1042500043460BB1F1EE677A069BC3ED007A19EE87
:10426000903A03F007005BB0BDEC048BBDE8F08F23
:10427000689A032AF3D1BBF1000F00F0CB8032A87B
:1042800013ED287A00EB8B020BF1804372ED017A7B
:10429000F0EE476A37EE277A904277EEC77A82EDE2
:1042A000007A77EEA67AC2ED017AEFD1BBF1010F69
:1042B00040F3B08001F5B4720DEB020111ED287AE4
:1042C0009A0033A900EB830373ED017AF0EE476A9D
:1042D00037EE277A994277EEC77A83ED007A77EE48
:1042E000A67AC3ED017AEFD1131DDFED4E7A0344B8
:1042F000083033ED017A984277EE877AF9D1434658
:10430000002B58D10699329A339B0A604B60C1ED5D
:10431000027AA4E705F1FF3C57F82C2002F07F0257
:1043200047F82C20BFE608230793002302936AE591
:1043300019EE903A002D03F1010309EE903AC8BF3F
:1043400002233FF775AEF7EE007A37EEC88A0223F4
:10435000FDE5002198E632ABDFED327A03EB86060D
:1043600036ED017AB34277EE877AF9D143469DED77
:10437000327A93BB069BBBF1000FC3ED007A77EE58
:10438000677A0CDD33AA0123B2EC017A01339B4535
:1043900077EE877AF8DA43460BB1F1EE677A069B3F
:1043A000C3ED017A5BE7BDEEC00A9B4610EE102A12
:1043B00047F82320EAE6DDED326A9DED337A069B6D
:1043C000F1EE666AB1EE477AF1EE677AC3ED006A04
:1043D00083ED017AC3ED027A41E7069BF1EE676A4D
:1043E000BBF1000F77EE677AC3ED006ACADCD4E751
:1043F000689B022B0ADC002B0FDC7FF430AFDFED73
:10440000097A25E7039B4FEA830C41E5689B032B60
:104410007FF425AFDFED037A71E7DFED027AA5E7E0
:10442000C053000000000000B1EEC00A704700BF9A
:1044300010EE102AC2F3C7537F3B162B22F0004127
:104440002ADC002B10EE100A18DB1A4919410A4227
:1044500021D0DFED197A70EE277AF5EEC07AF1EE11
:1044600010FA18DD002A04DA4FF4000242FA03F3CE
:10447000184420EA010300EE103A7047DFED0E7A8F
:1044800070EE277AF5EEC07AF1EE10FA03DD002A1D
:1044900008DB9FED0A0A7047B1F1FF4FFBD330EE06
:1044A000000A7047FFEE007A002918BFB0EE670AD5
:1044B000704700BFFFFF7F00CAF249710000000093
:1044C000024B0146186800F003B800BF8824FF1FA4
:1044D0002DE9F04F01F10B06162E83B0044624D8C7
:1044E000102900F2BA8000F0A3FA10261822022048
:1044F000B54F3A44A2F1080153688B4200F0BA80EC
:104500005A68D96822F003021A449D68E9608D60F8
:10451000516841F001012046516003F1080500F0A7
:104520008DFA284603B0BDE8F08F36F0070600F19B
:104530009480B14200F2918000F07AFAB6F5FC7FE7
:10454000C0F09A81730A00F08F80042B00F26F8113
:10455000B30903F1390003F1380CC3009A4F3B440F
:10456000A3F108055B689D4206D10CE0002980F2AA
:104570002781DB689D4206D05A6822F00302911B16
:104580000F29F3DD60463D69DFF850C265457CD0F8
:104590006A6822F00302931B0F2B00F37B81002B30
:1045A000C7E904CC80F26C81B2F5007F80F01A81FB
:1045B000D308796801334FEA521E012202FA0EF243
:1045C0000A4357F833E0C5F808E007EBC3010839A0
:1045D000E9607A6047F83350CEF80C50831001211F
:1045E0009940914257D8114206D120F0030049006A
:1045F000114200F10400FAD007EBC0094D4686468F
:10460000D5F80C80454508D11DE1002B80F22481AE
:10461000D8F80C80454500F01681D8F8042022F027
:104620000302931B0F2BF0DD2046D8E9025408EB60
:10463000060146F00106C8F80460EC60A56043F08E
:104640000104C7E90411C1E902CC4C6048F802300A
:1046500000F0F4F908F1080502E00C2323600025BE
:10466000284603B0BDE8F08F4FF4007340204FF0B0
:104670003F0C73E7D3689A4208BF02307FF440AF23
:104680003D69DFF858C1654582D17A688310012100
:1046900099409142A7D9BD686B6823F003094E4544
:1046A00003D8A9EB06030F2B7ADCDFF834B1474BB4
:1046B000DBF800201B680132334405EB090A00F0E7
:1046C000338103F580530F3323F47F6828F00F08FC
:1046D0004146204600F010FA411C024600F0F380EB
:1046E000824500F2EE803A4B196841441960084651
:1046F00000F04E81DBF80010019301311BBFA2EBEB
:104700000A010918CBF80020196012F0070B00F01D
:104710001781CBF108010A44CBF580519044083150
:10472000A1EB0801C1F30B0A51462046009200F0AC
:10473000E3F9421CDDE9002300F04F81801A00EB11
:104740000A081968BA6048F001005144BD4250603F
:10475000196000F02981B9F10F0F40F227816868D4
:10476000A9F10C0C2CF0070C00F0010040EA0C0041
:1047700068604FF0050E05EB0C00BCF10F0FC0E9AF
:1047800001EE00F2328150681546124B1A688A42D7
:1047900038BF1960104B1A688A4238BF196094E01C
:1047A000AA1943F0010346F001066E602046BA6084
:1047B000536000F043F90835284603B0BDE8F08F98
:1047C000D9681A44A1E600BF581FFF1F1CF1002042
:1047D000ECF0002014F1002018F10020601FFF1FF2
:1047E0006023FF1FB2F5206F4FEA522363D3142BCF
:1047F00000F2B78003F15C01C9005B3307EB010EE7
:104800007958AEF1080E8E4500F091804B6823F088
:104810000303934202D989688E45F7D1D1F80CE0A1
:104820007A68C5E9021ECEF80850CD60D6E6142B92
:1048300059D9542B00F29D80330B03F16F0003F123
:104840006E0CC3008AE60EF1010E1EF0030F05F197
:1048500008057FF4D5AE51E0424445465368D8F888
:104860000C1043F00103536055F8083F2046D9600F
:104870008B6000F0E3F8F3E6F00806F1080237E693
:104880002A442046536843F001035360083500F082
:10489000D5F8E5E6A919204646F0010643F00104E3
:1048A0006E60C7E90411C1E902CC4C60AB5000F066
:1048B000C5F80835D4E6930903F13901C900383346
:1048C0009CE7BD425FD0BD68686820F0030846459C
:1048D000A8EB060302D80F2B3FF762AF204600F08B
:1048E000ADF80025BCE603F15C0003F15B0CC300EE
:1048F00034E659F808394B4540F0968010F0030F24
:1049000000F1FF30F5D17B6823EA01037B604900A9
:1049100099423FF6C0AE19B9BDE649000EF1040E4A
:104920001942FAD0704667E603F11008D0E69A10F3
:104930004FF001087B6808FA02F21A437A6070E7C8
:1049400002EB08014942C1F30B0A5146204600928E
:1049500000F0D2F8431CDDE900237FF4EFAEDA4625
:10496000EFE6542B25D8130B03F16F01C9006E330A
:1049700044E7B3F5AA7F25D8F30B03F1780003F1E0
:10498000770CC300EAE5294B186840441860B1E68B
:10499000CAF30B0CBCF1000F7FF4ACAEBD68C84489
:1049A00048F001006860F0E61546EEE6012353602A
:1049B00094E7B3F5AA7F23D8D30B03F17801C9009C
:1049C00077331BE740F25452934223D8B30C03F1E0
:1049D0007D0003F17C0CC300C0E5ABF1080BD844AB
:1049E000A8EB02084FF0000AABE605F108012046EB
:1049F000009300F065F9BD68009B68681968C4E61B
:104A000040F254518B420BD8930C03F17D01C90045
:104A10007C33F3E64FF47E737F204FF07E0C9DE5F0
:104A20004FF47E717E23E9E67B6870E7ECF00020AE
:104A3000014800F09DB800BF5CF20020014800F082
:104A400099B800BF5CF20020830730B548D0541EEF
:104A5000002A3FD0CAB2034601E0013C3AD303F832
:104A6000012B9D07F9D1032C2DD9CDB245EA05259F
:104A70000F2C45EA054536D9A4F1100222F00F0C9F
:104A800003F1200EE6444FEA121C03F1100242E942
:104A9000045542E9025510327245F8D10CF1010279
:104AA00014F00C0F03EB021204F00F0C13D0ACF156
:104AB000040323F003030433134442F8045B9342DA
:104AC000FBD10CF003042CB1C9B21C4403F8011B48
:104AD0009C42FBD130BD64461346002CF4D1F9E76B
:104AE00003461446BFE71A46A446E0E713460A46C3
:104AF0000146022000F040B838B5074D00220446B8
:104B000008462A60FDF722F8431C00D038BD2B6808
:104B1000002BFBD0236038BDF4F30020014B186854
:104B2000704700BF8824FF1F70B50D4E0D4D761BDA
:104B3000B61006D0002455F8043B01349847A6422D
:104B4000F9D1094E094D761B00F054FCB61006D081
:104B5000002455F8043B01349847A642F9D170BDB2
:104B600000540000005400001454000000540000E1
:104B7000704700BF704700BF2DE9F047DFF87CA009
:104B80000646DAF8000098460F469146FFF7F0FF18
:104B9000184B1C6824B365681F2D24DC5EB96B1CA0
:104BA0000235DAF80000636044F82570FFF7E2FF91
:104BB0000020BDE8F08704EB85010123C1F888904F
:104BC000D4F88821AB401A43022EC4F88821C1F8DA
:104BD0000881E4D1D4F88C211A43C4F88C21DEE793
:104BE000054C1C60D7E7DAF80000FFF7C3FF4FF071
:104BF000FF30DEE7F0F3002060F200208C24FF1F7E
:104C0000024B13B1024800F005B8704700000000E5
:104C1000CD4E0000002301461A461846FFF7ACBFF0
:104C2000F8B5244F0C460646FFF702FFBB685D68E7
:104C3000C4F57E610F3125F003054B1923F47F6322
:104C400023F00F03A3F58054B4F5805F07DB002148
:104C50003046FFF751FFBB682B44984204D03046E2
:104C6000FFF7ECFE0020F8BD61423046FFF744FF3D
:104C700001300DD0104ABB682D1B45F001055D6069
:104C8000136830461B1B1360FFF7D8FE0120F8BDE8
:104C900000213046FFF730FFBA68831A0F2BDEDDA4
:104CA00043F001035360054B03491B68C01A0860B9
:104CB000D5E700BF581FFF1FECF000206023FF1F47
:104CC000002961D0F8B50C460646FFF7B1FE54F84E
:104CD000042C7B4FA4F1080522F0010105EB010C27
:104CE000B868DCF80430604523F0030300F08B80E3
:104CF000D207CCF8043032D454F8082CAD1A114441
:104D0000AA6807F1080082426AD00CEB0304D4F8C9
:104D100004E0EC68D4601EF0010FA26000F0978000
:104D200041F001036B60CCF80010B1F5007F35D283
:104D30007868CB080122490901338A40024357F8B9
:104D400033107A6007EBC302083AC5E9021247F84C
:104D50003350CD603046BDE8F840FFF76FBE0CEB36
:104D600003025268D00710D4194407F10800DCF898
:104D70000830834273D0DCF80C20DA60936041F095
:104D800001036B606950D0E7704741F00103B1F552
:104D9000007F44F8043CCCF80010C9D3B1F5206F73
:104DA0004FEA512348D28B0903F1390003F138024D
:104DB000C300F818FB580838984259D05A6822F0B6
:104DC00003028A4202D99B689842F7D1D868C5E9A4
:104DD00002308560DD603046BDE8F840FFF72EBE4A
:104DE0000CEB03025268D20763D40B44DCE90212D5
:104DF000CA60916043F001026A603046EB50BDE842
:104E0000F840FFF71BBE0B44D10707D454F8082C19
:104E1000AD1A1344D5E90212CA60916043F0010251
:104E20006A60284ABD6012689A4293D8264B304681
:104E30001968FFF7F5FE8DE7142B0AD9542B1FD8FC
:104E40000B0B03F16F0003F16E02C300B1E71944CD
:104E50008DE703F15C0003F15B02C300A9E741F0B9
:104E60000103C7E90455C5E902006B60695071E7A9
:104E700079689210012404FA02F20A437A60A6E7E4
:104E8000B3F5AA7F06D8CB0B03F1780003F17702C4
:104E9000C3008EE740F25452934206D88B0C03F1C4
:104EA0007D0003F17C02C30083E74FF47E737E2212
:104EB0007FE741F001036B60CCF800104AE700BFC8
:104EC000581FFF1F6423FF1F1CF1002038B5074D3A
:104ED000074C2C1BA41005D0013C55F8043D984705
:104EE000002CF9D1BDE8384000F094BA0000000071
:104EF00000000000617564696F736869656C640027
:104F00000000000000000000811B00000000000005
:104F100000000000590400000000DC425CCF0243A6
:104F20005CCF2443000044433333B33E295C8F3EBF
:104F300000000000000020406666663F00000000A0
:104F400000000000D10E0000B5110000B9110000F2
:104F5000C1110000C9110000811700008517000071
:104F6000891700008D17000000FFFFFF00010000FF
:104F7000E81EFF1F1200000000020000501EFF1F6D
:104F80009500000005030904181FFF1F0000000022
:104F900000030000FC1EFF1F0000000001030904C5
:104FA000001FFF1F0000000002030904281FFF1F4D
:104FB0000000000003030904401FFF1F0000000061
:104FC0000000000000000000000000001519151589
:104FD00019FFFFFFDB0F49BFE4CB1640E4CB16C03F
:104FE00000000080DB0F4940DB0F49C00000003F9C
:104FF000000000BF8071313F807131BFD1F717379A
:10500000D1F717B7000FC93F000F494000CB9640BA
:10501000000FC9400053FB4000CB164100ED2F416B
:10502000000F49410031624100537B41003A8A41FF
:1050300000CB9641005CA34100EDAF41007EBC4136
:10504000000FC94100A0D5410031E24100C2EE414C
:105050000053FB4100F20342003A0A42008310422F
:1050600000CB164200141D42005C234200A52942D9
:1050700000ED2F4200363642007E3C4200C74242DD
:10508000000F4942A2000000F90000008300000068
:105090006E0000004E0000004400000015000000FB
:1050A00029000000FC00000027000000570000005D
:1050B000D1000000F500000034000000DD00000019
:1050C000C0000000DB00000062000000950000004E
:1050D000990000003C000000430000009000000028
:1050E00041000000FE0000005100000063000000CD
:1050F000AB000000DE000000BB000000C5000000A7
:1051000061000000B7000000240000006E000000F5
:105110003A000000420000004D000000D2000000F4
:10512000E000000006000000490000002E00000022
:10513000EA00000009000000D10000009200000019
:105140001C000000FE0000001D000000EB0000003D
:105150001C000000B100000029000000A7000000B2
:105160003E000000E8000000820000003500000062
:10517000F50000002E000000BB000000440000000D
:1051800084000000E90000009C00000070000000A6
:1051900026000000B40000005F0000007E00000058
:1051A000410000003900000091000000D60000001E
:1051B00039000000830000005300000039000000A7
:1051C000F40000009C000000840000005F0000006C
:1051D0008B000000BD000000F90000002800000066
:1051E0003B0000001F000000F800000097000000D6
:1051F000FF000000DE000000050000009800000035
:105200000F000000EF0000002F0000001100000060
:105210008B0000005A0000000A0000006D00000032
:105220001F0000006D000000360000007E0000003E
:10523000CF00000027000000CB00000009000000A4
:10524000B70000004F000000460000003F000000D3
:10525000660000009E0000005F000000EA00000001
:105260002D0000007500000027000000BA000000BB
:10527000C7000000EB000000E5000000F1000000A6
:105280007B0000003D000000070000003900000026
:10529000F70000008A0000005200000092000000A9
:1052A000EA0000006B000000FB0000005F0000004F
:1052B000B10000001F0000008D0000005D00000034
:1052C000080000005600000003000000300000004D
:1052D00046000000FC0000007B0000006B000000A6
:1052E000AB000000F0000000CF000000BC00000098
:1052F000200000009A000000F400000036000000CA
:105300001D000000A9000000E30000009100000063
:10531000610000005E000000E60000001B000000CD
:1053200008000000650000009900000085000000F2
:105330005F00000014000000A000000068000000F2
:10534000400000008D000000FF000000D8000000B9
:10535000800000004D0000007300000027000000E6
:1053600031000000060000000600000015000000EB
:1053700056000000CA00000073000000A8000000F2
:10538000C900000060000000E20000007B00000097
:10539000C00000008C0000006B0000003863ED3E90
:1053A000DA0F493F5E987B3FDA0FC93F6937AC316E
:1053B00068212233B40F14336821A2330000C93F9F
:1053C0000000F0390000DA370000A2330000842E1C
:1053D0000000502B0000C2270000D0220000C41F94
:1053E0000000C61B00004417040000000700000076
:1053F00009000000F8B500BFF8BC08BC9E46704725
:10540000014C000035040000490D0000911100001E
:04541000FD18000083
:04541400F8B500BF28
:08541800C8D6FF7F010000006F
:1054200000000000F8F30020FFFFFFFF010A040066
:1054300009029500030100C032080B0002020201BC
:10544000000904000001020201000524001001050A
:105450002401010104240206052406000107058138
:105460000310004009040100020A000000070502C1
:105470000240000007058302400000090402000208
:105480000103000007240100012500062402010198
:105490000506240202020509240301030102010595
:1054A0000924030204010101050905050240000069
:1054B00000000525010101090584024000000000EB
:1054C0000525010103000000120110010000004049
:1054D000C0168904770201020301000004030904D5
:1054E00018035400650065006E00730079006400C5
:1054F000750069006E006F000E0350006F007200AF
:10550000740020003100000018035400650065009D
:105510006E007300790020004D00490044004900EE
:105520000C0300000000000000000000000000006C
:10553000000000000000000000000000000000006B
:10554000581FFF1F581FFF1F601FFF1F601FFF1FF7
:10555000681FFF1F681FFF1F701FFF1F701FFF1FA7
:10556000781FFF1F781FFF1F801FFF1F801FFF1F57
:10557000881FFF1F881FFF1F901FFF1F901FFF1F07
:10558000981FFF1F981FFF1FA01FFF1FA01FFF1FB7
:10559000A81FFF1FA81FFF1FB01FFF1FB01FFF1F67
:1055A000B81FFF1FB81FFF1FC01FFF1FC01FFF1F17
:1055B000C81FFF1FC81FFF1FD01FFF1FD01FFF1FC7
:1055C000D81FFF1FD81FFF1FE01FFF1FE01FFF1F77
:1055D000E81FFF1FE81FFF1FF01FFF1FF01FFF1F27
:1055E000F81FFF1FF81FFF1F0020FF1F0020FF1FD5
:1055F0000820FF1F0820FF1F1020FF1F1020FF1F83
:105600001820FF1F1820FF1F2020FF1F2020FF1F32
:105610002820FF1F2820FF1F3020FF1F3020FF1FE2
:105620003820FF1F3820FF1F4020FF1F4020FF1F92
:105630004820FF1F4820FF1F5020FF1F5020FF1F42
:105640005820FF1F5820FF1F6020FF1F6020FF1FF2
:105650006820FF1F6820FF1F7020FF1F7020FF1FA2
:105660007820FF1F7820FF1F8020FF1F8020FF1F52
:105670008820FF1F8820FF1F9020FF1F9020FF1F02
:105680009820FF1F9820FF1FA020FF1FA020FF1FB2
:10569000A820FF1FA820FF1FB020FF1FB020FF1F62
:1056A000B820FF1FB820FF1FC020FF1FC020FF1F12
:1056B000C820FF1FC820FF1FD020FF1FD020FF1FC2
:1056C000D820FF1FD820FF1FE020FF1FE020FF1F72
:1056D000E820FF1FE820FF1FF020FF1FF020FF1F22
:1056E000F820FF1FF820FF1F0021FF1F0021FF1FD0
:1056F0000821FF1F0821FF1F1021FF1F1021FF1F7E
:105700001821FF1F1821FF1F2021FF1F2021FF1F2D
:105710002821FF1F2821FF1F3021FF1F3021FF1FDD
:105720003821FF1F3821FF1F4021FF1F4021FF1F8D
:105730004821FF1F4821FF1F5021FF1F5021FF1F3D
:105740005821FF1F5821FF1F6021FF1F6021FF1FED
:105750006821FF1F6821FF1F7021FF1F7021FF1F9D
:105760007821FF1F7821FF1F8021FF1F8021FF1F4D
:105770008821FF1F8821FF1F9021FF1F9021FF1FFD
:105780009821FF1F9821FF1FA021FF1FA021FF1FAD
:10579000A821FF1FA821FF1FB021FF1FB021FF1F5D
:1057A000B821FF1FB821FF1FC021FF1FC021FF1F0D
:1057B000C821FF1FC821FF1FD021FF1FD021FF1FBD
:1057C000D821FF1FD821FF1FE021FF1FE021FF1F6D
:1057D000E821FF1FE821FF1FF021FF1FF021FF1F1D
:1057E000F821FF1FF821FF1F0022FF1F0022FF1FCB
:1057F0000822FF1F0822FF1F1022FF1F1022FF1F79
:105800001822FF1F1822FF1F2022FF1F2022FF1F28
:105810002822FF1F2822FF1F3022FF1F3022FF1FD8
:105820003822FF1F3822FF1F4022FF1F4022FF1F88
:105830004822FF1F4822FF1F5022FF1F5022FF1F38
:105840005822FF1F5822FF1F6022FF1F6022FF1FE8
:105850006822FF1F6822FF1F7022FF1F7022FF1F98
:105860007822FF1F7822FF1F8022FF1F8022FF1F48
:105870008822FF1F8822FF1F9022FF1F9022FF1FF8
:105880009822FF1F9822FF1FA022FF1FA022FF1FA8
:10589000A822FF1FA822FF1FB022FF1FB022FF1F58
:1058A000B822FF1FB822FF1FC022FF1FC022FF1F08
:1058B000C822FF1FC822FF1FD022FF1FD022FF1FB8
:1058C000D822FF1FD822FF1FE022FF1FE022FF1F68
:1058D000E822FF1FE822FF1FF022FF1FF022FF1F18
:1058E000F822FF1FF822FF1F0023FF1F0023FF1FC6
:1058F0000823FF1F0823FF1F1023FF1F1023FF1F74
:105900001823FF1F1823FF1F2023FF1F2023FF1F23
:105910002823FF1F2823FF1F3023FF1F3023FF1FD3
:105920003823FF1F3823FF1F4023FF1F4023FF1F83
:105930004823FF1F4823FF1F5023FF1F5023FF1F33
:10594000FFFFFFFF000002000000000020F1002028
:1059500088F10020F0F100200000000000000000AD
:105960000000000000000000000000000000000037
:105970000000000000000000000000000000000027
:105980000000000000000000000000000000000017
:105990000000000000000000000000000000000007
:1059A00000000000000000000000000000000000F7
:1059B00000000000000000000000000000000000E7
:1059C00000000000000000000000000000000000D7
:1059D00000000000000000000000000000000000C7
:1059E00001000000000000000E33CDAB34126DE664
:1059F000ECDE05000B0000000000000000000000CD
:105A00000000000000000000000000000000000096
:105A10000000000000000000000000000000000086
:105A20000000000000000000000000000000000076
:105A30000000000000000000000000000000000066
:105A40000000000000000000000000000000000056
:105A50000000000000000000000000000000000046
:105A600000000000000000006823FF1F58F2002023
:00000001FF
