:1000000000800020BD010000812D00003D2D00007A
:100010003D2D00003D2D00003D2D00003D2D000038
:100020003D2D00003D2D00003D2D0000812D0000E4
:10003000812D00003D2D0000993A00009D3A0000FE
:10004000812D0000812D0000812D0000812D0000F8
:10005000812D0000812D0000812D0000812D0000E8
:10006000812D0000812D0000812D0000812D0000D8
:10007000812D0000812D0000812D0000812D0000C8
:10008000812D0000812D0000812D0000812D0000B8
:10009000812D0000812D0000812D0000812D0000A8
:1000A000812D0000812D0000812D0000812D000098
:1000B000812D0000812D0000812D0000812D000088
:1000C000812D0000812D0000812D0000812D000078
:1000D000812D0000812D0000812D0000812D000068
:1000E000812D0000812D0000812D0000812D000058
:1000F000812D0000812D0000812D0000812D000048
:10010000812D0000812D0000812D0000812D000037
:10011000812D0000812D0000812D0000812D000027
:10012000812D0000812D0000812D0000812D000017
:10013000812D0000812D0000812D0000812D000007
:10014000812D0000812D0000812D0000812D0000F7
:10015000DD2A0000F92A0000152B0000312B0000D9
:10016000812D000029300000812D0000812D00002C
:10017000812D0000812D0000812D0000812D0000C7
:10018000812D0000812D0000812D0000812D0000B7
:10019000812D0000812D0000812D0000812D0000A7
:1001A000812D0000812D0000812D0000812D000097
:1001B000812D0000812D000065280000574B4CF276
:1001C000205210B5DA814DF62812DA8100BF00BF47
:1001D00002F0DAFD524B4FF010621A63514A9A63F3
:1001E000514ADA63514A136913F4807303D153619E
:1001F0004FF4A85313614E4B9A78110703D59A78A0
:1002000042F008029A704B4B4B482A221A704B4B13
:10021000DA1C121AC11E22F00302994288BF002282
:10022000474902F0B7FC474B4748DA1C121AC11E77
:1002300022F00302994288BF0022002106F0EEFC62
:10024000424943484FF4DE7202F0A4FC414B424A5B
:10025000802103F8011B9342FBD14FF0E0233C4A7D
:10026000C3F8082D3D4B8A221A70A3F5805324222F
:100270005A70A0221A709A799207FCD59A79D406FE
:10028000FCD4374B9A7902F00C02082AFAD10522E5
:100290001A7143225A719A799006FCD5304A9379A3
:1002A0005906FCD51E4B4FF08171596405219964A4
:1002B00020211170917901F00C010C29FAD1294A01
:1002C0005A604FF0E023284A5A6100229A610722BF
:1002D0001A61264AC3F8202D62B602F083FD134B43
:1002E0005B69DA0705D5224802F070FD214B224AEE
:1002F000DA61224B1B785B0609D51E4C1E4BE26966
:100300009A4204D11A4802F061FD0023E36102F031
:1003100041FD06F0F3FC02F035FCFEE7002005404D
:1003200000800440823F04000100002B00D0034005
:1003300000D0074000E00740309EFF1F88A4FF1F49
:1003400054B7000014F1FF1F88A4FF1F0000000035
:100350000094FF1F00E400E05FE400E0005006406E
:1003600000400640C01005003F1901000000202099
:1003700083DB7F6A00E00340A5C3945A00F0074086
:10038000FFFFFFFFFFFFFFFFFFFFFFFFFFFFFFFF7D
:10039000FFFFFFFFFFFFFFFFFFFFFFFFFFFFFFFF6D
:1003A000FFFFFFFFFFFFFFFFFFFFFFFFFFFFFFFF5D
:1003B000FFFFFFFFFFFFFFFFFFFFFFFFFFFFFFFF4D
:1003C000FFFFFFFFFFFFFFFFFFFFFFFFFFFFFFFF3D
:1003D000FFFFFFFFFFFFFFFFFFFFFFFFFFFFFFFF2D
:1003E000FFFFFFFFFFFFFFFFFFFFFFFFFFFFFFFF1D
:1003F000FFFFFFFFFFFFFFFFFFFFFFFFFFFFFFFF0D
:10040000FFFFFFFFFFFFFFFFFFFFFFFFDEF9FFFF23
:100410000548064B1B1AD90F01EBA301491002D066
:10042000034B03B11847704788A4FF1F88A4FF1F20
:100430000000000008B5054B1BB105490548AFF3A6
:100440000080BDE80840FFF7E3BF00BF00000000E8
:1004500088A4FF1F4CB700002DE9F04F91B00B901E
:1004600002F052F80A90002800F08F8602F04CF853
:100470000C90002800F0A4874FF400720021A048DF
:1004800006F0CCFB4FF400729E48002106F0C6FB3C
:100490000B9BD3F818B0DBF80030089303F500523B
:1004A000039292F8543E002B40F01281DDF820A018
:1004B0000D930AF5B755944B009318354FF07C57C0
:1004C000CDF838B095F82930002B00F04686DAF8E0
:1004D00024300693DAF82C3007938C4B01938C4B25
:1004E00002930D9BDAF8286040F2C65202FB03F338
:1004F0000993E0E0DAF8300005F072FE814601462B
:10050000204606F081F8002840F0F585204606F0E8
:100510009BF8804605F068FE0146204605F0AEFDDA
:100520000446DAF83430013BA3EB08035A1C44BFFD
:10053000DAF82C105218002B56F82290C0F2B18530
:1005400056F82320591E002B00F04E87023B56F828
:10055000218048BFDAF82C10059248BF5B1810467E
:1005600056F823306B49039305F092FE0146484646
:1005700005F084FD41468346404605F081FD014675
:10058000584605F07DFD039B83463946184605F025
:100590007FFE0146584605F071FD039B83464946A0
:1005A000184605F06BFD394605F072FE059A049079
:1005B00041461046039205F061FD4FF07F5105F072
:1005C00067FE049B0146184605F05AFD214605F0DA
:1005D0005FFE0146584605F053FD214605F058FEE2
:1005E000494603464046984605F048FD394605F021
:1005F0004FFE0146404605F043FD214605F048FE0A
:10060000039A114605F03CFDE96805F041FE696971
:100610000446286905F03CFE0146204605F030FD01
:10062000A969686105F034FED5E9002393420146CB
:100630000BDA099A1A4401336B60089B03EB8203BF
:10064000D3F8D81705F01CFD0146DAF83430079AC4
:1006500046F823100133934208BF0023CAF8343010
:10066000069821F0004805F013FE019B044653F85C
:10067000040F01932146994605F002FD029BC9F83B
:10068000000053F8040F029321461C4605F0F8FCC5
:1006900020602C6A4046214605F0B6FF20B9696A01
:1006A000204605F0F5FD8046009B019AC5F82080A4
:1006B000934200F04685AC684FF07E51204605F02D
:1006C00099FF00287FF416AF00244FF0010828E7B7
:1006D0000E4BD2F8502E0293069203F500730C4A8B
:1006E00001924FF083490093CDF83CB0069A032A5B
:1006F00000F27F86DFE812F0FC026102D1011000F7
:10070000A0A6FF1FA0A4FF1F9CA8FF1F9CA6FF1F61
:100710009CA4FF1F00002040039EAF49D6F8405E16
:10072000284605F0B5FD03F067FBD6F8441E0446E5
:10073000284605F0A5FC4FF07E51054605F05AFF0E
:10074000002800F02A864FF07E51284605F096FCDE
:10075000039BA249C3F8400E204605F099FD0446CC
:10076000029D214655F8040F029505F089FC019B76
:10077000286053F8040F019321461C4605F080FCC5
:10078000009B2060AB42B1D1DDF83CB09BF86431F6
:10079000934C944E04930BF1D0030196029403936F
:1007A00006940796019B53F8041F0193029B53F88C
:1007B000040F029305F064FC4FF07C5105F068FDD6
:1007C0005C460546D4F850902846494605F056FC4C
:1007D000D4F84CA0616BD4F838800646504605F03A
:1007E00057FD41460746304605F052FD0146384662
:1007F00005F046FC41460746504605F049FD49468E
:1008000005F03EFCE16B8046304605F041FD0146B7
:10081000404605F035FC39460646384605F030FCC2
:10082000514605F02BFC3146E064304605F028FCCB
:10083000494605F023FC216C2065284605F028FD7B
:10084000616C0546384605F023FD0146284605F053
:1008500017FCA16C0546304605F01AFD01462846F6
:1008600005F00EFC039B6834A3420546AAD1049B05
:10087000002B5FD0DBF85C01002105F09DFE002815
:1008800058D1DBF820712846394605F0F7FBDBF834
:100890001C81DBF80411DBF808410646404605F0F0
:1008A000F7FC21468146304605F0F2FC01464846F9
:1008B00005F0E6FB21460446404605F0E9FC3946D2
:1008C00005F0DEFBDBF80C110590304605F0E0FC8E
:1008D000059B0146184605F0D3FB214606462046F7
:1008E00005F0CEFB414605F0C9FB3146CBF81C01B3
:1008F000304605F0C5FB394605F0C0FBDBF81011AA
:10090000CBF82001284605F0C3FCDBF8141105469E
:10091000204605F0BDFC0146284605F0B1FBDBF89A
:1009200018110446304605F0B3FC0146204605F098
:10093000A7FB0546DBF81410284605F0A9FC019A30
:10094000029B1060009A18609A427FF42BAFDBF88C
:1009500070310393DBF87C310193DBF87431089339
:10096000DBF850350493DBF85435069C079E099359
:10097000DBF85C851B4BDFF8689002930BF5805722
:100980000D940E9659F8045F0021284605F01EFECE
:10099000029B53F8046F0293002840F070832C46AA
:1009A0000021304605F012FE002840F06583B24673
:1009B0005146204605F028FE00B95446019B039A93
:1009C00042F823505A1C089B9A4200F06483019B12
:1009D0000593019208E000BFDB0FC9406666663FE1
:1009E0009CA6FF1F9CA4FF1F019BCBF87C31049B9E
:1009F000099A43F8286008F10103934200F0458307
:100A0000CDF818809846CBF85C85D7F8A404214629
:100A100005F0DCFD002800F01282B049204605F008
:100A2000F3FD002840F07483AD48DBF8681105F051
:100A300025FB0446D7F8A814D7F8AC0405F028FC29
:100A40002146054605F0C2FD00B12546D7F890A421
:100A5000C7F8AC54BAF1000F40F38C84D7F88C641B
:100A600033465646AA461D46ADB16C1E0BEB8403B9
:100A70005046D3F8341905F0BDFD002800F0E1819F
:100A8000013EC7F88C44C7F89064002E00F0F08255
:100A90002546002DE9D1F124E8E7039CD4F8408EE7
:100AA0004FF07C51404605F091FDD4F8443E089348
:100AB0004FF08141002800F06684404605F0E8FBD5
:100AC0004FF07E5105F0DAFA0990089C002120468B
:100AD00005F09AFD002800F0F4824FF08241204694
:100AE00005F0D6FB49460746204605F0D1FB0146F6
:100AF00005460D90404605F0C1FA04F0C1FB05F033
:100B0000A3FD29460446404605F0BAFA04F0FAFB74
:100B100005F09AFD844200F3BC83431C0793039BBA
:100B2000DFF8C0B1D3F848AE002529E05BF82020FB
:100B300004905BF821000592114605F09FFA049B92
:100B400001461846049105F04FFB0146304605F07A
:100B500095FA049B0146184605F09AFB059A114642
:100B600005F08EFA0146384605F092FB014628460C
:100B700005F086FA079B01349C42054600F08A8303
:100B8000204605F031FB0146404605F077FA514614
:100B900005F07EFB494605F073FA4FF0854105F0FC
:100BA00077FB064604F0AEFB05F04EFDB0F5006F96
:100BB00000F10101BAD30021D5E7039CD4F84C3EE3
:100BC000D4F8408E0D931946404605F0FFFCD4F84A
:100BD000443E0893002840F0D283434B0993089C7D
:100BE0000021204605F010FD002800F06A824946E9
:100BF000204605F04DFB014605460E90404605F0A7
:100C00003DFA04F03DFB05F01FFD29460446404631
:100C100005F036FA04F076FB05F016FD844200F389
:100C2000B782431C0793039BDFF8C0A0D3F848BEEC
:100C3000002537E05AF820200490411C05925AF80C
:100C40002100114605F01AFA049B0146184604914A
:100C500005F0CAFA0146384605F010FA049B014631
:100C6000184605F015FB059A114605F009FA002112
:100C7000034630461E4605F0BDFC28B130464FF015
:100C80007E5105F0FBF906463146304605F0F8F98D
:100C90000146284605F0F4F9079B01349C420546BD
:100CA00000F07782204605F09FFA0146404605F0A5
:100CB000E5F9594605F0ECFA4946064605F0E0F933
:100CC0004FF0854105F0E4FA074604F01BFB05F000
:100CD000BBFCB0F5006FADD30021DAE752F38437E7
:100CE0000000C0C2EC700000000080BFF090000067
:100CF000039ED6F8408ED6F8444E099441464046AD
:100D000005F0BEF94FF07E5105F0B8F900210890CA
:100D1000204605F079FC002877D04946204605F0AA
:100D2000B7FA01460546404605F0A8F904F0A8FACE
:100D300005F08AFC29460446404605F0A1F904F076
:100D4000E1FA05F081FC844200F34A83431CD6F8A3
:100D500048BEDFF8ACA207930027204605F044FA0E
:100D60000146404605F08AF9594605F091FA494690
:100D7000054605F085F94FF0854105F089FA0646EC
:100D800004F0C0FA05F060FCB0F5006F04F1010456
:100D900033D25AF820200490411C05925AF82100C1
:100DA000114605F06BF9049B01461846049105F0C5
:100DB0001BFA0146304605F061F9049B01461846CE
:100DC00005F066FA059A114605F05AF90021034626
:100DD00028461D4605F00EFC28B128464FF07E51EE
:100DE00005F04CF905464FF04041284605F050FA11
:100DF0000146384605F044F90746079B9C42ACD1B2
:100E00000898394605F03CF908900999404605F0E4
:100E100037F94FF07E51044605F0ECFB002800F056
:100E2000C58220464FF07E5105F028F9039B754995
:100E3000C3F8400E089805F02BFA044690E400240D
:100E4000F8E52B461C465546711CB2460BEB840256
:100E5000F12CC2F83459D7F89C54C2F8FC5CD7F88E
:100E60008824C7F890140BEB820118BF0134D1F825
:100E7000FC1CA5EB010108BF0024F029C7F88C4435
:100E800007D9F12A14BF01320022C7F890A4C7F88D
:100E90008824D7F894440BEB82020BEB8403D2F83E
:100EA0003429079203F5805A1046DAF8C41005F089
:100EB000E5F8D7F8981405F0E3F80134079AC7F875
:100EC0009804F12CCAF8C420C7F8944400F0278194
:100ED0004D4905F091FA0021044605F077FB002802
:100EE00040F0D080494904F1004005F0D1F902F00A
:100EF000E1FFDBF878319A1C059BF02AD4BF9B1ADE
:100F0000F03B002BBCBF089A9B18039A044621466D
:100F100052F8230005F0BCF9DBF85835C9F8000099
:100F20009A1C069BF02AD4BF9B1AF03B002BBCBF37
:100F3000099A9B18049A214652F8230005F0A8F953
:100F4000029B1860009B01354B45C7F89C547FF409
:100F500019AD0D9C0E9E2E492E4A184652F8043F9C
:100F600003F10043904241F8043FF7D10C9BDFF8B6
:100F7000A880DFF8A8A09F1C0A9B4FF07E599D1CFB
:100F80002EE04946584605F03FFB002869D1244928
:100F9000584605F07DF905F057FB00B256F804BF3E
:100FA00025F8020F5946584605F038FB00285DD158
:100FB0004146584605F01EFB002833D049465846A6
:100FC00005F022FB002849D11549584605F060F983
:100FD00005F03AFB00B2009B27F8020F9C4227D095
:100FE00054F804BF5946584605F018FB00283BD179
:100FF0004146584605F0FEFA0028C2D15046CDE7DA
:10100000F09000006666663F000071432D152A3E91
:101010009CA4FF1F9CA6FF1F000080BF0180FFFF54
:1010200000FEFF46009B50469C4227F8020FD7D196
:101030000A9E0B9D00223146284601F0E5FA0C9CE1
:1010400001222146284601F0DFFA304601F0B2FACB
:10105000204611B0BDE8F04F01F0ACBA47F6FF7082
:10106000B9E747F6FF7099E7002097E70020B2E75D
:1010700055460121B246E9E606F1004A98E405F139
:1010800000448DE44FF0004031E74FF0FF3306930A
:101090004FF00008B7E44FF0FF33059300230193AE
:1010A000A2E4DAF82C001A18591E56F8222001443E
:1010B000FFF74CBADDF824800798294604F0E0FFDA
:1010C00009900899404604F0DBFF4FF07E5104463A
:1010D00005F090FA00284AD020464FF07E5104F0E7
:1010E000CDFF039BB749C3F8400E099805F0D0F82F
:1010F0000446FFF735BB484605F0A6FA804605F0E2
:1011000073F80146484604F0B9FF0446FFF709BAF0
:10111000204602F0D5FEAC4905F0BAF885E400237C
:101120000BF5A454C7F8943404340BF5865A002008
:101130005AF8041F04F0A4FF5445F9D1C7F89804E5
:10114000C6E6A249404605F041FA30B12B686A680C
:101150009A42A4BF002385F8293041F218739A44BB
:101160001D440D9B6BB1DDF838B0FFF70FBB039B3F
:101170000998C3F8404E934905F08AF80446FFF7F2
:10118000EFBA01230D93FFF79DB911B0BDE8F08FC1
:1011900000252946099804F073FF0D9907904046F1
:1011A00004F06CFF0E9C2146824604F067FF04F0B9
:1011B00067F805F049FA21460446504604F060FFFE
:1011C00004F0A0F805F040FA844200F30B81431CC0
:1011D0000593039BCDF82480D3F848BE0027204612
:1011E00005F002F80146504604F048FF594605F064
:1011F0004FF84946054604F043FF4FF0854105F09E
:1012000047F8064604F07EF805F01EFAB0F5006FC8
:1012100004F1010432D26E4A049052F82080411C3D
:1012200052F82100414604F029FF049B014618466C
:10123000049104F0D9FF0146304604F01FFF049BDF
:101240000146184605F024F8414604F019FF002134
:10125000034628461D4605F0CDF928B128464FF033
:101260007E5104F00BFF05464FF04041284605F043
:101270000FF80146384604F003FF0746059B9C42E1
:10128000ADD1DDF824800798394604F0F9FE0990C5
:1012900017E700250999284604F0F2FE4FF07C512B
:1012A0000790404604F0EAFE0D9C2146824604F079
:1012B000E5FE03F0E5FF05F0C7F921460446504678
:1012C00004F0DEFE04F01EF805F0BEF9844207F1DA
:1012D000004700F38380431C0593039BCDF82480D3
:1012E000D3F848BE002528E03A4A049052F82080FE
:1012F00052F82100414604F0C1FE049B0146184605
:10130000049104F071FF0146304604F0B7FE049BDF
:101310000146184604F0BCFF414604F0B1FE014608
:10132000384604F0B5FF0146284604F0A9FE059BA7
:1013300001349C4205463FF4BDAE204604F054FF04
:101340000146504604F09AFE594604F0A1FF494672
:1013500004F096FE4FF0854104F09AFF064603F034
:10136000D1FF05F071F9B0F5006F00F10101BBD3B9
:101370000021D5E7D7F88C440AF1010166E54FF06A
:101380007E5309932BE4404604F082FF0146124845
:1013900004F074FE0990FFF798BB20460949C6F88F
:1013A000405E04F075FF0446FFF7DAB9039B089826
:1013B000C3F8404E034904F06BFF0446FFF7D0B971
:1013C0000A9846E66666663FC1A8C04017B7D1389E
:1013D000F0900000EC7000000000404000256BE63B
:1013E00000270DE500274EE7DAF82C000144FFF74F
:1013F000ADB8039DD5F8441ED5F8400E04F040FE6C
:101400004FF07E51044605F0F5F850B120464FF0FC
:101410007E5104F033FE039B0024C3F8400EFFF717
:101420009FB9C5F8404E0024FFF79AB92DE9F8435B
:1014300085687F490446284605F0C8F8D4F800902E
:10144000002864D0DFF8E881E7687949384605F07C
:10145000BDF8002858D139464FF07E5004F0CCFF3B
:1014600006464946404604F0C7FF724904F010FFA3
:1014700002F0FAFC63680546082B2AD8DFE803F07F
:101480007D848D949DA7B305540020696A4904F0BA
:10149000B3FF0146694802F005FC074602F056FC1E
:1014A0000146284604F0A8FF4FF07E584146C4F894
:1014B00020800546384604F0E1FD314604F0E8FEA0
:1014C00039466062384604F0E3FE414604F0D6FD3A
:1014D000A0623146284604F0D3FD294604F0D8FE28
:1014E0004FF07E5104F0CCFD01464FF07E5004F0E9
:1014F00083FF2946606104F0CBFE2946A06104F019
:10150000C7FEE061BDE8F8834D4E494FA9E74D495C
:10151000484604F0BDFE80460146284605F074F8B2
:10152000002891D1A8468FE72069434904F064FF61
:101530000146424802F0B6FB074602F007FC0146AE
:10154000284604F0A5FE39460546384604F0A0FEBC
:101550003946804620624FF07E5004F08FFD3146C0
:1015600004F096FE394604F093FE414660624FF067
:101570007E5004F083FDA062ABE700234FF07E5263
:1015800023626362A262A4E72F4BA3624FF07E52F4
:1015900006F10041616222629BE700234FF07E5218
:1015A00023626262A36294E74FF07E52002306F149
:1015B000004161622262A3628BE74FF07E524FF0DE
:1015C000404306F1004161622262A36281E74FF06D
:1015D0007E5323624FF04041304604F059FE002311
:1015E0006062A36275E72069134904F005FF0146B4
:1015F000124802F057FB80460146384604F048FE88
:1016000001464FF07E5004F0F7FE4FF07E5706463D
:1016100041462762404604F03BFE394604F02EFD69
:10162000314604F035FE00236062A36251E700BF3B
:101630006F12833ADB0F4940000020420000204136
:10164000FFFF794448E1FA3E000080BF2DE9F04FEA
:1016500008488BB075220146002301E011F8012FE4
:101660000133002AFAD1044A044C5A4075216123FF
:1016700009E000BFC970000067E6096A512D9ECCE1
:101680000B4610F8011F534004FB03F34FEAF342EB
:101690000029F5D1D84BD949D94FDA4CDFF86893F6
:1016A000DFF868B382EA124202FB03F383EA5333A2
:1016B00001FB03F383EA13431C440FCF0DF10C0C21
:1016C000ACE80F003B68CCF800304FF0000AC84689
:1016D00009F1380509F2D476CD4B0393CD4B049331
:1016E000CD4B069344F0010284EAD43302FB03F3AA
:1016F00043F03D0183EAD31201FB0232534083EAF7
:101700009333C9F800400DF10C0E48F8043FC34B69
:1017100045F82C3CBEE80F00A5F1240C45F8288CB8
:10172000ACE80F00DEF80030CCF800304FF4F47372
:1017300045F80C3C4FF4F2732F1F45F8083C45F870
:10174000105C47F804AFBE42FBD1002755F82C0CC3
:1017500045F8047C594604F09BFD0146B04804F06E
:101760004BFE02F077FA41F2187304F1DA44C6F83E
:10177000480F1D441E44AB4B04F52D1404F567546B
:10178000984504F13504A7D1A74BDFF8A0E2DFF8B4
:101790008CB2C3F83CBE0322C3F8502EBEE80F0043
:1017A00003AE01960FC69EE8070086E80700DDF845
:1017B00004E09F4CDFF87C829F4DBEE80F0004F1EF
:1017C000040CACE80F0096E807008CE80700204600
:1017D000012640F820BFFFF729FE666204F12000D1
:1017E000FFF724FE954B964AA362E26204F12000C3
:1017F000C4F830A0FFF71AFE204604F5805940F8DF
:1018000054BFFFF713FEA66504F15400FFF70EFE68
:101810008A4B8B4AE365226604F15400C4F864A045
:10182000FFF704FE204640F888BFFFF7FFFDC4F82D
:101830008C6004F18800FFF7F9FD804B804AC4F802
:101840009030C4F8942004F18800C4F898A0FFF701
:10185000EDFD204640F8BCBFFFF7E8FDC4F8C060CE
:1018600004F1BC00FFF7E2FD754A744BC4F8C820D0
:10187000C4F8C43004F1BC00C4F8CCA0FFF7D6FD16
:10188000204640F8F0BFFFF7D1FD0623C4F8F4303E
:1018900004F1F0001E46FFF7C9FD04F59270C4F88C
:1018A00024B1FFF7C3FDC4F8286104F59270FFF777
:1018B000BDFD4FF00103634E84F86431624BC4F800
:1018C0005861C4F86031C4F8F860C4F8FC3004F121
:1018D000F000C4F85CA1C4F800A1FFF7A7FD5A4BC3
:1018E000C4F82C61C4F8303104F59270C4F834A106
:1018F000FFF79CFD4FF08243C4F85C311E46C4F8EC
:10190000003104F1F000C4F81CA1C4F820A1C4F80F
:1019100050A1C4F854A1FFF789FD04F59270C4F8F2
:101920003461FFF783FD04F5AC63C4F85035F4234C
:1019300004F5C070C4F87431C4F85435F023C4F809
:101940007831C4F85835C4F870014FF474723946D0
:10195000C9F8A0B405F062F904F5AC60C4F87C7174
:101960004FF47472394605F059F9C4F85C754FF4B8
:1019700071723946C9F88874C9F88C74C9F89074C2
:1019800009F1C40005F04AF9304BC4F86C314FF04E
:101990003F43C4F868312E4BC9F8A4342D4B2E4870
:1019A000C9F898A4C9F8ACA4C9F89474C9F89C748F
:1019B000C9F8A8340C2100F033FDD8F8004001F03C
:1019C000D1FF2B786BB1254B1B78DB0709D5244A57
:1019D000D8F8003012689B1A0E2B02D90BB0BDE864
:1019E000F08FD8F800302A781B1BDAB3B3F5FA6F02
:1019F000F4D801F0B7FFE2E76BCAEB8535AEB2C2AF
:101A000004B10000F5792B6D00A9FF1FCDCC4C3D32
:101A10009A99993EAE47613E00004040A6552C473A
:101A2000000080BF08A9FF1F00C9FF1F18B10000F8
:101A300058D7FF1FC0ECFF1FB1EDFF1F00009644F9
:101A4000F4FD343F00007A459A99993F0AD7A33CA8
:101A5000F9AD713FC5B57F3F0082FF1FD8EDFF1F75
:101A6000DCEDFF1F40F2EE229342C2D90BB0BDE87D
:101A7000F08F00BF2DE9F04F066889B00F46029045
:101A80008E493046154604F0B7FC8D49044604F0F3
:101A9000BBFD00B98A4C2146384604F0B5FD58B16B
:101AA0004FF07851304604F0F3FB3946044604F019
:101AB0008DFD002800F07281029800F58057026ABF
:101AC000049740F20113C7F80847A7F8143742B14A
:101AD00004469200C069002105F0A0F82668D7F8F6
:101AE0000847029F0023BB62049B4FF00008214679
:101AF000C3F80087304604F07FFCBF68059041467C
:101B0000384604F063FD002840F0C0814FF07E515C
:101B1000384604F079FD08B14FF07E5739466948E0
:101B200002F0C0F8684904F0B3FB68490746304644
:101B300004F0AEFB80460146384604F065FD00B176
:101B400047466349384604F0A3FB314604F054FC91
:101B500002F080F801464FF07E5004F08FFA049FA7
:101B60000146C7F8F8064FF07E5004F087FA59494D
:101B7000C7F8FC068046204604F08AFB314604F094
:101B80003BFC064602F038F98146304602F002F985
:101B90000146404604F07CFB01464FF07E5004F0C5
:101BA0006DFA49460746404604F072FB394602F09A
:101BB0004FF84FF07E518046059804F05FFA3146A9
:101BC0000746404604F018FC0146384604F056FA31
:101BD0004FF07E51064604F0F9FC08B14FF07E56F6
:101BE000049B3D49C3F8F466029B5E69304604F0ED
:101BF000EDFC002840F0D0803849304604F004FD68
:101C0000002840F0CD802146304604F041FB0146DB
:101C1000334804F0F1FB0146324802F043F8049BDC
:101C20004FF07C51C3F80407059804F029FA04F03A
:101C30000BFDB0F5727FA8BF4FF472700228034607
:101C4000B8BF02230393029BD3F8109000214846AB
:101C500004F0BCFC002840F01B814FF07E51484648
:101C600004F0D2FC002800F09D80002301934FF087
:101C70007E590021284604F0A9FC002840F09F80EE
:101C80004FF07E51284604F0BFFC002800F006818A
:101C9000DFF85480029B5A680692146804F1DA4413
:101CA00004F52D1403F2CC7304F56754353407930F
:101CB0004FF03E5B1E46012700253CE00000F0434C
:101CC0000000C842610B363D00A08C466666E63EC9
:101CD000DB0FC9C0DB0FC940CDCC4C3D0000A0419B
:101CE000000040C0000020419A99193F012D0CBF0F
:101CF0006D490021484604F0CBFA6C4904F0C8FA5B
:101D000001990090504604F0C3FA009A014610462B
:101D100004F0B6F9414604F0BBFA039B3060BB42C5
:101D200050DD04F1DA4404F52D1404F5675401354F
:101D300035340137043644F0010384EAD43003FB20
:101D400000F040F03D0280EAD01302FB030358404C
:101D500080EA903004F044FA594604F099FA0146BA
:101D600004F08EF94FF07E5104F088F98246002D80
:101D7000BCD14E49484604F08BFA01990090504678
:101D800004F086FA009A0146104604F079F94146BB
:101D900004F07EFA3060C4E7454E34E73C468BE6FB
:101DA000444E30E749464FF07E5004F067F9002179
:101DB0000190284604F00AFC00283FF461AF4FF080
:101DC000000867E7069B1C60029BDC6803EB850547
:101DD0000021C5F8CC07204604F0F8FB002853D1B9
:101DE0003549204604F010FC00B1334C05992046DB
:101DF00004F04EFA4FF07C5104F042F904F024FC58
:101E0000041E3FDD039B1E19B6F5727FA8BF4FF479
:101E100072769E420ADD039BF21A03F2F310029BD4
:101E2000920003EB8000002104F0F8FEA64216DDCC
:101E3000079B029A03EB8407C4F5F9740134344418
:101E400006F2F31302EB840502EB830454F8040D4D
:101E500055F8041D04F012F9BC422060F6D1049A32
:101E60001649C2F8EC660023C2F8F036404604F08A
:101E7000CBFB08B9DFF84480049BC3F80C8709B09A
:101E8000BDE8F08F039EEAE70024AFE7474645E64A
:101E90004FF07E5301934FF00009EAE608492846C7
:101EA00004F0F6F98046F5E6CDCCCC3ECDCCCC3F67
:101EB000CDCC4C3D0000A0413333733F0AD7233CC7
:101EC0009A99193F10B5114C11482368594201F0F5
:101ED000030103F0030258BF4A42002B50F82210BE
:101EE0000C4A03F0010003F1010323600A4BB8BF61
:101EF000404241F2187C0CFB0030FFF7BBFDBDE80F
:101F000010404FF4C87000F0BFBF00BF08ECFF1FC7
:101F1000F4B000006666663F0CA9FF1F8D488E4A2C
:101F20002DE9F04F0146002441F8044B8B4FDFF8B8
:101F300030A2DFF83092DFF83082DFF830E2DFF8ED
:101F400030B2446083B003464C6000254FF0804CB3
:101F50004FF07E56002441F21871DF60C3F814A0E0
:101F6000C3F81890DD61C3F82080C3F824E01C6139
:101F70009C62DC621C635C630B4442F82C4C42F8AC
:101F8000284C42F824CC42F8206C42F81C5C42F801
:101F9000185C42F8145C42F810BC42F80C5C42F841
:101FA000085C02F8044C02F8034C0A447149994257
:101FB000D0D1DFF8C4810D61A1F56363C8F80000DA
:101FC0004FF07C50C3F84C0E6C4BC8F804306C4B8F
:101FD000C8F808304FF08243C8F80C30694BC8F895
:101FE00010304FF03F43C8F81830674B4D618D619A
:101FF000C8F81C30CF600C6281F82440D0226349BD
:10200000C8F8146008F1200000F0C4FD604968229F
:1020100008F1F00000F0BEFD5E4BC8F858315E4B91
:10202000C8F868315D4BC8F86C31012388F8643119
:10203000C8F85C514FF472722146C8F86061C8F864
:102040007041C8F87441C8F87841C8F87C41C8F8B4
:102050005045C8F85445C8F85845C8F85C4508F6D6
:10206000341008F5805904F0D9FD4FF472722146FE
:1020700008F6FC4004F0D2FD4FF47172214609F1DC
:10208000C40004F0CBFD464B464AC9F89854C9F841
:10209000A854C9F8AC541D684349C9F8A074C9F8DC
:1020A0008844C9F88C44C9F89044C9F89444C9F8E4
:1020B0009C44C9F8A464116014611481D460002D9B
:1020C00044D02B4619465B69002BFBD14A61374B44
:1020D0001360374BC2F81880002151615160917232
:1020E000012003F1180258721A611972D9609961BE
:1020F0002A466D69002DFBD153612E4A5D615D60FA
:102100009D721A602A4800F0F9F82B4800F0AAFAEC
:10211000274B244900952A46274800F017FB274AF9
:102120002749254801F08EFD264800F09BFA012240
:1021300000921C491E4B234800F008FB1F4A20490F
:10214000204803B0BDE8F04F01F07CBD1A60154691
:10215000BDE700BF00A9FF1F24C0FF1F00803B4751
:102160003333B33E295C8F3E000020406666663FF5
:102170000000DC4330D7FF1F58D7FF1F00009644F4
:1021800000007A459A99993F0AD7A33C34B10000E0
:1021900004B2000000007A449A9999BECDCC4C3D1F
:1021A0002CECFF1FBCA8FF1FDC700000E8700000D3
:1021B000A0A8FF1F74B20000D8A8FF1F309EFF1F09
:1021C00001280000ECA8FF1F10B5002100F03EFA26
:1021D00098B1034672B60C4A106878B10B490C6886
:1021E0004CB114600A4A0B600024146062B6BDE86A
:1021F000104000F0DFB90B6062B610BD04491360F7
:10220000086062B610BD00BF1CECFF1F20ECFF1F72
:102210000CECFF1F70B52E4B2E4A196818792E4C06
:1022200009682E4BD0772E4D20682E68A3F50072DA
:10223000994238BF1A4680B306F1020C00EB4C0CF1
:1022400010320CF1400E3CF8023B83F40043103294
:10225000190A7831DBB2F44542F8201C42F81C3CE4
:1022600042F8181C42F8143CEDD120367F2E0BD8D2
:102270002E601C4B1B7833B11B4A13780133DBB241
:10228000032B1BD8137070BD00262E6000F092F94E
:10229000164B1A6822601E60EBE702F1100102F58E
:1022A0000473F82241F8102C41F80C0C41F8082C6A
:1022B00041F8040C10319942F4D1DAE74FF0E023F1
:1022C00000204FF080411070C3F8081270BD00BFAD
:1022D00014ECFF1F008000401CECFF1F3090FF1F1C
:1022E0000CECFF1F11ECFF1F10ECFF1F20ECFF1F79
:1022F00010B5044600F050FB204610BD38B52C4800
:102300002C4D012100F0EAFA2B492C482C4B0022DD
:102310000A6040F21F210260426081606921C16051
:1023200028214161082101604FF4517119635963FB
:10233000782101612B46826105F58060C3E90012B6
:1023400008338342FAD11A4C1E49236859601E494A
:10235000D9601E491D6019618021D982D9832179F4
:102360009A61082001F180419860988201F504315A
:1023700006209883A0200A70154B08702279DA761F
:1023800000F058FA2279134C13492070531102F1CE
:10239000100003F13823114C41F8204040339B00DA
:1023A00002F01F02012101FA02F21A6038BD00BFDB
:1023B00014ECFF1F308EFF1F1CECFF1F009003402A
:1023C000009004400400220200FCFFFF1090034034
:1023D0000080004011ECFF1F0094FF1F1522000039
:1023E000024A0349034801F02DBC00BF309EFF1F85
:1023F000F122000014ECFF1F4FF0E0234FF0804269
:10240000C3F80822704700BF036818470B680360D1
:10241000704700BF0B680360704700BF704700BF84
:1024200070B5C0298E468CB00B4628BF4FF0C00E49
:1024300072B62D492D4C2E4A086000211180216072
:102440006160A160E16021616161C3B10A468C46AF
:10245000012501E054F82C1002F01F0305FA03F3E4
:1024600001320B43964544F82C304FEA521CF1D808
:102470000023438001339E4500F58270F9D81D4C3E
:10248000257815B162B60CB070BD082000F09CFC38
:10249000194B05608022027106460093069302A93B
:1024A000164B029308A8FFF7B1FF154A06A930465C
:1024B00000F0A6FA069B08A8DB689847009B02A8D4
:1024C000DB6898472378002BDCD10E4B4FF0E022DD
:1024D000D02083F85E004FF080410123C2F808113C
:1024E000237062B60CB070BD24ECFF1F3CECFF1FE4
:1024F00038ECFF1F34ECFF1F78B20000F923000016
:10250000FF97010000E400E030B472B6244D254C82
:102510002A8804F1180104EB82038B423BD204F1B8
:102520001701C91A02F1010C0CEB910C02E0013207
:10253000624530D0184653F8041B0029F7D0B1FA91
:1025400081FC4FF0004323FA0CF321EA0301016000
:1025500001B90132144B2A801A88013291B21980D4
:1025600062B6001B801000EB801041F67C7303EB19
:10257000C013CCEB0C60CCEB801C0C4803EB8C0341
:1025800000680124C4541844094B1C88944238BF85
:10259000198030BC704762B6002030BC704700BF65
:1025A00038ECFF1F3CECFF1F28ECFF1F24ECFF1F43
:1025B00030ECFF1F428872B60378012B03D9013B30
:1025C000037062B6704751090C48D24302F01F02F3
:1025D0004FF0004310B4D340094C50F8212013436E
:1025E000228840F821308A42064A88BF2180138819
:1025F000013B138062B610BC704700BF3CECFF1F6C
:1026000038ECFF1F28ECFF1FC36813B91CE0DB6820
:10261000DBB1187A9042FAD110B4586893F809C027
:10262000006950F82C404CB1DB682BB1187A90420D
:10263000F3D0DB68002BF9D110BC704740F82C10A8
:10264000087801300870EFE770477047437A8B4293
:1026500006D90369002253F8210043F8212070476E
:102660000020704704490022026042600281027427
:102670000A68C2600860704754ECFF1F037CFBB916
:1026800003680146FBB14368EBB1427A5B7A9A4238
:102690001CD230B472B62B4B1C68ECB1E368C3B1EA
:1026A000486801E0DB68A3B15A688242FAD193F826
:1026B00009C04A7A9445F5D162B6042030BC70470F
:1026C000012062B67047032062B67047022062B6EE
:1026D00070476469002CE1D11B4C236843B19942D7
:1026E00002D10BE0994207D01A46DB68002BF9D1E2
:1026F000052062B630BC704702F10C040D68E86832
:10270000E8B1C36823B908E0DA68184632B1134665
:102710008142F9D162B60620D0E70346D960CB6882
:1027200023600020C860AA7A01231A44AA724A686A
:102730002B72947A13721C4494720B74D9E7E9607B
:10274000EDE700BF2CECFF1F54ECFF1F10B5047C1D
:102750009DF808E00CB1012010BD027280F809E07C
:10276000BDE81040C0E90013FFF788BF037C002BD1
:1027700037D010B54368427A5B7A9A42044638D221
:1027800072B60168CB68002B2DD0984233D01A4620
:10279000DB689C422AD0002BF9D16268607A136909
:1027A00053F8200048B1FFF705FF72B66268617AFE
:1027B0001369002043F8210021688B7A013BDBB2CA
:1027C0008B7203B90B72937A013BDBB2937203B93C
:1027D00013720A4B00201A682074E2601C6062B613
:1027E00010BD0120704762B6032010BDE368D360BE
:1027F000D3E7022010BDC368CB60CEE754ECFF1FC7
:1028000010B50446FFF7B2FF094A136843B19C4272
:1028100002D108E09C4205D01A46DB68002BF9D1B2
:10282000204610BD0C32E3681360204610BD00BF87
:1028300054ECFF1F094B1A7872B909484FF0E02198
:102840004FF0D00C80F85EC001224FF08040C1F8FC
:10285000080110461A7070470020704734ECFF1FC3
:1028600000E400E04FF0E022F8B5D2F8FC3D174D4F
:10287000174943F08073C2F8FC3D2B680C6843F0A5
:1028800001032B606E689CB1237A20466BB12368EC
:102890006F681B6898476B68E188DB1BC3F30F12F6
:1028A000B1EB131FA28038BFE2806469002CEBD12A
:1028B000064B084A5B681088074C9B1BC3F30F113B
:1028C000B0EB131F218038BF1180F8BD001000E06D
:1028D0002CECFF1F36ECFF1F32ECFF1F10B472B65A
:1028E00021B9026812B103790F2B41D9284C2188F4
:1028F000002341FA03F212F0010208D00133102B39
:10290000F7D162B600220260037110BC70474FF02D
:10291000010C0CFA03FC41EA0C01218062B61D494E
:102920005FFA83FC80F804C00C6C44F002040C6471
:10293000CC6B44F00204CC6303F10073A1F5802159
:10294000822403F590630C605B0181F81AC081F862
:102950001EC081F818C081F81FC010BC0360C3E915
:102960000022C3E90222C3E90422C3E90622704718
:10297000074C218841FA03FC1CF0010FB8D003F189
:10298000007303F59063B2EB431FB1D162B6BCE7AD
:1029900058ECFF1F0080044003790F2B11D8094A1F
:1029A000937672B6084990F804C00B88012202FAA7
:1029B0000CF223EA02030B8062B61022002302719C
:1029C000036070470080004058ECFF1F704700BF55
:1029D000704700BF704700BF704700BF704700BF1F
:1029E00038B5064CA4F1600554F8083C2046DB6875
:1029F000183C9847AC42F7D138BD00BFB0ECFF1F80
:102A00002DE9F043036887B004469046002B3ED082
:102A100000229A600122DA60294DDFF8A8901D4457
:102A20002D1151F8083B009305EB4506F60002A86E
:102A30005B68984706F1080759F806304F44384656
:102A4000DB689847009B204A009202A949F80630AB
:102A500038469B689847009B02A8DB689847236824
:102A60001A49C3F8008003229A6005F14402531109
:102A700003F1382320796854403301209B0002F091
:102A80001F0200FA02F21A6007B0BDE8F083104A94
:102A9000D36B43F40003D36300BF0E4B01221A60D3
:102AA00003F580730C4A036098680028B4D0103393
:102AB00093422360F8D10020206007B0BDE8F08386
:102AC000008FFCBF60ECFF1F88B2000044E400E010
:102AD0000080044000700340407103400448054AF0
:102AE00050F8083B01211B68C2F80C11184700BFC1
:102AF00060ECFF1F007003400448054A8369012110
:102B00001B68C2F81C112030184700BF60ECFF1F83
:102B1000007003400448054A036B01211B68C2F89A
:102B20002C113830184700BF60ECFF1F00700340C5
:102B30000448054A836C01211B68C2F83C115030DF
:102B4000184700BF60ECFF1F00700340084B0948A6
:102B5000094A0A4910B40A4C1C6098609C611862CA
:102B60001C6398639C64186510BC002001F06AB86F
:102B700060ECFF1FCD290000309EFF1FE1290000FF
:102B800078B2000008B5FEF761FDFFF79BF900F091
:102B9000E9FEFAE701B441EA000313F003036FD141
:102BA000403A41D351F8043B40F8043B51F8043B10
:102BB00040F8043B51F8043B40F8043B51F8043B17
:102BC00040F8043B51F8043B40F8043B51F8043B07
:102BD00040F8043B51F8043B40F8043B51F8043BF7
:102BE00040F8043B51F8043B40F8043B51F8043BE7
:102BF00040F8043B51F8043B40F8043B51F8043BD7
:102C000040F8043B51F8043B40F8043B51F8043BC6
:102C100040F8043B51F8043B40F8043B51F8043BB6
:102C200040F8043B403ABDD2303211D351F8043B56
:102C300040F8043B51F8043B40F8043B51F8043B96
:102C400040F8043B51F8043B40F8043B103AEDD205
:102C50000C3205D351F8043B40F8043B043AF9D256
:102C600004320AD0D2071CBF11F8013B00F8013B27
:102C700003D30B7803704B78437001BC704700BFDF
:102C80000C2A4AD310F0030311D0C3F10403D21A63
:102C9000DB071CBF11F8013B00F8013B07D311F81B
:102CA000013B00F8013B11F8013B00F8013B11F03A
:102CB00003033FF475AF30B4043AC91AC3F1040CEE
:102CC00051F8044B022B19D0032B0BD0240A51F8D6
:102CD000043B1D0644EA050440F8044B1C46043A34
:102CE000F4D216E0240E51F8043B1D0244EA050418
:102CF00040F8044B1C46043AF4D20AE0240C51F884
:102D0000043B1D0444EA050440F8044B1C46043A05
:102D1000F4D20432B1EB0C0130BC043AA0D3013A36
:102D200011F8013B00F8013BF9D20B7803704B78A6
:102D300043708B78837001BC704700BF08B50F4C9F
:102D4000636B58030DD4636B59050FD4636B1A057D
:102D500011D4636BDB04F3D500F012F8636B5803F6
:102D6000F1D500F061F9636B5905EFD500F008F873
:102D7000636B1A05EDD500F003F8EAE70080044024
:102D800008B5FFF7DBFF00BF014B10221A80704728
:102D900000200540704700BF094A08B50346106887
:102DA00033B169460344A1F580518B4201D21360CF
:102DB00008BD03F09DFF0C2303604FF0FF3008BDFA
:102DC000349EFF1FFEE700BF03F064BC034B0022EC
:102DD00010215A615A6018605961704700D0034051
:102DE000704700BFF0B54FF0E0244FF400054FF0FE
:102DF000807CC4F80851C4F808C14FF0007CC4F8C6
:102E000008C11D4A1D481E494FF0806CC4F808C116
:102E10002823002748F6FF7609254FF0006CC4F8F8
:102E200008C183B057609660D3605361D361536229
:102E3000D3625363D3635364156047608660C36095
:102E4000436105604F608E60CB604B610D6000F0A8
:102E50002DFEFFF7C5FF0B4C23680093009B132B3F
:102E6000FAD900F09DFC23680193019BB3F5967F8E
:102E7000F9D303B0F0BD00BF0080034000900340D1
:102E800000800B40C0ECFF1F2DE9F843044672B6EA
:102E9000204F4FF0E02293693D68D2F8042D62B6CE
:102EA000520102D5322B88BF01350CB9BDE8F88339
:102EB000DFF86490DFF86480A9EB0303A8FB032329
:102EC0004FF47A7202FB05F505EB13154FF0E0267F
:102ED00072B6B1693A68D6F804CD62B6A9EB0103BF
:102EE000A8FB03031CF0806FC5EB13134FF47A703B
:102EF00002D0322988BF013200FB0233B3F57A7F5A
:102F000004D3013CD2D005F57A75E1E700F02AFD43
:102F1000DEE700BFC0ECFF1F3F190100398EE33828
:102F200010B472B6194A1A4C042312F8011B09078F
:102F300043F0010C05D554F8331061B154F83C103E
:102F4000B9B10433182BF0D162B6124B00221A70BB
:102F500010BC00F089BC0F4904EBC302083050607C
:102F60000A780D4844F83300013A0A7062B610BC82
:102F70007047084A094904EBCC03083058601378BD
:102F800044F83C10013B137062B6F0E7FCB200005D
:102F90000080FF1FBEEDFF1F88004000C8004000FA
:102FA000421E042A0ED81C4B400140F0100010B401
:102FB000034472B6194CA05C03281CD8DFE800F06B
:102FC0001315031870470520A05413F0080F088844
:102FD00014BFC8228822083142EA004259601A60B0
:102FE00062B610BC70470320EEE708330220EBE71F
:102FF00008330420E8E70A4B53F8220038B1094BA4
:1030000053F82200416043F8221062B6E9E743F822
:103010002210044BF7E700BF0080FF1FACEDFF1F3D
:1030200084EDFF1F98EDFF1F2DE9F04FDFF8D0A2D0
:10303000DFF8D0B285B03DE0B34D9E0805EBC60782
:10304000013A796813F00803D4B2A1F1080040F006
:10305000BA8055F836204FEA124C120C21F808CCF1
:1030600000F0A98021F8063C41F8043CA74B53F836
:103070002420002A00F00382A54B53F8242050603E
:1030800043F82400A34B33F81420944423F814C0CD
:1030900000F0CAFB002800F0EB8117F0080F9E4BF0
:1030A00000F1080018BF5B46786045F83630082309
:1030B0008AF880309AF880305907DCB21DD5974BDA
:1030C0001B78BBB196490A7802F0FF032AB1013B95
:1030D000DBB20B70002B00F0488392490A7802F0B3
:1030E000FF032AB1013BDBB20B70002B00F0ED8136
:1030F00000F0E2FB04238AF8803014F0080200F0AC
:10310000CC819AF89020D3B2120995D1DFF8F891CA
:103110009B0809EBC30459F833006468C0F38300CB
:1031200009287CD00FD80138012808D87E4A158894
:1031300042F22100854200F0FB8149F833B00123BF
:103140008AF89430B3E70D28F9D1D4E90007774D18
:1031500049F833B0744E764CC9F8102083B240F26F
:10316000816CC9F818202A6063454FF00102C6E956
:103170000007227000F2FF80B3F5D06F80F0CB82A1
:10318000B3F5817F00F0268240F2DE8040F2023209
:1031900093427BD107F07F07052F00F20881020CD4
:1031A00040F00581634911F8273043F0020301F82C
:1031B0002730134670E017F0080F574B18BF5B46D7
:1031C00045F8363073E700F04FFB5B495B4A51F836
:1031D0002430002B00F05781586841F82400115D1D
:1031E00003F108007860032905D8DFE801F0120F29
:1031F0001502042111551A8817F0080F14BFC823AF
:10320000882343EA024345F8363050E7022111553E
:10321000F1E703211155EEE705211155EBE7434D89
:103220002A683AB34649424C0F88464894F800E071
:103230000678402F3B4628BF4023BEF1000F8EF09A
:10324000010E84F800E046F0020486F001060670E4
:1032500009EBC400426014BFC820882040EA034044
:103260001A44FB1A9BB249F834000B80002B00F083
:1032700036812A602C4B1A88B2F5A06F7FF45FAFBD
:103280009A788AF8982000225A7058E7B3F5A06F10
:1032900040F08D8000221346B6F806C029489445B8
:1032A00028BF944667460278402F28BF402742F047
:1032B000020E3E0409EBCE0846F0C806C8F80430FA
:1032C00049F83E6000263B442670BCEB070782F0BD
:1032D0000106067040F01181BCF13F0F4FF001056F
:1032E00009D946F00206027009EBC6022570536048
:1032F000882349F8363001238AF894301FE700BF4D
:1033000000200740C80040000080FF1F54EDFF1F51
:1033100068EDFF1FB4EDFF1F88004000B1EDFF1FF7
:10332000B2EDFF1FE0EDFF1F7CEDFF1F48EDFF1F1B
:1033300045EDFF1FC020074084EDFF1FACEDFF1FD0
:1033400046EDFF1F44EDFF1F802B00F08B81822B89
:103350002DD107F07F07052F29D8A74A0023138016
:10336000A64B13F827309F0740F1FC81012313700F
:10337000A14B022290E742F2210C6345BBD01DD93C
:1033800042F2212293420DD1BFB2002F82D19C4B39
:103390001A689C4B1A609C4BC0F3074000221870BF
:1033A000134679E742F2213293423FF473AF0F2381
:1033B0008AF8C03001238AF89430C0E6B3F5086F6C
:1033C00000F04A81B3F5106FF1D1904BC0F3074084
:1033D0000425187059F835301A0606D40135182D11
:1033E0000CD059F835301A06F8D509EBC50301356C
:1033F0005868083800F038FA182DF2D1844A854B05
:103400000292854A0192854E854ADFF8188203941C
:10341000009200251C4656F8047B2FB138467F6881
:1034200000F022FA002FF9D1009BD8F8007043F881
:10343000045B46F8045C00932FB138467F6800F0C7
:1034400013FA002FF9D1029B48F8045B43F8045BA0
:103450000293019B23F8025B01932378023B032B29
:1034600000F20981DFE813F03F0104013F0104018C
:103470006D4A45F8360013780133137017E643F8A8
:103480002400674BFCE5115D022926D07FF60FAEC4
:1034900003291DD10123135509E6E0076ED4210647
:1034A00021D4A20708D5614B93F888200221D2B21B
:1034B00083F8882083F88010E30603D55B4B102245
:1034C00083F8802005B0BDE8F08F00F027FA0FE602
:1034D00017F0080F14BF032302231355E7E53F2F0E
:1034E00098BF0022C5E6514B80220D2183F8C01001
:1034F00083F88020A207DFD5D5E746F002060270E8
:10350000402F09EBC6003A4628BF40224360100412
:10351000134440F088000121BA1A49F8360021709E
:1035200055D02B60424B1A8001238AF8943006E66E
:1035300092885AB93F4AE51D14F8011B02F8011F91
:10354000AC42F9D13C4A1268862A3CD03B4C3C48FC
:1035500025780278002D85F00105257042F00204DF
:1035600082F00102027009EBC4024FF000005060CB
:1035700014BFC822882249F83420DEE52B4B30489E
:103580003049314C022583F8945002702F480C606A
:103590002F4D48608C600D24CD60FF200A618A6148
:1035A00083F8C04001219F2483F8880083F88000BD
:1035B00083F8982083F88C0083F8844083F8941073
:1035C00005B0BDE8F08F234A0F201070BEE73F2FF3
:1035D000A7D890E607F07F07052F3FF6E8AE000C6E
:1035E0007FF4E5AE054A12F8273023F0020302F813
:1035F0002730002213464FE64CEDFF1FC020074046
:10360000C0ECFF1FDCEDFF1FD8EDFF1FB1EDFF1F6A
:1036100098EDFF1FACEDFF1FB4EDFF1F54EDFF1F32
:1036200068EDFF1F84EDFF1FBEEDFF1F0020074068
:1036300046EDFF1FCFEDFF1FD0EDFF1F45EDFF1F34
:1036400044EDFF1F0080FF1F88004000C4ECFF1FF7
:1036500004EDFF1FB2EDFF1F484B49491B780B706B
:103660000B4619E6464A00231380454B022213E617
:103670004FF001032370434BB34204F101047FF484
:10368000CAAE414E039CDFF80481414F00233370E2
:10369000042518F8013B3F4AAB541B0725D445F0DD
:1036A000020145F0030204350023182D49F831309A
:1036B00049F83230EDD1384F25783A7842F002009F
:1036C00009EBC00C85F00106CCF80430002D4DD17B
:1036D000882382F0010226703A7049F830300123C5
:1036E0008AF894302BE52570C5E700F09DF8002896
:1036F00032D009EBC5030830586049F8357000F046
:1037000093F808B345F0010309EBC3020830506099
:1037100049F833B0C3E7214A5368002B3FF447AE62
:10372000000CBFB204E013690C32002B3FF43FAE33
:1037300011888142F7D15188B942F4D1000A032897
:103740000CBF1A781289A7E533780133337045F03E
:10375000010349F83300A2E7337849F83500013313
:103760003370CCE7064B022296E500BE2670C823D4
:1037700082F001063E7049F83030BCE5B1EDFF1F24
:103780004CEDFF1F68EDFF1FBEEDFF1FFCB20000F8
:1037900088004000C020074044EDFF1F9CB200009D
:1037A00070B500F0E9F900231A4A194642F83310BF
:1037B00002EBC3000133182B4160F7D1164C174BB5
:1037C000606B174D40F480206063C2F3072483F8D8
:1037D0009C40144CFF204FF0010CC2F30746120E20
:1037E00083F8B0604FF0E02E83F8B42083F88000B7
:1037F00083F88800187483F894C0217083F884C01B
:10380000702385F849304FF400721023CEF8082158
:10381000237270BD0080FF1F00800440002007401D
:1038200000E400E00021074072B60D490B68B3FACE
:1038300083F01D2810DC4FF00042C24023EA02034F
:103840000B6062B6074A00EBC000C10002EBC0008B
:10385000002353504360704762B60020704700BF9A
:10386000389EFF1FBC95FF1F0E4BC31AB3F5076FA1
:1038700010D20D4A127872B972B60C4A0C49A2FBEA
:10388000032308684FF000421B0922FA03F30343A5
:103890000B6062B67047074A1278002AECD0FFF737
:1038A0003FBB00BFBC95FF1FBEEDFF1F398EE33845
:1038B000389EFF1FB1EDFF1F70B50B4C257845B941
:1038C0000A4E31680123237009B14B8813B90023D4
:1038D000237070BD9B000B800420FFF761FB002369
:1038E00035602370F5E700BFBFEDFF1FC0EDFF1F80
:1038F000084B094A1B6810B554881BB11A885B88AD
:10390000D31A1C440CB1204610BD00F02BF8204601
:1039100010BD00BFC4EDFF1FB4EDFF1F38B50E4B47
:103920001B7853B90D4C216841B103F0FF054B885A
:103930000B800320FFF734FB256038BDFFF774FFD1
:10394000014620B1BDE838400320FFF729BB044BF6
:1039500001221A7038BD00BFC8EDFF1FCCEDFF1F5C
:10396000E0EDFF1F2DE9F843324E337863B1324F5B
:103970003A784AB90122D9073A7043D49A0726D433
:1039800000225B073A7001D4BDE8F8832B4B1A681C
:10399000002AF9D0EFF30582002AF5D1EFF3108564
:1039A00072B6186800283AD0254C2178002936D103
:1039B00042691A6001232370002A37D0916105B94A
:1039C00062B600258368457798472570DCE7DFF805
:1039D000748098F80020002AD2D00025DFF8689083
:1039E0002B4659F82340236820461B690135984728
:1039F00008B12369984798F80020EBB29A42F0D8B2
:103A00003378BDE7FFF774FF68B9104B1B780BB92B
:103A10003378B3E7337803F0FE033370AEE7002D5D
:103A2000B2D162B6B0E700F0A5F8EEE7084B1A6035
:103A3000C5E700BF3C9EFF1FE1EDFF1FE4EDFF1F48
:103A4000F0EDFF1F04EEFF1FF8EDFF1F98B200001E
:103A5000F4EDFF1F70B5EFF3108272B60C4C2068C6
:103A600080B10C4E00254369236073B19D6102B99A
:103A700062B6836845779847EFF3108272B6206884
:103A80000028F0D102B962B670BD3360EFE700BF25
:103A9000ECEDFF1FE8EDFF1FFFF7DCBF024A1368E4
:103AA00001331360704700BFC0ECFF1F2A4B2B4A45
:103AB0006020E1211870597013782948082B34D000
:103AC0000A2B20D00C2B274B0CBF15213D21122295
:103AD0008160C2609960DA60234B21491B78214ADA
:103AE000CBB101230B621362204B1D491B781D4A89
:103AF000012B13D9042B1BD884234B6253621C4B1C
:103B000001221A707047174B192113228160C2607D
:103B10009960DA60E0E70B621362E5E780234B62AD
:103B20005362134B01221A7070470E4B0121ECE7D0
:103B3000082B06D885234B6253620D4B01221A7065
:103B40007047102B94BF862387234B625362084B28
:103B500001221A70704700BF004007403D9EFF1FC2
:103B600000B0034000B00B4005EEFF1F3E9EFF1F5C
:103B700006EEFF1F704700BF10B584B072B6174A3B
:103B8000702441200F2180231470D0719171137023
:103B900013781B06FCD5906862B6114B114C984205
:103BA00038BF00EB800001A938BF40000A2200F0B6
:103BB0001BF801A92046002311F8012B01333AB16B
:103BC0000A2B20F8022FF7D11623237004B010BD62
:103BD0005B00DBB2237004B010BD00BF00000240E8
:103BE00080969800309FFF1F01F1FF3C70B565463D
:103BF000002401E070460134B0FBF2FE02FB1E031C
:103C0000092B03F130068ABF3733F3B2DBB290429F
:103C100005F8013FEED2631C0022CA54C8187CB1DB
:103C200062461CF8015F10F801ED8CF800E0A1EB92
:103C30000C030232013B521A23449A420570EFDB17
:103C4000084670BD03460846194603F039B800BF60
:103C500000F0B6BB38B5044600F03AFC05462046F5
:103C600000F090F848B10D49204602F0CDFC30B983
:103C70000B49204602F0AAFC48B9284638BD03F09B
:103C800037F84FF0FF4522230360284638BD03F084
:103C90002FF8222300250360EFE700BF1772B1421F
:103CA000B5F1CFC270B50C46064600F0ABFD21461B
:103CB0000546204602F0B2FC58B90021304602F019
:103CC0007BFCA0B10021204602F076FC18B14FF039
:103CD0007E55284670BD204600F054F80028F8D0E4
:103CE0000021204602F072FC0028F2D023E0284692
:103CF00000F048F880B10021284602F05DFC002861
:103D0000E7D0304600F03EF80028E2D0204600F030
:103D100039F80028DDD00EE0304600F033F80028F6
:103D2000E9D0204600F02EF80028E4D029462846A5
:103D300002F074FC20B902F0DBFF22230360C8E725
:103D400002F0D6FF21230360C3E700BF38B5044665
:103D500000F0E0FC21460546204602F05FFC20B959
:103D60000021204602F032FC08B9284638BD02F096
:103D7000BFFF002121230360084602F03DFB0546FA
:103D8000284638BD20F00040B0F1FF4FACBF002006
:103D900001207047174A20F0004393421ADD00B516
:103DA000B3F1FF4F83B005DB014602F067F903B0C2
:103DB0005DF804FB694601F0EFF800F00302012A08
:103DC0000199009809D0022A0FD05AB1012200F0BF
:103DD00047F9ECE7002100F07DB800F041F900F16F
:103DE0000040E4E700F076F8E1E700F073F800F156
:103DF0000040DCE7D80F493F1A4A20F000439342C5
:103E00001BDD00B5B3F1FF4F83B005DB014602F0C7
:103E100035F903B05DF804FB694601F0BDF800F028
:103E20000300012801990CD0022813D068B1009832
:103E300000F050F800F10040EBE70021002200F014
:103E40000FB9009800F046F8E3E70098012200F06F
:103E500007F9DEE70098012200F002F900F10040C6
:103E6000D7E700BFD80F493F114A20F000439342E3
:103E700019DD00B5B3F1FF4F83B005DB014602F059
:103E8000FDF803B05DF804FB694601F085F84200D7
:103E900002F0020201990098C2F1010200F056F905
:103EA00003B05DF804FB0021012200F04FB900BF10
:103EB000DA0F493F01464FF08040FFF7F3BE00BFE5
:103EC00008B501F087FA024902F096FA08BD00BF72
:103ED0001872313F2DE9F84320F00045B5F1485FF5
:103EE000064688464ADA02F0AFFB002800F09F80C1
:103EF0003146304602F0CCF94F49044602F0C8F989
:103F00004E4902F0BDF8214602F0C2F94C4902F0D8
:103F1000B5F8214602F0BCF94A4902F0B1F8214651
:103F200002F0B6F9484902F0A9F8214602F0B0F9CA
:103F3000464902F0A5F8214602F0AAF907464FF0DB
:103F40007C51204602F0A4F93946034620461C461F
:103F500002F09EF941460546304602F099F90146C5
:103F6000284602F08BF80146204602F087F8014609
:103F70004FF07E5002F082F8BDE8F883014602F06F
:103F800087F92D49044602F083F92C4902F078F8AC
:103F9000214602F07DF92A4902F070F8214602F02C
:103FA00077F9284902F06CF8214602F071F92649A8
:103FB00002F064F8214602F06BF9244902F060F83F
:103FC000214602F065F9224B9D420746B7DD214BA1
:103FD0009D4228DC05F17F454FF07E50294602F0D6
:103FE0004DF881464FF07C51204602F051F92946A8
:103FF00002F044F83946034620461C4602F048F9D0
:1040000041460546304602F043F90146284602F093
:1040100035F80146204602F031F80146484602F0E4
:104020002DF8BDE8F883DFF830900C4DDAE74FF05B
:104030007E50BDE8F88300BF4ED747ADF6740F3110
:104040007CF29334010DD037610BB63AABAA2A3D0E
:104050009999993E0000483F0000383F0000903E8B
:104060002DE9F84320F00043B3F1485F04460E46C3
:10407000904603DA02F0E8FA002858D0214620469C
:1040800002F006F905460146204602F001F92949E9
:104090008146284602F0FCF8274901F0EFFF294647
:1040A00002F0F6F8254901F0EBFF294602F0F0F89E
:1040B000234901F0E3FF294602F0EAF8214901F023
:1040C000DFFF0746B8F1000F22D04FF07C51304699
:1040D00002F0DEF839468046484602F0D9F801463B
:1040E000404601F0CBFF294602F0D2F8314601F0FC
:1040F000C5FF15490546484602F0CAF8014628465C
:1041000001F0BEFF0146204601F0B8FFBDE8F8838C
:104110000146284602F0BCF80B4901F0AFFF4946C2
:1041200002F0B6F8214601F0ABFFBDE8F883204667
:10413000BDE8F883D3C92E2F342FD7321BEF383682
:10414000010D50398988083CABAA2A3E2DE9F04F71
:1041500020F00049B9F1465F83B0044607468B461C
:10416000164613DA02F070FA48BB731C53EA0903CF
:1041700000F0F680012E00F0FD8021467E4802F01E
:104180003BF90546284603B0BDE8F08F7B4B9945C7
:1041900015DB002804DA01F1004100F100448B46F0
:1041A0002146774801F06AFF59460446754801F0F8
:1041B00065FF214601F064FF4FF0000B04462146E5
:1041C000204602F065F80146804602F061F841465B
:1041D0000546204602F05CF86B498246284602F00C
:1041E00057F86A4901F04CFF294602F051F8684936
:1041F00001F046FF294602F04BF8664901F040FF06
:10420000294602F045F8644901F03AFF294602F0D8
:104210003FF8624901F034FF414602F039F8604945
:104220000190284602F034F85E4901F029FF294642
:1042300002F02EF85C4901F023FF294602F028F82D
:104240005A4901F01DFF294602F022F8584901F0B1
:1042500017FF294602F01CF8564901F011FF019B97
:104260000146184601F00CFF514602F011F859467C
:1042700001F006FF414602F00BF8594601F000FF3D
:104280004D490546504602F003F8294601F0F8FE74
:1042900001468046204601F0F3FE384B994505461D
:1042A0002EDA012E28D0454E014606EA0007324894
:1042B00002F0A2F82146054606EA0004384601F05D
:1042C000DDFE0146404601F0D9FE214601F0E0FF47
:1042D00021460646384601F0DBFF4FF07E5101F0E3
:1042E000CFFE0146304601F0CBFE294601F0D0FF5B
:1042F000214601F0C5FE0546284603B0BDE8F08F13
:10430000304601F071FF29460646284601F0C0FFFD
:1043100031468146284601F0B3FE0146484602F088
:104320006BF8414601F0AAFE0146204601F0A6FEC8
:10433000014601F0A5FE0146304601F09FFEBF1781
:1043400007F002070446C7F1010001F04DFF0146E6
:10435000204601F09DFF0546284603B0BDE8F08FDA
:10436000204601F0D1F901464FF07E5002F044F8AA
:104370000546C1E72546BFE7000080BF40A12C3FAE
:10438000DA0F493F682122338453D9377AC09538F0
:10439000B937813948DEBE3A1F37113CD10D5D3D3A
:1043A0005FAE9BB745F4A338C8261A3A16696B3B33
:1043B000A427B33C8988083EABAAAA3E00F0FFFFC1
:1043C00070B521F00045B5F1FF4F0A4603462CDCDD
:1043D00020F00046B6F1FF4F844626DCB1F17E5F47
:1043E00035D08C1704F0020444EAD07416B33DB300
:1043F000B5F1FF4F33D0B6F1FF4F21D0761BB6F1A8
:10440000F45F4FEAE65028DA002933DA3C3031DA3B
:104410000020012C3FD0022C35D02CB1244901F0D2
:104420002FFE244901F02AFE70BD1946104601F006
:1044300027FE70BD022C08D0032CF5D11E4870BD9C
:10444000BCF1000F07DB1D4870BD1A4870BDBDE808
:10445000704001F041B81A4870BD1848D9E7B6F16C
:10446000FF4F04F1FF3419D0022C1DD8154B53F81F
:10447000240070BD1146184601F0BEFF01F044F95A
:1044800001F02AF8C5E70A4901F0FAFD014609489A
:1044900001F0F4FD70BD00F1004070BD022C05D8A4
:1044A000094B53F8240070BD002070BD074870BD53
:1044B0002EBDBB33DB0F4940DB0F49C0DB0FC93FCB
:1044C000DB0FC9BF10B3000004B30000DB0F493F8E
:1044D00020F00042B2F1FF4F2DE9F04704466CD8BE
:1044E0004FEAD07500F0C6807A49884200F3B48064
:1044F0000028C0F2B680784B9A4263D9774B9A4233
:1045000000F2C580764B204653F8251001F0B6FD29
:10451000744BC5F1010653F825908046761B494639
:10452000404601F0ABFD0146054601F0B1FE6E4983
:10453000044601F0ADFE6D4901F0A0FD214601F0F9
:10454000A7FE6B4901F09CFD214601F0A1FE6949DF
:1045500001F094FD214601F09BFE674901F090FDBA
:10456000214601F095FE0146284601F087FD2C46C4
:1045700007468246002E57D03946284601F088FE6D
:10458000394604464FF0804001F078FD0146204650
:1045900001F032FF0146484601F070FD414601F04E
:1045A0006DFD01464FF07E5001F068FD16F17D0F64
:1045B00064DB00EBC650BDE8F087014601F060FD0A
:1045C000BDE8F087B2F1505F09D24C49204601F0B6
:1045D00057FD4FF07E5102F017F8002874D12146A4
:1045E000204601F055FE4049054601F051FE3F4985
:1045F00001F044FD294601F04BFE3D4901F040FD2C
:10460000294601F045FE3B4901F038FD294601F0FD
:104610003FFE394901F034FD294601F039FE0146DB
:10462000204601F02BFD82465146204601F030FE27
:104630004FF080410546504601F020FD01462846D6
:1046400001F0DAFE214601F019FD01464FF07E50DF
:1046500001F014FDBDE8F087BDE8F047002000F050
:10466000B5BE274B9A427FF646AFBDE8F047002023
:1046700000F0A8BE002DA3D00020A1E764364FF0C3
:10468000586100EBC65001F003FEBDE8F0871D49FC
:10469000204601F0FDFD1C4B53F8251001F0F0FC05
:1046A00001F0D2FF064601F09FFD1849054601F0D2
:1046B000EFFD0146204601F0E1FC15498046284601
:1046C00001F0E6FD81462AE74FF07E51204601F0D9
:1046D000D7FC75E71772B1421872B13E9115853F4C
:1046E00024B300002CB300004CBB31330EEADD359F
:1046F00055B38A38610B363BABAA2A3ECAF24971E0
:10470000B5F1CF423BAAB83F1CB300008071313FE6
:10471000D1F7173720F00042B2F1FF4F2DE9F041F9
:10472000044654D2002A50D00028034657DB14F028
:10473000FF4F4FEAE05009D114F400025BD15B0057
:104740001C02114602F10102F9D5401AC3F3160208
:1047500042F40002C307A0F17F0558BF52000024B5
:104760006D1052004FF0190E21464FF0807C01EB86
:104770000C039342DDBF03EB0C016444D31A1346D0
:10478000BEF1010E4FEA43024FEA5C0CEFD1BBB120
:104790001A4E1B4F30683968D6F8008001F06EFC65
:1047A0000146404601F01CFF50B130683968366858
:1047B00001F066FC0146304601F008FFB8B1023452
:1047C000601000F17C5000EBC550BDE8F08101465F
:1047D00001F05EFD214601F053FCBDE8F081014689
:1047E00001F04CFC014601F007FEBDE8F081013408
:1047F00024F00104E4E74FF0FF31A6E7489FFF1FD4
:104800004C9FFF1F2DE9F04F31F0004987B00C4657
:10481000074680460ED180F480084FEA480818F514
:10482000000F40F24D812146384601F029FC07B0C7
:10483000BDE8F08F20F0004ABAF1FF4FF3DCB9F188
:10484000FF4F0D4600F331810028C0F23E81002663
:10485000B9F1FF4F00F05381B9F17E5F00F057814D
:10486000B5F1804F00F04681B5F17C5F384640F0ED
:104870005281B8F1000F80F29B8100F045FFBAF140
:10488000FF4F00F05C81BAF1000F00F05481BAF1E3
:104890007E5F00F049814FEAD873013B00933343B8
:1048A00000F08B81B9F19A4F40F38F81B14B9A455B
:1048B00040F3D182B04B9A4500F3D9824FF07E513C
:1048C00001F0DCFBAD49074601F0E2FCAC49814652
:1048D000384601F0DDFC4FF07A518046384601F051
:1048E000D7FC0146A74801F0C9FB394601F0D0FCCE
:1048F00001464FF07C5001F0C1FB394682463846F4
:1049000001F0C6FC0146504601F0C2FC9E4901F090
:10491000BFFC0146404601F0B1FB014680464846D7
:1049200001F0AEFB20F47F6727F00F0749463846B9
:1049300001F0A4FB0146404601F0A0FB25F47F6591
:10494000009B013E25F00F051E4329468146204667
:104950000CBF8E4E4FF07E5601F090FB394601F0B1
:1049600097FC21468046484601F092FC01464046AD
:1049700001F086FB29468046384601F089FC014655
:104980000746404601F07CFB00280546044620F01F
:10499000004340F33382B3F1864F00F3B88200F056
:1049A0009782B3F17C5F00F3DE824FF000094D4641
:1049B00024F47F6424F00F047549204601F068FC5C
:1049C00039468246204601F059FB0146404601F037
:1049D00055FB704901F05CFC6F490746204601F029
:1049E00057FC0146384601F04BFB04460146504651
:1049F00001F046FB5146074601F040FB01462046C8
:104A000001F03CFB39468046384601F041FC6349E1
:104A1000044601F03DFC624901F030FB214601F003
:104A200037FC604901F02CFB214601F031FC5E4966
:104A300001F024FB214601F02BFC5C4901F020FB36
:104A4000214601F025FC0146384601F017FB0446DB
:104A50000146384601F01CFC4FF08041824620465A
:104A600001F00CFB0146504601F0C6FC41460446ED
:104A7000384601F00DFC414601F002FB014620469C
:104A800001F0FCFA394601F0F9FA01464FF07E5088
:104A900001F0F4FA03464B44B3F5000FC0F2E38192
:104AA0001846314601F0F4FBC1E6B0F17E5F7FF4B9
:104AB000BAAE81F480056D0015F5000F3FF6B3AE78
:104AC0004FF07E5007B0BDE8F08FB9F1974F0FDA85
:104AD000B9F17E5F0ADB4FEAE953C3F1960349FA65
:104AE00003F202FA03F34B4500F083810026B3E69C
:104AF0000226ADE63946384601F0CAFB97E6BAF120
:104B00007E5FDDD02ADD002D26DB20468FE6002DDE
:104B100029DB38468BE600F0F7FDBAF1FF4F03D0F2
:104B2000BAF1000F7FF4B3AE002D04DA01464FF066
:104B30007E5001F061FCB8F1000FBFF678AEAAF12B
:104B40007E5A5AEA060A40F04E81014601F096FA72
:104B5000014601F051FC6AE6002068E6002DFBDA10
:104B600004F1004063E639464FF07E5001F044FC0A
:104B70005DE600BFF3FF7F3F0700803F00AAB83F1C
:104B800070A5EC36ABAAAA3E3BAAB83F000080BF96
:104B90000072313F1872313F8CBEBF354CBB313390
:104BA0000EEADD3555B38A38610B363BABAA2A3E97
:104BB00007B0BDE8F04FFFF7ADBD3946384601F00C
:104BC0005DFA014601F018FC31E618F0FF4F40F0A5
:104BD00040814FF0974101F05BFB6FF01702824676
:104BE0004FEAEA537F3B9A18A94B0192CAF3160A7F
:104BF0009A454AF07E5807DDA64B9A4540F33F811F
:104C000001320192A8F5000800231A460593049288
:104C10004FF07E53002719464046029301F02EFACA
:104C2000029B039319468246404601F029FA014649
:104C30004FF07E5001F0E0FB01460290504601F03B
:104C400027FB4FEA680242F0005202F5802220F46E
:104C50007F6B17442BF00F0BC146394680465846F0
:104C600001F016FB0146504601F008FA039B84460A
:104C700019463846674601F001FA0146484601F0F8
:104C8000FDF9594601F004FB0146384601F0F6F9FA
:104C9000029901F0FDFA41468146404601F0F8FADA
:104CA0007D49074601F0F4FA7C4901F0E9F93946FB
:104CB00001F0EEFA7A4901F0E3F9394601F0E8FA39
:104CC000784901F0DDF9394601F0E2FA764901F060
:104CD000D7F9394601F0DCFA744901F0D1F93946C7
:104CE0008246384601F0D4FA0146504601F0D0FA27
:104CF00059460746404601F0C3F9494601F0C8FA53
:104D0000394601F0BDF959468246584601F0C0FACD
:104D10006749029001F0B4F9514601F0B1F920F46D
:104D20007F6727F00F073946584601F0B1FA60490E
:104D30008346384601F0A2F9029B194601F09EF91C
:104D40000146504601F09AF9414601F0A1FA394670
:104D50008046484601F09CFA0146404601F090F931
:104D600080460146584601F08BF920F47F6727F012
:104D70000F075049384601F08BFA594681463846AC
:104D800001F07CF90146404601F078F94A4901F00A
:104D90007FFA4A498046384601F07AFA0146404691
:104DA00001F06EF9049901F06BF98046019801F069
:104DB0001BFA41468246484601F062F9DDF814B01C
:104DC000594601F05DF9514601F05AF920F47F6728
:104DD00027F00F075146384601F050F9594601F0C7
:104DE0004DF94946A4E5012E7FF421AD00F10040C4
:104DF0001DE502F00102C2F102062DE5304A9342A0
:104E000000F3A98000F08B80B3F17C5F7FF7CDAD1C
:104E1000DB154FF400027E3B42FA03F303442949B9
:104E2000C3F3C7527F3AC3F31605114145F4000599
:104E3000C2F11702194015416D42384601F01EF9C2
:104E400001460746404601F01BF94FEAC5590446A2
:104E5000AEE50022C4E6002D0BDB002007B0BDE864
:104E6000F04F00F0AFBA294600F0DEFA19E6002D47
:104E7000F3DD002007B0BDE8F04F00F0A7BA124BF9
:104E80000593124B04934FF400174FF07F53C2E683
:104E900071C41C00D6B35D0042F1533E55326C3EE6
:104EA00005A38B3EABAAAA3EB76DDB3E9A99193F8C
:104EB000000040400038763F4F38763FA0C39D3613
:104EC00000001643000080FF00C0153FDCCFD13545
:104ED0002F49404601F0D4F839468146284601F072
:104EE000CDF80146484601F08FFB80B905F5004337
:104EF000C3F3C75227497F3A11411940C3F3160340
:104F0000C2F1170243F4000343FA02F595E70021CA
:104F1000304601F05BFB003818BF0120AAE7394694
:104F200001F0ACF8414601F065FBA0B905F500437E
:104F30001849C3F3C7527F3AC3F31605114145F42C
:104F40000005C2F11702002C01EA030145FA02F53F
:104F5000FFF672AF71E70021304601F037FB0038F1
:104F600018BF01207AE7DB154FF400027E3B42FABE
:104F700003F323440749DA157F3AC3F316051141B9
:104F800045F40005C2F117021940154155E700BF6D
:104F90003CAA3833000080FF2DE9F04FAB4A20F0E7
:104FA0000044944289B00D466CDDA94A94420746FC
:104FB0001CDC0028A74940F31E8101F05FF8A64BD6
:104FC00024F00F049C4206466BD0A44901F056F829
:104FD00001462860304601F051F8A04901F04EF832
:104FE00001266860304609B0BDE8F08F9C4A9442C3
:104FF0006CDDB4F1FF4F4DDAE615863EA4EBC654E6
:10500000204601F021FB01F0EFF801462046059112
:1050100001F034F84FF0874101F03AF9804601F091
:1050200013FB01F0E1F8044621464046069401F0E6
:1050300025F84FF0874101F02BF90021079001F08E
:10504000BBFA002800F0B8800021204601F0B4FA35
:10505000002814BF01230223824A019202220092F7
:105060002946324605A800F057FB002F0646B9DA5C
:10507000D5E9002302F1004203F100432A606B608E
:105080004642AFE700262860002230464A6009B059
:10509000BDE8F08F014600F0F1FF0026686028604F
:1050A000A0E7714900F0EAFF7049044600F0E6FF0E
:1050B00001462860204600F0E1FF6C4900F0DEFF69
:1050C00001266860304609B0BDE8F08F00F01CFB97
:1050D0006749804601F0DCF84FF07C5100F0D0FFCA
:1050E00001F0B2FA064601F07FF85A49834601F012
:1050F000CFF80146404600F0C1FF58498246584665
:1051000001F0C6F81F2E81460146504620DC721E73
:10511000584B53F8223024F0FF029A4218D000F086
:10512000ADFF8046C5F800804146504600F0A6FF1E
:10513000494600F0A3FF002F6860BFF653AF08F1A7
:10514000004800F10040C5F800806860764249E7F9
:1051500000F094FFC0F3C753C3EBD453082B804631
:105160004FEAE452DEDD40490392584601F090F8E0
:1051700080460146504600F081FF044621465046D5
:1051800000F07CFF414600F079FF384980465846E0
:1051900001F07EF8414600F071FF0146814620464D
:1051A00000F06CFF039AC0F3C753D21A192A804645
:1051B00004DC2860A246B7E703234DE72E49584692
:1051C00001F066F801468046204600F057FF82460F
:1051D0005146204600F052FF414600F04FFF27495C
:1051E0000446584601F054F8214600F047FF814636
:1051F0000146504693E700F043FF174B24F00F049D
:105200009C4206460ED0154900F03AFF0146286040
:10521000304600F033FF114900F032FF4FF0FF3607
:105220006860DFE6104900F02BFF1049044600F0EB
:1052300027FF01462860204600F020FF0B4900F0C0
:105240001FFF4FF0FF366860CCE600BFD80F493F24
:10525000E3CB1640800FC93FD00FC93F43443537D9
:10526000800F4943B4B300000044353708A3852EAE
:1052700084F9223F34B3000000A3852E32318D24FF
:105280002DE9F041C0F3C7557F3D162D044620F0AF
:10529000004724DC002D804614DB184F2F41384294
:1052A0001AD0174900F0ECFE002101F0ADF998B1D9
:1052B000002C03DD4FF400032B41984428EA07003B
:1052C000BDE8F0810E4900F0DBFE002101F09CF901
:1052D00010B1002C0EDB57B92046BDE8F081B7F1C4
:1052E000FF4FF9D3014600F0CBFEBDE8F0814FF04F
:1052F0007E50F2E74FF00040EFE700BFFFFF7F0076
:10530000CAF249712DE9F041C0F3C7557F3D162D12
:10531000044620F0004725DC002D804614DB174FA3
:105320002F4138421BD0164900F0AAFE002101F09F
:105330006BF9A0B1002C03DA4FF400032B41984421
:1053400028EA0700BDE8F0810D4900F099FE002130
:1053500001F05AF918B1002C0CDB002000E02046C7
:10536000BDE8F081B7F1FF4FF9D3014600F088FEA8
:10537000BDE8F081002FF2D00248F1E7FFFF7F0087
:10538000CAF24971000080BF38B505460C4601F0ED
:10539000AFFC034628461C6038BD00BF08B540B1CD
:1053A00001F1004000F074FFBDE808402221FFF742
:1053B000EBBF084600F06CFFBDE808402221FFF774
:1053C000E3BF00BF4FF08051FFF7E8BF4FF0E0416F
:1053D000FFF7E4BF38B5044600F00EFD2146054650
:1053E000204601F01BF970B90021204601F00CF9AC
:1053F00048B90021204601F0DFF830B101F078FC17
:10540000074D22230360284638BD01F071FC034696
:1054100021221A600348BDE8384000F079B900BF86
:10542000000080FFCCB6000010B50C4630F0004103
:1054300003461DD0B1F1FF4F1BD210F0FF4F0246C3
:105440001BD14FF0984100F023FF204A94420346BD
:105450002CDBC0F3C75102464CF250308442A1F11C
:10546000190110DD1A49184661F31E0000F010FF03
:1054700010BD014600F004FE10BD4CF250308442D5
:105480004FEAD151EEDC2144FE29EBDC002911DC8E
:1054900011F1160F13DB01F1190022F0FF424FF05A
:1054A0004C5142EAC05000F0F3FE10BD094900F033
:1054B000EFFE10BD22F0FF4242EAC15010BD054987
:1054C000184661F31E0000F0E3FE10BDB03CFFFF84
:1054D000CAF249716042A20D2DE9F04120F0004569
:1054E000B5F1A14F0446074607DBB5F1FF4F71DC6C
:1054F00000287FDD7048BDE8F081704B9D427CDC68
:10550000B5F1445F6BDB4FF0FF382146204600F0D9
:10551000BFFE0146064600F0BBFE6949054600F0A5
:10552000B7FE684900F0ACFD294600F0B1FE6649BF
:1055300000F0A6FD294600F0ABFE644900F0A0FD96
:10554000294600F0A5FE624900F09AFD294600F0C8
:105550009FFE604900F094FD314600F099FE5E49DF
:105560000646284600F094FE5C4900F087FD294677
:1055700000F08EFE5A4900F081FD294600F088FEB9
:10558000584900F07BFD294600F082FE564900F0A4
:1055900075FD294600F07CFEB8F1FF3F014630461C
:1055A0004AD000F06DFD214600F072FE4F4B53F8DB
:1055B000281000F063FD214600F060FD4C4B0146D1
:1055C00053F8280000F05AFD002F94DA00F1004053
:1055D000BDE8F081014600F053FDBDE8F08145498A
:1055E00000F04EFD4FF07E5101F00EF800288AD0F9
:1055F000204680E74048BDE8F08100F085F83F4B49
:105600009D42044623DCA3F5D0039D4241DC0146C4
:1056100000F036FD4FF07E5100F030FD4FF080413C
:105620000546204600F02CFD0146284600F0E4FE29
:105630004FF00008044668E700F022FD214600F024
:1056400027FE0146204600F019FDBDE8F0812C4BF5
:105650009D4216DC4FF07F5100F010FD4FF07F515E
:10566000034620461C4600F013FE4FF07E5100F02A
:1056700007FD0146204600F0BFFE4FF00208044639
:1056800043E721461F4800F0B7FE4FF003080446E9
:105690003BE74FF07E5100F0F1FC4FF07E510546A4
:1056A000204600F0EDFC0146284600F0A5FE4FF034
:1056B0000108044629E700BFDB0FC93FFFFFDF3EBB
:1056C000D769853C59DA4B3D356B883D6E2EBA3D26
:1056D0002549123EABAAAA3E21A215BD6BF16E3D33
:1056E00095879D3D388EE33DCDCC4C3EE0B6000025
:1056F000D0B60000CAF24971DB0FC9BFFFFF973F68
:10570000FFFF1B40000080BF20F00040704700BF3B
:10571000004870470000C07F2DE9F04FDDB01C4607
:1057200006930991A64B66990B9253F82130039387
:10573000111D04F1FF3305460193C0F2EC82D31E24
:1057400048BF131DDB1005930133DB000A93DDE92D
:105750000A239B1A0493059A019BD61A039A12EB0B
:10576000030818D408F10108DDF89C91B044002426
:1057700020AF08E059F8260000F036FD0136464516
:1057800047F8040B07D0002EF4DA013620464645D0
:1057900047F8040BF7D1039B002BC0F21183069B43
:1057A000019E20AA02EB83079A000092039A291F08
:1057B00002910DF5907802EB030901EB8305019B43
:1057C000002BB8BF002410DBDDF808A0BB46002486
:1057D0005BF8041D5AF8040F00F05AFD01462046FC
:1057E00000F04EFCAA450446F2D101364E4548F879
:1057F000044B07F10407E2D1029B009D039A1D446C
:105800000CAB03EB8203043B07930CAB03EB82036B
:10581000089390465CAB03EB8803B8F1000F53F894
:1058200050AC4FEA880921DD48AF07EB88040CAE85
:105830004FF06E51504600F02BFD00F005FF00F0D8
:10584000D3FC4FF08741834600F022FD01465046CD
:1058500000F014FC00F0F8FE54F8041D46F8040BA8
:10586000584600F00DFCBC428246E1D1049E5046F1
:105870003146FFF7D9FD4FF07851044600F008FD9E
:10588000FFF740FD4FF0824100F002FD0146204647
:1058900000F0F4FB044600F0D7FE824600F0A4FCC2
:1058A0000146204600F0EAFB002E0446314640F354
:1058B000898008F1FF360CAAC1F1080352F82620AE
:1058C00042FA03F000FA03F3D21AC1F107010CAB5C
:1058D00042FA01F7002F43F8262082447CDC0021A5
:1058E000204600F069FE002800F0D380039B08F1F9
:1058F000FF34A34208F1804010DC0CABDDF820C07F
:105900004FEA880603EB8803002253F8041D634521
:1059100042EA0102F9D1002A40F01181039B0CAA4E
:10592000013B52F82330002B40F00581079B0126F4
:1059300053F8042D0136002AFAD008EB0603009331
:1059400008F10107059A02EB0709069A6FF0404338
:1059500099441344679A434402EB890920AA02EB55
:10596000830848AB03EB800A59F8040F00F03CFCB5
:10597000019B48F8040F002B19DBDDF808B0444602
:10598000002601E054F8040D5BF8041F00F080FCD1
:105990000146304600F074FBAB450646F2D1009B51
:1059A0004AF8046F01379F42DEDD984632E7009BDC
:1059B000013700269F424AF8046FD5DDF5E700BFA6
:1059C0001CB7000040F09F8008F1FF330CAA52F88A
:1059D0002370FF11002F82DDB8F1000F0AF1010AD8
:1059E00040F39E810C9E002E40F08580B8F1010F9F
:1059F00020D00CAB012253F8046F002E7ED0531C34
:105A00000CA9C6F58076984541F8226011DD09F1B0
:105A100030020DEB02010CAA0CA852F8232000EB77
:105A2000830300E01A68C2F1FF0243F8042B8B42A3
:105A3000F8D10126049B002B0EDD012B00F06081C4
:105A4000022B09D108F1FF320CAB0CA953F822301C
:105A500003F03F0341F82230022F7FF440AF21468C
:105A60004FF07E5000F00AFB0446002E3FF437AFA3
:105A700004994FF07E50FFF7D7FC0146204600F016
:105A8000FDFA04460021204600F096FD00287FF430
:105A90002DAFDDE90A322046991A0097FFF7C4FCC2
:105AA0004FF08741044600F0A5FD002800F0648116
:105AB000049B4FF06E5108332046049300F0E8FB3E
:105AC00000F0C2FD00F090FB4FF08741054600F06A
:105AD000DFFB0146204600F0D1FA00F0B5FD0CAB2B
