:1000000000000320D10100008D2A0000492A0000D1
:10001000492A0000492A0000492A0000492A000014
:10002000492A0000492A0000492A00008D2A0000C0
:100030008D2A0000492A0000853800008938000018
:100040008D2A00008D2A00008D2A00008D2A0000D4
:100050008D2A00008D2A00008D2A00008D2A0000C4
:100060008D2A00008D2A00008D2A00008D2A0000B4
:100070008D2A00008D2A00008D2A00008D2A0000A4
:100080008D2A00008D2A00008D2A00008D2A000094
:100090008D2A00008D2A00008D2A00008D2A000084
:1000A0008D2A00008D2A00008D2A00008D2A000074
:1000B0008D2A00008D2A00008D2A00008D2A000064
:1000C0008D2A00008D2A00008D2A00008D2A000054
:1000D0008D2A00008D2A00008D2A00008D2A000044
:1000E0008D2A00008D2A00008D2A00008D2A000034
:1000F0008D2A00008D2A00008D2A00008D2A000024
:10010000E5270000012800001D2800003928000014
:100110008D2A0000F12D00008D2A00008D2A00009C
:100120008D2A00008D2A00008D2A00008D2A0000F3
:100130008D2A00008D2A00008D2A00008D2A0000E3
:10014000652500008D2A00008D2A00008D2A000000
:100150008D2A00008D2A00008D2A00008D2A0000C3
:100160008D2A00008D2A00008D2A00008D2A0000B3
:100170008D2A00008D2A00008D2A00008D2A0000A3
:100180008D2A00008D2A00008D2A00008D2A000093
:100190008D2A00008D2A00008D2A00008D2A000083
:1001A0008D2A00008D2A00008D2A00008D2A000073
:1001B0008D2A00008D2A00008D2A00008D2A000063
:1001C0008D2A00008D2A00008D2A00008D2A000053
:1001D0005F4B4CF2205210B5DA814DF62812DA81CD
:1001E00000BF00BF02F056FC5A4B4FF030621A635A
:1001F000594A9A63594ADA634FF0E0234FF4700288
:10020000C3F8882D03F5E823554A1A60554B9A78B0
:10021000110703D59A7842F008029A70524B53485E
:10022000AA221A70524BDA1C121AC11E22F00302C3
:10023000994288BF00224F4902F032FB4E4B4F4893
:10024000DA1C121AC11E22F00302994288BF002252
:10025000002105F05DFE4A494A484FF4E87202F079
:100260001FFB494B494A802103F8011B9342FBD1F4
:100270004FF0E023434AC3F8082D454B8A221A70F9
:10028000A3F5805324225A70A0221A709A799207FB
:10029000FCD59A79D406FCD43E4A937903F00C033A
:1002A000082BFAD1304B60225A70DA78802AFCD1C0
:1002B000384B01221A715D225A719A799006FCD549
:1002C0009A795106FCD5234A33495164002191643F
:1002D000202119702F498B7903F00C030C2BFAD1D4
:1002E0002E4B53602E4A136913F4807303D153616C
:1002F0004FF4A85313614FF0E0232A4A5A610022B9
:100300009A6107221A61284AC3F8202D62B602F0CA
:100310001FFC234B5B69DA0705D5244802F00CFC6F
:10032000234B244ADA61244B1B785B0609D5204C09
:10033000204BE2699A4204D11C4802F0FDFB0023E5
:10034000E36102F0ADFB05F053FE02F0A1FAFEE717
:100350000020054000800440823F04000100002B83
:100360000300008500D0074000E00740401EFF1F4B
:100370009024FF1F48AA0000B80701209024FF1F07
:10038000000000000014FF1F00E400E064E400E04F
:10039000005006400040064000000602C010070062
:1003A00000D003401FBF02000000202067DB7F6AEF
:1003B00000E00340A5C3945A00F00740FFFFFFFF91
:1003C000FFFFFFFFFFFFFFFFFFFFFFFFFFFFFFFF3D
:1003D000FFFFFFFFFFFFFFFFFFFFFFFFFFFFFFFF2D
:1003E000FFFFFFFFFFFFFFFFFFFFFFFFFFFFFFFF1D
:1003F000FFFFFFFFFFFFFFFFFFFFFFFFFFFFFFFF0D
:10040000FFFFFFFFFFFFFFFFFFFFFFFFDEF9FFFF23
:100410000548064B1B1AD90F01EBA301491002D066
:10042000034B03B1184770479024FF1F9024FF1F10
:100430000000000008B5054B1BB105490548AFF3A6
:100440000080BDE80840FFF7E3BF00BF00000000E8
:100450009024FF1F40AA000010B590ED027ADFED56
:100460007F7AD0ED006AB4EEE77AF1EE10FA2DED66
:10047000048B04460AD4DFED7A7A66EEA77AB4EEEE
:10048000E77AF1EE10FAD8BFF0EE477A87EEA60AC7
:100490009FED727A94ED038AB4EEC78AF1EE10FAFA
:1004A0005ABFB7EE007A87EE089AB0EE478A9FED02
:1004B0006D7A48BF9FED6C9A20EE070A03F000FCAE
:1004C0006368F0EE408A082B2CD8DFE803F06A71ED
:1004D0007B828C97A3054200D4ED040ADFED637A9A
:1004E000B2EE040AC0EEA70A03F0EAFAB5EE400A3B
:1004F000F1EE10FAB0EE408A00F1AC80B1EEC80A1D
:10050000C8EE808AB7EE007AFFEE007AE8EE087A4D
:1005100038EE478A84ED087A28EE098AC4ED0A7A13
:1005200084ED098A78EE897AF7EE006AB0EE666AA1
:10053000A7EEA86A86EE867A67EE287A84ED057AB9
:1005400027EEA80ABDEC048BC4ED067A84ED070AF9
:1005500010BDD4ED040ADFED457AB2EE040AC0EE18
:10056000A70A03F0ADFAB5EE400AF1EE10FAB0EECC
:10057000408A6CD4B1EEC80AB7EE007A77EE487ABA
:1005800068EE086A67EE897A37EE667A67EE887AEF
:1005900068EE808AC4ED086AC4ED097A84ED0A7AAF
:1005A000C0E700234FF07E5223626362A262B9E784
:1005B0002F4BA3624FF07E52F1EE497A2262C4EDD6
:1005C000097AAFE700234FF07E5223626262A36292
:1005D000A8E700234FF07E52F1EE497A2262C4ED83
:1005E000097AA3629EE74FF07E52F1EE497A4FF00E
:1005F00040432262C4ED097AA36293E7F8EE007AE1
:1006000069EE277A00234FF07E522262C4ED097A08
:10061000A36287E7DFED157AD4ED040AB2EE040A8F
:10062000C0EEA70A03F04CFA0023A36228EE008A6A
:10063000B7EE007A87EE089AFFEE007AE0EE007AD5
:1006400084ED087A67EE897AC4ED097A6AE703F0E7
:1006500095FA91E703F092FA52E700BF6F12833ADE
:1006600048E1FA3EDB0F4940FFFF79440000204299
:10067000000080BF2DE9F04F2DED108B00F5E03824
:1006800085B098F88C740093002F38D01E98834260
:1006900030DA02EB830601EB8305DFEDD09AD8F860
:1006A0008834DFEDC8AA9FEDC8AA9FEDC89AC84F4D
:1006B000C84C009301EB8009009A032A00F295834D
:1006C000DFE812F009032C023D011001019FB4EE96
:1006D000C17AF1EE10FA06D5136851689942A4BFA9
:1006E000002382F82930013747F21813042F9C4465
:1006F0001A4418D105B0BDEC108BBDE8F08F009BFB
:100700009FEDB51ADFEDB51A02EB830201EB83030F
:1007100003931E9B029201EB8301B7EE002A8446ED
:1007200000F5E2428E4692F82930002BDBD0009B88
:100730001E999CED0B4A8B4280F24A8341F6464358
:10074000DCF83040DCF83410029E039D0197F0EE97
:10075000042AB0EE003AF6EE004AF7EE083A03FB40
:1007600007F87BE004EB830999ED005A03F1FF39A8
:10077000002B00F03683023BB0EE467A48BFDCF82F
:100780003470A5EE627A04EB890948BFDB19D9ED14
:10079000007A176804EB8303D3ED000A536875EE03
:1007A000675AA7EE837ABB4230EEC60A65EEA35ABB
:1007B000A0EEE47AE0EE245A37EEC66AA5EEA67AF9
:1007C00092ED050AD2ED047AD2ED030AD2ED065A73
:1007D00027EE267A67EE807AA6EE247AA7EE265ACE
:1007E000E0EE857AC2ED057A67EEA57A0BDA08EBC2
:1007F000030A013353600AF6761300EB830393ED8B
:10080000027A77EE877ADCF83C9009F101038B429B
:1008100008BF002304EB8909C9ED007ACCF83C300D
:10082000D5ED006AE4EE276AB0EEE77AE5EC016AFE
:10083000D6ED006AE4EE276AE6EC016AD2ED087AAA
:10084000B4EEE77AF1EE10FADCBF92ED097A27EE0A
:10085000877AAE4582ED087A3FF438AFD2ED027A5E
:10086000F4EEC27AF1EE10FA2EDB9CED0E7AF8EE81
:10087000476AF4EEE67AF1EE10FA2ADCBDEEE77A8A
:10088000F8EEC76A17EE109A77EEE66ADCF83C30AD
:10089000013BA3EB090313F1010944BFDCF83470F9
:1008A000B94404EB8909002B99ED006ABFF65AAFF1
:1008B000DCF834B003EB0B0A03F1FF3904EB8A0ACE
:1008C0009AED005AD94456E7F0EE616A4FF00109FB
:1008D000DCE7FDEEE67A17EE909AF8EEE77A76EE30
:1008E000E76AD3E708F2744B9BED018A28EE2A0AE7
:1008F00003F0ACF99BED027A38EE078AF7EE007A46
:10090000B4EEE78AF1EE10FAA8BF38EE678A8BEDF5
:10091000018A20EE0A8AD5ED007A77EE887AE5EC36
:10092000017AD6ED007A77EE887AA945E6EC017A6D
:100930007FF4C2AE05B0BDEC108BBDE8F08F08F2BD
:10094000744393ED01BA93ED02CAF6EE007AB4EE69
:10095000E7BAF1EE10FAF1EE007A4CBFBFEE008A72
:10096000B0EE088AB5EEC0CA4CBFABEE278AABEE3C
:10097000678AF1EE10FA40F3C680B3EE00DA6CEE4F
:100980000DDAF2EE00BA3BEE6D0A04F08FF9F0EEEC
:10099000407AFDEEE77A3BEE2D0A17EE90AA04F0BE
:1009A000CDF9FDEEC07A6CEE2BBA17EE90BADA45AF
:1009B000DFED0ACA49DC08F2744393ED03EA0BF158
:1009C000010B21E0DB0FC9406666663F00008042F4
:1009D000E0630000E483000017B7D1380000000096
:1009E00007EE103AD0ED007AB8EEC70A90ED017A22
:1009F00078EEC08A37EE677A0AF1010AE8EE877A64
:100A0000DA45EBEEA7CA20D007EE90AAF8EEE77A17
:100A1000F0EE4D8A7BEE677AE7EE8E8A68EE898A81
:100A2000B0EE680A04F08AF9FDEEC07A17EE903A4B
:100A3000B3F5006F07EB8300D2D30AF1010AF0EEA1
:100A4000697ADA45EBEEA7CADED1B6EE00DA3BEE04
:100A50004DDA78EE2CCA3DEE6D0A04F027F9F0EE7F
:100A6000407AFDEEE77A3DEE2D0A17EE90AA04F0EB
:100A700065F9FDEEC07A1FED278A17EE90BADA45C8
:100A8000F1EE6BBA3DDC08F27443D3ED03DA0BF1FF
:100A9000010BB3EE00EA13E007EE103AD0ED007A56
:100AA000B8EEC70A90ED017A78EEC08A37EE677A21
:100AB0000AF1010AE8EE877ADA45ABEEA78A20D080
:100AC00007EE90AAF8EEE77AF0EE4E8A7DEE677AAE
:100AD000E7EEAD8A68EE898AB0EE680A04F02EF976
:100AE000FDEEC07A17EE903AB3F5006F07EB830086
:100AF000D2D30AF1010AF0EE697ADA45ABEEA78AA1
:100B0000DED138EE2C8A3BEE0CBAF7EE007AB4EE6A
:100B1000E7BAF1EE10FA80F2528152E108F2744B1A
:100B20009BED01BA9BED04CA9BED02EAB4EECCBA90
:100B3000F1EE10FAF7EE00DABFEE008AB5EEC0EA89
:100B400048BFB0EE6D8AF1EE10FA40F3BA80F3EED2
:100B5000008A2EEE28DA3BEE4D0A04F0A7F8F0EEFC
:100B6000407AFDEEE77A3BEE0D0A17EE90AA04F00C
:100B7000E5F8FDEEC07A17EE903A9A4500F32E8123
:100B8000DBED03CA5FED6BBA03F1010B1CE007EE6E
:100B9000103AD0ED007AB8EEC70A90ED017A3FEE38
:100BA00040FA37EE677AF5EEC0EAEFEE077A0AF11F
:100BB000010AF1EE10FAA8BF77EEED7ADA4577EE8A
:100BC000A77A7BEEA7BA20D007EE90AAF8EEE7EA64
:100BD0007BEE6EEA6EEEACEA3EEEA8FA2FEE09FA74
:100BE000B0EE4F0A04F0AAF8FDEEC07A17EE903A84
:100BF000B3F5006F04EB8300C9D30AF1010AF0EEEC
:100C0000697ADA457BEEA7BADED13BEE4CCA7BEEC1
:100C100088BA3CEE4D0A04F049F8F0EE407AFDEE59
:100C2000E77A3CEE0D0A17EE90AA04F087F8FDEE85
:100C3000C07A1FED968A17EE90BADA453FDC08F2CB
:100C40007443D3ED03CA0BF1010BB3EE00DAF8EEF7
:100C500000DAF7EE00EA07EE90AAF8EEE78A0AF16A
:100C6000010A7CEE688A68EEAC8A38EE8DFA2FEEC7
:100C700009FAB0EE4F0A04F061F8FDEEC07A17EE03
:100C8000903AB3F5006F04EB830016D207EE103AEA
:100C9000D0ED007AB8EEC70A90ED017A3FEE40FA47
:100CA00037EE677AF5EEC08AEFEE077AF1EE10FACA
:100CB000A8BF77EEEE7AA7EEAD8ADA45CBD13BEE50
:100CC000888A3BEE0EBAF7EE007AB4EEE7BAF1EEA0
:100CD00010FA74DA75E008F2744B9BED02DA9BEDC2
:100CE00001BAB5EEC0DAF0EE007ABFEE008AF1EE9E
:100CF00010FAABEE278A59DDB3EE00CAB0EE4B0A0C
:100D0000ADEE4C0A03F0D2FFF0EE407AFDEEE77A4A
:100D1000B0EE4B0AADEE0C0A17EE90AA04F00EF8F6
:100D2000FDEEC07A17EE903A9A4554DC5FEDD5BAE5
:100D3000DBED03CAF8EE00DA03F1010BB7EE00EACF
:100D400007EE90AAF8EEE78A0AF1010A7BEE688ABC
:100D500068EEAC8A78EE8CEA6EEE89EAB0EE6E0A46
:100D600003F0ECFFFDEEC07A17EE903AB3F5006F9A
:100D700004EB830016D207EE103AD0ED007AB8EEFD
:100D8000C70A90ED017A7EEEC0EA37EE677AF5EE9B
:100D9000C08AEEEE877AF1EE10FAA8BF77EECE7A2F
:100DA000E7EEADBADA45CBD138EE2B8A3BEE0DBA81
:100DB000F7EE007AB4EEE7BAF1EE10FA01DB3BEEA3
:100DC00067BA08F2744328EE0A8A83ED01BAA2E5F5
:100DD00092ED087A7BE4DFED10BAE5E7DFED0EBABD
:100DE00013E7DCF834B0D944C5E408F27443D3ED1A
:100DF000017AD3ED026A77EEA67AB7EE007AF4EEC6
:100E0000C77AF1EE10FAA8BF77EEC77AB0EE698A1A
:100E1000C3ED017A7FE500BF000000002DE9F04F2F
:100E20002DED068B8FB00A9001F0EEF909900028A5
:100E300000F08D8201F0E8F90B90002800F091821B
:100E40004FF400720021A848A74C05F061F84FF458
:100E500000720021A54805F05BF80A9BA34A9F6930
:100E6000802338680093214600231646FFF702FCD2
:100E700097F86451B6EE003AF0EE003A04F50078C7
:100E80003146224607F1D000B2EC017AF1EC017A4A
:100E900037EE277A3B4627EE037A93ED146AD3EDBB
:100EA000135AD3ED0E7A93ED0D4AD3ED0F4A77EE38
:100EB000466AB0EE465AA5EEA75A683366EEA77AA0
:100EC000A6EEA45AE4EE257A53ED096A53ED0A4AD8
:100ED00067EEA66AD7EEA35AF0EE667AE4EE877A5A
:100EE00053ED086A43ED075A95EE236AE5EE267A3C
:100EF00003ED066A8342B0EE677ACED195B3D7EDA3
:100F0000577AF5EE407AF1EE10FA2BD0D7ED487A09
:100F100097ED426AD7ED476A97ED414AD7ED432AEC
:100F200077EE674AF0EE675A24EE865AE6EE865A66
:100F3000A4EE265A97ED456A97ED444A25EE066AD7
:100F4000E4EEA25AA7EE046AD7ED464AD5EE236A2C
:100F5000D5EEA37AB0EE467AA5EEA47AC7ED476A3D
:100F6000C7ED487AD7ED057A27EE277A904502ED4E
:100F7000017A01ED017A87D1D7F870310493D7F85F
:100F800074310793D7F850350593D7F85435089343
:100F9000564BD7F85C25D7F87C110393524B9FED45
:100FA000549ADFED548A9FED54AADFED54AA9FEDC9
:100FB000548ADFED549A0C96924607F580558B467D
:100FC0001A460D94039BB2EC017AF3EC017A07996F
:100FD0000393B5EEC07AF1EE10FAF5EEC07A4CBF8D
:100FE000B1EE470AB0EE470A049BF1EE10FA4CBF8F
:100FF000F1EE676AF0EE676A03EB8B03B4EEE60A84
:1010000083ED007AF1EE10FA0BF10103D8BFB0EED8
:10101000660A8B421CBF5E469B46059B089903EB04
:101020008A0308BF4FF0000BC7F87CB1C3ED007A0C
:101030000AF1010308BF4FF0FF368B420EBF4FF09D
:10104000000A54469A46C7F85CA505F2A443D3EDBE
:10105000007AF4EEC07A08BF4FF0FF34F1EE10FAD8
:101060003FD5B4EEE80AF1EE10FA00F35381F0EE4A
:101070004A7A97ED5A7A77EEC77A05F2AC4305F5CE
:101080009560D0ED006A93ED007AD5F8900427EED4
:10109000267AB4EE677AF1EE10FA48BFB0EE677ABE
:1010A000002883ED007A40F35781D5F88C14B1B154
:1010B0004B1E03F5F97C07EB8C0CDCED5B7AB4EE90
:1010C000E77AF1EE10FA21DB0138C5F88C34C5F867
:1010D0009004002800F01B8119460029E8D1F12373
:1010E000E7E7F0EE497AC8E7A826FF1FA824FF1F0C
:1010F0000000000052F384370000C0C2C1A8C04005
:1011000000007143000000802D152A3E0B4600F1BF
:10111000010E07EB830C0CF6341989ED007AF12BE4
:10112000D5F89C94CCF8FC9C14BF01330023C5F87F
:101130008C34D5F88834C5F890E407EB830CDCF8E0
:10114000FCCCA9EB0C0CBCF1F00F07D9F12B14BFB0
:1011500001330023C5F89004C5F8883403F5F9730A
:1011600007EB830393ED5B7AD5F8943407EB8300A8
:1011700000F58050D0ED317A05F5936CDCED006A16
:1011800077EE677A013377EEA67AF12BCCED007A11
:1011900080ED317AC5F8943400F0C38087EE880A78
:1011A0000692B5EEC00AF1EE10FA56BF5FED2A7A4C
:1011B000B0EE690A20EE670A02F0ACFDD7F878318C
:1011C000069A03990233F02BD4BFF61AF03E002E94
:1011D000BCBF079BF618049B03EB8606D7F858356F
:1011E000D6ED007A0233F02BD4BFE41AF03C002C89
:1011F000B8BF089B67EE807AB8BFE418059B42ED44
:10120000017A03EB8404D4ED007A67EE807A09F169
:101210000103904541ED017AC5F89C347FF4D2AECC
:101220000C9E0D9C504A514BF3EC017AF1EE677A1B
:101230009845E2EC017AF7D10B9B9FED4D6A4D4842
:10124000991C099BBFEE007AF7EE006A9A1C29E010
:10125000F4EEE67AF1EE10FA52DC67EE867AFDEEF5
:10126000E77A17EE903A1BB2F6EC017A22F8023FC9
:10127000F4EE677AF1EE10FA47D6F4EEC77AF1EEA3
:1012800010FA1DDBF4EEE67AF1EE10FA35DC67EECB
:10129000867AFDEEE77A17EE903A1BB2A04521F868
:1012A000023F12D0F4EC017AF4EE677AF1EE10FA14
:1012B00029D6F4EEC77AF1EE10FAC9DA0346D3E77D
:1012C0000346A04521F8023FECD1099E0A9D002269
:1012D0003146284601F018F80B9C01222146284689
:1012E00001F012F8304600F0E5FF20460FB0BDECEB
:1012F000068BBDE8F04F00F0DDBF47F6FF73CDE78A
:1013000047F6FF73B0E70023AEE70023C6E74FF0D0
:10131000010EFEE6069202F003FD069A60EE2A7ABE
:10132000A7E60023C5F8943407F5A45007F58653C3
:10133000DFED117A04330830B3EC017A984277EE8E
:10134000877AF9D105F59363C3ED007A26E70FB0EC
:10135000BDEC068BBDE8F08FD5F88C3400F1010EA2
:10136000D7E60998C2E700BFA824FF1FA826FF1FE1
:1013700000FEFF460180FFFF000000002DE9F04F56
:101380002DED088B08488BB075220146002301E043
:1013900011F8012F0133002AFAD1044A044C5A40B3
:1013A0007521612309E000BFBD63000067E6096A9B
:1013B000512D9ECC0B4610F8011F534004FB03F344
:1013C0004FEAF3420029F5D1E44CE54BE54FDFF855
:1013D000E8939FEDE5AAE54EDFEDE59A9FEDE59AEE
:1013E000DFEDE58A9FEDE58A82EA124202FB04F412
:1013F00084EA543403FB04F40FCF0DF10C0CACE879
:101400000F0084EA144404F1DA4404F52D143B6817
:10141000CCF8003004F567543534C84609F140056E
:1014200044F0010284EAD43302FB03F3D44A069267
:1014300043F03D0183EAD31201FB0232534083EAB9
:1014400093338DED039ACDED048A0DF10C0EC9F89E
:10145000004048F8043FBEE80F00A5F1240C45ED1C
:101460000B9A45F8288CACE80F0040F6681BDEF8B4
:101470000030CCF8003040F6641A2F4645F80CBC1A
:1014800045F808AC45F8105CA7EC018ABE42FBD1D8
:1014900055ED0B7A67EE8A7ABFEE000A002745F811
:1014A000047C80EE270A02F0CFFA05F5E14304F14F
:1014B000DA4404F52D1404F56754353483ED190A24
:1014C00047F218131D441E44AE4B9845A8D1AE4BAD
:1014D000DFEDA78ADFF8E4E2AC4CDFEDAD9A9FEDDB
:1014E000AD9A9FEDADBADFEDADAADFF8D482AC4D79
:1014F000DFF8D0A203F27442C2ED008A0322C3F8DF
:101500008824BEE80F0003AE01960FC69EE80700D0
:1015100086E807000096019E0FCE04F1040CACE8AB
:101520000F0096E807008CE8070020462030C0ED49
:10153000008AFEF791FF0123636204F12000FEF7A9
:101540008BFF04F12000C4ED0A9A84ED0B9A84ED20
:101550000C8AFEF781FF20465430C0ED008AFEF76A
:101560007BFF0123A36504F15400FEF775FF04F12E
:101570005400C4ED179A84ED189A84ED198AFEF789
:101580006BFF20468830C0ED008AFEF765FF01231F
:10159000C4F88C3004F18800FEF75EFF04F1880087
:1015A000C4ED249A84ED259A84ED268AFEF754FF33
:1015B0002046BC30C0ED008AFEF74EFF0123C4F880
:1015C000C03004F1BC00FEF747FF04F1BC00C4EDDD
:1015D000319A84ED329A84ED338AFEF73DFF20463E
:1015E000F030C0ED008AFEF737FF0623C4F8F43070
:1015F00004F1F000FEF730FF04F59270C4ED498A63
:10160000FEF72AFF0623C4F8283104F59270FEF78E
:1016100023FF4FF0010384F8643104F1F00084EDFE
:1016200056BAC4ED58AA84ED578A84ED3EBAC4ED8B
:101630003FAA84ED408AFEF70FFFB2EE00AA04F540
:10164000927084ED4BBAC4ED4CAA84ED4D8AFEF73E
:1016500003FF04F1F00084ED57AA84ED478A84ED7E
:10166000488A84ED548A84ED558A84ED40AAFEF7B9
:10167000F3FE04F5927084ED4DAAFEF7EDFE04F53D
:10168000AC63C4F85035F423C4F87431C4F854354D
:10169000F02304F5C070C4F87831C4F8583504F567
:1016A000A55304F58059C3ED008AC4F870014FF4C6
:1016B0007472394604F02CFC04F5AC60C4F87C71FB
:1016C0004FF47472394604F023FCC9F88874C9F8E1
:1016D0008C74C9F89074C4F85C754FF47172394613
:1016E00009F1C40004F014FC09F5936282ED008A4C
:1016F00009F2AC4282ED008A4FF03F42C9F894747F
:10170000C9F89C74C4F86821264BC4F86C3109F2FE
:10171000A44209F595692449244B11602448C9F86D
:1017200000300C2100F0FEFCD8F8004040F2EE2B17
:1017300002F00EF82B78002B46D09AF80030DB0729
:1017400042D51C4AD8F8003012689B1A0E2B3BD9A0
:101750000BB0BDEC088BBDE8F08F00BF6BCAEB850A
:1017600035AEB2C2F8A30000CDCC4C3DE84EFF1F11
:10177000A6552C479A99993EAE47613E000000005D
:10178000000040401829FF1F08E9002098ED0020C4
:1017900000009644F4FD343F00007A459A99993F41
:1017A000490401200AD7A33CF9AD713FC5B57F3F7D
:1017B0000002FF1F740401200829FF1F0CA4000071
:1017C0005803012070040120D8F800302A781B1B30
:1017D0002AB1B3F5FA6FBBD801F0BAFFA8E75B45B1
:1017E000FAD90BB0BDEC088BBDE8F08F2DE9F047BE
:1017F0009FEDE47A2DED088BD0ED008A88EE87AA64
:101800000446F3EE047AB4EEE7AAF1EE10FAD8BF7C
:10181000B0EE67AAB4EECA0AF1EE10FAB0EE608A32
:101820000ADDB4EE00AA28EE8AAAB4EEC0AAF1EE50
:1018300010FA58BFB0EE40AA226A04F5E04540F223
:10184000011385ED42AAA5F8143142B1E069920076
:10185000002104F05DFBD4ED008A95ED42AADFED96
:10186000CA7AD4ED020AF4EEE70A0023F1EE10FA88
:10187000A362C8EE8A9AC5ED407A00F17581F7EE51
:10188000007AF4EE670AF1EE10FAC8BFF0EE670ACC
:101890009FEDBE0A02F014F99FEDBD7ADFEDBD7A2F
:1018A00020EE070A68EEA77A9FEDBB7AB4EE670ACE
:1018B000F1EE10FAC8BFB0EE670A20EE070AB7EEE5
:1018C000009A80EE280A02F0BFF8DFEDB47A6AEEE3
:1018D000277A39EE400AC7EEA8AA39EE40BA85ED5C
:1018E0003E0A85ED3FBAB0EE6A0A02F0AFF9F0EEBB
:1018F000408AB0EE6A0A02F071F96BEE288AF0EEC7
:10190000407AF0EE490AEBEE670AB0EE680A02F0A0
:1019100099F8C0EE2A6A79EEC97A9FEDA17A77EE3E
:10192000E67AF4EE497AF1EE10FA48BFF0EE497A21
:10193000C5ED3D7AD4ED050AF4EEC70AF1EE10FAD2
:1019400000F19F80F3EE047AF4EE670AF1EE10FAEC
:10195000C8BFF0EE670A60EE8A0AF8EE087AC7EEB2
:10196000A00AB2EE040A02F0ABF8F6EE007A79EEC5
:10197000A77A41F2C823FDEEE77AD4ED046A85ED3B
:10198000410A17EE90EA9E45A8BF9E46BEF1020F9F
:10199000F5EEC06AB8BF4FF0020EF1EE10FA00F19A
:1019A000E680F7EE007AF4EEE76AF1EE10FA6BDD0E
:1019B0009FED754AF0EE676AB5EEC08AF1EE10FA57
:1019C00069D4F7EE007AB4EEE78AF1EE10FA40F34C
:1019D000D3809FED748AD4F80480734FD8F8002028
:1019E0009FED725ADFED724A9FED723ADFED663A73
:1019F00004F517560C36F0EE005ABFEE006A3A4472
:101A000030464FF0010C002116E0012914BFF0EE22
:101A1000637AF0EE437A66EEA77AE64567EEA47A3B
:101A2000E7EE047A67EE887AC0ED007A36DD0131A0
:101A30003A440CF1010C043042F0010982EAD2333D
:101A400009FB03F383EAD31943F03D0A0AFB093982
:101A500083EA090383EA933307EE903AF8EE677A54
:101A6000B0EE467A67EE857AA7EEA57A0029CCD14A
:101A700066EEA47AE7EE047A67EE887AC0ED007A23
:101A8000D5E7F0EE470A66E7B5EEC08AF1EE10FA48
:101A900037EEE64A95D59FED3C8A9CE794ED037AB4
:101AA000C8F8002001F67211B5EEC07A04EB81018E
:101AB000F1EE10FAC1ED017A53D4DFED3F7AB4EEC6
:101AC000677AF1EE10FAC8BFB0EE677AF6EE007AE8
:101AD000E7EE297AFDEEE77A17EE907A002F3EDDE9
:101AE0000EEB070841F2C8239845A8BF9846F04579
:101AF00009DDA8EB0E020EF67310920004EB8000D5
:101B0000002104F005FAB84515DD06EB8706C7F598
:101B100017670337474408F6731204EB870304EB97
:101B2000820474ED017A33ED017A77EEC77AB4421C
:101B3000C4ED007AF5D1DFED217AC5F8EC80B4EE82
:101B4000E78AF1EE10FAD8BFB0EE678A85ED438AD6
:101B5000BDEC088B0023C5F8F030BDE8F087F046F7
:101B6000E9E79FED097AB1E7F0EE670A90E6DFED6D
:101B7000066AB7EE004A1FE7DFED0A7A28EE278AE9
:101B800029E700BF0000164500000000610B363D4C
:101B900000A08C466666E63EDB0FC9C0DB0FC9407D
:101BA000CDCC4C3D9A99193FF5792B6D0000802FD3
:101BB000CDCCCC3FCDCCCC3E3333733F0AD7233C86
:101BC00010B50F4C0F492368DFED0F0A584200F0A3
:101BD000030003F0030258BF424201EB820191ED82
:101BE000000A0A4947F21810013300FB0210236073
:101BF000FFF7FCFDBDE810404FF4C87001F024B8B9
:101C000048020120E8A300006666663F1C29FF1F0A
:101C10009248934A9FED937ADFED937ADFF8A4C25E
:101C20002DE9F0470146002441F8044BDFF898A263
:101C3000DFF89892DFF898E28C4F446082B0034658
:101C40004C608C60CC6000254FF0804647F2181144
:101C5000C3F814909C6183ED077AC3ED087A5D6246
:101C60009F62C3F82CE01C635C639C63DC630B44E1
:101C70004FF07E589A4542F82C4C42F8284C42F8D6
:101C8000246C42F81C5C42F8185C42F8145C42F880
:101C900010CC42F80C5C42F8085C02F8044C02F8E4
:101CA000034C42F8208C0A44D0D1714E714A7260C4
:101CB000714A724BB260724A3261724AF26103F247
:101CC0007442C3F88844C2F8009003F58F6283F829
:101CD0008C44156003F27C423060156003F590621D
:101CE00003F284434FF07C5018604FF08243F3605E
:101CF0004FF03F43B36164491560C6F81480D022A9
:101D000006F1200000F0CCFD6049682206F1F000E9
:101D100000F0C6FD5E4BC6F858315E4BC6F8683120
:101D20005D4BC6F86C31012386F86431C6F870410A
:101D3000C6F87441C6F87841C6F87C41C6F85045EB
:101D4000C6F85445C6F85845C6F85C454FF472725B
:101D50000021C6F85C51C6F8608106F6341006F51D
:101D6000805704F0D5F84FF47272002106F6FC405B
:101D700004F0CEF84FF47172002107F1C40004F0B2
:101D8000C7F8464A4649116007F59361454B0D6017
:101D900006F5A551C7F88844C1F8009007F2A441A0
:101DA000C7F88C44C7F89044C7F89444C7F89C44DB
:101DB000C1F80080146107F595611481D46007F2C1
:101DC000AC471C680D603D60002C43D0234619468B
:101DD0005B69002BFBD14A61334B1360334B966137
:101DE0000021516151609172012003F11802587273
:101DF0001A611972D960996122466469002CFBD17D
:101E000053612B4A5C615C609C721A60274800F049
:101E1000F9F8284800F0A8FA244B204900942246FB
:101E2000244800F015FB244A2449224801F004FE0E
:101E3000234800F099FA0122009218491B4B2048D0
:101E400000F006FB1C4A1D491D4802B0BDE8F047E2
:101E500001F0F2BD1A601446BEE700BF0829FF1F5B
:101E6000349AFF1F3333B33E295C8F3E000020407D
:101E700098ED00200000964400007A4508E9002013
:101E80009A99993F0AD7A33C28A40000F8A400001F
:101E900000007A449A9999BECDCC4C3DC428FF1FCE
:101EA000D06300006C020120DC630000A828FF1F43
:101EB00068A50000E028FF1F401EFF1F0525000049
:101EC000F428FF1F0000DC4368ED002000803B4742
:101ED0006666663F10B5002100F03AFA98B172B616
:101EE0000C4A136883B10C490C6854B114600B4A56
:101EF00008600024146062B6BDE81040184600F087
:101F0000D9B9086062B610BD044910600B6062B6B2
:101F100010BD00BF5C020120600201204C020120C4
:101F200070B52D4B2D4A196818792D4C09682D4B29
:101F3000D0772D4D20682E68A3F50072994238BFE6
:101F40001A4680B306F1020C00EB4C0C10320CF177
:101F5000400E3CF8023B83F400431032190A7831FA
:101F6000DBB2F44542F8201C42F81C3C42F8181C35
:101F700042F8143CEDD120367F2E0BD82E601B4B3F
:101F80001B7833B11A4A13780133DBB2032B1BD809
:101F9000137070BD00262E6000F08CF9154B1A6886
:101FA00022601E60EBE702F1100102F50473F822D3
:101FB00041F8102C41F80C0C41F8082C41F8040CA5
:101FC00010319942F4D1DAE74FF0E02300200121EB
:101FD0001070C3F8081270BD540201200080004048
:101FE0005C0201203010FF1F4C0201205102012031
:101FF000500201206002012010B5044600F050FBA1
:10200000204610BD38B52C482C4D012100F0E6FAD1
:102010002B492C482C4B00220A6040F21F21026001
:10202000426081606921C16028214161082101600D
:102030004FF4517119635963782101612B46826114
:1020400005F58060C3E9001208338342FAD11A4CC7
:102050001E49236859601E49D9601E491D601961D7
:102060008021D982D98321799A61082001F18041A8
:102070009860988201F50431062098839C200A70AC
:10208000154B08702279DA7600F056FA2279134C53
:1020900013492070531102F1100003F13823114C41
:1020A00041F8204040339B0002F01F02012101FA59
:1020B00002F21A6038BD00BF54020120300EFF1F2B
:1020C0005C020120009003400090044004002202C2
:1020D00000FCFFFF109003400080004051020120EF
:1020E0000014FF1F211F0000024A0349034801F0AA
:1020F000A3BC00BF401EFF1FF91F000054020120B7
:102100004FF0E0230122C3F8082270470368184704
:102110000B680360704700BF0B680360704700BF27
:10212000704700BFF0B5B1F5607F8DB00E460F4629
:1021300028BF4FF46076054672B62B4B002418601A
:102140002A4B2B481C807022214603F0E1FEC7B1C8
:10215000274821464FF0010C4A0901F01F0350F8AF
:1021600022400CFA03F3013123438E4240F822301F
:10217000F2D828460023438001339E4200F5827046
:10218000F9D81C4C257815B162B60DB0F0BD082009
:1021900000F0D0FC184B05608022027106460093C7
:1021A000069302A9154B029308A8FFF7B1FF144A42
:1021B00006A9304600F0A8FA069B08A8DB689847F5
:1021C000009B02A8DB6898472378002BDCD10D49DF
:1021D0004FF0E0220123D02081F84000C2F80831FE
:1021E000237062B60DB0F0BD6402012078020120B8
:1021F0007C020120740201206CA500000121000076
:10220000FFA7020000E400E030B472B6244D254C74
:102210002A8804F1700104EB82038B423CD204F162
:102220006F01C91A501C00EB910002E0013282429A
:1022300032D09C4653F8041B0029F7D0B1FA81F044
:102240004FF00043C34021EA0301CCF8001001B96C
:102250000132154B2A801A88013291B2198062B678
:10226000ACEB040C4FEAAC0CC0EB00640CEB8C1C28
:1022700041F67C73C0EB841003EBCC1303EB8003BB
:102280000A4800680124C4541844094B1C8894422D
:1022900038BF198030BC704762B6002030BC704730
:1022A000780201207C0201206802012064020120E2
:1022B00070020120428872B60378012B03D9013BDA
:1022C000037062B6704751090C48D24302F01F02F6
:1022D0004FF0004310B4D340094C50F82120134371
:1022E000228840F821308A42064A88BF218013881C
:1022F000013B138062B65DF8044B70477C020120FD
:102300007802012068020120C36813B91DE0DB6870
:10231000E3B1187A9042FAD110B4586893F809C022
:10232000006950F82C4054B1DB682BB1187A904208
:10233000F3D0DB68002BF9D15DF8044B704740F80F
:102340002C10087801300870EEE77047704700BF26
:10235000437A8B4206D90369002253F8210043F8DF
:10236000212070470020704704490022026042602B
:10237000028102740A68C26008607047EC020120A2
:10238000037CFBB903680146FBB14368EBB1427AB9
:102390005B7A9A421CD230B472B62B4B1C68ECB1FB
:1023A000E368C3B1486801E0DB68A3B15A688242C0
:1023B000FAD193F809C04A7A9445F5D162B604205F
:1023C00030BC7047012062B67047032062B6704788
:1023D000022062B670476469002CE1D11B4C23686F
:1023E00043B1994202D10BE0994207D01A46DB680B
:1023F000002BF9D1052062B630BC704702F10C0405
:102400000D68E868E8B1C36823B908E0DA681846DF
:1024100032B113468142F9D162B60620D0E70346B5
:10242000D960CB6823600020C860AA7A01231A44CF
:10243000AA724A682B72947A13721C4494720B74B9
:10244000D9E7E960EDE700BF6C020120EC02012052
:1024500010B5047C9DF808E00CB1012010BD02729B
:1024600080F809E0BDE81040C0E90013FFF788BF1D
:10247000037C002B37D010B54368427A5B7A9A42CE
:10248000044638D272B60168CB68002B2DD0984232
:1024900033D01A46DB689C422AD0002BF9D16268FF
:1024A000607A136953F8200048B1FFF703FF72B652
:1024B0006268617A1369002043F8210021688B7AF1
:1024C000013BDBB28B7203B90B72937A013BDBB237
:1024D000937203B913720A4B00201A682074E260E9
:1024E0001C6062B610BD0120704762B6032010BDAB
:1024F000E368D360D3E7022010BDC368CB60CEE7AA
:10250000EC02012010B50446FFF7B2FF094A136838
:1025100043B19C4202D108E09C4205D01A46DB68D8
:10252000002BF9D1204610BD0C32E3681360204621
:1025300010BD00BFEC020120084B1A7862B90848B0
:102540004FF0E02101224FF0D00C80F840C0C1F8DC
:10255000082110461A70704700207047740201204D
:1025600000E400E04FF0E022F8B5D2F8FC3D174D52
:10257000174943F08073C2F8FC3D2B680C6843F0A8
:1025800001032B606E689CB1237A20466BB12368EF
:102590006F681B6898476B68E188DB1BC3F30F12F9
:1025A000B1EB131FA28038BFE2806469002CEBD12D
:1025B000064B084A5B681088074C9B1BC3F30F113E
:1025C000B0EB131F218038BF1180F8BD001000E070
:1025D0006C020120760201207202012010B472B652
:1025E00021B9026812B103790F2B44D92A4C2188F2
:1025F000002341FA03F212F0010209D00133102B3B
:10260000F7D162B60022026003715DF8044B704797
:102610004FF0010C0CFA03FC41EA0C01218062B678
:102620001E495FFA83FC80F804C00C6C44F002047D
:102630000C64CC6B44F00204CC6303F10073A1F58D
:10264000802140F2824403F590630C605B0181F8C5
:102650001AC081F81EC081F818C081F81FC05DF84B
:10266000044B0360C3E90022C3E90222C3E9042248
:10267000C3E906227047084C218841FA03FC1CF08C
:10268000010FB5D003F1007303F59063B2EB431F64
:10269000AED162B6B9E700BFF0020120008004406D
:1026A00003790F2B11D8094A937672B6084990F82E
:1026B00004C00B88012202FA0CF223EA02030B8009
:1026C00062B6102200230271036070470080004050
:1026D000F0020120704700BF704700BF704700BF85
:1026E000704700BF704700BF38B5064CA4F16005C5
:1026F00054F8083C2046DB68183C9847AC42F7D1B8
:1027000038BD00BF480301202DE9F041036888B0BF
:1027100004461746002B3DD000229A600122DA6061
:10272000294DDFF8BC801D442D1151F8083B029360
:1027300005EB4506F60004A85B68984758F8063094
:1027400006F108004044DB6801909847029B1F4A4D
:10275000029204A9019848F806309B689847029BAA
:1027600004A8DB689847236819491F6003229A6010
:1027700005F13002531103F13823207968544033B6
:1027800001209B0002F01F0200FA02F21A6008B05A
:10279000BDE8F0810F4AD36B43F40003D36300BF5D
:1027A0000D4B01221A6003F580730C4A0360986890
:1027B0000028B5D0103393422360F8D10020206068
:1027C00008B0BDE8F08100BF008FFCBF7CA5000011
:1027D00030E400E00080044000700340407103409A
:1027E000F80201200448054A50F8083B01211B6803
:1027F000C2F80C11184700BFF80201200070034016
:102800000448054A836901211B68C2F81C11203065
:10281000184700BFF8020120007003400448054A31
:10282000036B01211B68C2F82C113830184700BF18
:10283000F8020120007003400448054A836C01211E
:102840001B68C2F83C115030184700BFF802012045
:1028500000700340094B0A480A4A0B4910B40B4C5C
:102860001C6098609C6118621C6398639C64186586
:102870005DF8044B002001F0DFB800BFF802012032
:10288000D5260000401EFF1FE92600006CA50000B1
:1028900008B5FEF773FDFFF793F900F059FFFAE76B
:1028A00001B441EA000313F003036FD1403A41D36E
:1028B00051F8043B40F8043B51F8043B40F8043B1A
:1028C00051F8043B40F8043B51F8043B40F8043B0A
:1028D00051F8043B40F8043B51F8043B40F8043BFA
:1028E00051F8043B40F8043B51F8043B40F8043BEA
:1028F00051F8043B40F8043B51F8043B40F8043BDA
:1029000051F8043B40F8043B51F8043B40F8043BC9
:1029100051F8043B40F8043B51F8043B40F8043BB9
:1029200051F8043B40F8043B51F8043B40F8043BA9
:10293000403ABDD2303211D351F8043B40F8043B49
:1029400051F8043B40F8043B51F8043B40F8043B89
:1029500051F8043B40F8043B103AEDD20C3205D359
:1029600051F8043B40F8043B043AF9D204320AD04F
:10297000D2071CBF11F8013B00F8013B03D30B78D1
:1029800003704B78437001BC704700BF0C2A4AD3D8
:1029900010F0030311D0C3F10403D21ADB071CBFEC
:1029A00011F8013B00F8013B07D311F8013B00F897
:1029B000013B11F8013B00F8013B11F003033FF428
:1029C00075AF30B4043AC91AC3F1040C51F8044B82
:1029D000022B19D0032B0BD0240A51F8043B1D06FF
:1029E00044EA050440F8044B1C46043AF4D216E0CD
:1029F000240E51F8043B1D0244EA050440F8044B40
:102A00001C46043AF4D20AE0240C51F8043B1D049D
:102A100044EA050440F8044B1C46043AF4D204325C
:102A2000B1EB0C0130BC043AA0D3013A11F8013BE0
:102A300000F8013BF9D20B7803704B7843708B7828
:102A4000837001BC704700BF08B50F4C636B58031F
:102A50000DD4636B59050FD4636B1A0511D4636BE6
:102A6000DB04F3D500F012F8636B5803F1D500F0E6
:102A7000BFF9636B5905EFD500F008F8636B1A05D1
:102A8000EDD500F003F8EAE70080044008B5FFF751
:102A9000DBFF00BF014B10221A8070470020054069
:102AA000704700BF0B490A6848B108B5EC461318D7
:102AB000ACF50050834204D20B60104608BD1046AE
:102AC000704703F08FFA0C234FF0FF32036010467B
:102AD00008BD00BF441EFF1FFEE700BF074BDA78AA
:102AE000802A01D00020704705490648486400222A
:102AF0005A70DA78802AFCD00120704700E0074045
:102B00000080044000002822074BDA78012A01D017
:102B10000020704760225A70DA78802AFCD1034B7B
:102B2000034A5A640120704700E0074000800440D7
:102B30000000060202F028BF034B002210215A6158
:102B40005A6018605961704700D00340704700BF59
:102B50004FF0E02C2DE9F0414FF00068CCF80481F3
:102B60004FF08058CCF804814FF00058CCF8048125
:102B70002F4A3049304C314D314E4FF08048CCF81F
:102B80000481282300204EF6FF7E09274FF00048DD
:102B9000CCF804814860C1F808E0CB604B61CB61A0
:102BA0004B62CB624B63CB634B64D3605361D361A5
:102BB0005362D3625363D36353640F606860C5F894
:102BC00008E0EB606B612F606060C4F808E0E360D0
:102BD000636127605060C2F808E0D36053611760FA
:102BE000F16A41F40071F162716802F5803241F0DE
:102BF0000071716047F6FF740821506082B09460E4
:102C0000D3605361116000F047FEFFF79FFF0D4C4A
:102C100023680093009B132BFAD900F0A5FC2368CE
:102C20000193019BB3F5967FF9D302B0BDE8F08123
:102C300000900B400080034000800B400090034058
:102C400000800440580301202DE9F843044672B681
:102C5000214F4FF0E02293693D68D2F8042D62B60F
:102C6000520102D5322B88BF01350CB9BDE8F8837B
:102C7000DFF86890DFF86880A9EB03039B08A8FBE6
:102C800003234FF47A7202FB05F505EB93054FF031
:102C9000E02672B6B1693A68D6F804CD62B6A9EBFF
:102CA00001039B08A8FB03031CF0806FC5EB930393
:102CB0004FF47A7002D0322988BF013200FB023310
:102CC000B3F57A7F04D3013CD0D005F57A75E0E7FF
:102CD00000F03EFDDDE700BF580301201FBF0200EA
:102CE000176CC11610B472B61A4A1B4C042312F8A2
:102CF000011B090743F0010C05D554F8331069B1E5
:102D000054F83C10C9B10433182BF0D162B6134B00
:102D100000221A705DF8044B00F09CBC0F4904EBD4
:102D2000C302083050600A780D4844F83300013A75
:102D30000A7062B65DF8044B7047084A094904EB13
:102D4000CC0308305860137844F83C10013B1370F2
:102D500062B6EFE7F0A500000000FF1F5604012057
:102D600088004000C8004000421E042A0ED81C4BB8
:102D7000400140F0100010B4034472B6194CA05C3E
:102D800003281DD8DFE800F014160319704705204A
:102D9000A05413F0080F088814BFC82288220831F5
:102DA00042EA004259601A6062B65DF8044B70470F
:102DB0000320EDE708330220EAE708330420E7E7C1
:102DC000094B53F8220038B1084B53F822004160F8
:102DD00043F8221062B6E8E743F82210034BF7E706
:102DE0000000FF1F440401201C04012030040120C6
:102DF0002DE9F04FDFF810A3DFF810B385B03DE008
:102E0000B14D9E0805EBC607013A796813F0080337
:102E1000D4B2A1F1080040F0BA8055F836204FEA4C
:102E2000124C120C21F808CC00F0A98021F8063CC5
:102E300041F8043CA54B53F82420002A00F00382FB
:102E4000A34B53F82420506043F82400A14B33F8DF
:102E50001420944423F814C000F0DCFB002800F098
:102E6000EB8117F0080F9C4B00F1080018BF5B4680
:102E7000786045F8363008238AF880309AF8803038
:102E80005907DCB21DD5954B1B78BBB194490A7824
:102E900002F0FF032AB1013BDBB20B70002B00F004
:102EA000488390490A7802F0FF032AB1013BDBB264
:102EB0000B70002B00F0ED8100F0F4FB04238AF886
:102EC000803014F0080200F0CC819AF89020D3B240
:102ED000120995D1DFF8F0919B0809EBC30459F86A
:102EE00033006468C0F3830009287CD00FD8013810
:102EF000012808D87C4A158842F22100854200F05A
:102F0000FB8149F833B001238AF89430B3E70D28E8
:102F1000F9D1D4E90007754D49F833B0724E744CBD
:102F2000C9F8102083B240F2816CC9F818202A60D9
:102F300063454FF00102C6E90007227000F2FF80EE
:102F4000B3F5D06F80F0CB82B3F5817F00F026829D
:102F500040F2DE8040F2023293427BD107F07F07DD
:102F6000052F00F20881020C40F00581614911F83B
:102F7000273043F0020301F82730134670E017F0C2
:102F8000080F554B18BF5B4645F8363073E700F025
:102F900061FB5949594A51F82430002B00F0578100
:102FA000586841F82400115D03F108007860032996
:102FB00005D8DFE801F0120F1502042111551A8817
:102FC00017F0080F14BFC823882343EA024345F8CB
:102FD000363050E702211155F1E703211155EEE794
:102FE00005211155EBE7414D2A683AB34449404C5D
:102FF0000F88444894F800E00678402F3B4628BFED
:103000004023BEF1000F8EF0010E84F800E046F080
:10301000020486F00106067009EBC400426014BF8A
:10302000C820882040EA03401A44FB1A9BB249F8A2
:1030300034000B80002B00F036812A602A4B1A885E
:10304000B2F5A06F7FF45FAF9A788AF898200022DB
:103050005A7058E7B3F5A06F40F08D8000221346F8
:10306000B6F806C02748944528BF944667460278BC
:10307000402F28BF402742F0020E3E0409EBCE0845
:1030800046F0C806C8F8043049F83E6000263B44C4
:103090002670BCEB070782F00106067040F0118134
:1030A000BCF13F0F4FF0010509D946F0020602704E
:1030B00009EBC60225705360882349F83630012396
:1030C0008AF894301FE700BF0000FF1FEC030120C7
:1030D000000401204C040120880040004904012024
:1030E0004A0401207804012014040120E003012097
:1030F000DD030120C02007401C04012044040120FE
:10310000DE030120DC03012000200740C80040004E
:10311000802B00F08B81822B2DD107F07F07052FAC
:1031200029D8A74A00231380A64B13F827309F07FE
:1031300040F1FC8101231370A14B022290E742F27F
:10314000210C6345BBD01DD942F2212293420DD1FF
:10315000BFB2002F82D19C4B1A689C4B1A609C4BCB
:10316000C0F3074000221870134679E742F221327B
:1031700093423FF473AF0F238AF8C03001238AF8DB
:103180009430C0E6B3F5086F00F04A81B3F5106FD4
:10319000F1D1904BC0F307400425187059F8353031
:1031A0001A0606D40135182D0CD059F835301A06F8
:1031B000F8D509EBC50301355868083800F04AFA1C
:1031C000182DF2D1844A854B0292854A0192854E90
:1031D000854ADFF848820394009200251C4656F881
:1031E000047B2FB138467F6800F034FA002FF9D104
:1031F000009BD8F8007043F8045B46F8045C009329
:103200002FB138467F6800F025FA002FF9D1029BD4
:1032100048F8045B43F8045B0293019B23F8025BCC
:1032200001932378023B032B00F20981DFE813F0BE
:103230003F0104013F0104016C4A45F83600137850
:103240000133137017E643F82400674BFCE5115D6A
:10325000022926D07FF60FAE03291DD10123135575
:1032600009E6E0076ED4210621D4A20708D5604BF9
:1032700093F888200221D2B283F8882083F8801046
:10328000E30603D55A4B102283F8802005B0BDE831
:10329000F08F00F039FA0FE617F0080F14BF032380
:1032A00002231355E7E53F2F98BF0022C5E6504B98
:1032B00080220D2183F8C01083F88020A207DFD57B
:1032C000D5E746F002060270402F09EBC6003A46E9
:1032D00028BF402243601004134440F088000121BD
:1032E000BA1A49F83600217055D02B60414B1A802C
:1032F00001238AF8943006E692885AB93E4AE51DC1
:1033000014F8011B02F8011FAC42F9D13B4A1268C4
:10331000862A3CD03A4C3B4825780278002D85F02F
:103320000105257042F0020482F00102027009EBEF
:10333000C4024FF00000506014BFC822882249F830
:103340003420DEE52A4B2F482F49304C022583F8E4
:10335000945002702E480C602E4D48608C600D24F5
:10336000CD60FF200A618A6183F8C04001219F245B
:1033700083F8880083F8800083F8982083F88C0015
:1033800083F8844083F8941005B0BDE8F08F224A9A
:103390000F201070BEE73F2FA7D890E607F07F07F9
:1033A000052F3FF6E8AE000C7FF4E5AE054A12F8B3
:1033B000273023F0020302F82730002213464FE69D
:1033C000E4030120C02007405803012074040120B9
:1033D000700401204904012030040120440401202C
:1033E0004C040120EC0301200004012056040120BC
:1033F00000200740DE03012067040120680401204B
:10340000DD030120DC0301200000FF1F88004000D5
:103410005C0301209C0301204A0401201C040120BC
:10342000484B49491B780B700B4619E6464A002366
:103430001380454B022213E64FF001032370434BE8
:10344000B34204F101047FF4CAAE414E039CDFF89D
:103450001481404F00233370042518F8013B3E4A85
:10346000AB541B0725D445F0020145F00302043597
:103470000023182D49F8313049F83230EDD1374F5B
:1034800025783A7842F0020009EBC00C85F001067D
:10349000CCF80430002D4DD1882382F00102267033
:1034A0003A7049F8303001238AF894302BE52570C2
:1034B000C5E700F0AFF8002832D009EBC5030830AB
:1034C000586049F8357000F0A5F808B345F00103DD
:1034D00009EBC3020830506049F833B0C3E7204A13
:1034E0005368002B3FF447AE000CBFB204E01369F1
:1034F0000C32002B3FF43FAE11888142F7D1518846
:10350000B942F4D1000A03280CBF1A781289A7E542
:1035100033780133337045F0010349F83300A2E7F3
:10352000337849F8350001333370CCE7064B02227B
:1035300096E500BE2670C82382F001063E7049F869
:103540003030BCE549040120E403012000040120DF
:103550005604012088004000C0200740DC03012001
:1035600090A50000F0A5000010B500F0FBF90023C5
:10357000234A194642F8331002EBC3000133182BDB
:103580004160F7D11F48204C436B43F480234363D1
:10359000D4F8003800F5283000F5807043F040730F
:1035A000C4F80038032480F84440184BA02480F865
:1035B0004040C2F3072483F89C40C2F30744120E34
:1035C00083F8B0404FF0FF0C83F8B420012283F859
:1035D00080C00F4C83F888C083F810C083F8942013
:1035E00001704FF0E02183F884204FF0700C4FF40D
:1035F0000012102384F835C0C1F80421037210BDF5
:103600000000FF1F0080044000D000400020074061
:1036100000E400E072B60D490B68B3FA83F01D2890
:1036200010DC4FF00042C24023EA02030B6062B696
:10363000074A00EBC000C10002EBC000002353505A
:103640004360704762B60020704700BF481EFF1FEE
:10365000D015FF1F0E4BC31AB3F5076F10D20D4ADA
:10366000127872B972B60C4A0C49A2FB032308689F
:103670004FF000421B0922FA03F303430B6062B6CA
:103680007047074A1278002AECD0FFF72BBB00BF27
:10369000D015FF1F56040120398EE338481EFF1F46
:1036A0004904012070B50B4C257845B90A4E3168A4
:1036B0000123237009B14B8813B90023237070BD17
:1036C0009B000B800420FFF74FFB00233560237025
:1036D000F5E700BF5704012058040120084B094AB0
:1036E0001B6810B554881BB11A885B88D31A1C4418
:1036F0000CB1204610BD00F02BF8204610BD00BFD5
:103700005C0401204C04012038B50E4B1B7853B9E2
:103710000D4C216841B103F0FF054B880B8003205D
:10372000FFF722FB256038BDFFF774FF014620B18B
:10373000BDE838400320FFF717BB044B01221A7085
:1037400038BD00BF6004012064040120780401201A
:103750002DE9F843324E337863B1324F3A784AB9A3
:103760000122D9073A7043D49A0726D400225B0776
:103770003A7001D4BDE8F8832B4B1A68002AF9D0BF
:10378000EFF30582002AF5D1EFF3108572B61868C1
:1037900000283AD0254C2178002936D142691A6098
:1037A00001232370002A37D0916105B962B6002544
:1037B0008368457798472570DCE7DFF87C8098F8C8
:1037C0000020002AD2D00025DFF870902B4659F84F
:1037D0002340236820461B690135984708B12369B7
:1037E000984798F80020EBB29A42F0D83378BDE7BA
:1037F000FFF774FF68B90E4B1B780BB93378B3E74A
:10380000337803F0FE033370AEE7002DB2D162B619
:10381000B0E700F0A5F8EEE7064B1A60C5E700BF79
:103820004C1EFF1F790401207C0401208804012024
:103830008CA500008C040120A80401209004012024
:1038400070B5EFF3108272B60C4C206880B10C4E4C
:1038500000254369236073B19D6102B962B6836834
:1038600045779847EFF3108272B620680028F0D1B0
:1038700002B962B670BD3360EFE700BF8404012077
:1038800080040120FFF7DCBF024A13680133136094
:10389000704700BF580301202A4B2B4A6020E121CA
:1038A0001870597013782948082B34D00A2B20D06F
:1038B0000C2B274B0CBF35215D2112228160C26089
:1038C0009960DA60234B21491B78214ACBB101234F
:1038D0000B621362204B1D491B781D4A012B13D923
:1038E000042B1BD884234B6253621C4B01221A7099
:1038F0007047174B392113228160C2609960DA60EA
:10390000E0E70B621362E5E780234B625362134BDF
:1039100001221A7070470E4B2121ECE7082B06D8C4
:1039200085234B6253620D4B01221A707047102B96
:1039300094BF862387234B625362084B01221A707F
:10394000704700BF004007404D1EFF1F00B00340FE
:1039500000B00B40A90401204E1EFF1FAA04012045
:10396000704700BF10B584B072B6FFF7B7F8174ABA
:1039700017495160702080231070137013781B0654
:10398000FCD5D468FFF7C0F862B6124B9C423CBF2E
:1039900004EB8404640020460F4C01A90A2200F0C5
:1039A0001DF801A92046002311F8012B01333AB17B
:1039B0000A2B20F8022FF7D11623237004B010BD74
:1039C0005B00DBB2237004B010BD00BF00000240FA
:1039D0000000074180969800401FFF1F01F1FF3C47
:1039E00070B56546002401E070460134B0FBF2FE7C
:1039F00002FB1E03092B03F130068ABF3733F3B2F3
:103A0000DBB2904205F8013FEED2631C0022CA549B
:103A1000C8187CB162461CF8015F10F801ED8CF803
:103A200000E0A1EB0C030232013B521A23449A42FC
:103A30000570EFDB084670BD03460846194602F0E4
:103A4000B9BA00BF00F020BB08B52DED028BB0EE77
:103A5000408A00F0C1FBF0EE408AB0EE480A00F068
:103A6000AFF868B1DFED127AB4EEE78AF1EE10FA42
:103A70000BDCDFED107AB4EEE78AF1EE10FA0FD42A
:103A8000B0EE680ABDEC028B08BDDFED0B8A02F0D8
:103A9000A9FAB0EE680ABDEC028B2223036008BDD0
:103AA00002F0A0FA2223DFED058A0360E8E700BFF9
:103AB0001772B142B5F1CFC20000807F0000000054
:103AC00008B52DED048BB0EE608AB0EE409A00F0A0
:103AD0007BFCB4EE488AF1EE10FAF0EE408A0BD689
:103AE000B5EE409AF1EE10FA17D1B5EE408AF1EE3C
:103AF00010FA06D1F7EE008AB0EE680ABDEC048B2E
:103B000008BDB0EE480A00F05BF80028F4D0B5EE2E
:103B1000C08AF1EE10FAEFD525E000F051F888B137
:103B2000F5EE408AF1EE10FAE6D1B0EE490A00F067
:103B300047F80028E0D0B0EE480A00F041F800282D
:103B4000DAD010E0B0EE490A00F03AF80028E7D0E9
:103B5000B0EE480A00F034F80028E1D0F4EE688AAC
:103B6000F1EE10FA04D602F03DFA22230360C3E717
:103B700002F038FA21230360BEE700BF08B52DED3F
:103B8000028BB0EE408A00F01BFCB4EE488AF1EEE6
:103B900010FA06D6DFED098AB4EEE88AF1EE10FAE3
:103BA00002D4BDEC028B08BD02F01CFA88EEA80A14
:103BB000BDEC028B2123036008BD00BF00000000A4
:103BC00082B08DED010A019820F00040B0F1FF4F66
:103BD000ACBF0020012002B0704700BF10EE103AC9
:103BE000184A23F0004393421BDDB3F1FF4F02DB81
:103BF00030EE400A704700B583B0684600F026FFFB
:103C000000F003000128DDED010A9DED000A0CD053
:103C1000022812D070B1012000F00EF903B05DF857
:103C200004FBDFED090A00F085B800F005F9B1EEFC
:103C3000400AF3E700F07EF8F0E700F07BF8B1EE21
:103C4000400AEBE7D80F493F0000000010EE103AA1
:103C5000194A23F0004393421CDDB3F1FF4F02DB0E
:103C600030EE400A704700B583B0684600F0EEFEC3
:103C700000F003000128DDED010A9DED000A0ED0E1
:103C8000022813D070B100F055F8B1EE400A03B02D
:103C90005DF804FBDFED090A002000F0CDB800F06C
:103CA00049F8F4E7012000F0C7F8F0E7012000F040
:103CB000C3F8B1EE400AEAE7D80F493F0000000020
:103CC00010EE103A114A23F00043934218DDB3F18D
:103CD000FF4F02DB30EE400A704700B583B0684604
:103CE00000F0B4FE400000F00200DDED010A9DEDA1
:103CF000000AC0F1010000F0E7F803B05DF804FB32
:103D0000DFED030A012000F0DFB800BFDA0F493F02
:103D100000000000F0EE400AB0EE000AFFF7D0BE4F
:103D200008B501F07BF8DFED027A80EE270A08BDC6
:103D30001872313F10EE103A23F00043B3F1485FA0
:103D40002CDAFDEEC07A17EE903A002B60D020EE10
:103D5000007ADFED317A9FED315ADFED315A9FED78
:103D6000316ADFED316AA7EE275ADFED307AE7EEF0
:103D7000055AA7EE256AE7EE067AE7EE276A67EEB0
:103D8000266A60EEC00AF6EE007AE7EE260AB7EE83
:103D9000000AD7EE270A30EE600A704720EE007A5C
:103DA000DFED1D7A9FED1D5ADFED1D5A9FED1D6A57
:103DB000DFED1D6A1E4AA7EE275A9342DFED1B7AFC
:103DC000E5EE075AA5EE876AE6EE077AE7EE876A20
:103DD00066EE876AD5DD174A934214DC03F17F4310
:103DE00007EE903AB7EE006A36EE676A60EEC00AF8
:103DF000F6EE005AD7EE257AE7EE260A77EEE07A5D
:103E000036EE670A7047B6EE076AF5EE027AEDE71E
:103E1000B7EE000A704700BF4ED747ADF6740F31BA
:103E20007CF293B4010DD037ABAA2A3D610BB6BA30
:103E30009999993E0000483F10EE103A23F0004354
:103E4000B3F1485F04DAFDEEC07A17EE903A5BB347
:103E500060EE007A9FED157ADFED155A9FED156A39
:103E6000DFED156AE7EE875A9FED147AA5EEA76A93
:103E700020EE275AE6EE276AA6EEA77A30B9DFEDE4
:103E8000106AE7EE876AA6EE850A704727EE457A44
:103E9000F6EE006AA0EEA67ADFED0A6AD7EE270AF0
:103EA000E5EE260A30EE600A704700BFD3C92E2F18
:103EB000342FD7B21BEF3836010D50B98988083C32
:103EC000ABAA2ABEABAA2A3E08B510EE103A23F0E0
:103ED0000042B2F1465FF0EE407A0FDABDEEC07AF2
:103EE00017EE101AF9B9431C134300F09F80012804
:103EF00003D0BFEE007A87EE270A08BD50498A42F8
:103F000011DB9FED507ADFED506A002BBCBFF1EE64
:103F1000600AF1EE407A77EE677A36EEE07ADFED0E
:103F20004B0A77EE277A67EEA76ADFED494ADFEDA5
:103F3000495A9FED495A9FED496A414926EEA67AB2
:103F40008A42E7EE245AA7EE056ADFED454A9FED67
:103F5000455AE5EE874AA6EE075ADFED435A9FED34
:103F6000436AE4EE875AA5EE076ADFED414A9FED0A
:103F7000415AE5EE874AA6EE075A9FED3F6ADFED0C
:103F80003F5AA4EE876AE5EE075AB0EE467AA5EEF0
:103F9000A67A27EEA65AB0EE606AA7EE056ADFEDB4
:103FA000384AE6EE260AE5EE240A37EEA00A1FDAC2
:103FB0000128A2D0BFEE007AC7EE006A314B10EEA6
:103FC000102A1A4006EE102A16EE902A76EE677A2C
:103FD000134000EE103AB7EE007A70EEE70AF0EE0A
:103FE000477AE6EE007AE0EE807AA7EEA60A08BDF0
:103FF00007EE100AB8EEC77A60EE006A30EE070AE4
:104000009B1786EE806A03F00203C3F10103F0EE12
:10401000005A36EE606A06EE903A77EEC67AF8EE0F
:10402000E66AA7EEE57A26EE870A08BD01F074F885
:10403000B7EE007AF0EE407A87EE270A08BD00BF9F
:1040400040A12C3FDA0F493F6821223300000000D5
:104050005FAE9BB745F4A3388453D9377AC09538FF
:10406000C8261A3AB937813916696B3B48DEBE3A21
:10407000A427B33C1F37113C8988083ED10D5D3D14
:10408000ABAAAA3E00F0FFFF10B582B0CDED010A49
:10409000019B23F00042B2F1FF4FF0EE407A30DC9A
:1040A00010EE100A20F00041B1F1FF4F29DCB3F10E
:1040B0007E5F42D09C1704F0020444EAD07431B30E
:1040C0007AB3B2F1FF4F40D0B1F1FF4F29D0891A36
:1040D000B1F1F45F4FEAE15234DA002B42DA3C32BC
:1040E00040DA9FED340A012C4ED0022C43D064B14B
:1040F0009FED317ADFED317A30EE070A30EE670A54
:1041000003E09DED017A37EE270A02B010BD022CC4
:1041100010D09FED2B7A032C08BFB0EE470A02B0F7
:1041200010BD9FED280ADFED287A0028B8BFB0EE59
:10413000670AEAE79FED210AE7E702B0BDE8104011
:1041400000F010BF9FED1F0ACDE7B1F1FF4F04F162
:10415000FF3420D0022C26D81C4B03EB840393EDB4
:10416000000AD2E79DED017A87EE870A00F0D4FFBE
:1041700000F0F8FEB7E79FED107ADFED107A30EE31
:10418000070A37EEC00AC0E710EE103A03F1004309
:1041900000EE103AB9E7022C08D80D4B03EB84036C
:1041A00093ED000AB1E79FED030AAEE79FED090A20
:1041B000ABE700BF000000002EBDBB33DB0F494062
:1041C000DB0F49C0DB0FC93FDB0FC9BF04A60000EE
:1041D000F8A50000DB0F493F10EE103A23F0004233
:1041E000B2F1FF4F56D84FEAD37100F09580624884
:1041F000834200F38780002BC0F287805F4B9A4296
:104200004BD95F4B9A4200F29A805E4B5E4A03EBB9
:104210008103D3ED004A02EB8102C1F1010370EE8C
:10422000644AD2ED007A5B1A34EEE70ADFED576A92
:104230009FED575ADFED575A9FED576A20EE007AEF
:10424000A7EE265ADFED556AE5EE075AE5EE876AD6
:10425000A6EE876AF0EE406AE6EE476A002B42D08F
:10426000B0EE007A20EE266A37EE667AB7EE000AE4
:10427000C6EE076A13F17D0F77EEE67A77EEE47A01
:1042800030EE670A4FDB10EE102A02EBC35300EE4C
:10429000103A704730EE000A7047B2F1505F0AD210
:1042A000DFED3F7A70EE277AB7EE007AF4EEC77A48
:1042B000F1EE10FA5DDC60EE007A9FED347ADFED0E
:1042C000345A9FED346ADFED356AE7EE875A9FED89
:1042D000327AA7EEA56AE7EE866AA7EEA67AF0EE36
:1042E000406AE7EEC76AF0EE007A20EE266A76EEC4
:1042F000E76AB7EE007AC6EE267A77EEC07A37EE36
:10430000670A7047002000F083BD264B9A427FF673
:1043100075AF002000F076BDDFED237A002918BFCD
:10432000B0EE670A704710EE102A643302EBC353F5
:10433000DFED1E7A00EE103A20EE270A70471C4B84
:104340009FED1C7ADFED1C6A03EB8103D3ED007A4D
:10435000E0EE077A9FED197AFDEEE77AF0EE404A3B
:1043600017EE903AF8EEE77AE7EEE64A67EE877ADC
:104370005AE730EE070A70471772B1421872B13E21
:104380009115853F18A6000020A600004CBB3133D4
:104390000EEADDB555B38A38ABAA2A3E610B36BBAF
:1043A000CAF24971B5F1CF42000000000000800D53
:1043B00010A600003BAAB83F8071313FD1F71737F4
:1043C000B1EEC00A704700BF2DE9F0412DED028B20
:1043D00082B0CDED010A8DED000ADDE9004535F032
:1043E000004611D184F48004640014F5000F40F2FB
:1043F0001281DDED007A9DED017A37EE870A02B079
:10440000BDEC028BBDE8F08124F00047B7F1FF4F0F
:10441000EFDCB6F1FF4F00F3F380002CC0F2028115
:104420004FF00008B6F1FF4F00F01781B6F17E5F44
:1044300000F02281B5F1804F00F00A81B5F17C5F78
:104440009DED000A40F01D81002C80F2478100F0B4
:1044500063FEB7F1FF4F00F02581002F00F01F81B0
:10446000B7F17E5F00F01581E20F013A58EA0203CE
:1044700000F03B81B6F19A4F40F35E819E4B9F4224
:1044800040F34F829D4B9F4200F35882F7EE007A33
:1044900030EE670A9FED9A6ADFED9A5AF5EE007AE0
:1044A000A0EE676AF6EE006AE6EE406A20EE007A59
:1044B000DFED957A9FED956A27EE267A67EEC77A4B
:1044C000E0EE257AF0EE676AE0EE066A16EE903AC4
:1044D00023F47F6323F00F0307EE103AA0EE467A31
:1044E00006EE903A77EEC77A25F47F6525F00F0542
:1044F0009DED017A06EE105A67EE877A37EE466A2E
:1045000007EE105AE6EE267A08F1FF3858EA02085C
:1045100026EE877AB7EE008A77EE876ABFEE006AEA
:1045200016EE903A08BFB0EE468A002B23F0004208
:1045300040F3C581B2F1864F00F32E8200F0118264
:10454000B2F17C5F00F353820022104623F47F63B4
:1045500023F00F0306EE103ADFED6D6A9FED6D3A22
:104560009FED6D2ADFED6D3A9FED6D4ADFED6D4AEF
:104570009FED6D5A36EE477AF0EE002A77EEC77A55
:1045800026EE267ADFED696AA7EEA67AB7EE000A74
:10459000F0EE476AE6EE036A66EEA65AF0EE667A39
:1045A000E5EE823AE6EE437AB0EE446AA3EEA56AFF
:1045B00077EE677AB0EE647AA6EE257AB0EE456AB9
:1045C000A7EE256AB0EE667AA6EE657AE6EEA77AE1
:1045D00066EE875A37EE626A85EE867A77EE677AFC
:1045E00077EEE67A30EE670A10EE103A1344B3F530
:1045F000000FC0F2A08100EE103A20EE080AFEE69D
:10460000B4F17E5F7FF4F5AE85F480056D0015F59D
:10461000000F3FF6EEAEB7EE000A02B0BDEC028B23
:10462000BDE8F081B6F1974F0FDAB6F17E5F09DB96
:10463000F315C3F1960346FA03F202FA03F3B34209
:1046400000F038814FF00008F0E64FF00208E9E68C
:10465000DDED007A27EEA70AD1E6B7F17E5FDAD06A
:104660002BDD9FED330ADDED017A002DB8BFF0EEB2
:10467000407AB0EE670AC2E6002D23DB9DED000A0A
:10468000BDE600F049FDB7F1FF4F02D0002F7FF4E7
:10469000E7AE002DBCBFF7EE007A87EE800A002C53
:1046A000BFF6ADAEA7F17E5757EA080740F0FB8092
:1046B00070EE407A87EEA70AA1E6002D09DB9FED98
:1046C0001C0A9CE69DED007AF7EE007A87EE870AD9
:1046D00095E6DDED017AB1EE670A90E602B0BDEC39
:1046E000028BBDE8F041FFF76BBEDDED007A77EE9F
:1046F000E77A87EEA70A82E6F3FF7F3F0700803F55
:10470000ABAAAA3E70A5EC363BAAB83F00AAB83FB8
:104710008CBEBF350072313F4CBB31330EEADDB584
:1047200055B38A38610B36BBABAA2A3E1872313FAB
:10473000000000000000804B14F0FF4F40F0EF80BD
:104740005FED047A60EE277A6FF0170317EE907A28
:10475000AC48F915C7F316077F398742194447F06B
:104760007E5340F3D480A848874240F3F1809FED08
:10477000A74A0131B0EE443AA3F50003F7EE005A20
:10478000002006EE103A76EE257AB7EE007A87EE34
:10479000270A5B1043F0005303F58023034476EEB1
:1047A000656A07EE901A66EE803AB8EEE77A13EE85
:1047B000901A07EE903A964BDFED960A9FED968A97
:1047C0009FED961ADFED962ADFED961A9FED962A59
:1047D00077EEE55A194005EE101A36EE656A63EE7B
:1047E000A35AE5EE676AF0EE607AE5EE887AE5EEC8
:1047F000466AA7EEA51A66EE806AE1EE252A73EEF8
:10480000857AE2EEA51A25EEA58AA1EEA52A67EE25
:10481000A67AF0EE084AB0EE646AE8EE027AA5EEF7
:10482000056ADFED820A9FED821ADFED822A36EEFD
:10483000276A16EE101A194006EE101A76EE644A30
:10484000E5EE454A77EEE47A67EEA37AE6EE867AFD
:10485000F0EE675AE5EE065A15EE901A194006EE8C
:10486000901AE5EE466A05EE901A77EEE67A67EE64
:10487000A07AE5EE817A77EE837AF0EE676AE5EE6C
:10488000A26A76EE846A76EE876A16EE901A19406E
:1048900006EE901A36EEC77A37EE447AA5EEE27A43
:1048A00077EEC77A20E6B8F1010F7FF4A8ADB1EE3C
:1048B000400AA4E502F00102C2F10208B6E55E4931
:1048C0008A4200F38C806FD0B2F17C5F7FF73CAE00
:1048D000D2154FF400017E3A41FA02F21344C3F3B9
:1048E000C751564A7F39C3F316000A4140F400000D
:1048F000C1F117011A400841404206EE902A37EEF6
:10490000667AC20577EE876A16EE903A1EE69FED4C
:104910003F4AF7EE005AB0EE443A002031E7002358
:1049200016E7002D0CDB002002B0BDEC028BBDE8C9
:10493000F04100F067BA00F0A1FA5EE6002DF2DD6A
:10494000002002B0BDEC028BBDE8F04100F060BA7F
:104950009FED3B4A9FED3B3AF7EE085A4FF40010AB
:104960000FE79FED396A76EEC76A37EE866AB4EED6
:10497000E66AF1EE10FA0FDC03F500432F4AC3F3A9
:10498000C7517F39C3F316000A4140F40000C1F15A
:1049900017011A400841B0E7B5EEC08AF1EE10FAEF
:1049A0004CBF01200020CCE776EEC76AF4EEE76A40
:1049B000F1EE10FA13DA03F50044204AC4F3C751AC
:1049C0007F39C4F316000A4140F40000C1F1170119
:1049D000002B40FA01F002EA04028DDB8DE7B5EE10
:1049E000C08AF1EE10FA4CBF012000209CE7D215DE
:1049F0004FF400017E3A41FA02F21344D9150F4AEE
:104A0000BFE700BF71C41C00D6B35D00000000000A
:104A100000F0FFFF55326C3E42F1533E05A38B3E42
:104A2000ABAAAA3EB76DDB3E9A99193F4F38763F45
:104A3000A0C39D360038763F00001643000080FF7B
:104A400000C0153FDCCFD1353CAA383370B510EE2D
:104A5000103A884A23F00044944286B0054670DD3F
:104A6000854A944210EE106A22DC002BDFED837A37
:104A7000834A24F00F04B0EE407A40F3E28094427F
:104A800070EE677A09BFDFED7F6A9FED7F7A9FED59
:104A90007F7A77EEE67A012077EEC76A77EEE67ADC
:104AA000C5ED006A77EEC77AC5ED017A06B070BD34
:104AB000774A944254DDB4F1FF4F49DAE215863A61
:104AC000A4EBC25307EE903ABDEEE77ADFED716AD0
:104AD000B8EEC77A77EEC77A8DED037A67EEA67ADD
:104AE000BDEEE77AB8EEC77A77EEC77A8DED047A35
:104AF00067EEA67AF5EE407AF1EE10FACDED057A82
:104B000040F08E80B5EE407AF1EE10FA14BF022329
:104B10000123614901910221009103A8294600F077
:104B200009FB002EC2DA95ED007AD5ED017AB1EEDF
:104B3000477AF1EE677A85ED007AC5ED017A404259
:104B4000B4E7002285ED000A4260002006B070BD87
:104B500070EE407A0020C5ED017AC5ED007AA5E738
:104B600000F0DAFA9FED4D7A9FED446AF6EE007A96
:104B7000E0EE077A9FED447AFDEEE77A17EE900AB1
:104B8000F8EEE76A1F28A6EEC60A66EE877AB1EE4F
:104B9000666A1EDC424A411E24F0FF0352F82120BF
:104BA000934216D030EE677A85ED007A30EE470AF0
:104BB000002E30EE670A85ED010ABFF677AFB1EE41
:104BC000477AB1EE400A85ED007A85ED010A404250
:104BD0006CE730EE677AE21517EE103AC3F3C7536D
:104BE000C3EBD453082BDFDD9FED267A9FED275AC8
:104BF000F0EE405AE6EE075A70EE657AE6EE077A76
:104C0000D6EE857A35EEE77A17EE103AC3F3C7533E
:104C1000D21A192A06DCB0EE650A85ED007AC5E7DE
:104C2000032376E79FED1F7A9FED1F5AB0EE650ACA
:104C3000A6EE070A75EEC07AE6EE077AD6EE857A1A
:104C4000B0E7944270EE277A09BFDFED0E6A9FED60
:104C50000E7A9FED0E7A77EEA67A4FF0FF3077EE60
:104C6000876A77EEE67AC5ED006A77EE877AC5ED5A
:104C7000017A1BE7D80F493FE3CB1640800FC93FAD
:104C8000D00FC93F004435374344353708A3852E3C
:104C9000800F494300008043A8A6000084F9223F0A
:104CA00028A6000000A3852E32318D2410EE102A94
:104CB000C2F3C7537F3B162B22F0004131DC002B9F
:104CC00010EE100A18DB1A4919410A4228D0DFED0C
:104CD000197A70EE277AF5EEC07AF1EE10FA1FDD40
:104CE000002A04DD4FF4000242FA03F3184420EADC
:104CF000010300EE103A7047DFED0E7A70EE277A6E
:104D0000F5EEC07AF1EE10FA0ADD002A06DBF7EEC6
:104D1000007A002918BFB0EE670A70479FED060AB7
:104D20007047B1F1FF4FFBD330EE000A704700BF70
:104D3000FFFF7F00CAF249710000008010EE102AC8
:104D4000C2F3C7537F3B162B22F000412ADC002B15
:104D500010EE100A18DB1A4919410A4221D0DFED82
:104D6000197A70EE277AF5EEC07AF1EE10FA18DDB6
:104D7000002A04DA4FF4000242FA03F3184420EA4E
:104D8000010300EE103A7047DFED0E7A70EE277ADD
:104D9000F5EEC07AF1EE10FA03DD002A08DB9FED94
:104DA0000A0A7047B1F1FF4FFBD330EE000A70479B
:104DB000FFEE007A002918BFB0EE670A704700BF07
:104DC000FFFF7F00CAF249710000000010B582B0F9
:104DD0008DED010A044601F005F99DED010A04601C
:104DE00002B010BD30B1F1EE407A27EE800A2220E9
:104DF000FFF7ECBFF0EE407A27EE800A2220FFF7A3
:104E0000E5BF00BF9FED010AFFF7ECBF00000010F7
:104E10009FED010AFFF7E6BF0000007008B52DED19
:104E2000028BB0EE408A00F0B1FCB4EE488AF1EE9D
:104E300010FA0FD6B5EEC08AF1EE10FA0ADCB5EE24
:104E4000408AF1EE10FA08D101F0CCF822239FED50
:104E5000090A0360BDEC028B08BD01F0C3F8BDEC8C
:104E6000028B034621221A600348BDE8084000F087
:104E70005BB900BF000080FFC0A9000010EE103A2F
:104E800033F0004110EE102A28D0B1F1FF4F22D2AA
:104E900013F0FF4F23D1DFED2C7A2C4A60EE277AF6
:104EA000904217EE903A34DB4CF2503CC3F3C751BA
:104EB000604517EE902AA1F1190116DDDFED247A85
:104EC000DFED246A002BB0EE677AB8BFF0EE667AA9
:104ED00027EE870A704730EE000A704770474CF2A1
:104EE000503C60454FEAD151E8DC0144FE29E5DC45
:104EF000002915DC11F1160F19DB193122F0FF42E0
:104F000042EAC15207EE902A9FED130A27EE800A6B
:104F10007047DFED127A07EE103A27EE270A704746
:104F200022F0FF4242EAC15300EE103A7047DFED33
:104F30000B7ADFED0B6A002BB0EE677AB8BFF0EEAC
:104F4000667A27EE870A70470000004CB03CFFFFEE
:104F5000CAF24971CAF249F1000000336042A20D61
:104F60006042A28D38B510EE105A25F00044B4F11D
:104F7000A14FF0EE407A0DDBB4F1FF4F5BDCDFEDCB
:104F8000537A9FED537A002DD4BFB0EE470AB0EEAE
:104F9000670A38BD4F4B9C425CDCB4F1445F4DDB8B
:104FA0004FF0FF3327EEA76ADFED4B6ADFED4B5A78
:104FB000DFED4B4A9FED4B5A9FED4B4A26EE067AAA
:104FC0005A1CE7EE265ADFED496AA5EE875AE7EE4E
:104FD000246ADFED475ADFED474AE6EE875AA5EE31
:104FE000074A9FED455ADFED456AA5EE875AE4EE84
:104FF000074ADFED435AE4EE876AE5EE075A66EEAC
:10500000866A65EE875A3AD03E4A02EB830276EE14
:10501000A56A92ED007A3C4A96EEA77A02EB8303EA
:10502000002DD3ED006A77EE677A36EEE70AB0DA44
:10503000B1EE400A38BD30EE000A38BD9FED337A3C
:1050400030EE077AF7EE006AB4EEE67AF1EE10FA87
:10505000A6DD38BD00F060F82D4B9C4216DCA3F5B0
:10506000D0039C4227DCF0EE007ABFEE007AA0EE7F
:10507000277A002330EE270AC7EE007A92E776EE11
:10508000A56AE6EEE77AB0EE670A38BD214B9C428E
:105090000BDCF7EE087AB7EE007AA0EE277A02234F
:1050A00030EE670AC0EE077A7CE7BFEE007AC7EE03
:1050B000007A032376E7F7EE007A30EE677A30EE77
:1050C000270A0123C7EE007A6CE700BFDB0FC93F58
:1050D000DB0FC9BFFFFFDF3ED769853C59DA4B3D87
:1050E00021A215BD356B883D6E2EBA3D6BF16EBDAC
:1050F00095879DBD2549123E388EE3BDABAAAA3ED9
:10510000CDCC4CBED4A90000C4A90000CAF249719C
:10511000FFFF973FFFFF1B4010EE103A23F00043C4
:1051200000EE103A704700BF9FED010A704700BFC4
:105130000000C07F2DE9F04F2DED048BDBB01C4645
:1051400003930691A04B6899089253F82150111DC2
:10515000824604F1FF38C0F29882D31E48BF131D67
:10516000DB1002930133DB000793DDE907239B1A71
:105170000593029B15EB0801A3EB080316D401313C
:105180009FED927A699819441EAA002BA4BF50F88B
:10519000234007EE904A03F10103ACBFF8EEE77A33
:1051A000F0EE477A8B42E2EC017AEED1002DC0F2AC
:1051B000DB82039B1EAA02EB830446AE4FEA830CFC
:1051C0004046EF180AEB8301B8F1000FDFED7F7A5C
:1051D00009DB22465346F3EC016A32ED017A8B4239
:1051E000E6EE877AF7D10130B842E6EC017A04F1B5
:1051F0000404E9D10AAF07EB8503043B9FED759AE0
:10520000DFED738A059804930AEB0C0407EB85091C
:1052100046AE00955AAB03EB8503002D13ED140A3F
:105220004FEA850B16DD06EB85033A4660EE097AF8
:10523000B0EE407AFDEEE77A73ED016AF8EEE77AB8
:10524000B342A7EEE87A37EEA60ABDEEC77AA2EC23
:10525000017AEBD10190FFF711FEB0EE408AB4EE77
:10526000000A28EE000AFFF769FDF2EE007AA0EED0
:10527000678A01980028FDEEC89AF8EEE97A38EEC0
:10528000678A76DD05F1FF3EC0F1080357F82E204E
:1052900042FA03FC0CFA03F3D31AC0F1070119EE2A
:1052A000902A47F82E300B416244002B09EE902AD9
:1052B00067DCB5EE408AF1EE10FA40F0BE80009A4D
:1052C00005F1FF3B5A450EDC4FEA850C07EB8502E2
:1052D00000219E4652F8043D4A4541EA0301F9D1B6
:1052E000002940F0F180009B013B57F82330002B50
:1052F00040F0E680049B4FF0010C53F8042D0CF1B4
:10530000010C002AF9D06B1CAC449E460299039A0A
:1053100001EB030B0BF1804B69992A440BF1FF3B26
:1053200006EB83051EAB01EB8B0B03EB8201DBED80
:10533000017A9FED267AF8EEE77AB8F1000F0BF1CB
:10534000040BC1ED007A0A4601F1040109DB534662
:1053500001E072ED017AF3EC016AA342A6EEA77AAE
:10536000F7D10EF1010EE645A5EC017ADFDD6546C9
:1053700050E740F09B806B1E57F82330DB11002B69
:1053800097DD19EE902A002D02F1010209EE902A14
:1053900040F39181396800297ED1012D26D03A460B
:1053A0004FF0010C52F8041F002979D00CF10102D2
:1053B000C1F58071954247F82C1016DD57F8221080
:1053C000BB4407EB82020AE010AA000000000000C4
:1053D000000080430000803B0000C93F1168C1F11C
:1053E000FF0142F8041B5A45F8D1012100280CDDC9
:1053F000012800F04181022807D105F1FF3C57F850
:105400002C2002F03F0247F82C20022B7FF451AFF2
:10541000B7EE000A30EE488A00293FF44AAF0993FC
:105420000190FFF72BFD38EE408A099B0198B5EEFD
:10543000408AF1EE10FA3FF442AF9846DDE90732B8
:10544000B0EE480A981A0195009DFFF717FD1FED71
:10545000207A019BB4EEC70AF1EE10FAC0F2558132
:105460005FED247A059A60EE277A0832FDEEE77A3E
:105470000592F8EEE77A03F1010BA7EEC70AFDEEFD
:10548000E77ABDEEC00A10EE102A47F8232017EE87
:10549000903A47F82B302BE001224FF0000C87E7C1
:1054A0000CF1010CAC457FF47DAF9FE7F6EE007A7E
:1054B000B4EEE78AF1EE10FA80F2EC800023F8E611
:1054C0006B1C9E469C4621E7059B009DA3F10802AC
:1054D00057F82B300592F04653B9ACF104033B4426
:1054E00053F8041D0BF1FF3B083A0029F8D0059250
:1054F0000598B7EE000AFFF7C1FCBBF1000FC0F240
:1055000029810BF1010646AA1FED4E7A4FEA860C5F
:1055100007EB860302EB860273ED017AF8EEE77A79
:10552000BB4267EE807A20EE070A62ED017AF3D182
:10553000ACF1040346AA002D1FED596A02EB0304E7
:105540004FF0000022DB8F49DFED8F7AB0EE467A14
:105550002246002303E0984208DBB1EC017AF2EC2A
:10556000016A01339D42E6EE877AF4DA5AAB03EB27
:105570008003584543ED287A4FEA800100F101028B
:10558000A4F1040405D0002D1046DCDADFED7E7AAC
:10559000ECE7689A022A1DDC002A00F38E8010D105
:1055A00032ABDFED797A9C443CED017A634577EECE
:1055B000877AF9D143460BB1F1EE677A069BC3EDCA
:1055C000007A19EE903A03F007005BB0BDEC048B53
:1055D000BDE8F08F689A032AF3D1BBF1000F00F009
:1055E000CB8032A813ED287A00EB8B020BF18043BD
:1055F00072ED017AF0EE476A37EE277A904277EE45
:10560000C77A82ED007A77EEA67AC2ED017AEFD101
:10561000BBF1010F40F3B08001F5B4720DEB020154
:1056200011ED287A9A0033A900EB830373ED017A18
:10563000F0EE476A37EE277A994277EEC77A83ED24
:10564000007A77EEA67AC3ED017AEFD1131DDFED74
:105650004E7A0344083033ED017A984277EE877A28
:10566000F9D14346002B58D10699329A339B0A60F0
:105670004B60C1ED027AA4E705F1FF3C57F82C20FE
:1056800002F07F0247F82C20BFE60823079300238F
:1056900002936AE519EE903A002D03F1010309EE39
:1056A000903AC8BF02233FF775AEF7EE007A37EEA7
:1056B000C88A0223FDE5002198E632ABDFED327A9D
:1056C00003EB860636ED017AB34277EE877AF9D19D
:1056D00043469DED327A93BB069BBBF1000FC3EDB1
:1056E000007A77EE677A0CDD33AA0123B2EC017AF7
:1056F00001339B4577EE877AF8DA43460BB1F1EE3A
:10570000677A069BC3ED017A5BE7BDEEC00A9B4654
:1057100010EE102A47F82320EAE6DDED326A9DED0F
:10572000337A069BF1EE666AB1EE477AF1EE677A5C
:10573000C3ED006A83ED017AC3ED027A41E7069B6F
:10574000F1EE676ABBF1000F77EE677AC3ED006A8E
:10575000CADCD4E7689B022B0ADC002B0FDC7FF449
:1057600030AFDFED097A25E7039B4FEA830C41E573
:10577000689B032B7FF425AFDFED037A71E7DFED44
:10578000027AA5E7E8A900000000000010EE103A38
:1057900033F000422ED0002B33DBB3F1FF4F40DA61
:1057A000B3F5000F34DB4FF0000C6748C3F316016C
:1057B000084400F4000282F07E520A43DB1500EE3A
:1057C000102A7F3B614A634401F10F0CF7EE007A27
:1057D0000CEA020230EE670A03EBD05322BBB5EEAF
:1057E000400AF1EE10FA60D1002B40F090809FED5E
:1057F000580A70479FED577ADFED557A87EE270AF2
:10580000704770EE407A9FED527A87EE870A7047B4
:10581000DFED517A60EE277A6FF0180C17EE903AB0
:10582000C3E730EE000A7047F0EE007A70EE277A98
:1058300007EE103A80EE274A4848C1F5571208444F
:1058400002F522720243002A9FED453ADFED454AF8
:10585000DFED455ADFED453A9FED455ADFED457ADC
:10586000DFED456A24EE046AF8EEC72A26EE067AD2
:10587000E7EE034AA7EE235AE4EE875AE5EE076AFD
:10588000E5EE877A67EE867AE6EE877A28DDB6EE71
:10589000007A20EE077A27EE007A3BBB77EE877A14
:1058A000A7EEC47A30EE470A70479FED347AF6EEE1
:1058B000007AE0EE477A20EE007A27EE277A002B76
:1058C000F0D007EE903A9FED2E6ADFED2E6AF8EEEB
:1058D000E77AA7EEC67A37EE400A97EEA60A704737
:1058E00013BB70EE677AA7EEC40A7047DFED246A37
:1058F0009FED246A77EE877A62EEA66AE7EE846A05
:1059000037EE667A37EE400A92EE860A704707EE67
:10591000903A9FED1B0A9FED1B7AF8EEE77A27EE8F
:10592000800AA7EE870A70479FED157ADFED156AAA
:1059300070EE677A27EE627AA7EE847A37EE400A35
:1059400092EEA60A704700BF20FB4A00F0FF7F00DE
:1059500000000000000000CC0000004C305CCFFFD5
:105960009788173E25333A3E2549923E4FD01C3E3C
:10597000298E633EABAA2A3FCDCCCC3EABAAAA3E31
:10598000D1F717378071313F024B0146186800F09C
:1059900003B800BF8824FF1F2DE9F04F01F10B066B
:1059A000162E83B0044624D8102900F2BA8000F0E5
:1059B000A3FA102618220220B54F3A44A2F108019A
:1059C00053688B4200F0BA805A68D96822F003020B
:1059D0001A449D68E9608D60516841F001012046DC
:1059E000516003F1080500F08DFA284603B0BDE8C8
:1059F000F08F36F0070600F19480B14200F29180FA
:105A000000F07AFAB6F5FC7FC0F09A81730A00F0D4
:105A10008F80042B00F26F81B30903F1390003F189
:105A2000380CC3009A4F3B44A3F108055B689D42C4
:105A300006D10CE0002980F22781DB689D4206D068
:105A40005A6822F00302911B0F29F3DD60463D697D
:105A5000DFF850C265457CD06A6822F00302931BD0
:105A60000F2B00F37B81002BC7E904CC80F26C8103
:105A7000B2F5007F80F01A81D308796801334FEACC
:105A8000521E012202FA0EF20A4357F833E0C5F81B
:105A900008E007EBC3010839E9607A6047F8335042
:105AA000CEF80C50831001219940914257D81142F1
:105AB00006D120F003004900114200F10400FAD0A1
:105AC00007EBC0094D468646D5F80C80454508D100
:105AD0001DE1002B80F22481D8F80C80454500F0B0
