:1000000000000320D1010000698400002584000065
:10001000258400002584000025840000258400003C
:1000200025840000258400002584000069840000E8
:100030006984000025840000C9950000CD9500006A
:1000400069840000698400006984000069840000FC
:1000500069840000698400006984000069840000EC
:1000600069840000698400006984000069840000DC
:1000700069840000698400006984000069840000CC
:1000800069840000698400006984000069840000BC
:1000900069840000698400006984000069840000AC
:1000A000698400006984000069840000698400009C
:1000B000698400006984000069840000698400008C
:1000C000698400006984000069840000698400007C
:1000D000698400006984000069840000698400006C
:1000E000698400006984000069840000698400005C
:1000F000698400006984000069840000698400004C
:10010000D17C0000ED7C0000097D0000257D000011
:1001100069840000958800006984000069840000FB
:10012000698400006984000069840000698400001B
:10013000698400006984000069840000698400000B
:10014000517A00006984000069840000698400001D
:1001500069840000698400006984000069840000EB
:1001600069840000698400006984000069840000DB
:1001700069840000698400006984000069840000CB
:1001800069840000698400006984000069840000BB
:1001900069840000698400006984000069840000AB
:1001A000698400006984000069840000698400009B
:1001B000698400006984000069840000698400008B
:1001C000698400006984000069840000698400007B
:1001D0005F4B4CF2205210B5DA814DF62812DA81CD
:1001E00000BF00BF08F044F95A4B4FF030621A6369
:1001F000594A9A63594ADA634FF0E0234FF4700288
:10020000C3F8882D03F5E823554A1A60554B9A78B0
:10021000110703D59A7842F008029A70524B53485E
:10022000AA221A70524BDA1C121AC11E22F00302C3
:10023000994288BF00224F4908F020F84E4B4F48A2
:10024000DA1C121AC11E22F00302994288BF002252
:1002500000210CF097F84A494A484FF4E87208F038
:100260000DF8494B494A802103F8011B9342FBD109
:100270004FF0E023434AC3F8082D454B8A221A70F9
:10028000A3F5805324225A70A0221A709A799207FB
:10029000FCD59A79D406FCD43E4A937903F00C033A
:1002A000082BFAD1304B60225A70DA78802AFCD1C0
:1002B000384B01221A715D225A719A799006FCD549
:1002C0009A795106FCD5234A33495164002191643F
:1002D000202119702F498B7903F00C030C2BFAD1D4
:1002E0002E4B53602E4A136913F4807303D153616C
:1002F0004FF4A85313614FF0E0232A4A5A610022B9
:100300009A6107221A61284AC3F8202D62B608F0C4
:100310003BF9234B5B69DA0705D5244808F028F937
:10032000234B244ADA61244B1B785B0609D5204C09
:10033000204BE2699A4204D11C4808F019F90023C5
:10034000E36108F09BF80CF08DF807F08FFFFEE7F3
:100350000020054000800440823F04000100002B83
:100360000300008500D0074000E007404028FF1F41
:10037000B02EFF1FCC15010078A50220B02EFF1F64
:1003800000000000001EFF1F00E400E064E400E045
:10039000005006400040064000000602C010070062
:1003A00000D003401FBF02000000202022647E6AAC
:1003B00000E00340A5C3945A00F00740FFFFFFFF91
:1003C000FFFFFFFFFFFFFFFFFFFFFFFFFFFFFFFF3D
:1003D000FFFFFFFFFFFFFFFFFFFFFFFFFFFFFFFF2D
:1003E000FFFFFFFFFFFFFFFFFFFFFFFFFFFFFFFF1D
:1003F000FFFFFFFFFFFFFFFFFFFFFFFFFFFFFFFF0D
:10040000FFFFFFFFFFFFFFFFFFFFFFFFDEF9FFFF23
:100410000548064B1B1AD90F01EBA301491002D066
:10042000034B03B118477047B02EFF1FB02EFF1FBC
:100430000000000008B5054B1BB105490548AFF3A6
:100440000080BDE80840FFF7E3BF00BF00000000E8
:10045000B02EFF1FC41501002DE9F04F541E0F2CC4
:100460008BB003D8002901DB8A4202DA0BB0BDE869
:10047000F08F93FBF2F402FB1433002BC46801935A
:10048000BCBF9B1801930023A242036042608160BD
:10049000D8BFC3600029E9D08A4200F0018101235E
:1004A000551A00249D42CDE908440793029500F3B4
:1004B00083801C461D460393019B0492C3F10009EF
:1004C000D71A4FF000080126A6468B464A467346C7
:1004D0004FF0000C11E050F824300B4340F824306A
:1004E0000CF1010C4FEA6C130AA9AC4501EB830334
:1004F00002F101021CD053F80C3C0CF01F01002A41
:1005000023FA01FA1146B8BF0CEB07014C110AF0AF
:10051000010A01F01F01234606FA01F1BAF1000FAA
:10052000D9D150F8244024EA010440F82340D7E709
:1005300008F10108C345E14467445B46C6DC012B72
:100540005946049AB8BF01210CFB01FC029F012F00
:100550008CD1039E019B6644ACEB0301F61AA3EB1E
:100560000C0C08E050F82E401C4340F82E4001319E
:100570008E423FF47BAF01EB0C035C110AAD05EB3F
:100580008404002954F8084C03F01F0524FA05F4EC
:100590000B46B8BF53184FEA631E04F0010403F082
:1005A0001F0307FA03F3002CDCD150F82E4024EA95
:1005B000030440F82E40DAE70490039327469C4654
:1005C0000DF124089E469A4620460592029ADDF8CF
:1005D0000C9000268A42A8BF0A460CEB0A05344656
:1005E0004B460CE044F8049C013674110AABB44548
:1005F00003EB840019D050F80C3C50F8040C06F0C2
:100600001F0B23FA0BF9A30003F128040EFA0BFBCE
:1006100019F0010F6C444BEA0009E3D128336B4415
:1006200020EA0B0043F8040CDEE700230DE058F845
:100630002900204348F82900013358110AAC5345DA
:1006400004EB800016D050F8087C03F01F0B03EB7E
:100650000C0027FA0BF700F01F04FF074FEA6019A0
:100660000EFA04F4E3D458F8297027EA040748F88E
:100670002970E1E78A4224DB029B9B1A0293029BCA
:1006800009980790012B17DC114600290446059AAA
:100690000498CDF80CA03FF70FAF4FF0000C55E7D2
:1006A00000210B46012505FA03F401339A4241EA81
:1006B0000401F8D10160D9E6089F0390AC461146C9
:1006C00084E7039B08938B1A0293B246D7E700BFD7
:1006D00010B590ED027ADFED7F7AD0ED006AB4EECE
:1006E000E77AF1EE10FA2DED048B04460AD4DFED23
:1006F0007A7A66EEA77AB4EEE77AF1EE10FAD8BF0E
:10070000F0EE477A87EEA60A9FED727A94ED038A9F
:10071000B4EEC78AF1EE10FA5ABFB7EE007A87EE50
:10072000089AB0EE478A9FED6D7A48BF9FED6C9AAC
:1007300020EE070A09F0D4F86368F0EE408A082B2F
:100740002CD8DFE803F06A717B828C97A305420006
:10075000D4ED040ADFED637AB2EE040AC0EEA70A14
:1007600008F0BEFFB5EE400AF1EE10FAB0EE408A96
:1007700000F1AC80B1EEC80AC8EE808AB7EE007A0C
:10078000FFEE007AE8EE087A38EE478A84ED087AC0
:1007900028EE098AC4ED0A7A84ED098A78EE897A0E
:1007A000F7EE006AB0EE666AA7EEA86A86EE867A71
:1007B00067EE287A84ED057A27EEA80ABDEC048B53
:1007C000C4ED067A84ED070A10BDD4ED040ADFED0E
:1007D000457AB2EE040AC0EEA70A08F081FFB5EE32
:1007E000400AF1EE10FAB0EE408A6CD4B1EEC80ABD
:1007F000B7EE007A77EE487A68EE086A67EE897A93
:1008000037EE667A67EE887A68EE808AC4ED086A09
:10081000C4ED097A84ED0A7AC0E700234FF07E52D6
:1008200023626362A262B9E72F4BA3624FF07E524C
:10083000F1EE497A2262C4ED097AAFE700234FF066
:100840007E5223626262A362A8E700234FF07E52C9
:10085000F1EE497A2262C4ED097AA3629EE74FF075
:100860007E52F1EE497A4FF040432262C4ED097A9C
:10087000A36293E7F8EE007A69EE277A00234FF03F
:100880007E522262C4ED097AA36287E7DFED157A12
:10089000D4ED040AB2EE040AC0EEA70A08F020FF65
:1008A0000023A36228EE008AB7EE007A87EE089A4A
:1008B000FFEE007AE0EE007A84ED087A67EE897A3E
:1008C000C4ED097A6AE708F069FF91E708F066FF6E
:1008D00052E700BF6F12833A48E1FA3EDB0F49400E
:1008E000FFFF794400002042000080BF30B443681D
:1008F0002DED028B042B00F25881DFE803F037CC9A
:100900005D9503008168CD4A0D6890ED0E7ADFEDAC
:10091000CC6A2A4482EAD2330A6042F0010202FB26
:1009200003F383EAD31243F03D0404FB0232534045
:1009300083EA933307EE903AF8EE677A67EEA67A89
:10094000B4EEE77AF1EE10FA00F3328190ED0B7A13
:1009500090ED0C0A27EE000AD0ED0F7A67EE877A49
:10096000C0ED0B7ABDEC028B30BC70478068B34A97
:100970000368DFEDB36A1A4442F0010182EAD23320
:1009800001FB03F343F03D0483EAD31104FB01317F
:100990004B4083EA933307EE903ABDEC028BF8EEBE
:1009A000677AB0EE007A67EEA67ABFEE000AA7EE8D
:1009B000870A30BC026070478468A04A236890EDC3
:1009C0000A7ADFED9F4ADFED9F5A9FED9F6A1A4436
:1009D00042F0010182EAD23301FB03F3226083EA91
:1009E000D31143F03D0202FB0132534083EA9333BB
:1009F00007EE903AF8EE677AB0EE005A67EEA47A06
:100A0000FFEE006AE7EE856ABDEC028BF0EE477AF6
:100A1000E6EEA57A30BC87EE867AB0EE0C0A27EEB9
:100A2000000A80ED0A7A70478468844A236890ED52
:100A30000D7ADFED836A1A4442F0010182EAD23373
:100A400001FB03F383EAD31143F03D0000FB0131C6
:100A50004B4083EA933307EE903AF8EE677A2260D0
:100A600067EEA67AB4EEE77AF1EE10FA40F29D80D6
:100A7000BDEC028BF6EE006A27EE267AB7EE000A8E
:100A8000B4EEE77AF1EE10FAFFEE007AD8BFB0EEDE
:100A9000670A30BC70478468684A236890ED038A0F
:100AA000D0ED040AD0ED051AD0ED062ADFED643A48
:100AB000DFED664A9FED665A9FED660A9FED661A66
:100AC000DFED665A9FED662A9FED666A9FED663AF6
:100AD000DFED666A1A4442F0010182EAD23301FB7B
:100AE00003F3226083EAD31143F03D0202FB01329B
:100AF000534083EA933307EE903AF8EE677AB0EE0C
:100B0000004A67EEA37ABFEE007AA7EE847AD0EDB2
:100B1000073A9FED574ADFED577A67EE244A27EEF2
:100B2000055AE8EE004ABDEC028BA0EE815A30BCBB
:100B300067EE255A27EE066AE1EE825AA2EE836A34
:100B400067EE266A34EE850AE3EE846A67EEC77ABA
:100B5000D0ED083A9FED484A9FED483AC0ED034A70
:100B600030EE250AE3EE847A30EE060A90ED094A6B
:100B7000DFED433A80ED045A30EE260AC0ED055A07
:100B800030EE270A80ED066A30EE040A9FED3D4AFA
:100B9000C0ED076AA7EE030A27EE237A20EE040AC7
:100BA000C0ED087A80ED097A70479FED370AD9E6E3
:100BB000364B374CDFED375A9FED377A2B4483EABB
:100BC000D33243F0010303FB02F22C4442F03D0315
:100BD00082EAD21503FB05256A4082EA92320C6054
:100BE00007EE902A84EAD43344F0010404FB03F3B3
:100BF00083EAD31143F03D02F8EE677A02FB01323B
:100C000067EEA67A534083EA9333A7EEA57A07EE00
:100C1000903AF8EE677AB6EE006A67EEA67AF4EEDE
:100C2000C67AF1EE10FA4BBF1C4B4FF07E53B1EE7B
:100C3000470AB0EE470A03638EE600BFF5792B6DD5
:100C40000000802F0AD7A33C5C8F823FBD66633DC6
:100C500065C1993D4AB57F3F384A7E3F618B1D3E55
:100C60006210783FF8F79E3EF2D25D3F8E6F083FEC
:100C7000CDCC0C3FAD6D8A3C38F842BF6744093F8C
:100C80009C6AED3DAE47E13D00000000EAF356DA14
:100C9000DF6D82473333333F9A99993E000080BF1E
:100CA000F8B52DED0C8BD0ED018A90ED029AF6EEA1
:100CB000007AF4EEE78AF1EE10FAF1EE007A4CBF1A
:100CC000BFEE00BAB0EE08BAB5EEC09A48BFA8EEC3
:100CD000A7BA074658BFA8EEE7BAF1EE10FA40F3FC
:100CE000B880F3EE00AA69EE2ABAF2EE009A38EE66
:100CF000EB0A09F065FEF0EE407AFDEEE77A38EE99
:100D0000AB0A17EE904A09F0A3FEFDEEC07A69EE39
:100D1000299A17EE906AB4429FED57AA3BDCD7EDB3
:100D200003CA9FED56CA564DB0EE4ADA013612E0BC
:100D300007EE103AD1ED007AB8EEC70A91ED017ACC
:100D400038EE408A37EE677A0134E8EE077AB4422B
:100D5000A9EEA7AA1FD007EE904AF8EEE77AB0EE08
:100D60006A8A78EEE77AA7EEAC8A28EE0C8AB0EEB3
:100D7000480A09F06DFEFDEEC07A17EE903AB3F521
:100D8000006F05EB8301D3D30134F0EE4D7AB4420A
:100D9000A9EEA7AADFD1F6EE00AA78EEEAAA3BEE0A
:100DA0000AAA3AEEEB0A09F00BFEF0EE407AFDEEED
:100DB000E77A3AEEAB0A17EE904A09F049FEFDEEEB
:100DC000C07A9FED2DDA17EE906AB442F1EE699A7F
:100DD0003DDC97ED03CADFED29BA294DF0EE4DCA8F
:100DE0000136B3EE00BA12E007EE103AD1ED007A08
:100DF000B8EEC70A91ED017A38EE408A37EE677A8D
:100E00000134E8EE077AB442A9EEA7DA1FD007EE64
:100E1000904AF8EEE77AB0EE4B8A7AEEE77AA7EEE0
:100E20008C8A28EE2B8AB0EE480A09F011FEFDEEFE
:100E3000C07A17EE903AB3F5006F05EB8301D3D378
:100E40000134F0EE6C7AB442A9EEA7DADFD13AEEC3
:100E50000DBA78EE898AF7EE007AF4EEE78AF1EEC1
:100E600010FAA8BF78EEE78AB0EE4B0AC7ED018A08
:100E7000BDEC0C8BF8BD00BF0000000000008042FC
:100E8000F0CE000010B52DED068B9FEDC69AB4EEA6
:100E9000C90AF1EE10FA0B4682B0B0EE408A044661
:100EA000114640F31C82DFEDB27AB4EEE70AF1EEB0
:100EB00010FA00F17B81AF4A026043604C22083097
:100EC00007F0DCF9DFEDAA7AB4EEE78AF1EE10FA6A
:100ED00000F17381A74B6365DFEDA57AB4EEE78A75
:100EE000F1EE10FA00F16B81A24BE366DFEDA07A20
:100EF000B4EEE78AF1EE10FA00F163819D4AC4F87E
:100F000084200123C4F89830DFED997AB4EEE78AA3
:100F1000F1EE10FA00F15A8196489749C4F89C0006
:100F200000224FF07E53C4F8A010C4F8A420C4F8E7
:100F3000A83004F1BC00DFED8E7AB4EEE78AF1EE62
:100F400010FA00F169818B4BC4F8BC300190FFF7B7
:100F5000BFFB00230198C4F8C030FFF7B9FBDFEDF9
:100F6000847AB4EEE78AF1EE10FA00F11682DFED32
:100F70008E7AF0EE678AC4ED3C7ADFED7D7AB4EECE
:100F8000E78AF1EE10FA40F17881DFED807A9FED8B
:100F9000807A68EE277A87EE270A84ED438A08F084
:100FA00063FB9FED7C0A9FED7C9A28EE000A89EE98
:100FB000000A08F059FB9FED790A28EE000A89EE35
:100FC000000A08F051FBD4ED027A94ED090A94ED81
:100FD0000AAA94ED0B9AD4ED0C9AB6EE007A77EE4D
:100FE000877AB5EEC00AFDEEE77AF1EE10FA17EE59
:100FF000903A83F30203A366C4F8803040F259812B
:10100000DFED637A20EE280A87EE800A08F02CFBD9
:10101000F7EE007A37EEC00AB5EEC0AAF1EE10FA8C
:1010200084ED400A40F22E812AEE28AA9FED5A0A4A
:1010300080EE0A0A08F018FBF7EE007A37EEC00AD5
:10104000F5EEC09AF1EE10FA84ED410A40F22481E7
:1010500069EEA89A9FED500A80EE290A08F004FB79
:10106000F7EE007A37EEC00AB5EEC09AF1EE10FA4C
:1010700084ED420A00F11A81F7EE007AB4EE679A25
:10108000F1EE10FAC8BFB0EE679A94ED0D0A84ED48
:101090003F9AB5EEC00AF1EE10FAD4ED0E9AD4EDF7
:1010A0000F8A94ED109A40F21781DFED397A20EE25
:1010B000080A87EE800A08F0D7FAF7EE007A37EED2
:1010C000C00AF5EEC09AF1EE10FA84ED470A40F23C
:1010D000008169EE889A9FED300A80EE290A08F0B7
:1010E000C3FAF7EE007A37EEC00AB5EEC09AF1EE19
:1010F00010FA84ED480A40F2DF8029EE089A9FED4D
:10110000260A80EE090A08F0AFFAF7EE007A37EE09
:10111000C00AF5EEC08AF1EE10FA84ED490A00F13A
:10112000D580F7EE007AF4EE678AF1EE10FAC8BFC8
:10113000F0EE678AD4ED127AC4ED468ABFEE007AEB
:10114000F4EEC77AF1EE10FA00F10B81B7EE000A67
:10115000F4EEC07AF1EE10FA40F308819FED078AB1
:1011600084ED508A84ED510A02B0BDEC068B10BDAF
:101170008096184B00803B47B8BF813D2EBD3BB3E6
:101180006666E63E00007A44DB0FC9C00AD7233CFE
:10119000549F8CBFCDCCCC3D8E5D93C0CDCC4C3E0E
:1011A00049FF15BB0000000000803B4784ED000AAA
:1011B0004C224360083007F061F884ED158A84ED15
:1011C0001B8A012384ED218AC4F898301FED140A8C
:1011D0005FED147A1FED147A84ED278A28EE000A59
:1011E000B4EEE70AF1EE10FA58BFB0EE670A20EE4F
:1011F000077A38EE080A87EE000A08F035FA00236D
:10120000C4F8A43004F1BC00F7EE007A37EEC00A4F
:10121000C4ED2A7A84ED280A84ED2F8A0190FFF725
:1012200057FA00230198C4F8C030FFF751FA5FED78
:10123000297A1FED297A68EE277AF0EE488A87EE40
:10124000270AC4ED3C8A08F00FFA1FED2E0A1FEDA5
:101250002E9A28EE800A89EE000A08F005FA1FEDA2
:10126000310A28EE800A89EE000A08F0FDF9B5EE91
:10127000C08AF1EE10FA3FF780AE1FED370A1FED7E
:10128000368A8AE6F5EEC09AB7EE000AF1EE10FA59
:1012900084ED410A3FF6DCAEB5EEC09AB7EE000A27
:1012A000F1EE10FA84ED420A7FF5E6AE1FED439AA7
:1012B000EBE6B7EE000AAFE6F5EEC08AB7EE000A3D
:1012C000F1EE10FA84ED490A7FF52BAF5FED4B8A02
:1012D00030E7B7EE000A08E7B7EE000AF1E65FED87
:1012E0004E8A4360C0ED008A4C22083006F0C6FFEB
:1012F000B5EEC08AF1EE10FA3FF7E4ADC4ED158A01
:101300003FF7EAADC4ED1B8A3FF7F0AD4FF00103A4
:10131000C4ED218AC4F898303FF7F6AD2F4AC4EDEA
:10132000278A4FF07E53C4F8A02084ED299AC4F890
:10133000A83004F1BC003FF7FEADC4ED2F8A019048
:10134000FFF7C6F900230198C4F8C030FFF7C0F9D1
:10135000B5EEC08AF1EE10FA3FF701AE9FED200A1C
:101360006FE79FED200AB7EE008AF9E637EE808A34
:101370009FED1D7A28EE078AF5EE007A28EE278A7F
:10138000B0EE480A08F03AFAF0EE407AB0EE480AB9
:10139000B0EE678A08F06AFAE2E6DFED147A9FEDB4
:1013A000140A84ED3C8A68EE277A9FED129A80EE4B
:1013B000270A08F059F99FED100A28EE000AF0EE0E
:1013C000488A89EE000A08F04FF99FED0C0A28EED2
:1013D000000A89EE000A08F047F9D6E5B8BF813D5A
:1013E00049FF15BB00000000DB0F49400AD7233C32
:1013F000549F8CBF8E5D93C0CDCCCC3DCDCC4C3EAC
:1014000038B5D0ED117AF5EEC07AF1EE10FA2DED87
:10141000048B044600F32281D0ED4D6A90ED4E7AA4
:10142000D4ED038A94ED4A9AB6EE006A68EE868A95
:1014300067EEA66AB2EE0E6AF0EE680AD6EE860A8B
:10144000DFEDC26A67EE877AC0EEA60AB0EE000A48
:1014500027EE868A08F044F994ED157ADFEDBC6A30
:1014600029EE000AC0EE077AF4EEE67AF1EE10FA01
:1014700000F140819FEDB76AF4EEC67AF1EE10FA02
:1014800000F3D380F4EEE67AF1EE10FAC4BFF7EE83
:10149000006A86EEA77AC4ED177AD8BFB0EE667AF6
:1014A00078EE888ADFEDA90A84ED187AC8EEA00AE2
:1014B000B0EE000A08F014F994ED1B7ADFEDA46A8F
:1014C00029EE000AC0EE077AF4EEE67AF1EE10FAA1
:1014D00000F115819FED9F6AF4EEC67AF1EE10FAE5
:1014E00000F31781F4EEE67AF1EE10FAC4BFF7EEDE
:1014F000006A86EEA77AC4ED1D7AD8BFB0EE667A90
:10150000F6EE007AD4ED216A84ED1E7A29EE279A50
:10151000C9EE267ADFED8E6AF4EEE67AF1EE10FA85
:1015200000F1F2809FED8B6AF4EEC67AF1EE10FACC
:1015300000F3F480F4EEE67AF1EE10FAC4BFF7EEB1
:10154000006A86EEA77AC4ED237AD8BFB0EE667A39
:10155000D4ED4B7AD4ED140AD4ED086A84ED247AE4
:1015600060EEA70AD4ED457A94ED058AE6EEA70A67
:10157000B0EE000A08F0B4F828EE000AB3EE047AE0
:10158000D4ED007ADFED746A94ED076AB4EE470A91
:10159000F1EE10FA67EEA67A48BFB0EE470AB4EE55
:1015A000670AB6EE007AF1EE10FAB4EEC76AC8BF69
:1015B000B0EE670AF1EE10FA3CD59FED686AD4ED03
:1015C000277A94ED068AB4EEC60AF1EE10FA37EEE9
:1015D000A77A00F1A88067EEA67AB4EEE70AF1EEEA
:1015E00010FAD5BFDFED5E7ADFED5D6A20EE270AE7
:1015F00027EEA60A80EE070A08F036F8F7EE007A22
:1016000037EEC00AB5EEC08AF1EE10FA84ED280A72
:1016100000F18C80DFED537AB4EEE78AF1EE10FA38
:1016200040F38F809FED508A82E09FED507A84EDE9
:10163000176A35E7D4ED066A84ED310AF2EE037AD3
:10164000A6EEA77A0023C4F8CC3004F1BC0084EDE8
:10165000327AFFF73DF8BDEC048B38BD4568444B4A
:101660002A684449DFED444A9FED445AD4ED4D3A8F
:10167000DFED435A94ED4E4A1344114483EAD332CA
:1016800043F0010303FB02F241F0010C81EAD13384
:101690000CFB03F382EAD21042F03D0C0CFB00205D
:1016A000424082EA923207EE102ABEEE006AB8EE9D
:1016B000477AF0EE466AE7EE246A83EAD31266EED2
:1016C000856AE3EEA56AC4ED4D6A296043F03D01E9
:1016D00001FB0232534083EA933307EE103AB8EE2F
:1016E000477AA7EE246A26EE057AA4EE257A84EDE1
:1016F0004E7A95E6B0EE667AC4ED176AD0E6B0EEA3
:10170000667AC4ED1D6AFBE6B0EE667AC4ED236A24
:101710001EE79FED167A84ED1D6AF1E69FED137AC0
:1017200084ED236A14E79FED170A63E79FED088AAB
:1017300084ED298ABDEC048B4FF07E53C4F8A830A9
:1017400038BDF1EE007A28EE278AF1E700009644D2
:101750000000000048E1FA3E6666E63E6F12833AFA
:10176000DB0FC9C06666863F66668640BC9C024049
:10177000F5792B6DEAF356DA0000802FCDCC4C3D85
:1017800077BE7F3F2FE3CDBB2DE9F04F2DED048BCE
:101790000D9C90ED075A90ED044AD0ED054AF7EE06
:1017A000005AA34275EEC53A80F2678101EB8408C6
:1017B00002EB830E01EB830C75EEE41A9FEDB11A78
:1017C000056A046B90F84CA090F85C90476A466BF1
:1017D000C16BC26AB0EE042AF0EE002AB6EE006ACF
:1017E000B7EE083AF9E0D0ED0A7AB8EE677AF4EE8F
:1017F000C76AF1EE10FA00F32E81FDEEE67AB8EE3C
:10180000E77A17EE90BA36EEC77A531EA3EB0B03B6
:1018100013F1010B48BFBB4405EB8B0B002BDBED39
:10182000008AC0F2098105EB830BDBED006A03F14E
:10183000FF3B002B00F00881F0EE687AE6EEC27AFA
:10184000023B05EB8B0BDBED000A48BFDB1905EB18
:10185000830336EEE08AE0EEA27A93ED009A28EE5A
:10186000038A79EE689AE9EE467AA9EE868A70EEE6
:10187000E80AE8EE077A30EE650A67EE877AB4EE9A
:10188000E50AE0EE867AF1EE10FAE7EE876AC0F23A
:10189000DD80D0ED0E7AF8EE670AB4EEE00AF1EEE4
:1018A00010FA00F3E180FDEEC07AF8EEE70A17EED9
:1018B00090BA70EE600A4B1EA3EB0B0313F1010B01
:1018C00048BFB34404EB8B0B002B9BED008AC0F2A6
:1018D000A98004EB830B9BED007A03F1FF3B002B07
:1018E00000F0A880F0EE487AE7EE427A023B04EB83
:1018F0008B0B9BED000A48BF9B1904EB830393ED10
:10190000009A77EE408AE0EE227A79EE489A68EE05
:10191000838AE9EE467AE9EE868A30EE488AE8EE76
:10192000A07A90ED120A90ED119A67EEA07AE8EE97
:10193000067AA7EEA07A64EE877AE6EEA17A67EEE1
:10194000847A77EEC00AA9EE200A80ED120ABAF175
:10195000000F01D037EEC00A64EEA67AD0ED160A69
:10196000D0ED158AE7EE217A67EE847A37EEE08AC9
:10197000E8EE880AC0ED160AB9F1000F01D077EE43
:10198000E00ADCED007A05EB820377EE807A013223
:10199000BA4208BF0022C3ED007AC262DEED007ACF
:1019A00004EB810377EEA07A0131B14208BF002138
:1019B000C3ED007AC163DCED007A65EE266A25EEA0
:1019C000077AE7EEA36AECEC016ADEED007AA7EE97
:1019D000A37AC445AEEC017A4FD0D0ED1A7AD0ED9F
:1019E000196AD0ED180A90ED1D0A90ED1C7A76EE7A
:1019F000E76A37EE407AE0EEA67AD0ED1B6AC0EDDA
:101A00001A7AA6EE870A77EEE56A80ED1D0AF4EEF3
:101A1000E56AF1EE10FABFF6E6AEB0EE417A4FF0AD
:101A2000010BF2E606EB030B04EB8B0B9BED007A4C
:101A300003F1FF3BB34455E707EB030B05EB8B0BBF
:101A4000DBED006A03F1FF3BBB44F5E6F0EE410A33
:101A50004FF0010B2FE7FDEEC77A17EE90BAF8EEC4
:101A6000E77A37EE677AD0E6FDEEE07A17EE90BAC5
:101A7000F8EEE77A70EEE70A1DE7BDEC048BBDE8EF
:101A8000F08F00BF00000000B1F5C87F28BF4FF401
:101A9000C871142938BF142107EE901ADFED986A37
:101AA000F8EEE77A2DE9F84387EEA67A00F5583587
:101AB00005F6844395F8C97CB1EE006A2DED0A8BDA
:101AC00027EE067A93ED00CAC5F8881CC6EEA78AF1
:101AD000CCEE077AF6EE006A77EEA67AB6EE088AC2
:101AE000FDEEE77A28EE888A17EE903A012BB8BF10
:101AF000012368EEA68AC5F88C3C002F7FD000F544
:101B0000A04404F28C73D3ED017A7E4A83ED028AFD
:101B1000B4EEE78AF1EE10FAF4EEE78A7A487B49F0
:101B20001A61C8BFB0EE678A4FF07E52C8BFC3EDDE
:101B3000027AF1EE10FAC3ED038A58619961DA6115
:101B400000F3D78004F28C73D3ED007A9FED707AA6
:101B500027EE888A67EEA87A04F5FF6204F2EC7338
:101B600083ED018AC2ED017A04F2CC7393ED000A91
:101B7000DFED687A60EE277AF4EEC77AF1EE10FABC
:101B80004ABF9FED657ADFED657A67EE877A87EE6B
:101B9000800A07F069FD04F2CC73F7EE007A37EEA5
:101BA000C00ADFED5C7A83ED010A04F2DC7393ED89
:101BB000000A9FED577A60EE277A0023F4EEC77A89
:101BC000F1EE10FA4CBF9FED547ADFED547A84F8B1
:101BD000D83748BF67EE877A87EE800A07F044FD62
:101BE000BDEC0A8B04F2DC720023F7EE007A37EECC
:101BF000C00A82ED010A84F8E837BDE8F88300F5F1
:101C0000AF4303F18402B5EEC0CA0C3303F5BB3613
:101C1000F1EE10FA06F5C47640F38A80DFED407AE3
:101C2000B4EEE7CAF1EE10FA40F16281DFED3F7ADF
:101C300087EE8C9A00F5A04404F28C7383ED00CA01
:101C4000B4EEE69AF1EE10FA40F3838045F6C459FB
:101C500045F6C058C3ED016A1046C4F8AC273946B2
:101C6000304AC4F8B097C4F8B487B0EE669A0AF068
:101C700089FB2C4AC4F8C097C4F8B877C4F8BC678D
:101C8000C4F8C487304639460AF07CFBC4F8C877EC
:101C9000DFED209ADFED247A9FED1F7A6CEE299A12
:101CA00004F2CC73F4EEE79AF1EE10FA48BFF0EECE
:101CB000697A27EE870A83ED00CA80EE0C0A07F0E6
:101CC000D3FC002384F8D837B0EE69BAB0EE4CAA42
:101CD000DFED157AB4EEE7BAF1EE10FA40F1668165
:101CE000DFED0D7A6BEE277AF0EE4CBA87EE8C0AB8
:101CF0006CE004F28C73F0EE678AC3ED037A21E79F
:101D0000000070423D0AD73EEC51383E004083450A
:101D10000040834548E1FA3EDB0FC9C0C22ACEC667
:101D20008096184B1077010000007A440080BB4673
:101D30005FED027AA14987EE8C9A00F5A04404F287
:101D40008C731960B4EE669AF1EE10FAC8BFB0EE6B
:101D5000669A002704F28C7345F6C45945F6C058BC
:101D600083ED019A1046C4F8AC273946944AC4F86A
:101D7000B097C4F8B4870AF005FB914AC4F8C0973D
:101D8000C4F8B877C4F8BC67C4F8C487304639468D
:101D90000AF0F8FAB5EEC0CAF1EE10FAC4F8C87746
:101DA00000F3D88004F2CC739FED86AA864A83EDB7
:101DB00000AA5A6084F8D87700F3DD80DFED839ABB
:101DC0009FED830AB0EE69BAF0EE4ABA04F2DC7312
:101DD000C3ED00BA07F048FCDFED7E7A6CEE277A9F
:101DE000BFEE007AC7EE27CA002384F8E83704F56F
:101DF000FF66F7EE00AAB0EE6C0A07F035FC7AEE4B
:101E0000C07A04F2EC73C3ED007AB0EE6C0A07F00E
:101E10002BFCB4EEC98A3AEEC00A04F28C73F1EEE0
:101E200010FAF4EEC98A86ED000A6B4883ED028A47
:101E30006A496B4AC4BF83ED029AB0EE498AF1EE5B
:101E400010FA1861C3ED038A59619A61C3ED07AABC
:101E500005DD04F28C73F0EE498A83ED039ADFED21
:101E6000617AF4EEE79AF1EE10FA4ABF9FED5E0A4E
:101E70009FED5E0A29EE800A80EE0A0A07F0F4FB65
:101E800004F2CC73F7EE007A37EEC00ADFED557A34
:101E900083ED010AB4EEE7BAF1EE10FA4ABF9FED06
:101EA000520A9FED520A2BEE000A80EE2B0A07F031
:101EB000DBFB04F2EC7204F5FF6304F2DC74012135
:101EC000F7EE007A2CEE088A6CEE288A37EEC00A0C
:101ED00084ED010A82ED018A82ED028AC3ED018A56
:101EE000C3ED028ABDEC0A8B85F8C91CBDE8F883F6
:101EF000DFED3F7A314987EE8C9A00F5A04404F279
:101F00008C731960B4EEE69AF1EE10FA7FF721AF08
:101F100045F6C45945F6C058C3ED016A1046C4F8E9
:101F2000AC273946264AC4F8B097C4F8B487B0EE57
:101F3000669A0AF027FA224AC4F8C097C4F8B8771C
:101F4000C4F8BC67C4F8C487304639460AF01AFAA8
:101F5000C4F8C877DFED277AB4EEE7CAF1EE10FADD
:101F60003FF596AE04F2CC73144A1A6016495960D4
:101F7000002284F8D827DFED1F7AB4EEE7CAF1EE2D
:101F800010FA0AD4DFED119A9FED0EAA9FED100A08
:101F9000B0EE69BAF0EE4ABA18E79FED17BADFED76
:101FA0000B9A9FED08AA2CEE0BBA91E6DFED137A9F
:101FB000F0EE4CBA87EE8C0A08E700BF00803B4782
:101FC0001077010000803B472047FB3D00C0B7462B
:101FD000920A06BE9A99193E3D0AD73EEC51383E08
:101FE0000040834500408345DB0FC9C0C22ACEC6EE
:101FF0000080BB468096184B48E1FA3E7C59C4C528
:102000002DE9F04F2DED088B00F558340546C748F3
:10201000002304F6844282ED000A0BEE901A9DB074
:10202000B0EE408A84F8C93CC4F8943CC4F8903CB3
:10203000C4F8983CC4F8A03CC4F89C3CC4F8A43C48
:1020400001466F2201E011F8012F0133002AFAD175
:10205000B74AB84E5A406F21772302E00B4610F87A
:10206000011F534006FB03F34FEAF3420029F5D169
:10207000B14BB24882EA124202FB03F3B04A83EA50
:10208000533302FB03F383EA13432B6002466F23AF
:1020900001E012F8013F0131002BFAD1A44AA54E0C
:1020A0004A4077236F2102E00B4610F8011F53408E
:1020B00006FB03F34FEAF3420029F5D19E4BA148FA
:1020C00082EA124202FB03F39D4A83EA533302FB86
:1020D00003F383EA13436B6002466F2301E012F8B7
:1020E000013F0131002BFAD1914A924E4A407723A9
:1020F0006F2102E00B4610F8011F534006FB03F36B
:102100004FEAF3420029F5D18B4B8F4882EA124205
:1021100002FB03F38A4A83EA533302FB03F383EAA5
:102120001343AB6002466F2301E012F8013F013117
:10213000002BFAD17E4A6F274A4077237D4902E07F
:102140003B4610F8017F534001FB03F34FEAF34293
:10215000002FF5D1784B7D4E82EA124202FB03F349
:10216000774A83EA533302FB03F383EA1343EB60BA
:1021700096E80F00B5EEC08A0DF12408F1EE10FAD2
:1021800088E80F004FF0000A40F33686DFED7C7AD6
:10219000B4EEE78AF1EE10FA00F124836C4B2B6168
:1021A00098E80F0005F1200686E80F00DFED747A4D
:1021B000B4EEE78AF1EE10FA00F11C83644B2B6356
:1021C000DFED6F7AB4EEE78AF1EE10FA00F15C878A
:1021D000604A5F4BEB6307CA5F4BAB635F4B6B645B
:1021E00005F1480388E8070083E8070005F10C0CB7
:1021F000DFED637AB4EEE78AF1EE10FA00F12083A6
:10220000534BAB650223EB66DFED5D7AB4EEE78AF4
:10221000F1EE10FA00F118834D4B2B670223C5F83D
:102220008430DFED577AB4EEE78AF1EE10FA00F170
:1022300010839FED4B7A464BC5F88830F2EE007A5A
:10224000C7EE086A0023C5F890C0C5F88C3087EE49
:10225000887ADFED447AC5ED2F6A68EE277ABFEE03
:10226000000A80EE270A85ED307A07F0FDF905F1C6
:10227000C80085ED310ADFED427AB4EEE78AF1EE6F
:1022800010FA00F10783324BC5F8C8300090FEF712
:102290001FFA01230098C5F8CC30FEF719FA324B2B
:1022A000C5F8D030314BC5F8D43000230098C5F8BC
:1022B000D830FEF70DFADFED327AB4EEE78AF1EEB0
:1022C00010FA00F1FE82224BC5F8FC30DFED2C7ACB
:1022D000B4EEE78AF1EE10FA00F1DA861C4BC5F88D
:1022E0000831234BC5F80431DFED257ADFED218A73
:1022F0009FED210AB4EEE78AF1EE10FA48BFF0EE46
:10230000488A1E4BC5F81C314FF07E53C5F820316A
:102310009FED187ADFED1A6A85ED440AC5ED458A0E
:1023200005F190022B46012644E000BF55CC000089
:1023300067E6096A512D9ECC6BCAEB8569CC00001B
:1023400035AEB2C27DCC000091CC0000F80E010089
:1023500000803B47080F01006DE87F3FA5437F3FAA
:102360000000FA446F12033B0000E1448104353F52
:10237000A0CB7F3F00803B4727C17F3F0AD7A33DCB
:102380008096184B0AD7A33D550CDDC06666E63E25
:1023900000C0DA45B4EEE68AF1EE10FA54BFF0EE72
:1023A000477AF0EE487AC3ED497AC3F838611833BA
:1023B0009A420DD0B5EEC08AF1EE10FAEADCF0EEEA
:1023C000477AC3ED497AC3F8386118339A42F1D19C
:1023D000B5EEC08AF1EE10FA05F5DA7040F3DB8451
:1023E0005FED197AB4EEE78AF1EE10FA40F1F58567
:1023F00085ED6D8A0090FEF76BF90098C5F8B8611D
:10240000FEF766F91FED217A5FED216A009828EE4C
:10241000077AF0EE487A86EE870A009005F55A763C
:10242000C5ED7A7A07F020F95FED287A1FED287A5A
:10243000D24BC5F8C03168EEA77A0023F4EE477A94
:10244000F1EE10FAC8BFF0EE477A85ED7C0AC5EDD3
:102450006F7AC5F8C4310098DFEDC9AA9FEDC9BAFB
:102460009FEDC9AADFEDC99A9FEDC99ADFEDC98A30
:10247000FEF72EF9C8494C22404605F0FFFEC74B37
:102480000993C74B0B93C74B0C93C74B0F93C74B89
:102490001093C74B1193C74B1293C74B13934FF035
:1024A0008143424605F1080105F5FA700A93B0EE42
:1024B000480A4FF07A530D93FEF7E4FC05F5AF435D
:1024C000DFF810E302952A1D383301920093BEE82D
:1024D0000F000DF1100CACE80F0005F65828019D17
:1024E0000194009CB5EEC08AF1EE10FA40F33E82F2
:1024F000F0EEC87AF4EE4B7AF1EE10FA94BFF0EEFB
:10250000487AF0EE6A7A8DED04AACDED059A8DED4C
:10251000079A0DF11009B9E80F00A6F1240E46ED57
:102520000B7A46F8285CAEE80F00CDED088AD9F8A2
:102530000030DFEDA27ACEF800304FF4DE7B4FF4AE
:10254000DC7AB44646F80CBC46F808AC46F8106C89
:10255000ECEC017AE045FBD156ED0B7A9FEDA07AC9
:1025600067EE877ABFEE000A4FF0000946F8049C38
:1025700080EE270A07F078F806F5A65383ED050AE2
:1025800041F214531E44B4429844ABD1029D8C4A8C
:10259000019C05F5543640F20971A6F8DA1A40F2AA
:1025A0000631A6F8DC1A4B4686490196C6F8D42AAD
:1025B00002F1060CCE46012001E012F8013FA1FB1A
:1025C00003984FEAD80808EB4808A3EB88030C33BC
:1025D000A1FB03984FEAD80808EB4808A3EB88034F
:1025E00000FA03F34EEA03031FFA83FE9445A6F8AC
:1025F000D8EAE2D105F55630DFED736AB2EE086A2B
:1026000000F53872002307EE903AF8EEE77A0133CE
:1026100067EEA67A0C2B87EE867AA2EC017AF2D1CD
:10262000019E6A49C6F8183B06F52E62C2ED0C6A97
:1026300051634522C6F81C2B0022C4F8A82C0522A1
:10264000634BC4F8AC2C05F55B3E0322C4F8B02CF8
:102650000EF1B70C0422C4F8B42C03F10F0162464A
:1026600001E013F8017B02F8017F9942F9D10223BE
:10267000C4F8243405F559330022194600F5487092
:102680000293C4F82824C4F82C2484F83024034688
:1026900020311A601A715A7130339942F9D10EF112
:1026A000B803A4F8202403930EF1C7021CF8013FDD
:1026B000072B00F26D836245F8D1012300934FF0A0
:1026C000020900230EF1B707B7EE007A9A46C84612
:1026D000AB46D045A8BFD046B8F1000FC0F21E816E
:1026E000A7F55B3E7E7808F10108AEF1B80E4FF019
:1026F000000C0121D4F82894B9F1000F40F31A819D
:1027000000231A4603E001324A4500F0118150F8D7
:1027100023508D4203F10C03F5D102EB420200EB92
:10272000021292F80590B9F1000F00F0E780511DF8
:10273000002303E001334B4500F0E08011F8015F16
:10274000B542F7D102EB8303D3ED047A77EE877AB3
:10275000C3ED047A0CF1010CE04500F0DF800EF5CA
:102760005B337E78B733012113F8012F9F4202EBD0
:10277000C101F9D10EF1FF3EBCE700BF8104353F36
:1027800000803B47FFFF7F7F0AD7A33EAE47613EF5
:102790009A991940CDCC4C3F140F01009A99193EDB
:1027A0009A99193F00006144CDCCCC3E6F12833B17
:1027B000EC51383E6666E63E8FC2F53D00000000F3
:1027C0001ACE0000ABAAAAAA000096440000DC437F
:1027D000BDCD0000600F0100CDCCCC3E550CDDC05E
:1027E000CDCC4C3D98E80F0005F1200685ED048A1C
:1027F00086E80F00F0EE487A85ED0C8A1FED0A7A24
:102800005FED0A8A85ED0F8A67EE877A88EEA70A60
:1028100006F02AFF85ED0E0A1FED0F0A28EE000ACA
:1028200088EE800A06F020FF524A07CA05F14803E5
:1028300088E8070085ED110A83E8070005F10C0C14
:10284000022385ED168AEB66022385ED1C8AC5F806
:1028500084309FED497AC5F890C0F2EE007AC7EE59
:10286000086A0023C5F88C3087EE887ADFED437A5A
:1028700085ED228A68EE277ABFEE000A80EE270AED
:10288000C5ED2F6A85ED307A06F0EEFE05F1C80041
:1028900085ED310A85ED328A0090FDF719FF01239D
:1028A0000098C5F8CC30FDF713FF354BC5F8D03094
:1028B000344BC5F8D43000230098C5F8D830FDF764
:1028C00007FFF0EE487A85ED3F8A9FED2F7A9FED66
:1028D0002F9A85ED428A67EE877AF0EE488A89EE74
:1028E000270A06F0C1FE85ED410A9FED290A28EE70
:1028F000000A89EE000A06F0B7FE02E502EB0903C2
:102900000CF1010C9E71E04502EB890309F101090C
:1029100083ED047A82F805907FF421AF0AF1010A71
:10292000BAF1100F07F101073AD0D4F82484D0E6A9
:102930002F2A14DC09EB490209F10103C4F82834F9
:102940000BEB021303F5543300EB0212C3F8201B08
:102950004FF0000183F824CB83F8251BE1E64FF00C
:10296000010384F8303400230093F3E6F0EE6A7A32
:10297000C9E500BF080F01000000FA446F12033BD5
:102980000000E1448104353FEC51383E550CDDC078
:102990009A99193E8096184B00803B470AD7A33D71
:1029A0005D46009B84F8C83C94F8B83C072B1AD8C5
:1029B00094F8B93C072B16D8D4F82434022B1A46C5
:1029C000A8BF0222002B0CDD0398C2F10201012BEB
:1029D000415C84F8201404DDC2F10303C35C84F875
:1029E0002134C4F82C24029C204600231022052107
:1029F0003430FDF731FD04232046194610224430BF
:102A0000FDF72AFD2046012310220B215430FDF74B
:102A100023FD20460023102203216430FDF71CFD16
:102A200020460223743010220921FDF715FDB5EE72
:102A3000C08AF1EE10FA40F3CD825FED2A7A5FEDA5
:102A40002A8AB4EEE78AF1EE10FA48BFF0EE488A1F
:102A500005F5503404F28C7B0BF58059F42305F511
:102A6000513705F5523A4FF00008C9EDCE8A0AF504
:102A7000617A07F56970C4F89837C4F8783BF02399
:102A8000C4F89C37C4F87C3B41464FF47472C4F8D8
:102A900074ABC4F8940709F075FC4146C4F8A087EC
:102AA0004FF47472504609F06DFC019EC4F8808B9F
:102AB00005F555304146C6F8AC8AC6F8B08AC6F866
:102AC000B48A4FF4717200F53A7009F05BFC1FEDA7
:102AD0004D7A002328EE870AC9F83033FFEE007ADA
:102AE000C6F8B88AC6F8C08AC9F84433B64B8BED2D
:102AF000017ACBED007A87EE800AC9F83C3306F004
:102B0000B3FD07F50978B5EEC08AF1EE10FA89ED4C
:102B1000D00A40F33982DFEDAD7AB4EEE78AF1EE08
:102B200010FA40F18E8204F2246383ED008A40465D
:102B3000FDF7CEFD0723C4F828364046FDF7C8FD53
:102B400007F51676F0EE487A04F22469C9ED0D7A9D
:102B50003046FDF7BDFD0723DFED9D8AC4F85C36E6
:102B60003046FDF7B5FD4FF0000ADFF884B2C9F832
:102B70006CA00123C9ED1A8AC9F870B0404684F8E8
:102B80009836C9F810A0C9ED028AC9F80CB0FDF753
:102B90009FFDC9F844A0C9ED0F8AC9F840B030467E
:102BA000FDF796FDB5EEC08AF1EE10FA07F5277A2B
:102BB00040F3CF81DFED857AB4EEE78AF1EE10FACB
:102BC00040F1248204F29C6383ED008A5046FDF7B5
:102BD0007FFD0623C4F8A0365046FDF779FD07F5C2
:102BE0003479F0EE487A04F29C6BCBED0D7A4846CE
:102BF000FDF76EFD0623DFED778ADFED779A9FED17
:102C0000779AC4F8D4364846FDF762FD0123CBED30
:102C10001A9A8BED1C9ACBED1B8A504684F810371C
:102C2000CBED029A8BED039ACBED048AFDF750FDB4
:102C3000CBED0F9A8BED109ACBED118A4846FDF73C
:102C400047FDB4EEE88AF1EE10FA07F5457340F35C
:102C50005781DFED5E7AB4EEE78AF1EE10FA40F1CB
:102C6000008204F21472184682ED008A0093FDF788
:102C70002FFD009B08221846C4F81827FDF728FDF1
:102C8000009B07F5527704F2147B8BED0D8A3846D2
:102C90000093FDF71DFD0822C4F84C2738469FED30
:102CA0004D8A9FED4F9ADFED4F8AFDF711FD009B96
:102CB000CBED1C8A012218468BED1A9A8BED1B8AEC
:102CC00084F88827CBED038A8BED029A8BED048A7A
:102CD000FDF7FEFCCBED108A38468BED0F9A8BED9D
:102CE000118AFDF7F5FCF0EE008A04F5CB62404650
:102CF00004F22468C8ED1B8A88ED0B8A88ED0C8AE3
:102D000082ED0B8A82ED0C8AC8ED048AFDF7E0FCA7
:102D1000C8ED118A304604F29C66FDF7D9FCDFF855
:102D2000D48086ED0B8A04F5DA6286ED0C8AC6F84B
:102D30006C80504682ED0B8A82ED0C8AC6F81080BA
:102D4000FDF7C6FC4846C6F84480FDF7C1FC009B71
:102D5000CBED1B8A04F5E96418468BED0B8A8BEDED
:102D60000C8A84ED0B8A84ED0C8ACBED048AFDF786
:102D7000AFFC3846CBED118AFDF7AAFC1BEE901A8A
:102D80002846FEF781FE1DB0BDEC088BBDE8F08F34
:102D90000023009305E69FED149A009085ED6D9A4F
:102DA000FDF796FC0098C5F8B861FDF791FCB5EE0B
:102DB000C08AF1EE10FA009800F31B819FED0B0A18
:102DC000F0EE497AFFF729BB0629643F8096184B3D
:102DD0000000DC420000000000004844CDCC4C3F25
:102DE00000C0DA458104353F00803B47E3C8EBBAB9
:102DF0008104353F000020C098E80F00DFF8D8922A
:102E0000C5F8109005F1200C8CE80F003FF7CEA913
:102E1000C5F830903FF7D4A906F1100696E80700F0
:102E2000A34BAB63A34B6B6405F14803C5F83C901F
:102E300088E8070083E8070005F10C0C3FF7D8A9E4
:102E40004FF00203C5F85890EB663FF7DDA9C5F8CF
:102E50008430C5F870903FF7E4A99FED977AC5F8E4
:102E600090C0F2EE007AC7EE086AC5F88890C5F8FF
:102E70008C7087EE887ADFED917AC5ED2F6A68EE67
:102E8000277ABFEE000A80EE270A85ED307A06F039
:102E9000EBFBB5EEC08AF1EE10FA85ED310A05F1D3
:102EA000C8003FF7E8A9C5F8C8900090FDF710FCEE
:102EB00001230098C5F8CC30FDF70AFC804BC5F81B
:102EC000D030804B0098C5F8D8A0C5F8D430FDF7B5
:102ED000FFFBB5EEC08AF1EE10FA3FF7ECA9C5F89A
:102EE000FC903FF7F3A9DFED788A784BC5ED428A75
:102EF000C5F804313FF7F8A99FED750AFFF701BA4D
:102F0000DFED718A009304F214721846C2ED008A54
:102F1000FDF7DEFB009B08221846C4F81827FDF7D2
:102F2000D7FBB5EEC08AF1EE10FA009B07F5527799
:102F3000D8BFB0EE688A7FF7A6AE9FED667ADFED68
:102F4000627AB4EEC78AF1EE10FA58BFB0EE678A23
:102F500099E6DFED5D8A04F29C63C3ED008A50467A
:102F6000FDF7B6FB0623C4F8A0365046FDF7B0FBCC
:102F7000B5EEC08AF1EE10FA07F53479D8BFF0EE5D
:102F8000687A7FF730AE50E0DFED4F8A04F22463B9
:102F9000C3ED008A4046FDF79BFB0723C4F82836A3
:102FA0004046FDF795FBB5EEC08AF1EE10FA07F545
:102FB0001676D8BFF0EE687A7FF7C6AD9FED457AFA
:102FC000DFED417AB4EEC78AF1EE10FA48BFF0EEB9
:102FD000487AB9E5DFED3C8A3AE53F4BC5F8B431B4
:102FE0000090FDF775FB0098C5F8B861FDF770FB20
:102FF0000098DFED387AB4EEE78AF1EE10FA4AD4A1
:103000009FED360ADFED307AFFF707BA04F29C63D2
:10301000314A1A605046FDF75BFB0623C4F8A03620
:103020005046FDF755FB07F534799FED2A7ADFED21
:10303000267AB4EEC78AF1EE10FA48BFF0EE487A6D
:10304000D1E504F22463244A1A604046FDF740FBB0
:103050000723C4F828364046FDF73AFB07F51676F5
:10306000ACE704F214721C49116018460093FDF796
:103070002FFB009B08221846C4F81827FDF728FBF1
:1030800007F55277009B58E7DFED0F7AFFF7B6BBE5
:10309000DFED0D7A19E49FED127ADFED126A28EE6A
:1030A000077AF0EE487A86EE870AFFF7B6B900BFD6
:1030B0006DE87F3FA5437F3F0000FA446F12033B5A
:1030C0000000E1448104353F00803B47A0CB7F3FB7
:1030D00027C17F3F8096184B00803B47E3C8EBBA7F
:1030E0000AD7A33D550CDDC02DE9F04F2A4ADFED8C
:1030F0002B6A0A4485B082EAD23342F0010202FB15
:1031000003F30D4683EAD312009143F03D0101FB26
:103110000232534083EA933307EE903AF8EE677A2F
:10312000B1EE087A67EEA67A00F5583467EE877A32
:103130000190FDEEE77AC4F8A45C17EE903A052BF7
:1031400000F33A83164A174923EAE37300F554362D
:10315000D35C154A86F8DC3AD018D35C4078092253
:10316000C01A86F8DA2A0322C0B286F8DD2A0027C0
:103170005A1886F8DB0AC6F8D42AA6F8D87A0028A6
:1031800000F03083CB5C844608494FF00008C2F160
:10319000010E01270EE000BFF5792B6D0000802F96
:1031A000B4CD0000F0CD0000CCCD0000ABAAAAAA9F
:1031B00012F8013FA1FB0395ED0805EB4505A3EBD4
:1031C00085030C33A1FB0395ED0805EB4505A3EB47
:1031D000850307FA03F348EA03031FFA83F80EEBAB
:1031E00002039842A6F8D88AE2DC0023C94ACA49F9
:1031F000C4F8A83C009BDFEDC96ADFF844E3C84F80
:103200001A441944019B03F55B36B1EE087A06F1C6
:10321000A80042F0010582EAD23305FB03F343F034
:103220003D0883EAD31508FB05356B4083EA9333E9
:1032300007EE903AF8EE677A042367EEA67A3A44EE
:1032400067EE877AFDEEE77A17EE905A25EAE57881
:10325000052DD8BF5EF8283093FBFCF591420CFB9E
:10326000153340F8043FD4D181EAD13341F0010154
:1032700001FB03F343F03D0183EAD31201FB023269
:10328000534083EA933307EE903A9FEDA47A019B73
:10329000DFEDA26ADFF88882F8EE677A03F5593726
:1032A00067EE877A07F13400B0EE677ABEEECF7A28
:1032B000002317EE101A0329DABF21EAE171033166
:1032C00006211022FDF7C8F8009B964A1A4482EAAC
:1032D000D23342F0010202FB03F343F03D0183EAE3
:1032E000D31201FB0232534083EA933307EE903A44
:1032F000F8EE677AB0EE087A67EEA67A07F1440036
:1033000067EE877A0423FDEEE77A102217EE901A13
:103310000229DABF21EAE17102310421FDF79CF8AC
:10332000009B814A009DDFED7D6A1A4482EAD23318
:1033300042F0010202FB03F343F03D0183EAD312A2
:1033400001FB0232534083EA933307EE903A774A07
:10335000F8EE677A2A4467EEA67A82EAD23342F020
:10336000010202FB03F3B1EE0C7A43F03D0C67EE71
:10337000877A83EAD3120CFB0232FDEEE77A5340E0
:1033800083EA933317EE901A07EE903A9FED637A33
:10339000F8EE677A062967EE877AD8BF21EAE171ED
:1033A000F0EE676AFEEECF6AD8BF073116EE903AAC
:1033B000C8BF0D2107F15400102283F30203FDF76B
:1033C0004BF85B4A2A4482EAD23342F0010202FB04
:1033D00003F343F03D0183EAD31201FB0232534071
:1033E00083EA933307EE903AF8EE677AF0EE086AD4
:1033F00067EE877A07F1640067EEA67A0023FDEE98
:10340000E77A102217EE901A0229DABF21EAE17159
:1034100003310521FDF720F8009B464A009DDFEDB2
:103420003F6A1A4482EAD23342F0010202FB03F3FC
:1034300043F03D0183EAD31201FB0232534083EA99
:10344000933307EE903A3C4AF8EE677A2A4467EEE7
:10345000A67A82EAD23342F0010202FB03F3B1EE14
:10346000047A43F03D0C67EE877A83EAD3120CFBB3
:103470000232FDEEE77A534083EA933317EE901A57
:1034800007EE903A9FED257AF8EE677A042967EE09
:10349000877AD8BF21EAE171F0EE676AFEEECF6A63
:1034A000D8BF073116EE903AC8BF0B2107F1740060
:1034B000102283F30203FCF7CFFF2049DFF884C01A
:1034C000294441F0010281EAD13302FB03F343F0C6
:1034D0003D0083EAD31200FB0232534083EA933368
:1034E00007EE903AF8EE677AB0EE086A67EE877AF0
:1034F00006F1B70E67EE867AF1EE046AFDEEE77A22
:10350000AC4417EE902A22EAE272022AA8BF0222F5
:1035100070461FE0EAF356DAC961D9210000802F16
:10352000F5792B6DBEDB048FB35530FCA8CF5B69FA
:103530009D4987D692C3B243873DDEB07CB7091E52
:103540009CCD0000CC56C1F0521928D5614502F13E
:10355000080229D0414441F0010581EAD13305FB3D
:1035600003F383EAD31543F03D0909FB05356B40AE
:1035700083EA933307EE903AF8EE677A00F8012F6A
:1035800067EE877A67EEA67AFDEEE77A17EE903A55
:1035900023EAE375042BA5F10205D5DD0232072AE3
:1035A000C8BF083A6145D5D1019B03F5563C0022BE
:1035B00002230CF5487CC4F824342037C4F82824AE
:1035C000C4F82C2484F8302463461A601A715A71A6
:1035D00030339F42F9D106F1B803A4F820240393B5
:1035E00006F1C7021EF8013F072B00F2F880724572
:1035F000F8D14FF002080123DDF804A00293C6467B
:1036000006F1B700B7EE007A4FF00009A046CE45AC
:10361000A8BFCE46BEF1000F51DBA0F55B37457861
:103620000EF1010EB83F00260121D8F828B4BBF1F5
:10363000000F50DD00231A4602E001325A4548D0FF
:103640005CF82340A14203F10C03F6D102EB4202E5
:103650000CEB021292F805B0BBF1000F21D0511D06
:10366000002302E001335B451BD011F8014FAC424F
:10367000F8D102EB8303D3ED047A77EE877AC3EDBA
:10368000047A013676451AD007F55B334578B733AF
:10369000012113F8012F984202EBC101F9D1013F3A
:1036A000C3E702EB0B0301369D71764502EB8B03FA
:1036B0000BF1010B83ED047A82F805B0E4D109F136
:1036C0000109B9F1100F00F1010020D0D8F824E46D
:1036D0009DE72F2A14DC0BEB4B020BF10103C8F81A
:1036E00028340AEB021303F554330CEB0212C3F82F
:1036F000201B4FF0000183F8246B83F8251BA9E7FA
:103700004FF00102002388F830240293B9E74446C1
:10371000029B84F8C83C94F8B83C072B1AD894F85C
:10372000B93C072B16D8D4F82434022B1A46A8BF6C
:103730000222002B0CDD0398C2F10201012B415C37
:1037400084F8201404DDC2F10303C35C84F821343F
:10375000C4F82C24009B254ADFED256A0198134408
:103760001A4642F0010283EAD33302FB03F343F02B
:103770003D0183EAD31201FB0232534083EA9333C3
:1037800007EE903AF8EE677AB1EE047A67EEA67A21
:1037900067EE877AFDEEE77A17EE903A042BDDBFED
:1037A00023EAE373C3EBC30303F154017021FEF773
:1037B0006BF905B0BDE8F08F019B0E4A03F5543656
:1037C00040F20953A6F8DA3A4FF0050C40F21B33E9
:1037D000A6F8DC3AC6F8D42A00236046D4E40023D5
:1037E000029395E74FF0010CFFE400BFC1D0EC5D00
:1037F0000000802FAACE00002DE9F84FE94AEA4BDD
:10380000DFF8F083DFF8F093DFF8F0B3E7492DED50
:10381000028B4261E64A82629FEDE68AE64AC26412
:1038200000274FF07E554FF07C564362E34A866492
:1038300000234FF0804A0446036043608360C36006
:10384000C3668666C0F8308047638763C0F83C80F3
:10385000076447644565C0F85880C76507664766D2
:10386000C0F8708047678767C76780ED148AC0F823
:1038700010808561C7610162C0F88060C0F8843043
:10388000C0F88C30C0F89030C0F8CC30C0F8D0B060
:10389000C0F82CA0C0F88880C0F89470C0F8987068
:1038A000C0F89C70C0F8A070C0F8A470C0F8A870F0
:1038B000C0F8AC70C0F8B070C0F8B470C0F8B850C0
:1038C000C0F8BC70C0F8C070C0F8C470C0F8C88040
:1038D000C0F8D490C0F8D870C0F8DC70C0F8E070C0
:1038E000C0F8E470C0F8E870C0F8EC70C0F8F050B0
:1038F000C0F8F470C0F8F870B149C0F8FC80C0F8A6
:103900001C21C0F80071C0F80471C0F80881C0F82B
:103910000C71C0F81071C0F81481C0F81851C0F8CB
:103920002051902200F5927004F0A8FCA549C4F83B
:103930000812A549C4F81812A449C4F81C12A449D5
:10394000C4F82012A349A44AC4F828120023A349AA
:10395000C4F8BCB1C4F83062C4F80C22C4F8242204
:10396000C4F80012DFF898C284ED8B8AC4F8B481E1
:10397000C4F8B831C4F8C091C4F8C471C4F8C871AF
:10398000C4F8CC71C4F8D071C4F8D471C4F8D8713B
:10399000C4F8DC51C4F8E071C4F8E471C4F8E881FB
:1039A000C4F8EC71C4F8F071C4F8F481C4F8F831CB
:1039B000C4F8FC71C4F80472C4F81072C4F814722C
:1039C000DFED877AC4F834229FED867AC4F840622E
:1039D000C4F85862C4F87062C4F88862C4F83872D7
:1039E000C4F83C72C4F84472C4F84882C4F84C72FB
:1039F000C4F85072C4F85472C4F85C32C4F86082DF
:103A0000C4F86472C4F86872C4F86C72C4F8743292
:103A1000C4F87882C4F87C72C4F88072C4F88472E6
:103A2000C4F88C32C4F89082C4F89472C4F89872C6
:103A3000C4F89C52C4F8A072C4F8A472C4F8A87266
:103A4000C4F8AC72C4F8B082C4F8B43204F5C252FF
:103A5000C4F8B8B204F5D946DFF8A8B1DFF8A8E198
:103A6000C4F8BC92C4F8C072C4F8C472C4F8C87276
:103A7000C4F8CC72C4F8D072C4F8D472C4F8D85266
:103A8000C4F8DC72C4F8E072C4F8E482C4F8E83226
:103A9000C4F8EC72C4F8F052C4F8F452C4F8F85206
:103AA000C4F8FC52C4F80083C4F80433C4F80873A3
:103AB000C4F80C53C4F81053C4F81453C4F8185382
:103AC000C4F81CC3C4F82053C4F82453C4F82873A2
:103AD000C4F82C73C4F83033C4F83493C4F8389362
:103AE00010322036214641F214504FF07E594FF0EB
:103AF000FF35C1F83C83C1F84033C1EDD17A81ED87
:103B0000D27AC1F84C73C1F850E3C1F854B3C1F88C
:103B10005833C1F85C33C1F86033C1F8643342F8FC
:103B2000383C42F8343C42F830AC42F8287C42F849
:103B3000247C42F8207C42F81CCC42F8187C42F8E5
:103B4000147C02F8103C02F80F3C42F8083C02F8E2
:103B5000043C42F82C9C42F80C5C0244B242014402
:103B6000C1D104F5A04202F28C7B04F5503502F27B
:103B7000CC7E02F2DC7C02F29471DFED1B6A9FEDD9
:103B80001B7ACBF8008002F2EC7602F5FF60CBF8EE
:103B9000049005F2246A9FED168AC1ED026A4FF087
:103BA0007C5B33E000004842CDCC4C3D0000C0407F
:103BB000CDCCCC3E9A99193EEC51383E0AD7A33D64
:103BC000740F010000A00C460AD7A33BCDCCCC3D1E
:103BD000CDCC4C3FA69B443BCDCC4C3E0000E040BE
:103BE0003333B33E295C8F3ECDCCCC3E0000FA454A
:103BF00000007A4400803B47F304353F00007A44DC
:103C00000000DC436666663F0000204081ED047AD8
:103C1000C1ED007AC1ED057AC1F804B0CF6005F2BC
:103C20009C6BC2F8AC37C2F8B037C2F8B437C2F8F0
:103C3000B837C2F8BC37C2F8C037C2F8C437C2F8C8
:103C4000C837AD49CEF80080CEF80490CEF80870A1
:103C500082F8D837CCF80080CCF80490CCF8087003
:103C600082F8E837C6F800907760B76068220126CE
:103C7000C0F8009047608760504604F0FFFA8AED74
:103C80001A8ACAF86C70CAF870909B4985F89866D1
:103C900005F2147A6822584604F0F0FA96498BED42
:103CA0001A8ACBF86C70CBF87090682285F8106790
:103CB000504604F0E3FA8AED1A8ACAF86C70CAF822
:103CC000709005F28C7A00238C498D4A85F88867BC
:103CD00005F65870CAF80010CAF804201946C5F84D
:103CE0009437C5F89837C5F89C37C5F8A037C5F89C
:103CF000743BC5F8783BC5F87C3BC5F8803B4FF476
:103D0000727204F5543508F03DFB4FF472720021D5
:103D100005F5487008F036FB4FF47172002105F587
:103D2000DD6008F02FFB0AF580520023C5F8AC3A9D
:103D3000C5F8B03AC5F8B43AC5F8B83AC2F8307325
:103D4000C5F8C03A4FF0E063C2F83883C2F83C933C
:103D5000C2F84073C2F844736A49C5F8D83A4FF4C0
:103D60008063A5F8DC3A00236748C5F8D41A01F14E
:103D7000060C9E4601E011F8013FA0FB0372D20839
:103D800002EB4202A3EB82030C33A0FB0372D208C6
:103D900002EB4202A3EB820306FA03F34EEA0303AB
:103DA0008C451FFA83FEE6D105F52E63574ADFEDF9
:103DB000586AA5F8D8EA45215A6304F55632C3ED8E
:103DC0000C6A02F53872C5F81C1B0023B2EE086AB3
:103DD00007EE903AF8EEE77A013367EEA67A0C2BFD
:103DE00087EE867AA2EC017AF2D1C5F8183B05F588
:103DF000326004F5583500264FF410620021012787
:103E000008F0C0FA4FF400723146A5F82064C5F8F6
:103E10002474C5F82864C5F82C6485F83064C5F8A6
:103E20003464C5F83864C5F83C64C5F84064C5F826
:103E30004464C5F84864C5F84C64C5F85064C5F8D6
:103E40005464C5F85864C5F85C64C5F86064C5F886
:103E50006464C5F86864C5F86C64C5F87064C5F836
:103E60007464C5F87864C5F87C64C5F8806405F2AC
:103E7000844008F087FA4FF40072314605F28460FE
:103E800008F080FA4FF40072314605F6840008F01D
:103E900079FA31464FF4007205F6842008F072FA80
:103EA00005F6844120461B4C0C60C5F8B86CC5F87B
:103EB000BC6CC5F8C06CC5F8C46CBDEC028B60214D
:103EC000C5F88C7CC5F8906CC5F8946CC5F8986CF6
:103ED000C5F89C6CC5F8A06CC5F8A46CC5F8A86CB6
:103EE000C5F8881CC5F8AC6CC5F8B06CC5F8B46CE6
:103EF000A5F8C86CBDE8F88F041001009A9999BE26
:103F0000CDCC4C3DF0CD0000ABAAAAAA0000DC430A
:103F10000000964400803B472DE9F843424D434C56
:103F20002E68434FDFF83C9140F2EE2805F0B2FADC
:103F30002378002B5FD03B78DB075CD52B68D9F862
:103F400000209B1A0E2B56D99FED3A0A3A483B4F58
:103F5000DFF814813A4E6021FEF752F8002441F256
:103F6000BC6504F003000E3004F00EF900F00F0100
:103F70007368794008FB01F1594008FB01F72B46B3
:103F8000013BFDD10134402CEBD1012F38BF01277B
:103F900029483946FFF7A8F82A48182103F038FBCA
:103FA000294B93F8C83C9BB32921284805F06AF9AE
:103FB000274803F02DFF0C21264805F063F99FEDFB
:103FC000180B0221224803F03BFF214803F020FF99
:103FD0000521214805F056F9002339460A221C48DC
:103FE00003F024FF1D482B2105F04CF9BDE8F843F0
:103FF000174803F00DBF2B6822789B1B2AB1B3F53D
:10400000FA6FA1D805F046FA90E74345FAD99BE745
:104010003321134805F036F90D4803F0F9FEC3E7E4
:10402000000000C0B48AE54018A1022009A20220C5
:1040300030A20220A6552C470833FF1FC59D1C81C6
:10404000001000E00002FF1F08930220E4CC0000F3
:104050004C28FF1F10CD000020CD000028CD00000F
:10406000B0CC000034A202209301000110B54FF43F
:10407000FA602DED028B04F003FB04213548364C29
:1040800005F000F9354B3648D3F8941C0029B8BF29
:104090000F3109114B4203F0030301F0030158BF34
:1040A0005942013103F0ACFE0B212E4805F0EAF82D
:1040B0002D4B002141F2145013F80F2C034402B190
:1040C0000131A342F8D12648DFED288A9FED288AE6
:1040D00003F096FE0621274805F0D4F8264B1B88EE
:1040E00007EE903AF8EEE77A77EEA87AC7EE887A8C
:1040F00017EE900A07F06CFD41EC100B01211848F7
:1041000003F09EFE08211D4805F0BCF81C4B1B88DF
:1041100007EE903AF8EEE77A77EEA87AC7EE887A5B
:1041200017EE900A07F054FD41EC100B01210C48EA
:1041300003F086FE0721134805F0A4F8124B084847
:10414000198803F05DFEBDEC028B0548BDE8104008
:1041500003F05EBE54CD0000A89FFF1F089302200D
:104160004C28FF1F5CCD0000584BFF1F3333234307
:104170003333A34368CD00002AA0022070CD000095
:104180002EA002207CCD000028A002202DE9F04FB7
:104190002DED0A8B83B0CDE90023179F002F40F34C
:1041A000BB8000F55A354FEA870905F184080C46B3
:1041B0004A460021064605F5217A4046F0EE408A3F
:1041C000B0EE609A08F0DEF84A460021504608F04A
:1041D000D9F8DFED547A94ED098AB4EEE78AF1EE6E
:1041E00010FA66DDD4ED04AADFED4FBA9FED4FBAA9
:1041F0009FED4FAAF7EE009A7AEEE9AA08EB090BB9
:1042000001E094ED098AD4ED0C7AD4ED016AD4ED85
:10421000005A94ED0D7A94ED036AB0EE695AA7EE58
:10422000AA5A27EE277A66EE856A84ED0C7AC6EEE6
:10423000A57A77EE867AF4EEE97AF1EE10FAA8BF65
:1042400077EEE97A27EEAB0AC4ED037A05F00EFBB0
:1042500094ED07CAB4EECBCAF1EE10FAF0EE407A54
:104260000DD420EE0C0A05F065FBF0EE407AB0EEBE
:104270004C0AB0EE67CA05F05DFBCCEE007A94ED17
:104280000A7AD4ED026A27EE087A68EE277A84ED7E
:10429000097A98ED007A67EEA67AA7EE8A7AA8ECFA
:1042A000017A9AED007AA7EE8A7AC345AAEC017AE0
:1042B000A7D1009B169A169903EB8202019B06F583
:1042C000593003EB8103843005F18401002491ED22
:1042D000007AD2ED007AE7EE287A0D4604310134F7
:1042E000E2EC017A91ED7F7AD3ED007AE7EE287A5D
:1042F000A742E3EC017A95ED007AD0ED007AE7EE83
:10430000097AE0EC017A91ED7F7AD0ED7F7AE7EEE1
:10431000097AC0ED7F7ADADC03B0BDEC0A8BBDE828
:10432000F08F00BF17B7D138DB0FC940BD378635D6
:10433000F304353F2DE9F04F2DED028B85B0B0EE43
:10434000408A0393119B0190002BF0EE608A0D468A
:10435000029240F35181019B03F55A34119B04F101
:1043600084064FEA83094A460021304608F00AF8DD
:104370004A46002104F5217008F004F805F5A8511B
:1043800005F5A84B9FEDA11ADFEDA11AB144B7EED8
:10439000002AF0EE042AB0EE003AAE4614310BF1DA
:1043A000500BB04606E041F214539E44F3451944C5
:1043B00000F0E48011F80F3C002BF4D0119B9EED2F
:1043C000064A002B40F3C280DEF81C0051F838CCBE
:1043D000DEF82060DEF82820F6EE004AF7EE083A14
:1043E000454604F5217791E09EED097AF8EE476A9B
:1043F000F4EEE67AF1EE10FA00F39F80BDEEE77A74
:10440000F8EEC76A17EE10AA77EEE66A531EA3EB22
:104410000A0313F1010A48BFB24400EB8A0A002BD9
:104420009AED006A7FDB00EB830A9AED005A03F1F4
:10443000FF3A002B7FD0B0EE467AA5EE627A023BBF
:1044400000EB8A0ADAED007A48BF9B1900EB830380
:10445000D3ED000A51F8343C75EE675AA7EE837A23
:10446000634530EEC60A65EEA35AA0EEE47AE0EEAC
:10447000245A37EEC66AA5EEA67A11ED090A51ED67
:104480000A7A51ED0B0A51ED085A27EE267A67EEAB
:10449000807AA6EE247AA7EE265AE0EE857A41EDE0
:1044A000097A67EEA57A0ADA03F5E37A0EEB8A0A4F
:1044B0009AED017A013377EE877A41F8343C00EBCC
:1044C00082030132B24208BF0022C3ED007ACEF867
:1044D0002820D5ED006AE4EE276AB0EEE77AE5EC35
:1044E000016AD7ED006AE4EE276AE7EC016A51ED54
:1044F000067AB4EEE77AF1EE10FADCBF11ED057A38
:1045000027EE877AA94501ED067A21D051ED0C7A84
:10451000F4EEC27AF1EE10FABFF666AFF0EE616A21
:104520004FF0010A72E706EB030A00EB8A0A9AEDE4
:10453000005A03F1FF3AB2447DE7FDEEE67A17EE4A
:1045400090AAF8EEE77A76EEE76A5FE711ED067A71
:10455000B4EEC17AF1EE10FA7FF525AF51F8383C90
:1045600051F8342C9A42A4BF002301F80F3C41F2C9
:1045700014539E44F34519447FF41CAF119B002B48
:1045800035DDDDE910215518039A1099019B029839
:1045900002EB8101109A03F55933843300EB820258
:1045A00000EB8505843494ED007AD2ED007AE7EED5
:1045B000087A20460434E2EC017A94ED7F7AD1ED5A
:1045C000007AE7EE087AAA42E1EC017A90ED007AEF
:1045D000D3ED007AE7EE287AE3EC017A94ED7F7A66
:1045E000D3ED7F7AE7EE287AC3ED7F7ADBD105B091
:1045F000BDEC028BBDE8F08F119A00F55A36843677
:104600004FEA820900F55A34B8E600BF17B7D1382F
:10461000000000002DE9F0479FEDE87ADFEDE87A31
:104620002DED088B90ED009AC9EE078A0446B0EE96
:10463000608AF4EEE78AF1EE10FAD8BFF0EE678AEE
:10464000B4EEE80AF1EE10FA0ADDF4EE008A69EE43
:10465000288AF4EEC08AF1EE10FA58BFF0EE408AD4
:10466000226A04F5805505F59F6640F20113C6EDF8
:10467000008AA5F8043542B1E0699200002107F0F4
:1046800081FE94ED009AD6ED008ADFEDCE7AD4ED6E
:10469000020AF4EEE70A002205F59E63F1EE10FA35
:1046A000A262C9EE289AC3ED007A00F17E81F7EE8E
:1046B000007AF4EE670AF1EE10FAC8BFF0EE670A6E
:1046C0009FEDC10A05F00CF89FEDC07ADFEDC07ACE
:1046D00020EE070A69EE277A9FEDBE7AB4EE670AEC
:1046E000F1EE10FAC8BFB0EE670A20EE070AB7EE87
:1046F00000AA80EE090A04F0B7FF05F2EC4305F5C5
:104700009D62DFEDB57A68EEA77A3AEE400AC7EE11
:1047100089AA3AEE40BA82ED000A83ED00BAB0EE03
:104720006A0A05F0A3F8B0EE409AB0EE6A0A05F006
:1047300065F82BEE099AF0EE407AF0EE4A0AEBEEBD
:10474000670AB0EE490A04F08DFFC0EE2A6A05F24E
:10475000E44379EECA7A9FEDA17A77EEE67AF4EE39
:104760004A7AF1EE10FA48BFF0EE4A7AC3ED007AC9
:10477000D4ED050AF4EEC70AF1EE10FA00F1A080BC
:10478000F3EE047AF4EE670AF1EE10FAC8BFF0EE29
:10479000670A60EEA80AF8EE087AC7EEA00AB2EE41
:1047A000040A04F09DFFF6EE007A79EEA77AD4EDC4
:1047B000046AFDEEE77AF5EEC06A17EE90EABEF500
:1047C0005C7FA8BF4FF45C7EBEF1020F05F2F4439C
:1047D000B8BF4FF0020EF1EE10FA83ED000A00F1BF
:1047E000E780F7EE007AF4EEE76AF1EE10FA6ADDA0
:1047F0009FED744AF0EE676AB5EEC08AF1EE10FAEA
:1048000068D4F7EE007AB4EEE78AF1EE10FA40F3DE
:10481000F5809FED798AD4F80480714FD8F8002094
:104820009FED705ADFED704A9FED703ADFED653A0B
:1048300004F21C76F0EE005ABFEE006A3A443046AD
:104840004FF0010C002116E0012914BFF0EE637A4D
:10485000F0EE437A66EEA77AE64567EEA47AE7EED5
:10486000047A67EE887AC0ED007A36DD01313A4489
:104870000CF1010C043042F0010982EAD23309FB49
:1048800003F383EAD31943F03D0A0AFB093983EAAB
:10489000090383EA933307EE903AF8EE677AB0EEB5
:1048A000467A67EE857AA7EEA57A0029CCD166EE26
:1048B000A47AE7EE047A67EE887AC0ED007AD5E74D
:1048C000F0EE470A65E7B5EEC08AF1EE10FA37EE72
:1048D000E64A96D59FED3B8A9DE794ED037AC8F8AA
:1048E000002001F5E371B5EEC07A04EB8101F1EE31
:1048F00010FAC1ED017A55D4DFED3D7AB4EE677A56
:10490000F1EE10FAC8BFB0EE677AF6EE007AE7EE85
:10491000297AFDEEE77A17EE907A002F40DD0EEB54
:104920000708B8F55C7FA8BF4FF45C78F04509DD57
:10493000A8EB0E020EF2C710920004EB80000021DB
:1049400007F020FDB84515DD06EB8706C7F5E377D0
:104950000137474408F2C71204EB870304EB8204D3
:1049600074ED017A33ED017A77EEC77AB442C4ED83
:10497000007AF5D1DFED1F7AC5F8DC84B4EEE78A62
:10498000F1EE10FAD8BFB0EE678A002205F2FC43C0
:10499000C5F8E02483ED008ABDEC088BBDE8F08704
:1049A000F046E7E79FED077AAFE7F0EE670A87E6A4
:1049B000DFED046AB7EE004A1EE700BF0000DA43ED
:1049C0000000DC4200000000610B363D00A08C4678
:1049D0006666E63EDB0FC9C0DB0FC940CDCC4C3D5F
:1049E000F5792B6D0000802FCDCCCC3FCDCCCC3ECB
:1049F0003333733F0AD7233C9A99193F5FED027A0C
:104A000028EE278A07E700BF2DE9F04F00F558355B
:104A10002DED028BD5F8946C734203F00F0306F072
:104A20000F0858BFC3F10008002EB4BF06F10F03F2
:104A300033461B115A4202F0030203F0030358BF2E
:104A4000534203F55B432A3387B000F5543750F8DF
:104A50002330D5F83824029397F8DB3A01930446C3
:104A6000B2B398FBF2F302FB1383002BB8BF9B1881
:104A70005A1100EB820202F5593203F01F03526B08
:104A800022FA03F3DB0723D5DFED9D7A90ED0A7A56
:104A90008E4B4361B4EEE77A8D4B8361F1EE10FAF1
:104AA000C0ED077A00F20884B0EE670AD4ED097A07
:104AB00084ED0E0AF5EEC07AF1EE10FA00F21884D9
:104AC0009FED8F0A84ED110A4FF07E5363632364D8
:104AD000D5F84824002A00F0AC8098FBF2F302FBE2
:104AE0001383002BB8BF9B185A1104EB820202F506
:104AF000593203F01F03526C22FA03F3D80740F136
:104B0000988023689FED737AD4ED167A724ADFEDB0
:104B1000735A9FED736A9FED7A5AC7EE276A1A445B
:104B200082EAD233226042F0010202FB03F383EAFD
:104B3000D31243F03D0101FB0232534083EA933329
:104B400007EE903AF8EE677A9FED667A67EEA57AFF
:104B5000F4EEC56AA7EE867AF1EE10FA84ED157AC6
:104B600000F1B6839FED607AF4EEC76AF1EE10FAB9
:104B700000F31984F4EEC56AF1EE10FAC4BFB7EE83
:104B8000007AC7EE267AC4ED186AD8BFF0EE457AEF
:104B900094ED1C7ADFED556AC4ED197AC6EE877A7A
:104BA0009FED577AF4EEC77AF1EE10FA00F1B78371
:104BB0009FED4D6AF4EEC67AF1EE10FA00F3F98338
:104BC000F4EEC77AF1EE10FAC4BFB7EE007AC7EE82
:104BD000276AC4ED1E7AD8BFF0EE476ADFED487A47
:104BE00094ED137AC4ED1F6AB4EEE77A4FF07A536E
:104BF000F1EE10FAC4ED177AC4ED3D7AC4ED3E7AB9
:104C0000636700F28183B0EE670AD4ED147A84ED15
:104C1000410AF5EEC07AF1EE10FA00F25E839FEDE4
:104C2000380A84ED440A4FF07E53C4F80031C4F8CA
:104C30000C31D5F85824002A00F0CC8098FBF2F310
:104C400002FB1383002BB8BF9B185A1104EB82029E
:104C500002F5593203F01F03526D22FA03F3D9070C
:104C600040F1B88023681C4A9FED1C3A9FED206AF2
:104C70009FED205ADFED226ADFED1B4ADFED1E3A81
:104C80001A4482EAD233226042F0010202FB03F3AB
:104C900043F03D0183EAD31201FB0232534083EA21
:104CA000933307EE103AB8EE477AF5EE005A27EE46
:104CB000037AF7EE007AA7EE256A104AB0EE674A4B
:104CC00084ED466A234604F190013AE00000484230
:104CD0003333733F00003E43F5792B6D0000802F86
:104CE000CDCC4C3E3333333F48E1FA3E000098438D
:104CF0009A99993E0000A543BC9C0240DCCE00007E
:104D00000000000000C0DA456666E63EB4EEE47AD4
:104D1000F1EE10FA00F3C082B5EEC07AF1EE10FAAF
:104D2000C8BF84EE076A83ED4B7AD8BFB0EE666ADF
:104D300083ED4C6AC3ED4A6A1833994217D0F2ECFE
:104D4000017AD3ED495A67EE857AB0EE666A87EE4E
:104D5000A57AB5EEC07AF1EE10FAD7D5C3ED4B6A5D
:104D600083ED4C6AC3ED4A6A18339942E7D1D4ED1A
:104D7000477AC4ED786AF5EEC07AF1EE10FAC4ED28
:104D8000796A00F28E821FED220AD4ED487A94ED02
:104D9000457A1FED246A5FED246AC44BC4F8C03124
:104DA00067EE867A27EE267A0023F4EEC77AF1EED4
:104DB00010FA58BFF0EE477AC4F8C43184ED7C0A8B
:104DC000C4ED6F7A04F5DA70FBF782FC4FF07E5386
:104DD000C4F8EC31D5F8983C002B05DD013BC5F853
:104DE000983C002B00F04982D5F86824002A00F096
:104DF000EA8098FBF2F302FB1383002BB8BF9B18E9
:104E00005A1104EB820202F5593203F01F03526E6D
:104E100022FA03F3DA0740F1D6802368A44AD7F8D0
:104E2000D41A1A442260002972D0019800286FD049
:104E300082EAD23342F0010202FB03F343F03D0069
:104E400083EAD31200FB0232534083EA933307EE26
:104E5000903ADFED986A9FED987AD5F89C3C0393E1
:104E6000F8EE677A029B019A67EEA67A9A1AF4EE38
:104E7000C77AF1EE10FA4CBF0120002002EB80024D
:104E8000039B019803FB002393FBF0F200FB02F06D
:104E9000834205D0002B03DA0198013A00FB02F0AF
:104EA0001B1ACB5CD7F8181B01FB0233D7F81C2B5D
:104EB00039339B1A93FBF1F201FB02F0834206D0D7
:104EC00091EA030F44BF02F1FF3201FB02F007EE4B
:104ED000902A1B1A07F52E6202EB8303B8EEE77ADD
:104EE000D2ED0C6AD3ED007AE7EE267AF4EE677A1B
:104EF000F1EE10FA0CD19FED710A07F6143327EE8C
:104F0000800A93ED008A04F08FFD28EE000A01E08C
:104F10009FED6D0AD4F8F811654A0B68D4ED906ADC
:104F20009FED677A84EDC70A1A4442F0010082EAD5
:104F3000D23300FB03F3F7EE007AE6EEC77A43F0D4
:104F40003D0C83EAD3100CFB0030434083EA9333DB
:104F5000C4EDC97A07EE903A9FED567A594BC4F8E2
:104F60002033B8EE678A4FF0000928EE078AC4F8AC
:104F70002C93C4F82893C4F84C92B0EE480A0A6007
:104F800005F066FD0123C4F8E832C4F8043338EEB6
:104F9000400A0023C4F830330323C4F87C9284ED24
:104FA000990AC4F8AC92C4F8A892C4F8A492C4F8C0
:104FB000A092C4F8DC92C4F8E092C4F8EC92C4F871
:104FC0000893C5F8983CD5F87824002A00F04D8164
:104FD00098FBF2F302FB1383002BB8BF9B185A1106
:104FE00004EB820202F5593203F01F03526F22FADA
:104FF00003F3DB0740F13981D5F82C34D5F82414BC
:1050000004938B421A46A8BF0A46002A0391904691
:10501000C0F22B8104F5593909F11E0904F5563CFB
:1050200004F1FF3AB8F1000FD5F82804059499442B
:105030000CF5487C9A4402F1FF3E33DD08F5593304
:105040001F33AAEB0E0B9B440121A9EB0E0313F8AF
:10505000012F9B4502EBC101F9D100281BDD002384
:105060001A4602E00132824211DA5CF82340A14282
:1050700003F10C03F6D102EB420307EB03114FEAF5
:10508000420B91F8251B1B01002940F04D81BEF118
:10509000FF3F00F0EA8008F1FF38B8F1000F0EF191
:1050A000FF3ECBDC0028F2DD0121D8E78104353F4B
:1050B000F5792B6D0000802F0AD7233E0E745A3AE3
:1050C0009899193E9A99593F0000C07F013B5A4474
:1050D00007EB021213440499039A93F8263B91427A
:1050E000C0F26C81012A03DD95F8212485F8202483
:1050F000039941F21F4239448B54029A0198D7F820
:10510000D41A134403EB0008B9B3B0B3D5F89C3CF0
:1051100003FB008393FBF0F200FB02F0834240F0BC
:1051200065811B1ACB5CD7F8181B01FB0233D7F83B
:105130001C2B39339B1A93FBF1F201FB02F08342E3
:1051400006D091EA030F44BF02F1FF3201FB02F0E7
:1051500007EE902A1B1A07F52E6202EB8303F8EE86
:10516000E77AD2ED0C6A93ED007AA7EEA67AB4EE58
:10517000477AF1EE10FA00F02A811FED2D0AA14FB7
:1051800004F5C25267442760103204F5D944203434
:10519000134641F2145C13F80F1CA3F5A850143801
:1051A0006344B1B39C42F6D11346002041F2145E31
:1051B0009146AA4613F8042CA3F5A85114395AB9FC
:1051C00000F5805C002800F01981DCF80C2553F80C
:1051D000085C954238BF084673449C42EAD14A466F
:1051E0005546B0B941F2145ED446A2F5A85300F575
:1051F0008051143B002800F00381D1F80C1552F8BF
:10520000085C8D4238BF184672449442EDD1654621
:1052100058B387EAD73347F0010707FB03F343F09E
:105220003D0183EAD31201FB0232534083EA9333F8
:1052300007EE903ADFED746A9FED747AD5F8A01C02
:10524000F8EE677A00F5805367EEA67A0122F6EE53
:10525000000AE7EE870AC3F80885C3F80C1583F83F
:105260001025FFF7D7F9D5F8946C0136C5F8946C82
:1052700007B0BDEC028BBDE8F08FD4F8E83213B173
:105280000423C4F8E832D4F80433002B3FF4ACAD67
:105290000423C4F80433A7E5B0EE636AC3ED4B4AB8
:1052A00046E594ED7A7A9FED5A0A67EE877A80EEAA
:1052B000270A04F0D9F968E5D0ED0C7A9FED540A7D
:1052C00027EE277A80EE070A04F0CEF9FFF7EEBB4F
:1052D000F0EE457A84ED185A5AE494ED427A9FED47
:1052E0004C0A67EE877A80EE270A04F0BDF998E44D
:1052F00094ED0F7A9FED460A67EE877A80EE270AD3
:1053000004F0B2F9FFF7DEBBD4ED3F7A9FED400A1F
:1053100027EE277A80EE070A04F0A6F975E4F0EE8E
:10532000476A84ED1E7A59E4059CDFED376A9FEDEC
:10533000397A10330CEB03002368DFF8C8C09C44B3
:105340004CF0010E8CEADC330EFB03F383EAD31E30
:1053500043F03D0808FB0E3E83EA0E0383EA9333D5
:1053600007EE903AF8EE677AC4F800C067EEA67AC6
:1053700000EB810E0346F3EC016A9E4537EE267A78
:10538000F9D167EE877A002303E0013399423FF4B5
:105390009DAEB0EC017A77EEC77AF5EEC07AF1EE09
:1053A00010FAF2D893E6DFED1C7A84ED187AFFF755
:1053B000EFBBDFED196A84ED1E6A0FE404997A18D9
:1053C00002F5A1520131C5F82C14137095E69FED3A
:1053D000130A07F6143727EE000A97ED008A04F047
:1053E00023FBD4F800C028EE000AC8E6002BBFF665
:1053F00098AE0198013A02FB00F092E60846EBE60F
:10540000184601E7F5792B6D0000802F3333B33E4A
:10541000550CDDC000000000BC9C02400E745A3ADE
:105420002DE9F04F2DED068B87B0169CA34280F23C
:10543000368101EB830A02EB830201EB84030593BF
:10544000D0F8E8330093D0F8EC33D0F814900393FD
:10545000836801939FEDA49AC368DFEDA48A9FED52
:10546000A4AADFEDA4AA9FEDA48ADFEDA49AD0F848
:10547000F4B3049351460546CA4600F5805491465C
:10548000B1EC017AF9EC017A019B039AB5EEC07A8E
:10549000F1EE10FAF5EEC07A4CBFB1EE470AB0EE6D
:1054A000470AF1EE10FA4CBFF1EE676AF0EE676A58
:1054B00003EB8A0383ED007AB4EEE60A049BF1EE77
:1054C00010FA0AF10100D8BFB0EE660A9842009BBC
:1054D00008BF4FF0000A03EB8B031CBF5746824600
:1054E000C5F814A0C3ED007A0BF1010308BF4FF01B
:1054F000FF3793420EBF4FF0000B5E469B46C5F848
:10550000F4B3D4EDCF7AF4EEC07A08BF4FF0FF3693
:10551000F1EE10FA3BD5B4EEE80AF1EE10FA00F322
:10552000C580F0EE4A7A95ED007A77EEC77A94ED71
:10553000D17AD4EDD06AD4F8280327EE267AF4EE97
:10554000477AF1EE10FAC8BFB0EE677A002884ED12
:10555000D17A40F3C480D4F82423B2B1531E03F5AA
:10556000F97C05EB8C0CDCED017AF4EEC77AF1EEF8
:1055700010FA0FD80138C4F82433C4F828030028DF
:1055800000F092801A46002AE8D1F123E7E7F0EE16
:10559000497ACCE71346421C05EB830C0CF2CC781D
:1055A00088ED007AF12BD4F83483CCF8948B14BFB7
:1055B00001330023C4F82433D4F82033C4F828235B
:1055C00005EB830CDCF8942BA8EB020CBCF1F00F7C
:1055D00007D9F12B14BF01330023C4F82803C4F802
:1055E000203303F5F97305EB830393ED017AD4F8C7
:1055F0002C33D4EDCC6A05EB830000F65C70D0ED63
:10560000007A77EE677A013377EEA67AF12BC4ED54
:10561000CC7A80ED007AC4F82C334ED087EE880A1D
:105620000291B5EEC00AF1EE10FA56BFDFED347A02
:10563000B0EE690A20EE670A04F0F6F92B690299C8
:105640000233F02BD4BFFF1AF03F002FBCBF049BE6
:10565000FF18019B03EB8707D5F8F033D7ED007AED
:105660000233F02BD4BFF61AF03E002EB8BF039BD6
:1056700067EE807AB8BFF618009B41ED017A03EB24
:105680008606D6ED007A67EE807A08F1010349EDCF
:10569000017AC4F83433059B8B427FF4F1AE07B036
:1056A000BDEC068BBDE8F08F012275E7029104F096
:1056B000C1F9029960EE2A7A35E70023DFED0A7A14
:1056C000C4F82C3305F5995005F65C73B3EC017AF8
:1056D000984277EE877AF9D1C4EDCC7A9EE7D4F878
:1056E0002433421C58E700BF0000000052F3843707
:1056F0000000C0C2C1A8C04000007143000000808B
:105700002D152A3E2DE9F04F2DED108B8FB005465B
:10571000DDF8A0800391B8F1000F0492059341F3E6
:1057200027834FEA88041F4600F5593303F5217695
:1057300003F18400A3468A469146002122460A943A
:105740000B96079006F01EFE5A460021304606F0E2
:1057500019FE05F55A34DFEDB60A9FEDAD0ACDF816
:1057600004804B46524605F1100128460097FEF78B
:105770000DFD04F1840304F521765A4600211846F4
:105780000293089606F0FEFD5A460021304606F0C8
:10579000F9FDDFEDA07A95ED407AB4EEE77AF1EE0F
:1057A00010FA00F3408295ED437AB4EEE77AF1EE19
:1057B00010FA40F38D809FED9C7A95ED128AD5ED1D
:1057C000158A28EE078AF6EE007A28EE278AB0EED0
:1057D000480A04F013F8B0EE409AB0EE480A04F01C
:1057E00045F829EE289A60EE288ADFED8EAADDF8CA
:1057F00008B0DDF820A0F6EE009AB0EE00AA05F1A0
:10580000580705F1700605F188044FF00009384685
:10581000FBF746FA3046B0EE408AFBF741FA95EDC9
:10582000407AD5ED417A38EE008A67EE877A28EE25
:10583000298AC5ED407A204628EE078AFBF756F8FC
:10584000D5ED3E6AD5ED384A95ED3D6AD5ED375A2E
:1058500095ED3B7A95ED394A70EE667A09F10109CA
:1058600027EEA45AC845A5EE865AF0EE665AE6EE33
:10587000245A25EE077AD5ED3A4AE7EE845AA0EE8F
:10588000247A95ED3C4AD5ED437AD5ED444AA5EE10
:10589000847AD5EE8A6A64EEA75A67EE877A95EE27
:1058A0000A6A67EEA87A85ED3D6AE8EE097AC5EDE9
:1058B0003E6AC5ED435A9BED007AA7EEAA7AABEC9F
:1058C000017A9AED007AA7EEAA7AAAEC017A9EDC18
:1058D000059B0499DFED506A9FED507A9A0009927A
:1058E000039A01EB830002EB8304079A029B0021D9
:1058F00093ED006AD4ED007AE6EE267A04330131A6
:105900008845E4EC017A93ED7F6AD0ED007AE6EE0B
:10591000267AE0EC017A13ED016AD2ED007AE6EE28
:10592000077AE2EC017A93ED7F6AD2ED7F7AE6EEB8
:10593000077AC2ED7F7ADBDC0A9B0298B8F1000F90
:10594000CCBF1A4604220021069206F01BFD069ADF
:105950000898002106F016FDDFED2E7AD5ED7BDAF2
:10596000F4EEE7DAF1EE10FA40F38581B8F1000FBA
:1059700041F336820299089B9FED2EAADFED2CEAB7
:10598000274CCDF8A0804FEA88020A9201EB8802EA
:10599000B8EE00DA8A46069205F1900998469FED26
:1059A00024EAB7EE00BA2E46D6ED4A8AD6ED4DAAC5
:1059B000D6ED4BCAF4EEEA8AF1EE10FABFEE009A89
:1059C000F5EEC0CA48BFB0EE4B9AF1EE10FA40F3C4
:1059D000C780B3EE008A2CEE88CA38EECC0A04F0F9
:1059E000EFFFF0EE407AFDEEE77A38EE8C0A17EE24
:1059F00090BA05F02DF8FDEEC07A17EE907ABB450F
:105A000000F33181D6ED4CBADFED099A013730E071
:105A1000CDCC0C3F17B7D138C3F5A83E295C0F3E5B
:105A2000F4EE0000F304353FDB0F4940CDCC4C3E93
:105A3000000000000000804207EE103AD1ED007A2D
:105A4000B8EEC70A91ED017A7FEEC0FA37EE677AB9
:105A5000B5EEC0FAEFEE877A0BF1010BF1EE10FA1A
:105A6000A8BF77EECB7ABB4577EEA77A79EEA79AF7
:105A700020D007EE90BAB8EEE7FA38EECFFA2FEE64
:105A80002BFA7FEE08FA6FEE8AFAB0EE6F0A04F096
:105A9000DFFFFDEEC07A17EE903AB3F5006F04EB2E
:105AA0008301C9D30BF1010BF0EE6E7ABB4579EEA1
:105AB000A79ADED178EEEAAA79EE299A3AEECC0AD4
:105AC00004F07EFFF0EE407AFDEEE77A3AEE8C0AC3
:105AD00017EE90BA04F0BCFFFDEEC07A17EE907A94
